:100000006CEF00F0AA00AA00408219EF36F0AA00B7
:10001000AA00AA00AA00AA004080D8CF0FF0E8CF1B
:1000200010F0E0CF11F0FACF12F0FBCF13F0E9CFD0
:1000300014F0EACF15F0E1CF16F0E2CF17F0D9CFE8
:1000400018F0DACF19F0F3CF1AF0F4CF1BF0F6CF97
:100050001CF0F7CF1DF0F8CF1EF0F5CF1FF09DB2CA
:100060009EA20DD09FB20BD09E92010E01013A27A5
:10007000000E3B233C233D232E804CEC50F0A3B0DC
:10008000A4A006D0A5B004D0A4902E822FEC51F0ED
:100090001FC0F5FF1EC0F8FF1DC0F7FF1CC0F6FF14
:1000A0001BC0F4FF1AC0F3FF19C0DAFF18C0D9FF54
:1000B00017C0E2FF16C0E1FF15C0EAFF14C0E9FF58
:1000C00013C0FBFF12C0FAFF11C0E0FF10C0E8FF31
:1000D0000FC0D8FF409010001FEF3BF010C260F03F
:1000E00011C261F012C262F013C263F0010EEFECB4
:1000F0001EF060C0CEF361C0CFF362C0D0F363C026
:10010000D1F314C260F015C261F016C262F017C2DA
:1001100063F0010EEFEC1EF060C0D2F361C0D3F3C8
:1001200062C0D4F363C0D5F3FBC160F0FCC161F0E1
:10013000FDC162F0FEC163F0010EEFEC1EF060C085
:10014000DAF361C0DBF362C0DCF363C0DDF30CC241
:1001500060F00DC261F00EC262F00FC263F0000EDB
:10016000EFEC1EF060C0D6F361C0D7F362C0D8F3E5
:1001700063C0D9F3DAC3B8F0DBC3B9F0DCC3BAF0BB
:10018000DDC3BBF0000E00018B6F000E8C6F800E84
:100190008D6F400E8E6FD6C387F0D7C388F0D8C35B
:1001A00089F0D9C38AF0A9EC11F087C0BCF088C0EF
:1001B000BDF089C0BEF08AC0BFF072EC22F0000131
:1001C000D8B070D0000E0001726F000E736F000E79
:1001D000746F400E756FDAC36EF0DBC36FF0DCC373
:1001E00070F0DDC371F008EC0BF06EC087F06FC0EB
:1001F00088F070C089F071C08AF0D6C38BF0D7C385
:100200008CF0D8C38DF0D9C38EF0A9EC11F087C063
:10021000DAF388C0DBF389C0DCF38AC0DDF3170EA4
:100220000001C46FEF0E0001C56FDAC3C6F0DBC377
:10023000C7F0DCC3C8F0DDC3C9F0000E0001CB6F0E
:10024000650ECA6F95EC0FF0C4C0DAF3C5C0DBF3DE
:10025000C6C0DCF3C7C0DDF314C260F015C261F0A4
:1002600016C262F017C263F0010EEFEC1EF060C020
:10027000D2F361C0D3F362C0D4F363C0D5F3D2C369
:10028000B8F0D3C3B9F0D4C3BAF0D5C3BBF055ECC2
:100290002DF0B8C0FBF1B9C0FCF1BAC0FDF1BBC094
:1002A000FEF11200DAC3B8F0DBC3B9F0DCC3BAF078
:1002B000DDC3BBF008C260F009C261F00AC262F09F
:1002C0000BC263F0010EEFEC1EF060C0A8F061C03D
:1002D000A9F062C0AAF063C0ABF0000E00018B6F02
:1002E000000E8C6F800E8D6F400E8E6FD6C387F020
:1002F000D7C388F0D8C389F0D9C38AF0A9EC11F02C
:1003000087C0A4F088C0A5F089C0A6F08AC0A7F075
:10031000B4EC08F0A4C0BCF0A5C0BDF0A6C0BEF00F
:10032000A7C0BFF072EC22F00001D8B0AED0000E32
:1003300000018B6F000E8C6F800E8D6F400E8E6FE4
:10034000D6C387F0D7C388F0D8C389F0D9C38AF061
:10035000A9EC11F087C0A0F088C0A1F089C0A2F07C
:100360008AC0A3F0C2EC4CF0A0C0A4F0A1C0A5F0DC
:10037000A2C0A6F0A3C0A7F0DAC3A8F0DBC3A9F01F
:10038000DCC3AAF0DDC3ABF0B4EC08F0A4C0DAF330
:10039000A5C0DBF3A6C0DCF3A7C0DDF308C260F0A4
:1003A00009C261F00AC262F00BC263F0010EEFEC09
:1003B0001EF060C08BF061C08CF062C08DF063C035
:1003C0008EF0DAC387F0DBC388F0DCC389F0DDC3CD
:1003D0008AF0A9EC11F087C06EF088C06FF089C078
:1003E00070F08AC071F0D2C372F0D3C373F0D4C37B
:1003F00074F0D5C375F008EC0BF06EC0D2F36FC08B
:10040000D3F370C0D4F371C0D5F3CEC387F0CFC39C
:1004100088F0D0C389F0D1C38AF0000E00018B6F41
:10042000000E8C6F000E8D6F400E8E6FA9EC11F0D8
:1004300087C0CEF388C0CFF389C0D0F38AC0D1F390
:10044000D2C3A8F0D3C3A9F0D4C3AAF0D5C3ABF0EC
:10045000CEC3A4F0CFC3A5F0D0C3A6F0D1C3A7F0FC
:10046000B4EC08F0A4C0B8F0A5C0B9F0A6C0BAF0CA
:10047000A7C0BBF055EC2DF0B8C0FBF1B9C0FCF142
:10048000BAC0FDF1BBC0FEF11200000E00018B6F7F
:10049000000E8C6F000E8D6F400E8E6FD6C387F0EE
:1004A000D7C388F0D8C389F0D9C38AF0A9EC11F07A
:1004B00087C0A8F088C0A9F089C0AAF08AC0ABF0B4
:1004C00008C260F009C261F00AC262F00BC263F0B8
:1004D000010EEFEC1EF060C0A4F061C0A5F062C098
:1004E000A6F063C0A7F0B4EC08F0A4C0B8F0A5C0B3
:1004F000B9F0A6C0BAF0A7C0BBF0DAC3BCF0DBC34A
:10050000BDF0DCC3BEF0DDC3BFF072EC22F0000131
:10051000D8B038D008C260F009C261F00AC262F0F7
:100520000BC263F0010EEFEC1EF060C0A4F061C0DE
:10053000A5F062C0A6F063C0A7F0000E00018B6FAB
:10054000000E8C6F000E8D6F400E8E6FD6C387F03D
:10055000D7C388F0D8C389F0D9C38AF0A9EC11F0C9
:1005600087C0A8F088C0A9F089C0AAF08AC0ABF003
:10057000B4EC08F0A4C0DAF3A5C0DBF3A6C0DCF34A
:10058000A7C0DDF308C260F009C261F00AC262F0E0
:100590000BC263F0010EEFEC1EF060C0A8F061C06A
:1005A000A9F062C0AAF063C0ABF0000E00018B6F2F
:1005B000000E8C6F800E8D6F400E8E6FD6C387F04D
:1005C000D7C388F0D8C389F0D9C38AF0A9EC11F059
:1005D00087C0A4F088C0A5F089C0A6F08AC0A7F0A3
:1005E000B4EC08F0A4C0A0F0A5C0A1F0A6C0A2F091
:1005F000A7C0A3F0C2EC4CF0A0C0CAF3A1C0CBF3DB
:10060000A2C0CCF3A3C0CDF3CAC3A4F0CBC3A5F062
:10061000CCC3A6F0CDC3A7F0DAC3A8F0DBC3A9F022
:10062000DCC3AAF0DDC3ABF0B4EC08F0A4C0DAF38D
:10063000A5C0DBF3A6C0DCF3A7C0DDF3000E00010C
:10064000726F000E736F000E746F400E756FDAC319
:100650006EF0DBC36FF0DCC370F0DDC371F008EC4B
:100660000BF06EC087F06FC088F070C089F071C069
:100670008AF0D6C38BF0D7C38CF0D8C38DF0D9C322
:100680008EF0A9EC11F087C0DAF388C0DBF389C0E3
:10069000DCF38AC0DDF3DAC3A0F0DBC3A1F0DCC376
:1006A000A2F0DDC3A3F0C2EC4CF0A0C0A4F0A1C046
:1006B000A5F0A2C0A6F0A3C0A7F0000E0001A86F8D
:1006C000000EA96F000EAA6F3F0EAB6FB4EC08F0DE
:1006D000A4C0DAF3A5C0DBF3A6C0DCF3A7C0DDF34A
:1006E000000E0001A86F000EA96F000EAA6F3F0E4A
:1006F000AB6FDAC3A4F0DBC3A5F0DCC3A6F0DDC3A7
:10070000A7F0B4EC08F0A4C06EF0A5C06FF0A6C0CE
:1007100070F0A7C071F0D2C372F0D3C373F0D4C32A
:1007200074F0D5C375F008EC0BF06EC0D2F36FC057
:10073000D3F370C0D4F371C0D5F3D2C3A8F0D3C340
:10074000A9F0D4C3AAF0D5C3ABF0CEC3A4F0CFC3F5
:10075000A5F0D0C3A6F0D1C3A7F0B4EC08F0A4C0B4
:10076000B8F0A5C0B9F0A6C0BAF0A7C0BBF055EC70
:100770002DF0B8C0FBF1B9C0FCF1BAC0FDF1BBC0AF
:10078000FEF11200000120EE04F07C51D9267D51CB
:10079000DA22DECF93F0DDCF94F0000E0001996FE6
:1007A000BED0000199510001806F816B0001D8908B
:1007B000803781370001D890803781370001D89089
:1007C000803781370C0E00018027000E81237AC00C
:1007D00082F07BC083F0000180510001822700017C
:1007E000815100018323040E00018225D96E000E81
:1007F00000018321DA6E00019951080D040EF326E1
:10080000000EF4227AC086F07BC087F0F35000011E
:100810008627F45000018723040E00018625E16E2F
:10082000000E00018721E26EDE50E65CE650800A91
:1008300000018A6FDE50800A00018A59D8B039D091
:10084000000199510001806F816B0001D8908037C1
:1008500081370001D890803781370001D8908037E8
:1008600081370C0E00018027000E81237AC082F0B0
:100870007BC083F00001805100018227000181517B
:1008800000018323040E00018225D96E000E0001B1
:100890008321DA6E00019351DE5CDE50800A000194
:1008A000866F00019451800A00018659D8B062D049
:1008B00034D0000199510001806F816B0001D89004
:1008C000803781370001D890803781370001D89078
:1008D000803781370C0E00018027000E81237AC0FB
:1008E00082F07BC083F0000180510001822700016B
:1008F000815100018323040E00018225D96E000E70
:1009000000018321DA6EDE500001935D00019451F5
:10091000800A0001866FDE50C6D70001992BFE0EBB
:100920000001806FFF0E0001816F7AC0D9FF7BC08C
:10093000DAFFDF500001826F836B000180510001FC
:100940008227000181510001832300019951000198
:10095000846F856B000182510001845D0001855127
:10096000800A0001866F00018351800A00018659C8
:10097000D8A017D700019951080D040EF326000ED8
:10098000F422F35000017A25D96EF45000017B2146
:10099000DA6EDECF95F0DECF96F0DECF97F0DECFC9
:1009A00098F0000199510001806F816B0001D8908F
:1009B000803781370001D890803781370001D89087
:1009C000803781370C0E00018027000E8123000143
:1009D000805100017A25D96E0001815100017B21EF
:1009E000DA6EDECF82F0DECF83F0DECF84F0DECFB2
:1009F00085F000019951080D040EF326000EF42233
:100A0000F35000017A25D96EF45000017B21DA6E93
:100A1000DECF86F0DECF87F0DECF88F0DECF89F044
:100A20000001861F871F881F891F862B000E8723C2
:100A300088238923000182510001862500018B6FE4
:100A4000000183510001872100018C6F0001845156
:100A50000001882100018D6F00018551000189216D
:100A600000018E6F000199510001806F816B0001C0
:100A7000D890803781370001D890803781370001C6
:100A8000D890803781370C0E00018027000E81231B
:100A90007AC082F07BC083F0000180510001822780
:100AA0000001815100018323040E00018225D96ECB
:100AB000000E00018321DA6EDECF84F0DDCF85F0F9
:100AC00000019951080D040EF326000EF4227AC09D
:100AD00086F07BC087F0F35000018627F4500001B8
:100AE0008723040E00018625D96E000E00018721A0
:100AF000DA6EDECF88F0DDCF89F00001881F891F14
:100B0000884B892B00018451000188270001855101
:100B10000001892388C08FF089C090F00001000E89
:100B200090BFFF0E916F926F00018F5100019011E5
:100B30000001911100019211D8B468D000019951BF
:100B4000080D040EF326000EF4227AC080F07BC05C
:100B500081F0F35000018027F45000018123040E3E
:100B600000018025D96E000E00018121DA6EDECFF2
:100B700082F0DDCF83F00001821F831F824B832B25
:100B80000001935100018227000194510001832349
:100B900082C060F083C061F00001000E61BFFF0EF3
:100BA000626F636F8BC064F08CC065F08DC066F0BF
:100BB0008EC067F034EC43F060C06CF061C06DF043
:100BC00062C06EF063C06FF08FC070F090C071F0C3
:100BD00091C072F092C073F03DEC2CF00001955181
:100BE00000016C250001956F0001965100016D21F7
:100BF0000001966F0001975100016E210001976F6F
:100C00000001985100016F210001986F7CC0D9FF4D
:100C10007DC0DAFF95C0DEFF96C0DEFF97C0DEFF25
:100C200098C0DEFF00017E5100017F11D8B430D0A2
:100C30007EC0D9FF7FC0DAFF95C0DEFF96C0DEFF21
:100C400097C0DEFF98C0DEFF000120EE04F07C516B
:100C5000D9267D51DA22000110EE04F07E51E12602
:100C60007F51E222DECFE6FFDDCFE5FF000120EE7F
:100C70000AF07A51D9267B51DA22000110EE06F0F3
:100C80007E51E1267F51E222DECFE6FFDDCFE5FF98
:100C90000001995112000001716F310E0001716560
:100CA00001D01200000171510008310F0001706F76
:100CB000C2D12E0E0001686F20C069F0000EB5ECA5
:100CC00035F012002E0E0001686F20C069F0010E91
:100CD000B5EC35F012002E0E0001686F20C069F0EF
:100CE000020EB5EC35F012002E0E0001686F20C028
:100CF00069F0030EB5EC35F012002F0E0001686F9D
:100D000020C069F0030EB5EC35F012002F0E000183
:100D1000686F20C069F0020EB5EC35F012002F0E9E
:100D20000001686F20C069F0010EB5EC35F01200CB
:100D30002F0E0001686F20C069F0000EB5EC35F091
:100D400012001F0E0001686F20C069F0000EB5ECA4
:100D500035F012001F0E0001686F20C069F0010E0F
:100D6000B5EC35F012001F0E0001686F20C069F06D
:100D7000020EB5EC35F012001F0E0001686F20C0A6
:100D800069F0030EB5EC35F01200000E0001686F3B
:100D900020C069F0030EB5EC35F01200000E000122
:100DA000686F20C069F0020EB5EC35F01200000E3D
:100DB0000001686F20C069F0010EB5EC35F012003B
:100DC000000E0001686F20C069F0000EB5EC35F030
:100DD0001200010E0001686F20C069F0000EB5EC32
:100DE00035F01200010E0001686F20C069F0010E9D
:100DF000B5EC35F01200010E0001686F20C069F0FB
:100E0000020EB5EC35F01200010E0001686F20C033
:100E100069F0030EB5EC35F01200020E0001686FA8
:100E200020C069F0030EB5EC35F01200020E00018F
:100E3000686F20C069F0020EB5EC35F01200020EAA
:100E40000001686F20C069F0010EB5EC35F01200AA
:100E5000020E0001686F20C069F0000EB5EC35F09D
:100E60001200030E0001686F20C069F0000EB5EC9F
:100E700035F01200030E0001686F20C069F0010E0A
:100E8000B5EC35F01200030E0001686F20C069F068
:100E9000020EB5EC35F01200030E0001686F20C0A1
:100EA00069F0030EB5EC35F01200040E0001686F16
:100EB00020C069F0030EB5EC35F01200040E0001FD
:100EC000686F20C069F0020EB5EC35F01200040E18
:100ED0000001686F20C069F0010EB5EC35F012001A
:100EE000040E0001686F20C069F0000EB5EC35F00B
:100EF0001200050E0001686F20C069F0000EB5EC0D
:100F000035F01200050E0001686F20C069F0010E77
:100F1000B5EC35F01200050E0001686F20C069F0D5
:100F2000020EB5EC35F01200050E0001686F20C00E
:100F300069F0030EB5EC35F01200060E0001686F83
:100F400020C069F0030EB5EC35F01200060E00016A
:100F5000686F20C069F0020EB5EC35F01200060E85
:100F60000001686F20C069F0010EB5EC35F0120089
:100F7000060E0001686F20C069F0000EB5EC35F078
:100F80001200070E0001686F20C069F0000EB5EC7A
:100F900035F01200070E0001686F20C069F0010EE5
:100FA000B5EC35F01200070E0001686F20C069F043
:100FB000020EB5EC35F01200070E0001686F20C07C
:100FC00069F0030EB5EC35F01200210E0001686FD8
:100FD00020C069F0030EB5EC35F01200210E0001BF
:100FE000686F20C069F0020EB5EC35F01200210EDA
:100FF0000001686F20C069F0010EB5EC35F01200F9
:10100000210E0001686F20C069F0000EB5EC35F0CC
:101010001200220E0001686F20C069F0000EB5ECCE
:1010200035F01200220E0001686F20C069F0010E39
:10103000B5EC35F0120000017051000AD8B439D671
:10104000010AD8B43FD6030AD8B445D6010AD8B4A9
:101050004BD6070AD8B451D6010AD8B457D6030ADA
:10106000D8B45DD6010AD8B463D60F0AD8B469D60D
:10107000010AD8B46FD6030AD8B475D6010AD8B419
:101080007BD6070AD8B481D6010AD8B487D6030A1A
:10109000D8B48DD6010AD8B493D61F0AD8B499D63D
:1010A000010AD8B49FD6030AD8B4A5D6010AD8B489
:1010B000ABD6070AD8B4B1D6010AD8B4B7D6030A5A
:1010C000D8B4BDD6010AD8B4C3D60F0AD8B4C9D68D
:1010D000010AD8B4CFD6030AD8B4D5D6010AD8B4F9
:1010E000DBD6070AD8B4E1D6010AD8B4E7D6030A9A
:1010F000D8B4EDD6010AD8B4F3D63F0AD8B4F9D69D
:10110000010AD8B4FFD6030AD8B405D7010AD8B467
:101110000BD7070AD8B411D7010AD8B417D7030AD6
:10112000D8B41DD7010AD8B423D70F0AD8B429D709
:10113000010AD8B42FD7030AD8B435D7010AD8B4D6
:101140003BD7070AD8B441D7010AD8B447D7030A16
:10115000D8B44DD7010AD8B453D71F0AD8B459D739
:10116000010AD8A412005ED70001A751800B00012C
:10117000B46F0001A751A7250001B66F0001A6AF0B
:1011800002D00001B6810001B6510001D8B412D0DE
:101190000001B629D8A409D0000E0001A46F000EEA
:1011A000A56F000EA66F000EA76F0001A68F000EA0
:1011B000000108D0000E0001A46F000EA56F000E04
:1011C000A66F000EA76F0001AB51800B0001B56F39
:1011D0000001B4510001B519D8B402D00001B48D9A
:1011E0000001AB51AB250001B56F0001AAAF02D0E1
:1011F0000001B5810001B5510001D8B412D0000141
:10120000B529D8A409D0000E0001A86F000EA96F5F
:10121000000EAA6F000EAB6F0001AA8F000E000136
:1012200008D0000E0001A86F000EA96F000EAA6F73
:10123000000EAB6F0001B6510001B55DD8B024D0EF
:101240000001B4AD03D0800E0001B41BB6C0B7F0EE
:10125000B5C0B6F0B7C0B5F0A4C0B7F0A8C0A4F050
:10126000B7C0A8F0A5C0B7F0A9C0A5F0B7C0A9F055
:10127000A6C0B7F0AAC0A6F0B7C0AAF0A7C0B7F042
:10128000ABC0A7F0B7C0ABF0000E0001B76F000114
:10129000B6510001AC6FAD6B0001AC1FAD1FAC4B84
:1012A000AD2B0001B5510001AE6FAF6B0001AC5129
:1012B0000001AE270001AD510001AF230001AFBF17
:1012C0003DD00001AF5105E11A0E0001AE5DD8A07E
:1012D00035D00001A4510001A5110001A6110001A3
:1012E000A711D8B402D0010E01D0000E0001B76FD3
:1012F000000E0001A46F000EA56F000EA66F000E79
:10130000A76FB5C0B6F020D00001B7A107D000018B
:10131000D890B73101090001B76F03D00001D89010
:10132000B7330001A4A102D00001B78F0001A73597
:10133000A733A633A533A4330001B62B0001B55162
:101340000001B65DD8A0E0D70001B4BD3FD00001D8
:10135000B6510001D8A40AD0000E0001A46F000EFF
:10136000A56F000EA66F000EA76F12000001A85116
:101370000001A4270001A9510001A5230001AA51E1
:101380000001A6230001AB510001A7230001A7A182
:10139000CCD00001B7A109D00001D890B73300012B
:1013A000B75101090001B76F03D00001D890B733DE
:1013B0000001A4A102D00001B78F0001A735A73317
:1013C000A633A533A4330001B62BAFD00001A8513A
:1013D0000001A45D0001A9510001A5590001AA5115
:1013E0000001A6590001A751800A0001AC6F00015D
:1013F000AB51800A0001AC59D8B050D0A4C0ACF0B9
:10140000A5C0ADF0A6C0AEF0A7C0AFF00001AC1F04
:10141000AD1FAE1FAF1FAC2B000EAD23AE23AF230D
:101420000001A8510001AC250001B06F0001A951D5
:101430000001AD210001B16F0001AA510001AE21F0
:101440000001B26F0001AB510001AF210001B36F89
:10145000FF0E0001B0250001A46FFF0E0001B121B5
:101460000001A56FFF0E0001B2210001A66FFF0E63
:101470000001B3210001A76F800E0001B41B000121
:10148000B76D0001B7510001D8A418D0010E0001BA
:10149000A427000EA523A623A72310D00001A8513E
:1014A0000001A45F0001A9510001A55B0001AA5140
:1014B0000001A65B0001AB510001A75B0001A45134
:1014C0000001A5110001A6110001A711D8A42AD07E
:1014D0000001B7510001D8A425D0000E0001A46F6F
:1014E000000EA56F000EA66F000EA76F1200000180
:1014F000D890A437A537A637A7370001B7AF02D0D9
:101500000001A4810001B7A103D0D880000102D05E
:101510000001D890B7370001B6510001D8B402D00D
:101520000001B6070001A6AFE2D7000E0001B56FBB
:101530000001B7AF0DD0B7C0ACF07F0E0001AC1703
:10154000D8A403D00001A4A103D0010E0001B56FFF
:101550000001B5510001D8B426D0010E0001A42726
:10156000000EA523A623A7230001A7A11CD0A4C079
:10157000ACF0A5C0ADF0A6C0AEF0A7C0AFF00001C2
:10158000AF35AF33AE33AD33AC33ACC0A4F0ADC088
:10159000A5F0AEC0A6F0AFC0A7F00001B629D8B440
:1015A00002D00001B62B0001B629D8B405D0000145
:1015B000B6510001D8A411D0000E0001A46F000E96
:1015C000A56F000EA66F000EA76F0001B6510001B7
:1015D000D8A403D0000E0001B46F0001B6A103D05F
:1015E0000001A68F02D00001A69F0001D890B6315D
:1015F0000001A76F0001B4AF02D00001A78FA4C003
:10160000A4F0A5C0A5F0A6C0A6F0A7C0A7F0120040
:1016100000017151800B00017A6F00017151712539
:101620000001806F000170AF02D0000180810001D5
:1016300080510001D8B410D000018029D8A409D06D
:10164000000E00016E6F000E6F6F000E706F000EC7
:10165000716F0001708F09D0000E00016E6F000ED7
:101660006F6F000E706F000E716F00017551800B6F
:1016700000017A1B00017551752500017B6F000187
:1016800074AF02D000017B8100017B510001D8B40E
:1016900010D000017B29D8A409D0000E0001726F80
:1016A000000E736F000E746F000E756F0001748F63
:1016B00009D0000E0001726F000E736F000E746F80
:1016C000000E756F00017B510001D8B405D00001F8
:1016D00080510001D8A40AD0000E00016E6F000EE8
:1016E0006F6F000E706F000E716F12000001745169
:1016F00000016E03F3CF85F0F4CF86F00001855131
:1017000000017C6F7D6B7E6B7F6B00018651000159
:10171000816F826B836B846B0001735100016F03D7
:10172000F3CF85F0F4CF86F00001855100017C27CE
:10173000000E7D237E237F23000186510001812737
:10174000000E822383238423000172510001700361
:10175000F3CF85F0F4CF86F00001855100017C279E
:10176000000E7D237E237F23000186510001812707
:10177000000E8223832384237EC07FF07DC07EF011
:101780007CC07DF000017C6B0001725100016F0391
:10179000F3CF85F0F4CF86F00001855100017C275E
:1017A0000001865100017D23000E00017E23000E02
:1017B00000017F230001735100016E03F3CF85F018
:1017C000F4CF86F00001855100017C27000186518D
:1017D00000017D23000E00017E23000E00017F2307
:1017E0007EC07FF07DC07EF07CC07DF000017C6B10
:1017F0000001725100016E03F3CF85F0F4CF86F043
:101800000001855100017C270001865100017D23E4
:10181000000E00017E23000E00017F2300017451A1
:1018200000016F03F3CF85F0F4CF86F000018551FE
:10183000000181270001865100018223000E000172
:101840008323000E00018423000173510001700303
:10185000F3CF85F0F4CF86F0000185510001812798
:101860000001865100018223000E00018323000E37
:10187000000184230001745100017003F3CF85F04F
:10188000F4CF86F0000185510001766F000186518A
:101890000001776F0001786B0001796B78C079F0F7
:1018A00077C078F076C077F00001766B0001765152
:1018B0000001812700017751000182230001785146
:1018C0000001832300017951000184237CC076F05C
:1018D0007DC077F07EC078F07FC079F0190E06D019
:1018E0000001D8907933783377337633E82EF8D700
:1018F0000001765100018127000177510001822308
:1019000000017851000183230001795100018423F3
:101910007EC07FF07DC07EF07CC07DF000017C6BDE
:1019200000017B5180C076F00001776B00017627C3
:10193000000E7723820E000176250001856FFF0ED1
:10194000000177210001866F15D00001D890813702
:1019500082378337843700017FAF02D00001818155
:101960000001D8907C377D377E377F3700018507AF
:10197000D8A08607000183AFE8D7000E00017B6F77
:1019800000017FAF24D0FF0E00017C150001766FAF
:10199000FF0E00017D150001776FFF0E00017E151F
:1019A0000001786F7F0E00017F150001796F000143
:1019B0007651000177110001781100017911D8A446
:1019C00003D0000181A103D0010E00017B6F000153
:1019D0007B510001D8B423D0010E00018127000EF5
:1019E000822383238423000184A119D081C076F04F
:1019F00082C077F083C078F084C079F00001793537
:101A0000793378337733763376C081F077C082F0DC
:101A100078C083F079C084F00001854B862B0001EB
:101A200086BF10D00001865104E100018529D8A0AD
:101A300009D0000E0001816F000E826F800E836F4F
:101A40007F0E2BD0000186BF07D00001865111E127
:101A500000018505D8B00DD0000E0001816F000E89
:101A6000826F000E836F000E846F000E00017A6F8C
:101A700015D085C080F0FF0E00018117FF0E821780
:101A80007F0E8317000E8417000180A102D0000191
:101A9000838F0001D89080310001846F00017A515A
:101AA0000001841381C06EF082C06FF083C070F0BB
:101AB00084C071F01200000120EE06F07C51D9269E
:101AC0007D51DA22DECF96F0DDCF97F0000E0001D7
:101AD000986FBAD00001985100017F6F806B0001B0
:101AE000D8907F3780370001D8907F37803700014A
:101AF000D8907F378037080E00017F27000E8023A3
:101B00007AC081F07BC082F000017F510001812703
:101B10000001805100018223060E00018125D96E4B
:101B2000000E00018221DA6E00019851080D7AC082
:101B300085F07BC086F0F35000018527F45000014A
:101B40008623060E00018525E16E000E0001862128
:101B5000E26EDE50E65CE650800A0001896FDE50DE
:101B6000800A00018959D8B039D00001985100018C
:101B70007F6F806B0001D8907F3780370001D8904D
:101B80007F3780370001D8907F378037080E0001FB
:101B90007F27000E80237AC081F07BC082F0000195
:101BA0007F51000181270001805100018223060E30
:101BB00000018125D96E000E00018221DA6E00013C
:101BC0009651DE5CDE50800A0001856F000197515E
:101BD000800A00018559D8B05FD034D000019851F7
:101BE00000017F6F806B0001D8907F378037000144
:101BF000D8907F3780370001D8907F378037080E24
:101C000000017F27000E80237AC081F07BC082F024
:101C100000017F51000181270001805100018223D2
:101C2000060E00018125D96E000E00018221DA6EB8
:101C3000DE500001965D00019751800A0001856F1A
:101C4000DE50C6D70001982BFE0E00017F6FFF0EFD
:101C50000001806F00017E510001816F826B0001E5
:101C60007F51000181270001805100018223000182
:101C700098510001836F846B000181510001835DE5
:101C800000018451800A0001856F00018251800AA1
:101C900000018559D8A01ED700019851080DF350B6
:101CA00000017A25D96EF45000017B21DA6EDECF77
:101CB00092F0DECF93F0DECF94F0DECF95F000010E
:101CC000985100017F6F806B0001D8907F3780377B
:101CD0000001D8907F3780370001D8907F37803758
:101CE000080E00017F27000E802300017F510001B4
:101CF0007A25D96E0001805100017B21DA6EDECF9A
:101D000081F0DECF82F0DECF83F0DECF84F0000101
:101D10009851080DF35000017A25D96EF450000156
:101D20007B21DA6EDECF85F0DECF86F0DECF87F066
:101D3000DECF88F00001851F861F871F881F852B37
:101D4000000E862387238823000181510001852509
:101D500000018A6F000182510001862100018B6F12
:101D6000000183510001872100018C6F0001845123
:101D70000001882100018D6F0001985100017F6FE3
:101D8000806B0001D8907F3780370001D8907F3773
:101D900080370001D8907F378037080E00017F27F9
:101DA000000E80237AC081F07BC082F000017F5159
:101DB000000181270001805100018223060E0001ED
:101DC0008125D96E000E00018221DA6EDECF83F00C
:101DD000DDCF84F000019851080D7AC085F07BC0FA
:101DE00086F0F35000018527F45000018623060E8B
:101DF00000018525D96E000E00018621DA6EDECF46
:101E000087F0DDCF88F00001871F881F874B882B64
:101E100000018351000187270001845100018823BC
:101E200087C08EF088C08FF00001000E8FBFFF0EBC
:101E3000906F916F00018E5100018F110001901180
:101E400000019111D8B464D000019851080D7AC0F6
:101E50007FF07BC080F0F35000017F27F450000139
:101E60008023060E00017F25D96E000E000180211F
:101E7000DA6EDECF81F0DDCF82F00001811F821F9C
:101E8000814B822B0001965100018127000197515F
:101E90000001822381C060F082C061F00001000E69
:101EA00061BFFF0E626F636F8AC064F08BC065F024
:101EB0008CC066F08DC067F034EC43F060C06CF00D
:101EC00061C06DF062C06EF063C06FF08EC070F0E4
:101ED0008FC071F090C072F091C073F03DEC2CF0A7
:101EE0000001925100016C250001926F0001935195
:101EF00000016D210001936F0001945100016E21DA
:101F00000001946F0001955100016F210001956F50
:101F10007CC0D9FF7DC0DAFF92C0DEFF93C0DEFF38
:101F200094C0DEFF95C0DEFF1200000E0001E56FD9
:101F3000000EE46FD0D0E4C0CCF0E5C0CDF00001DD
:101F4000D890CC37CD370001D890CC37CD37C4C02E
:101F5000CEF0C5C0CFF00001CC510001CE2700016A
:101F6000CD510001CF23CEC0F6FFCFC0F7FF09004F
:101F7000F5CFB8F00900F5CFB9F00900F5CFBAF008
:101F80000A00F5CFBBF0E4C0D0F0E5C0D1F000010D
:101F9000D890D037D1370001D890D037D137040E40
:101FA0000001D027000ED123C4C0D2F0C5C0D3F0A9
:101FB0000001D0510001D2270001D1510001D323EB
:101FC000D2C0F6FFD3C0F7FF0900F5CFBCF009007F
:101FD000F5CFBDF00900F5CFBEF00A00F5CFBFF098
:101FE00072EC22F00001D8B03BD0E4C0CCF0E5C0E8
:101FF000CDF00001D890CC37CD370001D890CC3748
:10200000CD37040E0001CC27000ECD23C4C0CEF086
:10201000C5C0CFF00001CC510001CE270001CD5149
:102020000001CF23CEC0F6FFCFC0F7FF0900F5CFE8
:10203000B8F00900F5CFB9F00900F5CFBAF00A0001
:10204000F5CFBBF0C6C0BCF0C7C0BDF0C8C0BEF085
:10205000C9C0BFF072EC22F00001D8B058D038D01F
:10206000C6C0B8F0C7C0B9F0C8C0BAF0C9C0BBF0AC
:10207000E4C0CCF0E5C0CDF00001D890CC37CD372E
:102080000001D890CC37CD37040E0001CC27000ECC
:10209000CD23C4C0CEF0C5C0CFF00001CC510001AB
:1020A000CE270001CD510001CF23CEC0F6FFCFC017
:1020B000F7FF0900F5CFBCF00900F5CFBDF009002E
:1020C000F5CFBEF00A00F5CFBFF072EC22F0C4D716
:1020D0000001E44BE52BFF0E0001CC6FFF0E000169
:1020E000CD6FCAC0CEF0CBC0CFF00001CC51000103
:1020F000CE270001CD510001CF230001CE510001B8
:10210000E45D0001CF510001E559D8A014D7E4C027
:10211000CCF0E5C0CDF00001D890CC37CD37000130
:10212000D890CC37CD37C4C0CEF0C5C0CFF00001B9
:10213000CC510001CE270001CD510001CF23CEC0EC
:10214000F6FFCFC0F7FF0900F5CFE0F00900F5CFAB
:10215000E1F00900F5CFE2F00A00F5CFE3F00A0E56
:102160000001D46FD70ED56F230ED66F3C0ED76FFC
:10217000E4C0CCF0E5C0CDF00001D890CC37CD372D
:102180000001D890CC37CD37C4C0CEF0C5C0CFF059
:102190000001CC510001CE270001CD510001CF2319
:1021A000CEC0F6FFCFC0F7FF0900F5CFA0F00900C1
:1021B000F5CFA1F00900F5CFA2F00A00F5CFA3F00A
:1021C000C2EC4CF0A0C0A4F0A1C0A5F0A2C0A6F043
:1021D000A3C0A7F0E4C0D0F0E5C0D1F00001D890D2
:1021E000D037D1370001D890D037D137040E000155
:1021F000D027000ED123C4C0D2F0C5C0D3F0000157
:10220000D0510001D2270001D1510001D323D2C007
:10221000F6FFD3C0F7FF0900F5CFA8F00900F5CF0E
:10222000A9F00900F5CFAAF00A00F5CFABF0B4ECA5
:1022300008F0A4C0D8F0A5C0D9F0A6C0DAF0A7C0B5
:10224000DBF0C6C0A8F0C7C0A9F0C8C0AAF0C9C0DA
:10225000ABF00A0E0001726FD70E736F230E746F0E
:102260003C0E756FE4C060F0E5C061F00001626B88
:10227000636B000EEFEC1EF060C06EF061C06FF09B
:1022800062C070F063C071F008EC0BF06EC0A0F09B
:102290006FC0A1F070C0A2F071C0A3F0C2EC4CF00E
:1022A000A0C0A4F0A1C0A5F0A2C0A6F0A3C0A7F052
:1022B000B4EC08F0A4C0DCF0A5C0DDF0A6C0DEF0F0
:1022C000A7C0DFF0D4C08BF0D5C08CF0D6C08DF0A5
:1022D000D7C08EF0D8C087F0D9C088F0DAC089F0B6
:1022E000DBC08AF0A9EC11F087C072F088C073F0EF
:1022F00089C074F08AC075F0DCC06EF0DDC06FF08C
:10230000DEC070F0DFC071F008EC0BF06EC0A4F01E
:102310006FC0A5F070C0A6F071C0A7F0E0C0A8F033
:10232000E1C0A9F0E2C0AAF0E3C0ABF0B4EC08F061
:10233000A4C0E0F0A5C0E1F0A6C0E2F0A7C0E3F0C1
:10234000E0C0C4F0E1C0C5F0E2C0C6F0E3C0C7F031
:10235000120000018A51800B0001936F00018A5125
:102360008A2500019E6F000189AF02D000019E8185
:1023700000019E510001D8B412D000019E29D8A4BA
:1023800009D0000E0001876F000E886F000E896F64
:10239000000E8A6F0001898F000E000108D0000E28
:1023A0000001876F000E886F000E896F000E8A6F24
:1023B00000018E51800B0001931B00018E518E2570
:1023C00000019F6F00018DAF02D000019F810001CD
:1023D0009F510001D8B412D000019F29D8A409D080
:1023E000000E00018B6F000E8C6F000E8D6F000EC3
:1023F0008E6F00018D8F000E000108D0000E0001CD
:102400008B6F000E8C6F000E8D6F000E8E6F0001B3
:102410008B5100018C1100018D1100018E11D8A487
:1024200017D0000E0001876F000E886F000E896FB5
:10243000000E8A6F0001800E89137F0E8A1387C0F9
:1024400087F088C088F089C089F08AC08AF01200BD
:1024500000019E510001D8A412D0000E0001876F28
:10246000000E886F000E896F000E8A6F87C087F09C
:1024700088C088F089C089F08AC08AF01200000103
:102480009F5100018F6F906B00018F1F901F8F4B2A
:10249000902B00019E510001916F926B00018F51B2
:1024A0000001912700019051000192237F0E00014D
:1024B00091250001986F000E000192210001996F93
:1024C00087C094F088C095F089C096F08AC097F0D4
:1024D000000E0001876F000E886F000E896F000EDE
:1024E0008A6F000E00019A6F000E9B6F000E9C6FAA
:1024F000000E9D6F000E00019F6F42D000019F51A2
:102500000001D8B417D00001D8909437953796378A
:1025100097370001D8908737883789378A37000185
:102520009DAF02D0000187810001D8909A379B3778
:102530009C379D3700018B510001945D00018C5147
:102540000001955900018D510001965900018E51ED
:1025500000019759D8A012D000019D8D00018B5128
:102560000001945F00018C510001955B00018D51C9
:102570000001965B00018E510001975B00019F2BCB
:10258000190E00019F65BAD7000194510001951101
:102590000001961100019711D8B418D000019A815A
:1025A00015D00001D8908737883789378A370001DE
:1025B0009DAF02D0000187810001D8909A379B37E8
:1025C0009C379D3700019807D8A09907000189AF73
:1025D000E8D7000E00019F6F00019DAF24D0FF0ED1
:1025E00000019A1500018F6FFF0E00019B1500017D
:1025F000906FFF0E00019C150001916F7F0E00018E
:102600009D150001926F00018F5100019011000192
:10261000911100019211D8A403D0000187A103D029
:10262000010E00019F6F00019F510001D8B423D01B
:10263000010E00018727000E882389238A230001C9
:102640008AA119D087C08FF088C090F089C091F01E
:102650008AC092F0000192359233913390338F33D8
:102660008FC087F090C088F091C089F092C08AF046
:102670000001984B992B000199BF14D0000199518A
:1026800004E100019829D8A00DD0000E0001996F37
:102690009869000E0001876F000E886F000E896F29
:1026A000000E8A6F000199BF07D00001995115E112
:1026B00000019805D8B011D0000E0001996F000EEE
:1026C000986F000E0001876F000E886F000E896FF3
:1026D000000E8A6F000E0001936F98C09EF00001FB
:1026E0009EA103D00001898F02D00001899F0001C3
:1026F000D8909E3100018A6F0001935100018A1326
:1027000087C087F088C088F089C089F08AC08AF0C5
:1027100012000001946F000E0001966F3050D8A493
:1027200021D03150340D140EF324D96E030EF42051
:10273000DA6EDF500001956F39C09DF000019D51A8
:1027400000019519D8B448D1010E0001966F31509F
:10275000340D140EF324D96E030EF420DA6E9DC0EE
:10276000DFFF3AD135C06CF036C06DF037C06EF087
:1027700038C06FF0CBEC3AF06CC097F06DC098F0B9
:102780006EC099F06FC09AF03150340DFC0E00010C
:102790008A6FFF0E00018B6F305000018C6F8D6BC4
:1027A0000001D8908C378D370001D8908C378D3749
:1027B0000001D8908C378D3700018A5100018C2799
:1027C00000018B5100018D23100E00018E6F030E4E
:1027D00000018F6F040E00018E27000E8F23000171
:1027E0008C5100018E2700018D5100018F23F35081
:1027F00000018E25D96EF45000018F21DA6EDECFF4
:1028000090F0DECF91F0DECF92F0DECF93F00001BA
:1028100097510001901910E10001985100019119A0
:102820000BE1000199510001921906E100019A5152
:1028300000019319D8B4D0D03150340DFC0E0001F2
:102840008A6FFF0E00018B6F305000018C6F8D6B13
:102850000001D8908C378D370001D8908C378D3798
:102860000001D8908C378D3700018A5100018C27E8
:1028700000018B5100018D23100E00018E6F030E9D
:1028800000018F6F040E00018E27000E8F230001C0
:102890008C5100018E2700018D5100018F23F350D0
:1028A00000018E25D96EF45000018F21DA6E97C099
:1028B000DEFF98C0DEFF99C0DEFF9AC0DEFF315018
:1028C000340DFC0E00018A6FFF0E00018B6F30503B
:1028D00000018C6F8D6B0001D8908C378D37000113
:1028E000D8908C378D370001D8908C378D37000108
:1028F0008A5100018C2700018B5100018D23100E9D
:1029000000018E6F030E00018F6F040E00018E27F1
:10291000000E8F2300018C5100018E2700018D5184
:1029200000018F23F35000018E27F45000018F2304
:10293000040E00018E25D96E000E00018F21DA6E83
:10294000EAC1DEFFEBC1DDFF3150340DFC0E0001AA
:102950008A6FFF0E00018B6F305000018C6F8D6B02
:102960000001D8908C378D370001D8908C378D3787
:102970000001D8908C378D3700018A5100018C27D7
:1029800000018B5100018D23100E00018E6F030E8C
:1029900000018F6F040E00018E27000E8F230001AF
:1029A0008C5100018E2700018D5100018F23F350BF
:1029B00000018E27F45000018F23060E00018E25A2
:1029C000D96E000E00018F21DA6EECC1DEFFEDC181
:1029D000DDFF010E0001966F000196510001D8B491
:1029E0002AD0000E00019C6FA20E9B6F100E0001FA
:1029F0006C6F030E00016D6FFE0E00019B25000140
:102A00006E6FFF0E00019C2100016F6FCDEC46F050
:102A100029C066F02AC067F0000E0001686F100E32
:102A20000001696F030E00016A6F9BC06BF09CC0D0
:102A30006CF0CAEC2CF0000194510001D8B403D022
:102A400010EC4CF01200302A3150340D140EF324E7
:102A5000D96E030EF420DA6E3050DE5CD8B008D0A8
:102A6000000E306E312A020E316402D0000E316E3B
:102A700030C020F031506AEC30F012000001946F49
:102A8000000E0001966F3050D8A421D03150340D83
:102A9000040EF324D96E040EF420DA6EDF50000128
:102AA000956F39C09DF000019D5100019519D8B472
:102AB00048D1010E0001966F3150340D040EF324FD
:102AC000D96E040EF420DA6E9DC0DFFF3AD135C016
:102AD0006CF036C06DF037C06EF038C06FF0CBECE4
:102AE0003AF06CC097F06DC098F06EC099F06FC06E
:102AF0009AF03150340DFC0E00018A6FFF0E000178
:102B00008B6F305000018C6F8D6B0001D8908C372B
:102B10008D370001D8908C378D370001D8908C37D5
:102B20008D3700018A5100018C2700018B51000173
:102B30008D23000E00018E6F040E00018F6F040EB6
:102B400000018E27000E8F2300018C5100018E277B
:102B500000018D5100018F23F35000018E25D96EA5
:102B6000F45000018F21DA6EDECF90F0DECF91F0CD
:102B7000DECF92F0DECF93F0000197510001901963
:102B800010E100019851000191190BE100019951E8
:102B90000001921906E100019A5100019319D8B47D
:102BA000D0D03150340DFC0E00018A6FFF0E0001B1
:102BB0008B6F305000018C6F8D6B0001D8908C377B
:102BC0008D370001D8908C378D370001D8908C3725
:102BD0008D3700018A5100018C2700018B510001C3
:102BE0008D23000E00018E6F040E00018F6F040E06
:102BF00000018E27000E8F2300018C5100018E27CB
:102C000000018D5100018F23F35000018E25D96EF4
:102C1000F45000018F21DA6E97C0DEFF98C0DEFF0E
:102C200099C0DEFF9AC0DEFF3150340DFC0E00016A
:102C30008A6FFF0E00018B6F305000018C6F8D6B1F
:102C40000001D8908C378D370001D8908C378D37A4
:102C50000001D8908C378D3700018A5100018C27F4
:102C600000018B5100018D23000E00018E6F040EB8
:102C700000018F6F040E00018E27000E8F230001CC
:102C80008C5100018E2700018D5100018F23F350DC
:102C900000018E27F45000018F23040E00018E25C1
:102CA000D96E000E00018F21DA6EEAC1DEFFEBC1A2
:102CB000DDFF3150340DFC0E00018A6FFF0E000164
:102CC0008B6F305000018C6F8D6B0001D8908C376A
:102CD0008D370001D8908C378D370001D8908C3714
:102CE0008D3700018A5100018C2700018B510001B2
:102CF0008D23000E00018E6F040E00018F6F040EF5
:102D000000018E27000E8F2300018C5100018E27B9
:102D100000018D5100018F23F35000018E27F450E4
:102D200000018F23060E00018E25D96E000E0001D2
:102D30008F21DA6EECC1DEFFEDC1DDFF010E000177
:102D4000966F000196510001D8B42AD0000E000100
:102D50009C6FA20E9B6F000E00016C6F040E0001B1
:102D60006D6FFE0E00019B2500016E6FFF0E0001CE
:102D70009C2100016F6FCDEC46F029C066F02AC09F
:102D800067F0000E0001686F000E0001696F040E0D
:102D900000016A6F9BC06BF09CC06CF0CAEC2CF019
:102DA000000194510001D8B403D010EC4CF0120093
:102DB000302A3150340D040EF324D96E040EF42061
:102DC000DA6E3050DE5CD8B002D0000E306E30C00B
:102DD00020F0000E66EC2FF01200000E00018A6F4A
:102DE000000E8B6F000E8C6F000E8D6F030E0001B6
:102DF0007C614BD1000E00017B6F000E7A6F1200D8
:102E00007AC0D9FF7BC0DAFFDECF86F0DDCF87F056
:102E100086C088F087C089F0000E00018A6F000E1E
:102E20008B6F000E8C6F000E8D6F000E00018E6F89
:102E30007FD000018E51020DF35000017A25D96E2A
:102E4000F45000017B21DA6E00018851DE5CDE5017
:102E5000800A0001806F00018951800A00018059B9
:102E6000D8B011D000018E51020DF35000017A2527
:102E7000D96EF45000017B21DA6EDECF88F0DDCF11
:102E800089F08EC085F000018E51020DF3500001D3
:102E90007A25D96EF45000017B21DA6EDE500001F4
:102EA000865D00018751800A0001806FDE50800A34
:102EB00000018059D8B011D000018E51020DF3509D
:102EC00000017A25D96EF45000017B21DA6EDECF45
:102ED00086F0DDCF87F08EC084F000018E51020DA8
:102EE000F35000017A25D96EF45000017B21DA6E8F
:102EF000DECF7EF0DDCF7FF07EC080F07FC081F03E
:102F0000000E000181BFFF0E826F836F00018051B0
:102F100000018A270001815100018B2300018251A9
:102F200000018C230001835100018D2300018E2BB1
:102F300000017C5100018E5DD8A07BD786C07EF059
:102F400087C07FF0000E00017FBFFF0E806F816F92
:102F500000017E1F7F1F801F811F7E2B000E7F239D
:102F60008023812300018A5100017E2500018A6FA0
:102F700000018B5100017F2100018B6F00018C51FA
:102F80000001802100018C6F00018D510001812121
:102F900000018D6F88C07EF089C07FF0000E0001B7
:102FA0007FBFFF0E806F816F00017E1F7F1F801F1C
:102FB000811F7E2B000E7F238023812300018A51F5
:102FC00000017E2500018A6F00018B5100017F21E5
:102FD00000018B6F00018C510001802100018C6F7A
:102FE00000018D510001812100018D6F8AC06CF0BC
:102FF0008BC06DF08CC06EF08DC06FF0FE0E0001C6
:103000007E6FFF0E00017F6F00017C510001806F19
:10301000816B00017E510001802700017F5100017A
:10302000812380C070F081C071F00001000E71BF7B
:10303000FF0E726F736F3DEC2CF06CC08AF06DC0A8
:103040008BF06EC08CF06FC08DF000018551020DC9
:10305000F35000017A25D96EF45000017B21DA6E1D
:103060008AC0DEFF8BC0DDFF00018451020DF350EA
:1030700000017A25D96EF45000017B21DA6E8AC0F6
:10308000DEFF8BC0DDFF00017D0700017D510001E7
:10309000D8A4B6D68AC07AF08BC07BF012000201A9
:1030A0000451D8A414D00CC260F00DC261F00EC25D
:1030B00062F00FC263F0000EEFEC1EF060C0D0F0C3
:1030C00061C0D1F062C0D2F063C0D3F077D008C243
:1030D00060F009C261F00AC262F00BC263F0010E37
:1030E000EFEC1EF060C0D0F061C0D1F062C0D2F051
:1030F00063C0D3F00CC260F00DC261F00EC262F08A
:103100000FC263F0000EEFEC1EF060C0A8F061C0CB
:10311000A9F062C0AAF063C0ABF00CC260F00DC2AF
:1031200061F00EC262F00FC263F0000EEFEC1EF011
:1031300060C0A4F061C0A5F062C0A6F063C0A7F0B3
:10314000B4EC08F0A4C0C4F0A5C0C5F0A6C0C6F099
:10315000A7C0C7F0D0C0A8F0D1C0A9F0D2C0AAF0D3
:10316000D3C0ABF0C4C0A4F0C5C0A5F0C6C0A6F0E3
:10317000C7C0A7F0B4EC08F0A4C0C8F0A5C0C9F05F
:10318000A6C0CAF0A7C0CBF0C8C0A4F0C9C0A5F0C3
:10319000CAC0A6F0CBC0A7F0D0C0A8F0D1C0A9F09B
:1031A000D2C0AAF0D3C0ABF0B4EC08F0A4C0D0F009
:1031B000A5C0D1F0A6C0D2F0A7C0D3F0D0C072F0A5
:1031C000D1C073F0D2C074F0D3C075F002010551C4
:1031D0000001606F616B626B636B000EEFEC1EF0C1
:1031E00060C06EF061C06FF062C070F063C071F0DB
:1031F00008EC0BF06EC087F06FC088F070C089F0EB
:1032000071C08AF0000E00018B6F000E8C6FC80E2B
:103210008D6F420E8E6FA9EC11F087C0D0F088C080
:10322000D1F089C0D2F08AC0D3F00001D0510001A2
:10323000D1110001D2110001D311D8A409D0000E80
:103240000001D06F000ED16F800ED26F3F0ED36F92
:10325000E7C060F0E8C061F0E9C062F0EAC063F086
:10326000010EEFEC1EF060C0CCF061C0CDF062C08A
:10327000CEF063C0CFF00001CFAF09D0000E000147
:10328000CC6F000ECD6F000ECE6F000ECF6FCCC096
:1032900087F0CDC088F0CEC089F0CFC08AF0D0C012
:1032A0008BF0D1C08CF0D2C08DF0D3C08EF0A9ECE1
:1032B00011F087C0D0F088C0D1F089C0D2F08AC0A8
:1032C000D3F0D0C06EF0D1C06FF0D2C070F0D3C0D8
:1032D00071F0000E0001726F000E736FC80E746FF4
:1032E000420E756F08EC0BF06EC0D0F06FC0D1F0DD
:1032F00070C0D2F071C0D3F0000E0001B86F000EA4
:10330000B96FC80EBA6F420EBB6FD0C0BCF0D1C04F
:10331000BDF0D2C0BEF0D3C0BFF072EC22F000010D
:10332000D8B009D0000E0001D06F000ED16FC80ECA
:10333000D26F420ED36FD0C0B8F0D1C0B9F0D2C0B6
:10334000BAF0D3C0BBF055EC2DF00001B85100012C
:10335000FE6F0001FE511200FBC160F0FCC161F084
:10336000FDC162F0FEC163F0010EEFEC1EF060C023
:10337000D6F361C0D7F362C0D8F363C0D9F30301B9
:10338000D9AF09D0000E0301D66F000ED76F000E23
:10339000D86F000ED96F0CC260F00DC261F00EC282
:1033A00062F00FC263F0000EEFEC1EF060C0CEF3CF
:1033B00061C0CFF362C0D0F363C0D1F3D6C387F04E
:1033C000D7C388F0D8C389F0D9C38AF0CEC38BF0B5
:1033D000CFC38CF0D0C38DF0D1C38EF0A9EC11F027
:1033E00087C0D6F388C0D7F389C0D8F38AC0D9F391
:1033F000000E0001B86F000EB96F800EBA6F3F0E5D
:10340000BB6FD6C3BCF0D7C3BDF0D8C3BEF0D9C321
:10341000BFF072EC22F00001D8B009D0000E030119
:10342000D66F000ED76F800ED86F3F0ED96FD6C300
:10343000CEF3D7C3CFF3D8C3D0F3D9C3D1F3AB0EF8
:103440000001C46FF00E0001C56FD6C3C6F0D7C32C
:10345000C7F0D8C3C8F0D9C3C9F0000E0001CB6FC4
:10346000650ECA6F95EC0FF0C4C0D6F3C5C0D7F394
:10347000C6C0D8F3C7C0D9F310C260F011C261F062
:1034800012C262F013C263F0010EEFEC1EF060C0D6
:10349000D2F361C0D3F362C0D4F363C0D5F3D2C317
:1034A0006EF0D3C36FF0D4C370F0D5C371F0D6C340
:1034B00072F0D7C373F0D8C374F0D9C375F008ECB9
:1034C0000BF06EC0D2F36FC0D3F370C0D4F371C0F1
:1034D000D5F3CEC3D6F3CFC3D7F3D0C3D8F3D1C37C
:1034E000D9F3170E0001C46FEF0E0001C56FD6C3EC
:1034F000C6F0D7C3C7F0D8C3C8F0D9C3C9F0000E0F
:103500000001CB6F650ECA6F95EC0FF0C4C0D6F307
:10351000C5C0D7F3C6C0D8F3C7C0D9F314C260F092
:1035200015C261F016C262F017C263F0010EEFEC33
:103530001EF060C0CAF361C0CBF362C0CCF363C0BD
:10354000CDF3CAC36EF0CBC36FF0CCC370F0CDC364
:1035500071F0D6C372F0D7C373F0D8C374F0D9C377
:1035600075F008EC0BF06EC0CAF36FC0CBF370C0FF
:10357000CCF371C0CDF3D2C3A4F0D3C3A5F0D4C3B0
:10358000A6F0D5C3A7F0CAC3A8F0CBC3A9F0CCC39B
:10359000AAF0CDC3ABF0B4EC08F0A4C0D2F3A5C040
:1035A000D3F3A6C0D4F3A7C0D5F3D2C3B8F0D3C326
:1035B000B9F0D4C3BAF0D5C3BBF055EC2DF0B8C008
:1035C000FBF1B9C0FCF1BAC0FDF1BBC0FEF11200C5
:1035D00078C0D9FF79C0DAFFDECF87F0DDCF88F081
:1035E0007D0E0001606F000E0001616F76C062F019
:1035F00077C063F02FEC45F0000120EE03F0785126
:10360000D9267951DA22DF50D8A472D0100E0001E9
:10361000875D270E00018859D8A005D0270E00012C
:10362000886F0F0E876F810E0001686F000E00011A
:10363000696F87C06AF088C06BF0C2EC26F07D0E1F
:103640000001606F000E0001616F080E0001626FE3
:1036500024EC48F0000120EE02F07851D92679518F
:10366000DA22DF500001896F010E0001706F000146
:103670008951040FF9EC44F0040E00017A6107D07F
:1036800000017A510008030F00017A6F78D0040E10
:1036900000017A19D8A40FD00F015FB7BBD0345006
:1036A000D8A4B8D0000E0001706F00018951040F3A
:1036B000F9EC44F0AFD00F015FB7ACD03450D8A4D0
:1036C000A9D0810E0001606F000E0001616F740EC1
:1036D0000001626FF30E0001636F2FEC45F0000EE6
:1036E0000001706F00018951040FF9EC44F092D091
:1036F00000017A510001D8B41200100E0001875D5C
:10370000270E00018859D8A005D0270E0001886F28
:103710000F0E876F820E0001686F000E0001696F47
:1037200087C06AF088C06BF0C2EC26F02D0E000155
:10373000816F7D0E0001606F000E0001616F080E49
:103740000001626F24EC48F0000120EE02F0785195
:10375000D9267951DA22DF500001896F010E00016C
:10376000706F00018951050FF9EC44F0040E00015F
:103770007A6120D000017A510008040F85D70F012B
:103780005FB748D03450D8A445D000017A51000129
:103790007B6F7C6B040E00017B27000E7C237D0E6B
:1037A00000017B25D96E000E00017C21DA6E200E0F
:1037B000DF6E30D0040E00017A19D8A40FD00F01AB
:1037C0005FB728D03450D8A425D0000E0001706F08
:1037D00000018951050FF9EC44F01CD00F015FB7CF
:1037E00019D03450D8A416D0810E0001606F000E9D
:1037F0000001616F740E0001626FF30E0001636FD0
:103800002FEC45F0000E0001706F00018951050F8B
:10381000F9EC44F07D0E0001736F000E0001746F2F
:10382000C2EC44F0C4EC47F01200000120EE0CF0B2
:10383000C251D926C351DA22DECF60F0DECF61F06B
:10384000DECF62F0DECF63F0000EEFEC1EF060C062
:10385000DAF061C0DBF062C0DCF063C0DDF00001D3
:1038600020EE08F0C251D926C351DA22DECF60F033
:10387000DECF61F0DECF62F0DECF63F0010EEFEC61
:103880001EF060C0D2F061C0D3F062C0D4F063C05B
:10389000D5F0000E00018B6F000E8C6F7A0E8D6FCD
:1038A000440E8E6FDAC087F0DBC088F0DCC089F090
:1038B000DDC08AF0A9EC11F087C0C6F088C0C7F05F
:1038C00089C0C8F08AC0C9F0C6C087F0C7C088F0F8
:1038D000C8C089F0C9C08AF0000E00018B6F000ECD
:1038E0008C6F000E8D6F400E8E6FA9EC11F087C0AB
:1038F000DAF088C0DBF089C0DCF08AC0DDF0D2C02D
:1039000087F0D3C088F0D4C089F0D5C08AF0000E0B
:1039100000018B6F000E8C6F7A0E8D6F440E8E6FD0
:10392000A9EC11F087C0D2F088C0D3F089C0D4F0E0
:103930008AC0D5F0DAC072F0DBC073F0DCC074F07E
:10394000DDC075F0DAC06EF0DBC06FF0DCC070F087
:10395000DDC071F008EC0BF06EC0CAF06FC0CBF0A8
:1039600070C0CCF071C0CDF0D2C072F0D3C073F093
:10397000D4C074F0D5C075F0CAC06EF0CBC06FF083
:10398000CCC070F0CDC071F008EC0BF06EC0CEF082
:103990006FC0CFF070C0D0F071C0D1F0CEC06EF06B
:1039A000CFC06FF0D0C070F0D1C071F0F90E00013F
:1039B000726F0F0E736F490E746F400E756F08ECC7
:1039C0000BF06EC0D6F06FC0D7F070C0D8F071C0E9
:1039D000D9F0D6C06EF0D7C06FF0D8C070F0D9C0A3
:1039E00071F0000E0001726F000E736F7A0E746F2B
:1039F000440E756F08EC0BF06EC0D6F06FC0D7F0B8
:103A000070C0D8F071C0D9F0D6C0B8F0D7C0B9F046
:103A1000D8C0BAF0D9C0BBF055EC2DF0B8C0C2F098
:103A2000B9C0C3F0BAC0C4F0BBC0C5F01200030EE9
:103A30000301106F000E00016F6F020E00016F6531
:103A400001D0120000016F51340D140EF324D96E11
:103A5000030EF420DA6E060EDF6E000E00016E6FAC
:103A6000050E00016E6501D0CED06EC062F000017F
:103A7000636B170E0001656F700E646F4CEC4DF0B8
:103A800062C068F063C069F06FC062F00001636BF0
:103A9000010E0001656FF40E646F4CEC4DF00001F7
:103AA0006251000168270001635100016923000190
:103AB0006E51080D040EF326000EF422100E0001C4
:103AC0006A6F030E00016B6F040E00016A27000E7F
:103AD0006B23F35000016A27F45000016B230001AF
:103AE0006F51340DF35000016A27F45000016B232D
:103AF000040E00016A25D96E000E00016B21DA6EFA
:103B000068C0DEFF69C0DDFF6EC062F00001636B5C
:103B1000170E0001656F700E646F4CEC4DF00001E4
:103B200062C068F0000163C069F0000E000169BF67
:103B3000FF0E6A6F6B6F00016E51080D040EF326C5
:103B4000000EF422100E00016C6F030E00016D6F69
:103B5000040E00016C27000E6D23F35000016C274A
:103B6000F45000016D2300016F51340DF35000013A
:103B70006C25D96EF45000016D21DA6E68C0DEFF4D
:103B800069C0DEFF6AC0DEFF6BC0DEFF6FC062F09F
:103B90000001636B030E0001656FE80E646F4CEC6F
:103BA0004DF000016E51080D040EF326000EF422B4
:103BB000100E0001686F030E0001696F040E000112
:103BC0006827000E6923F35000016827F4500001B4
:103BD000692300016F51340DF35000016827F45040
:103BE00000016923060E00016825D96E000E000150
:103BF0006921DA6E000162C0DEFF000163C0DDFFF3
:103C000000016E2B2DD700016F2B17D70A0E010173
:103C10006427000E65230101655107E1640E01016F
:103C2000645DD8B002D0000E1200000E0101656F75
:103C3000000E646F0001FB51D8A428D0000E0001D3
:103C4000FA6FEDC060F0EEC061F0020E0001626F2D
:103C500051EC4FF0EDC060F0EEC061F0FAC062F0E0
:103C6000BFEC4FF0EDC060F0EEC061F0000E00015F
:103C7000626FADEC4FF0EDC06BF0EEC06CF0E8ECB5
:103C80004EF0010E0001FB6F010E1200EDC06EF050
:103C9000EEC06FF04BEC4BF06EC091F06FC092F045
:103CA0000001FA51D8A41CD0DE0E00017A6F010E7B
:103CB00000017B6F91C07CF092C07DF0040E00018A
:103CC0007E6FA8EC24F0030E0001FA6FEDC060F0E7
:103CD000EEC061F0050E0001626FADEC4FF054D004
:103CE000030E0001FA19D8A41CD0D60E00017A6F79
:103CF000010E00017B6F91C07CF092C07DF0040E3C
:103D000000017E6FA8EC24F0050E0001FA6FEDC0F3
:103D100060F0EEC061F0040E0001626FADEC4FF098
:103D200033D0050E0001FA19D8A422D0CE0E00011E
:103D30007A6F010E00017B6F91C07CF092C07DF024
:103D4000040E00017E6FA8EC24F07AC06EF17BC0F7
:103D50006FF1000E0001FA6FEDC060F0EEC061F08F
:103D6000000E0001626FADEC4FF00001FB2B0CD098
:103D7000EDC060F0EEC061F0000E0001626FADECCE
:103D80004FF0000E0001FA6FEDC060F0EEC061F080
:103D9000020E0001626F51EC4FF0EDC060F0EEC01A
:103DA00061F0FAC062F0BFEC4FF0EDC06BF0EEC016
:103DB0006CF0E8EC4EF0040E0001FB650ED0E60E50
:103DC00000018F6F010E0001906F87EC41F0010E32
:103DD0000001F96F000E0001FB6F010E12000001DF
:103DE000686F000168510001D8B41ED0000163AFB4
:103DF0001BD060C064F061C065F062C066F063C053
:103E000067F00001641F651F661F671F642B000EAB
:103E100065236623672364C06AF065C06BF066C0E3
:103E20006CF067C06DF008D060C06AF061C06BF0E4
:103E300062C06CF063C06DF000016051000161115F
:103E40000001621100016311D8A40AD0000E000124
:103E5000606F000E616F000E626F000E636F1200E4
:103E6000960E0001696F08D00001692B0001D890FF
:103E70006D336C336B336A33000E00016A15000139
:103E8000646F000E00016B150001656F000E0001EC
:103E90006C150001666FFE0E00016D150001676F65
:103EA00000016451000165110001661100016711F4
:103EB000D8B410D0D9D70001692B010E00016A27B0
:103EC000000E6B236C236D230001D8906D336C338F
:103ED0006B336A33000E00016A150001646F000E37
:103EE00000016B150001656F000E00016C150001EB
:103EF000666FFF0E00016D150001676F00016451D0
:103F0000000165110001661100016711D8B409D0E4
:103F1000D2D7000169070001D8906A376B376C3738
:103F20006D3700016CBF04D0020E00016961F1D74A
:103F3000000169B109D0FF0E00016A17FF0E6B176F
:103F40007F0E6C17FF0E6D170001D890693369C0A2
:103F500064F00001656B666B676B64C067F000011D
:103F6000666B656B646B0001645100016A130001AC
:103F7000655100016B130001665100016C130001D3
:103F8000675100016D13000168510001D8B405D0DC
:103F9000000163AF02D000016D8F6AC060F06BC09A
:103FA00061F06CC062F06DC063F01200010E04019C
:103FB000006F000E00016E6F00016E510001D8A469
:103FC000120000016E51340D040EF324D96E040E5C
:103FD000F420DA6E060EDF6E000E00016F6F050E24
:103FE00000016F6501D0C1D06FC062F00001636B4A
:103FF000170E0001656F700E646F4CEC4DF062C0DF
:1040000068F063C069F06EC062F00001636B010E7E
:104010000001656FF40E646F4CEC4DF000016251CD
:1040200000016827000163510001692300016F51FD
:10403000080D040EF326000EF422000E00016A6F34
:10404000040E00016B6F040E00016A27000E6B2343
:10405000F35000016A27F45000016B2300016E51F8
:10406000340DF35000016A27F45000016B23040E55
:1040700000016A25D96E000E00016B21DA6E68C05E
:10408000DEFF69C0DDFF6FC062F00001636B170ED9
:104090000001656F700E646F4CEC4DF0000162C062
:1040A00068F0000163C069F0000E000169BFFF0EF7
:1040B0006A6F6B6F00016F51080D040EF326000E3E
:1040C000F422000E00016C6F040E00016D6F040EEF
:1040D00000016C27000E6D23F35000016C27F45093
:1040E00000016D2300016E51340DF35000016C2569
:1040F000D96EF45000016D21DA6E68C0DEFF69C030
:10410000DEFF6AC0DEFF6BC0DEFF00016F51080DED
:10411000040EF326000EF422000E0001686F040E58
:104120000001696F040E00016827000E6923F35037
:1041300000016827F4500001692300016E51340D1D
:10414000F35000016827F45000016923060E0001B6
:104150006825D96E000E00016921DA6E000EDE6E50
:10416000000EDD6E00016F2B3AD700016E2B24D7B5
:10417000000E00016D6F000E6C6F000120EE06F066
:104180006851D9266951DA2201D80AD00500FA6EA1
:10419000DE50FD6EDE50FE6EF850FF6EFA501200DB
:1041A000000120EE0AF06851D9266951DA2201D8BF
:1041B00012D00500FA6EDE50FD6EDE50FE6EF85035
:1041C000FF6EFA50000120EE01F06851D9266951C6
:1041D000DA22DF501200000120EE0AF06851D926E1
:1041E0006951DA2201D80CD00500FA6EDE50FD6E5E
:1041F000DE50FE6EF850FF6EFA5000016A51120058
:10420000000120EE08F06851D9266951DA2201D860
:104210000AD00500FA6EDE50FD6EDE50FE6EF850DC
:10422000FF6EFA501200000120EE06F06851D92608
:104230006951DA2201D80AD00500FA6EDE50FD6E0F
:10424000DE50FE6EF850FF6EFA501200000120EEB4
:104250000AF06851D9266951DA2201D816D0050032
:10426000FA6EDE50FD6EDE50FE6EF850FF6EFA50B4
:10427000000120EE01F06851D9266951DA22DF50A1
:1042800000016B6F00016B291200000120EE0EF09F
:104290006851D9266951DA2201D80BD00500FA6E8F
:1042A000DE50FD6EDE50FE6EF850FF6EFA50000ECE
:1042B000120000016B6F00016B5100016C6F6D6BA0
:1042C00000016C516D6F6C6B000120EE0EF06851B7
:1042D000D9266951DA2201D80BD00500FA6EDE50DA
:1042E000FD6EDE50FE6EF850FF6EFA50000E1200AA
:1042F00000016B6F00016B5100016C13000120EE97
:1043000008F06851D9266951DA2201D80AD005008F
:10431000FA6EDE50FD6EDE50FE6EF850FF6EFA5003
:1043200012006CC068F06DC069F01200000120EE50
:1043300001F06851D9266951DA2201D80AD0050066
:10434000FA6EDE50FD6EDE50FE6EF850FF6EFA50D3
:104350001200000120EE05F06851D9266951DA22D9
:1043600001D80FD00500FA6EDE50FD6EDE50FE6EF5
:10437000F850FF6EFA5068C0D9FF69C0DAFFDF500D
:104380001200000120EE05F06851D9266951DA22A9
:1043900001D80CD00500FA6EDE50FD6EDE50FE6EC8
:1043A000F850FF6EFA5000016A511200000120EE31
:1043B00001F06851D9266951DA2201D80AD00500E6
:1043C000FA6EDE50FD6EDE50FE6EF850FF6EFA5053
:1043D0001200000120EE05F06851D9266951DA2259
:1043E00001D813D00500FA6EDE50FD6EDE50FE6E71
:1043F000F850FF6EFA5068C0D9FF69C0DAFFDF508D
:1044000000016F6F00016F291200000E0001746F30
:10441000000E736F1FD0000120EE09F06851D926FD
:104420006951DA2201D80BD00500FA6EDE50FD6E1C
:10443000DE50FE6EF850FF6EFA50000E12006BC098
:10444000D9FF6CC0DAFFDF6E00016B4B6C2B0001F3
:10445000734B742BFF0E00016F6FFF0E0001706F26
:104460006DC071F06EC072F000016F5100017127D4
:104470000001705100017223000171510001735D50
:104480000001725100017459D8A0C5D7000120EE77
:1044900009F06851D9266951DA2201D80BD00500FC
:1044A000FA6EDE50FD6EDE50FE6EF850FF6EFA5072
:1044B000010E12006BC0D9FF6CC0DAFFDF6E000185
:1044C00020EE03F06851D9266951DA2201D8120092
:1044D0000500FA6EDE50FD6EDE50FE6EF850FF6E87
:1044E000FA501200000E0001B8150001C06F000E56
:1044F0000001B9150001C16F800E0001BA1500015D
:10450000C26F7F0E0001BB150001C36F0001C051D7
:104510000001C1110001C2110001C311D8A409D0CA
:10452000000E0001B86F000EB96F000EBA6F000EDA
:10453000BB6F000E0001BC150001C06F000E000132
:10454000BD150001C16F800E0001BE150001C26FD4
:104550007F0E0001BF150001C36F0001C0510001B3
:10456000C1110001C2110001C311D8A409D0000E6D
:104570000001BC6F000EBD6F000EBE6F000EBF6F5E
:104580000001BBAF26D0B8C0C0F0B9C0C1F0BAC0FE
:10459000C2F0BBC0C3F00001C01FC11FC21FC31FB8
:1045A000C02B000EC123C223C323000E0001C0256F
:1045B0000001B86F000E0001C1210001B96F000EAB
:1045C0000001C2210001BA6F800E0001C321000169
:1045D000BB6F0001BFAF26D0BCC0C0F0BDC0C1F0F2
:1045E000BEC0C2F0BFC0C3F00001C01FC11FC21FC8
:1045F000C31FC02B000EC123C223C323000E000122
:10460000C0250001BC6F000E0001C1210001BD6F7B
:10461000000E0001C2210001BE6F800E0001C32107
:104620000001BF6F000E0001B81B000EB91B000E89
:10463000BA1B800EBB1B000E0001BC1B000EBD1B75
:10464000000EBE1B800EBF1B0001BC510001B85DF7
:104650000001BD510001B9590001BE510001BA5914
:104660000001BF510001BB59D8B002D0D890120050
:10467000D8801200000E0001DF6FF00EDE6F000E1A
:104680000001E36F020E0001E46FE3C0E1F0E4C05B
:10469000E2F0000E0001606FF40E616F000E626FB9
:1046A000000E636FE3C064F0E4C065F0000E00012B
:1046B000676FF00E666FC6EC41F0E3C06CF0E4C0CB
:1046C0006DF0000E00016F6FF00E6E6F01EC41F0A7
:1046D0000001E06F0001E0510001D8A41200E3C026
:1046E00060F0E4C061F03F0E0001626FF20E000165
:1046F000636F000E0001656FF00E646FFFEC4AF00F
:10470000E1C0C2F0E2C0C3F015EC1CF0000120EEE5
:1047100010F0E151D926E251DA220001C2C0DEFFD9
:104720000001C3C0DEFF0001C4C0DEFF0001C5C040
:10473000DEFFE1C0C2F0E2C0C3F010EC26F00001E1
:1047400020EE14F0E151D926E251DA220001C2C074
:10475000DEFF0001C3C0DEFF0001C4C0DEFF0001B8
:10476000C5C0DEFFE3C06CF0E4C06DF0000E0001D8
:104770006F6FEE0E6E6FCDEC46F0000E00016E6FA7
:10478000F40E6F6F000E706F000E716FE3C072F069
:10479000E4C073F0000E0001756FF00E746FB7EC9B
:1047A00028F0000E0001606FF40E616F000E626F62
:1047B000000E636FE3C064F0E4C065F0000E00011A
:1047C000676FF00E666FC6EC41F0E3C06CF0E4C0BA
:1047D0006DF0000E00016F6FF00E6E6F01EC41F096
:1047E0000001E06F1200000E00018A6F0A0E010145
:1047F0006227000E63230101635107E1640E01018A
:10480000625DD8B002D0000E1200000E0101636F8D
:10481000000E626F0001F751D8A415D0040E0001FC
:10482000F86FEBC060F0ECC061F0F8C062F0BFEC74
:104830004FF0EBC06BF0ECC06CF0E8EC4EF0000118
:10484000F72B010E1200EBC06EF0ECC06FF04BECDA
:104850004BF06EC08BF06FC08CF0040E0001F819A5
:10486000D8A415D0C60E00017A6F010E00017B6F2F
:104870008BC07CF08CC07DF0040E00017E6FA8EC34
:1048800024F07AC06CF17BC06DF1050E45D0050EA9
:104890000001F819D8A421D0BE0E00017A6F010ED4
:1048A00000017B6F8BC07CF08CC07DF0040E00019A
:1048B0007E6FA8EC24F07AC08BF07BC08CF00001F6
:1048C000D8908B378C3700018B5101016C5F000150
:1048D0008C5101016D5B030E1FD0030E0001F8190E
:1048E000D8A419D0B60E00017A6F010E00017B6FBB
:1048F0008BC07CF08CC07DF0040E00017E6FA8ECB4
:1049000024F07AC0EFF07BC0F0F0040E0001F86FE5
:104910000001F72B03D0040E0001F86FEBC060F02C
:10492000ECC061F0F8C062F0BFEC4FF0EBC06BF090
:10493000ECC06CF0E8EC4EF0040E0001F76506D018
:10494000010E0001F66F000E0001F76F010E12005C
:10495000000E0001856F000E866F000E876F000E3F
:10496000886F00017E050001896F000189510001F7
:10497000D8B45CD0FE0E00017F6FFF0E0001806F87
:10498000000189510001816F826BD890000181374D
:10499000823700017F510001812700018051000111
:1049A00082230001815100017A25D96E00018251D4
:1049B00000017B21DA6E00018951020DF3500001E4
:1049C0007A25E16EF45000017B21E26EDECFE6FF36
:1049D000DDCFE5FF00018951020DF35000017A257A
:1049E000D96EF45000017B21DA6EDECF7FF0DDCF8F
:1049F00080F07FC081F080C082F0000E000182BF95
:104A0000FF0E836F846F0001815100018527000133
:104A10008251000186230001835100018723000198
:104A2000845100018823000189079FD70001895123
:104A3000020DF35000017A25D96EF45000017B215C
:104A4000DA6E7CC0DEFF7DC0DDFF7CC07FF07DC004
:104A500080F0000E000180BFFF0E816F826F0001A9
:104A60007F5100018527000180510001862300014C
:104A7000815100018723000182510001882385C0F4
:104A80006CF086C06DF087C06EF088C06FF00001DA
:104A90007E510001706F716B726B736B3DEC2CF08B
:104AA0006CC085F06DC086F06EC087F06FC088F076
:104AB00085C07AF086C07BF012000A0E01016027E3
:104AC000000E61230101615107E1320E0101605DB9
:104AD000D8B002D0000E1200000E0101616F000E6E
:104AE000606F0001F551D8A40AD09BEC4FF0020E84
:104AF0000001F46F010E0001F56F010E1200020EAD
:104B00000001F419D8A41DD00001F45165EC45F062
:104B100064C08AF065C08BF0AE0E00017A6F010EA2
:104B200000017B6F8AC07CF08BC07DF0040E000119
:104B30007E6FA8EC24F07AC05AF17BC05BF1010EC5
:104B400061D00001F405D8A41DD00001F45165EC3A
:104B500045F064C08AF065C08BF0A60E00017A6F44
:104B6000010E00017B6F8AC07CF08BC07DF0040ECB
:104B700000017E6FA8EC24F07AC05CF17BC05DF18F
:104B8000000E40D00001F451D8A419D00001F45116
:104B900065EC45F064C08AF065C08BF09E0E0001A4
:104BA0007A6F010E00017B6F8AC07CF08BC07DF0B4
:104BB000040E00017E6FA8EC24F0030E23D0030E38
:104BC0000001F419D8A41DD00001F45165EC45F0A2
:104BD00064C08AF065C08BF0960E00017A6F010EFA
:104BE00000017B6F8AC07CF08BC07DF0040E000159
:104BF0007E6FA8EC24F0020E0001F46F0001F52B8B
:104C000003D0020E0001F46F040E0001F56506D01A
:104C1000010E0001F36F000E0001F56F010E12008E
:104C2000000120EE0CF0C251D926C351DA22DECFAA
:104C300060F0DECF61F0DECF62F0DECF63F0000E19
:104C4000EFEC1EF060C0D2F061C0D3F062C0D4F0CF
:104C500063C0D5F0D2C087F0D3C088F0D4C089F04B
:104C6000D5C08AF0000E00018B6F000E8C6F7A0E9B
:104C70008D6F440E8E6FA9EC11F087C0D2F088C002
:104C8000D3F089C0D4F08AC0D5F0D2C072F0D3C0BE
:104C900073F0D4C074F0D5C075F0D2C06EF0D3C03C
:104CA0006FF0D4C070F0D5C071F008EC0BF06EC09E
:104CB000C6F06FC0C7F070C0C8F071C0C9F0D2C0F4
:104CC00072F0D3C073F0D4C074F0D5C075F0C6C014
:104CD0006EF0C7C06FF0C8C070F0C9C071F008ECCA
:104CE0000BF06EC0CAF06FC0CBF070C0CCF071C0DA
:104CF000CDF0CAC06EF0CBC06FF0CCC070F0CDC0AC
:104D000071F0A60E0001726F0A0E736F860E746F3B
:104D10003E0E756F08EC0BF06EC0CEF06FC0CFF09A
:104D200070C0D0F071C0D1F0CEC06EF0CFC06FF0C7
:104D3000D0C070F0D1C071F0000E0001726F000E93
:104D4000736F7A0E746F440E756F08EC0BF06EC0C3
:104D5000CEF06FC0CFF070C0D0F071C0D1F0CEC037
:104D6000B8F0CFC0B9F0D0C0BAF0D1C0BBF055ECAC
:104D70002DF0B8C0C2F0B9C0C3F0BAC0C4F0BBC017
:104D8000C5F0120000016BBF0DD0100E00016A5D6E
:104D9000270E00016B59D8A005D0270E00016B6FBC
:104DA0000F0E6A6F6AC060F06BC061F0000E000108
:104DB000636F0A0E626FC3EC3BF0060E00016025C4
:104DC000F66EEF0E00016121F76E000120EE03F098
:104DD0006851D9266951DA220800F5CFDFFF6AC091
:104DE00060F06BC061F0000E0001636F0A0E626F2D
:104DF0009FEC37F060C06AF061C06BF06AC060F091
:104E00006BC061F0000E0001636F0A0E626FC3ECAD
:104E10003BF0060E00016025F66EEF0E00016121E9
:104E2000F76E000120EE02F06851D9266951DA22AE
:104E30000800F5CFDFFF6AC060F06BC061F0000EC4
:104E40000001636F0A0E626F9FEC37F060C06AF07A
:104E500061C06BF06AC060F06BC061F0000E0001D1
:104E6000636F0A0E626FC3EC3BF0060E0001602513
:104E7000F66EEF0E00016121F76E000120EE01F0E9
:104E80006851D9266951DA220800F5CFDFFF6AC0E0
:104E900060F06BC061F0000E0001636F0A0E626F7C
:104EA0009FEC37F060C06AF061C06BF06AC060F0E0
:104EB0006BC061F0000E0001636F0A0E626FC3ECFD
:104EC0003BF0060E00016025F66EEF0E0001612139
:104ED000F76E68C0D9FF69C0DAFF0800F5CFDFFFC1
:104EE000120081D03F0E0001606F000E0001616F63
:104EF000000E0001626F030E0001636F6EEC4BF059
:104F000012003F0E0001606F000E0001616F000E85
:104F10000001626F040E0001636F6EEC4BF0120033
:104F20009CEC4DF012003F0E0001606F000E00017E
:104F3000616F000E0001626F050E0001636F6EEC81
:104F40004BF0120089EC4FF0120077EC4FF012009A
:104F50003F0E0001606F000E0001616F000E000146
:104F6000626F020E0001636F6EEC4BF012003F0E99
:104F70000001606F000E0001616F000E0001626FA2
:104F8000040E0001636F6EEC4BF012003F0E000147
:104F9000606F000E0001616F000E0001626F040E71
:104FA0000001636F6EEC4BF012003F0E0001606F6A
:104FB000000E0001616F000E0001626F040E00011F
:104FC000636F6EEC4BF012003F0E0001606F000E3D
:104FD0000001616F000E0001626F020E0001636F3D
:104FE0006EEC4BF012003350000AD8B41200100AD5
:104FF000D8B478D7300AD8B484D7100AD8B490D7A8
:10500000700AD8B490D7100AD8B49CD7300AD8B454
:105010009CD7100AD8B49CD7F00AD8B41200100A52
:10502000D8B4A5D7300AD8B4B1D7100AD8B4BDD7F0
:10503000700AD8A41200C8D7010E0001786501D00B
:10504000120076C0D9FF77C0DAFFDECF85F0DDCF62
:1050500086F0000120EE03F07651D9267751DA224E
:10506000DF50D8B42CD085C062F086C063F0000E4B
:105070000001656F0A0E646FBDEC42F062C085F0FE
:1050800063C086F0E80E0001855D030E00018659BD
:10509000D8A005D0030E0001866FE70E856F7A0E4B
:1050A0000001686F000E0001696F85C06AF086C05C
:1050B0006BF0C2EC26F02D0E00017A6F19D0100EA5
:1050C0000001855D270E00018659D8A005D0270E66
:1050D0000001866F0F0E856F7A0E0001686F000E5B
:1050E0000001696F85C06AF086C06BF0C2EC26F0E3
:1050F000000E00017F6F000178510001D8A409D093
:105100007A0E0001736F000E0001746F8BEC44F097
:1051100008D07A0E0001736F000E0001746F90ECDE
:105120004BF0000120EE03F07651D9267751DA22B8
:10513000DF500001796F000120EE02F07651D92690
:105140007751DA22DF50000179250001846F030EC8
:10515000000184611200010E0001706F000178519E
:10516000040DF35000018425F9EC44F01200000E08
:1051700000017F6F050E0001806FFF0E00016E15AC
:105180000001816F030E00016F150001826F0001A5
:105190007451000181250001766F000175510001F5
:1051A00082210001776F00017605010E0001775919
:1051B000D8B01200000E00016E1500017A6FFC0ECF
:1051C00000016F1500017B6FFF0E000170150001DB
:1051D0007C6FFF0E0001711500017D6F7AC060F0D9
:1051E0007BC061F07CC062F07DC063F07FC064F082
:1051F00080C065F0010E0001676F000E666FC6EC9F
:1052000041F00001815100017F250001606F000124
:105210008251000180210001616F72C062F073C091
:1052200063F074C064F075C065F0FFEC4AF07AC0BA
:1052300060F07BC061F07CC062F07DC063F009EC7F
:1052400049F0040E0001786F7FC081F080C082F0C9
:1052500081C0E9FF00018251816F826B81C0EAFF4A
:10526000000E0001796F17D0000E00017E6F3F0E17
:1052700000017E6501D007D0EECFE8FFF56E0D008E
:1052800000017E2BF4D70A00A6843FEC50F0A694D0
:105290000D000001792B000178510001795DD8B033
:1052A0001200E2D70301CA6F000E0301CF6F020E96
:1052B0000301D06F35C06CF036C06DF037C06EF0B2
:1052C00038C06FF0CBEC3AF06CC0CBF36DC0CCF3D0
:1052D0006EC0CDF36FC0CEF35CD0030120EE9CF026
:1052E000CF51D926D051DA22CBC3DEFFCCC3DEFFAB
:1052F000CDC3DEFFCEC3DEFF030120EEA0F012D04F
:10530000030120EEA4F0CF51D926D051DA22CBC32D
:10531000DEFFCCC3DEFFCDC3DEFFCEC3DEFF030165
:1053200020EEA8F0CF51D926D051DA225AC1DEFFA3
:105330005BC1DDFF3BD0030120EEACF0CF51D9269D
:10534000D051DA22CBC3DEFFCCC3DEFFCDC3DEFFFC
:10535000CEC3DEFF030120EEB0F012D0030120EE39
:10536000B4F0CF51D926D051DA22CBC3DEFFCCC363
:10537000DEFFCDC3DEFFCEC3DEFF030120EEB8F0BB
:10538000CF51D926D051DA225CC1DEFF5DC1DDFFED
:105390000DD03250000AD8B4A0D7010AD8B4B0D783
:1053A000030AD8B4C8D7010AD8B4D8D7E8EC2FF08C
:1053B0000301CA510301D8B403D010EC4CF0120021
:1053C000322A030E326402D0000E326E325077EC75
:1053D0003AF01200000E74EC4EF0010E5CEC4EF050
:1053E00032C07DF0030E00017D6501D01200770E02
:1053F0000001606F000E0001616F9A0E0001626F84
:10540000F30E0001636F2FEC45F000017D51300F6A
:1054100000017A6F770E0001736F000E0001746F48
:105420008BEC44F0390E00017E6F000E00017F6F9F
:10543000770E0001606F000E0001616F740E0001B5
:10544000626FF30E0001636F2FEC45F07EC0D9FF51
:105450007FC0DAFFDF50D8A40FD0770E0001606F55
:10546000000E0001616FF40E0001626FF30E000187
:10547000636F2FEC45F03BD07EC0D9FF7FC0DAFFD1
:10548000DE04D8A40FD0770E0001606F000E00017B
:10549000616FC20E0001626FF30E0001636F2FECAB
:1054A00045F025D07EC0D9FF7FC0DAFF020EDE189E
:1054B000D8A40FD0770E0001606F000E0001616F5D
:1054C000F90E0001626FF30E0001636F2FEC45F0DF
:1054D0000ED0770E0001606F000E0001616FC70EE5
:1054E0000001626FF30E0001636F2FEC45F0770E41
:1054F0000001736F000E0001746F90EC4BF0C4EC70
:1055000047F01200000E0001766F000E0001796F67
:10551000040E00017A6F800E276E010E286E27C0E0
:1055200060F028C061F0AA0E0001626F43EC42F007
:10553000000E0001786FA20E776F27C068F028C0B8
:1055400069F0000E00016A6F79C06BF07AC06CF0F0
:1055500077C06DF078C06EF096EC21F079C06CF0F9
:105560007AC06DF077C06EF078C06FF001EC41F05A
:105570000001766F000176510001D8A41200D6EC2C
:105580001FF079C06CF07AC06DF0FE0E0001772537
:1055900000016E6FFF0E0001782100016F6FCDECEE
:1055A00046F027C066F028C067F0000E0001686F63
:1055B00079C069F07AC06AF077C06BF078C06CF09F
:1055C000CAEC2CF027C068F028C069F0000E00017A
:1055D0006A6F79C06BF07AC06CF077C06DF078C0FC
:1055E0006EF096EC21F079C06CF07AC06DF077C067
:1055F0006EF078C06FF001EC41F00001766F0001B1
:1056000076510001D8A41200D6EC1FF079C06CF0DE
:105610007AC06DF0FE0E0001772500016E6FFF0E5F
:105620000001782100016F6FCDEC46F01200000EF2
:105630000001766F100E0001796F030E00017A6F82
:105640008B0E296E010E2A6E29C060F02AC061F00F
:10565000AA0E0001626F43EC42F0000E0001786F69
:10566000A20E776F29C068F02AC069F0000E000111
:105670006A6F79C06BF07AC06CF077C06DF078C05B
:105680006EF096EC21F079C06CF07AC06DF077C0C6
:105690006EF078C06FF001EC41F00001766F000110
:1056A00076510001D8A4120017EC1DF079C06CF0FF
:1056B0007AC06DF0FE0E0001772500016E6FFF0EBF
:1056C0000001782100016F6FCDEC46F029C066F033
:1056D0002AC067F0000E0001686F79C069F07AC0D7
:1056E0006AF077C06BF078C06CF0CAEC2CF029C07F
:1056F00068F02AC069F0000E00016A6F79C06BF093
:105700007AC06CF077C06DF078C06EF096EC21F046
:1057100079C06CF07AC06DF077C06EF078C06FF031
:1057200001EC41F00001766F000176510001D8A430
:10573000120017EC1DF079C06CF07AC06DF0FE0E0F
:105740000001772500016E6FFF0E00017821000136
:105750006F6FCDEC46F01200E60E0301E06F010E14
:105760000301E16FB20E0001606F030E0001616F73
:10577000000E0001626F180E0001636FE2EC4FF043
:10578000000E0301E26F000E0301E26F22D003015D
:10579000E251340D140EF3240301DE6F030EF420E6
:1057A0000301DF6FDEC37AF0DFC37BF0E0C37CF080
:1057B000E1C37DF00301E251080DB20EF3240001B4
:1057C0007E6F030EF42000017F6FC2EC03F0030133
:1057D000E22B030110510301E25DD8A0D8D7B20E2D
:1057E00000017A6F030E00017B6FE0C37CF0E1C320
:1057F0007DF0E2C37EF05BEC0DF0E0C3D9FFE1C3C6
:10580000DAFFDECF56F1DECF57F1DECF58F1DECF33
:1058100059F1E0C3C2F0E1C3C3F05FEC2EF04FECEE
:1058200018F00001FE6F02010451D8A413D0E7C0A4
:10583000FBF1E8C0FCF1E9C0FDF1EAC0FEF1ACEC1F
:1058400019F0FBC14EF1FCC14FF1FDC150F1FEC199
:1058500051F11200E7C0FBF1E8C0FCF1E9C0FDF135
:10586000EAC0FEF16EEC00F0FBC14EF1FCC14FF15D
:10587000FDC150F1FEC151F11200000E0001756F23
:10588000000173AF0CD00001731F721F711F706D88
:10589000000E712372237323010E0001756F000146
:1058A0006FAF0CD000016F1F6E1F6D1F6C6D000E6F
:1058B0006D236E236F23010E0001751B000E000186
:1058C000766F000E776F000E786F000E796F000113
:1058D0007051000171110001721100017311D8B4EF
:1058E00042D0010E0001746F08D00001D8907037CB
:1058F0007137723773370001742B000173AFF5D71E
:105900000001D890763777377837793700017051B2
:1059100000016C5D0001715100016D59000172516F
:1059200000016E590001735100016F59D8A012D0C7
:105930000001705100016C5F0001715100016D5B4D
:105940000001725100016E5B0001735100016F5B39
:10595000000176810001D890733372337133703354
:105960000001742FCDD7000175510001D8B409D0C2
:105970000001791F781F771F766D000E772378233B
:10598000792376C06CF077C06DF078C06EF079C086
:105990006FF01200000E00016E6F000E6D6F7AD076
:1059A000000120EE01F06651D9266751DA2201D8B4
:1059B0000AD00500FA6EDE50FD6EDE50FE6EF85025
:1059C000FF6EFA501200000120EE05F06651D92654
:1059D0006751DA2201D80FD00500FA6EDE50FD6E55
:1059E000DE50FE6EF850FF6EFA5066C0D9FF67C0F9
:1059F000DAFFDF501200000120EE05F06651D926D3
:105A00006751DA2201D80CD00500FA6EDE50FD6E27
:105A1000DE50FE6EF850FF6EFA5000016851120021
:105A20000001682B000120EE05F06651D926675170
:105A3000DA2201D80FD00500FA6EDE50FD6EDE507E
:105A4000FE6EF850FF6EFA5069C0D9FF6AC0DAFFE7
:105A5000DF5012000001694B6A2B000120EE03F0B9
:105A60006651D9266751DA2201D80AD00500FA6EAC
:105A7000DE50FD6EDE50FE6EF850FF6EFA501200E2
:105A8000000E0001656F010E646F64EC4FF00001C1
:105A90006D4B6E2B00016B5100016D5D00016C516F
:105AA00000016E59D8B012007BD70001BA35BB3562
:105AB0000001C16F0001C151D8A40AD0000E00013D
:105AC000B86F000EB96F000EBA6F000EBB6F1200F8
:105AD000B8C0BCF0B9C0BDF0BAC0BEF0BBC0BFF02A
