:100000003EEF00F0AA00AA0014EF30F0AA00AA0008
:10001000AA00AA00AA00AA00D8CF03F0E8CF04F0F3
:10002000E0CF05F0E1CF06F0E2CF07F01CEE38F0AC
:100030009DB29EA20ED09FB20CD09E92010E0101E5
:100040002F27000E3023312332230001E7817AEC81
:1000500038F0A3B0A4A007D0A5B005D0A4900001AB
:10006000E783F9EC38F007C0E2FF06C0E1FF05C006
:10007000E0FF04C0E8FF03C0D8FF100016EE00F058
:10008000AFEF29F0100E0001FA25F66E000EFB21ED
:10009000F76E000EFC21F86E0900F5CF08F009009C
:1000A000F5CF09F00900F5CF0AF00A00F5CF0BF003
:1000B000010E5DEC20F008C0B6F209C0B7F20AC02C
:1000C000B8F20BC0B9F2140E0001FA25F66E000E5C
:1000D000FB21F76E000EFC21F86E0900F5CF08F049
:1000E0000900F5CF09F00900F5CF0AF00A00F5CFB5
:1000F0000BF0010E5DEC20F008C0BAF209C0BBF2B3
:100100000AC0BCF20BC0BDF2ABC008F0ACC009F035
:10011000ADC00AF0AEC00BF0010E5DEC20F008C0DF
:10012000C2F209C0C3F20AC0C4F20BC0C5F20C0E81
:100130000001FA25F66E000EFB21F76E000EFC2181
:10014000F86E0900F5CF08F00900F5CF09F00900B5
:10015000F5CF0AF00A00F5CF0BF0000E5DEC20F0B1
:1001600008C0BEF209C0BFF20AC0C0F20BC0C1F2A3
:10017000C2C27DF0C3C27EF0C4C27FF0C5C280F0AF
:10018000000E336E000E346E800E356E400E366EED
:10019000BEC22FF0BFC230F0C0C231F0C1C232F0D7
:1001A00093EC0FF02FC081F030C082F031C083F0AB
:1001B00032C084F052EC1BF00001D8B07DD0000EAC
:1001C0001A6E000E1B6E000E1C6E400E1D6EC2C21B
:1001D00016F0C3C217F0C4C218F0C5C219F045EC3E
:1001E0000CF016C02FF017C030F018C031F019C055
:1001F00032F0BEC233F0BFC234F0C0C235F0C1C26B
:1002000036F093EC0FF02FC0C2F230C0C3F231C011
:10021000C4F232C0C5F2ED0E0001896FEF0E00018D
:100220008A6FC2C28BF0C3C28CF0C4C28DF0C5C24B
:100230008EF0000E0001906F650E8F6F3DEC06F0A2
:1002400089C0C2F28AC0C3F28BC0C4F28CC0C5F2AE
:10025000140E0001FA25F66E000EFB21F76E000E5B
:10026000FC21F86E0900F5CF08F00900F5CF09F080
:100270000900F5CF0AF00A00F5CF0BF0010E5DEC96
:1002800020F008C0BAF209C0BBF20AC0BCF20BC031
:10029000BDF2BAC27DF0BBC27EF0BCC27FF0BDC26F
:1002A00080F065EC25F07DC0ABF07EC0ACF07FC087
:1002B000ADF080C0AEF01200C2C27DF0C3C27EF0CD
:1002C000C4C27FF0C5C280F0080E0001FA25F66EA8
:1002D000000EFB21F76E000EFC21F86E0900F5CF31
:1002E00008F00900F5CF09F00900F5CF0AF00A007F
:1002F000F5CF0BF0010E5DEC20F008C071F009C0E5
:1003000072F00AC073F00BC074F0000E336E000E72
:10031000346E800E356E400E366EBEC22FF0BFC2F8
:1003200030F0C0C231F0C1C232F093EC0FF02FC0F8
:100330006DF030C06EF031C06FF032C070F04FEC35
:1003400008F06DC081F06EC082F06FC083F070C0A5
:1003500084F052EC1BF00001D8B0BAD0000E336E1E
:10036000000E346E800E356E400E366EBEC22FF01B
:10037000BFC230F0C0C231F0C1C232F093EC0FF016
:100380002FC03BF030C03CF031C03DF032C03EF0F9
:100390001AEC37F03BC06DF03CC06EF03DC06FF022
:1003A0003EC070F0C2C271F0C3C272F0C4C273F03A
:1003B000C5C274F04FEC08F06DC0C2F26EC0C3F25B
:1003C0006FC0C4F270C0C5F2080E0001FA25F66EC7
:1003D000000EFB21F76E000EFC21F86E0900F5CF30
:1003E00008F00900F5CF09F00900F5CF0AF00A007E
:1003F000F5CF0BF0010E5DEC20F008C033F009C022
:1004000034F00AC035F00BC036F0C2C22FF0C3C2C0
:1004100030F0C4C231F0C5C232F093EC0FF02FC0FF
:1004200016F030C017F031C018F032C019F0BAC25F
:100430001AF0BBC21BF0BCC21CF0BDC21DF045ECE3
:100440000CF016C0BAF217C0BBF218C0BCF219C04B
:10045000BDF2B6C22FF0B7C230F0B8C231F0B9C2A7
:1004600032F0000E336E000E346E000E356E400E0C
:10047000366E93EC0FF02FC0B6F230C0B7F231C039
:10048000B8F232C0B9F2BAC271F0BBC272F0BCC2EB
:1004900073F0BDC274F0B6C26DF0B7C26EF0B8C2F0
:1004A0006FF0B9C270F04FEC08F06DC07DF06EC017
:1004B0007EF06FC07FF070C080F065EC25F07DC0ED
:1004C000ABF07EC0ACF07FC0ADF080C0AEF01200EB
:1004D000000E336E000E346E000E356E400E366E1A
:1004E000BEC22FF0BFC230F0C0C231F0C1C232F084
:1004F00093EC0FF02FC071F030C072F031C073F088
:1005000032C074F0080E0001FA25F66E000EFB21D1
:10051000F76E000EFC21F86E0900F5CF08F0090017
:10052000F5CF09F00900F5CF0AF00A00F5CF0BF07E
:10053000010E5DEC20F008C06DF009C06EF00AC03D
:100540006FF00BC070F04FEC08F06DC07DF06EC026
:100550007EF06FC07FF070C080F0C2C281F0C3C275
:1005600082F0C4C283F0C5C284F052EC1BF00001DB
:10057000D8B045D0080E0001FA25F66E000EFB211A
:10058000F76E000EFC21F86E0900F5CF08F00900A7
:10059000F5CF09F00900F5CF0AF00A00F5CF0BF00E
:1005A000010E5DEC20F008C06DF009C06EF00AC0CD
:1005B0006FF00BC070F0000E336E000E346E000E44
:1005C000356E400E366EBEC22FF0BFC230F0C0C2D4
:1005D00031F0C1C232F093EC0FF02FC071F030C097
:1005E00072F031C073F032C074F04FEC08F06DC09F
:1005F000C2F26EC0C3F26FC0C4F270C0C5F2080E82
:100600000001FA25F66E000EFB21F76E000EFC21AC
:10061000F86E0900F5CF08F00900F5CF09F00900E0
:10062000F5CF0AF00A00F5CF0BF0010E5DEC20F0DB
:1006300008C071F009C072F00AC073F00BC074F00A
:10064000000E336E000E346E800E356E400E366E28
:10065000BEC22FF0BFC230F0C0C231F0C1C232F012
:1006600093EC0FF02FC06DF030C06EF031C06FF022
:1006700032C070F04FEC08F06DC03BF06EC03CF043
:100680006FC03DF070C03EF01AEC37F03BC0B2F2E4
:100690003CC0B3F23DC0B4F23EC0B5F2B2C26DF0A0
:1006A000B3C26EF0B4C26FF0B5C270F0C2C271F0E6
:1006B000C3C272F0C4C273F0C5C274F04FEC08F04C
:1006C0006DC0C2F26EC0C3F26FC0C4F270C0C5F29A
:1006D000000E1A6E000E1B6E000E1C6E400E1D6E7C
:1006E000C2C216F0C3C217F0C4C218F0C5C219F0D6
:1006F00045EC0CF016C02FF017C030F018C031F0E8
:1007000019C032F0BEC233F0BFC234F0C0C235F0FF
:10071000C1C236F093EC0FF02FC0C2F230C0C3F26A
:1007200031C0C4F232C0C5F2C2C23BF0C3C23CF019
:10073000C4C23DF0C5C23EF01AEC37F03BC06DF0CC
:100740003CC06EF03DC06FF03EC070F0000E000186
:10075000716F000E726F000E736F3F0E746F4FEC6F
:1007600008F06DC0C2F26EC0C3F26FC0C4F270C0B8
:10077000C5F2000E0001716F000E726F000E736FF4
:100780003F0E746FC2C26DF0C3C26EF0C4C26FF090
:10079000C5C270F04FEC08F06DC016F06EC017F0D7
:1007A0006FC018F070C019F0BAC21AF0BBC21BF0CB
:1007B000BCC21CF0BDC21DF045EC0CF016C0BAF274
:1007C00017C0BBF218C0BCF219C0BDF2BAC271F0BA
:1007D000BBC272F0BCC273F0BDC274F0B6C26DF0A1
:1007E000B7C26EF0B8C26FF0B9C270F04FEC08F04B
:1007F0006DC07DF06EC07EF06FC07FF070C080F085
:1008000065EC25F07DC0ABF07EC0ACF07FC0ADF0F4
:1008100080C0AEF012001A6E310E1A6401D01200C0
:100820001A500008310F196E90D12E0E106E18C09C
:1008300011F0000E42EC2BF012002E0E106E18C0BC
:1008400011F0010E42EC2BF012002E0E106E18C0AB
:1008500011F0020E42EC2BF012002E0E106E18C09A
:1008600011F0030E42EC2BF012002F0E106E18C088
:1008700011F0030E42EC2BF012002F0E106E18C078
:1008800011F0020E42EC2BF012002F0E106E18C069
:1008900011F0010E42EC2BF012002F0E106E18C05A
:1008A00011F0000E42EC2BF012001F0E106E18C05B
:1008B00011F0000E42EC2BF012001F0E106E18C04B
:1008C00011F0010E42EC2BF012001F0E106E18C03A
:1008D00011F0020E42EC2BF012001F0E106E18C029
:1008E00011F0030E42EC2BF01200000E106E18C037
:1008F00011F0030E42EC2BF01200000E106E18C027
:1009000011F0020E42EC2BF01200000E106E18C017
:1009100011F0010E42EC2BF01200000E106E18C008
:1009200011F0000E42EC2BF01200010E106E18C0F8
:1009300011F0000E42EC2BF01200010E106E18C0E8
:1009400011F0010E42EC2BF01200010E106E18C0D7
:1009500011F0020E42EC2BF01200010E106E18C0C6
:1009600011F0030E42EC2BF01200020E106E18C0B4
:1009700011F0030E42EC2BF01200020E106E18C0A4
:1009800011F0020E42EC2BF01200020E106E18C095
:1009900011F0010E42EC2BF01200020E106E18C086
:1009A00011F0000E42EC2BF01200030E106E18C076
:1009B00011F0000E42EC2BF01200030E106E18C066
:1009C00011F0010E42EC2BF01200030E106E18C055
:1009D00011F0020E42EC2BF01200030E106E18C044
:1009E00011F0030E42EC2BF01200040E106E18C032
:1009F00011F0030E42EC2BF01200040E106E18C022
:100A000011F0020E42EC2BF01200040E106E18C012
:100A100011F0010E42EC2BF01200040E106E18C003
:100A200011F0000E42EC2BF01200050E106E18C0F3
:100A300011F0000E42EC2BF01200050E106E18C0E3
:100A400011F0010E42EC2BF01200050E106E18C0D2
:100A500011F0020E42EC2BF01200050E106E18C0C1
:100A600011F0030E42EC2BF01200060E106E18C0AF
:100A700011F0030E42EC2BF01200060E106E18C09F
:100A800011F0020E42EC2BF01200060E106E18C090
:100A900011F0010E42EC2BF01200060E106E18C081
:100AA00011F0000E42EC2BF01200070E106E18C071
:100AB00011F0000E42EC2BF01200070E106E18C061
:100AC00011F0010E42EC2BF01200070E106E18C050
:100AD00011F0020E42EC2BF01200070E106E18C03F
:100AE00011F0030E42EC2BF01200210E106E18C014
:100AF00011F0030E42EC2BF01200210E106E18C004
:100B000011F0020E42EC2BF01200210E106E18C0F4
:100B100011F0010E42EC2BF01200210E106E18C0E5
:100B200011F0000E42EC2BF01200220E106E18C0D5
:100B300011F0000E42EC2BF01200220E106E18C0C5
:100B400011F0010E42EC2BF012001950000AD8B43B
:100B50006CD6010AD8B471D6030AD8B476D6010A85
:100B6000D8B47BD6070AD8B480D6010AD8B485D6C3
:100B7000030AD8B48AD6010AD8B48FD60F0AD8B4DB
:100B800094D6010AD8B499D6030AD8B49ED6010ADD
:100B9000D8B4A3D6070AD8B4A8D6010AD8B4ADD61B
:100BA000030AD8B4B2D6010AD8B4B7D61F0AD8B44B
:100BB000BCD6010AD8B4C1D6030AD8B4C6D6010A35
:100BC000D8B4CBD6070AD8B4D0D6010AD8B4D5D673
:100BD000030AD8B4DAD6010AD8B4DFD60F0AD8B4DB
:100BE000E4D6010AD8B4E9D6030AD8B4EED6010A8D
:100BF000D8B4F3D6070AD8B4F8D6010AD8B4FDD6CB
:100C0000030AD8B402D7010AD8B407D73F0AD8B428
:100C10000CD7010AD8B411D7030AD8B416D7010AE1
:100C2000D8B41BD7070AD8B420D7010AD8B425D71F
:100C3000030AD8B42AD7010AD8B42FD70F0AD8B4D8
:100C400034D7010AD8B439D7030AD8B43ED7010A39
:100C5000D8B443D7070AD8B448D7010AD8B44DD777
:100C6000030AD8B452D7010AD8B457D71F0AD8B448
:100C70005CD7010AD8A4120060D7000E0001AA6F49
:100C8000000EA96FD0D0A9C091F0AAC092F00001C7
:100C9000D890913792370001D8909137923789C018
:100CA00093F08AC094F00001915100019327000154
:100CB00092510001942393C0F6FF94C0F7FF0900FE
:100CC000F5CF7DF00900F5CF7EF00900F5CF7FF07C
:100CD0000A00F5CF80F0A9C095F0AAC096F00001F7
:100CE000D890953796370001D89095379637040EEF
:100CF00000019527000E962389C097F08AC098F0CE
:100D00000001955100019727000196510001982399
:100D100097C0F6FF98C0F7FF0900F5CF81F00900F2
:100D2000F5CF82F00900F5CF83F00A00F5CF84F00B
:100D300052EC1BF00001D8B03BD0A9C091F0AAC082
:100D400092F00001D890913792370001D8909137F6
:100D50009237040E00019127000E922389C093F070
:100D60008AC094F000019151000193270001925133
:100D70000001942393C0F6FF94C0F7FF0900F5CF5C
:100D80007DF00900F5CF7EF00900F5CF7FF00A0075
:100D9000F5CF80F08BC081F08CC082F08DC083F0E5
:100DA0008EC084F052EC1BF00001D8B058D038D07F
:100DB0008BC07DF08CC07EF08DC07FF08EC080F047
:100DC000A9C091F0AAC092F00001D8909137923753
:100DD0000001D89091379237040E00019127000E40
:100DE000922389C093F08AC094F0000191510001D0
:100DF0009327000192510001942393C0F6FF94C001
:100E0000F7FF0900F5CF81F00900F5CF82F0090066
:100E1000F5CF83F00A00F5CF84F052EC1BF0C4D775
:100E20000001A94BAA2BFF0E0001916FFF0E0001DC
:100E3000926F8FC093F090C094F000019151000127
:100E40009327000192510001942300019351000166
:100E5000A95D000194510001AA59D8A014D7A9C0D6
:100E600091F0AAC092F00001D8909137923700011A
:100E7000D8909137923789C093F08AC094F00001DE
:100E8000915100019327000192510001942393C0D6
:100E9000F6FF94C0F7FF0900F5CFA5F00900F5CFE4
:100EA000A6F00900F5CFA7F00A00F5CFA8F00A0ECA
:100EB0000001996FD70E9A6F230E9B6F3C0E9C6FAB
:100EC000A9C091F0AAC092F00001D8909137923752
:100ED0000001D8909137923789C093F08AC094F07E
:100EE00000019151000193270001925100019423C8
:100EF00093C0F6FF94C0F7FF0900F5CF3BF009005F
:100F0000F5CF3CF00900F5CF3DF00A00F5CF3EF0FB
:100F10001AEC37F03BC06DF03CC06EF03DC06FF096
:100F20003EC070F0A9C095F0AAC096F00001D8901C
:100F3000953796370001D89095379637040E000103
:100F40009527000E962389C097F08AC098F000017B
:100F5000955100019727000196510001982397C0F1
:100F6000F6FF98C0F7FF0900F5CF71F00900F5CF43
:100F700072F00900F5CF73F00A00F5CF74F04FEC72
:100F800008F06DC09DF06EC09EF06FC09FF070C005
:100F9000A0F08BC071F08CC072F08DC073F08EC069
:100FA00074F00A0E1A6ED70E1B6E230E1C6E3C0ECA
:100FB0001D6EA9C008F0AAC009F00A6A0B6A000EEB
:100FC0005DEC20F008C016F009C017F00AC018F058
:100FD0000BC019F045EC0CF016C03BF017C03CF00C
:100FE00018C03DF019C03EF01AEC37F03BC06DF070
:100FF0003CC06EF03DC06FF03EC070F04FEC08F0AA
:101000006DC0A1F06EC0A2F06FC0A3F070C0A4F0DC
:1010100099C033F09AC034F09BC035F09CC036F0D4
:101020009DC02FF09EC030F09FC031F0A0C032F0C4
:1010300093EC0FF02FC01AF030C01BF031C01CF041
:1010400032C01DF0A1C016F0A2C017F0A3C018F066
:10105000A4C019F045EC0CF016C06DF017C06EF08E
:1010600018C06FF019C070F0A5C071F0A6C072F082
:10107000A7C073F0A8C074F04FEC08F06DC0A5F0E5
:101080006EC0A6F06FC0A7F070C0A8F0A5C089F030
:10109000A6C08AF0A7C08BF0A8C08CF01200000197
:1010A0007051800B3F6E000170517025416E000140
:1010B0006FBF41804150D8B411D04128D8A409D085
:1010C000000E00016D6F000E6E6F000E6F6F000E50
:1010D000706F00016F8F000E000108D0000E00013C
:1010E0006D6F000E6E6F000E6F6F000E706F00015F
:1010F0007451800B406E3F504018D8A43F8C0001C3
:1011000074517425406E000173BF40804050D8B4C4
:1011100011D04028D8A409D0000E0001716F000E34
:10112000726F000E736F000E746F0001738F000EEC
:10113000000108D0000E0001716F000E726F000EEA
:10114000736F000E746F4150405CD8B022D03FAC3A
:1011500002D0800E3F1A41C042F040C041F042C070
:1011600040F06DC042F071C06DF042C071F06EC0D1
:1011700042F072C06EF042C072F06FC042F073C0B5
:101180006FF042C073F070C042F074C070F042C0A3
:1011900074F0000E426E41500001756F766B0001D5
:1011A000751F761F754B762B40500001776F786B5B
:1011B0000001755100017727000176510001782365
:1011C000000178BF35D00001785105E11A0E000109
:1011D000775DD8A02DD000016D5100016E11000186
:1011E0006F1100017011D8B402D0010E01D0000EB1
:1011F000426E000E00016D6F000E6E6F000E6F6F7D
:10120000000E706F40C041F017D042A005D0D890BA
:1012100042300109426E02D0D890423200016DB1D5
:10122000428E0001703570336F336E336D33412A57
:101230004050415CD8A0E9D73FBC35D04150D8A43C
:101240000AD0000E00016D6F000E6E6F000E6F6F02
:10125000000E706F12000001715100016D27000136
:10126000725100016E230001735100016F230001D0
:10127000745100017023000170A1B6D042A006D0C5
:10128000D890423242500109426E02D0D890423288
:1012900000016DB1428E0001703570336F336E33D3
:1012A0006D33412AA1D00001715100016D5D000133
:1012B000725100016E590001735100016F59000114
:1012C0007051800A0001756F00017451800A00019D
:1012D0007559D8B04CD06DC075F06EC076F06FC047
:1012E00077F070C078F00001751F761F771F781FA8
:1012F000752B000E762377237823000171510001AE
:1013000075250001796F00017251000176210001FD
:101310007A6F000173510001772100017B6F00019A
:1013200074510001782100017C6FFF0E00017925C6
:1013300000016D6FFF0E00017A2100016E6FFF0E3C
:1013400000017B2100016F6FFF0E00017C21000175
:10135000706F800E3F1A426C4250D8A418D0010E14
:1013600000016D27000E6E236F23702310D0000143
:10137000715100016D5F0001725100016E5B00014F
:10138000735100016F5B000174510001705B00013B
:101390006D5100016E1100016F1100017011D8A490
:1013A00020D04250D8A41DD0000E00016D6F000E59
:1013B0006E6F000E6F6F000E706F12000001D890FC
:1013C0006D376E376F37703742AE02D000016D81D6
:1013D00042A002D0D88001D0D89042364150D8A443
:1013E000410600016FAFEAD7000E406E42AE0CD04E
:1013F00042C075F07F0E00017517D8A403D000011C
:101400006DA102D0010E406E4050D8B423D0010E21
:1014100000016D27000E6E236F237023000170A161
:1014200019D06DC075F06EC076F06FC077F070C0E7
:1014300078F000017835783377337633753375C0BB
:101440006DF076C06EF077C06FF078C070F0412814
:10145000D8A4412A4128D8B403D04150D8A40ED0F2
:10146000000E00016D6F000E6E6F000E6F6F000EAC
:10147000706F4150D8A402D0000E3F6E41A003D03F
:1014800000016F8F02D000016F9FD89041300001A2
:10149000706F3FAE02D00001708F6DC06DF06EC0F6
:1014A0006EF06FC06FF070C070F0120020EE04F0AC
:1014B0002450D9262550DA22DECF3BF0DDCF3CF098
:1014C000000E416E8BD04150286E296AD890283684
:1014D0002936D89028362936D890283629360C0E49
:1014E0002826000E292222C02AF023C02BF02850E3
:1014F0002A2629502B22040E2A24D96E000E2B20D6
:10150000DA6E4150080D040EF326000EF42222C0BC
:101510002EF023C02FF0F3502E26F4502F22040E6D
:101520002E24E96E000E2F20EA6EDE50EE5CEE50A7
:10153000800A326EDE50800A3258D8B029D041502D
:10154000286E296AD89028362936D8902836293628
:10155000D890283629360C0E2826000E292222C0C3
:101560002AF023C02BF028502A2629502B22040EC3
:101570002A24D96E000E2B20DA6E3B50DE5CDE5042
:10158000800A2E6E3C50800A2E58D8B043D025D009
:101590004150286E296AD89028362936D8902836A6
:1015A0002936D890283629360C0E2826000E2922F6
:1015B00022C02AF023C02BF028502A2629502B22A3
:1015C000040E2A24D96E000E2B20DA6EDE503B5C0E
:1015D0003C50800A2E6EDE50D6D7412AFE0E286E71
:1015E000FF0E296E22C0D9FF23C0DAFFDF502A6E1A
:1015F0002B6A28502A2629502B2241502C6E2D6A06
:101600002A502C5C2D50800A2E6E2B50800A2E58AA
:10161000D8A059D74150080D040EF326000EF4222D
:10162000F3502224D96EF4502320DA6EDECF3DF041
:10163000DECF3EF0DECF3FF0DECF40F04150286EEF
:10164000296AD89028362936D89028362936D89055
:10165000283629360C0E2826000E2922285022244E
:10166000D96E29502320DA6EDECF2AF0DECF2BF0A0
:10167000DECF2CF0DECF2DF04150080D040EF32606
:10168000000EF422F3502224D96EF4502320DA6E97
:10169000DECF2EF0DECF2FF0DECF30F0DECF31F018
:1016A0002E1E2F1E301E311E2E2A000E2F223022FB
:1016B00031222A502E24336E2B502F20346E2C5082
:1016C0003020356E2D503120366E4150286E296AFB
:1016D000D89028362936D89028362936D8902836FA
:1016E00029360C0E2826000E292222C02AF023C0FB
:1016F0002BF028502A2629502B22040E2A24D96E9A
:10170000000E2B20DA6EDECF2CF0DDCF2DF0415015
:10171000080D040EF326000EF42222C02EF023C082
:101720002FF0F3502E26F4502F22040E2E24D96EC3
:10173000000E2F20DA6EDECF30F0DDCF31F0301E1C
:10174000311E304A312A2C5030262D50312230C0E3
:1017500037F031C038F0000E38BEFF0E396E3A6EE9
:101760003750381039103A10D8B451D04150080DC4
:10177000040EF326000EF42222C028F023C029F024
:10178000F3502826F4502922040E2824D96E000E86
:101790002920DA6EDECF2AF0DDCF2BF02A1E2B1E99
:1017A0002A4A2B2A3B502A263C502B222AC008F0DA
:1017B0002BC009F0000E09BEFF0E0A6E0B6E33C07F
:1017C0000CF034C00DF035C00EF036C00FF087ECD1
:1017D00032F008C014F009C015F00AC016F00BC0B2
:1017E00017F037C018F038C019F039C01AF03AC0F5
:1017F0001BF02AEC28F03D5014243D6E3E5015207D
:101800003E6E3F5016203F6E40501720406E24C061
:10181000D9FF25C0DAFF3DC0DEFF3EC0DEFF3FC07E
:10182000DEFF40C0DEFF26502710D8B42CD026C0E3
:10183000D9FF27C0DAFF3DC0DEFF3EC0DEFF3FC05C
:10184000DEFF40C0DEFF20EE04F02450D9262550F4
:10185000DA2200EE04F02650E9262750EA22DECFF5
:10186000EEFFDDCFEDFF20EE0AF02250D926235007
:10187000DA2200EE06F02650E9262750EA22DECFD3
:10188000EEFFDDCFEDFF415012001950800B226EAC
:1018900019501924286E18BE28802850D8B40DD0AD
:1018A0002828D8A408D0000E166E000E176E000E61
:1018B000186E000E196E188E08D0000E166E000EEF
:1018C000176E000E186E000E196E1D50800B221A36
:1018D0001D501D24236E1CBE23802350D8B40DD070
:1018E0002328D8A408D0000E1A6E000E1B6E000E1E
:1018F0001C6E000E1D6E1C8E08D0000E1A6E000E9F
:101900001B6E000E1C6E000E1D6E2350D8B403D04B
:101910002850D8A409D0000E166E000E176E000EC7
:10192000186E000E196E12001C501602F3CF2DF027
:10193000F4CF2EF02D50246E256A266A276A2E5089
:10194000296E2A6A2B6A2C6A1B501702F3CF2DF0DE
:10195000F4CF2EF02D502426000E252226222722F9
:101960002E502926000E2A222B222C221A50180231
:10197000F3CF2DF0F4CF2EF02D502426000E25228B
:10198000262227222E502926000E2A222B222C2204
:1019900026C027F025C026F024C025F0246A1A505E
:1019A0001702F3CF2DF0F4CF2EF02D5024262E5019
:1019B0002522000E2622000E27221B501602F3CFEE
:1019C0002DF0F4CF2EF02D5024262E502522000E7F
:1019D0002622000E272226C027F025C026F024C08C
:1019E00025F0246A1A501602F3CF2DF0F4CF2EF012
:1019F0002D5024262E502522000E2622000E2722AE
:101A00001C501702F3CF2DF0F4CF2EF02D502926C5
:101A10002E502A22000E2B22000E2C221B501802C0
:101A2000F3CF2DF0F4CF2EF02D5029262E502A2260
:101A3000000E2B22000E2C221C501802F3CF2DF08A
:101A4000F4CF2EF02D501E6E2E501F6E206A216A8C
:101A500020C021F01FC020F01EC01FF01E6A1E50C3
:101A600029261F502A2220502B2221502C2224C00C
:101A70001EF025C01FF026C020F027C021F0190E4F
:101A800005D0D890213220321F321E32E82EF9D7ED
:101A90001E5029261F502A2220502B2221502C2252
:101AA00026C027F025C026F024C025F0246A235044
:101AB00028C01EF01F6A1E26000E1F22820E1E2442
:101AC0002D6EFF0E1F202E6E0FD0D89029362A368D
:101AD0002B362C3627BE2980D8902436253626363C
:101AE00027362D06D8A02E062BAEEFD7000E236E7C
:101AF00027AE16D0FF0E24141E6EFF0E25141F6E87
:101B0000FF0E2614206E7F0E2714216E1E501F100C
:101B100020102110D8A402D029A002D0010E236EDB
:101B20002350D8B41FD0010E2926000E2A222B22C2
:101B30002C222CA017D029C01EF02AC01FF02BC0C9
:101B400020F02CC021F02134213220321F321E32ED
:101B50001EC029F01FC02AF020C02BF021C02CF09D
:101B60002D4A2E2A2EBE0DD02E5003E12D28D8A0AE
:101B700008D0000E296E000E2A6E800E2B6E7F0E8E
:101B800020D02EBE05D02E500EE12D04D8B00BD0A3
:101B9000000E296E000E2A6E000E2B6E000E2C6EAB
:101BA000000E226E0FD02DC028F0FF0E2916FF0E5A
:101BB0002A167F0E2B16000E2C1628B02B8ED890CE
:101BC00028302C6E22502C1229C016F02AC017F093
:101BD0002BC018F02CC019F0120020EE06F0245093
:101BE000D9262550DA22DECF3EF0DDCF3FF0000EC1
:101BF000406E87D04050276E286AD8902736283606
:101C0000D89027362836D89027362836080E27262B
:101C1000000E282222C029F023C02AF027502926AE
:101C200028502A22060E2924D96E000E2A20DA6EA8
:101C30004050080D22C02DF023C02EF0F3502D2669
:101C4000F4502E22060E2D24E96E000E2E20EA6E90
:101C5000DE50EE5CEE50800A316EDE50800A315864
:101C6000D8B029D04050276E286AD8902736283619
:101C7000D89027362836D89027362836080E2726BB
:101C8000000E282222C029F023C02AF0275029263E
:101C900028502A22060E2924D96E000E2A20DA6E38
:101CA0003E50DE5CDE50800A2D6E3F50800A2D587B
:101CB000D8B03FD025D04050276E286AD89027361C
:101CC0002836D89027362836D89027362836080E5A
:101CD0002726000E282222C029F023C02AF02750F0
:101CE000292628502A22060E2924D96E000E2A20E1
:101CF000DA6EDE503E5C3F50800A2D6EDE50D6D745
:101D0000402AFE0E276EFF0E286E2650296E2A6A84
:101D10002750292628502A2240502B6E2C6A295001
:101D20002B5C2C50800A2D6E2A50800A2D58D8A08A
:101D300061D74050080DF3502224D96EF45023206F
:101D4000DA6EDECF3AF0DECF3BF0DECF3CF0DECF16
:101D50003DF04050276E286AD89027362836D89014
:101D600027362836D89027362836080E2726000E24
:101D7000282227502224D96E28502320DA6EDECF65
:101D800029F0DECF2AF0DECF2BF0DECF2CF0405052
:101D9000080DF3502224D96EF4502320DA6EDECFE2
:101DA0002DF0DECF2EF0DECF2FF0DECF30F02D1E67
:101DB0002E1E2F1E301E2D2A000E2E222F223022E4
:101DC00029502D24326E2A502E20336E2B502F2076
:101DD000346E2C503020356E4050276E286AD890D3
:101DE00027362836D89027362836D89027362836F2
:101DF000080E2726000E282222C029F023C02AF030
:101E00002750292628502A22060E2924D96E000E92
:101E10002A20DA6EDECF2BF0DDCF2CF04050080DFB
:101E200022C02DF023C02EF0F3502D26F4502E2288
:101E3000060E2D24D96E000E2E20DA6EDECF2FF086
:101E4000DDCF30F02F1E301E2F4A302A2B502F2688
:101E50002C5030222FC036F030C037F0000E37BE85
:101E6000FF0E386E396E3650371038103910D8B42E
:101E70004DD04050080D22C027F023C028F0F35069
:101E80002726F4502822060E2724D96E000E28207B
:101E9000DA6EDECF29F0DDCF2AF0291E2A1E294A6C
:101EA0002A2A3E5029263F502A2229C008F02AC05B
:101EB00009F0000E09BEFF0E0A6E0B6E32C00CF068
:101EC00033C00DF034C00EF035C00FF087EC32F0A7
:101ED00008C014F009C015F00AC016F00BC017F0C6
:101EE00036C018F037C019F038C01AF039C01BF0EE
:101EF0002AEC28F03A5014243A6E3B5015203B6EE1
:101F00003C5016203C6E3D5017203D6E24C0D9FF3A
:101F100025C0DAFF3AC0DEFF3BC0DEFF3CC0DEFF7B
:101F20003DC0DEFF12003250800B0001606F325066
:101F3000322400016B6F31AE02D000016B810001D1
:101F40006B510001D8B40ED000016B29D8A408D081
:101F5000000E2F6E000E306E000E316E000E326ECF
:101F6000318E06D0000E2F6E000E306E000E316ED8
:101F7000000E326E3650800B0001601B3650362446
:101F800000016C6F35AE02D000016C8100016C5114
:101F90000001D8B40ED000016C29D8A408D0000EDE
:101FA000336E000E346E000E356E000E366E358EBA
:101FB00006D0000E336E000E346E000E356E000E2D
:101FC000366E3350341035103610D8A415D0000EAC
:101FD0002F6E000E306E000E316E000E326E800ECF
:101FE00031127F0E32122FC02FF030C030F031C0CE
:101FF00031F032C032F0120000016B510001D8A460
:1020000011D0000E2F6E000E306E000E316E000EDD
:10201000326E2FC02FF030C030F031C031F032C0FE
:1020200032F0120000016C51376E386A371E381ECC
:10203000374A382A00016B51396E3A6A37503926CF
:1020400038503A227F0E39240001656F000E3A2085
:102050000001666F2FC061F030C062F031C063F0E4
:1020600032C064F0000E2F6E000E306E000E316E26
:10207000000E326E000E0001676F000E686F000EDA
:10208000696F000E6A6F000E00016C6F37D000019F
:102090006C510001D8B414D00001D8906137623778
:1020A00063376437D8902F363036313632360001F8
:1020B0006ABF2F800001D8906737683769376A3761
:1020C00033500001615D3450000162593550000108
:1020D0006359365000016459D8A00ED000016A8DB2
:1020E00033500001615F34500001625B35500001E4
:1020F000635B36500001645B00016C2B190E00011C
:102100006C65C5D7000161510001621100016311C6
:1021100000016411D8B415D00001678112D0D890A5
:102120002F3630363136323600016ABF2F8000013B
:10213000D8906737683769376A3700016507D8A0D4
:10214000660731AEECD7000E00016C6F00016AAF7C
:102150001BD0FF0E00016715376EFF0E00016815DA
:10216000386EFF0E00016915396E7F0E00016A1589
:102170003A6E3750381039103A10D8A402D02FA038
:1021800003D0010E00016C6F00016C510001D8B446
:1021900020D0010E2F26000E30223122322232A012
:1021A00018D02FC037F030C038F031C039F032C00D
:1021B0003AF03A343A3239323832373237C02FF0C7
:1021C00038C030F039C031F03AC032F00001654B10
:1021D000662B000166BF13D00001665104E10001C7
:1021E0006529D8A00CD0000E0001666F6569000E4D
:1021F0002F6E000E306E000E316E000E326E00013A
:1022000066BF07D00001665114E100016505D8B032
:1022100010D0000E0001666F000E656F000E2F6E6D
:10222000000E306E000E316E000E326E000E000198
:10223000606F65C06BF000016BA102D0318E01D0E0
:10224000319E0001D8906B31326E00016051321224
:102250002FC02FF030C030F031C031F032C032F03A
:102260001200040E0001FA25F66E000EFB21F76E37
:10227000000EFC21F86E0800F5500009D8A422D009
:102280000C0E0001FA25F66E000EFB21F76E000E13
:10229000FC21F86E0900F5CF08F00900F5CF09F030
:1022A0000900F5CF0AF00A00F5CF0BF0000E5DEC47
:1022B00020F008C095F009C096F00AC097F00BC056
:1022C00098F0A1D0080E0001FA25F66E000EFB2151
:1022D000F76E000EFC21F86E0900F5CF08F009003A
:1022E000F5CF09F00900F5CF0AF00A00F5CF0BF0A1
:1022F000010E5DEC20F008C095F009C096F00AC010
:1023000097F00BC098F00C0E0001FA25F66E000E47
:10231000FB21F76E000EFC21F86E0900F5CF08F0E6
:102320000900F5CF09F00900F5CF0AF00A00F5CF52
:102330000BF0000E5DEC20F008C071F009C072F0E7
:102340000AC073F00BC074F00C0E0001FA25F66E93
:10235000000EFB21F76E000EFC21F86E0900F5CF90
:1023600008F00900F5CF09F00900F5CF0AF00A00DE
:10237000F5CF0BF0000E5DEC20F008C06DF009C049
:102380006EF00AC06FF00BC070F04FEC08F06DC03B
:102390008DF06EC08EF06FC08FF070C090F095C061
:1023A00071F096C072F097C073F098C074F08DC051
:1023B0006DF08EC06EF08FC06FF090C070F04FEC7B
:1023C00008F06DC091F06EC092F06FC093F070C0D5
:1023D00094F091C06DF092C06EF093C06FF094C015
:1023E00070F095C071F096C072F097C073F098C00D
:1023F00074F04FEC08F06DC095F06EC096F06FC0B1
:1024000097F070C098F095C01AF096C01BF097C076
:102410001CF098C01DF0050E0001FA25F66E000EA6
:10242000FB21F76E000EFC21F86E0800F550086ED7
:10243000096A0A6A0B6A000E5DEC20F008C016F00B
:1024400009C017F00AC018F00BC019F045EC0CF0E9
:1024500016C02FF017C030F018C031F019C032F09C
:10246000000E336E000E346EC80E356E420E366EA0
:1024700093EC0FF02FC095F030C096F031C097F07C
:1024800032C098F0CEC008F0CFC009F0D0C00AF03A
:10249000D1C00BF0010E5DEC20F008C089F009C03E
:1024A0008AF00AC08BF00BC08CF089C02FF08AC074
:1024B00030F08BC031F08CC032F095C033F096C054
:1024C00034F097C035F098C036F093EC0FF02FC081
:1024D00095F030C096F031C097F032C098F095C0BA
:1024E00016F096C017F097C018F098C019F0000EBB
:1024F0001A6E000E1B6EC80E1C6E420E1D6E45EC51
:102500000CF016C095F017C096F018C097F019C0DF
:1025100098F0000E00017D6F000E7E6FC80E7F6F79
:10252000420E806F95C081F096C082F097C083F014
:1025300098C084F052EC1BF00001D8B009D0000E16
:102540000001956F000E966FC80E976F420E986F40
:1025500095C07DF096C07EF097C07FF098C080F067
:1025600065EC25F000017D510001F76F0001F75186
:102570001200DAC008F0DBC009F0000E09BEFF0E41
:102580000A6E0B6E010E5DEC20F008C092F009C0DF
:1025900093F00AC094F00BC095F0640E0001856FB3
:1025A000000E0001866F000185510001FA2500012F
:1025B000876F000186510001FB210001886F000E2A
:1025C0000001FC210001896F00018751086E0001A4
:1025D0008851096E000189510A6E0B6A000E5DEC8C
:1025E00020F008C08EF009C08FF00AC090F00BC038
:1025F00091F08EC03BF08FC03CF090C03DF091C098
:102600003EF01AEC37F03BC06DF03CC06EF03DC0C0
:102610006FF03EC070F092C071F093C072F094C041
:1026200073F095C074F04FEC08F06DC092F06EC07E
:1026300093F06FC094F070C095F06C0E0001856F40
:10264000000E0001866F000185510001FA2500018E
:10265000876F000186510001FB210001886F000E89
:102660000001FC210001896F00018751086E000103
:102670008851096E000189510A6E0B6A000E5DECEB
:1026800020F008C08EF009C08FF00AC090F00BC097
:1026900091F08EC02FF08FC030F090C031F091C01B
:1026A00032F0000E336E000E346E7A0E356E440E2C
:1026B000366E93EC0FF02FC08EF030C08FF031C02B
:1026C00090F032C091F092C016F093C017F094C011
:1026D00018F095C019F08EC01AF08FC01BF090C092
:1026E0001CF091C01DF045EC0CF016C092F017C024
:1026F00093F018C094F019C095F092C02FF093C0D9
:1027000030F094C031F095C032F0000E336E000E00
:10271000346E7A0E356E440E366E93EC0FF02FC089
:1027200092F030C093F031C094F032C095F0D20EE8
:1027300000018E6F9B0E8F6F1B0E906F390E916F85
:1027400092C01AF093C01BF094C01CF095C01DF00D
:102750008EC016F08FC017F090C018F091C019F01D
:1027600045EC0CF016C08AF017C08BF018C08CF046
:1027700019C08DF08AC016F08BC017F08CC018F00D
:102780008DC019F092C01AF093C01BF094C01CF0D9
:1027900095C01DF045EC0CF016C08EF017C08FF000
:1027A00018C090F019C091F092C06DF093C06EF017
:1027B00094C06FF095C070F08EC071F08FC072F051
:1027C00090C073F091C074F04FEC08F06DC092F0BF
:1027D0006EC093F06FC094F070C095F092C016F088
:1027E00093C017F094C018F095C019F0000E1A6E3F
:1027F000000E1B6E7A0E1C6E440E1D6E45EC0CF026
:1028000016C092F017C093F018C094F019C095F05C
:1028100092C07DF093C07EF094C07FF095C080F0B0
:1028200065EC25F07DC03FF17EC040F17FC041F1F5
:1028300080C042F11200ABC008F0ACC009F0ADC0DE
:102840000AF0AEC00BF0010E5DEC20F008C0BBF04A
:1028500009C0BCF00AC0BDF00BC0BEF00C0E0001F8
:10286000FA25F66E000EFB21F76E000EFC21F86EC5
:102870000900F5CF08F00900F5CF09F00900F5CF00
:102880000AF00A00F5CF0BF0000E5DEC20F008C056
:10289000B3F009C0B4F00AC0B5F00BC0B6F0BBC0CD
:1028A0002FF0BCC030F0BDC031F0BEC032F0B3C0BC
:1028B00033F0B4C034F0B5C035F0B6C036F093ECA8
:1028C0000FF02FC0BBF030C0BCF031C0BDF032C043
:1028D000BEF0000E00017D6F000E7E6F800E7F6FD8
:1028E0003F0E806FBBC081F0BCC082F0BDC083F0E2
:1028F000BEC084F052EC1BF00001D8B009D0000E2D
:102900000001BB6F000EBC6F800EBD6F3F0EBE6F2F
:10291000BBC0B3F0BCC0B4F0BDC0B5F0BEC0B6F033
:10292000810E0001896FF10E00018A6FBBC08BF030
:10293000BCC08CF0BDC08DF0BEC08EF0000E00019A
:10294000906F650E8F6F3DEC06F089C0BBF08AC0BA
:10295000BCF08BC0BDF08CC0BEF0100E0001FA259B
:10296000F66E000EFB21F76E000EFC21F86E0900DA
:10297000F5CF08F00900F5CF09F00900F5CF0AF00E
:102980000A00F5CF0BF0010E5DEC20F008C0B7F0A7
:1029900009C0B8F00AC0B9F00BC0BAF0B7C016F061
:1029A000B8C017F0B9C018F0BAC019F0BBC01AF01F
:1029B000BCC01BF0BDC01CF0BEC01DF045EC0CF04F
:1029C00016C0B7F017C0B8F018C0B9F019C0BAF007
:1029D000B3C0BBF0B4C0BCF0B5C0BDF0B6C0BEF073
:1029E000ED0E0001896FEF0E00018A6FBBC08BF006
:1029F000BCC08CF0BDC08DF0BEC08EF0000E0001DA
:102A0000906F650E8F6F3DEC06F089C0BBF08AC0F9
:102A1000BCF08BC0BDF08CC0BEF0140E0001FA25D6
:102A2000F66E000EFB21F76E000EFC21F86E090019
:102A3000F5CF08F00900F5CF09F00900F5CF0AF04D
:102A40000A00F5CF0BF0010E5DEC20F008C0AFF0EE
:102A500009C0B0F00AC0B1F00BC0B2F0AFC016F0C0
:102A6000B0C017F0B1C018F0B2C019F0BBC01AF076
:102A7000BCC01BF0BDC01CF0BEC01DF045EC0CF08E
:102A800016C0AFF017C0B0F018C0B1F019C0B2F066
:102A9000B7C06DF0B8C06EF0B9C06FF0BAC070F0DA
:102AA000AFC071F0B0C072F0B1C073F0B2C074F0DA
:102AB0004FEC08F06DC0B7F06EC0B8F06FC0B9F061
:102AC00070C0BAF0B7C07DF0B8C07EF0B9C07FF07A
:102AD000BAC080F065EC25F07DC0ABF07EC0ACF0F4
:102AE0007FC0ADF080C0AEF01200DEC008F0DFC0E5
:102AF00009F0000E09BEFF0E0A6E0B6E010E5DECB2
:102B000020F008C08DF009C08EF00AC08FF00BC015
:102B100090F05C0E0001FA25F66E000EFB21F76EB8
:102B2000000EFC21F86E0900F5CF08F00900F5CF82
:102B300009F00900F5CF0AF00A00F5CF0BF0000EFE
:102B40005DEC20F008C089F009C08AF00AC08BF063
:102B50000BC08CF089C03BF08AC03CF08BC03DF0CC
:102B60008CC03EF01AEC37F03BC06DF03CC06EF00C
:102B70003DC06FF03EC070F08DC071F08EC072F03D
:102B80008FC073F090C074F04FEC08F06DC08DF002
:102B90006EC08EF06FC08FF070C090F0600E0001BC
:102BA000FA25F66E000EFB21F76E000EFC21F86E82
:102BB0000900F5CF08F00900F5CF09F00900F5CFBD
:102BC0000AF00A00F5CF0BF0000E5DEC20F008C013
:102BD00089F009C08AF00AC08BF00BC08CF089C064
:102BE0002FF08AC030F08BC031F08CC032F0000E74
:102BF000336E000E346E7A0E356E440E366E93ECE4
:102C00000FF02FC089F030C08AF031C08BF032C095
:102C10008CF08DC016F08EC017F08FC018F090C0E9
:102C200019F089C01AF08AC01BF08BC01CF08CC050
:102C30001DF045EC0CF016C08DF017C08EF018C0DA
:102C40008FF019C090F08DC02FF08EC030F08FC083
:102C500031F090C032F0000E336E000E346E7A0EFA
:102C6000356E440E366E93EC0FF02FC08DF030C0F1
:102C70008EF031C08FF032C090F0D20E0001896F1B
:102C80009B0E8A6F1B0E8B6F390E8C6F8DC01AF0E6
:102C90008EC01BF08FC01CF090C01DF089C016F0D4
:102CA0008AC017F08BC018F08CC019F045EC0CF0FE
:102CB00016C085F017C086F018C087F019C088F0DC
:102CC00085C016F086C017F087C018F088C019F0CC
:102CD0008DC01AF08EC01BF08FC01CF090C01DF08C
:102CE00045EC0CF016C089F017C08AF018C08BF0C4
:102CF00019C08CF08DC06DF08EC06EF08FC06FF07B
:102D000090C070F089C071F08AC072F08BC073F00F
:102D10008CC074F04FEC08F06DC08DF06EC08EF07A
:102D20006FC08FF070C090F08DC016F08EC017F09D
:102D30008FC018F090C019F0000E1A6E000E1B6EB6
:102D40007A0E1C6E440E1D6E45EC0CF016C08DF014
:102D500017C08EF018C08FF019C090F08DC07DF0B4
:102D60008EC07EF08FC07FF090C080F065EC25F0C3
:102D70007DC043F17EC044F17FC045F180C046F183
:102D800012000001906F010E0001906501D0120049
:102D900000019051020D4F0EF324D96E010EF42064
:102DA000DA6EDECF08F0DDCF09F0000E09BEFF0EAF
:102DB0000A6E0B6E010E5DEC20F008C088F009C0B1
:102DC00089F00AC08AF00BC08BF000019051040D0D
:102DD000640EF326000EF422F3500001FA250001E0
:102DE000856FF4500001FB210001866F000E000189
:102DF000FC210001876F85C0F6FF86C0F7FF87C002
:102E0000F8FF0900F5CF08F00900F5CF09F0090037
:102E1000F5CF0AF00A00F5CF0BF0000E5DEC20F0C4
:102E200008C08CF009C08DF00AC08EF00BC08FF086
:102E30008CC03BF08DC03CF08EC03DF08FC03EF0AA
:102E40001AEC37F03BC06DF03CC06EF03DC06FF047
:102E50003EC070F088C071F089C072F08AC073F013
:102E60008BC074F04FEC08F06DC088F06EC089F034
:102E70006FC08AF070C08BF000019051040D6C0E91
:102E8000F326000EF422F3500001FA250001856FAD
:102E9000F4500001FB210001866F000E0001FC21AF
:102EA0000001876F85C0F6FF86C0F7FF87C0F8FF77
:102EB0000900F5CF08F00900F5CF09F00900F5CFBA
:102EC0000AF00A00F5CF0BF0000E5DEC20F008C010
:102ED0008CF009C08DF00AC08EF00BC08FF08CC052
:102EE0002FF08DC030F08EC031F08FC032F0000E68
:102EF000336E000E346E7A0E356E440E366E93ECE1
:102F00000FF02FC08CF030C08DF031C08EF032C089
:102F10008FF088C016F089C017F08AC018F08BC0F7
:102F200019F08CC01AF08DC01BF08EC01CF08FC041
:102F30001DF045EC0CF016C088F017C089F018C0E1
:102F40008AF019C08BF088C07DF089C07EF08AC0FD
:102F50007FF08BC080F065EC25F000019051040DEE
:102F6000200EF324D96E010EF420DA6E00017DC02C
:102F7000DEFF00017EC0DEFF00017FC0DEFF00013A
:102F800080C0DEFF1200000120EE0CF08551D92632
:102F90008651DA22DECF08F0DECF09F0DECF0AF06C
:102FA000DECF0BF0000E5DEC20F008C09DF009C0F4
:102FB0009EF00AC09FF00BC0A0F0000120EE08F0C8
:102FC0008551D9268651DA22DECF08F0DECF09F00E
:102FD000DECF0AF0DECF0BF0010E5DEC20F008C072
:102FE00095F009C096F00AC097F00BC098F0000E5B
:102FF000336E000E346E7A0E356E440E366E9DC002
:103000002FF09EC030F09FC031F0A0C032F093ECA2
:103010000FF02FC089F030C08AF031C08BF032C081
:103020008CF089C02FF08AC030F08BC031F08CC09A
:1030300032F0000E336E000E346E000E356E400E10
:10304000366E93EC0FF02FC09DF030C09EF031C073
:103050009FF032C0A0F095C02FF096C030F097C01E
:1030600031F098C032F0000E336E000E346E7A0EDE
:10307000356E440E366E93EC0FF02FC095F030C0D5
:1030800096F031C097F032C098F09DC01AF09EC003
:103090001BF09FC01CF0A0C01DF09DC016F09EC08C
:1030A00017F09FC018F0A0C019F045EC0CF016C046
:1030B0008DF017C08EF018C08FF019C090F095C039
:1030C0001AF096C01BF097C01CF098C01DF08DC080
:1030D00016F08EC017F08FC018F090C019F045ECB4
:1030E0000CF016C091F017C092F018C093F019C000
:1030F00094F091C016F092C017F093C018F094C0ED
:1031000019F0F90E1A6E0F0E1B6E490E1C6E400E52
:103110001D6E45EC0CF016C099F017C09AF018C05F
:103120009BF019C09CF099C016F09AC017F09BC094
:1031300018F09CC019F0000E1A6E000E1B6E7A0E6D
:103140001C6E440E1D6E45EC0CF016C099F017C0B5
:103150009AF018C09BF019C09CF099C07DF09AC0FD
:103160007EF09BC07FF09CC080F065EC25F07DC0B8
:1031700085F07EC086F07FC087F080C088F01200A6
:10318000000E186E000E196E000E1A6E000E1B6EE9
:103190000001E82B3B0E0001E8651200000E000163
:1031A000E86F4AEC38F0000E186E000E196E000E33
:1031B0001A6E000E1B6E000E1C6E030E1C6401D0F6
:1031C00011D0020E00EC32F00CC016F00DC017F05A
:1031D0001650182617501922000E1A22000E1B2214
:1031E0001C2AEBD718C012F019C013F01AC014F043
:1031F0001BC015F0030E05D0D890153214321332CF
:103200001232E82EF9D712C04FF113C050F1000E60
:10321000186E000E196E000E1A6E000E1B6E000E58
:103220001C6E030E1C6401D011D0010E00EC32F0B4
:103230000CC016F00DC017F01650182617501922A2
:10324000000E1A22000E1B221C2AEBD718C012F007
:1032500019C013F01AC014F01BC015F0030E05D0EE
:10326000D8901532143213321232E82EF9D712C028
:1032700051F113C052F1000E186E000E196E000EBF
:103280001A6E000E1B6E000E1C6E030E1C6401D025
:1032900011D0000E00EC32F00CC016F00DC017F08B
:1032A0001650182617501922000E1A22000E1B2243
:1032B0001C2AEBD718C012F019C013F01AC014F072
:1032C0001BC015F0030E05D0D890153214321332FE
:1032D0001232E82EF9D712C05BF113C05CF1000E78
:1032E000186E000E196E000E1A6E000E1B6E000E88
:1032F0001C6E030E1C6401D011D0030E00EC32F0E2
:103300000CC016F00DC017F01650182617501922D1
:10331000000E1A22000E1B221C2AEBD718C012F036
:1033200019C013F01AC014F01BC015F0030E05D01D
:10333000D8901532143213321232E82EF9D712C057
:1033400059F113C05AF1010E0001EB6F1200000E8B
:10335000326E000E336E000E346E000E356E030EAC
:103360002460D0D0000E236E000E226E120022C008
:10337000D9FF23C0DAFFDECF2EF0DDCF2FF02EC035
:1033800030F02FC031F0000E326E000E336E000EA2
:10339000346E000E356E000E366E5ED03650020D65
:1033A000F3502224D96EF4502320DA6E3050DE5CC4
:1033B000DE50800A286E3150800A2858D8B00ED0CE
:1033C0003650020DF3502224D96EF4502320DA6EC9
:1033D000DECF30F0DDCF31F036C02DF03650020DAB
:1033E000F3502224D96EF4502320DA6EDE502E5C86
:1033F0002F50800A286EDE50800A2858D8B00ED090
:103400003650020DF3502224D96EF4502320DA6E88
:10341000DECF2EF0DDCF2FF036C02CF03650020D6F
:10342000F3502224D96EF4502320DA6EDECF26F03A
:10343000DDCF27F026C028F027C029F0000E29BED6
:10344000FF0E2A6E2B6E28503226295033222A5026
:1034500034222B503522362A2450365CD8A09ED7F1
:1034600030502E24266E31502F20276E286A27BE1A
:1034700028062850296E2650325E2750335A28508D
:10348000345A2950355A32C014F033C015F034C0C4
:1034900016F035C017F0FE0E266EFF0E276E245074
:1034A000286E296A265028262750292228C018F07D
:1034B00029C019F0000E19BEFF0E1A6E1B6E2AEC01
:1034C00028F014C032F015C033F016C034F017C025
:1034D00035F02D50020DF3502224D96EF4502320E4
:1034E000DA6E32C0DEFF33C0DDFF2C50020DF35028
:1034F0002224D96EF4502320DA6E32C0DEFF33C0AE
:10350000DDFF25062550D8A432D732C022F033C0C3
:1035100023F01200000E116E000E106E20EE06F069
:103520000C50D9260D50DA2201D80AD00500FA6EC7
:10353000DE50FD6EDE50FE6EF850FF6EFA50120047
:1035400020EE0AF00C50D9260D50DA2201D811D005
:103550000500FA6EDE50FD6EDE50FE6EF850FF6E16
:10356000FA5020EE01F00C50D9260D50DA22DF502F
:10357000120020EE0AF00C50D9260D50DA2201D8A4
:103580000BD00500FA6EDE50FD6EDE50FE6EF85078
:10359000FF6EFA500E50120020EE08F00C50D926A3
:1035A0000D50DA2201D80AD00500FA6EDE50FD6E09
:1035B000DE50FE6EF850FF6EFA50120020EE06F05C
:1035C0000C50D9260D50DA2201D80AD00500FA6E27
:1035D000DE50FD6EDE50FE6EF850FF6EFA501200A7
:1035E00020EE0AF00C50D9260D50DA2201D813D063
:1035F0000500FA6EDE50FD6EDE50FE6EF850FF6E76
:10360000FA5020EE01F00C50D9260D50DA22DF508E
:103610000F6E0F28120020EE0EF00C50D9260D5020
:10362000DA2201D80BD00500FA6EDE50FD6EDE50B6
:10363000FE6EF850FF6EFA50000E12000F6E0F5023
:10364000106E116A1050116E106A20EE0EF00C50C0
:10365000D9260D50DA2201D80BD00500FA6EDE50C3
:10366000FD6EDE50FE6EF850FF6EFA50000E120036
:103670000F6E0F50101220EE08F00C50D9260D508E
:10368000DA2201D80AD00500FA6EDE50FD6EDE5057
:10369000FE6EF850FF6EFA50120010C00CF011C010
:1036A0000DF01200000E00017D150001856F000E67
:1036B00000017E150001866F800E00017F1500015C
:1036C000876F7F0E000180150001886F0001855112
:1036D000000186110001871100018811D8A409D0CA
:1036E000000E00017D6F000E7E6F000E7F6F000EDA
:1036F000806F000E000181150001856F000E000132
:1037000082150001866F800E000183150001876F0E
:103710007F0E000184150001886F000185510001B2
:1037200086110001871100018811D8A409D0000E6C
:103730000001816F000E826F000E836F000E846F98
:10374000000180AF26D07DC085F07EC086F07FC0AE
:1037500087F080C088F00001851F861F871F881FA3
:10376000852B000E862387238823000E00018525E4
:1037700000017D6F000E0001862100017E6F000EAA
:103780000001872100017F6F800E00018821000168
:10379000806F000184AF26D081C085F082C086F0A2
:1037A00083C087F084C088F00001851F861F871FB3
:1037B000881F852B000E862387238823000E000197
:1037C00085250001816F000E000186210001826FB6
:1037D000000E000187210001836F800E0001882107
:1037E0000001846F000E00017D1B000E7E1B000E89
:1037F0007F1B800E801B000E0001811B000E821BB0
:10380000000E831B800E841B0001815100017D5D31
:103810000001825100017E590001835100017F594E
:103820000001845100018059D8B002D0D890120014
:10383000D880120020EE01F00C50D9260D50DA226B
:1038400001D80AD00500FA6EDE50FD6EDE50FE6E25
:10385000F850FF6EFA50120020EE05F00C50D926F9
:103860000D50DA2201D80FD00500FA6EDE50FD6E41
:10387000DE50FE6EF850FF6EFA500CC0D9FF0DC03E
:10388000DAFFDF50120020EE05F00C50D9260D5063
:10389000DA2201D80BD00500FA6EDE50FD6EDE5044
:1038A000FE6EF850FF6EFA500E50120020EE01F03E
:1038B0000C50D9260D50DA2201D80AD00500FA6E34
:1038C000DE50FD6EDE50FE6EF850FF6EFA501200B4
:1038D00020EE05F00C50D9260D50DA2201D811D077
:1038E0000500FA6EDE50FD6EDE50FE6EF850FF6E83
:1038F000FA500CC0D9FF0DC0DAFFDF50136E132849
:103900001200000E186E000E176E1CD020EE09F08B
:103910000C50D9260D50DA2201D80BD00500FA6ED2
:10392000DE50FD6EDE50FE6EF850FF6EFA50000E57
:1039300012000FC0D9FF10C0DAFFDF6E0F4A102A45
:10394000174A182AFF0E136EFF0E146E11C015F0E1
:1039500012C016F013501526145016221550175C7D
:1039600016501858D8A0D2D720EE09F00C50D926FE
:103970000D50DA2201D80BD00500FA6EDE50FD6E34
:10398000DE50FE6EF850FF6EFA50010E12000FC0AE
:10399000D9FF10C0DAFFDF6E20EE03F00C50D926FD
:1039A0000D50DA2201D812000500FA6EDE50FD6ECD
:1039B000DE50FE6EF850FF6EFA501200000E346EAC
:1039C0000001E92B3B0E0001E965B8D0000E0001B3
:1039D000E96F93988A88949A8B8A000E0D6E140E64
:1039E0000C6E5CEC38F052C008F053C009F0040EC5
:1039F0000A6E6BEC38F052C010F053C011F024EC9A
:103A000038F0000E0D6E140E0C6E5CEC38F052C0E7
:103A100012F053C013F0EBEC34F012C035F013C0C9
:103A200036F0D70E226E010E236E35C024F036C05C
:103A300025F0040E266E61EC23F022C0DAF023C0DC
:103A4000DBF052C008F053C009F0040E0A6E6BECB4
:103A500038F052C010F053C011F024EC38F0000ED2
:103A60000D6E140E0C6E5CEC38F052C012F053C0A8
:103A700013F0EBEC34F012C035F013C036F0CF0E7B
:103A8000226E010E236E35C024F036C025F0040EE0
:103A9000266E61EC23F022C035F023C036F035C02D
:103AA00032F036C033F0D89032363336321E331E01
:103AB000324A332A0001DA5132240001DA6F000160
:103AC000DB5133200001DB6F010E0001ED6F52C0AE
:103AD00008F053C009F0030E0A6E6BEC38F052C0C8
:103AE00010F053C011F024EC38F0000E0D6E140EDF
:103AF0000C6E5CEC38F052C012F053C013F0EBECDB
:103B000034F012C035F013C036F0C70E226E010E2D
:103B1000236E35C024F036C025F0040E266E61EC0D
:103B200023F022C0DCF023C0DDF0010E0001EC6FB9
:103B3000949A8B9A93988A98010E1200000E1200A4
:103B4000030E0201006F000E186E020E186401D001
:103B500012001850340D040EF324D96E020EF42016
:103B6000DA6E060EDF6E000E176E050E176401D0BA
:103B70009DD017C00BF00C6A170E0E6E700E0D6EF6
:103B800037EC38F00BC011F00CC012F018C00BF07D
:103B90000C6A010E0E6EF40E0D6E37EC38F00B5001
:103BA00011260C5012221750080D040EF326000E99
:103BB000F422000E136E020E146E040E1326000E75
:103BC0001422F3501326F45014221850340DF350DD
:103BD0001326F4501422040E1324D96E000E142060
:103BE000DA6E11C0DEFF12C0DDFF17C00BF00C6AE9
:103BF000170E0E6E700E0D6E37EC38F00BC011F014
:103C00000CC012F0000E12BEFF0E136E146E175091
:103C1000080D040EF326000EF422000E156E020E9F
:103C2000166E040E1526000E1622F3501526F450BB
:103C300016221850340DF3501524D96EF450162066
:103C4000DA6E11C0DEFF12C0DEFF13C0DEFF14C04B
:103C5000DEFF18C00BF00C6A030E0E6EE80E0D6E40
:103C600037EC38F01750080D040EF326000EF4223E
:103C7000000E116E020E126E040E1126000E12229C
:103C8000F3501126F45012221850340DF35011261F
:103C9000F4501222060E1124D96E000E1220DA6E94
:103CA0000BC0DEFF0CC0DDFF172A5FD7182A4DD7E7
:103CB000000120EE0CF08551D9268651DA22DECFA4
:103CC00008F0DECF09F0DECF0AF0DECF0BF0000EF9
:103CD0005DEC20F008C095F009C096F00AC097F09E
:103CE0000BC098F095C02FF096C030F097C031F01F
:103CF00098C032F0000E336E000E346E7A0E356EC0
:103D0000440E366E93EC0FF02FC095F030C096F055
:103D100031C097F032C098F095C01AF096C01BF0F1
:103D200097C01CF098C01DF095C016F096C017F013
:103D300097C018F098C019F045EC0CF016C089F047
:103D400017C08AF018C08BF019C08CF095C01AF01B
:103D500096C01BF097C01CF098C01DF089C016F0EB
:103D60008AC017F08BC018F08CC019F045EC0CF02D
:103D700016C08DF017C08EF018C08FF019C090F0EB
:103D80008DC016F08EC017F08FC018F090C019F0DB
:103D9000A60E1A6E0A0E1B6E860E1C6E3E0E1D6E51
:103DA00045EC0CF016C091F017C092F018C093F0DB
:103DB00019C094F091C016F092C017F093C018F09B
:103DC00094C019F0000E1A6E000E1B6E7A0E1C6E57
:103DD000440E1D6E45EC0CF016C091F017C092F029
:103DE00018C093F019C094F091C07DF092C07EF09D
:103DF00093C07FF094C080F065EC25F07DC085F025
:103E00007EC086F07FC087F080C088F01200010E6F
:103E10000301006F000E176E1750D8A41200175040
:103E2000340D040EF324D96E030EF420DA6E060E60
:103E3000DF6E000E186E050E186401D094D018C005
:103E40000BF00C6A170E0E6E700E0D6E37EC38F01C
:103E50000BC011F00CC012F017C00BF00C6A010E71
:103E60000E6EF40E0D6E37EC38F00B5011260C5020
:103E700012221850080D040EF326000EF422000E34
:103E8000136E030E146E040E1326000E1422F3504C
:103E90001326F45014221750340DF3501326F45007
:103EA0001422040E1324D96E000E1420DA6E11C0F1
:103EB000DEFF12C0DDFF18C00BF00C6A170E0E6E8D
:103EC000700E0D6E37EC38F00BC011F00CC012F014
:103ED000000E12BEFF0E136E146E1850080D040E65
:103EE000F326000EF422000E156E030E166E040E5D
:103EF0001526000E1622F3501526F45016221750E0
:103F0000340DF3501524D96EF4501620DA6E11C01A
:103F1000DEFF12C0DEFF13C0DEFF14C0DEFF18504C
:103F2000080D040EF326000EF422000E116E030E8F
:103F3000126E040E1126000E1222F3501126F450B8
:103F400012221750340DF3501126F4501222060E8F
:103F50001124D96E000E1220DA6E000EDE6E000EF5
:103F6000DD6E182A68D7172A57D7000E0001A46FF4
:103F7000050E0001A56FA4C0A2F0A5C0A3F0000E1D
:103F8000086EF40E096E000E0A6E000E0B6EA4C0D1
:103F90000CF0A5C00DF0000E0F6E960E0E6E4BECE1
:103FA00030F0A4C014F0A5C015F0000E176E960EE8
:103FB000166E42EC31F00001A16F0001A151000129
:103FC000D8A41200A4C008F0A5C009F0150E0A6E0E
:103FD000F30E0B6E000E0D6E960E0C6EA8EC34F008
:103FE000A2C085F0A3C086F0C3EC17F0000120EE5C
:103FF00010F0A251D926A351DA22000185C0DEFFBC
:10400000000186C0DEFF000187C0DEFF000188C01E
:10401000DEFFA2C085F0A3C086F058EC1EF00001C0
:1040200020EE14F0A251D926A351DA22000185C056
:10403000DEFF000186C0DEFF000187C0DEFF000159
:1040400088C0DEFFA4C014F0A5C015F0000E176EE6
:10405000940E166E1AEC34F0000E166EF40E176EF7
:10406000000E186E000E196EA4C01AF0A5C01BF049
:10407000000E1D6E960E1C6E41EC27F0000E086EB1
:10408000F40E096E000E0A6E000E0B6EA4C00CF04A
:10409000A5C00DF0000E0F6E960E0E6E4BEC30F0BC
:1040A000A4C014F0A5C015F0000E176E960E166E83
:1040B00042EC31F00001A16F1200106E1050D8A434
:1040C0000BAE1AD008C00CF009C00DF00AC00EF0FB
:1040D0000BC00FF00C1E0D1E0E1E0F1E0C2A000E24
:1040E0000D220E220F220CC012F00DC013F00EC0D4
:1040F00014F00FC015F008D008C012F009C013F07A
:104100000AC014F00BC015F0085009100A100B106B
:10411000D8A409D0000E086E000E096E000E0A6EBB
:10412000000E0B6E1200960E116E06D0112AD8905A
:104130001532143213321232000E12140C6E000EAD
:1041400013140D6E000E14140E6EFE0E15140F6E69
:104150000C500D100E100F10D8B40DD0E7D7112A47
:10416000010E1226000E132214221522D8901532A9
:10417000143213321232000E12140C6E000E13148D
:104180000D6E000E14140E6EFF0E15140F6E0C50F3
:104190000D100E100F10D8B407D0E1D71106D8902B
:1041A000123613361436153614BE03D0020E1160C3
:1041B000F5D711B008D0FF0E1216FF0E13167F0EA2
:1041C0001416FF0E1516D890113211C00CF00D6A9E
:1041D0000E6A0F6A0CC00FF00E6A0D6A0C6A0C5062
:1041E00012120D5013120E5014120F5015121050BF
:1041F000D8A40BAE01D0158E12C008F013C009F080
:1042000014C00AF015C00BF01200000E396E000148
:10421000EA2B3B0E0001EA6598D0000E0001EA6F20
:1042200093988A88949A8B8A000E0D6E140E0C6EE9
:104230005CEC38F054C008F055C009F0000E0A6E6E
:104240006BEC38F054C010F055C011F024EC38F08D
:10425000000E0D6E140E0C6E5CEC38F054C012F0B3
:1042600055C013F0EBEC34F012C03AF013C03BF041
:10427000A10E226E010E236E3AC024F03BC025F041
:10428000080E266E61EC23F054C008F055C009F00A
:10429000030E0A6E6BEC38F054C010F055C011F0EC
:1042A00024EC38F0000E0D6E140E0C6E5CEC38F041
:1042B00054C012F055C013F0EBEC34F012C03AF0D9
:1042C00013C03BF0910E226E010E236E3AC024F013
:1042D0003BC025F0080E266E61EC23F054C008F0B8
:1042E00055C009F0050E0A6E6BEC38F054C010F0A2
:1042F00055C011F024EC38F0000E0D6E140E0C6E4B
:104300005CEC38F054C012F055C013F0EBEC34F014
:1043100012C03AF013C03BF03AC061F13BC062F109
:10432000949A8B9A0001F151565CD8A00CD0050EDE
:10433000566409D0DF0E376E010E386E11EC31F085
:10434000010E0001EF6F010E1200000E120013BEED
:104350000AD0100E125C270E1358D8A004D0270ED6
:10436000136E0F0E126E12C008F013C009F0000E8B
:104370000B6E0A0E0A6EDCEC2FF0DC0E0824F66ED3
:10438000EF0E0920F76E20EE03F01050D9261150E1
:10439000DA220800F5CFDFFF12C008F013C009F0E1
:1043A000000E0B6E0A0E0A6E61EC2CF008C012F0C3
:1043B00009C013F012C008F013C009F0000E0B6E14
:1043C0000A0E0A6EDCEC2FF0DC0E0824F66EEF0EFF
:1043D0000920F76E20EE02F01050D9261150DA2293
:1043E0000800F5CFDFFF12C008F013C009F0000E7F
:1043F0000B6E0A0E0A6E61EC2CF008C012F009C0B8
:1044000013F012C008F013C009F0000E0B6E0A0E74
:104410000A6EDCEC2FF0DC0E0824F66EEF0E09209D
:10442000F76E20EE01F01050D9261150DA22080064
:10443000F5CFDFFF12C008F013C009F0000E0B6EBD
:104440000A0E0A6E61EC2CF008C012F009C013F0DD
:1044500012C008F013C009F0000E0B6E0A0E0A6EAF
:10446000DCEC2FF0DC0E0824F66EEF0E0920F76E60
:1044700010C0D9FF11C0DAFF0800F5CFDFFF12002E
:10448000000E396E640E0001D627000ED7230001FE
:10449000D75105E1330E0001D65DD8A01200000E01
:1044A0000001D76F000ED66F54C012F055C013F044
:1044B000EBEC34F012C03AF013C03BF00001F051C5
:1044C0000001D8A41AD0060E56600DD05650020D29
:1044D000A10EF324D96E010EF420DA6E3AC0DEFF8D
:1044E0003BC0DDFF562A54C008F055C009F0030E4A
:1044F0000A6E6BEC38F0010E32D00001F005D8A442
:104500001DD0060E0001F1610FD00001F151020D26
:10451000910EF324D96E010EF420DA6E3AC0DEFF5C
:104520003BC0DDFF0001F12B54C008F055C009F07D
:10453000050E0A6E6BEC38F0020E11D03AC061F134
:104540003BC062F13AC0DEF03BC0DFF054C008F07F
:1045500055C009F0000E0A6E6BEC38F0000E000139
:10456000F06F54C010F055C011F024EC38F0000189
:10457000F151565CD8A01200050E56641200DF0EF1
:10458000376E010E386E11EC31F0000E0001F16F44
:10459000F1C056F0010E0001EF6F010E0001EE6F49
:1045A0001200DF0E0101F66F010E0101F76F690EB7
:1045B000086E010E096E000E0A6E180E0B6E89EC65
:1045C00038F0000E0101F86F000E0101F86F20D0E5
:1045D0000101F851340D040EF3240101F46F020EB1
:1045E000F4200101F56FF4C122F0F5C123F0F6C10A
:1045F00024F0F7C125F00101F851080D690EF324EC
:10460000266E010EF420276E56EC0AF00101F82BFD
:10461000020100510101F85DD8A0DAD7690E226EBF
:10462000010E236EF6C124F0F7C125F0F8C126F083
:10463000EDEC0DF0F6C1D9FFF7C1DAFFDECFD2F015
:10464000DECFD3F0DECFD4F0DECFD5F0F6C185F0EB
:10465000F7C186F0DEEC25F0040E0001FA25F66EB7
:10466000000EFB21F76E000EFC21F86E0800F550DD
:104670000009D8A413D0CEC0ABF0CFC0ACF0D0C0EE
:10468000ADF0D1C0AEF01BEC14F0ABC047F1ACC044
:1046900048F1ADC049F1AEC04AF11200CEC0ABF056
:1046A000CFC0ACF0D0C0ADF0D1C0AEF042EC00F065
:1046B000ABC047F1ACC048F1ADC049F1AEC04AF162
:1046C0001200000E2D6E000E2E6E000E2F6E000ECC
:1046D000306E2604316E3150D8B43FD0FE0E276EB6
:1046E000FF0E286E3150296E2A6AD89029362A3654
:1046F0002750292628502A2229502224D96E2A50B0
:104700002320DA6E3150020DF3502224E96EF4506A
:104710002320EA6EDECFEEFFDDCFEDFF3150020D3C
:10472000F3502224D96EF4502320DA6EDECF27F026
:10473000DDCF28F027C029F028C02AF0000E2ABEBD
:10474000FF0E2B6E2C6E29502D262A502E222B5018
:104750002F222C5030223106BED73150020DF3509B
:104760002224D96EF4502320DA6E24C0DEFF25C047
:10477000DDFF24C027F025C028F0000E28BEFF0E64
:10478000296E2A6E27502D2628502E2229502F229E
:104790002A5030222DC014F02EC015F02FC016F074
:1047A00030C017F02650186E196A1A6A1B6A2AEC74
:1047B00028F014C02DF015C02EF016C02FF017C031
:1047C00030F02DC022F02EC023F01200000E1E6E1D
:1047D000000E216E030E226EB10E0001E06F010E7D
:1047E0000001E16FE0C008F0E1C009F0AA0E0A6E16
:1047F000A3EC2FF0000E206EA20E1F6EE0C00CF096
:10480000E1C00DF0000E0E6E21C00FF022C010F0BE
:104810001FC011F020C012F01AEC1CF021C014F0DF
:1048200022C015F01FC016F020C017F042EC31F086
:104830001E6E1E50D8A4120007EC1FF021C014F009
:1048400022C015F0FE0E1F24166EFF0E2020176EDC
:104850001AEC34F0E0C00BF0E1C00CF0000E0D6E6D
:1048600021C00EF022C00FF01FC010F020C011F0C8
:10487000CBEC26F0E0C00CF0E1C00DF0000E0E6EA7
:1048800021C00FF022C010F01FC011F020C012F0A4
:104890001AEC1CF021C014F022C015F01FC016F055
:1048A00020C017F042EC31F01E6E1E50D8A412004A
:1048B00007EC1FF021C014F022C015F0FE0E1F24DB
:1048C000166EFF0E2020176E1AEC34F01200000E48
:1048D0001E6E000E216E020E226EBC0E0001E26FF3
:1048E000010E0001E36FE2C008F0E3C009F0AC0E76
:1048F0000A6EA3EC2FF0000E206EA20E1F6EE2C017
:104900000CF0E3C00DF0000E0E6E21C00FF022C0BF
:1049100010F01FC011F020C012F01AEC1CF021C0E2
:1049200014F022C015F01FC016F020C017F042ECA2
:1049300031F01E6E1E50D8A41200A0EC1DF021C054
:1049400014F022C015F0FE0E1F24166EFF0E20205C
:10495000176E1AEC34F0E2C00BF0E3C00CF0000E5E
:104960000D6E21C00EF022C00FF01FC010F020C04D
:1049700011F0CBEC26F0E2C00CF0E3C00DF0000E1D
:104980000E6E21C00FF022C010F01FC011F020C029
:1049900012F01AEC1CF021C014F022C015F01FC058
:1049A00016F020C017F042EC31F01E6E1E50D8A455
:1049B0001200A0EC1DF021C014F022C015F0FE0E74
:1049C0001F24166EFF0E2020176E1AEC34F0120012
:1049D000010E216401D012001FC0D9FF20C0DAFFF0
:1049E000DECF2EF0DDCF2FF020EE03F01F50D926C2
:1049F0002050DA22DF50D8B425D02EC00BF02FC0C3
:104A00000CF0000E0E6E0A0E0D6E2EEC33F00BC085
:104A10002EF00CC02FF0E80E2E5C030E2F58D8A0FD
:104A200004D0030E2F6EE70E2E6E230E106E000EB6
:104A3000116E2EC012F02FC013F0A7EC21F02D0E36
:104A4000236E14D0100E2E5C270E2F58D8A004D041
:104A5000270E2F6E0F0E2E6E230E106E000E116E8F
:104A60002EC012F02FC013F0A7EC21F0000E286E1C
:104A70002150D8A407D0230E1C6E000E1D6E7EECB4
:104A800030F006D0230E1C6E000E1D6E3BEC36F08F
:104A900020EE03F01F50D9262050DA22DF50226E7C
:104AA00020EE02F01F50D9262050DA22DF502224B7
:104AB0002D6E030E2D601200010E196E2150040D93
:104AC000F3502D24D2EC31F0120000017F358035F7
:104AD000446E4450D8A40AD0000E00017D6F000E31
:104AE0007E6F000E7F6F000E806F12007DC081F020
:104AF0007EC082F07FC083F080C084F0200E06D09C
:104B00000001D8908433833382338133E82EF8D781
:104B100000018151436E00017F8FFF0E00017D1760
:104B2000FF0E7E17FF0E7F17000E8017960E445E55
:104B300044AE18D04450800A970FD8B00AD0000E67
:104B400000017D6F000E7E6F000E7F6F000E806F84
:104B500012000001D89080337F337E337D33443E92
:104B6000F8D717D01F0E446411D0000E00017D6FDE
:104B7000000E7E6F000E7F6F000E806F120000012E
:104B8000D8907D377E377F37803744064450D8A48D
:104B9000F6D74350D8B409D00001801F7F1F7E1F75
:104BA0007D6D000E7E237F2380237DC07DF07EC03F
:104BB0007EF07FC07FF080C080F0120085C0D9FFFA
:104BC00086C0DAFFDECF08F0DECF09F0DECF0AF0D4
:104BD000DECF0BF0010E5DEC20F008C08DF009C0B7
:104BE0008EF00AC08FF00BC090F0060E0001FA257F
:104BF000F66E000EFB21F76E000EFC21F86E090028
:104C0000F5CF87F00900F5CF88F087C008F088C09D
:104C100009F00A6A0B6A000E5DEC20F008C089F00A
:104C200009C08AF00AC08BF00BC08CF08DC02FF049
:104C30008EC030F08FC031F090C032F0CD0E1A6EC1
:104C4000CC0E1B6E1C0E1C6E410E1D6E89C016F024
:104C50008AC017F08BC018F08CC019F045EC0CF02E
:104C600016C033F017C034F018C035F019C036F054
:104C700093EC0FF02FC08DF030C08EF031C08FF06C
:104C800032C090F08DC07DF08EC07EF08FC07FF07E
:104C900090C080F065EC25F07DC0CEF07EC0CFF0F6
:104CA0007FC0D0F080C0D1F0120020EE06F00B5093
:104CB000D9260C50DA2201D80AD00500FA6EDE504F
:104CC000FD6EDE50FE6EF850FF6EFA50120020EEC0
:104CD0000AF00B50D9260C50DA2201D811D0050069
:104CE000FA6EDE50FD6EDE50FE6EF850FF6EFA502A
:104CF00020EE01F00B50D9260C50DA22DF501200C2
:104D000020EE0AF00B50D9260C50DA2201D80BD035
:104D10000500FA6EDE50FD6EDE50FE6EF850FF6E3E
:104D2000FA500D50120020EE0AF00B50D9260C500C
:104D3000DA2201D80BD00500FA6EDE50FD6EDE508F
:104D4000FE6EF850FF6EFA500F50120020EE0AF07F
:104D50000B50D9260C50DA2201D80BD00500FA6E80
:104D6000DE50FD6EDE50FE6EF850FF6EFA500E50B3
:104D7000120020EE08F00B50D9260C50DA2201D890
:104D800012000500FA6EDE50FD6EDE50FE6EF85029
:104D9000FF6EFA501200000E136E000E126E6AD0F3
:104DA00020EE01F00B50D9260C50DA2201D80AD09F
:104DB0000500FA6EDE50FD6EDE50FE6EF850FF6E9E
:104DC000FA50120020EE05F00B50D9260C50DA22D2
:104DD00001D80FD00500FA6EDE50FD6EDE50FE6E7B
:104DE000F850FF6EFA500BC0D9FF0CC0DAFFDF504D
:104DF000120020EE05F00B50D9260C50DA2201D813
:104E00000BD00500FA6EDE50FD6EDE50FE6EF850DF
:104E1000FF6EFA500D5012000D2A20EE05F00B50D7
:104E2000D9260C50DA2201D80FD00500FA6EDE50D8
:104E3000FD6EDE50FE6EF850FF6EFA500EC0D9FFC8
:104E40000FC0DAFFDF5012000E4A0F2A20EE03F0E7
:104E50000B50D9260C50DA2201D80AD00500FA6E80
:104E6000DE50FD6EDE50FE6EF850FF6EFA501200FE
:104E7000124A132A1050125C11501358D8B0120065
:104E80008FD7000E276E040E286EFF0E1614296EA3
:104E9000030E17142A6E1C5029241E6E1D502A2042
:104EA0001F6E1E04010E1F58D8B01200000E1614FB
:104EB000226EFC0E1714236EFF0E1814246EFF0EC4
:104EC0001914256E22C008F023C009F024C00AF08E
:104ED00025C00BF027C00CF028C00DF0010E0F6E9E
:104EE000000E0E6E4BEC30F029502724086E2A502D
:104EF0002820096E1AC00AF01BC00BF01CC00CF071
:104F00001DC00DF0A8EC34F022C009F023C00AF057
:104F100024C00BF025C00CF0B2EC32F0040E206E71
:104F200027C029F028C02AF029C0E9FF2A50296E9D
:104F30002A6A29C0EAFF000E216E13D0000E266EE9
:104F40003F0E266401D006D0EECFE8FFF56E0D00CF
:104F5000262AF6D70A00A68497EC38F0A6940D000E
:104F6000212A2050215CD8B01200E8D737C121F0A7
:104F700038C122F039C123F03AC124F015C01DF028
:104F800016C01EF017C01FF018C020F018AE3BD09E
:104F900015C019F016C01AF017C01BF018C01CF08D
:104FA000191E1A1E1B1E1C1E192A000E1A221B2255
:104FB0001C2219C01DF01AC01EF01BC01FF01CC01F
:104FC00020F0010E246E1FD0232A1DC008F01EC041
:104FD00009F01FC00AF020C00BF00A0E0C6E000E84
:104FE0000D6E000E0E6E000E0F6EA3EC2CF008C0BE
:104FF0001DF009C01EF00AC01FF00BC020F0020E09
:10500000236401D009D020501F10DEE1100E1D5C7A
:10501000270E1E58D8B0D8D720501F1006E1100E0A
:105020001D5C270E1E58D8A008D00F0E1D6E270E2F
:105030001E6E000E1F6E000E206E1DC021F01EC0E1
:1050400022F021C015F022C016F023C017F024C0B2
:1050500018F01200000E1D6E1BAE0AD01B1E1A1E89
:10506000191E186C000E19221A221B22010E1D6E29
:1050700017AE0AD0171E161E151E146C000E152230
:1050800016221722010E1D1A000E1E6E000E1F6E34
:10509000000E206E000E216E185019101A101B10F1
:1050A000D8B42AD0010E1C6E06D0D8901836193606
:1050B0001A361B361C2A1BAEF8D7D8901E361F3660
:1050C000203621361850145C195015581A501658AD
:1050D0001B501758D8A009D01850145E1950155AF3
:1050E0001A50165A1B50175A1E80D8901B321A326B
:1050F000193218321C2EE1D71D50D8B408D0211E09
:10510000201E1F1E1E6C000E1F22202221221EC0E8
:1051100014F01FC015F020C016F021C017F01200C7
:1051200017C0D9FF18C0DAFFDECF1CF0DDCF1DF0AD
:10513000030E196402D0030E196E1950DCEC32F024
:1051400008C00DF009C00EF01CC00BF01DC00CF023
:105150002EEC33F00BC012F00CC013F0000E156EE5
:105160000A0E146ECAEC34F012C01AF013C01BF011
:105170001950DCEC32F008C00BF009C00CF01AC07A
:105180000DF01BC00EF037EC38F00B1E0C1E0B4A56
:105190000C2A1C500B241C6E1D500C201D6E1A4A2C
:1051A0001B2A1B5004E10A0E1A5CD8A004D0000E82
:1051B0001B6E000E1A6E1950DCEC32F008C00BF0BA
:1051C00009C00CF01AC00DF01BC00EF037EC38F01F
:1051D0000B501C260C501D2217C0D9FF18C0DAFF37
:1051E0001CC0DEFF1DC0DDFF1200100E5718D8A432
:1051F00012002AD0200E576ED4EC36F01200300E7A
:10520000576E5DEC37F01200400E576EA8EC33F08D
:105210001200500E576E1200600E576E1200700E84
:10522000576E1200800E576E1200900E576E1200CD
:10523000A00E576E1200B00E576E1200C00E576EC1
:105240001200F00E576E1200F8C027F0F9C028F0D7
:105250002850000AD8A412002750060AD8B4E2D772
:10526000160AD8B4E2D7020AD8B4EBD7360AD8B4B3
:10527000C1D71C0AD8B4C8D77A0AD8B4C0D7C70ACD
:10528000D8B4CDD70F0AD8B4D3D7010AD8B4D3D75E
:10529000230AD8B4BED7010AD8B4BED7150AD8A4F9
:1052A0001200CCD7000E456E0001F605D8A403D03D
:1052B00005EC21F0456E4550D8A407D0F3EC38F04A
:1052C000DEEC1CF0456EEEEC38F04550D8B4C0EC86
:1052D00018F00001FD51D8B408D00001FD0700010D
:1052E000FD51D8A402D00001E7850001EF51D8B4E8
:1052F00005D0000E0001EF6FD1EC22F00001EE515D
:10530000D8B405D0000E0001EE6F75EC15F0000169
:10531000EC51D8B405D0000E0001EC6F2FEC2FF04B
:105320000001ED51D8B405D0000E0001ED6FB9ECCD
:1053300012F00001EB51D8B409D0000E0001EB6F60
:10534000000EC1EC16F0010EC1EC16F00001F55193
:10535000D8B402D00001F50720EC36F01200B60EEA
:10536000F66E710EF76E000EF86E01EEE7F020EEAD
:105370000DF00900F5CFEEFFDD50D950FAE1EE0E49
:10538000F66E710EF76E000EF86E00EEFAF020EE7B
:1053900004F00900F5CFEEFFDD50D950FAE105EE3B
:1053A00000F021EE00F0EE6ADD50D950FCE1DA5059
:1053B000FAE104EE00F021EE00F0EE6ADD50D95083
:1053C000FCE1DA50FAE103EE00F0A20EEE6AE80624
:1053D000FDE102EE00F0B20EEE6AE806FDE101EE3C
:1053E00000F0E70EEE6AE806FDE100EEBFF03B0ECE
:1053F000EE6AE806FDE100EE52F0070EEE6AE806FE
:10540000FDE1000EF86E000156EF36F008C00AF01C
:1054100009C00BF0E2EC38F0FC0E0F015F1720EE34
:1054200005F00A50D9260B50DA22DF500F015C6FCD
:1054300020EE04F00A50D9260B50DA22DF500F017B
:105440005D6F0F015F51FC0B01095F6F20EE03F0F0
:105450000A50D9260B50DA22DF500F015C6F20EE84
:1054600006F00A50D9260B50DA22DF500F015D6F8B
:105470000F015F51FC0B02095F6F20EE02F00A5032
:10548000D9260B50DA22DF500F015C6F20EE01F0BD
:105490000A50D9260B50DA22DF500F015D6F030E40
:1054A0000F015F130AC0D9FF0BC0DAFFDF500F01F5
:1054B0005C6FE8EC38F01200F5EC33F0100E215C74
:1054C000270E2258D8A004D0270E226E0F0E216E70
:1054D000260E086E000E096E1FC00AF020C00BF0E9
:1054E0002CEC35F02A0E106E000E116E21C012F059
:1054F00022C013F0A7EC21F0260E086E000E096EF4
:10550000080E0A6E80EC33F0030E236402D0030E03
:10551000236E23500008030F236E0001F551D8A419
:1055200012D00F015FB70FD02350246E256A040EEE
:105530002426000E2522260E2424D96E000E2520B6
:10554000DA6E200EDF6E260E1C6E000E1D6EAFECA6
:1055500030F0E0EC30F01200070E116ED00E106E3D
:10556000A00E126E000E136E8BEC35F010C09EF084
:1055700011C09FF0D00E00019E5D070E00019F59E3
:10558000D8A010D0040E0001A019D8A403D08AEC32
:1055900036F01DD0050E0001F419D8A418D0F5EC92
:1055A00028F015D00001F405D8A403D070EC36F033
:1055B0000ED0020E0001F419D8A403D0BCEC36F0D2
:1055C00006D0040E0001F419D8B431EC37F0040E03
:1055D0000001F56F20EC36F0070E116ED00E106E44
:1055E000A00E126E000E136E8BEC35F0120008C088
:1055F000D9FF09C0DAFF050EDF6E20EE01F008507A
:10560000D9260950DA220AC0DFFF20EE02F0085046
:10561000D9260950DA22830EDE6E850EDD6E20EE6D
:1056200006F00850D9260950DA22540EDE6E6B0EB1
:10563000DD6E20EE08F00850D9260950DA22CE0E91
:10564000DE6E6B0EDD6E20EE0AF00850D926095092
:10565000DA22E60EDE6E620EDD6E20EE0CF00850F1
:10566000D9260950DA22460EDE6E630EDD6E20EE7C
:105670000EF00850D9260950DA22480EDE6E710E5F
:10568000DD6E1200156E030E156401D012002F0E90
:10569000106401D0120010C008F0096A000E0B6EF1
:1056A000080E0A6E61EC2CF01550060DF35008241C
:1056B000166E1050070B176E1150D8B415D017C0C6
:1056C00012F0010E136E122A02D0D8901336122E49
:1056D000FCD71650010D000EF324D96E010EF420F4
:1056E000DA6E1350DF12120017C012F0010E136EA3
:1056F000122A02D0D8901336122EFCD71350FF0A6C
:10570000146E1650010D000EF324D96E010EF42014
:10571000DA6E1450DF161200F5EC33F04BC115F0C1
:105720004CC116F04DC117F04EC118F0B6EC27F081
:1057300015C09AF016C09BF017C09CF018C09DF0E1
:105740009A0E1F6E000E206E000E216EE8EC24F003
:10575000010E64EC34F0D2C015F0D3C016F0D4C002
:1057600017F0D5C018F0B6EC27F015C09AF016C0A7
:105770009BF017C09CF018C09DF09A0E1F6E000E93
:10578000206E010E216EE8EC24F0010E57EC33F090
:1057900031EC11F00001996F000199514CEC35F09A
:1057A000E0EC30F01200F5EC33F047C115F048C1E1
:1057B00016F049C117F04AC118F0B6EC27F015C031
:1057C0009AF016C09BF017C09CF018C09DF09A0E7E
:1057D0001F6E000E206E000E216EE8EC24F0010E0C
:1057E00005EC33F0D2C015F0D3C016F0D4C017F0DA
:1057F000D5C018F0B6EC27F015C09AF016C09BF093
:1058000017C09CF018C09DF09A0E1F6E000E206EFF
:10581000010E216EE8EC24F0010E57EC33F031EC70
:1058200011F00001996F000199514CEC35F0E0EC5A
:1058300030F01200F5EC33F0CEC015F0CFC016F00A
:10584000D0C017F0D1C018F0B6EC27F015C09AF010
:1058500016C09BF017C09CF018C09DF09A0E1F6EEA
:10586000000E206E000E216EE8EC24F0010E86EC96
:1058700034F0D2C015F0D3C016F0D4C017F0D5C0A4
:1058800018F0B6EC27F015C09AF016C09BF017C0C0
:105890009CF018C09DF09A0E1F6E000E206E010E37
:1058A000216EE8EC24F0010E57EC33F031EC11F0EE
:1058B0000001996F000199514CEC35F0E0EC30F0AB
:1058C0001200000E0D6E0BAE06D00A6C0B1ED8B087
:1058D0000B2A010E0D6E09AE06D0086C091ED8B059
:1058E000092A010E0D1A000E0F6E000E0E6E0A50E0
:1058F0000B10D8B41CD0010E0C6E04D0D8900A3610
:105900000B360C2A0BAEFAD7D8900E360F360A504B
:10591000085C0B500958D8A005D00A50085E0B50FF
:10592000095A0E80D8900B320A320C2EEDD70D504A
:10593000D8B404D00E6C0F1ED8B00F2A0EC008F0D9
:105940000FC009F01200000E106E000E116E000E56
:10595000126E000E136E0C500D100E100F10D8B4F6
:105960002AD0010E146E06D0D8900C360D360E36A5
:105970000F36142A0FAEF8D7D890103611361236DB
:1059800013360C50085C0D5009580E500A580F5031
:105990000B58D8A009D00C50085E0D50095A0E5073
:1059A0000A5A0F500B5A1080D8900F320E320D3217
:1059B0000C32142EE1D710C008F011C009F012C04B
:1059C0000AF013C00BF012001A6E1950CFEC33F02E
:1059D0001B6E20D01B50F5EC2EF012001B50BBECC0
:1059E0002EF012001B5081EC2EF012001B5047ECE1
:1059F0002EF012001B500DEC2EF012001B50D3ECB9
:105A00002DF012001B5099EC2DF012001B505FEC92
:105A10002DF012001A50000AD8B4DCD7010AD8B40D
:105A2000DDD7030AD8B4DED7010AD8B4DFD7070A16
:105A3000D8B4E0D7010AD8B4E1D7030AD8B4E2D782
:105A4000010AD8A41200E2D7256E21EEE7F000EE9D
:105A50001FF0050EDBCFEBFFE806FCE2000E11ECB9
:105A600038F0F50E1C6EF30E1D6E7EEC30F0010E5C
:105A700072EC37F025C026F02650D8A41CD0010EB9
:105A8000266E19D0200E086E000E096E26040A6ECE
:105A90005BEC32F0000E236E1F0E1C6E000E1D6EAE
:105AA0003BEC36F0E0EC30F0030E096EE80E086EC9
:105AB00005EC36F026062650D8B41200E3D7186E4F
:105AC000130E106E1850080B116E000E42EC2BF0E6
:105AD000130E106E1850100B116E010E42EC2BF0CD
