:100000003EEF00F0AA00AA00F3EF3CF0AA00AA001D
:10001000AA00AA00AA00AA00D8CF03F0E8CF04F0F3
:10002000E0CF05F0E1CF06F0E2CF07F01CEE38F0AC
:100030009DB29EA20ED09FB20CD09E92010E0101E5
:100040003A27000E3B233C233D230001E1812EECA7
:1000500049F0A3B0A4A007D0A5B005D0A49000019A
:10006000E1833DEC4AF007C0E2FF06C0E1FF05C0B6
:10007000E0FF04C0E8FF03C0D8FF100016EE00F058
:10008000F3EF32F0100E0001FA25F66E000EFB21A0
:10009000F76E000EFC21F86E0900F5CF08F009009C
:1000A000F5CF09F00900F5CF0AF00A00F5CF0BF003
:1000B000010E1AEC23F008C0C6F209C0C7F20AC04C
:1000C000C8F20BC0C9F2140E0001FA25F66E000E3C
:1000D000FB21F76E000EFC21F86E0900F5CF08F049
:1000E0000900F5CF09F00900F5CF0AF00A00F5CFB5
:1000F0000BF0010E1AEC23F008C0CAF209C0CBF2D3
:100100000AC0CCF20BC0CDF2ABC008F0ACC009F015
:10011000ADC00AF0AEC00BF0010E1AEC23F008C01F
:10012000D2F209C0D3F20AC0D4F20BC0D5F20C0E41
:100130000001FA25F66E000EFB21F76E000EFC2181
:10014000F86E0900F5CF08F00900F5CF09F00900B5
:10015000F5CF0AF00A00F5CF0BF0000E1AEC23F0F1
:1001600008C0CEF209C0CFF20AC0D0F20BC0D1F263
:10017000D2C27DF0D3C27EF0D4C27FF0D5C280F06F
:10018000000E336E000E346E800E356E400E366EED
:10019000CEC22FF0CFC230F0D0C231F0D1C232F097
:1001A00093EC0FF02FC081F030C082F031C083F0AB
:1001B00032C084F029EC1EF00001D8B07DD0000ED2
:1001C0001A6E000E1B6E000E1C6E400E1D6ED2C20B
:1001D00016F0D3C217F0D4C218F0D5C219F045EC0E
:1001E0000CF016C02FF017C030F018C031F019C055
:1001F00032F0CEC233F0CFC234F0D0C235F0D1C22B
:1002000036F093EC0FF02FC0D2F230C0D3F231C0F1
:10021000D4F232C0D5F27F0E0001896FEF0E0001DB
:100220008A6FD2C28BF0D3C28CF0D4C28DF0D5C20B
:100230008EF0000E0001906F650E8F6F3DEC06F0A2
:1002400089C0D2F28AC0D3F28BC0D4F28CC0D5F26E
:10025000140E0001FA25F66E000EFB21F76E000E5B
:10026000FC21F86E0900F5CF08F00900F5CF09F080
:100270000900F5CF0AF00A00F5CF0BF0010E1AECD9
:1002800023F008C0CAF209C0CBF20AC0CCF20BC0FE
:10029000CDF2CAC27DF0CBC27EF0CCC27FF0CDC21F
:1002A00080F03EEC2AF07DC0ABF07EC0ACF07FC0A9
:1002B000ADF080C0AEF01200D2C27DF0D3C27EF0AD
:1002C000D4C27FF0D5C280F0080E0001FA25F66E88
:1002D000000EFB21F76E000EFC21F86E0900F5CF31
:1002E00008F00900F5CF09F00900F5CF0AF00A007F
:1002F000F5CF0BF0010E1AEC23F008C071F009C025
:1003000072F00AC073F00BC074F0000E336E000E72
:10031000346E800E356E400E366ECEC22FF0CFC2D8
:1003200030F0D0C231F0D1C232F093EC0FF02FC0D8
:100330006DF030C06EF031C06FF032C070F04FEC35
:1003400008F06DC081F06EC082F06FC083F070C0A5
:1003500084F029EC1EF00001D8B0BAD0000E336E44
:10036000000E346E800E356E400E366ECEC22FF00B
:10037000CFC230F0D0C231F0D1C232F093EC0FF0E6
:100380002FC03BF030C03CF031C03DF032C03EF0F9
:1003900044EC47F03BC06DF03CC06EF03DC06FF0E8
:1003A0003EC070F0D2C271F0D3C272F0D4C273F00A
:1003B000D5C274F04FEC08F06DC0D2F26EC0D3F22B
:1003C0006FC0D4F270C0D5F2080E0001FA25F66EA7
:1003D000000EFB21F76E000EFC21F86E0900F5CF30
:1003E00008F00900F5CF09F00900F5CF0AF00A007E
:1003F000F5CF0BF0010E1AEC23F008C033F009C062
:1004000034F00AC035F00BC036F0D2C22FF0D3C2A0
:1004100030F0D4C231F0D5C232F093EC0FF02FC0DF
:1004200016F030C017F031C018F032C019F0CAC24F
:100430001AF0CBC21BF0CCC21CF0CDC21DF045ECB3
:100440000CF016C0CAF217C0CBF218C0CCF219C01B
:10045000CDF2C6C22FF0C7C230F0C8C231F0C9C257
:1004600032F0000E336E000E346E000E356E400E0C
:10047000366E93EC0FF02FC0C6F230C0C7F231C019
:10048000C8F232C0C9F2CAC271F0CBC272F0CCC29B
:1004900073F0CDC274F0C6C26DF0C7C26EF0C8C2B0
:1004A0006FF0C9C270F04FEC08F06DC07DF06EC007
:1004B0007EF06FC07FF070C080F03EEC2AF07DC00F
:1004C000ABF07EC0ACF07FC0ADF080C0AEF01200EB
:1004D000000E336E000E346E000E356E400E366E1A
:1004E000CEC22FF0CFC230F0D0C231F0D1C232F044
:1004F00093EC0FF02FC071F030C072F031C073F088
:1005000032C074F0080E0001FA25F66E000EFB21D1
:10051000F76E000EFC21F86E0900F5CF08F0090017
:10052000F5CF09F00900F5CF0AF00A00F5CF0BF07E
:10053000010E1AEC23F008C06DF009C06EF00AC07D
:100540006FF00BC070F04FEC08F06DC07DF06EC026
:100550007EF06FC07FF070C080F0D2C281F0D3C255
:1005600082F0D4C283F0D5C284F029EC1EF00001E1
:10057000D8B045D0080E0001FA25F66E000EFB211A
:10058000F76E000EFC21F86E0900F5CF08F00900A7
:10059000F5CF09F00900F5CF0AF00A00F5CF0BF00E
:1005A000010E1AEC23F008C06DF009C06EF00AC00D
:1005B0006FF00BC070F0000E336E000E346E000E44
:1005C000356E400E366ECEC22FF0CFC230F0D0C2A4
:1005D00031F0D1C232F093EC0FF02FC071F030C087
:1005E00072F031C073F032C074F04FEC08F06DC09F
:1005F000D2F26EC0D3F26FC0D4F270C0D5F2080E42
:100600000001FA25F66E000EFB21F76E000EFC21AC
:10061000F86E0900F5CF08F00900F5CF09F00900E0
:10062000F5CF0AF00A00F5CF0BF0010E1AEC23F01B
:1006300008C071F009C072F00AC073F00BC074F00A
:10064000000E336E000E346E800E356E400E366E28
:10065000CEC22FF0CFC230F0D0C231F0D1C232F0D2
:1006600093EC0FF02FC06DF030C06EF031C06FF022
:1006700032C070F04FEC08F06DC03BF06EC03CF043
:100680006FC03DF070C03EF044EC47F03BC0C2F29A
:100690003CC0C3F23DC0C4F23EC0C5F2C2C26DF060
:1006A000C3C26EF0C4C26FF0C5C270F0D2C271F0A6
:1006B000D3C272F0D4C273F0D5C274F04FEC08F01C
:1006C0006DC0D2F26EC0D3F26FC0D4F270C0D5F25A
:1006D000000E1A6E000E1B6E000E1C6E400E1D6E7C
:1006E000D2C216F0D3C217F0D4C218F0D5C219F096
:1006F00045EC0CF016C02FF017C030F018C031F0E8
:1007000019C032F0CEC233F0CFC234F0D0C235F0CF
:10071000D1C236F093EC0FF02FC0D2F230C0D3F23A
:1007200031C0D4F232C0D5F2D2C23BF0D3C23CF0D9
:10073000D4C23DF0D5C23EF044EC47F03BC06DF072
:100740003CC06EF03DC06FF03EC070F0000E000186
:10075000716F000E726F000E736F3F0E746F4FEC6F
:1007600008F06DC0D2F26EC0D3F26FC0D4F270C088
:10077000D5F2000E0001716F000E726F000E736FE4
:100780003F0E746FD2C26DF0D3C26EF0D4C26FF060
:10079000D5C270F04FEC08F06DC016F06EC017F0C7
:1007A0006FC018F070C019F0CAC21AF0CBC21BF0AB
:1007B000CCC21CF0CDC21DF045EC0CF016C0CAF244
:1007C00017C0CBF218C0CCF219C0CDF2CAC271F07A
:1007D000CBC272F0CCC273F0CDC274F0C6C26DF061
:1007E000C7C26EF0C8C26FF0C9C270F04FEC08F01B
:1007F0006DC07DF06EC07EF06FC07FF070C080F085
:100800003EEC2AF07DC0ABF07EC0ACF07FC0ADF016
:1008100080C0AEF012001A6E310E1A6401D01200C0
:100820001A500008310F196E90D12E0E106E18C09C
:1008300011F0000EB8EC36F012002E0E106E18C03B
:1008400011F0010EB8EC36F012002E0E106E18C02A
:1008500011F0020EB8EC36F012002E0E106E18C019
:1008600011F0030EB8EC36F012002F0E106E18C007
:1008700011F0030EB8EC36F012002F0E106E18C0F7
:1008800011F0020EB8EC36F012002F0E106E18C0E8
:1008900011F0010EB8EC36F012002F0E106E18C0D9
:1008A00011F0000EB8EC36F012001F0E106E18C0DA
:1008B00011F0000EB8EC36F012001F0E106E18C0CA
:1008C00011F0010EB8EC36F012001F0E106E18C0B9
:1008D00011F0020EB8EC36F012001F0E106E18C0A8
:1008E00011F0030EB8EC36F01200000E106E18C0B6
:1008F00011F0030EB8EC36F01200000E106E18C0A6
:1009000011F0020EB8EC36F01200000E106E18C096
:1009100011F0010EB8EC36F01200000E106E18C087
:1009200011F0000EB8EC36F01200010E106E18C077
:1009300011F0000EB8EC36F01200010E106E18C067
:1009400011F0010EB8EC36F01200010E106E18C056
:1009500011F0020EB8EC36F01200010E106E18C045
:1009600011F0030EB8EC36F01200020E106E18C033
:1009700011F0030EB8EC36F01200020E106E18C023
:1009800011F0020EB8EC36F01200020E106E18C014
:1009900011F0010EB8EC36F01200020E106E18C005
:1009A00011F0000EB8EC36F01200030E106E18C0F5
:1009B00011F0000EB8EC36F01200030E106E18C0E5
:1009C00011F0010EB8EC36F01200030E106E18C0D4
:1009D00011F0020EB8EC36F01200030E106E18C0C3
:1009E00011F0030EB8EC36F01200040E106E18C0B1
:1009F00011F0030EB8EC36F01200040E106E18C0A1
:100A000011F0020EB8EC36F01200040E106E18C091
:100A100011F0010EB8EC36F01200040E106E18C082
:100A200011F0000EB8EC36F01200050E106E18C072
:100A300011F0000EB8EC36F01200050E106E18C062
:100A400011F0010EB8EC36F01200050E106E18C051
:100A500011F0020EB8EC36F01200050E106E18C040
:100A600011F0030EB8EC36F01200060E106E18C02E
:100A700011F0030EB8EC36F01200060E106E18C01E
:100A800011F0020EB8EC36F01200060E106E18C00F
:100A900011F0010EB8EC36F01200060E106E18C000
:100AA00011F0000EB8EC36F01200070E106E18C0F0
:100AB00011F0000EB8EC36F01200070E106E18C0E0
:100AC00011F0010EB8EC36F01200070E106E18C0CF
:100AD00011F0020EB8EC36F01200070E106E18C0BE
:100AE00011F0030EB8EC36F01200210E106E18C093
:100AF00011F0030EB8EC36F01200210E106E18C083
:100B000011F0020EB8EC36F01200210E106E18C073
:100B100011F0010EB8EC36F01200210E106E18C064
:100B200011F0000EB8EC36F01200220E106E18C054
:100B300011F0000EB8EC36F01200220E106E18C044
:100B400011F0010EB8EC36F012001950000AD8B4BA
:100B50006CD6010AD8B471D6030AD8B476D6010A85
:100B6000D8B47BD6070AD8B480D6010AD8B485D6C3
:100B7000030AD8B48AD6010AD8B48FD60F0AD8B4DB
:100B800094D6010AD8B499D6030AD8B49ED6010ADD
:100B9000D8B4A3D6070AD8B4A8D6010AD8B4ADD61B
:100BA000030AD8B4B2D6010AD8B4B7D61F0AD8B44B
:100BB000BCD6010AD8B4C1D6030AD8B4C6D6010A35
:100BC000D8B4CBD6070AD8B4D0D6010AD8B4D5D673
:100BD000030AD8B4DAD6010AD8B4DFD60F0AD8B4DB
:100BE000E4D6010AD8B4E9D6030AD8B4EED6010A8D
:100BF000D8B4F3D6070AD8B4F8D6010AD8B4FDD6CB
:100C0000030AD8B402D7010AD8B407D73F0AD8B428
:100C10000CD7010AD8B411D7030AD8B416D7010AE1
:100C2000D8B41BD7070AD8B420D7010AD8B425D71F
:100C3000030AD8B42AD7010AD8B42FD70F0AD8B4D8
:100C400034D7010AD8B439D7030AD8B43ED7010A39
:100C5000D8B443D7070AD8B448D7010AD8B44DD777
:100C6000030AD8B452D7010AD8B457D71F0AD8B448
:100C70005CD7010AD8A4120060D7000E0001AA6F49
:100C8000000EA96FD0D0A9C091F0AAC092F00001C7
:100C9000D890913792370001D8909137923789C018
:100CA00093F08AC094F00001915100019327000154
:100CB00092510001942393C0F6FF94C0F7FF0900FE
:100CC000F5CF7DF00900F5CF7EF00900F5CF7FF07C
:100CD0000A00F5CF80F0A9C095F0AAC096F00001F7
:100CE000D890953796370001D89095379637040EEF
:100CF00000019527000E962389C097F08AC098F0CE
:100D00000001955100019727000196510001982399
:100D100097C0F6FF98C0F7FF0900F5CF81F00900F2
:100D2000F5CF82F00900F5CF83F00A00F5CF84F00B
:100D300029EC1EF00001D8B03BD0A9C091F0AAC0A8
:100D400092F00001D890913792370001D8909137F6
:100D50009237040E00019127000E922389C093F070
:100D60008AC094F000019151000193270001925133
:100D70000001942393C0F6FF94C0F7FF0900F5CF5C
:100D80007DF00900F5CF7EF00900F5CF7FF00A0075
:100D9000F5CF80F08BC081F08CC082F08DC083F0E5
:100DA0008EC084F029EC1EF00001D8B058D038D0A5
:100DB0008BC07DF08CC07EF08DC07FF08EC080F047
:100DC000A9C091F0AAC092F00001D8909137923753
:100DD0000001D89091379237040E00019127000E40
:100DE000922389C093F08AC094F0000191510001D0
:100DF0009327000192510001942393C0F6FF94C001
:100E0000F7FF0900F5CF81F00900F5CF82F0090066
:100E1000F5CF83F00A00F5CF84F029EC1EF0C4D79B
:100E20000001A94BAA2BFF0E0001916FFF0E0001DC
:100E3000926F8FC093F090C094F000019151000127
:100E40009327000192510001942300019351000166
:100E5000A95D000194510001AA59D8A014D7A9C0D6
:100E600091F0AAC092F00001D8909137923700011A
:100E7000D8909137923789C093F08AC094F00001DE
:100E8000915100019327000192510001942393C0D6
:100E9000F6FF94C0F7FF0900F5CFA5F00900F5CFE4
:100EA000A6F00900F5CFA7F00A00F5CFA8F00A0ECA
:100EB0000001996FD70E9A6F230E9B6F3C0E9C6FAB
:100EC000A9C091F0AAC092F00001D8909137923752
:100ED0000001D8909137923789C093F08AC094F07E
:100EE00000019151000193270001925100019423C8
:100EF00093C0F6FF94C0F7FF0900F5CF3BF009005F
:100F0000F5CF3CF00900F5CF3DF00A00F5CF3EF0FB
:100F100044EC47F03BC06DF03CC06EF03DC06FF05C
:100F20003EC070F0A9C095F0AAC096F00001D8901C
:100F3000953796370001D89095379637040E000103
:100F40009527000E962389C097F08AC098F000017B
:100F5000955100019727000196510001982397C0F1
:100F6000F6FF98C0F7FF0900F5CF71F00900F5CF43
:100F700072F00900F5CF73F00A00F5CF74F04FEC72
:100F800008F06DC09DF06EC09EF06FC09FF070C005
:100F9000A0F08BC071F08CC072F08DC073F08EC069
:100FA00074F00A0E1A6ED70E1B6E230E1C6E3C0ECA
:100FB0001D6EA9C008F0AAC009F00A6A0B6A000EEB
:100FC0001AEC23F008C016F009C017F00AC018F098
:100FD0000BC019F045EC0CF016C03BF017C03CF00C
:100FE00018C03DF019C03EF044EC47F03BC06DF036
:100FF0003CC06EF03DC06FF03EC070F04FEC08F0AA
:101000006DC0A1F06EC0A2F06FC0A3F070C0A4F0DC
:1010100099C033F09AC034F09BC035F09CC036F0D4
:101020009DC02FF09EC030F09FC031F0A0C032F0C4
:1010300093EC0FF02FC01AF030C01BF031C01CF041
:1010400032C01DF0A1C016F0A2C017F0A3C018F066
:10105000A4C019F045EC0CF016C06DF017C06EF08E
:1010600018C06FF019C070F0A5C071F0A6C072F082
:10107000A7C073F0A8C074F04FEC08F06DC0A5F0E5
:101080006EC0A6F06FC0A7F070C0A8F0A5C089F030
:10109000A6C08AF0A7C08BF0A8C08CF01200000197
:1010A0007051800B3F6E000170517025416E000140
:1010B0006FBF41804150D8B411D04128D8A409D085
:1010C000000E00016D6F000E6E6F000E6F6F000E50
:1010D000706F00016F8F000E000108D0000E00013C
:1010E0006D6F000E6E6F000E6F6F000E706F00015F
:1010F0007451800B406E3F504018D8A43F8C0001C3
:1011000074517425406E000173BF40804050D8B4C4
:1011100011D04028D8A409D0000E0001716F000E34
:10112000726F000E736F000E746F0001738F000EEC
:10113000000108D0000E0001716F000E726F000EEA
:10114000736F000E746F4150405CD8B022D03FAC3A
:1011500002D0800E3F1A41C042F040C041F042C070
:1011600040F06DC042F071C06DF042C071F06EC0D1
:1011700042F072C06EF042C072F06FC042F073C0B5
:101180006FF042C073F070C042F074C070F042C0A3
:1011900074F0000E426E41500001756F766B0001D5
:1011A000751F761F754B762B40500001776F786B5B
:1011B0000001755100017727000176510001782365
:1011C000000178BF35D00001785105E11A0E000109
:1011D000775DD8A02DD000016D5100016E11000186
:1011E0006F1100017011D8B402D0010E01D0000EB1
:1011F000426E000E00016D6F000E6E6F000E6F6F7D
:10120000000E706F40C041F017D042A005D0D890BA
:1012100042300109426E02D0D890423200016DB1D5
:10122000428E0001703570336F336E336D33412A57
:101230004050415CD8A0E9D73FBC35D04150D8A43C
:101240000AD0000E00016D6F000E6E6F000E6F6F02
:10125000000E706F12000001715100016D27000136
:10126000725100016E230001735100016F230001D0
:10127000745100017023000170A1B6D042A006D0C5
:10128000D890423242500109426E02D0D890423288
:1012900000016DB1428E0001703570336F336E33D3
:1012A0006D33412AA1D00001715100016D5D000133
:1012B000725100016E590001735100016F59000114
:1012C0007051800A0001756F00017451800A00019D
:1012D0007559D8B04CD06DC075F06EC076F06FC047
:1012E00077F070C078F00001751F761F771F781FA8
:1012F000752B000E762377237823000171510001AE
:1013000075250001796F00017251000176210001FD
:101310007A6F000173510001772100017B6F00019A
:1013200074510001782100017C6FFF0E00017925C6
:1013300000016D6FFF0E00017A2100016E6FFF0E3C
:1013400000017B2100016F6FFF0E00017C21000175
:10135000706F800E3F1A426C4250D8A418D0010E14
:1013600000016D27000E6E236F23702310D0000143
:10137000715100016D5F0001725100016E5B00014F
:10138000735100016F5B000174510001705B00013B
:101390006D5100016E1100016F1100017011D8A490
:1013A00020D04250D8A41DD0000E00016D6F000E59
:1013B0006E6F000E6F6F000E706F12000001D890FC
:1013C0006D376E376F37703742AE02D000016D81D6
:1013D00042A002D0D88001D0D89042364150D8A443
:1013E000410600016FAFEAD7000E406E42AE0CD04E
:1013F00042C075F07F0E00017517D8A403D000011C
:101400006DA102D0010E406E4050D8B423D0010E21
:1014100000016D27000E6E236F237023000170A161
:1014200019D06DC075F06EC076F06FC077F070C0E7
:1014300078F000017835783377337633753375C0BB
:101440006DF076C06EF077C06FF078C070F0412814
:10145000D8A4412A4128D8B403D04150D8A40ED0F2
:10146000000E00016D6F000E6E6F000E6F6F000EAC
:10147000706F4150D8A402D0000E3F6E41A003D03F
:1014800000016F8F02D000016F9FD89041300001A2
:10149000706F3FAE02D00001708F6DC06DF06EC0F6
:1014A0006EF06FC06FF070C070F0120020EE04F0AC
:1014B0002450D9262550DA22DECF3BF0DDCF3CF098
:1014C000000E416E8BD04150286E296AD890283684
:1014D0002936D89028362936D890283629360C0E49
:1014E0002826000E292222C02AF023C02BF02850E3
:1014F0002A2629502B22040E2A24D96E000E2B20D6
:10150000DA6E4150080D040EF326000EF42222C0BC
:101510002EF023C02FF0F3502E26F4502F22040E6D
:101520002E24E96E000E2F20EA6EDE50EE5CEE50A7
:10153000800A326EDE50800A3258D8B029D041502D
:10154000286E296AD89028362936D8902836293628
:10155000D890283629360C0E2826000E292222C0C3
:101560002AF023C02BF028502A2629502B22040EC3
:101570002A24D96E000E2B20DA6E3B50DE5CDE5042
:10158000800A2E6E3C50800A2E58D8B043D025D009
:101590004150286E296AD89028362936D8902836A6
:1015A0002936D890283629360C0E2826000E2922F6
:1015B00022C02AF023C02BF028502A2629502B22A3
:1015C000040E2A24D96E000E2B20DA6EDE503B5C0E
:1015D0003C50800A2E6EDE50D6D7412AFE0E286E71
:1015E000FF0E296E22C0D9FF23C0DAFFDF502A6E1A
:1015F0002B6A28502A2629502B2241502C6E2D6A06
:101600002A502C5C2D50800A2E6E2B50800A2E58AA
:10161000D8A059D74150080D040EF326000EF4222D
:10162000F3502224D96EF4502320DA6EDECF3DF041
:10163000DECF3EF0DECF3FF0DECF40F04150286EEF
:10164000296AD89028362936D89028362936D89055
:10165000283629360C0E2826000E2922285022244E
:10166000D96E29502320DA6EDECF2AF0DECF2BF0A0
:10167000DECF2CF0DECF2DF04150080D040EF32606
:10168000000EF422F3502224D96EF4502320DA6E97
:10169000DECF2EF0DECF2FF0DECF30F0DECF31F018
:1016A0002E1E2F1E301E311E2E2A000E2F223022FB
:1016B00031222A502E24336E2B502F20346E2C5082
:1016C0003020356E2D503120366E4150286E296AFB
:1016D000D89028362936D89028362936D8902836FA
:1016E00029360C0E2826000E292222C02AF023C0FB
:1016F0002BF028502A2629502B22040E2A24D96E9A
:10170000000E2B20DA6EDECF2CF0DDCF2DF0415015
:10171000080D040EF326000EF42222C02EF023C082
:101720002FF0F3502E26F4502F22040E2E24D96EC3
:10173000000E2F20DA6EDECF30F0DDCF31F0301E1C
:10174000311E304A312A2C5030262D50312230C0E3
:1017500037F031C038F0000E38BEFF0E396E3A6EE9
:101760003750381039103A10D8B451D04150080DC4
:10177000040EF326000EF42222C028F023C029F024
:10178000F3502826F4502922040E2824D96E000E86
:101790002920DA6EDECF2AF0DDCF2BF02A1E2B1E99
:1017A0002A4A2B2A3B502A263C502B222AC008F0DA
:1017B0002BC009F0000E09BEFF0E0A6E0B6E33C07F
:1017C0000CF034C00DF035C00EF036C00FF0B5ECA3
:1017D00041F008C014F009C015F00AC016F00BC0A3
:1017E00017F037C018F038C019F039C01AF03AC0F5
:1017F0001BF040EC2FF03D5014243D6E3E50152060
:101800003E6E3F5016203F6E40501720406E24C061
:10181000D9FF25C0DAFF3DC0DEFF3EC0DEFF3FC07E
:10182000DEFF40C0DEFF26502710D8B42CD026C0E3
:10183000D9FF27C0DAFF3DC0DEFF3EC0DEFF3FC05C
:10184000DEFF40C0DEFF20EE04F02450D9262550F4
:10185000DA2200EE04F02650E9262750EA22DECFF5
:10186000EEFFDDCFEDFF20EE0AF02250D926235007
:10187000DA2200EE06F02650E9262750EA22DECFD3
:10188000EEFFDDCFEDFF415012001950800B226EAC
:1018900019501924286E18BE28802850D8B40DD0AD
:1018A0002828D8A408D0000E166E000E176E000E61
:1018B000186E000E196E188E08D0000E166E000EEF
:1018C000176E000E186E000E196E1D50800B221A36
:1018D0001D501D24236E1CBE23802350D8B40DD070
:1018E0002328D8A408D0000E1A6E000E1B6E000E1E
:1018F0001C6E000E1D6E1C8E08D0000E1A6E000E9F
:101900001B6E000E1C6E000E1D6E2350D8B403D04B
:101910002850D8A409D0000E166E000E176E000EC7
:10192000186E000E196E12001C501602F3CF2DF027
:10193000F4CF2EF02D50246E256A266A276A2E5089
:10194000296E2A6A2B6A2C6A1B501702F3CF2DF0DE
:10195000F4CF2EF02D502426000E252226222722F9
:101960002E502926000E2A222B222C221A50180231
:10197000F3CF2DF0F4CF2EF02D502426000E25228B
:10198000262227222E502926000E2A222B222C2204
:1019900026C027F025C026F024C025F0246A1A505E
:1019A0001702F3CF2DF0F4CF2EF02D5024262E5019
:1019B0002522000E2622000E27221B501602F3CFEE
:1019C0002DF0F4CF2EF02D5024262E502522000E7F
:1019D0002622000E272226C027F025C026F024C08C
:1019E00025F0246A1A501602F3CF2DF0F4CF2EF012
:1019F0002D5024262E502522000E2622000E2722AE
:101A00001C501702F3CF2DF0F4CF2EF02D502926C5
:101A10002E502A22000E2B22000E2C221B501802C0
:101A2000F3CF2DF0F4CF2EF02D5029262E502A2260
:101A3000000E2B22000E2C221C501802F3CF2DF08A
:101A4000F4CF2EF02D501E6E2E501F6E206A216A8C
:101A500020C021F01FC020F01EC01FF01E6A1E50C3
:101A600029261F502A2220502B2221502C2224C00C
:101A70001EF025C01FF026C020F027C021F0190E4F
:101A800005D0D890213220321F321E32E82EF9D7ED
:101A90001E5029261F502A2220502B2221502C2252
:101AA00026C027F025C026F024C025F0246A235044
:101AB00028C01EF01F6A1E26000E1F22820E1E2442
:101AC0002D6EFF0E1F202E6E0FD0D89029362A368D
:101AD0002B362C3627BE2980D8902436253626363C
:101AE00027362D06D8A02E062BAEEFD7000E236E7C
:101AF00027AE16D0FF0E24141E6EFF0E25141F6E87
:101B0000FF0E2614206E7F0E2714216E1E501F100C
:101B100020102110D8A402D029A002D0010E236EDB
:101B20002350D8B41FD0010E2926000E2A222B22C2
:101B30002C222CA017D029C01EF02AC01FF02BC0C9
:101B400020F02CC021F02134213220321F321E32ED
:101B50001EC029F01FC02AF020C02BF021C02CF09D
:101B60002D4A2E2A2EBE0DD02E5003E12D28D8A0AE
:101B700008D0000E296E000E2A6E800E2B6E7F0E8E
:101B800020D02EBE05D02E500EE12D04D8B00BD0A3
:101B9000000E296E000E2A6E000E2B6E000E2C6EAB
:101BA000000E226E0FD02DC028F0FF0E2916FF0E5A
:101BB0002A167F0E2B16000E2C1628B02B8ED890CE
:101BC00028302C6E22502C1229C016F02AC017F093
:101BD0002BC018F02CC019F0120020EE06F0245093
:101BE000D9262550DA22DECF3EF0DDCF3FF0000EC1
:101BF000406E87D04050276E286AD8902736283606
:101C0000D89027362836D89027362836080E27262B
:101C1000000E282222C029F023C02AF027502926AE
:101C200028502A22060E2924D96E000E2A20DA6EA8
:101C30004050080D22C02DF023C02EF0F3502D2669
:101C4000F4502E22060E2D24E96E000E2E20EA6E90
:101C5000DE50EE5CEE50800A316EDE50800A315864
:101C6000D8B029D04050276E286AD8902736283619
:101C7000D89027362836D89027362836080E2726BB
:101C8000000E282222C029F023C02AF0275029263E
:101C900028502A22060E2924D96E000E2A20DA6E38
:101CA0003E50DE5CDE50800A2D6E3F50800A2D587B
:101CB000D8B03FD025D04050276E286AD89027361C
:101CC0002836D89027362836D89027362836080E5A
:101CD0002726000E282222C029F023C02AF02750F0
:101CE000292628502A22060E2924D96E000E2A20E1
:101CF000DA6EDE503E5C3F50800A2D6EDE50D6D745
:101D0000402AFE0E276EFF0E286E2650296E2A6A84
:101D10002750292628502A2240502B6E2C6A295001
:101D20002B5C2C50800A2D6E2A50800A2D58D8A08A
:101D300061D74050080DF3502224D96EF45023206F
:101D4000DA6EDECF3AF0DECF3BF0DECF3CF0DECF16
:101D50003DF04050276E286AD89027362836D89014
:101D600027362836D89027362836080E2726000E24
:101D7000282227502224D96E28502320DA6EDECF65
:101D800029F0DECF2AF0DECF2BF0DECF2CF0405052
:101D9000080DF3502224D96EF4502320DA6EDECFE2
:101DA0002DF0DECF2EF0DECF2FF0DECF30F02D1E67
:101DB0002E1E2F1E301E2D2A000E2E222F223022E4
:101DC00029502D24326E2A502E20336E2B502F2076
:101DD000346E2C503020356E4050276E286AD890D3
:101DE00027362836D89027362836D89027362836F2
:101DF000080E2726000E282222C029F023C02AF030
:101E00002750292628502A22060E2924D96E000E92
:101E10002A20DA6EDECF2BF0DDCF2CF04050080DFB
:101E200022C02DF023C02EF0F3502D26F4502E2288
:101E3000060E2D24D96E000E2E20DA6EDECF2FF086
:101E4000DDCF30F02F1E301E2F4A302A2B502F2688
:101E50002C5030222FC036F030C037F0000E37BE85
:101E6000FF0E386E396E3650371038103910D8B42E
:101E70004DD04050080D22C027F023C028F0F35069
:101E80002726F4502822060E2724D96E000E28207B
:101E9000DA6EDECF29F0DDCF2AF0291E2A1E294A6C
:101EA0002A2A3E5029263F502A2229C008F02AC05B
:101EB00009F0000E09BEFF0E0A6E0B6E32C00CF068
:101EC00033C00DF034C00EF035C00FF0B5EC41F06A
:101ED00008C014F009C015F00AC016F00BC017F0C6
:101EE00036C018F037C019F038C01AF039C01BF0EE
:101EF00040EC2FF03A5014243A6E3B5015203B6EC4
:101F00003C5016203C6E3D5017203D6E24C0D9FF3A
:101F100025C0DAFF3AC0DEFF3BC0DEFF3CC0DEFF7B
:101F20003DC0DEFF12003250800B0001606F325066
:101F3000322400016B6F31AE02D000016B810001D1
:101F40006B510001D8B40ED000016B29D8A408D081
:101F5000000E2F6E000E306E000E316E000E326ECF
:101F6000318E06D0000E2F6E000E306E000E316ED8
:101F7000000E326E3650800B0001601B3650362446
:101F800000016C6F35AE02D000016C8100016C5114
:101F90000001D8B40ED000016C29D8A408D0000EDE
:101FA000336E000E346E000E356E000E366E358EBA
:101FB00006D0000E336E000E346E000E356E000E2D
:101FC000366E3350341035103610D8A415D0000EAC
:101FD0002F6E000E306E000E316E000E326E800ECF
:101FE00031127F0E32122FC02FF030C030F031C0CE
:101FF00031F032C032F0120000016B510001D8A460
:1020000011D0000E2F6E000E306E000E316E000EDD
:10201000326E2FC02FF030C030F031C031F032C0FE
:1020200032F0120000016C51376E386A371E381ECC
:10203000374A382A00016B51396E3A6A37503926CF
:1020400038503A227F0E39240001656F000E3A2085
:102050000001666F2FC061F030C062F031C063F0E4
:1020600032C064F0000E2F6E000E306E000E316E26
:10207000000E326E000E0001676F000E686F000EDA
:10208000696F000E6A6F000E00016C6F37D000019F
:102090006C510001D8B414D00001D8906137623778
:1020A00063376437D8902F363036313632360001F8
:1020B0006ABF2F800001D8906737683769376A3761
:1020C00033500001615D3450000162593550000108
:1020D0006359365000016459D8A00ED000016A8DB2
:1020E00033500001615F34500001625B35500001E4
:1020F000635B36500001645B00016C2B190E00011C
:102100006C65C5D7000161510001621100016311C6
:1021100000016411D8B415D00001678112D0D890A5
:102120002F3630363136323600016ABF2F8000013B
:10213000D8906737683769376A3700016507D8A0D4
:10214000660731AEECD7000E00016C6F00016AAF7C
:102150001BD0FF0E00016715376EFF0E00016815DA
:10216000386EFF0E00016915396E7F0E00016A1589
:102170003A6E3750381039103A10D8A402D02FA038
:1021800003D0010E00016C6F00016C510001D8B446
:1021900020D0010E2F26000E30223122322232A012
:1021A00018D02FC037F030C038F031C039F032C00D
:1021B0003AF03A343A3239323832373237C02FF0C7
:1021C00038C030F039C031F03AC032F00001654B10
:1021D000662B000166BF13D00001665104E10001C7
:1021E0006529D8A00CD0000E0001666F6569000E4D
:1021F0002F6E000E306E000E316E000E326E00013A
:1022000066BF07D00001665114E100016505D8B032
:1022100010D0000E0001666F000E656F000E2F6E6D
:10222000000E306E000E316E000E326E000E000198
:10223000606F65C06BF000016BA102D0318E01D0E0
:10224000319E0001D8906B31326E00016051321224
:102250002FC02FF030C030F031C031F032C032F03A
:102260001200040E0001FA25F66E000EFB21F76E37
:10227000000EFC21F86E0800F5500009D8A422D009
:102280000C0E0001FA25F66E000EFB21F76E000E13
:10229000FC21F86E0900F5CF08F00900F5CF09F030
:1022A0000900F5CF0AF00A00F5CF0BF0000E1AEC8A
:1022B00023F008C095F009C096F00AC097F00BC053
:1022C00098F0A1D0080E0001FA25F66E000EFB2151
:1022D000F76E000EFC21F86E0900F5CF08F009003A
:1022E000F5CF09F00900F5CF0AF00A00F5CF0BF0A1
:1022F000010E1AEC23F008C095F009C096F00AC050
:1023000097F00BC098F00C0E0001FA25F66E000E47
:10231000FB21F76E000EFC21F86E0900F5CF08F0E6
:102320000900F5CF09F00900F5CF0AF00A00F5CF52
:102330000BF0000E1AEC23F008C071F009C072F027
:102340000AC073F00BC074F00C0E0001FA25F66E93
:10235000000EFB21F76E000EFC21F86E0900F5CF90
:1023600008F00900F5CF09F00900F5CF0AF00A00DE
:10237000F5CF0BF0000E1AEC23F008C06DF009C089
:102380006EF00AC06FF00BC070F04FEC08F06DC03B
:102390008DF06EC08EF06FC08FF070C090F095C061
:1023A00071F096C072F097C073F098C074F08DC051
:1023B0006DF08EC06EF08FC06FF090C070F04FEC7B
:1023C00008F06DC091F06EC092F06FC093F070C0D5
:1023D00094F091C06DF092C06EF093C06FF094C015
:1023E00070F095C071F096C072F097C073F098C00D
:1023F00074F04FEC08F06DC095F06EC096F06FC0B1
:1024000097F070C098F095C01AF096C01BF097C076
:102410001CF098C01DF0050E0001FA25F66E000EA6
:10242000FB21F76E000EFC21F86E0800F550086ED7
:10243000096A0A6A0B6A000E1AEC23F008C016F04B
:1024400009C017F00AC018F00BC019F045EC0CF0E9
:1024500016C02FF017C030F018C031F019C032F09C
:10246000000E336E000E346EC80E356E420E366EA0
:1024700093EC0FF02FC095F030C096F031C097F07C
:1024800032C098F0C0C008F0C1C009F0C2C00AF064
:10249000C3C00BF0010E1AEC23F008C089F009C08C
:1024A0008AF00AC08BF00BC08CF089C02FF08AC074
:1024B00030F08BC031F08CC032F095C033F096C054
:1024C00034F097C035F098C036F093EC0FF02FC081
:1024D00095F030C096F031C097F032C098F095C0BA
:1024E00016F096C017F097C018F098C019F0000EBB
:1024F0001A6E000E1B6EC80E1C6E420E1D6E45EC51
:102500000CF016C095F017C096F018C097F019C0DF
:1025100098F0000E00017D6F000E7E6FC80E7F6F79
:10252000420E806F95C081F096C082F097C083F014
:1025300098C084F029EC1EF00001D8B009D0000E3C
:102540000001956F000E966FC80E976F420E986F40
:1025500095C07DF096C07EF097C07FF098C080F067
:102560003EEC2AF000017D510001F36F0001F351B0
:1025700012000001646F000E0001666F5250D8A473
:1025800023D00001EE51340D040EF324D96E020E57
:10259000F420DA6EDF500001656F54C06DF0000169
:1025A0006D5100016519D8B4FDD0010E0001666FB0
:1025B0000001EE51340D040EF324D96E020EF42006
:1025C000DA6E6DC0DFFFEED0F4C014F0F5C015F088
:1025D000F6C016F0F7C017F08CEC35F014C067F0B9
:1025E00015C068F016C069F017C06AF00001EE511E
:1025F000340DFC0E336EFF0E346E5250356E366A5B
:10260000D89035363636D89035363636D890353679
:1026100036363350352634503622000E376E020ED1
:10262000386E040E3726000E3822355037263650C5
:102630003822F3503724D96EF4503820DA6EDECFCA
:1026400060F0DECF61F0DECF62F0DECF63F000013C
:1026500067510001601910E1000168510001611922
:102660000BE1000169510001621906E100016A51A4
:1026700000016319D8B496D00001EE51340DFC0E60
:10268000336EFF0E346E5250356E366AD890353642
:102690003636D89035363636D890353636363350CD
:1026A000352634503622000E376E020E386E040E78
:1026B0003726000E38223550372636503822F35050
:1026C0003724D96EF4503820DA6E67C0DEFF68C058
:1026D000DEFF69C0DEFF6AC0DEFF0001EE51340D8F
:1026E000FC0E336EFF0E346E5250356E366AD89043
:1026F00035363636D89035363636D8903536363685
:102700003350352634503622000E376E020E386EA6
:10271000040E3726000E3822355037263650382220
:10272000F3503726F4503822040E3724D96E000EA9
:102730003820DA6EECC1DEFFEDC1DDFF0001EE51A5
:10274000340DFC0E336EFF0E346E5250356E366A09
:10275000D89035363636D89035363636D890353628
:1027600036363350352634503622000E376E020E80
:10277000386E040E3726000E382235503726365074
:102780003822F3503726F4503822060E3724D96EFB
:10279000000E3820DA6EEEC1DEFFEFC1DDFF010E64
:1027A0000001666F000166510001D8B423D0000E0D
:1027B00000016C6FA20E6B6F000E146E020E156E90
:1027C000FE0E00016B25166EFF0E00016C21176EC8
:1027D000BBEC43F0DCC00BF0DDC00CF0000E0D6E66
:1027E000000E0E6E020E0F6E6BC010F06CC011F07A
:1027F00091EC2CF0000164510001D8B403D028EC16
:1028000044F01200522A0001EE51340D040EF3245C
:10281000D96E020EF420DA6E5250DE5CD8B00BD0C6
:10282000000E526E0001EE2B020E0001EE6503D089
:10283000000E0001EE6F52C025F00001EE51D2EC07
:102840002EF01200D4C008F0D5C009F0000E09BE69
:10285000FF0E0A6E0B6E010E1AEC23F008C092F008
:1028600009C093F00AC094F00BC095F0680E000107
:10287000856F000E0001866F000185510001FA2569
:102880000001876F000186510001FB210001886F64
:10289000000E0001FC210001896F00018751086EC4
:1028A00000018851096E000189510A6E0B6A000E01
:1028B0001AEC23F008C08EF009C08FF00AC090F027
:1028C0000BC091F08EC03BF08FC03CF090C03DF04B
:1028D00091C03EF044EC47F03BC06DF03CC06EF060
:1028E0003DC06FF03EC070F092C071F093C072F0C6
:1028F00094C073F095C074F04FEC08F06DC092F086
:102900006EC093F06FC094F070C095F0700E00012F
:10291000856F000E0001866F000185510001FA25C8
:102920000001876F000186510001FB210001886FC3
:10293000000E0001FC210001896F00018751086E23
:1029400000018851096E000189510A6E0B6A000E60
:102950001AEC23F008C08EF009C08FF00AC090F086
:102960000BC091F08EC02FF08FC030F090C031F0CE
:1029700091C032F0000E336E000E346E7A0E356E5A
:10298000440E366E93EC0FF02FC08EF030C08FF0F7
:1029900031C090F032C091F092C016F093C017F0A1
:1029A00094C018F095C019F08EC01AF08FC01BF0BB
:1029B00090C01CF091C01DF045EC0CF016C092F0D8
:1029C00017C093F018C094F019C095F092C02FF082
:1029D00093C030F094C031F095C032F0000E336EE9
:1029E000000E346E7A0E356E440E366E93EC0FF098
:1029F0002FC092F030C093F031C094F032C095F007
:102A0000D20E00018E6F9B0E8F6F1B0E906F390ED2
:102A1000916F92C01AF093C01BF094C01CF095C047
:102A20001DF08EC016F08FC017F090C018F091C046
:102A300019F045EC0CF016C08AF017C08BF018C0E6
:102A40008CF019C08DF08AC016F08BC017F08CC0C6
:102A500018F08DC019F092C01AF093C01BF094C00A
:102A60001CF095C01DF045EC0CF016C08EF017C0A0
:102A70008FF018C090F019C091F092C06DF093C023
:102A80006EF094C06FF095C070F08EC071F08FC082
:102A900072F090C073F091C074F04FEC08F06DC00C
:102AA00092F06EC093F06FC094F070C095F092C039
:102AB00016F093C017F094C018F095C019F0000EEE
:102AC0001A6E000E1B6E7A0E1C6E440E1D6E45ECC7
:102AD0000CF016C092F017C093F018C094F019C013
:102AE00095F092C07DF093C07EF094C07FF095C0C9
:102AF00080F03EEC2AF07DC04AF17EC04BF17FC0F1
:102B00004CF180C04DF112000001646F000E000115
:102B1000666F5250D8A423D00001EE51340D040E3C
:102B2000F324D96E030EF420DA6EDF500001656FD6
:102B300054C06DF000016D5100016519D8B4FDD08D
:102B4000010E0001666F0001EE51340D040EF324F6
:102B5000D96E030EF420DA6E6DC0DFFFEED0F4C044
:102B600014F0F5C015F0F6C016F0F7C017F08CECB5
:102B700035F014C067F015C068F016C069F017C0D2
:102B80006AF00001EE51340DFC0E336EFF0E346E10
:102B90005250356E366AD89035363636D89035363E
:102BA0003636D890353636363350352634503622C0
:102BB000000E376E030E386E040E3726000E3822D4
:102BC0003550372636503822F3503724D96EF4501A
:102BD0003820DA6EDECF60F0DECF61F0DECF62F05B
:102BE000DECF63F0000167510001601910E10001C0
:102BF0006851000161190BE100016951000162197E
:102C000006E100016A5100016319D8B496D00001B1
:102C1000EE51340DFC0E336EFF0E346E5250356E95
:102C2000366AD89035363636D89035363636D8901E
:102C3000353636363350352634503622000E376E50
:102C4000030E386E040E3726000E38223550372614
:102C500036503822F3503724D96EF4503820DA6ECB
:102C600067C0DEFF68C0DEFF69C0DEFF6AC0DEFF4E
:102C70000001EE51340DFC0E336EFF0E346E5250D7
:102C8000356E366AD89035363636D8903536363683
:102C9000D890353636363350352634503622000E2D
:102CA000376E030E386E040E3726000E382235506C
:102CB000372636503822F3503726F4503822040E87
:102CC0003724D96E000E3820DA6EECC1DEFFEDC17C
:102CD000DDFF0001EE51340DFC0E336EFF0E346E3D
:102CE0005250356E366AD89035363636D8903536ED
:102CF0003636D8903536363633503526345036226F
:102D0000000E376E030E386E040E3726000E382282
:102D10003550372636503822F3503726F4503822B3
:102D2000060E3724D96E000E3820DA6EEEC1DEFFB3
:102D3000EFC1DDFF010E0001666F00016651000169
:102D4000D8B423D0000E00016C6FA20E6B6F000E82
:102D5000146E030E156EFE0E00016B25166EFF0E2F
:102D600000016C21176EBBEC43F0DCC00BF0DDC042
:102D70000CF0000E0D6E000E0E6E030E0F6E6BC08B
:102D800010F06CC011F091EC2CF0000164510001C6
:102D9000D8B403D028EC44F01200522A0001EE51BE
:102DA000340D040EF324D96E030EF420DA6E525063
:102DB000DE5CD8B002D0000E526E52C025F0000E7C
:102DC000D2EC2EF01200ABC008F0ACC009F0ADC0E0
:102DD0000AF0AEC00BF0010E1AEC23F008C0BBF0F5
:102DE00009C0BCF00AC0BDF00BC0BEF00C0E000163
:102DF000FA25F66E000EFB21F76E000EFC21F86E30
:102E00000900F5CF08F00900F5CF09F00900F5CF6A
:102E10000AF00A00F5CF0BF0000E1AEC23F008C000
:102E2000B3F009C0B4F00AC0B5F00BC0B6F0BBC037
:102E30002FF0BCC030F0BDC031F0BEC032F0B3C026
:102E400033F0B4C034F0B5C035F0B6C036F093EC12
:102E50000FF02FC0BBF030C0BCF031C0BDF032C0AD
:102E6000BEF0000E00017D6F000E7E6F800E7F6F42
:102E70003F0E806FBBC081F0BCC082F0BDC083F04C
:102E8000BEC084F029EC1EF00001D8B009D0000EBD
:102E90000001BB6F000EBC6F800EBD6F3F0EBE6F9A
:102EA000BBC0B3F0BCC0B4F0BDC0B5F0BEC0B6F09E
:102EB000130E0001896FF10E00018A6FBBC08BF009
:102EC000BCC08CF0BDC08DF0BEC08EF0000E000105
:102ED000906F650E8F6F3DEC06F089C0BBF08AC025
:102EE000BCF08BC0BDF08CC0BEF0100E0001FA2506
:102EF000F66E000EFB21F76E000EFC21F86E090045
:102F0000F5CF08F00900F5CF09F00900F5CF0AF078
:102F10000A00F5CF0BF0010E1AEC23F008C0B7F051
:102F200009C0B8F00AC0B9F00BC0BAF0B7C016F0CB
:102F3000B8C017F0B9C018F0BAC019F0BBC01AF089
:102F4000BCC01BF0BDC01CF0BEC01DF045EC0CF0B9
:102F500016C0B7F017C0B8F018C0B9F019C0BAF071
:102F6000B3C0BBF0B4C0BCF0B5C0BDF0B6C0BEF0DD
:102F70007F0E0001896FEF0E00018A6FBBC08BF0DE
:102F8000BCC08CF0BDC08DF0BEC08EF0000E000144
:102F9000906F650E8F6F3DEC06F089C0BBF08AC064
:102FA000BCF08BC0BDF08CC0BEF0140E0001FA2541
:102FB000F66E000EFB21F76E000EFC21F86E090084
:102FC000F5CF08F00900F5CF09F00900F5CF0AF0B8
:102FD0000A00F5CF0BF0010E1AEC23F008C0AFF099
:102FE00009C0B0F00AC0B1F00BC0B2F0AFC016F02B
:102FF000B0C017F0B1C018F0B2C019F0BBC01AF0E1
:10300000BCC01BF0BDC01CF0BEC01DF045EC0CF0F8
:1030100016C0AFF017C0B0F018C0B1F019C0B2F0D0
:10302000B7C06DF0B8C06EF0B9C06FF0BAC070F044
:10303000AFC071F0B0C072F0B1C073F0B2C074F044
:103040004FEC08F06DC0B7F06EC0B8F06FC0B9F0CB
:1030500070C0BAF0B7C07DF0B8C07EF0B9C07FF0E4
:10306000BAC080F03EEC2AF07DC0ABF07EC0ACF080
:103070007FC0ADF080C0AEF01200D8C008F0D9C05B
:1030800009F0000E09BEFF0E0A6E0B6E010E1AEC5F
:1030900023F008C08DF009C08EF00AC08FF00BC07D
:1030A00090F0600E0001FA25F66E000EFB21F76E1F
:1030B000000EFC21F86E0900F5CF08F00900F5CFED
:1030C00009F00900F5CF0AF00A00F5CF0BF0000E69
:1030D0001AEC23F008C089F009C08AF00AC08BF00E
:1030E0000BC08CF089C03BF08AC03CF08BC03DF037
:1030F0008CC03EF044EC47F03BC06DF03CC06EF03D
:103100003DC06FF03EC070F08DC071F08EC072F0A7
:103110008FC073F090C074F04FEC08F06DC08DF06C
:103120006EC08EF06FC08FF070C090F0640E000122
:10313000FA25F66E000EFB21F76E000EFC21F86EEC
:103140000900F5CF08F00900F5CF09F00900F5CF27
:103150000AF00A00F5CF0BF0000E1AEC23F008C0BD
:1031600089F009C08AF00AC08BF00BC08CF089C0CE
:103170002FF08AC030F08BC031F08CC032F0000EDE
:10318000336E000E346E7A0E356E440E366E93EC4E
:103190000FF02FC089F030C08AF031C08BF032C000
:1031A0008CF08DC016F08EC017F08FC018F090C054
:1031B00019F089C01AF08AC01BF08BC01CF08CC0BB
:1031C0001DF045EC0CF016C08DF017C08EF018C045
:1031D0008FF019C090F08DC02FF08EC030F08FC0EE
:1031E00031F090C032F0000E336E000E346E7A0E65
:1031F000356E440E366E93EC0FF02FC08DF030C05C
:103200008EF031C08FF032C090F0D20E0001896F85
:103210009B0E8A6F1B0E8B6F390E8C6F8DC01AF050
:103220008EC01BF08FC01CF090C01DF089C016F03E
:103230008AC017F08BC018F08CC019F045EC0CF068
:1032400016C085F017C086F018C087F019C088F046
:1032500085C016F086C017F087C018F088C019F036
:103260008DC01AF08EC01BF08FC01CF090C01DF0F6
:1032700045EC0CF016C089F017C08AF018C08BF02E
:1032800019C08CF08DC06DF08EC06EF08FC06FF0E5
:1032900090C070F089C071F08AC072F08BC073F07A
:1032A0008CC074F04FEC08F06DC08DF06EC08EF0E5
:1032B0006FC08FF070C090F08DC016F08EC017F008
:1032C0008FC018F090C019F0000E1A6E000E1B6E21
:1032D0007A0E1C6E440E1D6E45EC0CF016C08DF07F
:1032E00017C08EF018C08FF019C090F08DC07DF01F
:1032F0008EC07EF08FC07FF090C080F03EEC2AF050
:103300007DC04EF17EC04FF17FC050F180C051F1C1
:1033100012000001906F010E0001906501D01200B3
:1033200000019051020D5A0EF324D96E010EF420C3
:10333000DA6EDECF08F0DDCF09F0000E09BEFF0E19
:103340000A6E0B6E010E1AEC23F008C088F009C05B
:1033500089F00AC08AF00BC08BF000019051040D77
:10336000680EF326000EF422F3500001FA25000146
:10337000856FF4500001FB210001866F000E0001F3
:10338000FC210001876F85C0F6FF86C0F7FF87C06C
:10339000F8FF0900F5CF08F00900F5CF09F00900A2
:1033A000F5CF0AF00A00F5CF0BF0000E1AEC23F06F
:1033B00008C08CF009C08DF00AC08EF00BC08FF0F1
:1033C0008CC03BF08DC03CF08EC03DF08FC03EF015
:1033D00044EC47F03BC06DF03CC06EF03DC06FF078
:1033E0003EC070F088C071F089C072F08AC073F07E
:1033F0008BC074F04FEC08F06DC088F06EC089F09F
:103400006FC08AF070C08BF000019051040D700EF7
:10341000F326000EF422F3500001FA250001856F17
:10342000F4500001FB210001866F000E0001FC2119
:103430000001876F85C0F6FF86C0F7FF87C0F8FFE1
:103440000900F5CF08F00900F5CF09F00900F5CF24
:103450000AF00A00F5CF0BF0000E1AEC23F008C0BA
:103460008CF009C08DF00AC08EF00BC08FF08CC0BC
:103470002FF08DC030F08EC031F08FC032F0000ED2
:10348000336E000E346E7A0E356E440E366E93EC4B
:103490000FF02FC08CF030C08DF031C08EF032C0F4
:1034A0008FF088C016F089C017F08AC018F08BC062
:1034B00019F08CC01AF08DC01BF08EC01CF08FC0AC
:1034C0001DF045EC0CF016C088F017C089F018C04C
:1034D0008AF019C08BF088C07DF089C07EF08AC068
:1034E0007FF08BC080F03EEC2AF000019051040D7B
:1034F0002B0EF324D96E010EF420DA6E00017DC08C
:10350000DEFF00017EC0DEFF00017FC0DEFF0001A4
:1035100080C0DEFF1200000120EE0CF08551D9269C
:103520008651DA22DECF08F0DECF09F0DECF0AF0D6
:10353000DECF0BF0000E1AEC23F008C09DF009C09E
:103540009EF00AC09FF00BC0A0F0000120EE08F032
:103550008551D9268651DA22DECF08F0DECF09F078
:10356000DECF0AF0DECF0BF0010E1AEC23F008C01C
:1035700095F009C096F00AC097F00BC098F0000EC5
:10358000336E000E346E7A0E356E440E366E9DC06C
:103590002FF09EC030F09FC031F0A0C032F093EC0D
:1035A0000FF02FC089F030C08AF031C08BF032C0EC
:1035B0008CF089C02FF08AC030F08BC031F08CC005
:1035C00032F0000E336E000E346E000E356E400E7B
:1035D000366E93EC0FF02FC09DF030C09EF031C0DE
:1035E0009FF032C0A0F095C02FF096C030F097C089
:1035F00031F098C032F0000E336E000E346E7A0E49
:10360000356E440E366E93EC0FF02FC095F030C03F
:1036100096F031C097F032C098F09DC01AF09EC06D
:103620001BF09FC01CF0A0C01DF09DC016F09EC0F6
:1036300017F09FC018F0A0C019F045EC0CF016C0B0
:103640008DF017C08EF018C08FF019C090F095C0A3
:103650001AF096C01BF097C01CF098C01DF08DC0EA
:1036600016F08EC017F08FC018F090C019F045EC1E
:103670000CF016C091F017C092F018C093F019C06A
:1036800094F091C016F092C017F093C018F094C057
:1036900019F0F90E1A6E0F0E1B6E490E1C6E400EBD
:1036A0001D6E45EC0CF016C099F017C09AF018C0CA
:1036B0009BF019C09CF099C016F09AC017F09BC0FF
:1036C00018F09CC019F0000E1A6E000E1B6E7A0ED8
:1036D0001C6E440E1D6E45EC0CF016C099F017C020
:1036E0009AF018C09BF019C09CF099C07DF09AC068
:1036F0007EF09BC07FF09CC080F03EEC2AF07DC045
:1037000085F07EC086F07FC087F080C088F0120010
:1037100021C0D9FF22C0DAFFDECF30F0DDCF31F09B
:10372000260E086E000E096E1FC00AF020C00BF0B6
:10373000CCEC3DF020EE03F02150D9262250DA22C5
:10374000DF50D8A45CD0100E305C270E3158D8A0C2
:1037500004D0270E316E0F0E306E2A0E106E000E42
:10376000116E30C012F031C013F004EC25F0260EBB
:10377000086E000E096E080E0A6ED7EC42F020EEBD
:1037800002F02150D9262250DA22DF50326E010E8B
:10379000196E3250040FABEC40F0040E236005D0DC
:1037A00023500008030F236E60D0040E2318D8A402
:1037B0000ED00F015FB799D00001F151D8A495D078
:1037C000000E196E3250040FABEC40F08ED00F019A
:1037D0005FB78BD00001F151D8A487D02A0E086EB4
:1037E000000E096E880E0A6EF30E0B6ECCEC3DF0E7
:1037F000000E196E3250040FABEC40F076D023501F
:10380000D8B41200100E305C270E3158D8A004D066
:10381000270E316E0F0E306E2B0E106E000E116ED5
:1038200030C012F031C013F004EC25F02D0E2A6EDA
:10383000260E086E000E096E080E0A6ED7EC42F0D6
:1038400020EE02F02150D9262250DA22DF50326ECB
:10385000010E196E3250050FABEC40F0040E2360E0
:103860001BD023500008040F9ED70F015FB73DD037
:103870000001F151D8A439D02350246E256A040EDA
:103880002426000E2522260E2424D96E000E252083
:10389000DA6E200EDF6E29D0040E2318D8A40ED0C5
:1038A0000F015FB722D00001F151D8A41ED0000E45
:1038B000196E3250050FABEC40F017D00F015FB717
:1038C00014D00001F151D8A410D02A0E086E000EB9
:1038D000096E880E0A6EF30E0B6ECCEC3DF0000EF6
:1038E000196E3250050FABEC40F0260E1C6E000E28
:1038F0001D6E5CEC3FF08DEC3FF01200000E326E5E
:10390000000E336E000E346E000E356E030E246012
:10391000D0D0000E236E000E226E120022C0D9FFFE
:1039200023C0DAFFDECF2EF0DDCF2FF02EC030F037
:103930002FC031F0000E326E000E336E000E346E6A
:10394000000E356E000E366E5ED03650020DF3500E
:103950002224D96EF4502320DA6E3050DE5CDE5023
:10396000800A286E3150800A2858D8B00ED03650C0
:10397000020DF3502224D96EF4502320DA6EDECFEC
:1039800030F0DDCF31F036C02DF03650020DF3505F
:103990002224D96EF4502320DA6EDE502E5C2F5094
:1039A000800A286EDE50800A2858D8B00ED03650D3
:1039B000020DF3502224D96EF4502320DA6EDECFAC
:1039C0002EF0DDCF2FF036C02CF03650020DF35024
:1039D0002224D96EF4502320DA6EDECF26F0DDCF1C
:1039E00027F026C028F027C029F0000E29BEFF0EC0
:1039F0002A6E2B6E28503226295033222A50342228
:103A00002B503522362A2450365CD8A09ED7305011
:103A10002E24266E31502F20276E286A27BE2806B6
:103A20002850296E2650325E2750335A2850345A77
:103A30002950355A32C014F033C015F034C016F096
:103A400035C017F0FE0E266EFF0E276E2450286E2E
:103A5000296A265028262750292228C018F029C074
:103A600019F0000E19BEFF0E1A6E1B6E40EC2FF0FF
:103A700014C032F015C033F016C034F017C035F062
:103A80002D50020DF3502224D96EF4502320DA6E0B
:103A900032C0DEFF33C0DDFF2C50020DF350222474
:103AA000D96EF4502320DA6E32C0DEFF33C0DDFF62
:103AB00025062550D8A432D732C022F033C023F0D7
:103AC0001200000E116E000E106E20EE06F00C506B
:103AD000D9260D50DA2201D80AD00500FA6EDE5040
:103AE000FD6EDE50FE6EF850FF6EFA50120020EEB2
:103AF0000AF00C50D9260D50DA2201D811D0050059
:103B0000FA6EDE50FD6EDE50FE6EF850FF6EFA501B
:103B100020EE01F00C50D9260D50DA22DF501200B1
:103B200020EE0AF00C50D9260D50DA2201D80BD025
:103B30000500FA6EDE50FD6EDE50FE6EF850FF6E30
:103B4000FA500E50120020EE08F00C50D9260D50FD
:103B5000DA2201D80AD00500FA6EDE50FD6EDE5082
:103B6000FE6EF850FF6EFA50120020EE06F00C5078
:103B7000D9260D50DA2201D80AD00500FA6EDE509F
:103B8000FD6EDE50FE6EF850FF6EFA50120020EE11
:103B90000AF00C50D9260D50DA2201D813D00500B6
:103BA000FA6EDE50FD6EDE50FE6EF850FF6EFA507B
:103BB00020EE01F00C50D9260D50DA22DF500F6EA6
:103BC0000F28120020EE0EF00C50D9260D50DA22EC
:103BD00001D80BD00500FA6EDE50FD6EDE50FE6E91
:103BE000F850FF6EFA50000E12000F6E0F50106E5C
:103BF000116A1050116E106A20EE0EF00C50D9268A
:103C00000D50DA2201D80BD00500FA6EDE50FD6EA1
:103C1000DE50FE6EF850FF6EFA50000E12000F6E6E
:103C20000F50101220EE08F00C50D9260D50DA2259
:103C300001D80AD00500FA6EDE50FD6EDE50FE6E31
:103C4000F850FF6EFA50120010C00CF011C00DF0C9
:103C50001200000E00017D150001856F000E0001AD
:103C60007E150001866F800E00017F150001876FB1
:103C70007F0E000180150001886F00018551000151
:103C800086110001871100018811D8A409D0000E07
:103C900000017D6F000E7E6F000E7F6F000E806F43
:103CA000000E000181150001856F000E00018215D4
:103CB0000001866F800E000183150001876F7F0E63
:103CC000000184150001886F0001855100018611F3
:103CD0000001871100018811D8A409D0000E00014D
:103CE000816F000E826F000E836F000E846F0001E3
:103CF00080AF26D07DC085F07EC086F07FC087F083
:103D000080C088F00001851F861F871F881F852BB4
:103D1000000E862387238823000E000185250001DD
:103D20007D6F000E0001862100017E6F000E0001F4
:103D3000872100017F6F800E000188210001806FC4
:103D4000000184AF26D081C085F082C086F083C098
:103D500087F084C088F00001851F861F871F881F99
:103D6000852B000E862387238823000E00018525DE
:103D70000001816F000E000186210001826F000E9C
:103D8000000187210001836F800E0001882100015E
:103D9000846F000E00017D1B000E7E1B000E7F1B3A
:103DA000800E801B000E0001811B000E821B000E86
:103DB000831B800E841B0001815100017D5D000189
:103DC000825100017E590001835100017F59000199
:103DD000845100018059D8B002D0D8901200D88008
:103DE000120020EE01F00C50D9260D50DA2201D835
:103DF0000AD00500FA6EDE50FD6EDE50FE6EF85001
:103E0000FF6EFA50120020EE05F00C50D9260D502E
:103E1000DA2201D80FD00500FA6EDE50FD6EDE50BA
:103E2000FE6EF850FF6EFA500CC0D9FF0DC0DAFFDD
:103E3000DF50120020EE05F00C50D9260D50DA228A
:103E400001D80BD00500FA6EDE50FD6EDE50FE6E1E
:103E5000F850FF6EFA500E50120020EE01F00C5098
:103E6000D9260D50DA2201D80AD00500FA6EDE50AC
:103E7000FD6EDE50FE6EF850FF6EFA50120020EE1E
:103E800005F00C50D9260D50DA2201D811D00500CA
:103E9000FA6EDE50FD6EDE50FE6EF850FF6EFA5088
:103EA0000CC0D9FF0DC0DAFFDF50136E13281200CB
:103EB000000E186E000E176E1CD020EE09F00C508C
:103EC000D9260D50DA2201D80BD00500FA6EDE504B
:103ED000FD6EDE50FE6EF850FF6EFA50000E1200BE
:103EE0000FC0D9FF10C0DAFFDF6E0F4A102A174A41
:103EF000182AFF0E136EFF0E146E11C015F012C0BB
:103F000016F013501526145016221550175C165033
:103F10001858D8A0D2D720EE09F00C50D9260D5051
:103F2000DA2201D80BD00500FA6EDE50FD6EDE50AD
:103F3000FE6EF850FF6EFA50010E12000FC0D9FF4E
:103F400010C0DAFFDF6E20EE03F00C50D9260D50C2
:103F5000DA2201D812000500FA6EDE50FD6EDE5046
:103F6000FE6EF850FF6EFA501200030E0201006F51
:103F7000000E186E020E186401D012001850340D95
:103F8000040EF324D96E020EF420DA6E060EDF6EF4
:103F9000000E176E050E176401D09DD017C00BF0F0
:103FA0000C6A170E0E6E700E0D6EADEC48F00BC065
:103FB00011F00CC012F018C00BF00C6A010E0E6E5E
:103FC000F40E0D6EADEC48F00B5011260C50122281
:103FD0001750080D040EF326000EF422000E136E87
:103FE000020E146E040E1326000E1422F350132634
:103FF000F45014221850340DF3501326F4501422A8
:10400000040E1324D96E000E1420DA6E11C0DEFFE8
:1040100012C0DDFF17C00BF00C6A170E0E6E700E8B
:104020000D6EADEC48F00BC011F00CC012F0000E9C
:1040300012BEFF0E136E146E1750080D040EF326F9
:10404000000EF422000E156E020E166E040E1526DA
:10405000000E1622F3501526F45016221850340D77
:10406000F3501524D96EF4501620DA6E11C0DEFF1D
:1040700012C0DEFF13C0DEFF14C0DEFF18C00BF05D
:104080000C6A030E0E6EE80E0D6EADEC48F0175084
:10409000080D040EF326000EF422000E116E020E1F
:1040A000126E040E1126000E1222F3501126F45047
:1040B00012221850340DF3501126F4501222060E1D
:1040C0001124D96E000E1220DA6E0BC0DEFF0CC078
:1040D000DDFF172A5FD7182A4DD7000120EE0CF01C
:1040E0008551D9268651DA22DECF08F0DECF09F0DD
:1040F000DECF0AF0DECF0BF0000E1AEC23F008C082
:1041000095F009C096F00AC097F00BC098F095C0E2
:104110002FF096C030F097C031F098C032F0000E0A
:10412000336E000E346E7A0E356E440E366E93EC9E
:104130000FF02FC095F030C096F031C097F032C02C
:1041400098F095C01AF096C01BF097C01CF098C06C
:104150001DF095C016F096C017F097C018F098C0E3
:1041600019F045EC0CF016C089F017C08AF018C0A1
:104170008BF019C08CF095C01AF096C01BF097C058
:104180001CF098C01DF089C016F08AC017F08BC0D3
:1041900018F08CC019F045EC0CF016C08DF017C06B
:1041A0008EF018C08FF019C090F08DC016F08EC040
:1041B00017F08FC018F090C019F0A60E1A6E0A0EF4
:1041C0001B6E860E1C6E3E0E1D6E45EC0CF016C06E
:1041D00091F017C092F018C093F019C094F091C0FC
:1041E00016F092C017F093C018F094C019F0000EAA
:1041F0001A6E000E1B6E7A0E1C6E440E1D6E45EC80
:104200000CF016C091F017C092F018C093F019C0CE
:1042100094F091C07DF092C07EF093C07FF094C086
:1042200080F03EEC2AF07DC085F07EC086F07FC035
:1042300087F080C088F01200010E0301006F000EAD
:10424000176E1750D8A412001750340D040EF32423
:10425000D96E030EF420DA6E060EDF6E000E186EB5
:10426000050E186401D094D018C00BF00C6A170E1C
:104270000E6E700E0D6EADEC48F00BC011F00CC060
:1042800012F017C00BF00C6A010E0E6EF40E0D6EDC
:10429000ADEC48F00B5011260C5012221850080DAE
:1042A000040EF326000EF422000E136E030E146E9D
:1042B000040E1326000E1422F3501326F450142279
:1042C0001750340DF3501326F4501422040E132407
:1042D000D96E000E1420DA6E11C0DEFF12C0DDFFB1
:1042E00018C00BF00C6A170E0E6E700E0D6EADEC52
:1042F00048F00BC011F00CC012F0000E12BEFF0E01
:10430000136E146E1850080D040EF326000EF422DE
:10431000000E156E030E166E040E1526000E1622E4
:10432000F3501526F45016221750340DF35015246F
:10433000D96EF4501620DA6E11C0DEFF12C0DEFF17
:1043400013C0DEFF14C0DEFF1850080D040EF32664
:10435000000EF422000E116E030E126E040E1126D2
:10436000000E1222F3501126F45012221750340D71
:10437000F3501126F4501222060E1124D96E000EAD
:104380001220DA6E000EDE6E000EDD6E182A68D77F
:10439000172A57D7000E326E0A0E0001CA27000EE8
:1043A000CB230001CB5107E1640E0001CA5DD8B0F8
:1043B00002D0000E1200000E0001CB6F000ECA6F7B
:1043C0000001E951D8A415D0040E0001EA6FCEC057
:1043D00008F0CFC009F0EAC00AF0F2EC48F0CEC015
:1043E00010F0CFC011F03BEC48F00001E92B010EBA
:1043F0001200CEC012F0CFC013F0F3EC44F012C0A4
:1044000033F013C034F0040E0001EA19D8A412D01E
:10441000C80E226E010E236E33C024F034C025F086
:10442000040E266EC3EC26F022C0D4F023C0D5F0D3
:10443000050E3CD0050E0001EA19D8A41BD0C00E11
:10444000226E010E236E33C024F034C025F0040E1A
:10445000266EC3EC26F022C033F023C034F0D8908F
:104460003336343633500001D45F34500001D55B0D
:10447000030E1CD0030E0001EA19D8A416D0B80E02
:10448000226E010E236E33C024F034C025F0040EDA
:10449000266EC3EC26F022C0D6F023C0D7F0040E5F
:1044A0000001EA6F0001E92B03D0040E0001EA6F5E
:1044B000CEC008F0CFC009F0EAC00AF0F2EC48F034
:1044C000CEC010F0CFC011F03BEC48F0040E00015C
:1044D000E96506D0010E0001E86F000E0001E96FEA
:1044E000010E1200000E0001A46F040E0001A56F62
:1044F000A4C0A2F0A5C0A3F0000E086EF40E096ED1
:10450000000E0A6E000E0B6EA4C00CF0A5C00DF0DC
:10451000000E0F6E9C0E0E6E33EC3EF0A4C014F035
:10452000A5C015F0000E176E9C0E166EBEEC3FF087
:104530000001A16F0001A1510001D8A41200A4C084
:1045400008F0A5C009F0A70E0A6EF20E0B6E000E61
:104550000D6E9C0E0C6E8FEC44F0A2C085F0A3C0D3
:1045600086F08BEC1AF0000120EE10F0A251D92653
:10457000A351DA22000185C0DEFF000186C0DEFF04
:10458000000187C0DEFF000188C0DEFFA2C085F009
:10459000A3C086F06DEC20F0000120EE14F0A251D3
:1045A000D926A351DA22000185C0DEFF000186C0B2
:1045B000DEFF000187C0DEFF000188C0DEFFA4C06F
:1045C00014F0A5C015F0000E176E9A0E166EBBEC17
:1045D00043F0000E166EF40E176E000E186E000EED
:1045E000196EA4C01AF0A5C01BF0000E1D6E9C0E23
:1045F0001C6E07EC2DF0000E086EF40E096E000E16
:104600000A6E000E0B6EA4C00CF0A5C00DF0000EDB
:104610000F6E9C0E0E6E33EC3EF0A4C014F0A5C0DD
:1046200015F0000E176E9C0E166EBEEC3FF00001EA
:10463000A16F1200106E1050D8A40BAE1AD008C093
:104640000CF009C00DF00AC00EF00BC00FF00C1EEC
:104650000D1E0E1E0F1E0C2A000E0D220E220F2202
:104660000CC012F00DC013F00EC014F00FC015F006
:1046700008D008C012F009C013F00AC014F00BC033
:1046800015F0085009100A100B10D8A409D0000E1C
:10469000086E000E096E000E0A6E000E0B6E120000
:1046A000960E116E06D0112AD8901532143213329C
:1046B0001232000E12140C6E000E13140D6E000E4A
:1046C00014140E6EFE0E15140F6E0C500D100E10FD
:1046D0000F10D8B40DD0E7D7112A010E1226000E04
:1046E000132214221522D8901532143213321232AA
:1046F000000E12140C6E000E13140D6E000E141426
:104700000E6EFF0E15140F6E0C500D100E100F10C4
:10471000D8B407D0E1D71106D89012361336143624
:10472000153614BE03D0020E1160F5D711B008D0B3
:10473000FF0E1216FF0E13167F0E1416FF0E15161F
:10474000D890113211C00CF00D6A0E6A0F6A0CC0BD
:104750000FF00E6A0D6A0C6A0C5012120D501312F3
:104760000E5014120F5015121050D8A40BAE01D0D9
:10477000158E12C008F013C009F014C00AF015C05D
:104780000BF012000A0E0001C827000EC923000119
:10479000C95107E1640E0001C85DD8B002D0000E17
:1047A0001200000E0001C96F000EC86F0001E75132
:1047B000D8A40AD0C0EC48F0020E0001E66F010E4A
:1047C0000001E76F010E1200020E0001E619D8A4E5
:1047D0001AD00001E6517DEC40F00CC032F00DC063
:1047E00033F0B00E226E010E236E32C024F033C0BF
:1047F00025F0040E266EC3EC26F022C05AF123C029
:104800005BF1010E58D00001E605D8A41AD00001D2
:10481000E6517DEC40F00CC032F00DC033F0A80E34
:10482000226E010E236E32C024F033C025F0040E38
:10483000266EC3EC26F022C05CF123C05DF1000EB1
:104840003AD00001E651D8A416D00001E6517DEC23
:1048500040F00CC032F00DC033F0A00E226E010EFD
:10486000236E32C024F033C025F0040E266EC3EC54
:1048700026F0030E20D0030E0001E619D8A41AD0AA
:104880000001E6517DEC40F00CC032F00DC033F079
:10489000980E226E010E236E32C024F033C025F034
:1048A000040E266EC3EC26F0020E0001E66F000136
:1048B000E72B03D0020E0001E66F040E0001E7654E
:1048C00006D0010E0001E56F000E0001E76F010E3A
:1048D00012000A0E0001CC27000ECD230001CD519D
:1048E00007E1640E0001CC5DD8B002D0000E1200CA
:1048F000000E0001CD6F000ECC6F0001ED51D8A469
:1049000016D0000E0001EC6FD0C008F0D1C009F045
:10491000ECC00AF0F2EC48F0D0C010F0D1C011F0B9
:104920003BEC48F0010E0001ED6F010E1200D0C00B
:1049300012F0D1C013F0F3EC44F012C039F013C000
:104940003AF00001EC51D8A40ED0E00E226E010E18
:10495000236E39C024F03AC025F0040E266EC3EC55
:1049600026F0030E2FD0030E0001EC19D8A40ED0B0
:10497000D80E226E010E236E39C024F03AC025F005
:10498000040E266EC3EC26F0050E1CD0050E0001A9
:10499000EC19D8A416D0D00E226E010E236E39C0A9
:1049A00024F03AC025F0040E266EC3EC26F022C097
:1049B000D8F023C0D9F0000E0001EC6F0001ED2B00
:1049C00003D0000E0001EC6FD0C008F0D1C009F098
:1049D000ECC00AF0F2EC48F0D0C010F0D1C011F0F9
:1049E0003BEC48F0040E0001ED650CD0E80E376E8C
:1049F000010E386EFAEC3EF0010E0001EB6F000E76
:104A00000001ED6F010E120013BE0AD0100E125CF1
:104A1000270E1358D8A004D0270E136E0F0E126E57
:104A200012C008F013C009F0000E0B6E0A0E0A6ED9
:104A3000BBEC3CF06E0E0824F66EEF0E0920F76E0C
:104A400020EE03F01050D9261150DA220800F5CFDD
:104A5000DFFF12C008F013C009F0000E0B6E0A0E43
:104A60000A6E1AEC38F008C012F009C013F012C038
:104A700008F013C009F0000E0B6E0A0E0A6EBBECB4
:104A80003CF06E0E0824F66EEF0E0920F76E20EE55
:104A900002F01050D9261150DA220800F5CFDFFFBE
:104AA00012C008F013C009F0000E0B6E0A0E0A6E59
:104AB0001AEC38F008C012F009C013F012C008F068
:104AC00013C009F0000E0B6E0A0E0A6EBBEC3CF030
:104AD0006E0E0824F66EEF0E0920F76E20EE01F040
:104AE0001050D9261150DA220800F5CFDFFF12C08E
:104AF00008F013C009F0000E0B6E0A0E0A6E1AECD5
:104B000038F008C012F009C013F012C008F013C04A
:104B100009F0000E0B6E0A0E0A6EBBEC3CF06E0E36
:104B20000824F66EEF0E0920F76E10C0D9FF11C0F1
:104B3000DAFF0800F5CFDFFF12000001A46F000EBE
:104B40000001AB6F040E0001AC6F000E086EF40E96
:104B5000096E000E0A6E000E0B6E000E0C6E040E37
:104B60000D6E000E0F6E9C0E0E6E33EC3EF04CD0B0
:104B7000540E0001A56F000E0001A66FA5C0D9FF5D
:104B8000A6C0DAFF000100EE04F0AB51E926AC51FB
:104B9000EA22DFCFEFFF42D0F4C014F0F5C015F0E9
:104BA000F6C016F0F7C017F08CEC35F014C0A7F083
:104BB00015C0A8F016C0A9F017C0AAF0000120EE99
:104BC00008F015D0F4C014F0F5C015F0F6C016F0DA
:104BD000F7C017F08CEC35F014C0A7F015C0A8F0A2
:104BE00016C0A9F017C0AAF0000120EE0CF0AB51DE
:104BF000D926AC51DA22A7C0DEFFA8C0DEFFA9C0CB
:104C0000DEFFAAC0DEFF0AD05350000AD8B4B0D7E6
:104C1000010AD8B4C1D7030AD8B4D4D70001A4512B
:104C20000001D8B403D028EC44F01200A5EC2BF01E
:104C3000532A020E53640CD0000E536E09D062EC5E
:104C400046F0120098EC3EF01200C9EC3EF0120063
:104C50005350000AD8B4F3D7010AD8B4F3D7030AE3
:104C6000D8A41200F2D7E80E0201D86F010E02019B
:104C7000D96F6A0E086E010E096E000E0A6E180ECC
:104C80000B6E67EC49F0000E0201DA6F000E0201B4
:104C9000DA6F20D00201DA51340D040EF324020140
:104CA000D66F020EF4200201D76FD6C222F0D7C20F
:104CB00023F0D8C224F0D9C225F00201DA51080D40
:104CC0006A0EF324266E010EF420276E56EC0AF0CD
:104CD0000201DA2B020100510201DA5DD8A0DAD715
:104CE0006A0E226E010E236ED8C224F0D9C225F0BE
:104CF000DAC226F0EDEC0DF0D8C2D9FFD9C2DAFF46
:104D0000DECFC4F0DECFC5F0DECFC6F0DECFC7F019
:104D1000D8C285F0D9C286F02EEC2BF0040E00012B
:104D2000FA25F66E000EFB21F76E000EFC21F86EE0
:104D30000800F5500009D8A413D0C0C0ABF0C1C022
:104D4000ACF0C2C0ADF0C3C0AEF0E3EC16F0ABC047
:104D500052F1ACC053F1ADC054F1AEC055F11200E8
:104D6000C0C0ABF0C1C0ACF0C2C0ADF0C3C0AEF0CB
:104D700042EC00F0ABC052F1ACC053F1ADC054F105
:104D8000AEC055F11200000E2D6E000E2E6E000EFC
:104D90002F6E000E306E2604316E3150D8B43FD0E5
:104DA000FE0E276EFF0E286E3150296E2A6AD890AB
:104DB00029362A362750292628502A2229502224EB
:104DC000D96E2A502320DA6E3150020DF35022247E
:104DD000E96EF4502320EA6EDECFEEFFDDCFEDFF6B
:104DE0003150020DF3502224D96EF4502320DA6E94
:104DF000DECF27F0DDCF28F027C029F028C02AF029
:104E0000000E2ABEFF0E2B6E2C6E29502D262A5026
:104E10002E222B502F222C5030223106BED731505B
:104E2000020DF3502224D96EF4502320DA6E24C0F0
:104E3000DEFF25C0DDFF24C027F025C028F0000ECE
:104E400028BEFF0E296E2A6E27502D2628502E22AE
:104E500029502F222A5030222DC014F02EC015F0D8
:104E60002FC016F030C017F02650186E196A1A6A53
:104E70001B6A40EC2FF014C02DF015C02EF016C0A8
:104E80002FF017C030F02DC022F02EC023F01200FA
:104E9000000E1E6E000E216E030E226E820E0001A9
:104EA000DA6F010E0001DB6FDAC008F0DBC009F039
:104EB000AA0E0A6E4AEC3CF0000E206EA20E1F6E87
:104EC000DAC00CF0DBC00DF0000E0E6E21C00FF04A
:104ED00022C010F01FC011F020C012F0F1EC1EF043
:104EE00021C014F022C015F01FC016F020C017F02A
:104EF000BEEC3FF01E6E1E50D8A412001CEC21F038
:104F000021C014F022C015F0FE0E1F24166EFF0EF5
:104F10002020176EBBEC43F0DAC00BF0DBC00CF0C6
:104F2000000E0D6E21C00EF022C00FF01FC010F059
:104F300020C011F091EC2CF0DAC00CF0DBC00DF0C9
:104F4000000E0E6E21C00FF022C010F01FC011F035
:104F500020C012F0F1EC1EF021C014F022C015F0B8
:104F60001FC016F020C017F0BEEC3FF01E6E1E50A2
:104F7000D8A412001CEC21F021C014F022C015F0BE
:104F8000FE0E1F24166EFF0E2020176EBBEC43F0A2
:104F90001200000E1E6E000E216E020E226E8D0E8D
:104FA0000001DC6F010E0001DD6FDCC008F0DDC028
:104FB00009F0AC0E0A6E4AEC3CF0000E206EA20E18
:104FC0001F6EDCC00CF0DDC00DF0000E0E6E21C0B7
:104FD0000FF022C010F01FC011F020C012F0F1EC51
:104FE0001EF021C014F022C015F01FC016F020C022
:104FF00017F0BEEC3FF01E6E1E50D8A41200B5ECA8
:105000001FF021C014F022C015F0FE0E1F24166EF2
:10501000FF0E2020176EBBEC43F0DCC00BF0DDC0B0
:105020000CF0000E0D6E21C00EF022C00FF01FC05C
:1050300010F020C011F091EC2CF0DCC00CF0DDC0C1
:105040000DF0000E0E6E21C00FF022C010F01FC038
:1050500011F020C012F0F1EC1EF021C014F022C0BB
:1050600015F01FC016F020C017F0BEEC3FF01E6E0A
:105070001E50D8A41200B5EC1FF021C014F022C0BD
:1050800015F0FE0E1F24166EFF0E2020176EBBECCF
:1050900043F012000001A66F000E0001AB6F040E7A
:1050A0000001AC6F000E086EF40E096E000E0A6E61
:1050B000000E0B6E000E0C6E040E0D6E000E0F6EC9
:1050C0009C0E0E6E33EC3EF0F4C014F0F5C015F0FB
:1050D000F6C016F0F7C017F08CEC35F014C0A7F04E
:1050E00015C0A8F016C0A9F017C0AAF030D05350D0
:1050F000040D680EF326000EF422F3500001AB25D8
:10510000D96EF45018D053500001A46FA56B000164
:10511000D890A437A5370001D890A437A537680EDA
:105120000001A427000EA5230001A4510001AB2516
:10513000D96E0001A5510001AC21DA6EA7C0DEFFD7
:10514000A8C0DEFFA9C0DEFFAAC0DEFF0DD053500D
:10515000000AD8B4CCD7010AD8B4C9D7030AD8B446
:10516000D2D7010AD8B4CFD7A5EC2BF00001A651B5
:105170000001D8B403D028EC44F01200532A030EE7
:10518000536402D0000E536E5350E7EC31F012001E
:105190000001A66F000E0001AB6F040E0001AC6FA2
:1051A000000E086EF40E096E000E0A6E000E0B6EF5
:1051B000000E0C6E040E0D6E000E0F6E9C0E0E6E29
:1051C00033EC3EF0F4C014F0F5C015F0F6C016F064
:1051D000F7C017F08CEC35F014C0A7F015C0A8F09C
:1051E00016C0A9F017C0AAF030D05350040D780EA5
:1051F000F326000EF422F3500001AB25D96EF450D3
:1052000018D053500001A46FA56B0001D890A437AB
:10521000A5370001D890A437A537780E0001A42740
:10522000000EA5230001A4510001AB25D96E000199
:10523000A5510001AC21DA6EA7C0DEFFA8C0DEFFD9
:10524000A9C0DEFFAAC0DEFF0DD05350000AD8B4BB
:10525000CCD7010AD8B4C9D7030AD8B4D2D7010A27
:10526000D8B4CFD7A5EC2BF00001A6510001D8B4DB
:1052700003D028EC44F01200532A030E536402D0EA
:10528000000E536E535091EC39F01200010E216460
:1052900001D012001FC0D9FF20C0DAFFDECF2EF0F0
:1052A000DDCF2FF020EE03F01F50D9262050DA2258
:1052B000DF50D8B425D02EC00BF02FC00CF0000E5C
:1052C0000E6E0A0E0D6E85EC42F00BC02EF00CC077
:1052D0002FF0E80E2E5C030E2F58D8A004D0030E3A
:1052E0002F6EE70E2E6E230E106E000E116E2EC066
:1052F00012F02FC013F004EC25F02D0E236E14D005
:10530000100E2E5C270E2F58D8A004D0270E2F6E1B
:105310000F0E2E6E230E106E000E116E2EC012F0A8
:105320002FC013F004EC25F0000E286E2150D8A4F5
:1053300007D0230E1C6E000E1D6E2BEC3FF006D026
:10534000230E1C6E000E1D6E99EC46F020EE03F04D
:105350001F50D9262050DA22DF50226E20EE02F0B4
:105360001F50D9262050DA22DF5022242D6E030E42
:105370002D601200010E196E2150040DF3502D24E2
:10538000ABEC40F012000001A66F000E0001AB6F05
:10539000040E0001AC6F000E086EF40E096E000ED4
:1053A0000A6E000E0B6E000E0C6E040E0D6E000EDB
:1053B0000F6E9C0E0E6E33EC3EF0F4C014F0F5C090
:1053C00015F0F6C016F0F7C017F08CEC35F014C0ED
:1053D000A7F015C0A8F016C0A9F017C0AAF0040ED7
:1053E00053600ED053500C0D1C0EF326000EF42209
:1053F000F3500001AB25D96EF4500001AC2121D04F
:10540000FC0E53240B6E0C6AFF0E0C22000E0E6E67
:105410000C0E0D6EADEC48F01C0E0B26000E0C228F
:10542000ABC0A4F0ACC0A5F00B500001A4270C50F9
:105430000001A523040E0001A425D96E000E000171
:10544000A521DA6EA7C0DEFFA8C0DEFFA9C0DEFF7F
:10545000AAC0DEFFA5EC2BF00001A6510001D8B4D4
:1054600003D028EC44F01200532A070E536402D0F4
:10547000000E536E5350E7EC31F0120000017F35FF
:105480008035446E4450D8A40AD0000E00017D6FD0
:10549000000E7E6F000E7F6F000E806F12007DC0C9
:1054A00081F07EC082F07FC083F080C084F0200E47
:1054B00006D00001D8908433833382338133E82EC1
:1054C000F8D700018151436E00017F8FFF0E00016C
:1054D0007D17FF0E7E17FF0E7F17000E8017960EAA
:1054E000445E44AE18D04450800A970FD8B00AD01A
:1054F000000E00017D6F000E7E6F000E7F6F000EAC
:10550000806F12000001D89080337F337E337D336B
:10551000443EF8D717D01F0E446411D0000E00018E
:105520007D6F000E7E6F000E7F6F000E806F120089
:105530000001D8907D377E377F378037440644504E
:10554000D8A4F6D74350D8B409D00001801F7F1FDC
:105550007E1F7D6D000E7E237F2380237DC07DF026
:105560007EC07EF07FC07FF080C080F01200000E11
:105570009AEC48F0010EAFEC47F053C026F0030E52
:10558000266401D01200200E086E000E096EB30EC4
:105590000A6EF30E0B6ECCEC3DF02650300F236EEE
:1055A000200E1C6E000E1D6E2BEC3FF0540E276E6D
:1055B000000E286E200E086E000E096E880E0A6E10
:1055C000F30E0B6ECCEC3DF027C0D9FF28C0DAFFFC
:1055D000DF50D8A40BD0200E086E000E096EF40E1A
:1055E0000A6EF30E0B6ECCEC3DF02FD027C0D9FF26
:1055F00028C0DAFFDE04D8A40BD0200E086E000EFF
:10560000096ECC0E0A6EF30E0B6ECCEC3DF01DD085
:1056100027C0D9FF28C0DAFF020EDE18D8A40BD0AD
:10562000200E086E000E096EF90E0A6EF30E0B6E58
:10563000CCEC3DF00AD0200E086E000E096ED10EA3
:105640000A6EF30E0B6ECCEC3DF0200E1C6E000EBD
:105650001D6E99EC46F08DEC3FF0120085C0D9FF2D
:1056600086C0DAFFDECF08F0DECF09F0DECF0AF029
:10567000DECF0BF0010E1AEC23F008C08DF009C04C
:105680008EF00AC08FF00BC090F0060E0001FA25D4
:10569000F66E000EFB21F76E000EFC21F86E09007D
:1056A000F5CF87F00900F5CF88F087C008F088C0F3
:1056B00009F00A6A0B6A000E1AEC23F008C089F0A0
:1056C00009C08AF00AC08BF00BC08CF08DC02FF09F
:1056D0008EC030F08FC031F090C032F0CD0E1A6E17
:1056E000CC0E1B6E1C0E1C6E410E1D6E89C016F07A
:1056F0008AC017F08BC018F08CC019F045EC0CF084
:1057000016C033F017C034F018C035F019C036F0A9
:1057100093EC0FF02FC08DF030C08EF031C08FF0C1
:1057200032C090F08DC07DF08EC07EF08FC07FF0D3
:1057300090C080F03EEC2AF07DC0C0F07EC0C1F089
:105740007FC0C2F080C0C3F01200000E0001A16F44
:10575000000E0001A26F040E0001A36FA2C085F02D
:10576000A3C086F08BEC1AF0000120EE10F0A251DD
:10577000D926A351DA22000185C0DEFF000186C0D0
:10578000DEFF000187C0DEFF000188C0DEFFA2C08F
:1057900085F0A3C086F06DEC20F0000120EE14F03F
:1057A000A251D926A351DA22000185C0DEFF0001F3
:1057B00086C0DEFF000187C0DEFF000188C0DEFF7B
:1057C000000E146E040E156E000E176E9A0E166EF5
:1057D000BBEC43F0000E166EF40E176E000E186E42
:1057E000000E196E000E1A6E040E1B6E000E1D6E5A
:1057F0009C0E1C6E07EC2DF0000E086EF40E096E68
:10580000000E0A6E000E0B6E000E0C6E040E0D6E76
:10581000000E0F6E9C0E0E6E33EC3EF0000E146EFA
:10582000040E156E000E176E9C0E166EBEEC3FF049
:105830000001A16F120020EE06F00B50D9260C508B
:10584000DA2201D80AD00500FA6EDE50FD6EDE5075
:10585000FE6EF850FF6EFA50120020EE0AF00B5068
:10586000D9260C50DA2201D811D00500FA6EDE508C
:10587000FD6EDE50FE6EF850FF6EFA5020EE01F025
:105880000B50D9260C50DA22DF50120020EE0AF01D
:105890000B50D9260C50DA2201D80BD00500FA6E35
:1058A000DE50FD6EDE50FE6EF850FF6EFA500D5069
:1058B000120020EE0AF00B50D9260C50DA2201D843
:1058C0000BD00500FA6EDE50FD6EDE50FE6EF85015
:1058D000FF6EFA500F50120020EE0AF00B50D9263E
:1058E0000C50DA2201D80BD00500FA6EDE50FD6EA6
:1058F000DE50FE6EF850FF6EFA500E50120020EE91
:1059000008F00B50D9260C50DA2201D812000500FD
:10591000FA6EDE50FD6EDE50FE6EF850FF6EFA50ED
:105920001200000E136E000E126E6AD020EE01F00F
:105930000B50D9260C50DA2201D80AD00500FA6E95
:10594000DE50FD6EDE50FE6EF850FF6EFA50120013
:1059500020EE05F00B50D9260C50DA2201D80FD0DA
:105960000500FA6EDE50FD6EDE50FE6EF850FF6EE2
:10597000FA500BC0D9FF0CC0DAFFDF50120020EE46
:1059800005F00B50D9260C50DA2201D80BD00500B7
:10599000FA6EDE50FD6EDE50FE6EF850FF6EFA506D
:1059A0000D5012000D2A20EE05F00B50D9260C5098
:1059B000DA2201D80FD00500FA6EDE50FD6EDE50FF
:1059C000FE6EF850FF6EFA500EC0D9FF0FC0DAFF1E
:1059D000DF5012000E4A0F2A20EE03F00B50D9269A
:1059E0000C50DA2201D80AD00500FA6EDE50FD6EA6
:1059F000DE50FE6EF850FF6EFA501200124A132A63
:105A00001050125C11501358D8B012008FD7000EEE
:105A1000276E050E286EFF0E1614296E030E17143E
:105A20002A6E1C5029241E6E1D502A201F6E1E0433
:105A3000010E1F58D8B01200000E1614226EFC0E74
:105A40001714236EFF0E1814246EFF0E1914256E02
:105A500022C008F023C009F024C00AF025C00BF0D2
:105A600027C00CF028C00DF0010E0F6E000E0E6E58
:105A700033EC3EF029502724086E2A502820096E66
:105A80001AC00AF01BC00BF01CC00CF01DC00DF0BA
:105A90008FEC44F022C009F023C00AF024C00BF0C0
:105AA00025C00CF0E0EC41F0040E206E27C029F078
:105AB00028C02AF029C0E9FF2A50296E2A6A29C085
:105AC000EAFF000E216E13D0000E266E3F0E2664F4
:105AD00001D006D0EECFE8FFF56E0D00262AF6D7EE
