:100000006CEF00F0AA00AA0040828CEF2CF0AA004E
:10001000AA00AA00AA00AA004080D8CF0FF0E8CF1B
:1000200010F0E0CF11F0FACF12F0FBCF13F0E9CFD0
:1000300014F0EACF15F0E1CF16F0E2CF17F0D9CFE8
:1000400018F0DACF19F0F3CF1AF0F4CF1BF0F6CF97
:100050001CF0F7CF1DF0F8CF1EF0F5CF1FF09DB2CA
:100060009EA20DD09FB20BD09E92010E01013A27A5
:10007000000E3B233C233D232F804BEC3CF0A3B0F0
:10008000A4A006D0A5B004D0A4902F82A9EC3CF087
:100090001FC0F5FF1EC0F8FF1DC0F7FF1CC0F6FF14
:1000A0001BC0F4FF1AC0F3FF19C0DAFF18C0D9FF54
:1000B00017C0E2FF16C0E1FF15C0EAFF14C0E9FF58
:1000C00013C0FBFF12C0FAFF11C0E0FF10C0E8FF31
:1000D0000FC0D8FF40901000C3EF2EF0100E3C244C
:1000E000F66E000E3D20F76E000E3E20F86E090001
:1000F000F5CF60F00900F5CF61F00900F5CF62F0AF
:100100000A00F5CF63F0010E6AEC1DF060C0EEF05E
:1001100061C0EFF062C0F0F063C0F1F0140E3C2457
:10012000F66E000E3D20F76E000E3E20F86E0900C0
:10013000F5CF60F00900F5CF61F00900F5CF62F06E
:100140000A00F5CF63F0010E6AEC1DF060C0F2F01A
:1001500061C0F3F062C0F4F063C0F5F0E6C060F097
:10016000E7C061F0E8C062F0E9C063F0010E6AEC3C
:100170001DF060C0FAF061C0FBF062C0FCF063C02B
:10018000FDF00C0E3C24F66E000E3D20F76E000EC6
:100190003E20F86E0900F5CF60F00900F5CF61F060
:1001A0000900F5CF62F00A00F5CF63F0000E6AECAB
:1001B0001DF060C0F6F061C0F7F062C0F8F063C0F7
:1001C000F9F0FAC0B8F0FBC0B9F0FCC0BAF0FDC05D
:1001D000BBF0000E00018B6F000E8C6F800E8D6FD8
:1001E000400E8E6FF6C087F0F7C088F0F8C089F037
:1001F000F9C08AF048EC12F087C0BCF088C0BDF0AE
:1002000089C0BEF08AC0BFF0B8EC21F00001D8B0C0
:100210007DD0000E0001726F000E736F000E746FC0
:10022000400E756FFAC06EF0FBC06FF0FCC070F04E
:10023000FDC071F094EC0BF06EC087F06FC088F0D9
:1002400070C089F071C08AF0F6C08BF0F7C08CF0F6
:10025000F8C08DF0F9C08EF048EC12F087C0FAF0CB
:1002600088C0FBF089C0FCF08AC0FDF0E50E0001FB
:10027000C46FFB0E0001C56FFAC0C6F0FBC0C7F02B
:10028000FCC0C8F0FDC0C9F0000E0001CB6F650EC8
:10029000CA6F34EC10F0C4C0FAF0C5C0FBF0C6C0A1
:1002A000FCF0C7C0FDF0140E3C24F66E000E3D209D
:1002B000F76E000E3E20F86E0900F5CF60F00900E1
:1002C000F5CF61F00900F5CF62F00A00F5CF63F0D9
:1002D000010E6AEC1DF060C0F2F061C0F3F062C084
:1002E000F4F063C0F5F0F2C0B8F0F3C0B9F0F4C0B8
:1002F000BAF0F5C0BBF032EC28F0B8C0E6F0B9C0F7
:10030000E7F0BAC0E8F0BBC0E9F01200FAC0B8F0FC
:10031000FBC0B9F0FCC0BAF0FDC0BBF0080E3C2435
:10032000F66E000E3D20F76E000E3E20F86E0900BE
:10033000F5CF60F00900F5CF61F00900F5CF62F06C
:100340000A00F5CF63F0010E6AEC1DF060C0A8F062
:1003500061C0A9F062C0AAF063C0ABF0000E00015A
:100360008B6F000E8C6F800E8D6F400E8E6FF6C0FF
:1003700087F0F7C088F0F8C089F0F9C08AF048EC3F
:1003800012F087C0A4F088C0A5F089C0A6F08AC08A
:10039000A7F040EC09F0A4C0BCF0A5C0BDF0A6C019
:1003A000BEF0A7C0BFF0B8EC21F00001D8B0BBD0C0
:1003B000000E00018B6F000E8C6F800E8D6F400E53
:1003C0008E6FF6C087F0F7C088F0F8C089F0F9C0EA
:1003D0008AF048EC12F087C0A0F088C0A1F089C074
:1003E000A2F08AC0A3F02FEC3AF0A0C0A4F0A1C004
:1003F000A5F0A2C0A6F0A3C0A7F0FAC0A8F0FBC069
:10040000A9F0FCC0AAF0FDC0ABF040EC09F0A4C01C
:10041000FAF0A5C0FBF0A6C0FCF0A7C0FDF0080EE6
:100420003C24F66E000E3D20F76E000E3E20F86E66
:100430000900F5CF60F00900F5CF61F00900F5CFB4
:1004400062F00A00F5CF63F0010E6AEC1DF060C0A7
:100450008BF061C08CF062C08DF063C08EF0FAC08A
:1004600087F0FBC088F0FCC089F0FDC08AF048EC42
:1004700012F087C06EF088C06FF089C070F08AC03B
:1004800071F0F2C072F0F3C073F0F4C074F0F5C014
:1004900075F094EC0BF06EC0F2F06FC0F3F070C02A
:1004A000F4F071C0F5F0EEC087F0EFC088F0F0C056
:1004B00089F0F1C08AF0000E00018B6F000E8C6F86
:1004C000000E8D6F400E8E6F48EC12F087C0EEF07C
:1004D00088C0EFF089C0F0F08AC0F1F0F2C0A8F057
:1004E000F3C0A9F0F4C0AAF0F5C0ABF0EEC0A4F0E0
:1004F000EFC0A5F0F0C0A6F0F1C0A7F040EC09F005
:10050000A4C0B8F0A5C0B9F0A6C0BAF0A7C0BBF0AF
:1005100032EC28F0B8C0E6F0B9C0E7F0BAC0E8F0B5
:10052000BBC0E9F01200000E00018B6F000E8C6F53
:10053000000E8D6F400E8E6FF6C087F0F7C088F00A
:10054000F8C089F0F9C08AF048EC12F087C0A8F032
:1005500088C0A9F089C0AAF08AC0ABF0080E3C247C
:10056000F66E000E3D20F76E000E3E20F86E09007C
:10057000F5CF60F00900F5CF61F00900F5CF62F02A
:100580000A00F5CF63F0010E6AEC1DF060C0A4F024
:1005900061C0A5F062C0A6F063C0A7F040EC09F00E
:1005A000A4C0B8F0A5C0B9F0A6C0BAF0A7C0BBF00F
:1005B000FAC0BCF0FBC0BDF0FCC0BEF0FDC0BFF097
:1005C000B8EC21F00001D8B045D0080E3C24F66EFE
:1005D000000E3D20F76E000E3E20F86E0900F5CFAC
:1005E00060F00900F5CF61F00900F5CF62F00A0074
:1005F000F5CF63F0010E6AEC1DF060C0A4F061C09D
:10060000A5F062C0A6F063C0A7F0000E00018B6FDA
:10061000000E8C6F000E8D6F400E8E6FF6C087F04F
:10062000F7C088F0F8C089F0F9C08AF048EC12F001
:1006300087C0A8F088C0A9F089C0AAF08AC0ABF032
:1006400040EC09F0A4C0FAF0A5C0FBF0A6C0FCF095
:10065000A7C0FDF0080E3C24F66E000E3D20F76E9C
:10066000000E3E20F86E0900F5CF60F00900F5CFCE
:1006700061F00900F5CF62F00A00F5CF63F0010EDA
:100680006AEC1DF060C0A8F061C0A9F062C0AAF0D9
:1006900063C0ABF0000E00018B6F000E8C6F800EFC
:1006A0008D6F400E8E6FF6C087F0F7C088F0F8C0EF
:1006B00089F0F9C08AF048EC12F087C0A4F088C035
:1006C000A5F089C0A6F08AC0A7F040EC09F0A4C04C
:1006D000A0F0A5C0A1F0A6C0A2F0A7C0A3F02FEC87
:1006E0003AF0A0C0EAF0A1C0EBF0A2C0ECF0A3C0C9
:1006F000EDF0EAC0A4F0EBC0A5F0ECC0A6F0EDC0B0
:10070000A7F0FAC0A8F0FBC0A9F0FCC0AAF0FDC099
:10071000ABF040EC09F0A4C0FAF0A5C0FBF0A6C015
:10072000FCF0A7C0FDF0000E0001726F000E736FA9
:10073000000E746F400E756FFAC06EF0FBC06FF064
:10074000FCC070F0FDC071F094EC0BF06EC087F04F
:100750006FC088F070C089F071C08AF0F6C08BF06D
:10076000F7C08CF0F8C08DF0F9C08EF048EC12F0B4
:1007700087C0FAF088C0FBF089C0FCF08AC0FDF0A9
:10078000FAC0A0F0FBC0A1F0FCC0A2F0FDC0A3F035
:100790002FEC3AF0A0C0A4F0A1C0A5F0A2C0A6F032
:1007A000A3C0A7F0000E0001A86F000EA96F000EF5
:1007B000AA6F3F0EAB6F40EC09F0A4C0FAF0A5C0E1
:1007C000FBF0A6C0FCF0A7C0FDF0000E0001A86F72
:1007D000000EA96F000EAA6F3F0EAB6FFAC0A4F017
:1007E000FBC0A5F0FCC0A6F0FDC0A7F040EC09F0EE
:1007F000A4C06EF0A5C06FF0A6C070F0A7C071F0E5
:10080000F2C072F0F3C073F0F4C074F0F5C075F08C
:1008100094EC0BF06EC0F2F06FC0F3F070C0F4F027
:1008200071C0F5F0F2C0A8F0F3C0A9F0F4C0AAF0CE
:10083000F5C0ABF0EEC0A4F0EFC0A5F0F0C0A6F09C
:10084000F1C0A7F040EC09F0A4C0B8F0A5C0B9F021
:10085000A6C0BAF0A7C0BBF032EC28F0B8C0E6F0F2
:10086000B9C0E7F0BAC0E8F0BBC0E9F01200000E72
:100870000001966FC1D0000196510001806F816B1D
:100880000001D890803781370001D89080378137B8
:100890000001D890803781370C0E00018027000EB0
:1008A00081237AC082F07BC083F000018051000177
:1008B00082270001815100018323040E000182255B
:1008C000D96E000E00018321DA6E00019651080DE9
:1008D000040EF326000EF4227AC086F07BC087F067
:1008E000F35000018627F45000018723040E000115
:1008F0008625E16E000E00018721E26EDE50E65C87
:10090000E650800A00018A6FDE50800A00018A5991
:10091000D8B03ED0000120EE04F07C51D9267D51A4
:10092000DA22000196510001826F836B0001D8909A
:10093000823783370001D890823783370001D890FF
:10094000823783370C0E00018227000E83237AC082
:1009500084F07BC085F000018251000184270001F2
:10096000835100018523040E00018425E16E000EF1
:1009700000018521E26EDE50E65CE650800A00014F
:10098000886FDE50800A00018859D8B060D032D01C
:10099000000196510001806F816B0001D890803773
:1009A00081370001D890803781370001D890803797
:1009B00081370C0E00018027000E81237AC082F05F
:1009C0007BC083F00001805100018227000181512A
:1009D00000018323040E00018225D96E000E000160
:1009E0008321DA6E000110EE04F07C51E1267D5186
:1009F000E222C1D70001962BFF0E0001806FFF0E8F
:100A00000001816F7AC0D9FF7BC0DAFFDF5000019F
:100A1000826F836B000180510001822700018151A8
:100A200000018323000196510001846F856B000152
:100A300082510001845D00018551800A0001866FAA
:100A400000018351800A00018659D8A014D7000103
:100A50009651080D040EF326000EF422F350000107
:100A60007A25D96EF45000017B21DA6E7CC0E1FF5B
:100A70007DC0E2FFDECFE6FFDECFE6FFDECFE6FFA2
:100A8000DECFE6FF000196510001806F816B00010F
:100A9000D890803781370001D890803781370001A6
:100AA000D890803781370C0E00018027000E8123FB
:100AB0000001805100017A25D96E000181510001A9
:100AC0007B21DA6EDECF82F0DECF83F0DECF84F0E2
:100AD000DECF85F000019651080D040EF326000EBE
:100AE000F422F35000017A25D96EF45000017B21E5
:100AF000DA6EDECF86F0DECF87F0DECF88F0DECF95
:100B000089F00001861F871F881F891F862B000E12
:100B10008723882389230001825100018625000153
:100B20008E6F000183510001872100018F6F00014A
:100B30008451000188210001906F0001855100015E
:100B400089210001916F000196510001806F816B36
:100B50000001D890803781370001D89080378137E5
:100B60000001D890803781370C0E00018027000EDD
:100B700081237AC082F07BC083F0000180510001A4
:100B800082270001815100018323040E0001822588
:100B9000D96E000E00018321DA6EDECF84F0DDCF46
:100BA00085F000019651080D040EF326000EF42284
:100BB0007AC086F07BC087F0F35000018627F4509E
:100BC00000018723040E00018625D96E000E000166
:100BD0008721DA6EDECF88F0DDCF89F00001881F33
:100BE000891F884B892B000184510001882700014F
:100BF00085510001892388C092F089C093F00001DB
:100C0000000E93BFFF0E946F956F0001925100018B
:100C100093110001941100019511D8B48BD07CC0C0
:100C2000D9FF7DC0DAFFDECF80F0DECF81F0DECFEE
:100C300082F0DECF83F092C064F093C065F094C080
:100C400066F095C067F08EC060F08FC061F090C014
:100C500062F091C063F090EC26F060C06EF061C06D
:100C60006FF062C070F063C071F0000120EE04F01C
:100C70007C51D9267D51DA22DECF84F0DDCF85F09C
:100C800000019651080D040EF326000EF4227AC0DE
:100C900086F07BC087F0F35000018627F4500001F6
:100CA0008723040E00018625D96E000E00018721DE
:100CB000DA6EDECF88F0DDCF89F00001881F891F52
:100CC000884B892B00018451000188270001855140
:100CD0000001892388C072F089C073F00001000E02
:100CE00073BFFF0E746F756FE6EC34F00001805136
:100CF00000016E2500018A6F0001815100016F2102
:100D000000018B6F000182510001702100018C6F86
:100D1000000183510001712100018D6F7CC0D9FF5A
:100D20007DC0DAFF8AC0DEFF8BC0DEFF8CC0DEFF35
:100D30008DC0DEFF00017E5100017F11D8B434D098
:100D40007CC0D9FF7DC0DAFF7EC0E1FF7FC0E2FF3B
:100D5000DECFE6FFDECFE6FFDECFE6FFDECFE6FF4B
:100D6000000120EE04F07C51D9267D51DA220001E9
:100D700010EE04F07E51E1267F51E222DECFE6FF45
:100D8000DDCFE5FF000120EE0AF07A51D9267B5134
:100D9000DA22000110EE06F07E51E1267F51E222B8
:100DA000DECFE6FFDDCFE5FF000196511200000126
:100DB000716F310E0001716501D012000001715197
:100DC0000008310F0001706FC2D12E0E0001686F54
:100DD00020C069F0000E28EC2CF012002E0E00014D
:100DE000686F20C069F0010E28EC2CF012002E0E66
:100DF0000001686F20C069F0020E28EC2CF0120090
:100E00002E0E0001686F20C069F0030E28EC2CF054
:100E100012002F0E0001686F20C069F0030E28EC4D
:100E20002CF012002F0E0001686F20C069F0020E36
:100E300028EC2CF012002F0E0001686F20C069F022
:100E4000010E28EC2CF012002F0E0001686F20C05C
:100E500069F0000E28EC2CF012001F0E0001686FE4
:100E600020C069F0000E28EC2CF012001F0E0001CB
:100E7000686F20C069F0010E28EC2CF012001F0EE4
:100E80000001686F20C069F0020E28EC2CF01200FF
:100E90001F0E0001686F20C069F0030E28EC2CF0D3
:100EA0001200000E0001686F20C069F0030E28ECEC
:100EB0002CF01200000E0001686F20C069F0020ED5
:100EC00028EC2CF01200000E0001686F20C069F0C1
:100ED000010E28EC2CF01200000E0001686F20C0FB
:100EE00069F0000E28EC2CF01200010E0001686F72
:100EF00020C069F0000E28EC2CF01200010E000159
:100F0000686F20C069F0010E28EC2CF01200010E71
:100F10000001686F20C069F0020E28EC2CF012006E
:100F2000010E0001686F20C069F0030E28EC2CF060
:100F30001200020E0001686F20C069F0030E28EC59
:100F40002CF01200020E0001686F20C069F0020E42
:100F500028EC2CF01200020E0001686F20C069F02E
:100F6000010E28EC2CF01200020E0001686F20C068
:100F700069F0000E28EC2CF01200030E0001686FDF
:100F800020C069F0000E28EC2CF01200030E0001C6
:100F9000686F20C069F0010E28EC2CF01200030EDF
:100FA0000001686F20C069F0020E28EC2CF01200DE
:100FB000030E0001686F20C069F0030E28EC2CF0CE
:100FC0001200040E0001686F20C069F0030E28ECC7
:100FD0002CF01200040E0001686F20C069F0020EB0
:100FE00028EC2CF01200040E0001686F20C069F09C
:100FF000010E28EC2CF01200040E0001686F20C0D6
:1010000069F0000E28EC2CF01200050E0001686F4C
:1010100020C069F0000E28EC2CF01200050E000133
:10102000686F20C069F0010E28EC2CF01200050E4C
:101030000001686F20C069F0020E28EC2CF012004D
:10104000050E0001686F20C069F0030E28EC2CF03B
:101050001200060E0001686F20C069F0030E28EC34
:101060002CF01200060E0001686F20C069F0020E1D
:1010700028EC2CF01200060E0001686F20C069F009
:10108000010E28EC2CF01200060E0001686F20C043
:1010900069F0000E28EC2CF01200070E0001686FBA
:1010A00020C069F0000E28EC2CF01200070E0001A1
:1010B000686F20C069F0010E28EC2CF01200070EBA
:1010C0000001686F20C069F0020E28EC2CF01200BD
:1010D000070E0001686F20C069F0030E28EC2CF0A9
:1010E0001200210E0001686F20C069F0030E28EC89
:1010F0002CF01200210E0001686F20C069F0020E72
:1011000028EC2CF01200210E0001686F20C069F05D
:10111000010E28EC2CF01200210E0001686F20C097
:1011200069F0000E28EC2CF01200220E0001686F0E
:1011300020C069F0000E28EC2CF01200220E0001F5
:10114000686F20C069F0010E28EC2CF0120000013D
:101150007051000AD8B439D6010AD8B43FD6030A70
:10116000D8B445D6010AD8B44BD6070AD8B451D65C
:10117000010AD8B457D6030AD8B45DD6010AD8B448
:1011800063D60F0AD8B469D6010AD8B46FD6030A59
:10119000D8B475D6010AD8B47BD6070AD8B481D69C
:1011A000010AD8B487D6030AD8B48DD6010AD8B4B8
:1011B00093D61F0AD8B499D6010AD8B49FD6030A89
:1011C000D8B4A5D6010AD8B4ABD6070AD8B4B1D6DC
:1011D000010AD8B4B7D6030AD8B4BDD6010AD8B428
:1011E000C3D60F0AD8B4C9D6010AD8B4CFD6030AD9
:1011F000D8B4D5D6010AD8B4DBD6070AD8B4E1D61C
:10120000010AD8B4E7D6030AD8B4EDD6010AD8B497
:10121000F3D63F0AD8B4F9D6010AD8B4FFD6030AE8
:10122000D8B405D7010AD8B40BD7070AD8B411D758
:10123000010AD8B417D7030AD8B41DD7010AD8B405
:1012400023D70F0AD8B429D7010AD8B42FD7030A55
:10125000D8B435D7010AD8B43BD7070AD8B441D798
:10126000010AD8B447D7030AD8B44DD7010AD8B475
:1012700053D71F0AD8B459D7010AD8A412005ED791
:101280000001A751800B0001B46F0001A751A725F1
:101290000001B66F0001A6AF02D00001B6810001C7
:1012A000B6510001D8B412D00001B629D8A409D093
:1012B000000E0001A46F000EA56F000EA66F000EB9
:1012C000A76F0001A68F000E000108D0000E0001DC
:1012D000A46F000EA56F000EA66F000EA76F000191
:1012E000AB51800B0001B56F0001B4510001B5197D
:1012F000D8B402D00001B48D0001AB51AB25000180
:10130000B56F0001AAAF02D00001B5810001B5514F
:101310000001D8B412D00001B529D8A409D0000E1C
:101320000001A86F000EA96F000EAA6F000EAB6F30
:101330000001AA8F000E000108D0000E0001A86F66
:10134000000EA96F000EAA6F000EAB6F0001B65120
:101350000001B55DD8B024D00001B4AD03D0800E3B
:101360000001B41BB6C0B7F0B5C0B6F0B7C0B5F059
:10137000A4C0B7F0A8C0A4F0B7C0A8F0A5C0B7F04B
:10138000A9C0A5F0B7C0A9F0A6C0B7F0AAC0A6F042
:10139000B7C0AAF0A7C0B7F0ABC0A7F0B7C0ABF01A
:1013A000000E0001B76F0001B6510001AC6FAD6BCC
:1013B0000001AC1FAD1FAC4BAD2B0001B5510001BE
:1013C000AE6FAF6B0001AC510001AE270001AD5113
:1013D0000001AF230001AFBF3DD00001AF5105E1D7
:1013E0001A0E0001AE5DD8A035D00001A451000155
:1013F000A5110001A6110001A711D8B402D0010E59
:1014000001D0000E0001B76F000E0001A46F000EA6
:10141000A56F000EA66F000EA76FB5C0B6F020D066
:101420000001B7A107D00001D890B7310109000130
:10143000B76F03D00001D890B7330001A4A102D048
:101440000001B78F0001A735A733A633A533A43316
:101450000001B62B0001B5510001B65DD8A0E0D760
:101460000001B4BD3FD00001B6510001D8A40AD09C
:10147000000E0001A46F000EA56F000EA66F000EF7
:10148000A76F12000001A8510001A4270001A95173
:101490000001A5230001AA510001A6230001AB51C0
:1014A0000001A7230001A7A1CCD00001B7A109D05A
:1014B0000001D890B7330001B75101090001B76F9F
:1014C00003D00001D890B7330001A4A102D00001DD
:1014D000B78F0001A735A733A633A533A433000186
:1014E000B62BAFD00001A8510001A45D0001A951A5
:1014F0000001A5590001AA510001A6590001A751F8
:10150000800A0001AC6F0001AB51800A0001AC59A8
:10151000D8B050D0A4C0ACF0A5C0ADF0A6C0AEF01D
:10152000A7C0AFF00001AC1FAD1FAE1FAF1FAC2BAB
:10153000000EAD23AE23AF230001A8510001AC255E
:101540000001B06F0001A9510001AD210001B16F90
:101550000001AA510001AE210001B26F0001AB51A0
:101560000001AF210001B36FFF0E0001B0250001A3
:10157000A46FFF0E0001B1210001A56FFF0E000155
:10158000B2210001A66FFF0E0001B3210001A76F79
:10159000800E0001B41B0001B76D0001B7510001BE
:1015A000D8A418D0010E0001A427000EA523A6235D
:1015B000A72310D00001A8510001A45F0001A95188
:1015C0000001A55B0001AA510001A65B0001AB511F
:1015D0000001A75B0001A4510001A5110001A611A3
:1015E0000001A711D8A42AD00001B7510001D8A446
:1015F00025D0000E0001A46F000EA56F000EA66F8F
:10160000000EA76F12000001D890A437A537A637A7
:10161000A7370001B7AF02D00001A4810001B7A134
:1016200003D0D880000102D00001D890B737000164
:10163000B6510001D8B402D00001B6070001A6AF30
:10164000E2D7000E0001B56F0001B7AF0DD0B7C0F3
:10165000ACF07F0E0001AC17D8A403D00001A4A108
:1016600003D0010E0001B56F0001B5510001D8B4DF
:1016700026D0010E0001A427000EA523A623A72330
:101680000001A7A11CD0A4C0ACF0A5C0ADF0A6C0BD
:10169000AEF0A7C0AFF00001AF35AF33AE33AD331E
:1016A000AC33ACC0A4F0ADC0A5F0AEC0A6F0AFC0E6
:1016B000A7F00001B629D8B402D00001B62B000172
:1016C000B629D8B405D00001B6510001D8A411D074
:1016D000000E0001A46F000EA56F000EA66F000E95
:1016E000A76F0001B6510001D8A403D0000E00017D
:1016F000B46F0001B6A103D00001A68F02D0000193
:10170000A69F0001D890B6310001A76F0001B4AFC9
:1017100002D00001A78FA4C0A4F0A5C0A5F0A6C068
:10172000A6F0A7C0A7F0120000017151800B0001C4
:101730007A6F0001715171250001806F000170AF57
:1017400002D000018081000180510001D8B410D086
:1017500000018029D8A409D0000E00016E6F000E90
:101760006F6F000E706F000E716F0001708F09D0E7
:10177000000E00016E6F000E6F6F000E706F000E96
:10178000716F00017551800B00017A1B00017551CA
:10179000752500017B6F000174AF02D000017B81D1
:1017A00000017B510001D8B410D000017B29D8A4DE
:1017B00009D0000E0001726F000E736F000E746F7F
:1017C000000E756F0001748F09D0000E0001726F5A
:1017D000000E736F000E746F000E756F00017B5169
:1017E0000001D8B405D0000180510001D8A40AD06E
:1017F000000E00016E6F000E6F6F000E706F000E16
:10180000716F12000001745100016E03F3CF85F077
:10181000F4CF86F00001855100017C6F7D6B7E6BFB
:101820007F6B000186510001816F826B836B846B3B
:101830000001735100016F03F3CF85F0F4CF86F000
:101840000001855100017C27000E7D237E237F232C
:101850000001865100018127000E82238323842307
:101860000001725100017003F3CF85F0F4CF86F0D0
:101870000001855100017C27000E7D237E237F23FC
:101880000001865100018127000E822383238423D7
:101890007EC07FF07DC07EF07CC07DF000017C6B5F
:1018A0000001725100016F03F3CF85F0F4CF86F091
:1018B0000001855100017C270001865100017D2334
:1018C000000E00017E23000E00017F2300017351F2
:1018D00000016E03F3CF85F0F4CF86F0000185514F
:1018E00000017C270001865100017D23000E0001CC
:1018F0007E23000E00017F237EC07FF07DC07EF03E
:101900007CC07DF000017C6B0001725100016E0310
:10191000F3CF85F0F4CF86F00001855100017C27DC
:101920000001865100017D23000E00017E23000E80
:1019300000017F230001745100016F03F3CF85F094
:10194000F4CF86F000018551000181270001865106
:1019500000018223000E00018323000E0001842376
:101960000001735100017003F3CF85F0F4CF86F0CE
:101970000001855100018127000186510001822369
:10198000000E00018323000E000184230001745126
:1019900000017003F3CF85F0F4CF86F0000185518C
:1019A0000001766F000186510001776F0001786BAE
:1019B0000001796B78C079F077C078F076C077F065
:1019C0000001766B000176510001812700017751FB
:1019D0000001822300017851000183230001795125
:1019E000000184237CC076F07DC077F07EC078F063
:1019F0007FC079F0190E06D00001D8907933783382
:101A000077337633E82EF8D700017651000181272D
:101A100000017751000182230001785100018323E6
:101A200000017951000184237EC07FF07DC07EF0EB
:101A30007CC07DF000017C6B00017B5180C076F0A2
:101A40000001776B00017627000E7723820E0001DC
:101A500076250001856FFF0E000177210001866F5A
:101A600015D00001D8908137823783378437000141
:101A70007FAF02D0000181810001D8907C377D3793
:101A80007E377F3700018507D8A08607000183AF26
:101A9000E8D7000E00017B6F00017FAF24D0FF0E5E
:101AA00000017C150001766FFF0E00017D1500011D
:101AB000776FFF0E00017E150001786F7F0E000129
:101AC0007F150001796F0001765100017711000147
:101AD000781100017911D8A403D0000181A103D0AD
:101AE000010E00017B6F00017B510001D8B423D0AF
:101AF000010E00018127000E82238323842300012D
:101B000084A119D081C076F082C077F083C078F0CC
:101B100084C079F0000179357933783377337633BF
:101B200076C081F077C082F078C083F079C084F00D
:101B30000001854B862B000186BF10D00001865125
:101B400004E100018529D8A009D0000E0001816FB1
:101B5000000E826F800E836F7F0E2BD0000186BF38
:101B600007D00001865111E100018505D8B00DD0E4
:101B7000000E0001816F000E826F000E836F000E59
:101B8000846F000E00017A6F15D085C080F0FF0EC3
:101B900000018117FF0E82177F0E8317000E841736
:101BA000000180A102D00001838F0001D890803114
:101BB0000001846F00017A510001841381C06EF02E
:101BC00082C06FF083C070F084C071F01200000E0C
:101BD0000001956FBDD00001955100017F6F806BB2
:101BE0000001D8907F3780370001D8907F37803749
:101BF0000001D8907F378037080E00017F27000E44
:101C000080237AC081F07BC082F000017F51000107
:101C100081270001805100018223060E00018125E9
:101C2000D96E000E00018221DA6E00019551080D77
:101C30007AC085F07BC086F0F35000018527F45010
:101C400000018623060E00018525E16E000E0001CD
:101C50008621E26EDE50E65CE650800A0001896F64
:101C6000DE50800A00018959D8B03ED0000120EE34
:101C700006F07C51D9267D51DA22000195510001F0
:101C8000816F826B0001D890813782370001D89034
:101C9000813782370001D89081378237080E0001E2
:101CA0008127000E82237AC083F07BC084F000017C
:101CB0008151000183270001825100018423060E17
:101CC00000018325E16E000E00018421E26EDE50EA
:101CD000E65CE650800A0001876FDE50800A000152
:101CE0008759D8B05DD032D00001955100017F6F87
:101CF000806B0001D8907F3780370001D8907F3704
:101D000080370001D8907F378037080E00017F2789
:101D1000000E80237AC081F07BC082F000017F51E9
:101D2000000181270001805100018223060E00017D
:101D30008125D96E000E00018221DA6E000110EEBD
:101D400006F07C51E1267D51E222C1D70001952B9E
:101D5000FF0E00017F6FFF0E0001806F00017E51BA
:101D60000001816F826B00017F510001812700011A
:101D7000805100018223000195510001836F846B23
:101D8000000181510001835D00018451800A00013E
:101D9000856F00018251800A00018559D8A01BD7A8
:101DA00000019551080DF35000017A25D96EF450C9
:101DB00000017B21DA6E7CC0E1FF7DC0E2FFDECF57
:101DC000E6FFDECFE6FFDECFE6FFDECFE6FF000177
:101DD000955100017F6F806B0001D8907F3780376D
:101DE0000001D8907F3780370001D8907F37803747
:101DF000080E00017F27000E802300017F510001A3
:101E00007A25D96E0001805100017B21DA6EDECF88
:101E100081F0DECF82F0DECF83F0DECF84F00001F0
:101E20009551080DF35000017A25D96EF450000148
:101E30007B21DA6EDECF85F0DECF86F0DECF87F055
:101E4000DECF88F00001851F861F871F881F852B26
:101E5000000E8623872388230001815100018525F8
:101E600000018D6F000182510001862100018E6FFB
:101E7000000183510001872100018F6F000184510F
:101E8000000188210001906F0001955100017F6FD2
:101E9000806B0001D8907F3780370001D8907F3762
:101EA00080370001D8907F378037080E00017F27E8
:101EB000000E80237AC081F07BC082F000017F5148
:101EC000000181270001805100018223060E0001DC
:101ED0008125D96E000E00018221DA6EDECF83F0FB
:101EE000DDCF84F000019551080D7AC085F07BC0EC
:101EF00086F0F35000018527F45000018623060E7A
:101F000000018525D96E000E00018621DA6EDECF34
:101F100087F0DDCF88F00001871F881F874B882B53
:101F200000018351000187270001845100018823AB
:101F300087C091F088C092F00001000E92BFFF0EA2
:101F4000936F946F00019151000192110001931160
:101F500000019411D8B412007CC0D9FF7DC0DAFF13
:101F6000DECF7FF0DECF80F0DECF81F0DECF82F0FB
:101F700091C064F092C065F093C066F094C067F0C1
:101F80008DC060F08EC061F08FC062F090C063F0D1
:101F900090EC26F060C06EF061C06FF062C070F02F
:101FA00063C071F0000120EE06F07C51D9267D510E
:101FB000DA22DECF83F0DDCF84F000019551080DE9
:101FC0007AC085F07BC086F0F35000018527F4507D
:101FD00000018623060E00018525D96E000E000142
:101FE0008621DA6EDECF87F0DDCF88F00001871F13
:101FF000881F874B882B0001835100018727000130
:1020000084510001882387C072F088C073F00001FA
:10201000000E73BFFF0E746F756FE6EC34F00001B5
:102020007F5100016E250001896F00018051000180
:102030006F2100018A6F00018151000170210001B0
:102040008B6F000182510001712100018C6F7CC0F7
:10205000D9FF7DC0DAFF89C0DEFF8AC0DEFF8BC0FA
:10206000DEFF8CC0DEFF1200000E0001E56F000EE7
:10207000E46FD0D0E4C0CCF0E5C0CDF00001D89042
:10208000CC37CD370001D890CC37CD37C4C0CEF097
:10209000C5C0CFF00001CC510001CE270001CD51C9
:1020A0000001CF23CEC0F6FFCFC0F7FF0900F5CF68
:1020B000B8F00900F5CFB9F00900F5CFBAF00A0081
:1020C000F5CFBBF0E4C0D0F0E5C0D1F00001D8906E
:1020D000D037D1370001D890D037D137040E000166
:1020E000D027000ED123C4C0D2F0C5C0D3F0000168
:1020F000D0510001D2270001D1510001D323D2C019
:10210000F6FFD3C0F7FF0900F5CFBCF00900F5CF0B
:10211000BDF00900F5CFBEF00A00F5CFBFF0B8EC76
:1021200021F00001D8B03BD0E4C0CCF0E5C0CDF048
:102130000001D890CC37CD370001D890CC37CD37BF
:10214000040E0001CC27000ECD23C4C0CEF0C5C0C4
:10215000CFF00001CC510001CE270001CD5100018C
:10216000CF23CEC0F6FFCFC0F7FF0900F5CFB8F000
:102170000900F5CFB9F00900F5CFBAF00A00F5CFA4
:10218000BBF0C6C0BCF0C7C0BDF0C8C0BEF0C9C07F
:10219000BFF0B8EC21F00001D8B058D038D0C6C09C
:1021A000B8F0C7C0B9F0C8C0BAF0C9C0BBF0E4C04D
:1021B000CCF0E5C0CDF00001D890CC37CD37000190
:1021C000D890CC37CD37040E0001CC27000ECD239C
:1021D000C4C0CEF0C5C0CFF00001CC510001CE2765
:1021E0000001CD510001CF23CEC0F6FFCFC0F7FFD5
:1021F0000900F5CFBCF00900F5CFBDF00900F5CF1F
:10220000BEF00A00F5CFBFF0B8EC21F0C4D7000152
:10221000E44BE52BFF0E0001CC6FFF0E0001CD6FEC
:10222000CAC0CEF0CBC0CFF00001CC510001CE2708
:102230000001CD510001CF230001CE510001E45D2A
:102240000001CF510001E559D8A014D7E4C0CCF06B
:10225000E5C0CDF00001D890CC37CD370001D89043
:10226000CC37CD37C4C0CEF0C5C0CFF00001CC51C3
:102270000001CE270001CD510001CF23CEC0F6FFD3
:10228000CFC0F7FF0900F5CFE0F00900F5CFE1F08E
:102290000900F5CFE2F00A00F5CFE3F00A0E0001E5
:1022A000D46FD70ED56F230ED66F3C0ED76FE4C018
:1022B000CCF0E5C0CDF00001D890CC37CD3700018F
:1022C000D890CC37CD37C4C0CEF0C5C0CFF0000118
:1022D000CC510001CE270001CD510001CF23CEC04B
:1022E000F6FFCFC0F7FF0900F5CFA0F00900F5CF4A
:1022F000A1F00900F5CFA2F00A00F5CFA3F02FEC72
:102300003AF0A0C0A4F0A1C0A5F0A2C0A6F0A3C05E
:10231000A7F0E4C0D0F0E5C0D1F00001D890D037EC
:10232000D1370001D890D037D137040E0001D02723
:10233000000ED123C4C0D2F0C5C0D3F00001D051EB
:102340000001D2270001D1510001D323D2C0F6FFF2
:10235000D3C0F7FF0900F5CFA8F00900F5CFA9F029
:102360000900F5CFAAF00A00F5CFABF040EC09F078
:10237000A4C0D8F0A5C0D9F0A6C0DAF0A7C0DBF0A1
:10238000C6C0A8F0C7C0A9F0C8C0AAF0C9C0ABF0C9
:102390000A0E0001726FD70E736F230E746F3C0E1E
:1023A000756FE4C060F0E5C061F00001626B636BC3
:1023B000000E6AEC1DF060C06EF061C06FF062C08C
:1023C00070F063C071F094EC0BF06EC0A0F06FC0C1
:1023D000A1F070C0A2F071C0A3F02FEC3AF0A0C041
:1023E000A4F0A1C0A5F0A2C0A6F0A3C0A7F040EC45
:1023F00009F0A4C0DCF0A5C0DDF0A6C0DEF0A7C0E7
:10240000DFF0D4C08BF0D5C08CF0D6C08DF0D7C033
:102410008EF0D8C087F0D9C088F0DAC089F0DBC070
:102420008AF048EC12F087C072F088C073F089C05F
:1024300074F08AC075F0DCC06EF0DDC06FF0DEC0F5
:1024400070F0DFC071F094EC0BF06EC0A4F06FC0C0
:10245000A5F070C0A6F071C0A7F0E0C0A8F0E1C080
:10246000A9F0E2C0AAF0E3C0ABF040EC09F0A4C0D0
:10247000E0F0A5C0E1F0A6C0E2F0A7C0E3F0E0C044
:10248000C4F0E1C0C5F0E2C0C6F0E3C0C7F012007E
:1024900000018A51800B0001936F00018A518A2547
:1024A00000019E6F000189AF02D000019E810001F2
:1024B0009E510001D8B412D000019E29D8A409D0A1
:1024C000000E0001876F000E886F000E896F000EEE
:1024D0008A6F0001898F000E000108D0000E0001F4
:1024E000876F000E886F000E896F000E8A6F0001E3
:1024F0008E51800B0001931B00018E518E2500012F
:102500009F6F00018DAF02D000019F8100019F519C
:102510000001D8B412D000019F29D8A409D0000E20
:1025200000018B6F000E8C6F000E8D6F000E8E6F92
:1025300000018D8F000E000108D0000E00018B6F8E
:10254000000E8C6F000E8D6F000E8E6F00018B5190
:1025500000018C1100018D1100018E11D8A417D03B
:10256000000E0001876F000E886F000E896F000E4D
:102570008A6F0001800E89137F0E8A1387C087F04F
:1025800088C088F089C089F08AC08AF012000001F2
:102590009E510001D8A412D0000E0001876F000EDA
:1025A000886F000E896F000E8A6F87C087F088C021
:1025B00088F089C089F08AC08AF0120000019F511A
:1025C00000018F6F906B00018F1F901F8F4B902B1E
:1025D00000019E510001916F926B00018F5100012B
:1025E000912700019051000192237F0E0001912557
:1025F0000001986F000E000192210001996F87C0C1
:1026000094F088C095F089C096F08AC097F0000ECB
:102610000001876F000E886F000E896F000E8A6FB1
:10262000000E00019A6F000E9B6F000E9C6F000E53
:102630009D6F000E00019F6F42D000019F5100016D
:10264000D8B417D00001D89094379537963797377C
:102650000001D8908737883789378A3700019DAFC6
:1026600002D0000187810001D8909A379B379C37B0
:102670009D3700018B510001945D00018C510001D8
:10268000955900018D510001965900018E510001AC
:102690009759D8A012D000019D8D00018B510001E7
:1026A000945F00018C510001955B00018D51000188
:1026B000965B00018E510001975B00019F2B190E64
:1026C00000019F65BAD700019451000195110001E6
:1026D000961100019711D8B418D000019A8115D035
:1026E0000001D8908737883789378A3700019DAF36
:1026F00002D0000187810001D8909A379B379C3720
:102700009D3700019807D8A09907000189AFE8D745
:10271000000E00019F6F00019DAF24D0FF0E00014D
:102720009A1500018F6FFF0E00019B150001906F3D
:10273000FF0E00019C150001916F7F0E00019D1599
:102740000001926F00018F51000190110001911161
:1027500000019211D8A403D0000187A103D0010E7B
:1027600000019F6F00019F510001D8B423D0010EDA
:1027700000018727000E882389238A2300018AA16C
:1027800019D087C08FF088C090F089C091F08AC0BE
:1027900092F0000192359233913390338F338FC092
:1027A00087F090C088F091C089F092C08AF0000153
:1027B000984B992B000199BF14D00001995104E165
:1027C00000019829D8A00DD0000E0001996F9869DA
:1027D000000E0001876F000E886F000E896F000EDB
:1027E0008A6F000199BF07D00001995115E10001DE
:1027F0009805D8B011D0000E0001996F000E986FA7
:10280000000E0001876F000E886F000E896F000EAA
:102810008A6F000E0001936F98C09EF000019EA188
:1028200003D00001898F02D00001899F0001D89058
:102830009E3100018A6F0001935100018A1387C005
:1028400087F088C088F089C089F08AC08AF01200B9
:1028500027C060F028C061F00001000E61BFFF0ECC
:10286000626F636F010E6AEC1DF060C0CFF061C053
:10287000D0F062C0D1F063C0D2F0640E0001C26F2C
:10288000000E0001C36F0001C2513C240001C46F5F
:102890000001C3513D200001C56F000E3E20000124
:1028A000C66F0001C4510001606F0001C5510001F5
:1028B000616F0001C6510001626F0001636B000E81
:1028C0006AEC1DF060C0CBF061C0CCF062C0CDF00E
:1028D00063C0CEF0CBC0A0F0CCC0A1F0CDC0A2F0C0
:1028E000CEC0A3F02FEC3AF0A0C0A4F0A1C0A5F098
:1028F000A2C0A6F0A3C0A7F0CFC0A8F0D0C0A9F096
:10290000D1C0AAF0D2C0ABF040EC09F0A4C0CFF027
:10291000A5C0D0F0A6C0D1F0A7C0D2F06C0E0001C7
:10292000C26F000E0001C36F0001C2513C240001C0
:10293000C46F0001C3513D200001C56F000E3E2051
:102940000001C66F0001C4510001606F0001C55154
:102950000001616F0001C6510001626F0001636BED
:10296000000E6AEC1DF060C0CBF061C0CCF062C01C
:10297000CDF063C0CEF0CBC087F0CCC088F0CDC026
:1029800089F0CEC08AF0000E00018B6F000E8C6FB4
:102990007A0E8D6F440E8E6F48EC12F087C0CBF02C
:1029A00088C0CCF089C0CDF08AC0CEF0CFC06EF028
:1029B000D0C06FF0D1C070F0D2C071F0CBC072F057
:1029C000CCC073F0CDC074F0CEC075F094EC0BF0B9
:1029D0006EC0CFF06FC0D0F070C0D1F071C0D2F037
:1029E000CFC087F0D0C088F0D1C089F0D2C08AF0C3
:1029F000000E00018B6F000E8C6F7A0E8D6F440EEF
:102A00008E6F48EC12F087C0CFF088C0D0F089C03C
:102A1000D1F08AC0D2F0D20E0001CB6F9B0ECC6FEA
:102A20001B0ECD6F390ECE6FCFC072F0D0C073F0D9
:102A3000D1C074F0D2C075F0CBC06EF0CCC06FF0D6
:102A4000CDC070F0CEC071F094EC0BF06EC0C7F04A
:102A50006FC0C8F070C0C9F071C0CAF0C7C06EF0D6
:102A6000C8C06FF0C9C070F0CAC071F0CFC072F0BA
:102A7000D0C073F0D1C074F0D2C075F094EC0BF0FC
:102A80006EC0CBF06FC0CCF070C0CDF071C0CEF096
:102A9000CFC0A4F0D0C0A5F0D1C0A6F0D2C0A7F09E
:102AA000CBC0A8F0CCC0A9F0CDC0AAF0CEC0ABF08E
:102AB00040EC09F0A4C0CFF0A5C0D0F0A6C0D1F082
:102AC000A7C0D2F0CFC06EF0D0C06FF0D1C070F010
:102AD000D2C071F0000E0001726F000E736F7A0E9B
:102AE000746F440E756F94EC0BF06EC0CFF06FC036
:102AF000D0F070C0D1F071C0D2F0CFC0B8F0D0C06B
:102B0000B9F0D1C0BAF0D2C0BBF032EC28F0B8C0F6
:102B10004EF1B9C04FF1BAC050F1BBC051F1120033
:102B2000E6C060F0E7C061F0E8C062F0E9C063F0C1
:102B3000010E6AEC1DF060C0F6F061C0F7F062C0F3
:102B4000F8F063C0F9F00C0E3C24F66E000E3D2048
:102B5000F76E000E3E20F86E0900F5CF60F0090018
:102B6000F5CF61F00900F5CF62F00A00F5CF63F010
:102B7000000E6AEC1DF060C0EEF061C0EFF062C0C4
:102B8000F0F063C0F1F0F6C087F0F7C088F0F8C04D
:102B900089F0F9C08AF0EEC08BF0EFC08CF0F0C085
:102BA0008DF0F1C08EF048EC12F087C0F6F088C0CE
:102BB000F7F089C0F8F08AC0F9F0000E0001B86F94
:102BC000000EB96F800EBA6F3F0EBB6FF6C0BCF03F
:102BD000F7C0BDF0F8C0BEF0F9C0BFF0B8EC21F00E
:102BE0000001D8B009D0000E0001F66F000EF76F9B
:102BF000800EF86F3F0EF96FF6C0EEF0F7C0EFF001
:102C0000F8C0F0F0F9C0F1F0790E0001C46FFD0ECC
:102C10000001C56FF6C0C6F0F7C0C7F0F8C0C8F035
:102C2000F9C0C9F0000E0001CB6F650ECA6F34EC1D
:102C300010F0C4C0F6F0C5C0F7F0C6C0F8F0C7C0C9
:102C4000F9F0100E3C24F66E000E3D20F76E000EDB
:102C50003E20F86E0900F5CF60F00900F5CF61F075
:102C60000900F5CF62F00A00F5CF63F0010E6AECBF
:102C70001DF060C0F2F061C0F3F062C0F4F063C018
:102C8000F5F0F2C06EF0F3C06FF0F4C070F0F5C074
:102C900071F0F6C072F0F7C073F0F8C074F0F9C0CC
:102CA00075F094EC0BF06EC0F2F06FC0F3F070C0F2
:102CB000F4F071C0F5F0EEC0F6F0EFC0F7F0F0C040
:102CC000F8F0F1C0F9F0E50E0001C46FFB0E000151
:102CD000C56FF6C0C6F0F7C0C7F0F8C0C8F0F9C0BD
:102CE000C9F0000E0001CB6F650ECA6F34EC10F016
:102CF000C4C0F6F0C5C0F7F0C6C0F8F0C7C0F9F020
:102D0000140E3C24F66E000E3D20F76E000E3E20A1
:102D1000F86E0900F5CF60F00900F5CF61F0090009
:102D2000F5CF62F00A00F5CF63F0010E6AEC1DF0FA
:102D300060C0EAF061C0EBF062C0ECF063C0EDF09F
:102D4000EAC06EF0EBC06FF0ECC070F0EDC071F057
:102D5000F6C072F0F7C073F0F8C074F0F9C075F007
:102D600094EC0BF06EC0EAF06FC0EBF070C0ECF0CA
:102D700071C0EDF0F2C0A4F0F3C0A5F0F4C0A6F06D
:102D8000F5C0A7F0EAC0A8F0EBC0A9F0ECC0AAF02B
:102D9000EDC0ABF040EC09F0A4C0F2F0A5C0F3F038
:102DA000A6C0F4F0A7C0F5F0F2C0B8F0F3C0B9F0D7
:102DB000F4C0BAF0F5C0BBF032EC28F0B8C0E6F0D1
:102DC000B9C0E7F0BAC0E8F0BBC0E9F0120084C1B6
:102DD00060F085C161F00001000E61BFFF0E626FFF
:102DE000636F010E6AEC1DF060C0CAF061C0CBF0E9
:102DF00062C0CCF063C0CDF05C0E3C24F66E000ED9
:102E00003D20F76E000E3E20F86E0900F5CF60F011
:102E10000900F5CF61F00900F5CF62F00A00F5CFA7
:102E200063F0000E6AEC1DF060C0C6F061C0C7F030
:102E300062C0C8F063C0C9F0C6C0A0F0C7C0A1F0AE
:102E4000C8C0A2F0C9C0A3F02FEC3AF0A0C0A4F013
:102E5000A1C0A5F0A2C0A6F0A3C0A7F0CAC0A8F068
:102E6000CBC0A9F0CCC0AAF0CDC0ABF040EC09F0CB
:102E7000A4C0CAF0A5C0CBF0A6C0CCF0A7C0CDF0CE
:102E8000600E3C24F66E000E3D20F76E000E3E20D4
:102E9000F86E0900F5CF60F00900F5CF61F0090088
:102EA000F5CF62F00A00F5CF63F0000E6AEC1DF07A
:102EB00060C0C6F061C0C7F062C0C8F063C0C9F0AE
:102EC000C6C087F0C7C088F0C8C089F0C9C08AF002
:102ED000000E00018B6F000E8C6F7A0E8D6F440E0A
:102EE0008E6F48EC12F087C0C6F088C0C7F089C06A
:102EF000C8F08AC0C9F0CAC06EF0CBC06FF0CCC0B9
:102F000070F0CDC071F0C6C072F0C7C073F0C8C019
:102F100074F0C9C075F094EC0BF06EC0CAF06FC0CD
:102F2000CBF070C0CCF071C0CDF0CAC087F0CBC080
:102F300088F0CCC089F0CDC08AF0000E00018B6F04
:102F4000000E8C6F7A0E8D6F440E8E6F48EC12F06F
:102F500087C0CAF088C0CBF089C0CCF08AC0CDF061
:102F6000D20E0001C66F9B0EC76F1B0EC86F390EC5
:102F7000C96FCAC072F0CBC073F0CCC074F0CDC0C2
:102F800075F0C6C06EF0C7C06FF0C8C070F0C9C0A1
:102F900071F094EC0BF06EC0C2F06FC0C3F070C063
:102FA000C4F071C0C5F0C2C06EF0C3C06FF0C4C041
:102FB00070F0C5C071F0CAC072F0CBC073F0CCC065
:102FC00074F0CDC075F094EC0BF06EC0C6F06FC01D
:102FD000C7F070C0C8F071C0C9F0CAC0A4F0CBC0BF
:102FE000A5F0CCC0A6F0CDC0A7F0C6C0A8F0C7C061
:102FF000A9F0C8C0AAF0C9C0ABF040EC09F0A4C069
:10300000CAF0A5C0CBF0A6C0CCF0A7C0CDF0CAC016
:103010006EF0CBC06FF0CCC070F0CDC071F0000E80
:103020000001726F000E736F7A0E746F440E756F2D
:1030300094EC0BF06EC0CAF06FC0CBF070C0CCF057
:1030400071C0CDF0CAC0B8F0CBC0B9F0CCC0BAF0F6
:10305000CDC0BBF032EC28F0B8C056F1B9C057F182
:10306000BAC058F1BBC059F11200000E00017E6FCA
:10307000000E7F6F000E806F000E816F030E000147
:10308000706118D1000E00016F6F000E6E6F12009C
:103090006EC0D9FF6FC0DAFFDECF7AF0DDCF7BF0F4
:1030A0007AC07CF07BC07DF0000E00017E6F000EC8
:1030B0007F6F000E806F000E816F000E0001826F27
:1030C0007FD000018251020DF35000016E25D96EB0
:1030D000F45000016F21DA6E00017C51DE5CDE509D
:1030E000800A0001746F00017D51800A000174594B
:1030F000D8B011D000018251020DF35000016E25AD
:10310000D96EF45000016F21DA6EDECF7CF0DDCF96
:103110007DF082C079F000018251020DF350000170
:103120006E25D96EF45000016F21DA6EDE50000179
:103130007A5D00017B51800A0001746FDE50800AC5
:1031400000017459D8B011D000018251020DF35022
:1031500000016E25D96EF45000016F21DA6EDECFCA
:103160007AF0DDCF7BF082C078F000018251020D51
:10317000F35000016E25D96EF45000016F21DA6E14
:10318000DECF72F0DDCF73F072C074F073C075F0F3
:10319000000E000175BFFF0E766F776F000174514E
:1031A00000017E270001755100017F230001765147
:1031B0000001802300017751000181230001822B4F
:1031C000000170510001825DD8A07BD700017C51C5
:1031D00000017A250001726F00017D5100017B2101
:1031E0000001736F0001746B000173BF740700016D
:1031F00074510001756F0001725100017E5F000182
:10320000735100017F5B000174510001805B00017C
:1032100075510001815B7EC060F07FC061F080C0AD
:1032200062F081C063F0FE0E0001726FFF0E0001BC
:10323000736F000170510001746F756B0001725162
:1032400000017427000173510001752374C064F0FC
:1032500075C065F00001000E65BFFF0E666F676FF9
:1032600090EC26F060C07EF061C07FF062C080F01C
:1032700063C081F000017951020DF35000016E2509
:10328000D96EF45000016F21DA6E7EC0DEFF7FC080
:10329000DDFF00017851020DF35000016E25D96E5B
:1032A000F45000016F21DA6E7EC0DEFF7FC0DDFFCB
:1032B00000017107000171510001D8A4E9D67EC058
:1032C0006EF07FC06FF01200000E00016F6F000EF5
:1032D000706F000E716F000E726F302A3B0E3064FB
:1032E0001200000E306EFBEC3BF0000E00016F6F21
:1032F000000E706F000E716F000E726F000E0001F5
:10330000736F030E0001736501D018D0020EC4EC78
:1033100035F064C06DF065C06EF000016D510001C4
:103320006F2700016E5100017023000E0001712310
:10333000000E000172230001732BE3D76FC069F008
:1033400070C06AF071C06BF072C06CF0030E06D0F2
:103350000001D8906C336B336A336933E82EF8D7A9
:1033600069C06AF16AC06BF1000E00016F6F000E58
:10337000706F000E716F000E726F000E0001736FA0
:10338000030E0001736501D018D0010EC4EC35F0B6
:1033900064C06DF065C06EF000016D5100016F27D3
:1033A00000016E5100017023000E00017123000E18
:1033B000000172230001732BE3D76FC069F070C066
:1033C0006AF071C06BF072C06CF0030E06D00001A1
:1033D000D8906C336B336A336933E82EF8D769C001
:1033E0006CF16AC06DF1000E00016F6F000E706F1E
:1033F000000E716F000E726F000E0001736F030EEE
:103400000001736501D018D0000EC4EC35F064C023
:103410006DF065C06EF000016D5100016F27000175
:103420006E5100017023000E00017123000E000197
:1034300072230001732BE3D76FC069F070C06AF08C
:1034400071C06BF072C06CF0030E06D00001D89012
:103450006C336B336A336933E82EF8D769C074F183
:103460006AC075F1000E00016F6F000E706F000EE4
:10347000716F000E726F000E0001736F030E00017A
:10348000736501D018D0030EC4EC35F064C06DF044
:1034900065C06EF000016D5100016F2700016E5193
:1034A00000017023000E00017123000E0001722341
:1034B0000001732BE3D76FC069F070C06AF071C070
:1034C0006BF072C06CF0030E06D00001D8906C3324
:1034D0006B336A336933E82EF8D769C072F16AC07A
:1034E00073F1010E0101876F1200000120EE0CF054
:1034F000C251D926C351DA22DECF60F0DECF61F0AF
:10350000DECF62F0DECF63F0000E6AEC1DF060C02B
:10351000DAF061C0DBF062C0DCF063C0DDF0000116
:1035200020EE08F0C251D926C351DA22DECF60F076
:10353000DECF61F0DECF62F0DECF63F0010E6AEC29
:103540001DF060C0D2F061C0D3F062C0D4F063C09F
:10355000D5F0000E00018B6F000E8C6F7A0E8D6F10
:10356000440E8E6FDAC087F0DBC088F0DCC089F0D3
:10357000DDC08AF048EC12F087C0C6F088C0C7F002
:1035800089C0C8F08AC0C9F0C6C087F0C7C088F03B
:10359000C8C089F0C9C08AF0000E00018B6F000E10
:1035A0008C6F000E8D6F400E8E6F48EC12F087C04E
:1035B000DAF088C0DBF089C0DCF08AC0DDF0D2C070
:1035C00087F0D3C088F0D4C089F0D5C08AF0000E4F
:1035D00000018B6F000E8C6F7A0E8D6F440E8E6F14
:1035E00048EC12F087C0D2F088C0D3F089C0D4F084
:1035F0008AC0D5F0DAC072F0DBC073F0DCC074F0C2
:10360000DDC075F0DAC06EF0DBC06FF0DCC070F0CA
:10361000DDC071F094EC0BF06EC0CAF06FC0CBF05F
:1036200070C0CCF071C0CDF0D2C072F0D3C073F0D6
:10363000D4C074F0D5C075F0CAC06EF0CBC06FF0C6
:10364000CCC070F0CDC071F094EC0BF06EC0CEF039
:103650006FC0CFF070C0D0F071C0D1F0CEC06EF0AE
:10366000CFC06FF0D0C070F0D1C071F0F90E000182
:10367000726F0F0E736F490E746F400E756F94EC7E
:103680000BF06EC0D6F06FC0D7F070C0D8F071C02C
:10369000D9F0D6C06EF0D7C06FF0D8C070F0D9C0E6
:1036A00071F0000E0001726F000E736F7A0E746F6E
:1036B000440E756F94EC0BF06EC0D6F06FC0D7F06F
:1036C00070C0D8F071C0D9F0D6C0B8F0D7C0B9F08A
:1036D000D8C0BAF0D9C0BBF032EC28F0B8C0C2F004
:1036E000B9C0C3F0BAC0C4F0BBC0C5F0120000013D
:1036F000CD6F010E0001CD6501D012000001CD514A
:10370000020D6A0EF324D96E010EF420DA6EDECFBC
:1037100060F0DDCF61F00001000E61BFFF0E626F4F
:10372000636F010E6AEC1DF060C0C5F061C0C6F0A9
:1037300062C0C7F063C0C8F00001CD51040D640E33
:10374000F326000EF422F3503C240001C26FF45023
:103750003D200001C36F000E3E200001C46FC2C0B7
:10376000F6FFC3C0F7FFC4C0F8FF0900F5CF60F053
:103770000900F5CF61F00900F5CF62F00A00F5CF3E
:1037800063F0000E6AEC1DF060C0C9F061C0CAF0C1
:1037900062C0CBF063C0CCF0C9C0A0F0CAC0A1F039
:1037A000CBC0A2F0CCC0A3F02FEC3AF0A0C0A4F0A4
:1037B000A1C0A5F0A2C0A6F0A3C0A7F0C5C0A8F004
:1037C000C6C0A9F0C7C0AAF0C8C0ABF040EC09F071
:1037D000A4C0C5F0A5C0C6F0A6C0C7F0A7C0C8F079
:1037E0000001CD51040D6C0EF326000EF422F350AF
:1037F0003C240001C26FF4503D200001C36F000E55
:103800003E200001C46FC2C0F6FFC3C0F7FFC4C0B2
:10381000F8FF0900F5CF60F00900F5CF61F009006D
:10382000F5CF62F00A00F5CF63F0000E6AEC1DF0F0
:1038300060C0C9F061C0CAF062C0CBF063C0CCF018
:10384000C9C087F0CAC088F0CBC089F0CCC08AF06C
:10385000000E00018B6F000E8C6F7A0E8D6F440E80
:103860008E6F48EC12F087C0C9F088C0CAF089C0DA
:10387000CBF08AC0CCF0C5C06EF0C6C06FF0C7C038
:1038800070F0C8C071F0C9C072F0CAC073F0CBC08C
:1038900074F0CCC075F094EC0BF06EC0C5F06FC046
:1038A000C6F070C0C7F071C0C8F0C5C0B8F0C6C0DF
:1038B000B9F0C7C0BAF0C8C0BBF032EC28F00001C4
:1038C000CD51040D2B0EF324D96E010EF420DA6EC7
:1038D0000001B8C0DEFF0001B9C0DEFF0001BAC0C0
:1038E000DEFF0001BBC0DEFF1200030E0201006F0D
:1038F000000E00016F6F020E00016F6501D0120013
:1039000000016F51340D040EF324D96E020EF42021
:10391000DA6E060EDF6E000E00016E6F050E0001FE
:103920006E6501D0D4D06EC062F00001636B170EDB
:103930000001656F700E646F81EC3AF062C068F050
:1039400063C069F06FC062F00001636B010E00019B
:10395000656FF40E646F81EC3AF000016251000172
:103960006827000163510001692300016E51080DB1
:10397000040EF326000EF422000E00016A6F020E00
:1039800000016B6F040E00016A27000E6B23F350D9
:1039900000016A27F45000016B2300016F51340DC0
:1039A000F35000016A27F45000016B23040E00015C
:1039B0006A25D96E000E00016B21DA6E68C0DEFF49
:1039C00069C0DDFF6EC062F00001636B170E00017D
:1039D000656F700E646F81EC3AF0000162C068F0B0
:1039E000000163C069F0000E000169BFFF0E6A6F3D
:1039F0006B6F00016E51080D040EF326000EF422C9
:103A0000000E00016C6F020E00016D6F040E0001CC
:103A10006C27000E6D23F35000016C27F450000159
:103A20006D2300016F51340DF35000016C25D96EE8
:103A3000F45000016D21DA6E68C0DEFF69C0DEFF60
:103A40006AC0DEFF6BC0DEFFE80E0001686F030E88
:103A50000001696F00016F5100016A6F6B6B00011B
:103A6000685100016A270001695100016B230001C0
:103A70006E51080D040EF326000EF422000E000114
:103A80006C6F020E00016D6F040E00016C27000EBA
:103A90006D23F35000016C27F45000016D230001E9
:103AA0006F51340DF35000016C27F45000016D2369
:103AB000060E00016C25D96E000E00016D21DA6E34
:103AC0006AC0DEFF6BC0DDFF00016E2B27D700014F
:103AD0006F2B11D70001686F000168510001D8B445
:103AE0001ED0000163AF1BD060C064F061C065F000
:103AF00062C066F063C067F00001641F651F661F47
:103B0000671F642B000E65236623672364C06AF079
:103B100065C06BF066C06CF067C06DF008D060C027
:103B20006AF061C06BF062C06CF063C06DF00001C0
:103B30006051000161110001621100016311D8A4FC
:103B40000AD0000E0001606F000E616F000E626F00
:103B5000000E636F1200960E0001696F08D000011D
:103B6000692B0001D8906D336C336B336A33000ED0
:103B700000016A150001646F000E00016B15000161
:103B8000656F000E00016C150001666FFE0E0001EE
:103B90006D150001676F000164510001651100019E
:103BA000661100016711D8B410D0D9D70001692B74
:103BB000010E00016A27000E6B236C236D230001A8
:103BC000D8906D336C336B336A33000E00016A1585
:103BD0000001646F000E00016B150001656F000E9F
:103BE00000016C150001666FFF0E00016D150001EC
:103BF000676F000164510001651100016611000149
:103C00006711D8B409D0D2D7000169070001D89054
:103C10006A376B376C376D3700016CBF04D0020E0A
:103C200000016961F1D7000169B109D0FF0E0001FF
:103C30006A17FF0E6B177F0E6C17FF0E6D170001D2
:103C4000D890693369C064F00001656B666B676B7F
:103C500064C067F00001666B656B646B00016451C2
:103C600000016A130001655100016B1300016651E8
:103C700000016C130001675100016D1300016851D0
:103C80000001D8B405D0000163AF02D000016D8FF0
:103C90006AC060F06BC061F06CC062F06DC063F030
:103CA0001200010E0301006F000E00016E6F000193
:103CB0006E510001D8A4120000016E51340D040EA3
:103CC000F324D96E030EF420DA6E060EDF6E000EBA
:103CD00000016F6F050E00016F6501D0C1D06FC08C
:103CE00062F00001636B170E0001656F700E646F68
:103CF00081EC3AF062C068F063C069F06EC062F0B7
:103D00000001636B010E0001656FF40E646F81ECBE
:103D10003AF000016251000168270001635100017F
:103D2000692300016F51080D040EF326000EF422E2
:103D3000000E00016A6F030E00016B6F040E00019C
:103D40006A27000E6B23F35000016A27F45000012C
:103D50006B2300016E51340DF35000016A27F450BB
:103D600000016B23040E00016A25D96E000E0001CC
:103D70006B21DA6E68C0DEFF69C0DDFF6FC062F0E4
:103D80000001636B170E0001656F700E646F81ECAC
:103D90003AF0000162C068F0000163C069F0000EF3
:103DA000000169BFFF0E6A6F6B6F00016F51080D54
:103DB000040EF326000EF422000E00016C6F030EB9
:103DC00000016D6F040E00016C27000E6D23F3508F
:103DD00000016C27F45000016D2300016E51340D79
:103DE000F35000016C25D96EF45000016D21DA6E9C
:103DF00068C0DEFF69C0DEFF6AC0DEFF6BC0DEFFA9
:103E000000016F51080D040EF326000EF422000E7F
:103E10000001686F030E0001696F040E000168273E
:103E2000000E6923F35000016827F4500001692354
:103E300000016E51340DF35000016827F450000169
:103E40006923060E00016825D96E000E0001692164
:103E5000DA6E000EDE6E000EDD6E00016F2B3AD7BB
:103E600000016E2B24D7000E0001696F000E686FF1
:103E7000000120EE06F06451D9266551DA2201D8FE
:103E80000AD00500FA6EDE50FD6EDE50FE6EF85070
:103E9000FF6EFA501200000120EE0AF06451D9269C
:103EA0006551DA2201D812D00500FA6EDE50FD6E9F
:103EB000DE50FE6EF850FF6EFA50000120EE01F069
:103EC0006451D9266551DA22DF501200000120EE3C
:103ED0000AF06451D9266551DA2201D80CD00500C8
:103EE000FA6EDE50FD6EDE50FE6EF850FF6EFA5038
:103EF000000166511200000120EE08F06451D9263D
:103F00006551DA2201D80AD00500FA6EDE50FD6E46
:103F1000DE50FE6EF850FF6EFA501200000120EEE7
:103F200006F06451D9266551DA2201D80AD005007D
:103F3000FA6EDE50FD6EDE50FE6EF850FF6EFA50E7
:103F40001200000120EE0AF06451D9266551DA22F0
:103F500001D816D00500FA6EDE50FD6EDE50FE6E02
:103F6000F850FF6EFA50000120EE01F06451D9269E
:103F70006551DA22DF500001676F000167291200E6
:103F8000000120EE0EF06451D9266551DA2201D8E5
:103F90000BD00500FA6EDE50FD6EDE50FE6EF8505E
:103FA000FF6EFA50000E12000001676F00016751AA
:103FB0000001686F696B00016851696F686B0001EF
:103FC00020EE0EF06451D9266551DA2201D80BD0CB
:103FD0000500FA6EDE50FD6EDE50FE6EF850FF6E8C
:103FE000FA50000E12000001676F000167510001D6
:103FF0006813000120EE08F06451D9266551DA22D9
:1040000001D80AD00500FA6EDE50FD6EDE50FE6E5D
:10401000F850FF6EFA50120068C064F069C065F095
:104020001200000120EE01F06451D9266551DA2218
:1040300001D80AD00500FA6EDE50FD6EDE50FE6E2D
:10404000F850FF6EFA501200000120EE05F06451A6
:10405000D9266551DA2201D80FD00500FA6EDE505C
:10406000FD6EDE50FE6EF850FF6EFA5064C0D9FF50
:1040700065C0DAFFDF501200000120EE05F0645148
:10408000D9266551DA2201D80CD00500FA6EDE502F
:10409000FD6EDE50FE6EF850FF6EFA500001665164
:1040A0001200000120EE01F06451D9266551DA2298
:1040B00001D80AD00500FA6EDE50FD6EDE50FE6EAD
:1040C000F850FF6EFA501200000120EE05F0645126
:1040D000D9266551DA2201D813D00500FA6EDE50D8
:1040E000FD6EDE50FE6EF850FF6EFA5064C0D9FFD0
:1040F00065C0DAFFDF5000016B6F00016B29120011
:10410000000E0001706F000E6F6F1FD0000120EED7
:1041100009F06451D9266551DA2201D80BD0050087
:10412000FA6EDE50FD6EDE50FE6EF850FF6EFA50F5
:10413000000E120067C0D9FF68C0DAFFDF6E000111
:10414000674B682B00016F4B702BFF0E00016B6FEC
:10415000FF0E00016C6F69C06DF06AC06EF0000167
:104160006B5100016D2700016C5100016E230001AD
:104170006D5100016F5D00016E5100017059D8A0B2
:10418000C5D7000120EE09F06451D9266551DA2225
:1041900001D80BD00500FA6EDE50FD6EDE50FE6ECB
:1041A000F850FF6EFA50010E120067C0D9FF68C0C8
:1041B000DAFFDF6E000120EE03F06451D92665516D
:1041C000DA2201D812000500FA6EDE50FD6EDE50D4
:1041D000FE6EF850FF6EFA501200000E0001806F64
:1041E000312A3B0E31641200000E316E93988A889A
:1041F000949A8B8A000E0001656F140E646FD6ECE2
:104200003BF021C060F022C061F0040E0001626F3B
:104210000DEC3CF021C067F022C068F0C1EC3BF02F
:10422000000E0001656F140E646FD6EC3BF021C0E8
:104230006AF022C06BF0D4EC38F06AC081F06BC039
:1042400082F0E20E00016E6F010E00016F6F81C0FF
:1042500070F082C071F0040E0001726F80EC22F0E9
:104260006EC027F06FC028F021C060F022C061F05E
:10427000040E0001626F0DEC3CF021C067F022C01B
:1042800068F0C1EC3BF0000E0001656F140E646F26
:10429000D6EC3BF021C06AF022C06BF0D4EC38F0D1
:1042A0006AC081F06BC082F0DA0E00016E6F010E01
:1042B00000016F6F81C070F082C071F0040E0001C8
:1042C000726F80EC22F06EC081F06FC082F081C00E
:1042D0007EF082C07FF0D89000017E377F370001EA
:1042E0007E1F7F1F7E4B7F2B275000017E25276E70
:1042F000285000017F21286E010E0101896F21C025
:1043000060F022C061F0030E0001626F0DEC3CF022
:1043100021C067F022C068F0C1EC3BF0000E000144
:10432000656F140E646FD6EC3BF021C06AF022C0BA
:104330006BF0D4EC38F06AC081F06BC082F0D20E22
:1043400000016E6F010E00016F6F81C070F082C0BE
:1043500071F0040E0001726F80EC22F06EC082F1E9
:104360006FC083F1010E0101886F949A8B9A12003D
:10437000000E0001B8150001C06F000E0001B91554
:104380000001C16F800E0001BA150001C26F7F0EDF
:104390000001BB150001C36F0001C0510001C11134
:1043A0000001C2110001C311D8A409D0000E000100
:1043B000B86F000EB96F000EBA6F000EBB6F000E23
:1043C0000001BC150001C06F000E0001BD15000109
:1043D000C16F800E0001BE150001C26F7F0E00018B
:1043E000BF150001C36F0001C0510001C1110001E0
:1043F000C2110001C311D8A409D0000E0001BC6F86
:10440000000EBD6F000EBE6F000EBF6F0001BBAF90
:1044100026D0B8C0C0F0B9C0C1F0BAC0C2F0BBC0AD
:10442000C3F00001C01FC11FC21FC31FC02B000E5D
:10443000C123C223C323000E0001C0250001B86FB1
:10444000000E0001C1210001B96F000E0001C22160
:104450000001BA6F800E0001C3210001BB6F000193
:10446000BFAF26D0BCC0C0F0BDC0C1F0BEC0C2F05E
:10447000BFC0C3F00001C01FC11FC21FC31FC02B9C
:10448000000EC123C223C323000E0001C02500017A
:10449000BC6F000E0001C1210001BD6F000E0001C4
:1044A000C2210001BE6F800E0001C3210001BF6F59
:1044B000000E0001B81B000EB91B000EBA1B800EC7
:1044C000BB1B000E0001BC1B000EBD1B000EBE1B63
:1044D000800EBF1B0001BC510001B85D0001BD5141
:1044E0000001B9590001BE510001BA590001BF5184
:1044F0000001BB59D8B002D0D8901200D880120069
:10450000000E0001796F000E7A6F000E7B6F000EB7
:104510007C6F0001720500017D6F00017D5100017B
:10452000D8B45CD0FE0E0001736FFF0E0001746FF3
:1045300000017D510001756F766BD89000017537D1
:104540007637000173510001752700017451000195
:1045500076230001755100016E25D96E0001765158
:1045600000016F21DA6E00017D51020DF350000150
:104570006E25E16EF45000016F21E26EDECFE6FFA2
:10458000DDCFE5FF00017D51020DF35000016E25E6
:10459000D96EF45000016F21DA6EDECF73F0DDCFFB
:1045A00074F073C075F074C076F0000E000176BF31
:1045B000FF0E776F786F00017551000179270001B8
:1045C000765100017A230001775100017B2300011D
:1045D000785100017C2300017D079FD700017D51A8
:1045E000020DF35000016E25D96EF45000016F21C9
:1045F000DA6E70C0DEFF71C0DDFF70C073F071C095
:1046000074F0000E000174BFFF0E756F766F00012D
:104610007351000179270001745100017A230001D0
:10462000755100017B230001765100017C2379C084
:1046300060F07AC061F07BC062F07CC063F0000182
:1046400072510001646F656B666B676B90EC26F0CE
:1046500060C079F061C07AF062C07BF063C07CF02A
:1046600079C06EF07AC06FF01200000E0001E16FA9
:10467000040E0001E26FE1C0DFF0E2C0E0F0000EE6
:104680000001606FF40E616F000E626F000E636FC9
:10469000E1C064F0E2C065F0000E0001676F960EA5
:1046A000666FEFEC33F0E1C06CF0E2C06DF0000E2D
:1046B00000016F6F960E6E6FE6EC32F00001DE6F58
:1046C0000001DE510001D8A41200E1C060F0E2C098
:1046D00061F00D0E0001626FFF0E0001636F000EAE
:1046E0000001656F960E646F88EC38F0DFC0C2F091
:1046F000E0C0C3F075EC1AF0000120EE10F0DF51BD
:10470000D926E051DA220001C2C0DEFF0001C3C099
:10471000DEFF0001C4C0DEFF0001C5C0DEFFDFC058
:10472000C2F0E0C0C3F0E9EC23F0000120EE14F089
:10473000DF51D926E051DA220001C2C0DEFF0001BC
:10474000C3C0DEFF0001C4C0DEFF0001C5C0DEFF44
:10475000E1C06CF0E2C06DF0000E00016F6F940ECE
:104760006E6F2EEC36F0000E00016E6FF40E6F6F60
:10477000000E706F000E716FE1C072F0E2C073F056
:10478000000E0001756F960E746FF4EC25F0000EAC
:104790000001606FF40E616F000E626F000E636FB8
:1047A000E1C064F0E2C065F0000E0001676F960E94
:1047B000666FEFEC33F0E1C06CF0E2C06DF0000E1C
:1047C00000016F6F960E6E6FE6EC32F00001DE6F47
:1047D0001200000120EE0CF0C251D926C351DA229A
:1047E000DECF60F0DECF61F0DECF62F0DECF63F0CF
:1047F000000E6AEC1DF060C0D2F061C0D3F062C060
:10480000D4F063C0D5F0D2C087F0D3C088F0D4C054
:1048100089F0D5C08AF0000E00018B6F000E8C6FFE
:104820007A0E8D6F440E8E6F48EC12F087C0D2F076
:1048300088C0D3F089C0D4F08AC0D5F0D2C072F05D
:10484000D3C073F0D4C074F0D5C075F0D2C06EF090
:10485000D3C06FF0D4C070F0D5C071F094EC0BF001
:104860006EC0C6F06FC0C7F070C0C8F071C0C9F0AC
:10487000D2C072F0D3C073F0D4C074F0D5C075F05C
:10488000C6C06EF0C7C06FF0C8C070F0C9C071F08C
:1048900094EC0BF06EC0CAF06FC0CBF070C0CCF0DF
:1048A00071C0CDF0CAC06EF0CBC06FF0CCC070F05C
:1048B000CDC071F0A60E0001726F0A0E736F860EE6
:1048C000746F3E0E756F94EC0BF06EC0CEF06FC03F
:1048D000CFF070C0D0F071C0D1F0CEC06EF0CFC0BC
:1048E0006FF0D0C070F0D1C071F0000E0001726F97
:1048F000000E736F7A0E746F440E756F94EC0BF0AC
:104900006EC0CEF06FC0CFF070C0D0F071C0D1F0EB
:10491000CEC0B8F0CFC0B9F0D0C0BAF0D1C0BBF0B3
:1049200032EC28F0B8C0C2F0B9C0C3F0BAC0C4F0CD
:10493000BBC0C5F0120000016BBF0DD0100E00010E
:104940006A5D270E00016B59D8A005D0270E000123
:104950006B6F0F0E6A6F6AC060F06BC061F0000E83
:104960000001636F0A0E626F6BEC2FF0D40E000132
:104970006025F66EFB0E00016121F76E000120EE4E
:1049800003F06851D9266951DA220800F5CFDFFF1C
:104990006AC060F06BC061F0000E0001636F0A0E28
:1049A000626F4FEC2DF060C06AF061C06BF06AC0BE
:1049B00060F06BC061F0000E0001636F0A0E626F61
:1049C0006BEC2FF0D40E00016025F66EFB0E00019B
:1049D0006121F76E000120EE02F06851D92669517D
:1049E000DA220800F5CFDFFF6AC060F06BC061F02B
:1049F000000E0001636F0A0E626F4FEC2DF060C075
:104A00006AF061C06BF06AC060F06BC061F0000ECC
:104A10000001636F0A0E626F6BEC2FF0D40E000181
:104A20006025F66EFB0E00016121F76E000120EE9D
:104A300001F06851D9266951DA220800F5CFDFFF6D
:104A40006AC060F06BC061F0000E0001636F0A0E77
:104A5000626F4FEC2DF060C06AF061C06BF06AC00D
:104A600060F06BC061F0000E0001636F0A0E626FB0
:104A70006BEC2FF0D40E00016025F66EFB0E0001EA
:104A80006121F76E68C0D9FF69C0DAFF0800F5CF71
:104A9000DFFF1200000E0001856F322A3B0E3264E8
:104AA0001200000E326E93988A88949A8B8A000EB8
:104AB0000001656F140E646FD6EC3BF023C060F00C
:104AC00024C061F0000E0001626F0DEC3CF023C0C9
:104AD00067F024C068F0C1EC3BF0000E0001656F88
:104AE000140E646FD6EC3BF023C06AF024C06BF068
:104AF000D4EC38F06AC086F06BC087F0AC0E0001D1
:104B00006E6F010E00016F6F86C070F087C071F08C
:104B1000080E0001726F80EC22F023C060F024C008
:104B200061F0030E0001626F0DEC3CF023C067F0F2
:104B300024C068F0C1EC3BF0000E0001656F140E5C
:104B4000646FD6EC3BF023C06AF024C06BF0D4EC69
:104B500038F06AC086F06BC087F09C0E00016E6F63
:104B6000010E00016F6F86C070F087C071F0080EF3
:104B70000001726F80EC22F023C060F024C061F06D
:104B8000050E0001626F0DEC3CF023C067F024C0FD
:104B900068F0C1EC3BF0000E0001656F140E646F0D
:104BA000D6EC3BF023C06AF024C06BF0D4EC38F0B4
:104BB0006AC086F06BC087F086C07AF187C07BF14F
:104BC000949A8B9A3650375CD8A01200050E376441
:104BD0001200EA0E0001836F010E0001846FB0EC39
:104BE00033F0010E346E1200000E00017F6F040ED0
:104BF0000001806FFF0E00016E150001816F030E32
:104C000000016F150001826F0001745100018125C0
:104C10000001766F00017551000182210001776F5C
:104C200000017605010E00017759D8B01200000E80
:104C300000016E1500017A6FFC0E00016F15000176
:104C40007B6FFF0E0001701500017C6FFF0E0001ED
:104C5000711500017D6F7AC060F07BC061F07CC08F
:104C600062F07DC063F07FC064F080C065F0010E2B
:104C70000001676F000E666FEFEC33F000018151A9
:104C800000017F250001606F000182510001802139
:104C90000001616F72C062F073C063F074C064F0B1
:104CA00075C065F088EC38F07AC060F07BC061F0C8
:104CB0007CC062F07DC063F005EC38F0040E0001AA
:104CC000786F000E0001826F7F0E816F81C0E9FF57
:104CD00000018251816F826B81C0EAFF000E0001EA
:104CE000796F17D0000E00017E6F3F0E00017E65C8
:104CF00001D007D0EECFE8FFF56E0D0000017E2B4E
:104D0000F4D70A00A6843EEC3CF0A6940D00000106
:104D1000792B000178510001795DD8B01200E2D7FB
:104D2000000E0001696F000167AF0CD00001671F22
:104D3000661F651F646D000E652366236723010EE1
:104D40000001696F000163AF0CD00001631F621F97
:104D5000611F606D000E612362236323010E000159
:104D6000691B000E00016A6F000E6B6F000E6C6F06
:104D7000000E6D6F000164510001651100016611A4
:104D800000016711D8B442D0010E0001686F08D04D
:104D90000001D89064376537663767370001682BA4
:104DA000000167AFF5D70001D8906A376B376C37D1
:104DB0006D37000164510001605D00016551000123
:104DC00061590001665100016259000167510001FB
:104DD0006359D8A012D0000164510001605F000146
:104DE00065510001615B000166510001625B0001D9
:104DF00067510001635B00016A810001D89067334D
:104E00006633653364330001682FCDD700016951E3
:104E10000001D8B409D000016D1F6C1F6B1F6A6DB3
:104E2000000E6B236C236D236AC060F06BC061F0D1
:104E30006CC062F06DC063F01200000E0001856F5F
:104E4000640E01017027000E71230101715105E10B
:104E5000330E0101705DD8A01200000E0101716FC8
:104E6000000E706F23C06AF024C06BF0D4EC38F0F1
:104E70006AC086F06BC087F03550D8A41BD0060EF0
:104E800037600DD03750020DAC0EF324D96E010EF1
:104E9000F420DA6E86C0DEFF87C0DDFF372A23C02C
:104EA00060F024C061F0030E0001626F0DEC3CF075
:104EB000010E30D03504D8A41BD0060E36600DD0BC
:104EC0003650020D9C0EF324D96E010EF420DA6EDA
:104ED00086C0DEFF87C0DDFF362A23C060F024C015
:104EE00061F0050E0001626F0DEC3CF0020E12D075
:104EF00086C07AF187C07BF186C084F187C085F1D6
:104F000023C060F024C061F0000E0001626F0DEC60
:104F10003CF0000E356E23C067F024C068F0C1EC91
:104F20003BF03650375CD8A01200050E37641200F3
:104F3000EA0E0001836F010E0001846FB0EC33F0C4
:104F4000000E366E36C037F0010E346E010E336E31
:104F50001200EA0E0201CC6F010E0201CD6F000EAD
:104F60000201CE6F000E0201CE6F22D00201CE519F
:104F7000340D040EF3240201B26F020EF42002017C
:104F8000B36FB2C27AF0B3C27BF0CCC27CF0CDC2B8
:104F90007DF00201CE51080DB40EF32400017E6FA6
:104FA000020EF42000017F6F37EC04F00201CE2BDB
:104FB000020100510201CE5DD8A0D8D7B40E000185
:104FC0007A6F020E00017B6FCCC27CF0CDC27DF007
:104FD000CEC27EF0E7EC0DF0CCC2D9FFCDC2DAFF35
:104FE000DECF66F1DECF67F1DECF68F1DECF69F1AB
:104FF000CCC2C2F0CDC2C3F03BEC2BF0040E3C247B
:10500000F66E000E3D20F76E000E3E20F86E080092
:10501000F5500009D8A413D062C1E6F063C1E7F0EF
:1050200064C1E8F065C1E9F090EC15F0E6C05AF112
:10503000E7C05BF1E8C05CF1E9C05DF1120062C15C
:10504000E6F063C1E7F064C1E8F065C1E9F06EEC39
:1050500000F0E6C05AF1E7C05BF1E8C05CF1E9C0DE
:105060005DF112000001BA35BB350001C16F0001CE
:10507000C151D8A40AD0000E0001B86F000EB96F5C
:10508000000EBA6F000EBB6F1200B8C0BCF0B9C002
:10509000BDF0BAC0BEF0BBC0BFF0200E06D000010C
:1050A000D890BF33BE33BD33BC33E82EF8D70001F0
:1050B000BC510001C06F0001BA8FFF0E0001B8178C
:1050C000FF0EB917FF0EBA17000EBB17960E0001A0
:1050D000C15F0001C1AF1AD00001C151800A970F12
:1050E000D8B00AD0000E0001B86F000EB96F000EE4
:1050F000BA6F000EBB6F12000001D890BB33BA33F9
:10510000B933B8330001C13FF7D71BD01F0E0001E0
:10511000C16512D0000E0001B86F000EB96F000E0D
:10512000BA6F000EBB6F12000001D890B837B937C4
:10513000BA37BB370001C1070001C1510001D8A433
:10514000F3D70001C0510001D8B409D00001BB1F42
:10515000BA1FB91FB86D000EB923BA23BB23B8C05C
:10516000B8F0B9C0B9F0BAC0BAF0BBC0BBF0120019
:10517000000E00016A6F000E696F73D0000120EE0F
:1051800001F06251D9266351DA2201D80AD0050014
:10519000FA6EDE50FD6EDE50FE6EF850FF6EFA5075
:1051A0001200000120EE05F06251D9266351DA2287
:1051B00001D80FD00500FA6EDE50FD6EDE50FE6E97
:1051C000F850FF6EFA5062C0D9FF63C0DAFFDF50BB
:1051D0001200000120EE05F06251D9266351DA2257
:1051E00001D80CD00500FA6EDE50FD6EDE50FE6E6A
:1051F000F850FF6EFA500001645112000001642B58
:10520000000120EE05F06251D9266351DA2201D85F
:105210000FD00500FA6EDE50FD6EDE50FE6EF850C7
:10522000FF6EFA5065C0D9FF66C0DAFFDF5012008A
:105230000001654B662B000120EE03F06251D92678
:105240006351DA2201D80AD00500FA6EDE50FD6EF5
:10525000DE50FE6EF850FF6EFA5012000001694BEE
:105260006A2B000167510001695D0001685100016E
:105270006A59D8B0120082D742C179F043C17AF09E
:1052800044C17BF045C17CF06DC075F06EC076F016
:105290006FC077F070C078F0000170AF40D06DC083
:1052A00071F06EC072F06FC073F070C074F00001E6
:1052B000711F721F731F741F712B000E72237323D3
:1052C000742371C075F072C076F073C077F074C04B
:1052D00078F0010E00017C6F22D000017B2B75C09D
:1052E00060F076C061F077C062F078C063F00A0EBB
:1052F0000001646F000E656F000E666F000E676F31
:10530000AEEC2DF060C075F061C076F062C077F051
:1053100063C078F0030E00017B19D8B40DD00001F2
:10532000785100017711D9E1100E0001755D270E4B
:1053300000017659D8B0D1D700017851000177111A
:1053400008E1100E0001755D270E00017659D8A006
:1053500009D00F0E0001756F270E766F000E776F64
:10536000000E786F75C079F076C07AF079C06DF074
:105370007AC06EF07BC06FF07CC070F0120000014C
:1053800020EE06F06251D9266351DA2201D80AD004
:105390000500FA6EDE50FD6EDE50FE6EF850FF6EB8
:1053A000FA501200000120EE0AF06251D926635132
:1053B000DA2201D812D00500FA6EDE50FD6EDE5002
:1053C000FE6EF850FF6EFA50000120EE01F06251BF
:1053D000D9266351DA22DF501200000120EE0AF0D4
:1053E0006251D9266351DA2201D80CD00500FA6E39
:1053F000DE50FD6EDE50FE6EF850FF6EFA5000017A
:1054000064511200000120EE0AF06251D926635166
:10541000DA2201D80CD00500FA6EDE50FD6EDE50A7
:10542000FE6EF850FF6EFA50000166511200000146
:1054300020EE0AF06251D9266351DA2201D80CD04D
:105440000500FA6EDE50FD6EDE50FE6EF850FF6E07
:10545000FA50000165511200000120EE08F062517F
:10546000D9266351DA2201D812000500FA6EDE5007
:10547000FD6EDE50FE6EF850FF6EFA501200000E08
:105480000001766F000E0001796F030E00017A6F44
:10549000BC0E296E010E2A6E29C060F02AC061F090
:1054A000AA0E0001626F6CEC34F0000E0001786F00
:1054B000A20E776F29C064F02AC065F0000E0001CB
:1054C000666F79C067F07AC068F077C069F078C01D
:1054D0006AF011EC20F079C06CF07AC06DF077C002
:1054E0006EF078C06FF0E6EC32F00001766F0001EC
:1054F00076510001D8A4120051EC1EF079C06CF076
:105500007AC06DF0FE0E0001772500016E6FFF0E70
:105510000001782100016F6F2EEC36F029C062F097
:105520002AC063F0000E0001646F79C065F07AC094
:1055300066F077C067F078C068F0B8EC28F029C052
:1055400064F02AC065F0000E0001666F79C067F054
:105550007AC068F077C069F078C06AF011EC20F08A
:1055600079C06CF07AC06DF077C06EF078C06FF0E3
:10557000E6EC32F00001766F1200000E0001766F4B
:10558000000E0001796F020E00017A6FC70E2B6EBC
:10559000010E2C6E2BC060F02CC061F0AC0E00012F
:1055A000626F6CEC34F0000E0001786FA20E776F22
:1055B0002BC064F02CC065F0000E0001666F79C04E
:1055C00067F07AC068F077C069F078C06AF011ECD3
:1055D00020F079C06CF07AC06DF077C06EF078C0C2
:1055E0006FF0E6EC32F00001766F000176510001B9
:1055F000D8A4120075EC1CF079C06CF07AC06DF084
:10560000FE0E0001772500016E6FFF0E000178216C
:1056100000016F6F2EEC36F02BC062F02CC063F0EF
:10562000000E0001646F79C065F07AC066F077C043
:1056300067F078C068F0B8EC28F02BC064F02CC09C
:1056400065F0000E0001666F79C067F07AC068F0FF
:1056500077C069F078C06AF011EC20F079C06CF086
:105660007AC06DF077C06EF078C06FF0E6EC32F083
:105670000001766F1200C2C0D9FFC3C0DAFFDECFCF
:1056800060F0DECF61F0DECF62F0DECF63F0010EBE
:105690006AEC1DF060C0CAF061C0CBF062C0CCF013
:1056A00063C0CDF0060E3C24F66E000E3D20F76E72
:1056B000000E3E20F86E0900F5CFC4F00900F5CFCA
:1056C000C5F0C4C060F0C5C061F00001626B636BDF
:1056D000000E6AEC1DF060C0C6F061C0C7F062C089
:1056E000C8F063C0C9F0CAC087F0CBC088F0CCC096
:1056F00089F0CDC08AF0CD0E0001726FCC0E736FB1
:105700001C0E746F410E756FC6C06EF0C7C06FF08F
:10571000C8C070F0C9C071F094EC0BF06EC08BF093
:105720006FC08CF070C08DF071C08EF048EC12F03C
:1057300087C0CAF088C0CBF089C0CCF08AC0CDF059
:10574000CAC0B8F0CBC0B9F0CCC0BAF0CDC0BBF085
:1057500032EC28F0B8C062F1B9C063F1BAC064F1AC
:10576000BBC065F112006EC0D9FF6FC0DAFFDECF9B
:1057700073F0DDCF74F0000170517DEC37F060C044
:1057800064F061C065F073C062F074C063F0AAECAD
:1057900034F062C069F063C06AF0000E00016C6F03
:1057A0000A0E6B6F60EC36F069C071F06AC072F07F
:1057B000000170517DEC37F060C062F061C063F0B1
:1057C00071C064F072C065F081EC3AF00001621FB4
:1057D0000001631F0001624B632B00017351000144
:1057E00062250001736F0001745100016321000103
:1057F000746F0001714B722B0001725105E10A0EAA
:105800000001715DD8A005D0000E0001726F000E7E
:10581000716F000170517DEC37F060C062F061C0C3
:1058200063F071C064F072C065F081EC3AF0000181
:1058300062510001732700016351000174236EC09F
:10584000D9FF6FC0DAFF73C0DEFF74C0DDFF120046
:1058500000016D6F030E00016D6501D012002F0E67
:105860000001686501D0120068C060F00001616B42
:10587000000E0001636F080E626F4FEC2DF0000107
:105880006D51060DF3500001602500016E6F00019F
:105890006851070B00016F6F000169510001D8B416
:1058A0001BD06FC06AF0010E00016B6F00016A2B04
:1058B00003D00001D8906B3700016A2FFAD700019E
:1058C0006E51010D000EF324D96E010EF420DA6E34
:1058D00000016B51DF1212006FC06AF0010E00016F
:1058E0006B6F00016A2B03D00001D8906B37000169
:1058F0006A2FFAD700016B51FF0A00016C6F00019B
:105900006E51010D000EF324D96E010EF420DA6EF3
:1059100000016C51DF161200FACF01F0FBCF02F04C
:10592000E9CF03F0EACF04F0E1CF05F0E2CF06F0D3
:10593000D9CF07F0DACF08F0F3CF09F0F4CF0AF0AF
:10594000F6CF0BF0F7CF0CF0F8CF0DF0F5CF0EF04F
:10595000F2BAF2A402D0F1B400F0F2BC9DA801D0DA
:105960009E50F2BC9DAA01D09E50F2BC9DA001D0D9
:105970009E509DB29EA20DD09FA20BD09E92010E72
:1059800001013A27000E3B233C233D232F8058EC96
:105990003CF0A3B0A4A006D0A5A004D0A4902F8270
:1059A000AAEC3CF00EC0F5FF0DC0F8FF0CC0F7FFED
:1059B0000BC0F6FF0AC0F4FF09C0F3FF08C0DAFF0E
:1059C00007C0D9FF06C0E2FF05C0E1FF04C0EAFF3F
:1059D00003C0E9FF02C0FBFF01C0FAFF40921100C3
:1059E000100E3818D8A412002AD0200E386E66EC9B
:1059F0003AF01200300E386E35EC3BF01200400EDB
:105A0000386E5EEC38F01200500E386E1200600EE8
:105A1000386E1200700E386E1200800E386E120052
:105A2000900E386E1200A00E386E1200B00E386E56
:105A30001200C00E386E1200F00E386E120039C01F
:105A40007FF03AC080F000018051000AD8A4120013
:105A500000017F51060AD8B4E0D7160AD8B4E0D7BF
:105A6000020AD8B4E9D7360AD8B4BFD71C0AD8B4CA
:105A7000C6D77A0AD8B4BED7C70AD8B4CBD70F0ACC
:105A8000D8B4D1D7010AD8B4D1D7230AD8B4BCD757
:105A9000010AD8B4BCD7150AD8A41200CAD7000E80
:105AA0000001656F000163AF08D00001626D631FE4
:105AB000D8B0632B010E0001656F000161AF08D003
:105AC0000001606D611FD8B0612B010E0001651BE4
:105AD000000E0001676F000E666F00016251000149
