:100000003CEF00F0AA00AA005AEF3AF0AA00AA00BA
:10001000AA00AA00AA00AA00D8CF03F0E8CF04F0F3
:10002000E0CF05F0E1CF06F0E2CF07F01BEE4CF099
:100030009DB29EA20FD09FB20DD09E920001F72BD1
:10004000030E0001F76504D04E80000E0001F76F2B
:10005000ECEC44F0A3B0A4A004D0A5B002D0A490CE
:100060004E8207C0E2FF06C0E1FF05C0E0FF04C00A
:10007000E8FF03C0D8FF100017EE00F066EF32F083
:1000800010C308F011C309F012C30AF013C30BF038
:10009000010E4BEC20F008C0AFF009C0B0F00AC070
:1000A000B1F00BC0B2F014C308F015C309F016C3C9
:1000B0000AF017C30BF0010E4BEC20F008C0B7F0AC
:1000C00009C0B8F00AC0B9F00BC0BAF0A7C008F078
:1000D000A8C009F0A9C00AF0AAC00BF0010E4BECB1
:1000E00020F008C0BFF009C0C0F00AC0C1F00BC0CA
:1000F000C2F00CC308F00DC309F00EC30AF00FC321
:100100000BF0000E4BEC20F008C0BBF009C0BCF0B7
:100110000AC0BDF00BC0BEF0BFC081F0C0C082F00D
:10012000C1C083F0C2C084F0000E336E000E346E86
:10013000800E356E400E366EBBC02FF0BCC030F066
:10014000BDC031F0BEC032F07DEC10F02FC085F0A4
:1001500030C086F031C087F032C088F035EC1BF03B
:100160000001D8B076D0000E1A6E000E1B6E000E85
:100170001C6E400E1D6EBFC016F0C0C017F0C1C08F
:1001800018F0C2C019F02FEC0DF016C02FF017C0F8
:1001900030F018C031F019C032F0BBC033F0BCC031
:1001A00034F0BDC035F0BEC036F07DEC10F02FC08D
:1001B000BFF030C0C0F031C0C1F032C0C2F01D0E7F
:1001C00000018D6FEF0E00018E6FBFC08FF0C0C0B9
:1001D00090F0C1C091F0C2C092F0000E0001946F87
:1001E000650E936F56EC17F08DC0BFF08EC0C0F057
:1001F0008FC0C1F090C0C2F0B7C016F0B8C017F001
:10020000B9C018F0BAC019F0BFC01AF0C0C01BF0D6
:10021000C1C01CF0C2C01DF02FEC0DF016C0B7F02D
:1002200017C0B8F018C0B9F019C0BAF0B7C081F063
:10023000B8C082F0B9C083F0BAC084F066EC27F091
:1002400081C0A7F082C0A8F083C0A9F084C0AAF042
:100250001200BFC081F0C0C082F0C1C083F0C2C034
:1002600084F0B3C071F0B4C072F0B5C073F0B6C022
:1002700074F0000E336E000E346E800E356E400E3C
:10028000366EBBC02FF0BCC030F0BDC031F0BEC078
:1002900032F07DEC10F02FC06DF030C06EF031C048
:1002A0006FF032C070F0BAEC06F06DC085F06EC031
:1002B00086F06FC087F070C088F035EC1BF000014D
:1002C000D8B0A1D0000E336E000E346E800E356EA5
:1002D000400E366EBBC02FF0BCC030F0BDC031F058
:1002E000BEC032F07DEC10F02FC03BF030C03CF0CF
:1002F00031C03DF032C03EF0B2EC42F03BC06DF098
:100300003CC06EF03DC06FF03EC070F0BFC071F0F9
:10031000C0C072F0C1C073F0C2C074F0BAEC06F095
:100320006DC0BFF06EC0C0F06FC0C1F070C0C2F051
:10033000B3C033F0B4C034F0B5C035F0B6C036F059
:10034000BFC02FF0C0C030F0C1C031F0C2C032F029
:100350007DEC10F02FC016F030C017F031C018F04F
:1003600032C019F0AFC01AF0B0C01BF0B1C01CF021
:10037000B2C01DF02FEC0DF016C0AFF017C0B0F0FA
:1003800018C0B1F019C0B2F0B7C02FF0B8C030F04B
:10039000B9C031F0BAC032F0000E336E000E346EC8
:1003A000000E356E400E366E7DEC10F02FC0B7F0AB
:1003B00030C0B8F031C0B9F032C0BAF0B7C071F097
:1003C000B8C072F0B9C073F0BAC074F0AFC06DF0CD
:1003D000B0C06EF0B1C06FF0B2C070F0BAEC06F011
:1003E0006DC081F06EC082F06FC083F070C084F089
:1003F00066EC27F081C0A7F082C0A8F083C0A9F006
:1004000084C0AAF01200B3C071F0B4C072F0B5C0DD
:1004100073F0B6C074F0000E336E000E346E000E32
:10042000356E400E366EBBC02FF0BCC030F0BDC084
:1004300031F0BEC032F07DEC10F02FC06DF030C056
:100440006EF031C06FF032C070F0BAEC06F06DC0E3
:1004500081F06EC082F06FC083F070C084F0BFC0C6
:1004600085F0C0C086F0C1C087F0C2C088F035EC0E
:100470001BF00001D8B02CD0000E336E000E346E8D
:10048000000E356E400E366EBBC02FF0BCC030F093
:10049000BDC031F0BEC032F07DEC10F02FC06DF069
:1004A00030C06EF031C06FF032C070F0B3C071F088
:1004B000B4C072F0B5C073F0B6C074F0BAEC06F018
:1004C0006DC0BFF06EC0C0F06FC0C1F070C0C2F0B0
:1004D000BFC03BF0C0C03CF0C1C03DF0C2C03EF068
:1004E000B2EC42F03BC071F03CC072F03DC073F022
:1004F0003EC074F0000E336E000E346E000E356E8A
:10050000400E366EBBC02FF0BCC030F0BDC031F025
:10051000BEC032F07DEC10F02FC06DF030C06EF038
:1005200031C06FF032C070F0BAEC06F06DC0ABF0C5
:100530006EC0ACF06FC0ADF070C0AEF0ABC06DF08F
:10054000ACC06EF0ADC06FF0AEC070F0B3C071F073
:10055000B4C072F0B5C073F0B6C074F0BAEC06F077
:100560006DC0BFF06EC0C0F06FC0C1F070C0C2F00F
:10057000BFC03BF0C0C03CF0C1C03DF0C2C03EF0C7
:10058000B2EC42F03BC06DF03CC06EF03DC06FF08D
:100590003EC070F0000E0001716F000E726F000E11
:1005A000736F3F0E746FBAEC06F06DC0BFF06EC093
:1005B000C0F06FC0C1F070C0C2F0000E0001816FCA
:1005C000000E826F000E836F000E846FBFC085F037
:1005D000C0C086F0C1C087F0C2C088F035EC1BF007
:1005E0000001D8A009D0000E0001BF6F000EC06F3F
:1005F000000EC16F000EC26F000E1A6E000E1B6E51
:10060000000E1C6E400E1D6EBFC016F0C0C017F06D
:10061000C1C018F0C2C019F02FEC0DF016C02FF0B9
:1006200017C030F018C031F019C032F0BBC033F041
:10063000BCC034F0BDC035F0BEC036F07DEC10F06B
:100640002FC0BFF030C0C0F031C0C1F032C0C2F026
:100650001D0E00018D6FEF0E00018E6FBFC08FF079
:10066000C0C090F0C1C091F0C2C092F0000E000175
:10067000946F650E936F56EC17F08DC0BFF08EC06F
:10068000C0F08FC0C1F090C0C2F0000E0001716FC9
:10069000000E726F000E736F3F0E746FBFC06DF06F
:1006A000C0C06EF0C1C06FF0C2C070F0BAEC06F00E
:1006B0006DC016F06EC017F06FC018F070C019F062
:1006C000B7C01AF0B8C01BF0B9C01CF0BAC01DF01A
:1006D0002FEC0DF016C0B7F017C0B8F018C0B9F085
:1006E00019C0BAF0B7C071F0B8C072F0B9C073F0F9
:1006F000BAC074F0AFC06DF0B0C06EF0B1C06FF0B2
:10070000B2C070F0BAEC06F06DC081F06EC082F03D
:100710006FC083F070C084F066EC27F081C0A7F052
:1007200082C0A8F083C0A9F084C0AAF01200F8D259
:10073000D4C008F0D5C009F0070E0A6EAFEC44F043
:10074000D4C008F0D5C009F0000E0A6ECEEC44F01B
:10075000D4C008F0D5C009F0000E0A6EBFEC44F01A
:10076000000E0101046F040E0101046501D02ED0BA
:10077000D4C014F0D5C015F018EC44F0000E0D6E86
:10078000010E0C6EDDEC44F0D4C015F0D5C016F0AF
:100790008CEC40F015C002F116C003F101010451C8
:1007A0000101D8B410D0E20E226E020E236E02C1F7
:1007B00024F003C125F0040E266EE5EC23F022C0E0
:1007C00002F123C003F10101042BCDD702C16AF26B
:1007D00003C16BF2010E0001E66F1200D4C008F0F5
:1007E000D5C009F0070E0A6EAFEC44F0D4C008F093
:1007F000D5C009F0030E0A6ECEEC44F0D4C008F068
:10080000D5C009F0050E0A6EBFEC44F0000E0101E0
:10081000046F040E0101046501D02ED0D4C014F081
:10082000D5C015F018EC44F0000E0D6E010E0C6EE4
:10083000DDEC44F0D4C015F0D5C016F08CEC40F0DF
:1008400015C002F116C003F1010104510101D8B431
:1008500010D0DA0E226E020E236E02C124F003C104
:1008600025F0040E266EE5EC23F022C002F123C031
:1008700003F10101042BCDD702C1DCF003C1DDF08F
:10088000020E0001E66F1200D4C008F0D5C009F0D6
:10089000070E0A6EAFEC44F0D4C008F0D5C009F0E2
:1008A000050E0A6ECEEC44F0D4C008F0D5C009F0B5
:1008B000050E0A6EBFEC44F0000E0101046F040E39
:1008C0000101046501D02ED0D4C014F0D5C015F0BC
:1008D00018EC44F0000E0D6E010E0C6EDDEC44F0D1
:1008E000D4C015F0D5C016F08CEC40F015C002F164
:1008F00016C003F1010104510101D8B410D0D20E89
:10090000226E020E236E02C124F003C125F0040EF4
:10091000266EE5EC23F022C002F123C003F10101B1
:10092000042BCDD702C168F203C169F2030E0001A6
:10093000E66F1200D2C008F0D3C009F0070E0A6EAD
:10094000AFEC44F0D2C008F0D3C009F0040E0A6E38
:10095000CEEC44F0D2C008F0D3C009F0020E0A6E0B
:10096000BFEC44F0000E0101046F040E01010465A8
:1009700001D02ED0D2C014F0D3C015F018EC44F042
:10098000000E0D6E010E0C6EDDEC44F0D2C015F0C1
:10099000D3C016F08CEC40F015C002F116C003F184
:1009A000010104510101D8B410D0CA0E226E020E0A
:1009B000236E02C124F003C125F0040E266EE5EC7F
:1009C00023F022C002F123C003F10101042BCDD793
:1009D00002C100F103C101F1040E0001E66F120033
:1009E000D2C008F0D3C009F0070E0A6EAFEC44F095
:1009F000D2C008F0D3C009F0050E0A6ECEEC44F068
:100A0000D2C008F0D3C009F0020E0A6EBFEC44F069
:100A1000000E0101046F040E0101046501D02ED007
:100A2000D2C014F0D3C015F018EC44F0000E0D6ED7
:100A3000010E0C6EDDEC44F0D2C015F0D3C016F000
:100A40008CEC40F015C002F116C003F10101045115
:100A50000101D8B410D0C20E226E020E236E02C164
:100A600024F003C125F0040E266EE5EC23F022C02D
:100A700002F123C003F10101042BCDD702C1C8F05C
:100A800003C1C9F0D8900001C837C9370001C81F99
:100A9000C91FC84BC92B010100510001C825020123
:100AA000646F010101510001C9210201656F050E4A
:100AB0000001E66F1200D2C008F0D3C009F0070EA3
:100AC0000A6EAFEC44F0D2C008F0D3C009F0030EB8
:100AD0000A6ECEEC44F0D2C008F0D3C009F0020E8A
:100AE0000A6EBFEC44F0000E0101046F040E010118
:100AF000046501D02ED0D2C014F0D3C015F018EC8C
:100B000044F0000E0D6E010E0C6EDDEC44F0D2C010
:100B100015F0D3C016F08CEC40F015C002F116C0F1
:100B200003F1010104510101D8B410D0BA0E226EB4
:100B3000020E236E02C124F003C125F0040E266EBE
:100B4000E5EC23F022C002F123C003F10101042BE4
:100B5000CDD702C166F203C167F2060E0001E66F4F
:100B600012009DEC44F0000E0101046F040E01011F
:100B7000046501D01AD0020E7EEC3CF00CC002F1EC
:100B80000DC003F1B20E226E020E236E02C124F0DC
:100B900003C125F0040E266EE5EC23F022C002F11D
:100BA00023C003F10101042BE1D702C1DAF003C134
:100BB000DBF0070E0001E66F12009DEC44F0000E22
:100BC0000101046F040E0101046501D01AD0010E69
:100BD0007EEC3CF00CC002F10DC003F1AA0E226EB7
:100BE000020E236E02C124F003C125F0040E266E0E
:100BF000E5EC23F022C002F123C003F10101042B34
:100C0000E1D702C1D8F003C1D9F0080E0001E66FA8
:100C100012009DEC44F0000E0101046F040E01016E
:100C2000046501D01AD0000E7EEC3CF00CC002F13D
:100C30000DC003F1A20E226E020E236E02C124F03B
:100C400003C125F0040E266EE5EC23F022C002F16C
:100C500023C003F10101042BE1D702C162F203C1F9
:100C600063F2090E0001E66F12009DEC44F0000EE5
:100C70000101046F040E0101046501D01AD0030EB6
:100C80007EEC3CF00CC002F10DC003F19A0E226E16
:100C9000020E236E02C124F003C125F0040E266E5D
:100CA000E5EC23F022C002F123C003F10101042B83
:100CB000E1D702C160F203C161F20A0E0001E66FE2
:100CC0001200000E0201EA6F000EEB6F000EEC6FD7
:100CD000000EED6FDCC0F0F2DDC0F1F26AC2F0F29E
:100CE0006BC2F1F2C0EC22F073EC45F00B0E000188
:100CF000E66F12005AEC36F07DEC45F00C0E000168
:100D0000E66F1200000E09EC45F0010E09EC45F00B
:100D10000D0E0001E66F1200000E0001E66F1200DA
:100D20000001E651000AD8B403D5010AD8B456D55B
:100D3000030AD8B4A9D5010AD8B4FCD5070AD8B497
:100D40004FD6010AD8B4B7D6030AD8B40AD7010AD5
:100D5000D8B433D70F0AD8B45CD7010AD8B485D732
:100D6000030AD8B4AED7010AD8B4C4D7070AD8B496
:100D7000C9D7D2D700017051800B00017D6F0001EF
:100D80007051702500017F6F00016FAF02D000012C
:100D90007F8100017F510001D8B412D000017F296A
:100DA000D8A409D0000E00016D6F000E6E6F000E0A
:100DB0006F6F000E706F00016F8F000E000108D082
:100DC000000E00016D6F000E6E6F000E6F6F000E53
:100DD000706F00017451800B00017E6F00017D5126
:100DE00000017E19D8B402D000017D8D000174513C
:100DF000742500017E6F000173AF02D000017E8177
:100E000000017E510001D8B412D000017E29D8A47F
:100E100009D0000E0001716F000E726F000E736F2B
:100E2000000E746F0001738F000E000108D0000ED9
:100E30000001716F000E726F000E736F000E746F01
:100E400000017F5100017E5DD8B024D000017DAD4E
:100E500003D0800E00017D1B7FC080F07EC07FF03C
:100E600080C07EF06DC080F071C06DF080C071F008
:100E70006EC080F072C06EF080C072F06FC080F003
:100E800073C06FF080C073F070C080F074C070F0F9
:100E900080C074F0000E0001806F00017F510001DE
:100EA000756F766B0001751F761F754B762B0001F1
:100EB0007E510001776F786B000175510001772733
:100EC0000001765100017823000178BF3DD0000178
:100ED000785105E11A0E0001775DD8A035D00001E8
:100EE0006D5100016E1100016F1100017011D8B435
:100EF00002D0010E01D0000E0001806F000E000133
:100F00006D6F000E6E6F000E6F6F000E706F7EC003
:100F10007FF020D0000180A107D00001D89080315F
:100F200001090001806F03D00001D89080330001D7
:100F30006DA102D00001808F0001703570336F33D6
:100F40006E336D3300017F2B00017E5100017F5D08
:100F5000D8A0E0D700017DBD3FD000017F51000146
:100F6000D8A40AD0000E00016D6F000E6E6F000E47
:100F70006F6F000E706F12000001715100016D273C
:100F80000001725100016E230001735100016F23B3
:100F90000001745100017023000170A1CCD0000148
:100FA00080A109D00001D89080330001805101094F
:100FB0000001806F03D00001D890803300016DA143
:100FC00002D00001808F0001703570336F336E33B3
:100FD0006D3300017F2BAFD00001715100016D5DB9
:100FE0000001725100016E590001735100016F59E7
:100FF00000017051800A0001756F00017451800A70
:1010000000017559D8B050D06DC075F06EC076F043
:101010006FC077F070C078F00001751F761F771FE2
:10102000781F752B000E76237723782300017151EA
:10103000000175250001796F0001725100017621D0
:1010400000017A6F000173510001772100017B6F6D
:10105000000174510001782100017C6FFF0E000136
:10106000792500016D6FFF0E00017A2100016E6F7E
:10107000FF0E00017B2100016F6FFF0E00017C213C
:101080000001706F800E00017D1B0001806D00016A
:1010900080510001D8A418D0010E00016D27000E68
:1010A0006E236F23702310D00001715100016D5F1A
:1010B0000001725100016E5B0001735100016F5B12
:1010C000000174510001705B00016D5100016E114F
:1010D00000016F1100017011D8A42AD000018051C5
:1010E0000001D8A425D0000E00016D6F000E6E6FB8
:1010F000000E6F6F000E706F12000001D8906D37F8
:101100006E376F377037000180AF02D000016D81FC
:10111000000180A103D0D880000102D00001D89046
:10112000803700017F510001D8B402D000017F0751
:1011300000016FAFE2D7000E00017E6F000180AFAB
:101140000DD080C075F07F0E00017517D8A403D0B4
:1011500000016DA103D0010E00017E6F00017E51E0
:101160000001D8B426D0010E00016D27000E6E23B9
:101170006F237023000170A11CD06DC075F06EC08C
:1011800076F06FC077F070C078F000017835783372
:1011900077337633753375C06DF076C06EF077C0F7
:1011A0006FF078C070F000017F29D8B402D0000140
:1011B0007F2B00017F29D8B405D000017F510001A9
:1011C000D8A411D0000E00016D6F000E6E6F000EDE
:1011D0006F6F000E706F00017F510001D8A403D023
:1011E000000E00017D6F00017FA103D000016F8F11
:1011F00002D000016F9F0001D8907F310001706F15
:1012000000017DAF02D00001708F6DC06DF06EC027
:101210006EF06FC06FF070C070F012001A6E310E79
:101220001A6401D012001A500008310F196E90D1C3
:101230002E0E106E18C011F0000ED2EC34F0120019
:101240002E0E106E18C011F0010ED2EC34F0120008
:101250002E0E106E18C011F0020ED2EC34F01200F7
:101260002E0E106E18C011F0030ED2EC34F01200E6
:101270002F0E106E18C011F0030ED2EC34F01200D5
:101280002F0E106E18C011F0020ED2EC34F01200C6
:101290002F0E106E18C011F0010ED2EC34F01200B7
:1012A0002F0E106E18C011F0000ED2EC34F01200A8
:1012B0001F0E106E18C011F0000ED2EC34F01200A8
:1012C0001F0E106E18C011F0010ED2EC34F0120097
:1012D0001F0E106E18C011F0020ED2EC34F0120086
:1012E0001F0E106E18C011F0030ED2EC34F0120075
:1012F000000E106E18C011F0030ED2EC34F0120084
:10130000000E106E18C011F0020ED2EC34F0120074
:10131000000E106E18C011F0010ED2EC34F0120065
:10132000000E106E18C011F0000ED2EC34F0120056
:10133000010E106E18C011F0000ED2EC34F0120045
:10134000010E106E18C011F0010ED2EC34F0120034
:10135000010E106E18C011F0020ED2EC34F0120023
:10136000010E106E18C011F0030ED2EC34F0120012
:10137000020E106E18C011F0030ED2EC34F0120001
:10138000020E106E18C011F0020ED2EC34F01200F2
:10139000020E106E18C011F0010ED2EC34F01200E3
:1013A000020E106E18C011F0000ED2EC34F01200D4
:1013B000030E106E18C011F0000ED2EC34F01200C3
:1013C000030E106E18C011F0010ED2EC34F01200B2
:1013D000030E106E18C011F0020ED2EC34F01200A1
:1013E000030E106E18C011F0030ED2EC34F0120090
:1013F000040E106E18C011F0030ED2EC34F012007F
:10140000040E106E18C011F0020ED2EC34F012006F
:10141000040E106E18C011F0010ED2EC34F0120060
:10142000040E106E18C011F0000ED2EC34F0120051
:10143000050E106E18C011F0000ED2EC34F0120040
:10144000050E106E18C011F0010ED2EC34F012002F
:10145000050E106E18C011F0020ED2EC34F012001E
:10146000050E106E18C011F0030ED2EC34F012000D
:10147000060E106E18C011F0030ED2EC34F01200FC
:10148000060E106E18C011F0020ED2EC34F01200ED
:10149000060E106E18C011F0010ED2EC34F01200DE
:1014A000060E106E18C011F0000ED2EC34F01200CF
:1014B000070E106E18C011F0000ED2EC34F01200BE
:1014C000070E106E18C011F0010ED2EC34F01200AD
:1014D000070E106E18C011F0020ED2EC34F012009C
:1014E000070E106E18C011F0030ED2EC34F012008B
:1014F000210E106E18C011F0030ED2EC34F0120061
:10150000210E106E18C011F0020ED2EC34F0120051
:10151000210E106E18C011F0010ED2EC34F0120042
:10152000210E106E18C011F0000ED2EC34F0120033
:10153000220E106E18C011F0000ED2EC34F0120022
:10154000220E106E18C011F0010ED2EC34F0120011
:101550001950000AD8B46CD6010AD8B471D6030A5F
:10156000D8B476D6010AD8B47BD6070AD8B480D6C8
:10157000010AD8B485D6030AD8B48AD6010AD8B4E9
:101580008FD60F0AD8B494D6010AD8B499D6030AD4
:10159000D8B49ED6010AD8B4A3D6070AD8B4A8D620
:1015A000010AD8B4ADD6030AD8B4B2D6010AD8B469
:1015B000B7D61F0AD8B4BCD6010AD8B4C1D6030A1C
:1015C000D8B4C6D6010AD8B4CBD6070AD8B4D0D678
:1015D000010AD8B4D5D6030AD8B4DAD6010AD8B4E9
:1015E000DFD60F0AD8B4E4D6010AD8B4E9D6030A84
:1015F000D8B4EED6010AD8B4F3D6070AD8B4F8D6D0
:10160000010AD8B4FDD6030AD8B402D7010AD8B467
:1016100007D73F0AD8B40CD7010AD8B411D7030AA8
:10162000D8B416D7010AD8B41BD7070AD8B420D724
:10163000010AD8B425D7030AD8B42AD7010AD8B4E6
:101640002FD70F0AD8B434D7010AD8B439D7030A30
:10165000D8B43ED7010AD8B443D7070AD8B448D77C
:10166000010AD8B44DD7030AD8B452D7010AD8B466
:1016700057D71F0AD8B45CD7010AD8A4120060D784
:1016800020EE04F02450D9262550DA22DECF3BF09C
:10169000DDCF3CF0000E416E8BD04150286E296AA0
:1016A000D89028362936D89028362936D89028362A
:1016B00029360C0E2826000E292222C02AF023C02B
:1016C0002BF028502A2629502B22040E2A24D96ECA
:1016D000000E2B20DA6E4150080D040EF326000E8A
:1016E000F42222C02EF023C02FF0F3502E26F45007
:1016F0002F22040E2E24E96E000E2F20EA6EDE50FB
:10170000EE5CEE50800A326EDE50800A3258D8B05D
:1017100029D04150286E296AD89028362936D89089
:1017200028362936D890283629360C0E2826000E61
:10173000292222C02AF023C02BF028502A26295023
:101740002B22040E2A24D96E000E2B20DA6E3B5079
:10175000DE5CDE50800A2E6E3C50800A2E58D8B0D7
:1017600043D025D04150286E296AD8902836293692
:10177000D89028362936D890283629360C0E2826B7
:10178000000E292222C02AF023C02BF028502A263E
:1017900029502B22040E2A24D96E000E2B20DA6E3B
:1017A000DE503B5C3C50800A2E6EDE50D6D7412A7C
:1017B000FE0E286EFF0E296E22C0D9FF23C0DAFF6D
:1017C000DF502A6E2B6A28502A2629502B2241509E
:1017D0002C6E2D6A2A502C5C2D50800A2E6E2B50B8
:1017E000800A2E58D8A059D74150080D040EF32670
:1017F000000EF422F3502224D96EF4502320DA6E26
:10180000DECF3DF0DECF3EF0DECF3FF0DECF40F06A
:101810004150286E296AD89028362936D890283623
:101820002936D890283629360C0E2826000E292273
:1018300028502224D96E29502320DA6EDECF2AF0D8
:10184000DECF2BF0DECF2CF0DECF2DF04150080D97
:10185000040EF326000EF422F3502224D96EF45025
:101860002320DA6EDECF2EF0DECF2FF0DECF30F089
:10187000DECF31F02E1E2F1E301E311E2E2A000EFE
:101880002F22302231222A502E24336E2B502F202B
:10189000346E2C503020356E2D503120366E415034
:1018A000286E296AD89028362936D89028362936C5
:1018B000D890283629360C0E2826000E292222C060
:1018C0002AF023C02BF028502A2629502B22040E60
:1018D0002A24D96E000E2B20DA6EDECF2CF0DDCF5D
:1018E0002DF04150080D040EF326000EF42222C004
:1018F0002EF023C02FF0F3502E26F4502F22040E8A
:101900002E24D96E000E2F20DA6EDECF30F0DDCF20
:1019100031F0301E311E304A312A2C5030262D50E5
:10192000312230C037F031C038F0000E38BEFF0E23
:10193000396E3A6E3750381039103A10D8B451D049
:101940004150080D040EF326000EF42222C028F0A8
:1019500023C029F0F3502826F4502922040E28240D
:10196000D96E000E2920DA6EDECF2AF0DDCF2BF003
:101970002A1E2B1E2A4A2B2A3B502A263C502B2259
:101980002AC008F02BC009F0000E09BEFF0E0A6E37
:101990000B6E33C00CF034C00DF035C00EF036C005
:1019A0000FF05FEC3DF008C014F009C015F00AC05C
:1019B00016F00BC017F037C018F038C019F039C056
:1019C0001AF03AC01BF0F5EC2AF03D5014243D6E9D
:1019D0003E5015203E6E3F5016203F6E405017205F
:1019E000406E24C0D9FF25C0DAFF3DC0DEFF3EC0F7
:1019F000DEFF3FC0DEFF40C0DEFF26502710D8B418
:101A00002CD026C0D9FF27C0DAFF3DC0DEFF3EC084
:101A1000DEFF3FC0DEFF40C0DEFF20EE04F02450BA
:101A2000D9262550DA2200EE04F02650E926275068
:101A3000EA22DECFEEFFDDCFEDFF20EE0AF02250EE
:101A4000D9262350DA2200EE06F02650E926275048
:101A5000EA22DECFEEFFDDCFEDFF4150120019503C
:101A6000800B226E19501924286E18BE2880285029
:101A7000D8B40DD02828D8A408D0000E166E000EB9
:101A8000176E000E186E000E196E188E08D0000E1C
:101A9000166E000E176E000E186E000E196E1D5099
:101AA000800B221A1D501D24236E1CBE2380235040
:101AB000D8B40DD02328D8A408D0000E1A6E000E7A
:101AC0001B6E000E1C6E000E1D6E1C8E08D0000ECC
:101AD0001A6E000E1B6E000E1C6E000E1D6E235043
:101AE000D8B403D02850D8A409D0000E166E000E2A
:101AF000176E000E186E000E196E12001C501602A2
:101B0000F3CF2DF0F4CF2EF02D50246E256A266AE7
:101B1000276A2E50296E2A6A2B6A2C6A1B501702DC
:101B2000F3CF2DF0F4CF2EF02D502426000E2522D9
:101B3000262227222E502926000E2A222B222C2252
:101B40001A501802F3CF2DF0F4CF2EF02D5024268A
:101B5000000E2522262227222E502926000E2A2278
:101B60002B222C2226C027F025C026F024C025F0E9
:101B7000246A1A501702F3CF2DF0F4CF2EF02D5017
:101B800024262E502522000E2622000E27221B502E
:101B90001602F3CF2DF0F4CF2EF02D5024262E5028
:101BA0002522000E2622000E272226C027F025C05F
:101BB00026F024C025F0246A1A501602F3CF2DF027
:101BC000F4CF2EF02D5024262E502522000E262252
:101BD000000E27221C501702F3CF2DF0F4CF2EF069
:101BE0002D5029262E502A22000E2B22000E2C22A8
:101BF0001B501802F3CF2DF0F4CF2EF02D502926D4
:101C00002E502A22000E2B22000E2C221C501802CD
:101C1000F3CF2DF0F4CF2EF02D501E6E2E501F6EF0
:101C2000206A216A20C021F01FC020F01EC01FF0D2
:101C30001E6A1E5029261F502A2220502B22215076
:101C40002C2224C01EF025C01FF026C020F027C083
:101C500021F0190E05D0D890213220321F321E32C9
:101C6000E82EF9D71E5029261F502A2220502B2259
:101C700021502C2226C027F025C026F024C025F0B4
:101C8000246A235028C01EF01F6A1E26000E1F2241
:101C9000820E1E242D6EFF0E1F202E6E0FD0D890A8
:101CA00029362A362B362C3627BE2980D890243662
:101CB0002536263627362D06D8A02E062BAEEFD792
:101CC000000E236E27AE16D0FF0E24141E6EFF0EDC
:101CD00025141F6EFF0E2614206E7F0E2714216E12
:101CE0001E501F1020102110D8A402D029A002D00D
:101CF000010E236E2350D8B41FD0010E2926000EEA
:101D00002A222B222C222CA017D029C01EF02AC058
:101D10001FF02BC020F02CC021F0213421322032C2
:101D20001F321E321EC029F01FC02AF020C02BF027
:101D300021C02CF02D4A2E2A2EBE0DD02E5003E1AC
:101D40002D28D8A008D0000E296E000E2A6E800E15
:101D50002B6E7F0E20D02EBE05D02E500EE12D040E
:101D6000D8B00BD0000E296E000E2A6E000E2B6E1E
:101D7000000E2C6E000E226E0FD02DC028F0FF0E2C
:101D80002916FF0E2A167F0E2B16000E2C1628B0D1
:101D90002B8ED89028302C6E22502C1229C016F091
:101DA0002AC017F02BC018F02CC019F0120020EE3A
:101DB00006F02450D9262550DA22DECF3EF0DDCFC2
:101DC0003FF0000E406E87D04050276E286AD890B2
:101DD00027362836D89027362836D8902736283602
:101DE000080E2726000E282222C029F023C02AF040
:101DF0002750292628502A22060E2924D96E000EA3
:101E00002A20DA6E4050080D22C02DF023C02EF09B
:101E1000F3502D26F4502E22060E2D24E96E000ECE
:101E20002E20EA6EDE50EE5CEE50800A316EDE50FF
:101E3000800A3158D8B029D04050276E286AD890EF
:101E400027362836D89027362836D8902736283691
:101E5000080E2726000E282222C029F023C02AF0CF
:101E60002750292628502A22060E2924D96E000E32
:101E70002A20DA6E3E50DE5CDE50800A2D6E3F5026
:101E8000800A2D58D8B03FD025D04050276E286A00
:101E9000D89027362836D89027362836D890273637
:101EA0002836080E2726000E282222C029F023C03B
:101EB0002AF02750292628502A22060E2924D96ED6
:101EC000000E2A20DA6EDE503E5C3F50800A2D6EF6
:101ED000DE50D6D7402AFE0E276EFF0E286E265003
:101EE000296E2A6A2750292628502A2240502B6E14
:101EF0002C6A29502B5C2C50800A2D6E2A50800AA7
:101F00002D58D8A061D74050080DF3502224D96E27
:101F1000F4502320DA6EDECF3AF0DECF3BF0DECF96
:101F20003CF0DECF3DF04050276E286AD89027362F
:101F30002836D89027362836D89027362836080EE7
:101F40002726000E282227502224D96E285023202D
:101F5000DA6EDECF29F0DECF2AF0DECF2BF0DECF37
:101F60002CF04050080DF3502224D96EF450232059
:101F7000DA6EDECF2DF0DECF2EF0DECF2FF0DECF0B
:101F800030F02D1E2E1E2F1E301E2D2A000E2E224A
:101F90002F22302229502D24326E2A502E20336ECB
:101FA0002B502F20346E2C503020356E4050276E31
:101FB000286AD89027362836D89027362836D890E1
:101FC00027362836080E2726000E282222C029F0A0
:101FD00023C02AF02750292628502A22060E292419
:101FE000D96E000E2A20DA6EDECF2BF0DDCF2CF07A
:101FF0004050080D22C02DF023C02EF0F3502D26A6
:10200000F4502E22060E2D24D96E000E2E20DA6EEC
:10201000DECF2FF0DDCF30F02F1E301E2F4A302ABA
:102020002B502F262C5030222FC036F030C037F0E6
:10203000000E37BEFF0E386E396E3650371038102E
:102040003910D8B44DD04050080D22C027F023C01D
:1020500028F0F3502726F4502822060E2724D96EA4
:10206000000E2820DA6EDECF29F0DDCF2AF0291EFF
:102070002A1E294A2A2A3E5029263F502A2229C0B0
:1020800008F02AC009F0000E09BEFF0E0A6E0B6EA2
:1020900032C00CF033C00DF034C00EF035C00FF07C
:1020A0005FEC3DF008C014F009C015F00AC016F04E
:1020B0000BC017F036C018F037C019F038C01AF04E
:1020C00039C01BF0F5EC2AF03A5014243A6E3B501C
:1020D00015203B6E3C5016203C6E3D5017203D6E47
:1020E00024C0D9FF25C0DAFF3AC0DEFF3BC0DEFFC7
:1020F0003CC0DEFF3DC0DEFF12003250800B00010D
:10210000606F3250322400016B6F31AE02D000019B
:102110006B8100016B510001D8B40ED000016B2916
:10212000D8A408D0000E2F6E000E306E000E316E57
:10213000000E326E318E06D0000E2F6E000E306E05
:10214000000E316E000E326E3650800B0001601BA7
:102150003650362400016C6F35AE02D000016C8120
:1021600000016C510001D8B40ED000016C29D8A434
:1021700008D0000E336E000E346E000E356E000E69
:10218000366E358E06D0000E336E000E346E000EA5
:10219000356E000E366E3350341035103610D8A41C
:1021A00015D0000E2F6E000E306E000E316E000E38
:1021B000326E800E31127F0E32122FC02FF030C0DF
:1021C00030F031C031F032C032F0120000016B51FA
:1021D0000001D8A411D0000E2F6E000E306E000E3C
:1021E000316E000E326E2FC02FF030C030F031C093
:1021F00031F032C032F0120000016C51376E386A93
:10220000371E381E374A382A00016B51396E3A6A38
:102210003750392638503A227F0E39240001656F35
:10222000000E3A200001666F2FC061F030C062F0EE
:1022300031C063F032C064F0000E2F6E000E306EBD
:10224000000E316E000E326E000E0001676F000E40
:10225000686F000E696F000E6A6F000E00016C6FF0
:1022600037D000016C510001D8B414D00001D890CF
:102270006137623763376437D8902F36303631365E
:10228000323600016ABF2F800001D8906737683767
:1022900069376A3733500001615D3450000162597B
:1022A000355000016359365000016459D8A00ED052
:1022B00000016A8D33500001615F34500001625BA0
:1022C00035500001635B36500001645B00016C2BEC
:1022D000190E00016C65C5D7000161510001621142
:1022E0000001631100016411D8B415D000016781A9
:1022F00012D0D8902F3630363136323600016ABFD0
:102300002F800001D8906737683769376A37000136
:102310006507D8A0660731AEECD7000E00016C6FE0
:1023200000016AAF1BD0FF0E00016715376EFF0E6C
:1023300000016815386EFF0E00016915396E7F0EB9
:1023400000016A153A6E3750381039103A10D8A487
:1023500002D02FA003D0010E00016C6F00016C5160
:102360000001D8B420D0010E2F26000E30223122D9
:10237000322232A018D02FC037F030C038F031C030
:1023800039F032C03AF03A343A32393238323732F0
:1023900037C02FF038C030F039C031F03AC032F0D9
:1023A0000001654B662B000166BF13D0000166512A
:1023B00004E100016529D8A00CD0000E0001666F71
:1023C0006569000E2F6E000E306E000E316E000E2D
:1023D000326E000166BF07D00001665114E10001B2
:1023E0006505D8B010D0000E0001666F000E656F55
:1023F000000E2F6E000E306E000E316E000E326E2B
:10240000000E0001606F65C06BF000016BA102D08F
:10241000318E01D0319E0001D8906B31326E0001B7
:10242000605132122FC02FF030C030F031C031F087
:1024300032C032F012000001646F000E0001666FBE
:102440004F50D8A421D05050340D140EF324D96E1F
:10245000040EF420DA6EDF500001656F54C06BF09B
:1024600000016B5100016519D8B4F8D0010E0001CC
:10247000666F5050340D140EF324D96E040EF42000
:10248000DA6E6BC0DFFFEAD0F8C014F0F9C015F0C7
:10249000FAC016F0FBC017F03BEC34F014C067F044
:1024A00015C068F016C069F017C06AF05050340DBE
:1024B000FC0E336EFF0E346E4F50356E366AD89078
:1024C00035363636D89035363636D89035363636B7
:1024D0003350352634503622100E376E040E386EC7
:1024E000040E3726000E3822355037263650382253
:1024F000F3503724D96EF4503820DA6EDECF60F016
:10250000DECF61F0DECF62F0DECF63F00001675115
:102510000001601910E100016851000161190BE12F
:10252000000169510001621906E100016A510001D0
:102530006319D8B493D05050340DFC0E336EFF0E97
:10254000346E4F50356E366AD89035363636D89060
:1025500035363636D8903536363633503526345003
:102560003622100E376E040E386E040E3726000E1B
:1025700038223550372636503822F3503724D96E5A
:10258000F4503820DA6E67C0DEFF68C0DEFF69C035
:10259000DEFF6AC0DEFF5050340DFC0E336EFF0EBE
:1025A000346E4F50356E366AD89035363636D89000
:1025B00035363636D89035363636335035263450A3
:1025C0003622100E376E040E386E040E3726000EBB
:1025D00038223550372636503822F3503726F450FB
:1025E0003822040E3724D96E000E3820DA6EEEC27F
:1025F000DEFFEFC2DDFF5050340DFC0E336EFF0ED8
:10260000346E4F50356E366AD89035363636D8909F
:1026100035363636D8903536363633503526345042
:102620003622100E376E040E386E040E3726000E5A
:1026300038223550372636503822F3503726F4509A
:102640003822060E3724D96E000E3820DA6EF0C21A
:10265000DEFFF1C2DDFF010E0001666F0001665171
:102660000001D8B443D0000E00016D6FA20E6C6F54
:10267000100E146E040E156EFE0E00016C25166E03
:10268000FF0E00016D21176EBCEC3FF0E0C01CF0A6
:10269000E1C01DF0000E1E6E100E1F6E040E206EA7
:1026A0006CC021F06DC022F0F3EC20F0E0C00FF020
:1026B000E1C010F0000E116E000E126E060E136EC9
:1026C0006CC014F06DC015F0C5EC1CF0100E086E57
:1026D000040E096E000E0A6E060E0B6E6CC00CF036
:1026E000E1EC3FF008500910D8B400F0000164514B
:1026F0000001D8B403D0CEEC40F012004F2A505065
:10270000340D140EF324D96E040EF420DA6E4F50FB
:10271000DE5CD8B008D0000E4F6E502A020E506416
:1027200002D0000E506E4FC025F0505021EC2AF020
:1027300012000001646F000E0001666F4F50D8A4B4
:1027400021D05050340D040EF324D96E050EF42020
:10275000DA6EDF500001656F54C06DF000016D51FD
:1027600000016519D8B4F8D0010E0001666F505011
:10277000340D040EF324D96E050EF420DA6E6DC00C
:10278000DFFFEAD0F8C014F0F9C015F0FAC016F077
:10279000FBC017F03BEC34F014C067F015C068F0D4
:1027A00016C069F017C06AF05050340DFC0E336E3D
:1027B000FF0E346E4F50356E366AD8903536363649
:1027C000D89035363636D8903536363633503526AD
:1027D00034503622000E376E050E386E040E372642
:1027E000000E38223550372636503822F350372421
:1027F000D96EF4503820DA6EDECF60F0DECF61F0B3
:10280000DECF62F0DECF63F0000167510001601996
:1028100010E100016851000161190BE100016951EB
:102820000001621906E100016A5100016319D8B480
:1028300093D05050340DFC0E336EFF0E346E4F505B
:10284000356E366AD89035363636D89035363636C7
:10285000D890353636363350352634503622000E71
:10286000376E050E386E040E3726000E38223550AE
:10287000372636503822F3503724D96EF45038209A
:10288000DA6E67C0DEFF68C0DEFF69C0DEFF6AC0C7
:10289000DEFF5050340DFC0E336EFF0E346E4F5081
:1028A000356E366AD89035363636D8903536363667
:1028B000D890353636363350352634503622000E11
:1028C000376E050E386E040E3726000E382235504E
:1028D000372636503822F3503726F4503822040E6B
:1028E0003724D96E000E3820DA6EEEC2DEFFEFC25A
:1028F000DDFF5050340DFC0E336EFF0E346E4F5022
:10290000356E366AD89035363636D8903536363606
:10291000D890353636363350352634503622000EB0
:10292000376E050E386E040E3726000E38223550ED
:10293000372636503822F3503726F4503822060E08
:102940003724D96E000E3820DA6EF0C2DEFFF1C2F5
:10295000DDFF010E0001666F000166510001D8B471
:1029600023D0000E00016C6FA20E6B6F000E146E70
:10297000050E156EFE0E00016B25166EFF0E000192
:102980006C21176EBCEC3FF0DEC01CF0DFC01DF008
:10299000000E1E6E000E1F6E050E206E6BC021F025
:1029A0006CC022F0F3EC20F0000164510001D8B4B7
:1029B00003D0CEEC40F012004F2A5050340D040EDC
:1029C000F324D96E050EF420DA6E4F50DE5CD8B0D9
:1029D00002D0000E4F6E4FC025F0000EB5EC29F06E
:1029E0001200A7C008F0A8C009F0A9C00AF0AAC048
:1029F0000BF0010E4BEC20F008C0B7F009C0B8F0A6
:102A00000AC0B9F00BC0BAF00001BAAF09D0000E8D
:102A10000001B76F000EB86F000EB96F000EBA6FED
:102A20000CC308F00DC309F00EC30AF00FC30BF07E
:102A3000000E4BEC20F008C0AFF009C0B0F00AC0A7
:102A4000B1F00BC0B2F0B7C02FF0B8C030F0B9C0D1
:102A500031F0BAC032F0AFC033F0B0C034F0B1C022
:102A600035F0B2C036F07DEC10F02FC0B7F030C0BA
:102A7000B8F031C0B9F032C0BAF0000E0001816F79
:102A8000000E826F800E836F3F0E846FB7C085F09B
:102A9000B8C086F0B9C087F0BAC088F035EC1BF03A
:102AA0000001D8B009D0000E0001B76F000EB86F5A
:102AB000800EB96F3F0EBA6FB7C0AFF0B8C0B0F0BC
:102AC000B9C0B1F0BAC0B2F0B10E00018D6FF00E16
:102AD00000018E6FB7C08FF0B8C090F0B9C091F010
:102AE000BAC092F0000E0001946F650E936F56EC21
:102AF00017F08DC0B7F08EC0B8F08FC0B9F090C09D
:102B0000BAF010C308F011C309F012C30AF013C3DE
:102B10000BF0010E4BEC20F008C0B3F009C0B4F08C
:102B20000AC0B5F00BC0B6F0B3C016F0B4C017F0D1
:102B3000B5C018F0B6C019F0B7C01AF0B8C01BF095
:102B4000B9C01CF0BAC01DF02FEC0DF016C0B3F0E8
:102B500017C0B4F018C0B5F019C0B6F0AFC0B7F0E8
:102B6000B0C0B8F0B1C0B9F0B2C0BAF01D0E0001EB
:102B70008D6FEF0E00018E6FB7C08FF0B8C090F070
:102B8000B9C091F0BAC092F0000E0001946F650ECA
:102B9000936F56EC17F08DC0B7F08EC0B8F08FC0B1
:102BA000B9F090C0BAF014C308F015C309F016C309
:102BB0000AF017C30BF0010E4BEC20F008C0ABF08D
:102BC00009C0ACF00AC0ADF00BC0AEF0ABC016F05F
:102BD000ACC017F0ADC018F0AEC019F0B7C01AF015
:102BE000B8C01BF0B9C01CF0BAC01DF02FEC0DF03E
:102BF00016C0ABF017C0ACF018C0ADF019C0AEF005
:102C0000B3C06DF0B4C06EF0B5C06FF0B6C070F078
:102C1000ABC071F0ACC072F0ADC073F0AEC074F078
:102C2000BAEC06F06DC0B3F06EC0B4F06FC0B5F092
:102C300070C0B6F0B3C081F0B4C082F0B5C083F00C
:102C4000B6C084F066EC27F081C0A7F082C0A8F07F
:102C500083C0A9F084C0AAF012000CC308F00DC311
:102C600009F00EC30AF00FC30BF0000E4BEC20F07E
:102C700008C091F009C092F00AC093F00BC094F024
:102C800008C308F009C309F00AC30AF00BC30BF02C
:102C9000010E4BEC20F008C08DF009C08EF00AC088
:102CA0008FF00BC090F003010451D8B42CD0000E6B
:102CB000336E000E346E000E356E400E366E8DC0D3
:102CC0002FF08EC030F08FC031F090C032F07DEC2C
:102CD00010F02FC06DF030C06EF031C06FF032C018
:102CE00070F091C071F092C072F093C073F094C014
:102CF00074F0BAEC06F06DC091F06EC092F06FC047
:102D000093F070C094F003010551086E096A0A6AD5
:102D10000B6A000E4BEC20F008C02FF009C030F019
:102D20000AC031F00BC032F0000E336E000E346E6C
:102D3000C80E356E420E366E7DEC10F02FC08DF051
:102D400030C08EF031C08FF032C090F091C016F0DC
:102D500092C017F093C018F094C019F08DC01AF00B
:102D60008EC01BF08FC01CF090C01DF02FEC0DF03A
:102D700016C091F017C092F018C093F019C094F0EB
:102D80000001915100019211000193110001941171
:102D9000D8A409D0000E0001916F000E926F800E32
:102DA000936F3F0E946FCEC008F0CFC009F0D0C033
:102DB0000AF0D1C00BF0010E4BEC20F008C08DF0F2
:102DC00009C08EF00AC08FF00BC090F0000190AFE8
:102DD00009D0000E00018D6F000E8E6F000E8F6FF8
:102DE000000E906F8DC02FF08EC030F08FC031F08C
:102DF00090C032F091C033F092C034F093C035F0FF
:102E000094C036F07DEC10F02FC091F030C092F0FD
:102E100031C093F032C094F091C016F092C017F018
:102E200093C018F094C019F0000E1A6E000E1B6EBD
:102E3000C80E1C6E420E1D6E2FEC0DF016C091F0E8
:102E400017C092F018C093F019C094F0000E000162
:102E5000816F000E826FC80E836F420E846F91C027
:102E600085F092C086F093C087F094C088F035EC6E
:102E70001BF00001D8B009D0000E0001916F000EC8
:102E8000926FC80E936F420E946F91C081F092C002
:102E900082F093C083F094C084F066EC27F00001C8
:102EA00081510001F66F0001F65112008FC016F03B
:102EB00090C017F091C018F092C019F0000E1A6E71
:102EC000000E1B6EC80E1C6E420E1D6E2FEC0DF018
:102ED00016C0A3F017C0A4F018C0A5F019C0A6F042
:102EE000000E0001816F000E826FC80E836F420ECC
:102EF000846FA3C085F0A4C086F0A5C087F0A6C0EB
:102F000088F035EC1BF00001D8B009D0000E0001AC
:102F1000A36F000EA46FC80EA56F420EA66FA3C0CC
:102F200081F0A4C082F0A5C083F0A6C084F066EC56
:102F300027F081C0A1F082C0A2F0A1C095F0A2C08C
:102F400096F00001D890953796370001D8909537C4
:102F500096378DC097F08EC098F000019551000112
:102F60009727000196510001982397C0F6FF98C05B
:102F7000F7FF0900F5CF9DF00900F5CF9EF009009D
:102F8000F5CF9FF00A00F5CFA0F09DC03BF09EC0AA
:102F90003CF09FC03DF0A0C03EF0B2EC42F03BC020
:102FA0006DF03CC06EF03DC06FF03EC070F0A1C04F
:102FB00095F0A2C096F00001D890953796370001A1
:102FC000D89095379637040E00019527000E96236A
:102FD0008DC097F08EC098F00001955100019727A1
:102FE000000196510001982397C0F6FF98C0F7FFA3
:102FF0000900F5CF71F00900F5CF72F00900F5CFA7
:1030000073F00A00F5CF74F0BAEC06F06DC099F0D9
:103010006EC09AF06FC09BF070C09CF0A3C071F0BE
:10302000A4C072F0A5C073F0A6C074F0A1C008F0EF
:10303000A2C009F00A6A0B6A000E4BEC20F008C02F
:103040003BF009C03CF00AC03DF00BC03EF0B2ECD2
:1030500042F03BC06DF03CC06EF03DC06FF03EC032
:1030600070F0BAEC06F06DC016F06EC017F06FC0CD
:1030700018F070C019F099C01AF09AC01BF09BC0EC
:103080001CF09CC01DF02FEC0DF016C0A3F017C073
:10309000A4F018C0A5F019C0A6F0A3C06DF0A4C09C
:1030A0006EF0A5C06FF0A6C070F09DC071F09EC01C
:1030B00072F09FC073F0A0C074F0BAEC06F06DC05F
:1030C000A3F06EC0A4F06FC0A5F070C0A6F0A3C0BE
:1030D0008DF0A4C08EF0A5C08FF0A6C090F01200B5
:1030E000000120EE0CF08951D9268A51DA22DECF78
:1030F00008F0DECF09F0DECF0AF0DECF0BF0000ED5
:103100004BEC20F008C0A1F009C0A2F00AC0A3F067
:103110000BC0A4F0000120EE08F08951D9268A5195
:10312000DA22DECF08F0DECF09F0DECF0AF0DECF04
:103130000BF0010E4BEC20F008C099F009C09AF09A
:103140000AC09BF00BC09CF0000E336E000E346E74
:103150007A0E356E440E366EA1C02FF0A2C030F04C
:10316000A3C031F0A4C032F07DEC10F02FC08DF080
:1031700030C08EF031C08FF032C090F08DC02FF093
:103180008EC030F08FC031F090C032F0000E336E40
:10319000000E346E000E356E400E366E7DEC10F073
:1031A0002FC0A1F030C0A2F031C0A3F032C0A4F013
:1031B00099C02FF09AC030F09BC031F09CC032F023
:1031C000000E336E000E346E7A0E356E440E366E7F
:1031D0007DEC10F02FC099F030C09AF031C09BF018
:1031E00032C09CF0A1C01AF0A2C01BF0A3C01CF01A
:1031F000A4C01DF0A1C016F0A2C017F0A3C018F023
:10320000A4C019F02FEC0DF016C091F017C092F089
:1032100018C093F019C094F099C01AF09AC01BF02E
:103220009BC01CF09CC01DF091C016F092C017F01E
:1032300093C018F094C019F02FEC0DF016C095F063
:1032400017C096F018C097F019C098F095C016F006
:1032500096C017F097C018F098C019F0F90E1A6EC2
:103260000F0E1B6E490E1C6E400E1D6E2FEC0DF0E6
:1032700016C09DF017C09EF018C09FF019C0A0F0B6
:103280009DC016F09EC017F09FC018F0A0C019F0A6
:10329000000E1A6E000E1B6E7A0E1C6E440E1D6E12
:1032A0002FEC0DF016C09DF017C09EF018C09FF0D7
:1032B00019C0A0F09DC081F09EC082F09FC083F035
:1032C000A0C084F066EC27F081C089F082C08AF04B
:1032D00083C08BF084C08CF0120021C0D9FF22C0C3
:1032E000DAFFDECF30F0DDCF31F0260E086E000EB3
:1032F000096E1FC00AF020C00BF08FEC3AF020EEF0
:1033000003F02150D9262250DA22DF50D8A45AD017
:10331000100E305C270E3158D8A004D0270E316E25
:103320000F0E306E2A0E106E000E116E30C012F0AD
:1033300031C013F08FEC21F0260E086E000E096EDE
:10334000080E0A6E24EC3FF020EE02F02150D92640
:103350002250DA22DF50326E010E196E3250040F05
:10336000ACEC3CF0040E236005D023500008030FA2
:10337000236E5ED0040E2318D8A40DD00F015FB7C2
:1033800094D05350D8A491D0000E196E3250040F2F
:10339000ACEC3CF08AD00F015FB787D05350D8A473
:1033A00084D02A0E086E000E096E7A0E0A6EF30E95
:1033B0000B6E8FEC3AF0000E196E3250040FACEC2D
:1033C0003CF073D02350D8B41200100E305C270E9E
:1033D0003158D8A004D0270E316E0F0E306E2B0E50
:1033E000106E000E116E30C012F031C013F08FEC71
:1033F00021F02D0E2A6E260E086E000E096E080EA4
:103400000A6E24EC3FF020EE02F02150D926225023
:10341000DA22DF50326E010E196E3250050FACEC1D
:103420003CF0040E23601AD023500008040FA0D7EC
:103430000F015FB73AD05350D8A437D02350246E31
:10344000256A040E2426000E2522260E2424D96E79
:10345000000E2520DA6E200EDF6E27D0040E231812
:10346000D8A40DD00F015FB720D05350D8A41DD0E1
:10347000000E196E3250050FACEC3CF016D00F0167
:103480005FB713D05350D8A410D02A0E086E000E88
:10349000096E7A0E0A6EF30E0B6E8FEC3AF0000E88
:1034A000196E3250050FACEC3CF0260E1C6E000E6F
:1034B0001D6EBCEC3BF0EDEC3BF01200000E77EC27
:1034C00044F0010E04EC44F05150F00B346E343AE9
:1034D0000F0E34163450D8A416D0CEC015F0CFC07D
:1034E00016F0D0C017F0D1C018F041EC29F015C08B
:1034F00030F016C031F017C032F018C033F0010EB2
:1035000048EC40F032D03404D8A416D0CAC015F02C
:10351000CBC016F0CCC017F0CDC018F041EC29F0AC
:1035200015C030F016C031F017C032F018C033F0BB
:10353000010EABEC3EF019D0020E3418D8A415D011
:103540004EC215F04FC216F050C217F051C218F01B
:1035500041EC29F015C030F016C031F017C032F040
:1035600018C033F0010E26EC40F0300E1F6E000E36
:10357000206E000E216E6DEC26F051500F0B346E54
:103580003450D8A416D046C215F047C216F048C22F
:1035900017F049C218F041EC29F015C030F016C000
:1035A00031F017C032F018C033F0010E59EC3EF084
:1035B0004CD03404D8A416D042C215F043C216F041
:1035C00044C217F045C218F041EC29F015C030F0A4
:1035D00016C031F017C032F018C033F0010E30ECD5
:1035E0003EF033D0020E3418D8A416D0CEC015F059
:1035F000CFC016F0D0C017F0D1C018F041EC29F0C0
:1036000015C030F016C031F017C032F018C033F0DA
:10361000010E82EC3EF019D0030E3418D8A415D058
:10362000CAC015F0CBC016F0CCC017F0CDC018F052
:1036300041EC29F015C030F016C031F017C032F05F
:1036400018C033F0010EB9EC39F0300E1F6E000EC9
:10365000206E010E216E6DEC26F0F6C034F0345071
:103660002FEC41F0EDEC3BF01200000E0001811553
:103670000001896F000E0001821500018A6F800E23
:103680000001831500018B6F7F0E0001841500017E
:103690008C6F0001895100018A1100018B1100011A
:1036A0008C11D8A409D0000E0001816F000E826F2A
:1036B000000E836F000E846F000E0001851500015F
:1036C000896F000E0001861500018A6F800E0001CF
:1036D000871500018B6F7F0E0001881500018C6F2C
:1036E0000001895100018A1100018B1100018C1128
:1036F000D8A409D0000E0001856F000E866F000E61
:10370000876F000E886F000184AF26D081C089F0DA
:1037100082C08AF083C08BF084C08CF00001891FC6
:103720008A1F8B1F8C1F892B000E8A238B238C23CF
:10373000000E000189250001816F000E00018A2121
:103740000001826F000E00018B210001836F800E4B
:1037500000018C210001846F000188AF26D085C054
:1037600089F086C08AF087C08BF088C08CF0000199
:10377000891F8A1F8B1F8C1F892B000E8A238B2386
:103780008C23000E000189250001856F000E0001C9
:103790008A210001866F000E00018B210001876FD6
:1037A000800E00018C210001886F000E0001811B3A
:1037B000000E821B000E831B800E841B000E000176
:1037C000851B000E861B000E871B800E881B0001C8
:1037D00085510001815D000186510001825900017F
:1037E0008751000183590001885100018459D8B0E4
:1037F00002D0D8901200D8801200000E146E000E75
:10380000136E20EE06F00F50D9261050DA2201D8A0
:103810000AD00500FA6EDE50FD6EDE50FE6EF850E6
:10382000FF6EFA50120020EE0AF00F50D926105009
:10383000DA2201D811D00500FA6EDE50FD6EDE509E
:10384000FE6EF850FF6EFA5020EE01F00F50D926B0
:103850001050DA22DF50120020EE0AF00F50D92665
:103860001050DA2201D80BD00500FA6EDE50FD6E42
:10387000DE50FE6EF850FF6EFA501150120020EE2E
:1038800008F00F50D9261050DA2201D80AD00500CE
:10389000FA6EDE50FD6EDE50FE6EF850FF6EFA508E
:1038A000120020EE06F00F50D9261050DA2201D86F
:1038B0000AD00500FA6EDE50FD6EDE50FE6EF85046
:1038C000FF6EFA50120020EE0AF00F50D926105069
:1038D000DA2201D813D00500FA6EDE50FD6EDE50FC
:1038E000FE6EF850FF6EFA5020EE01F00F50D92610
:1038F0001050DA22DF50126E1228120020EE0EF065
:103900000F50D9261050DA2201D80BD00500FA6EDC
:10391000DE50FD6EDE50FE6EF850FF6EFA50000E67
:103920001200126E1250136E146A1350146E136A42
:1039300020EE0EF00F50D9261050DA2201D80BD00D
:103940000500FA6EDE50FD6EDE50FE6EF850FF6E22
:10395000FA50000E1200126E1250131220EE08F0F0
:103960000F50D9261050DA2201D80AD00500FA6E7D
:10397000DE50FD6EDE50FE6EF850FF6EFA50120003
:1039800013C00FF014C010F0120020EE01F00F5021
:10399000D9261050DA2201D80AD00500FA6EDE507E
:1039A000FD6EDE50FE6EF850FF6EFA50120020EEF3
:1039B00005F00F50D9261050DA2201D80FD005009B
:1039C000FA6EDE50FD6EDE50FE6EF850FF6EFA505D
:1039D0000FC0D9FF10C0DAFFDF50120020EE05F053
:1039E0000F50D9261050DA2201D80BD00500FA6EFC
:1039F000DE50FD6EDE50FE6EF850FF6EFA50115034
:103A0000120020EE01F00F50D9261050DA2201D812
:103A10000AD00500FA6EDE50FD6EDE50FE6EF850E4
:103A2000FF6EFA50120020EE05F00F50D92610500C
:103A3000DA2201D811D00500FA6EDE50FD6EDE509C
:103A4000FE6EF850FF6EFA500FC0D9FF10C0DAFFBB
:103A5000DF50166E16281200000E1B6E000E1A6E36
:103A60001CD020EE09F00F50D9261050DA2201D8D0
:103A70000BD00500FA6EDE50FD6EDE50FE6EF85083
:103A8000FF6EFA50000E120012C0D9FF13C0DAFF09
:103A9000DF6E124A132A1A4A1B2AFF0E166EFF0EF9
:103AA000176E14C018F015C019F0165018261750CC
:103AB000192218501A5C19501B58D8A0D2D720EEE2
:103AC00009F00F50D9261050DA2201D80BD005008A
:103AD000FA6EDE50FD6EDE50FE6EF850FF6EFA504C
:103AE000010E120012C0D9FF13C0DAFFDF6E20EE04
:103AF00003F00F50D9261050DA2201D81200050029
:103B0000FA6EDE50FD6EDE50FE6EF850FF6EFA501B
:103B10001200030E0401106F000E186E020E1864DE
:103B200001D012001850340D140EF324D96E040E77
:103B3000F420DA6E060EDF6E000E176E050E1764A7
:103B400001D09DD017C00BF00C6A170E0E6E700ED0
:103B50000D6E8AEC44F00BC011F00CC012F018C0CE
:103B60000BF00C6A010E0E6EF40E0D6E8AEC44F032
:103B70000B5011260C5012221750080D040EF3267C
:103B8000000EF422100E136E040E146E040E132693
:103B9000000E1422F3501326F45014221850340D42
:103BA000F3501326F4501422040E1324D96E000E81
:103BB0001420DA6E11C0DEFF12C0DDFF17C00BF05B
:103BC0000C6A170E0E6E700E0D6E8AEC44F00BC070
:103BD00011F00CC012F0000E12BEFF0E136E146E28
:103BE0001750080D040EF326000EF422100E156E69
:103BF000040E166E040E1526000E1622F35015261E
:103C0000F45016221850340DF3501524D96EF45088
:103C10001620DA6E11C0DEFF12C0DEFF13C0DEFF19
:103C200014C0DEFF18C00BF00C6A030E0E6EE80E17
:103C30000D6E8AEC44F01750080D040EF326000EAA
:103C4000F422100E116E040E126E040E1126000ED8
:103C50001222F3501126F45012221850340DF35052
:103C60001126F4501222060E1124D96E000E1220D5
:103C7000DA6E0BC0DEFF0CC0DDFF172A5FD7182AF3
:103C80004DD7000120EE0CF08951D9268A51DA2255
:103C9000DECF08F0DECF09F0DECF0AF0DECF0BF08A
:103CA000000E4BEC20F008C099F009C09AF00AC051
:103CB0009BF00BC09CF099C02FF09AC030F09BC0D5
:103CC00031F09CC032F0000E336E000E346E7A0E6E
:103CD000356E440E366E7DEC10F02FC099F030C07A
:103CE0009AF031C09BF032C09CF099C01AF09AC093
:103CF0001BF09BC01CF09CC01DF099C016F09AC030
:103D000017F09BC018F09CC019F02FEC0DF016C0F6
:103D10008DF017C08EF018C08FF019C090F099C0C8
:103D20001AF09AC01BF09BC01CF09CC01DF08DC007
:103D300016F08EC017F08FC018F090C019F02FEC5D
:103D40000DF016C091F017C092F018C093F019C092
:103D500094F091C016F092C017F093C018F094C080
:103D600019F0A60E1A6E0A0E1B6E860E1C6E3E0E03
:103D70001D6E2FEC0DF016C095F017C096F018C010
:103D800097F019C098F095C016F096C017F097C03C
:103D900018F098C019F0000E1A6E000E1B6E7A0E05
:103DA0001C6E440E1D6E2FEC0DF016C095F017C062
:103DB00096F018C097F019C098F095C081F096C0A1
:103DC00082F097C083F098C084F066EC27F081C041
:103DD00089F082C08AF083C08BF084C08CF012001E
:103DE000010E0501006F000E176E1750D8A41200C7
:103DF0001750340D040EF324D96E050EF420DA6E3C
:103E0000060EDF6E000E186E050E186401D094D0F9
:103E100018C00BF00C6A170E0E6E700E0D6E8AEC49
:103E200044F00BC011F00CC012F017C00BF00C6A7C
:103E3000010E0E6EF40E0D6E8AEC44F00B5011263E
:103E40000C5012221850080D040EF326000EF42216
:103E5000000E136E050E146E040E1326000E1422AF
:103E6000F3501326F45014221750340DF350132638
:103E7000F4501422040E1324D96E000E1420DA6EAE
:103E800011C0DEFF12C0DDFF18C00BF00C6A170E68
:103E90000E6E700E0D6E8AEC44F00BC011F00CC06B
:103EA00012F0000E12BEFF0E136E146E1850080DA5
:103EB000040EF326000EF422000E156E050E166E8B
:103EC000040E1526000E1622F3501526F450162265
:103ED0001750340DF3501524D96EF4501620DA6EB5
:103EE00011C0DEFF12C0DEFF13C0DEFF14C0DEFF14
:103EF0001850080D040EF326000EF422000E116E69
:103F0000050E126E040E1126000E1222F350112619
:103F1000F45012221750340DF3501126F45012228F
:103F2000060E1124D96E000E1220DA6E000EDE6E1F
:103F3000000EDD6E182A68D7172A57D7000E000129
:103F4000A66FF00EA56F000E0001AA6F030E000110
:103F5000AB6FAAC0A8F0ABC0A9F0000E086EF40EBB
:103F6000096E000E0A6E000E0B6EAAC00CF0ABC0FC
:103F70000DF0000E0F6EF00E0E6EF6EC3AF0AAC0C9
:103F800014F0ABC015F0000E176EF00E166E1EEC9E
:103F90003CF00001A76F0001A7510001D8A4120056
:103FA000AAC008F0ABC009F0450E0A6EF20E0B6E07
:103FB000000E0D6EF00E0C6E6AEC40F0A8C089F099
:103FC000A9C08AF070EC18F0000120EE10F0A851A2
:103FD000D926A951DA22000189C0DEFF00018AC07A
:103FE000DEFF00018BC0DEFF00018CC0DEFFA8C039
:103FF00089F0A9C08AF041EC1EF0000120EE14F017
:10400000A851D926A951DA22000189C0DEFF00019A
:104010008AC0DEFF00018BC0DEFF00018CC0DEFF26
:10402000AAC014F0ABC015F0000E176EEE0E166E9F
:10403000BCEC3FF0000E166EF40E176E000E186EFC
:10404000000E196EAAC01AF0ABC01BF0000E1D6E58
:10405000F00E1C6ECCEC28F0000E086EF40E096E0B
:10406000000E0A6E000E0B6EAAC00CF0ABC00DF075
:10407000000E0F6EF00E0E6EF6EC3AF0AAC014F0C1
:10408000ABC015F0000E176EF00E166E1EEC3CF075
:104090000001A76F1200106E1050D8A40BAE1AD0FA
:1040A00008C00CF009C00DF00AC00EF00BC00FF0F4
:1040B0000C1E0D1E0E1E0F1E0C2A000E0D220E22AF
:1040C0000F220CC012F00DC013F00EC014F00FC080
:1040D00015F008D008C012F009C013F00AC014F09F
:1040E0000BC015F0085009100A100B10D8A409D005
:1040F000000E086E000E096E000E0A6E000E0B6EAA
:104100001200960E116E06D0112AD8901532143274
:1041100013321232000E12140C6E000E13140D6EB8
:10412000000E14140E6EFE0E15140F6E0C500D10B2
:104130000E100F10D8B40DD0E7D7112A010E122699
:10414000000E132214221522D89015321432133285
:104150001232000E12140C6E000E13140D6E000EAF
:1041600014140E6EFF0E15140F6E0C500D100E1061
:104170000F10D8B407D0E1D71106D89012361336F5
:104180001436153614BE03D0020E1160F5D711B0E7
:1041900008D0FF0E1216FF0E13167F0E1416FF0E18
:1041A0001516D890113211C00CF00D6A0E6A0F6A04
:1041B0000CC00FF00E6A0D6A0C6A0C5012120D50F2
:1041C00013120E5014120F5015121050D8A40BAE2B
:1041D00001D0158E12C008F013C009F014C00AF007
:1041E00015C00BF012001CC00FF01DC010F01EC057
:1041F00011F0000E126E010E136E21C014F022C0D9
:1042000015F0C5EC1CF0000E266E000E256E80D059
:1042100025501F24D96E26502020DA6E000E25244A
:10422000E96E010E2620EA6EDE50EE18D8B46ED08C
:1042300020EE01F01C50D9261D50DA2201D80AD0F8
:104240000500FA6EDE50FD6EDE50FE6EF850FF6E19
:10425000FA50120020EE05F01C50D9261D50DA222B
:1042600001D80FD00500FA6EDE50FD6EDE50FE6EF6
:10427000F850FF6EFA501CC0D9FF1DC0DAFFDF50A6
:10428000120020EE05F01C50D9261D50DA2201D86C
:104290000CD00500FA6EDE50FD6EDE50FE6EF8505A
:1042A000FF6EFA501E502524120020EE05F01C501F
:1042B000D9261D50DA2201D811D00500FA6EDE5041
:1042C000FD6EDE50FE6EF850FF6EFA5025501F2432
:1042D000D96E26502020DA6EDF50120020EE03F057
:1042E0001C50D9261D50DA2201D80AD00500FA6EDA
:1042F000DE50FD6EDE50FE6EF850FF6EFA5012007A
:10430000000E0D6E010E0C6EDDEC44F0254A262ADF
:104310002150255C22502658D8B0120079D713BE00
:104320000AD0100E125C270E1358D8A004D0270E06
:10433000136E0F0E126E12C008F013C009F0000EBB
:104340000B6E0A0E0A6E81EC39F00C0E0824F66E24
:10435000EF0E0920F76E20EE03F01050D926115011
:10436000DA220800F5CFDFFF12C008F013C009F011
:10437000000E0B6E0A0E0A6E1CEC35F008C012F02F
:1043800009C013F012C008F013C009F0000E0B6E44
:104390000A0E0A6E81EC39F00C0E0824F66EEF0E50
:1043A0000920F76E20EE02F01050D9261150DA22C3
:1043B0000800F5CFDFFF12C008F013C009F0000EAF
:1043C0000B6E0A0E0A6E1CEC35F008C012F009C024
:1043D00013F012C008F013C009F0000E0B6E0A0EA5
:1043E0000A6E81EC39F00C0E0824F66EEF0E0920EF
:1043F000F76E20EE01F01050D9261150DA22080095
:10440000F5CFDFFF12C008F013C009F0000E0B6EED
:104410000A0E0A6E1CEC35F008C012F009C013F049
:1044200012C008F013C009F0000E0B6E0A0E0A6EDF
:1044300081EC39F00C0E0824F66EEF0E0920F76EB1
:1044400010C0D9FF11C0DAFF0800F5CFDFFF12005E
:104450000001AA6F000E0001AF6F030E0001B06FE4
:10446000F8C014F0F9C015F0FAC016F0FBC017F050
:104470003BEC34F014C0ABF015C0ACF016C0ADF09E
:1044800017C0AEF05CD0000120EE9CF0AF51D926F1
:10449000B051DA22ABC0DEFFACC0DEFFADC0DEFF44
:1044A000AEC0DEFF000120EEA0F012D0000120EE31
:1044B000A4F0AF51D926B051DA22ABC0DEFFACC0B8
:1044C000DEFFADC0DEFFAEC0DEFF000120EEA8F0D3
:1044D000AF51D926B051DA22DAC0DEFFDBC0DDFFF2
:1044E0003BD0000120EEACF0AF51D926B051DA221A
:1044F000ABC0DEFFACC0DEFFADC0DEFFAEC0DEFF96
:10450000000120EEB0F012D0000120EEB4F0AF5167
:10451000D926B051DA22ABC0DEFFACC0DEFFADC0A1
:10452000DEFFAEC0DEFF000120EEB8F0AF51D926AD
:10453000B051DA22D8C0DEFFD9C0DDFF0DD0515016
:10454000000AD8B4A0D7010AD8B4B0D7030AD8B4A7
:10455000C8D7010AD8B4D8D7EAEC26F00001AA518E
:104560000001D8B403D0CEEC40F01200512A030E63
:10457000516402D0000E516E5150A1EC33F0120084
:10458000EA0E0001C56F020E0001C66F6C0E086EC8
:10459000020E096E000E0A6E180E0B6EFBEC44F054
:1045A000000E0001C76F000E0001C76F20D0000190
:1045B000C751340D140EF3240001C36F040EF42010
:1045C0000001C46FC3C022F0C4C023F0C5C024F0F2
:1045D000C6C025F00001C751080D6C0EF324266EED
:1045E000020EF420276E40EC0BF00001C72B0401F3
:1045F00010510001C75DD8A0DAD76C0E226E020EF2
:10460000236EC5C024F0C6C025F0C7C026F0D7EC85
:104610000EF0C5C0D9FFC6C0DAFFDECF52F2DECF42
:1046200053F2DECF54F2DECF55F252C289F053C2BC
:104630008AF054C28BF055C28CF0F0EC25F02DECD2
:1046400016F00001F66F03010451D8A413D0CEC0B8
:10465000A7F0CFC0A8F0D0C0A9F0D1C0AAF0F1EC6B
:1046600014F0A7C0CAF0A8C0CBF0A9C0CCF0AAC073
:10467000CDF012D0CEC0A7F0CFC0A8F0D0C0A9F026
:10468000D1C0AAF040EC00F0A7C0CAF0A8C0CBF09F
:10469000A9C0CCF0AAC0CDF0CAC089F0CBC08AF0C6
:1046A000CCC08BF0CDC08CF088EC2CF0120064D024
:1046B00033EC45F01200580E086E000E096E000E25
:1046C0000A6E030E0B6E0FEC41F01200580E086ECE
:1046D000000E096E000E0A6E040E0B6E0FEC41F018
:1046E000120078EC43F01200580E086E000E096EAE
:1046F000000E0A6E050E0B6E0FEC41F0120041EC3D
:1047000045F0120025EC45F01200580E086E000E20
:10471000096E000E0A6E020E0B6E0FEC41F01200D5
:10472000580E086E000E096E000E0A6E040E0B6E17
:104730000FEC41F01200580E086E000E096E000ECC
:104740000A6E040E0B6E0FEC41F01200580E086E4C
:10475000000E096E000E0A6E040E0B6E0FEC41F097
:104760001200580E086E000E096E000E0A6E020E40
:104770000B6E0FEC41F012005250000AD8B498D7DB
:10478000100AD8B498D7300AD8B4A0D7100AD8B431
:10479000A8D7700AD8B4A8D7100AD8B4B0D7300AAE
:1047A000D8B4B0D7100AD8B4B0D7F00AD8B4120031
:1047B000100AD8B4B5D7300AD8B4BDD7100AD8B4C7
:1047C000C5D7700AD8A41200CCD7000E2D6E000EEB
:1047D0002E6E000E2F6E000E306E2604316E31509C
:1047E000D8B43FD0FE0E276EFF0E286E3150296ED2
:1047F0002A6AD89029362A362750292628502A2274
:1048000029502224D96E2A502320DA6E3150020D0D
:10481000F3502224E96EF4502320EA6EDECFEEFF3F
:10482000DDCFEDFF3150020DF3502224D96EF4504C
:104830002320DA6EDECF27F0DDCF28F027C029F065
:1048400028C02AF0000E2ABEFF0E2B6E2C6E2950B7
:104850002D262A502E222B502F222C50302231066A
:10486000BED73150020DF3502224D96EF4502320CC
:10487000DA6E24C0DEFF25C0DDFF24C027F025C08E
:1048800028F0000E28BEFF0E296E2A6E27502D2616
:1048900028502E2229502F222A5030222DC014F0C9
:1048A0002EC015F02FC016F030C017F02650186E2D
:1048B000196A1A6A1B6AF5EC2AF014C02DF015C0AB
:1048C0002EF016C02FF017C030F02DC022F02EC0F1
:1048D00023F012000001AA6F000E0001B16F030E59
:1048E0000001B26F4CD0540E0001AB6F000E0001FE
:1048F000AC6FABC0D9FFACC0DAFF000100EE04F032
:10490000B151E926B251EA22DFCFEFFF42D0F8C021
:1049100014F0F9C015F0FAC016F0FBC017F03BEC2C
:1049200034F014C0ADF015C0AEF016C0AFF017C033
:10493000B0F0000120EE08F015D0F8C014F0F9C076
:1049400015F0FAC016F0FBC017F03BEC34F014C0C1
:10495000ADF015C0AEF016C0AFF017C0B0F000015A
:1049600020EE0CF0B151D926B251DA22ADC0DEFFF3
:10497000AEC0DEFFAFC0DEFFB0C0DEFF0AD05150D8
:10498000000AD8B4B0D7010AD8B4C1D7030AD8B442
:10499000D4D70001AA510001D8B403D0CEEC40F026
:1049A0001200EAEC26F0512A020E51640CD0000EDF
:1049B000516E09D01AEC42F0120029EC3BF01200C3
:1049C0005AEC3BF012005150000AD8B4F3D7010A58
:1049D000D8B4F3D7030AD8A41200F2D7000E276E7A
:1049E000000E2A6E050E2B6E840E0001DE6F020E85
:1049F0000001DF6FDEC008F0DFC009F0AA0E0A6E0A
:104A0000D8EC38F0000E296EA20E286EDEC00FF032
:104A1000DFC010F0000E116E2AC012F02BC013F090
:104A200028C014F029C015F0C5EC1CF02AC014F001
:104A30002BC015F028C016F029C017F01EEC3CF072
:104A4000276E2750D8A41200F0EC1EF02AC014F0F4
:104A50002BC015F0FE0E2824166EFF0E2920176EAF
:104A6000BCEC3FF0DEC01CF0DFC01DF0000E1E6E7F
:104A70002AC01FF02BC020F028C021F029C022F04E
:104A8000F3EC20F0DEC00FF0DFC010F0000E116E6E
:104A90002AC012F02BC013F028C014F029C015F062
:104AA000C5EC1CF02AC014F02BC015F028C016F07D
:104AB00029C017F01EEC3CF0276E2750D8A4120036
:104AC000F0EC1EF02AC014F02BC015F0FE0E2824C6
:104AD000166EFF0E2920176EBCEC3FF01200000E80
:104AE000276E100E2A6E040E2B6E8F0E0001E06FE3
:104AF000020E0001E16FE0C008F0E1C009F0AA0E6B
:104B00000A6ED8EC38F0000E296EA20E286EE0C0B6
:104B10000FF0E1C010F0000E116E2AC012F02BC091
:104B200013F028C014F029C015F0C5EC1CF02AC001
:104B300014F02BC015F028C016F029C017F01EEC99
:104B40003CF0276E2750D8A4120089EC1DF02AC033
:104B500014F02BC015F0FE0E2824166EFF0E29202F
:104B6000176EBCEC3FF0E0C01CF0E1C01DF0000E81
:104B70001E6E2AC01FF02BC020F028C021F029C0D3
:104B800022F0F3EC20F0E0C00FF0E1C010F0000ED6
:104B9000116E2AC012F02BC013F028C014F029C0E7
:104BA00015F0C5EC1CF02AC014F02BC015F028C07D
:104BB00016F029C017F01EEC3CF0276E2750D8A441
:104BC000120089EC1DF02AC014F02BC015F0FE0E67
:104BD0002824166EFF0E2920176EBCEC3FF0120041
:104BE00089C008F08AC009F08BC00AF08CC00BF0B5
:104BF000010E4BEC20F008C091F009C092F00AC001
:104C000093F00BC094F006C308F007C309F00A6ADA
:104C10000B6A000E4BEC20F008C08DF009C08EF03E
:104C20000AC08FF00BC090F091C02FF092C030F00E
:104C300093C031F094C032F0CD0E1A6ECC0E1B6EC4
:104C40001C0E1C6E410E1D6E8DC016F08EC017F02E
:104C50008FC018F090C019F02FEC0DF016C033F093
:104C600017C034F018C035F019C036F07DEC10F0E4
:104C70002FC091F030C092F031C093F032C094F068
:104C800091C016F092C017F093C018F094C019F0BC
:104C9000000E1A6E000E1B6E7A0E1C6E440E1D6EF8
:104CA0002FEC0DF016C091F017C092F018C093F0E1
:104CB00019C094F091C081F092C082F093C083F04B
:104CC00094C084F066EC27F081C0CEF082C0CFF0B3
:104CD00083C0D0F084C0D1F01200010E216401D055
:104CE00012001FC0D9FF20C0DAFFDECF2EF0DDCFCB
:104CF0002FF020EE03F01F50D9262050DA22DF508B
:104D0000D8B425D02EC00BF02FC00CF0000E0E6EC4
:104D10000A0E0D6E07EC3EF00BC02EF00CC02FF00B
:104D2000E80E2E5C030E2F58D8A004D0030E2F6E71
:104D3000E70E2E6E230E106E000E116E2EC012F0B6
:104D40002FC013F08FEC21F02D0E236E14D0100E17
:104D50002E5C270E2F58D8A004D0270E2F6E0F0ED2
:104D60002E6E230E106E000E116E2EC012F02FC08C
:104D700013F08FEC21F0000E286E2150D8A407D03C
:104D8000230E1C6E000E1D6E8BEC3BF006D0230E26
:104D90001C6E000E1D6E35EC42F020EE03F01F502D
:104DA000D9262050DA22DF50226E20EE02F01F506A
:104DB000D9262050DA22DF5022242D6E030E2D60DA
:104DC0001200010E196E2150040DF3502D24ACEC8D
:104DD0003CF01200000E0001A56F000E0001A66F4E
:104DE000030E0001A76F000E0001A86F030E000163
:104DF000A96FA6C089F0A7C08AF070EC18F0000176
:104E000020EE10F0A651D926A751DA22000189C060
:104E1000DEFF00018AC0DEFF00018BC0DEFF000163
:104E20008CC0DEFFA6C089F0A7C08AF041EC1EF05E
:104E3000000120EE14F0A651D926A751DA22000174
:104E400089C0DEFF00018AC0DEFF00018BC0DEFFEB
:104E500000018CC0DEFFA8C014F0A9C015F0000E40
:104E6000176EEE0E166EBCEC3FF0000E166EF40ED2
:104E7000176E000E186E000E196EA8C01AF0A9C0A9
:104E80001BF0000E1D6EF00E1C6ECCEC28F0000E18
:104E9000086EF40E096E000E0A6E000E0B6EA8C0AE
:104EA0000CF0A9C00DF0000E0F6EF00E0E6EF6ECB9
:104EB0003AF0A8C014F0A9C015F0000E176EF00E5D
:104EC000166E1EEC3CF00001A56F12000001833548
:104ED0008435406E4050D8A40AD0000E0001816F86
:104EE000000E826F000E836F000E846F120081C06F
:104EF00085F082C086F083C087F084C088F0200EE1
:104F000006D00001D8908833873386338533E82E66
:104F1000F8D7000185513F6E0001838FFF0E00011D
:104F20008117FF0E8217FF0E8317000E8417960E4F
:104F3000405E40AE18D04050800A970FD8B00AD0DB
:104F4000000E0001816F000E826F000E836F000E55
:104F5000846F12000001D89084338333823381330D
:104F6000403EF8D717D01F0E406411D0000E00014C
:104F7000816F000E826F000E836F000E846F12002F
:104F80000001D890813782378337843740064050FC
:104F9000D8A4F6D73F50D8B409D00001841F831F8E
:104FA000821F816D000E82238323842381C081F0C0
:104FB00082C082F083C083F084C084F01200000EAF
:104FC00077EC44F0010E04EC44F051C026F0030EDF
:104FD000266401D01200200E086E000E096E9B0E92
:104FE0000A6EF30E0B6E8FEC3AF02650310F236EE3
:104FF000200E1C6E000E1D6E8BEC3BF0540E276EC7
:10500000000E286E200E086E000E096E7A0E0A6ED3
:10501000F30E0B6E8FEC3AF027C0D9FF28C0DAFFF1
:10502000DF50D8A40BD0200E086E000E096EF50ECE
:105030000A6EF30E0B6E8FEC3AF02FD027C0D9FF1B
:1050400028C0DAFFDE04D8A40BD0200E086E000EB4
:10505000096EC30E0A6EF30E0B6E8FEC3AF01DD084
:1050600027C0D9FF28C0DAFF020EDE18D8A40BD063
:10507000200E086E000E096EFA0E0A6EF30E0B6E0D
:105080008FEC3AF00AD0200E086E000E096EC80EA2
:105090000A6EF30E0B6E8FEC3AF0200E1C6E000EB3
:1050A0001D6E35EC42F0EDEC3BF0120020EE06F008
:1050B0000F50D9261050DA2201D80AD00500FA6E16
:1050C000DE50FD6EDE50FE6EF850FF6EFA5012009C
:1050D00020EE0AF00F50D9261050DA2201D811D054
:1050E0000500FA6EDE50FD6EDE50FE6EF850FF6E6B
:1050F000FA5020EE01F00F50D9261050DA22DF507E
:10510000120020EE0AF00F50D9261050DA2201D8F2
:105110000BD00500FA6EDE50FD6EDE50FE6EF850CC
:10512000FF6EFA501150120020EE0AF00F50D926EF
:105130001050DA2201D80BD00500FA6EDE50FD6E59
:10514000DE50FE6EF850FF6EFA501350120020EE43
:105150000AF00F50D9261050DA2201D80BD00500E2
:10516000FA6EDE50FD6EDE50FE6EF850FF6EFA50A5
:105170001250120020EE08F00F50D9261050DA22FB
:1051800001D812000500FA6EDE50FD6EDE50FE6E94
:10519000F850FF6EFA501200000E276E060E286EB1
:1051A000FF0E1614296E030E17142A6E1C502924A4
:1051B0001E6E1D502A201F6E1E04010E1F58D8B0EF
:1051C0001200000E1614226EFC0E1714236EFF0E32
:1051D0001814246EFF0E1914256E22C008F023C087
:1051E00009F024C00AF025C00BF027C00CF028C03D
:1051F0000DF0010E0F6E000E0E6EF6EC3AF0295017
:105200002724086E2A502820096E1AC00AF01BC0F5
:105210000BF01CC00CF01DC00DF06AEC40F022C079
:1052200009F023C00AF024C00BF025C00CF0B4EC48
:105230003DF0040E206E27C029F028C02AF029C0B6
:10524000E9FF2A50296E2A6A29C0EAFF000E216E62
:1052500013D0000E266E3F0E266401D006D0EECF8E
:10526000E8FFF56E0D00262AF6D70A00A6844FEC5B
:1052700045F0A6940D00212A2050215CD8B01200E0
:10528000E8D73EC221F03FC222F040C223F041C223
:1052900024F015C01DF016C01EF017C01FF018C076
:1052A00020F018AE3BD015C019F016C01AF017C088
:1052B0001BF018C01CF0191E1A1E1B1E1C1E192ADA
:1052C000000E1A221B221C2219C01DF01AC01EF04B
:1052D0001BC01FF01CC020F0010E246E1FD0232A1B
:1052E0001DC008F01EC009F01FC00AF020C00BF05E
:1052F0000A0E0C6E000E0D6E000E0E6E000E0F6E7E
:105300005EEC35F008C01DF009C01EF00AC01FF0A9
:105310000BC020F0020E236401D009D020501F10D2
:10532000DEE1100E1D5C270E1E58D8B0D8D72050D5
:105330001F1006E1100E1D5C270E1E58D8A008D0C5
:105340000F0E1D6E270E1E6E000E1F6E000E206EBD
:105350001DC021F01EC022F021C015F022C016F0A1
:1053600023C017F024C018F012002E6E600E526E8B
:10537000000E516E2EC050F025C04FF0000E2C6E66
:10538000050E2D6E2550D8A40FD02E50340D040ECE
:10539000F326000EF422F3502C24D96EF4502D2065
:1053A000DA6EDF50546E4AD0FC0E266EFF0E276E6A
:1053B0004F50286E296AD89028362936D89028363A
:1053C0002936D890283629362650282627502922D3
:1053D0005050340D040EF326000EF4222CC02AF097
:1053E0002DC02BF0F3502A26F4502B2228502A24CB
:1053F000D96E29502B20DA6EDECF2FF0DECF30F0C1
:10540000DECF31F0DECF32F02FC015F030C016F015
:1054100031C017F032C018F041EC29F015C02FF060
:1054200016C030F017C031F018C032F02FC0F8F0BD
:1054300030C0F9F031C0FAF032C0FBF0000E586E07
:1054400012002E6E500E526E000E516E2EC050F095
:1054500025C04FF0100E2C6E040E2D6E2550D8A4D2
:105460000FD02E50340D040EF326000EF422F3500C
:105470002C24D96EF4502D20DA6EDF50546E4AD0B1
:10548000FC0E266EFF0E276E4F50286E296AD890AC
:1054900028362936D89028362936D8902836293605
:1054A00026502826275029225050340D040EF3266A
:1054B000000EF4222CC02AF02DC02BF0F3502A2627
:1054C000F4502B2228502A24D96E29502B20DA6E32
:1054D000DECF2FF0DECF30F0DECF31F0DECF32F096
:1054E0002FC015F030C016F031C017F032C018F0E0
:1054F00041EC29F015C02FF016C030F017C031F084
:1055000018C032F02FC0F8F030C0F9F031C0FAF016
:1055100032C0FBF0000E586E12000D6E94969498F7
:105520008B9600F000F000F000F000F000F000F0CA
:1055300000F000F000F000F000F000F000F000F0EB
:1055400000F000F000F000F000F0000E0E6E070E0C
:105550000E6401D047D00DAE02D08B8801D08B985D
:1055600000F000F000F000F000F000F000F000F0BB
:1055700000F000F000F000F000F000F000F000F0AB
:1055800000F000F000F000F08B8600F000F000F07A
:1055900000F000F000F000F000F000F000F000F08B
:1055A00000F000F000F000F000F000F000F000F07B
:1055B00000F08B9600F000F000F000F000F000F03A
:1055C00000F000F000F000F000F000F000F000F05B
:1055D00000F000F000F000F000F000F0D8900D3680
:1055E0000E2AB5D7C2EC31F01200000E1D6E1BAEB4
:1055F0000AD01B1E1A1E191E186C000E19221A2220
:105600001B22010E1D6E17AE0AD0171E161E151E88
:10561000146C000E152216221722010E1D1A000E00
:105620001E6E000E1F6E000E206E000E216E1850B2
:1056300019101A101B10D8B42AD0010E1C6E06D0F7
:10564000D890183619361A361B361C2A1BAEF8D7D6
:10565000D8901E361F36203621361850145C19504B
:1056600015581A5016581B501758D8A009D0185062
:10567000145E1950155A1A50165A1B50175A1E808C
:10568000D8901B321A32193218321C2EE1D71D5015
:10569000D8B408D0211E201E1F1E1E6C000E1F2213
:1056A000202221221EC014F01FC015F020C016F0C9
:1056B00021C017F0120017C0D9FF18C0DAFFDECFE3
:1056C0001CF0DDCF1DF0030E196402D0030E196E1D
:1056D0001950DEEC3DF008C00DF009C00EF01CC002
:1056E0000BF01DC00CF007EC3EF00BC012F00CC02C
:1056F00013F0000E156E0A0E146EADEC40F012C0E1
:105700001AF013C01BF01950DEEC3DF008C00BF08E
:1057100009C00CF01AC00DF01BC00EF08AEC44F06A
:105720000B1E0C1E0B4A0C2A1C500B241C6E1D5009
:105730000C201D6E1A4A1B2A1B5004E10A0E1A5C2B
:10574000D8A004D0000E1B6E000E1A6E1950DEECAD
:105750003DF008C00BF009C00CF01AC00DF01BC0E2
:105760000EF08AEC44F00B501C260C501D2217C082
:10577000D9FF18C0DAFF1CC0DEFF1DC0DDFF12001C
:105780000001AC6F000E0001B16F030E0001B26F9B
:10579000F8C014F0F9C015F0FAC016F0FBC017F00D
:1057A0003BEC34F014C0ADF015C0AEF016C0AFF055
:1057B00017C0B0F0D89051300001B36F51A019D08C
:1057C0000001B3510C0D3C0EF326000EF422B1C0C3
:1057D000AAF0B2C0ABF0F3500001AA27F4500001C8
:1057E000AB23040E0001AA25D96E000E0001AB21E7
:1057F0000ED00001B3510C0D3C0EF326000EF42226
:10580000F3500001B125D96EF4500001B221DA6ED7
:10581000ADC0DEFFAEC0DEFFAFC0DEFFB0C0DEFF5A
:10582000EAEC26F00001AC510001D8B403D0CEEC74
:1058300040F01200512A070E516402D0000E516E42
:1058400051506FEC31F01200000E77EC44F0010E75
:1058500004EC44F0200E336E5050D8A402D0640EF5
:105860000AD05004D8A402D0630E05D0020E5018FE
:10587000D8A402D0470E346E4FC03DF03DC008F0B2
:10588000096A000E0B6E0A0E0A6E81EC39F00850A0
:10589000300F366E0A0E086E3D50AAEC41F03D6E98
:1058A0003DC008F0096A000E0B6E0A0E0A6E81EC0C
:1058B00039F00850300F356E000E376E4F50D8B4A7
:1058C0000DD0330E1F6E000E206EF80E216E000EEE
:1058D000226E58C023F06DEC19F01200370E086EDE
:1058E000000E096E7A0E0A6EF30E0B6E8FEC3AF014
:1058F00054C03DF03D50300F3A6E000E3B6E330EFB
:105900001C6E000E1D6EBCEC3BF0EDEC3BF012008B
:1059100089C008F08AC009F08BC00AF08CC00BF077
:10592000010E4BEC20F008C091F009C092F00AC0C3
:1059300093F00BC094F006C308F007C309F00A6A9D
:105940000B6A000E4BEC20F008C08DF009C08EF001
:105950000AC08FF00BC090F08DC01AF08EC01BF003
:105960008FC01CF090C01DF091C016F092C017F0CF
:1059700093C018F094C019F02FEC0DF016C02FF062
:1059800017C030F018C031F019C032F0000E336E7D
:10599000000E346E7A0E356E440E366E7DEC10F0CD
:1059A0002FC091F030C092F031C093F032C094F02B
:1059B00091C081F092C082F093C083F094C084F0D3
:1059C00066EC27F081C04EF282C04FF283C050F2E5
:1059D00084C051F21200100E5218D8A412002FD019
:1059E00025EC3AF012001AEC42F0120094EC36F07A
:1059F0001200000E256E000E21EC2AF01200000E9F
:105A0000256E000EB5EC29F01200000E04EC40F0FB
:105A10001200000E8AEC3DF01200000E6FEC31F027
:105A20001200000EA1EC33F01200000E71EC30F009
:105A30001200FFEC41F01200C6EC45F01200FCC071
:105A400033F0FDC034F03450000AD8A412003350B3
:105A5000060AD8B4DED7160AD8B4DFD7020AD8B4FB
:105A6000EBD7360AD8B4BCD71C0AD8B4BFD77A0A49
:105A7000D8B4B9D7C70AD8B4C8D70F0AD8B4D1D7C1
:105A8000010AD8B4D2D7230AD8B4B3D7010AD8B4FC
:105A9000B6D7150AD8A41200CCD7070E116ED00EB7
:105AA000106EB60E126E000E136E72EC3FF010C048
:105AB000B4F011C0B5F0D00E0001B45D070E0001C6
:105AC000B559D8A01FD0040E0001B619D8A403D030
:105AD00063EC2EF02CD0060E0001B619D8A403D02A
