:100000006EEF00F0AA00AA004082ACEF05F0AA0053
:10001000AA00AA00AA00AA004080D8CF0FF0E8CF1B
:1000200010F0E0CF11F0FACF12F0FBCF13F0E9CFD0
:1000300014F0EACF15F0E1CF16F0E2CF17F0D9CFE8
:1000400018F0DACF19F0F3CF1AF0F4CF1BF0F6CF97
:100050001CF0F7CF1DF0F8CF1EF0F5CF1FF09DB2CA
:100060009EA20ED09FB20CD09E92010E00017F275F
:10007000000E80238123822300018B812AEC13F060
:10008000A3B0A4A007D0A5B005D0A49000018B8395
:1000900070EC13F01FC0F5FF1EC0F8FF1DC0F7FF86
:1000A0001CC0F6FF1BC0F4FF1AC0F3FF19C0DAFF33
:1000B00018C0D9FF17C0E2FF16C0E1FF15C0EAFF64
:1000C00014C0E9FF13C0FBFF12C0FAFF11C0E0FF2C
:1000D00010C0E8FF0FC0D8FF40901000C3EF0CF035
:1000E0000001D36F310E0001D36501D01200000171
:1000F000D3510008310F0001D26F90D12E0E206E27
:10010000D1C021F0000E74EC06F012002E0E206E0D
:10011000D1C021F0010E74EC06F012002E0E206EFC
:10012000D1C021F0020E74EC06F012002E0E206EEB
:10013000D1C021F0030E74EC06F012002F0E206ED9
:10014000D1C021F0030E74EC06F012002F0E206EC9
:10015000D1C021F0020E74EC06F012002F0E206EBA
:10016000D1C021F0010E74EC06F012002F0E206EAB
:10017000D1C021F0000E74EC06F012001F0E206EAC
:10018000D1C021F0000E74EC06F012001F0E206E9C
:10019000D1C021F0010E74EC06F012001F0E206E8B
:1001A000D1C021F0020E74EC06F012001F0E206E7A
:1001B000D1C021F0030E74EC06F01200000E206E88
:1001C000D1C021F0030E74EC06F01200000E206E78
:1001D000D1C021F0020E74EC06F01200000E206E69
:1001E000D1C021F0010E74EC06F01200000E206E5A
:1001F000D1C021F0000E74EC06F01200010E206E4A
:10020000D1C021F0000E74EC06F01200010E206E39
:10021000D1C021F0010E74EC06F01200010E206E28
:10022000D1C021F0020E74EC06F01200010E206E17
:10023000D1C021F0030E74EC06F01200020E206E05
:10024000D1C021F0030E74EC06F01200020E206EF5
:10025000D1C021F0020E74EC06F01200020E206EE6
:10026000D1C021F0010E74EC06F01200020E206ED7
:10027000D1C021F0000E74EC06F01200030E206EC7
:10028000D1C021F0000E74EC06F01200030E206EB7
:10029000D1C021F0010E74EC06F01200030E206EA6
:1002A000D1C021F0020E74EC06F01200030E206E95
:1002B000D1C021F0030E74EC06F01200040E206E83
:1002C000D1C021F0030E74EC06F01200040E206E73
:1002D000D1C021F0020E74EC06F01200040E206E64
:1002E000D1C021F0010E74EC06F01200040E206E55
:1002F000D1C021F0000E74EC06F01200050E206E45
:10030000D1C021F0000E74EC06F01200050E206E34
:10031000D1C021F0010E74EC06F01200050E206E23
:10032000D1C021F0020E74EC06F01200050E206E12
:10033000D1C021F0030E74EC06F01200060E206E00
:10034000D1C021F0030E74EC06F01200060E206EF0
:10035000D1C021F0020E74EC06F01200060E206EE1
:10036000D1C021F0010E74EC06F01200060E206ED2
:10037000D1C021F0000E74EC06F01200070E206EC2
:10038000D1C021F0000E74EC06F01200070E206EB2
:10039000D1C021F0010E74EC06F01200070E206EA1
:1003A000D1C021F0020E74EC06F01200070E206E90
:1003B000D1C021F0030E74EC06F01200210E206E65
:1003C000D1C021F0030E74EC06F01200210E206E55
:1003D000D1C021F0020E74EC06F01200210E206E46
:1003E000D1C021F0010E74EC06F01200210E206E37
:1003F000D1C021F0000E74EC06F01200220E206E27
:10040000D1C021F0000E74EC06F01200220E206E16
:10041000D1C021F0010E74EC06F012000001D2519F
:10042000000AD8B46BD6010AD8B470D6030AD8B47F
:1004300075D6010AD8B47AD6070AD8B47FD6010A8D
:10044000D8B484D6030AD8B489D6010AD8B48ED6D3
:100450000F0AD8B493D6010AD8B498D6030AD8B4F0
:100460009DD6010AD8B4A2D6070AD8B4A7D6010AE5
:10047000D8B4ACD6030AD8B4B1D6010AD8B4B6D62B
:100480001F0AD8B4BBD6010AD8B4C0D6030AD8B460
:10049000C5D6010AD8B4CAD6070AD8B4CFD6010A3D
:1004A000D8B4D4D6030AD8B4D9D6010AD8B4DED683
:1004B0000F0AD8B4E3D6010AD8B4E8D6030AD8B4F0
:1004C000EDD6010AD8B4F2D6070AD8B4F7D6010A95
:1004D000D8B4FCD6030AD8B401D7010AD8B406D7D9
:1004E0003F0AD8B40BD7010AD8B410D7030AD8B43E
:1004F00015D7010AD8B41AD7070AD8B41FD7010AEA
:10050000D8B424D7030AD8B429D7010AD8B42ED72F
:100510000F0AD8B433D7010AD8B438D7030AD8B4ED
:100520003DD7010AD8B442D7070AD8B447D7010A41
:10053000D8B44CD7030AD8B451D7010AD8B456D787
:100540001F0AD8B45BD7010AD8A412005FD7000EE7
:100550000001CA6F000EC96F000120EE06F0C55100
:10056000D926C651DA2201D80AD00500FA6EDE502B
:10057000FD6EDE50FE6EF850FF6EFA501200000164
:1005800020EE0AF0C551D926C651DA2201D812D080
:100590000500FA6EDE50FD6EDE50FE6EF850FF6E06
:1005A000FA50000120EE01F0C551D926C651DA22D9
:1005B000DF501200000120EE0AF0C551D926C651C5
:1005C000DA2201D80CD00500FA6EDE50FD6EDE5046
:1005D000FE6EF850FF6EFA500001C7511200000184
:1005E00020EE08F0C551D926C651DA2201D80AD02A
:1005F0000500FA6EDE50FD6EDE50FE6EF850FF6EA6
:10060000FA501200000120EE06F0C551D926C6515D
:10061000DA2201D80AD00500FA6EDE50FD6EDE50F7
:10062000FE6EF850FF6EFA501200000120EE0AF044
:10063000C551D926C651DA2201D816D00500FA6E66
:10064000DE50FD6EDE50FE6EF850FF6EFA50000177
:1006500020EE01F0C551D926C651DA22DF50000143
:10066000C86F0001C8291200000120EE0EF0C5512C
:10067000D926C651DA2201D80BD00500FA6EDE5019
:10068000FD6EDE50FE6EF850FF6EFA50000E120046
:100690000001C86F0001C8510001C96FCA6B000199
:1006A000C951CA6FC96B000120EE0EF0C551D926A1
:1006B000C651DA2201D80BD00500FA6EDE50FD6E6D
:1006C000DE50FE6EF850FF6EFA50000E1200000170
:1006D000C86F0001C8510001C913000120EE08F0E5
:1006E000C551D926C651DA2201D80AD00500FA6EC2
:1006F000DE50FD6EDE50FE6EF850FF6EFA501200B6
:10070000C9C0C5F0CAC0C6F012000001CEBF0DD0EE
:10071000100E0001CD5D270E0001CE59D8A005D0E6
:10072000270E0001CE6F0F0ECD6FCDC0C3F0CEC02F
:10073000C4F0000E0001C66F0A0EC56FECEC09F0A4
:100740000C0E0001C325F66EFF0E0001C421F76EEA
:10075000000120EE03F0CB51D926CC51DA2208005B
:10076000F5CFDFFFCDC0C3F0CEC0C4F0000E000156
:10077000C66F0A0EC56FD4EC06F0C3C0CDF0C4C07E
:10078000CEF0CDC0C3F0CEC0C4F0000E0001C66FE5
:100790000A0EC56FECEC09F00C0E0001C325F66ED5
:1007A000FF0E0001C421F76E000120EE02F0CB51D4
:1007B000D926CC51DA220800F5CFDFFFCDC0C3F037
:1007C000CEC0C4F0000E0001C66F0A0EC56FD4EC97
:1007D00006F0C3C0CDF0C4C0CEF0CDC0C3F0CEC0D3
:1007E000C4F0000E0001C66F0A0EC56FECEC09F0F4
:1007F0000C0E0001C325F66EFF0E0001C421F76E3A
:10080000000120EE01F0CB51D926CC51DA220800AC
:10081000F5CFDFFFCDC0C3F0CEC0C4F0000E0001A5
:10082000C66F0A0EC56FD4EC06F0C3C0CDF0C4C0CD
:10083000CEF0CDC0C3F0CEC0C4F0000E0001C66F34
:100840000A0EC56FECEC09F00C0E0001C325F66E24
:10085000FF0E0001C421F76ECBC0D9FFCCC0DAFF78
:100860000800F5CFDFFF120087C0DCF088C0DDF0A4
:1008700089C0DEF08AC0DFF0D0C0D8F0D1C0D9F096
:10088000D2C0DAF0D3C0DBF00001D3AF40D0D0C08B
:10089000D4F0D1C0D5F0D2C0D6F0D3C0D7F000018B
:1008A000D41FD51FD61FD71FD42B000ED523D62378
:1008B000D723D4C0D8F0D5C0D9F0D6C0DAF0D7C08D
:1008C000DBF0010E0001DF6F22D00001DE2BD8C06B
:1008D000C3F0D9C0C4F0DAC0C5F0DBC0C6F00A0E60
:1008E0000001C76F000EC86F000EC96F000ECA6FFF
:1008F00092EC07F0C3C0D8F0C4C0D9F0C5C0DAF09C
:10090000C6C0DBF0030E0001DE19D8B40DD0000123
:10091000DB510001DA11D9E1100E0001D85D270E7C
:100920000001D959D8B0D1D70001DB510001DA114B
:1009300008E1100E0001D85D270E0001D959D8A09A
:1009400009D00F0E0001D86F270ED96F000EDA6F95
:10095000000EDB6FD8C0DCF0D9C0DDF0DCC0D0F019
:10096000DDC0D1F0DEC0D2F0DFC0D3F01200000154
:1009700020EE06F0C551D926C651DA2201D80AD098
:100980000500FA6EDE50FD6EDE50FE6EF850FF6E12
:10099000FA501200000120EE0AF0C551D926C651C6
:1009A000DA2201D812D00500FA6EDE50FD6EDE505C
:1009B000FE6EF850FF6EFA50000120EE01F0C551B6
:1009C000D926C651DA22DF501200000120EE0AF0CB
:1009D000C551D926C651DA2201D80CD00500FA6ECD
:1009E000DE50FD6EDE50FE6EF850FF6EFA500001D4
:1009F000C7511200000120EE0AF0C551D926C65198
:100A0000DA2201D80CD00500FA6EDE50FD6EDE5001
:100A1000FE6EF850FF6EFA500001C951120000013D
:100A200020EE0AF0C551D926C651DA2201D80CD0E1
:100A30000500FA6EDE50FD6EDE50FE6EF850FF6E61
:100A4000FA500001C8511200000120EE08F0C55113
:100A5000D926C651DA2201D812000500FA6EDE50FE
:100A6000FD6EDE50FE6EF850FF6EFA501200D0C0E0
:100A7000D9FFD1C0DAFFDECFD5F0DDCFD6F000014F
:100A8000D251A4EC0FF020C0C6F021C0C7F0D5C0F1
:100A9000C4F0D6C0C5F087EC0CF0C4C0CBF0C5C024
:100AA000CCF0000E0001CE6F0A0ECD6F03EC0EF0FD
:100AB000CBC0D3F0CCC0D4F00001D251A4EC0FF0E5
:100AC00020C0C4F021C0C5F0D3C0C6F0D4C0C7F068
:100AD0005FEC11F00001C41F0001C51F0001C44BF1
:100AE000C52B0001D5510001C4250001D56F0001BF
:100AF000D6510001C5210001D66F0001D34BD42B84
:100B00000001D45105E10A0E0001D35DD8A005D043
:100B1000000E0001D46F000ED36F0001D251A4EC7F
:100B20000FF020C0C4F021C0C5F0D3C0C6F0D4C0BF
:100B3000C7F05FEC11F00001C4510001D52700019E
:100B4000C5510001D623D0C0D9FFD1C0DAFFD5C02E
:100B5000DEFFD6C0DDFF1200FACF01F0FBCF02F0BE
:100B6000E9CF03F0EACF04F0E1CF05F0E2CF06F0E1
:100B7000D9CF07F0DACF08F0F3CF09F0F4CF0AF0BD
:100B8000F6CF0BF0F7CF0CF0F8CF0DF0F5CF0EF05D
:100B9000F2BAF2A402D0F1B400F0F2BC9DA801D0E8
:100BA0009E50F2BC9DAA01D09E50F2BC9DA001D0E7
:100BB0009E509DB29EA20ED09FA20CD09E92010E7E
:100BC00000017F27000E80238123822300018B8177
:100BD00036EC13F0A3B0A4A007D0A5A005D0A49034
:100BE00000018B8371EC13F00EC0F5FF0DC0F8FF10
:100BF0000CC0F7FF0BC0F6FF0AC0F4FF09C0F3FFFB
:100C000008C0DAFF07C0D9FF06C0E2FF05C0E1FF58
:100C100004C0EAFF03C0E9FF02C0FBFF01C0FAFF06
:100C20004092110000F04AEC13F0F70E206E000E17
:100C3000216EF0EC07F05AEC13F06CEC12F09D0E04
:100C40000001CA6F000E0001CB6FADEC12F08D0EEB
:100C50000001C56F000E0001C66F010E0001C76FD5
:100C6000A7EC02F0C5C0ECF0C6C0EDF0000E216E9E
:100C7000640E206E83EC12F09D0E0001CB6F000E0F
:100C80000001CC6F1BEC10F0CBC0ECF0CCC0EDF051
:100C9000F9EC12F0030E9DEC0DF0C5C0ECF0C6C0EF
:100CA000EDF00A0E52EC09F03C0EC1EC0EF09398F8
:100CB0008A8800F000018BA306D000018B9300F01E
:100CC000A7EC08F000F000018BA103D000018B918C
:100CD00000F0EFEC0EF000018C6F00018C51D8B4E5
:100CE000E9D746EC0CF0E6D70001CE6F030E000109
:100CF000CE6501D012002F0E206401D0120020C05A
:100D0000C3F00001C46B000E0001C66F080EC56F72
:100D1000D4EC06F00001CE51060DF3500001C325BE
:100D20000001CF6F2050070B0001D06F2150D8B4C5
:100D30001BD0D0C0CBF0010E0001CC6F0001CB2B3B
:100D400003D00001D890CC370001CB2FFAD7000197
:100D5000CF51010D600EF324D96E000EF420DA6E2F
:100D60000001CC51DF121200D0C0CBF0010E000107
:100D7000CC6F0001CB2B03D00001D890CC37000101
:100D8000CB2FFAD70001CC51FF0A0001CD6F000133
:100D9000CF51010D600EF324D96E000EF420DA6EEF
:100DA0000001CD51DF161200000E0001C86F0001D6
:100DB000C6AF08D00001C56DC61FD8B0C62B010E46
:100DC0000001C86F0001C4AF08D00001C36DC41F8B
:100DD000D8B0C42B010E0001C81B000E0001CA6F61
:100DE000000EC96F0001C5510001C611D8B42CD046
:100DF000010E0001C76F06D00001D890C537C63775
:100E00000001C72B0001C6AFF7D70001D890C93742
:100E1000CA370001C5510001C35D0001C651000180
:100E2000C459D8A00AD00001C5510001C35F000118
:100E3000C6510001C45B0001C9810001D890C633CE
:100E4000C5330001C72FE1D70001C8510001D8B454
:100E500005D00001C96DCA1FD8B0CA2BC9C0C3F0E4
:100E6000CAC0C4F01200100E3C18D8A412002AD038
:100E7000200E3C6E94EC11F01200300E3C6E55ECDE
:100E800012F01200400E3C6ECFEC0FF01200500E2C
:100E90003C6E1200600E3C6E1200700E3C6E120032
:100EA000800E3C6E1200900E3C6E1200A00E3C6E46
:100EB0001200B00E3C6E1200C00E3C6E1200F00E1E
:100EC0003C6E12003DC0E0F03EC0E1F00001E15197
:100ED000000AD8A412000001E051060AD8B4E0D7F5
:100EE000160AD8B4E0D7020AD8B4E9D7360AD8B47B
:100EF000BFD71C0AD8B4C6D77A0AD8B4BED7C70A97
:100F0000D8B4CBD70F0AD8B4D1D7010AD8B4D1D727
:100F1000230AD8B4BCD7010AD8B4BCD7150AD8A4C0
:100F20001200CAD7000E0001CB6F000ECC6F000E6E
:100F3000CD6F000ECE6F0001C7510001C811000136
:100F4000C9110001CA11D8B442D0010E0001CF6FFF
:100F500008D00001D890C737C837C937CA37000151
:100F6000CF2B0001CAAFF5D70001D890CB37CC37D3
:100F7000CD37CE370001C7510001C35D0001C85114
:100F80000001C4590001C9510001C5590001CA51ED
:100F90000001C659D8A012D00001C7510001C35F9B
:100FA0000001C8510001C45B0001C9510001C55BCB
:100FB0000001CA510001C65B0001CB810001D8903D
:100FC000CA33C933C833C7330001CF2FCDD7CBC005
:100FD000C3F0CCC0C4F0CDC0C5F0CEC0C6F0120086
:100FE00020C0C3F021C0C4F061EC13F0FC0E0F016F
:100FF0005F17000120EE05F0C351D926C451DA2253
:10100000DF500F015C6F000120EE04F0C351D926C0
:10101000C451DA22DF500F015D6F0F015F51FC0BED
:1010200001095F6F000120EE03F0C351D926C451BE
:10103000DA22DF500F015C6F000120EE06F0C35191
:10104000D926C451DA22DF500F015D6F0F015F51C5
:10105000FC0B02095F6F000120EE02F0C351D9269C
:10106000C451DA22DF500F015C6F000120EE01F065
:10107000C351D926C451DA22DF500F015D6F030E30
:101080000F015F13C3C0D9FFC4C0DAFFDF500F01E7
:101090005C6F67EC13F012004AEC0FF0100E0001C9
:1010A000DA5D270E0001DB59D8A005D0270E00011C
:1010B000DB6F0F0EDA6FDF0E0001C36F000E000151
:1010C000C46FD8C0C5F0D9C0C6F060EC10F0E30E14
:1010D0000001CB6F000E0001CC6FDAC0CDF0DBC099
:1010E000CEF085EC03F0DF0E0001C36F000E0001AF
:1010F000C46F080E0001C56F63EC0EF0030E000113
:10110000DC6503D0030E0001DC6F0F015FB714D064
:101110000001DC510001DD6FDE6B040E0001DD27F4
:10112000000EDE23DF0E0001DD25D96E000E00016A
:10113000DE21DA6E200EDF6EDF0E0001D56F000EAD
:101140000001D66FFAEC0CF0D2EC0DF012000F019A
:101150005FA707D0000E0001D26F010E31EC0DF039
:1011600049D0A3EC10F07BC0E2F0D80E0001C36FB1
:10117000000E0001C46FE2C0C5F01DEC0FF07CC092
:10118000E2F0DA0E0001C36F000E0001C46FE2C08E
:10119000C5F01DEC0FF079C0E2F0DC0E0001C36F6A
:1011A000000E0001C46FE2C0C5F01DEC0FF07AC064
:1011B000E2F0DE0E0001C36F000E0001C46FE2C05A
:1011C000C5F01DEC0FF0000E0001E06FD80E00011D
:1011D000D56F000E0001D66FFAEC0CF0010E000185
:1011E000D26F010E31EC0DF0010E0001D26F050E31
:1011F00031EC0DF03C0EC1EC0EF0D2EC0DF0120013
:10120000C3C0D9FFC4C0DAFF050EDF6E000120EEB7
:1012100001F0C351D926C451DA22C5C0DFFF000155
:1012200020EE02F0C351D926C451DA22830EDE6EBD
:10123000850EDD6E000120EE06F0C351D926C451A3
:10124000DA22080EDE6E220EDD6E000120EE08F0BE
:10125000C351D926C451DA22820EDE6E220EDD6E13
:10126000000120EE0AF0C351D926C451DA22CE0E75
:10127000DE6E1A0EDD6E000120EE0CF0C351D92691
:10128000C451DA22240EDE6E1D0EDD6E000120EE4A
:101290000EF0C351D926C451DA22160EDE6E260E88
:1012A000DD6E12000001DE6F20EEEEF010EED8F0E1
:1012B000050EDBCFE3FFE806FCE2000EC2EC12F005
:1012C000ED0E0001D56FFF0E0001D66F3EEC10F061
:1012D000010EE2EC11F0DEC0DFF00001DF51000191
:1012E000D8A428D0010E0001DF6F24D0D90E000150
:1012F000C36F000E0001C46F0001DF050001C56F60
:101300001DEC0FF0000E0001DC6FD80E0001D56F50
:10131000000E0001D66F82EC10F03C0EC1EC0EF016
:10132000D2EC0DF0030E216EE80E206E83EC12F06D
:101330000001DF070001DF510001D8B41200D6D749
:101340000001D36F0001D25134EC0EF00001D46FD4
:1013500028D00001D45104EC0CF012000001D4514B
:10136000C2EC0BF012000001D45180EC0BF0120023
:101370000001D4513EEC0BF012000001D451FCEC02
:101380000AF012000001D451BAEC0AF01200000178
:10139000D45178EC0AF012000001D45136EC0AF076
:1013A00012000001D351000AD8B4D3D7010AD8B42F
:1013B000D5D7030AD8B4D7D7010AD8B4D9D7070AE2
:1013C000D8B4DBD7010AD8B4DDD7030AD8B4DFD745
:1013D000010AD8A41200E0D7000E216E0001C4AFAC
:1013E00007D00001C36DC41FD8B0C42B010E216EFD
:1013F0000001C6AF05D00001C56DC61FD8B0C62B11
:101400000001C5510001C611D8B423D0010E206ED1
:1014100005D00001D890C537C637202A0001C6AFD5
:10142000F8D70001C5510001C35D0001C65100019C
:10143000C459D8A008D00001C5510001C35F000104
:10144000C6510001C45B0001D890C633C533202EBD
:10145000E8D72150D8B405D00001C36DC41FD8B05F
:10146000C42BC3C0C3F0C4C0C4F012000001D16FCC
:10147000130E206E0001D151080B216E000E74EC8A
:1014800006F0130E206E0001D151100B216E010EDB
:1014900074EC06F0130E206E0001D151200B216E6A
:1014A000020E74EC06F0130E206E0001D151010BF8
:1014B000216E030E74EC06F0280E206E0001D1514F
:1014C000040B216E010E74EC06F0280E206E000154
:1014D000D151400B216E020E74EC06F0280E206EE6
:1014E0000001D151020B216E030E74EC06F01200C4
:1014F0000001D16F0E0E206E0001D151080B216E3C
:10150000000E74EC06F00E0E206E0001D151100B8F
:10151000216E010E74EC06F00E0E206E0001D1510A
:10152000200B216E020E74EC06F00E0E206E0001F0
:10153000D151010B216E030E74EC06F00F0E206EDC
:101540000001D151040B216E010E74EC06F00F0E58
:10155000206E0001D151400B216E020E74EC06F09A
:101560000F0E206E0001D151020B216E030E74ECA0
:1015700006F012000001D16F260E206E0001D1513D
:10158000080B216E000E74EC06F0260E206E000192
:10159000D151100B216E010E74EC06F0260E206E58
:1015A0000001D151200B216E020E74EC06F0260EC4
:1015B000206E0001D151010B216E030E74EC06F078
:1015C000270E206E0001D151040B216E010E74EC28
:1015D00006F0270E206E0001D151400B216E020E45
:1015E00074EC06F0270E206E0001D151020B216E23
:1015F000030E74EC06F012000001D16F240E206E71
:101600000001D151080B216E000E74EC06F0240E7F
:10161000206E0001D151100B216E010E74EC06F00A
:10162000240E206E0001D151200B216E020E74ECAD
:1016300006F0240E206E0001D151010B216E030E25
:1016400074EC06F0250E206E0001D151040B216EC2
:10165000010E74EC06F0250E206E0001D151400BF6
:10166000216E020E74EC06F0250E206E0001D151A1
:10167000020B216E030E74EC06F012000001D16F14
:101680002B0E206E0001D151010B216E000E74EC67
:1016900006F02B0E206E0001D151200B216E010EA1
:1016A00074EC06F02B0E206E0001D151100B216E50
:1016B000020E74EC06F02B0E206E0001D151080BC7
:1016C000216E030E74EC06F02A0E206E0001D1513B
:1016D000020B216E000E74EC06F02A0E206E000143
:1016E000D151400B216E010E74EC06F02A0E206ED3
:1016F0000001D151040B216E020E74EC06F01200B1
:101700000001D16F150E206E0001D151010B216E29
:10171000000E74EC06F0150E206E0001D151200B66
:10172000216E010E74EC06F0150E206E0001D151F1
:10173000100B216E020E74EC06F0150E206E0001E7
:10174000D151080B216E030E74EC06F0140E206EBE
:101750000001D151020B216E000E74EC06F0140E44
:10176000206E0001D151400B216E010E74EC06F089
:10177000140E206E0001D151040B216E020E74EC88
:1017800006F012000001D16F170E206E0001D1513A
:10179000010B216E000E74EC06F0170E206E000196
:1017A000D151200B216E010E74EC06F0170E206E45
:1017B0000001D151100B216E020E74EC06F0170ED1
:1017C000206E0001D151080B216E030E74EC06F05F
:1017D000160E206E0001D151020B216E000E74EC2A
:1017E00006F0160E206E0001D151400B216E010E45
:1017F00074EC06F0160E206E0001D151040B216E20
:10180000020E74EC06F012000001D16F190E206E6A
:101810000001D151010B216E000E74EC06F0190E7F
:10182000206E0001D151200B216E010E74EC06F0E8
:10183000190E206E0001D151100B216E020E74ECB6
:1018400006F0190E206E0001D151080B216E030E17
:1018500074EC06F0180E206E0001D151020B216EBF
:10186000000E74EC06F0180E206E0001D151400BF2
:10187000216E010E74EC06F0180E206E0001D1519D
:10188000040B216E020E74EC06F01200070E00012C
:10189000CA6FD00EC96FEB0E0001CB6F000E0001B6
:1018A000CC6FC4EC10F0C9C0E9F0CAC0EAF0D00EA9
:1018B0000001E95D070E0001EA59D8A010D0040E1E
:1018C0000001EB19D8A403D06FEC13F01DD0050E66
:1018D00000018C19D8A418D033EC07F015D0000102
:1018E0008C05D8A403D023EC11F00ED0020E000119
:1018F0008C19D8A403D07AEC11F006D0040E0001A4
:101900008C19D8B498EC12F0D5EC12F01200000E3D
:101910000001CA6F000EC96F0001C6510001C71156
:10192000D8B42CD0010E0001C86F06D00001D890A9
:10193000C637C7370001C82B0001C7AFF7D7000172
:10194000D890C937CA370001C6510001C45D0001F3
:10195000C7510001C559D8A00AD00001C6510001E5
:10196000C45F0001C7510001C55B0001C9810001CE
:10197000D890C733C6330001C82FE1D7C9C0C4F01F
:10198000CAC0C5F01200840EF66E260EF76E000E69
:10199000F86E00EEEEF010EE10F00900F5CFEEFF5D
:1019A000E550E150FAE102EE00F011EE00F0EE6ACF
:1019B000E550E150FCE1E250FAE101EE00F011EEF9
:1019C00000F0EE6AE550E150FCE1E250FAE100EE91
:1019D00060F0630EEE6AE806FDE100EE22F01E0EF6
:1019E000EE6AE806FDE140904092000EF86E0001BC
:1019F00012EF06F0000E0001D76F1BD0D5C0F6FF26
:101A0000D6C0F7FFF86A0F0EF76403D00800F55050
:101A100005D0F6CFE9FFF7CFEAFFEF500001D26F14
:101A20000001D751A0EC09F00001D54BD62B0001E5
:101A3000D72BD5C0F6FFD6C0F7FFF86A0F0EF764B4
:101A400003D00800F55005D0F6CFE9FFF7CFEAFF45
:101A5000EF500009D8B41200070E0001D765CED7A9
:101A600012000001D36F1ED00001D2513EEC12F0E3
:101A700012000001D25127EC12F012000001D251E5
:101A800010EC12F012000001D2513EEC12F01200E4
:101A90000001D25127EC12F012000001D25110ECDB
:101AA00012F012000001D351000AD8B4DDD7010AA8
:101AB000D8B4DFD7030AD8B4E1D7060AD8B4E3D73D
:101AC000010AD8B4E5D7030AD8A41200E6D700016A
:101AD000C36F949694988B96000E0001C46F070E06
:101AE0000001C46501D026D00001C3AF02D08B88AD
:101AF00001D08B988B8600F000F000F000F000F031
:101B000000F000F000F000F000F000F000F08B9624
:101B100000F000F000F000F000F000F000F000F045
:101B200000F000F000F000F00001D890C337000191
:101B3000C42BD5D792EC0EF012000001C86F000E36
:101B40000001CA6F000EC96FC280C8C0C7F0000193
:101B5000C747C747C2500001C719C30BC719C26E98
:101B6000000E216E020E206EC8EC11F0C28201D070
:101B700000F0C2B2FDD7C4CFC9F00001CA6B0001AA
:101B8000C951CA6FC96BC3500001C913000E216E41
:101B9000020E206EC8EC11F0C290C9C0C5F0CAC0D8
:101BA000C6F0120060C0BBFF61C0BCFF62C0BDFFD9
:101BB00063C0BEFF64C0BFFF65C06BFF66C06CFF43
:101BC00067C06DFF68C06EFF69C06FFF6AC070FFBD
:101BD0006BC071FF6CC072FF6DC073FF6EC074FF8D
:101BE0006FC075FF70C076FF71C077FF72C078FF5D
:101BF00073C079FF74C07AFF75C07BFF76C07CFF2D
:101C000077C07DFF12000001CD510001CE11D8B484
:101C100026D0010E0001CF6F06D00001D890CD373D
:101C2000CE370001CF2B0001CEAFF7D70001CD5149
:101C30000001CB5D0001CE510001CC59D8A008D0E5
:101C40000001CD510001CB5F0001CE510001CC5B02
:101C50000001D890CE33CD330001CF2FE7D7CBC0D2
:101C6000CBF0CCC0CCF012000001C36F000E00011D
:101C7000C56F280E0001C56501D012D00001C55105
:101C8000010DBB0EF324F66EFE0EF420F76E080075
:101C9000F5500001C319D8B403D00001C52BE9D712
:101CA000290E0001C5610CD00001C551010DE40EE3
:101CB000F324F66EFE0EF420F76E0800F5CFC4F0A4
:101CC0000001C4511200000E206E1AD02050010DE8
:101CD000F3500001C325D96EF4500001C421DA6E1F
:101CE000DF50D8A40CD02050010DF3500001C325C3
:101CF000D96EF4500001C421DA6E200EDF6E202A66
:101D00000001C551205CD8A0E1D72050010DF3504F
:101D10000001C325D96EF4500001C421DA6E000E13
:101D2000DF6E1200C80E206E949694888B9600F099
:101D300000F000F000F000F000F000F000F000F023
:101D400000F000F000F08B8600F000F000F000F0F2
:101D500000F000F000F000F000F000F000F000F003
:101D600002D082A804D020062028D8A4FAD7205078
:101D7000D8A404D041EC11F0000E12008B96010E95
:101D800012000001D46F620E0001D46503D0630E0F
:101D90000001D46F0001D890D433000E0001D56F3C
:101DA00009D0010E0001D16F0001D55170EC00F097
:101DB0000001D52B0001D4510001D55DD8A0F1D789
:101DC000310E0001D56501D01200000E0001D16F67
:101DD0000001D55170EC00F00001D52BF1D7000EB9
:101DE0000001C76F0001C8690E0E931281500E0BDF
:101DF0000001C86F0001C8510E0B0E0AD8B41AD0EA
:101E0000000E0001C66F0A0EC56FE7EC12F081509C
:101E10000E0B0001C86F0001C8B702D00001C781D6
:101E20000001C8B502D00001C7830001C8B302D0C9
:101E30000001C7850001C7511200C5C020F0203A3B
:101E40000F0E20160F0E20162050010D0C0EF3243D
:101E5000F66EFF0EF420F76EC3C0D9FFC4C0DAFFE0
:101E60000800F5CFDFFFC5C020F00F0E2016205070
:101E7000010D0C0EF324F66EFF0EF420F76E000138
:101E800020EE01F0C351D926C451DA220800F5CF63
:101E9000DFFF1200E40E0001D56FFF0E0001D66FC8
:101EA000FAEC0CF0000E0001D26F000E31EC0DF0D8
:101EB000000E0001D26F010E31EC0DF0000E00019A
:101EC000D26F020E31EC0DF0000E0001D26F040E45
:101ED00031EC0DF0000E0001D26F050E31EC0DF06B
:101EE000000E0001D26F060E31EC0DF01200000E54
:101EF000206E94969488000E216E070E216401D006
:101F000020D0D89020368B9600F000F000F000F042
:101F100000F000F000F000F000F000F000F000F041
:101F20008B8600F000F000F000F000F000F000F010
:101F300000F000F000F000F000F082B82080212ACC
:101F4000DCD78B96205012000001C36F19D0000E11
:101F5000216E010E206E1200000E216E0A0E206E00
:101F60001200000E216E640E206E1200030E216E10
:101F7000E80E206E1200270E216E100E206E120049
:101F80000001C351000AD8B4E2D7020AD8B4E4D79A
:101F9000010AD8B4E6D7070AD8B4E8D7ECD7000EC0
:101FA000206EF40E216E20EE10F02050D926215024
:101FB000DA22DECF2DF0DECF2EF0DECF2FF0DECF17
:101FC00030F02DC0D0F02EC0D1F02FC0D2F030C0F4
:101FD000D3F034EC04F0D0C02DF0D1C02EF0D2C03C
:101FE0002FF0D3C030F0000E3F6E1200206E94969A
:101FF00094988B962050D8B402D08B8801D08B98BF
:1020000000F000F000F000F000F000F000F000F050
:1020100000F000F000F000F08B8600F000F000F01F
:1020200000F000F000F000F000F000F000F000F030
:1020300000F08B961200CBC0C5F0CCC0C6F0000EED
:102040000001C76FA7EC02F0C5C0CEF0C6C0CFF04C
:10205000CBC0D9FFCCC0DAFF030EDF600AD000018D
:10206000CE3BCF3B0F0ECE17CF51F00BCE130F0E42
:10207000CF17CEC0CBF0CFC0CCF01200000E0001C5
:10208000D76F10D0D5C0F6FFD6C0F7FF0800F5CF48
:10209000D2F00001D751A0EC09F00001D54BD62BAE
:1020A0000001D72BD5C0F6FFD6C0F7FF0800F550CA
:1020B0000009D8B41200030E0001D765E3D712005F
:1020C00011D0C5C0F6FFC6C0F7FFC3C0D9FFC4C05A
:1020D000DAFF0800F5CFDFFF0001C54BC62B00017A
:1020E000C34BC42BC5C0F6FFC6C0F7FF0800F550B0
:1020F0000009D8A4E6D7C3C0D9FFC4C0DAFF000ED8
:10210000DF6E1200000E0001D76F11D0D5C0D9FFCD
:10211000D6C0DAFFDF500001D26F0001D751040FA3
:10212000A0EC09F00001D54BD62B0001D72BD5C070
:10213000D9FFD6C0DAFFDF50D8B41200030E000179
:10214000D765E4D71200030E0F015F135CCF78F060
:102150005DCF20F00F015F51FC0B02095F6F5CCF78
:102160007AF05DCF79F00F015F51FC0B01095F6FD1
:102170005CCF7BF05DCF7EF0FC0E0F015F175CCF74
:102180007DF05DCF7CF01200000E366E000E356ED5
:1021900009D0EFEC0EF00001CD6F0001CD51000130
:1021A000D8B408D00001C951355C0001CA51365875
:1021B000D8A0EFD7CBC0D9FFCCC0DAFFCDC0DFFFAE
:1021C00035C0C9F036C0CAF012000F0154950F0196
:1021D00054830F015F950F015A690F015B8F0F0147
:1021E0005B8D0F015B955B975B995B9B00F061ECEE
:1021F00013F00F015F8F67EC13F000F0A580A4903F
:10220000A380CD8600F01200949694988B888B86DC
:1022100000F000F000F000F000F000F000F000F03E
:1022200000F000F000F000F08B9800F000F000F0FB
:1022300000F000F000F000F000F000F000F000F01E
:1022400000F08B9612000FD03F0E0001C36F000EFE
:102250000001C46F000E0001C56F030E0001C66FC0
:10226000AEEC11F012003C50000AD8B41200010A82
:10227000D8B41200030AD8B41200120AD8A412006B
:10228000E3D7949694988B9800F000F000F000F05B
:1022900000F000F000F000F000F000F000F000F0BE
:1022A0008B8600F000F000F000F000F000F000F08D
:1022B00000F000F000F000F000F08B881200000148
:1022C000C4510001C603F3CFC8F0F4CFC9F0000138
:1022D000C4510001C703F3500001C9270001C551D3
:1022E0000001C603F3500001C927C8C0C4F0C9C02B
:1022F000C5F012000BD03D0E0001D06F000E0001A2
:10230000D16F3FC0D2F037EC05F012003C50000A0C
:10231000D8B41200010AD8B41200030AD8B41200CB
:10232000120AD8A41200E7D7000E0001C36FF40E02
:102330000001C46F000120EE06F0C351D926C4513C
:10234000DA22DECF20F0DDCF21F020C02DF021C039
:102350002EF02F6A306A000E3F6E1200C3C0D9FF04
:10236000C4C0DAFFDF50206E0001C6510001C55D18
:10237000D8A01200202A20500001C65DD8A0C5C0F8
:1023800020F0C3C0D9FFC4C0DAFF20C0DFFF1200B5
:10239000000E0001C46F000EC36F0BD000F000F000
:1023A00000F000F000F000F000F000F00001C34B7E
:1023B000C42B20500001C35D21500001C459D8B086
:1023C0001200ECD70001D16F0001D1510001D8B447
:1023D00008D00D0E206E010E216E020E74EC06F078
:1023E00012000D0E206E000E216E020E74EC06F02F
:1023F00012003F0ED26EAA9EAA9CAA96AA84AA9206
:10240000AA90A968E00EB66EF80EB76EC30EB86E4D
:10241000FE0EB96ECF0EBA6E000EC2EC12F01200B4
:102420000001D16F0001D1510001D8B408D0140EC1
:10243000206E800E216E030E74EC06F01200140E56
:10244000206E000E216E030E74EC06F012000001E7
:10245000D16F0001D1510001D8B408D0160E206E02
:10246000800E216E030E74EC06F01200160E206E24
:10247000000E216E030E74EC06F012000001D16F05
:102480000001D1510001D8B408D0180E206E800E82
:10249000216E030E74EC06F01200180E206E000E72
:1024A000216E030E74EC06F01200000E0001C36FE3
:1024B000F40E0001C46F000120EE04F0C351D926D0
:1024C000C451DA22DF50206E20502D6E2E6A2F6A02
:1024D000306A000E3F6E12009D0E0001C36F000EA9
:1024E0000001C46F900E0001C56F00EC09F08D0E65
:1024F0000001C36F000E0001C46F920E0001C56F92
:1025000000EC09F01200000E326E000E316E010E6A
:10251000376E01D000F02050315C21503258D8A0E5
:10252000F9D7000E376E000E326E000E316E1200BB
:1025300009D0000E3E6E000E3D6E000E3F6E100E76
:102540003C6E12003C50000AD8B4F3D7010AD8B44C
:10255000F0D7030AD8A41200ECD7CAC0C5F0CBC08C
:10256000C6F0010E0001C76F000120EE02F0CA5153
:10257000D926CB51DA22DECFC8F0DDCFC9F0B7ECD7
:1025800004F01200206E000E216E170E216401D09F
:1025900012002150010D600EF324D96E000EF420BC
:1025A000DA6E20C0DFFF212AF0D703D01BEC13F036
:1025B00012003C50000AD8B41200010AD8B412002C
:1025C000030AD8B41200120AD8A41200EFD70AD016
:1025D000030E216EE80E206EC8EC11F00001C50755
:1025E000D8A0C6070001C5510001C611D8B4120019
:1025F000EFD70D0EC16EC08EC086C088C08AC08065
:10260000C082C084C28EC250C30B0C09C26E9E9C95
:102610009D9C9F9C12000001C36F000E0001C46FBF
:1026200077EC0FF00001C46F0001C351F6EC0FF01E
:102630000001C4511200F20E0001D86FFF0E00011C
:10264000D96F3DC0DAF03EC0DBF03FC0DCF04CECAF
:1026500008F012003750D8B404D00A0E3126000E0C
:1026600032220A0E3526000E362212003750D8B418
:1026700004D00A0E3126000E32220A0E3526000E34
:10268000362212002D30302D000000F400170731E3
:102690002355550252EC13F0E5EC10F0F28CF28E5B
:1026A000D09E12006C0ECB6E9F829E929D827F0EFA
:1026B000CA6E1200F9EC11F06DEC13F08F0EA86EDB
:1026C0001200550EA76EAA0EA76E5F8B1200550E54
:1026D000A76EAA0EA76E5F9B1200988812001200C8
:1026E00012001200AA00AA00AA00AA00AA00AA00CA
:1026F000AA00AA00AA00AA00AA00AA00AA00AA008A
:10270000AA00AA00AA00AA00AA00AA00AA00AA0079
:10271000AA00AA00AA00AA00AA00AA00AA00AA0069
:10272000AA00AA00AA00AA00AA00AA00AA00AA0059
:10FCB000AA00AA00AA00AA00AA000000C0C101C3AD
:10FCC0000302C2C60607C705C5C404CC0C0DCD0F80
:10FCD000CFCE0E0ACACB0BC90908C8D81819D91B30
:10FCE000DBDA1A1EDEDF1FDD1D1CDC14D4D515D7B0
:10FCF0001716D6D21213D311D1D010F03031F13300
:10FD0000F3F23236F6F737F53534F43CFCFD3DFFBF
:10FD10003F3EFEFA3A3BFB39F9F83828E8E929EB8F
:10FD20002B2AEAEE2E2FEF2DEDEC2CE42425E527EF
:10FD3000E7E62622E2E323E12120E0A06061A1635F
:10FD4000A3A26266A6A767A56564A46CACAD6DAFFF
:10FD50006F6EAEAA6A6BAB69A9A86878B8B979BBAF
:10FD60007B7ABABE7E7FBF7DBDBC7CB47475B5772F
:10FD7000B7B67672B2B373B17170B05090915193BF
:10FD800053529296565797559594549C5C5D9D5F3F
:10FD90009F9E5E5A9A9B5B99595898884849894B0F
:10FDA0008B8A4A4E8E8F4F8D4D4C8C44848545876F
:10FDB000474686824243834181804000C1814001A1
:10FDC000C0804101C0804100C1814001C08041002C
:10FDD000C1814000C1814001C0804101C08041001B
:10FDE000C1814000C1814001C0804100C18140010A
:10FDF000C0804101C0804100C1814001C0804100FC
:10FE0000C1814000C1814001C0804100C1814001E9
:10FE1000C0804101C0804100C1814000C1814001DA
:10FE2000C0804101C0804100C1814001C0804100CB
:10FE3000C1814000C1814001C0804101C0804100BA
:10FE4000C1814000C1814001C0804100C1814001A9
:10FE5000C0804101C0804100C1814000C18140019A
:10FE6000C0804101C0804100C1814001C08041008B
:10FE7000C1814000C1814001C0804100C181400179
:10FE8000C0804101C0804100C1814001C08041006B
:10FE9000C1814000C1814001C0804101C08041005A
:10FEA000C1814000C1814001C0804100C181400149
:10FEB000C0804101C0804100C181403031323334C3
:10FEC00035363738396162636465666768696A6BBD
:10FED0006C6D6E6F707172737475767778797A2E37
:10FEE0002D3A20003F065B4F666D7D077F6F777C64
:10FEF000395E79716F76060E7A3800375C73675019
:10FF00006D783E0000006E5B404048003031323377
:10FF10003435363738396162636465660000000045
:10FF200000005FE803102700008813000038FFFF7F
:10FF3000FF000000000000000000000000000000C2
:10FF400000000000000000000000000000000000B1
:10FF500000000000000000000000000000000000A1
:10FF600000000000000000000000000000281E1437
:10FF70000A0000000000000000E8030000E80300A1
:10FF8000000000000000000000E8030000E803009B
:10FF90000000000000E803000000000000E803008B
:10FFA00000000030313233343536373839303132B1
:10FFB00033343536373839303132333435363738F3
:10FFC00039303132333435363738393031323334F1
:10FFD00035363738393031323334353637383930D1
:10FFE000313233002020202020202020006373366F
:08FFF00036002070736400006C
:06FFF80080F414FFF2F199
:00000001FF
