:100000006EEF00F0AA00AA00408205EF04F0AA00FB
:10001000AA00AA00AA00AA004080D8CF0FF0E8CF1B
:1000200010F0E0CF11F0FACF12F0FBCF13F0E9CFD0
:1000300014F0EACF15F0E1CF16F0E2CF17F0D9CFE8
:1000400018F0DACF19F0F3CF1AF0F4CF1BF0F6CF97
:100050001CF0F7CF1DF0F8CF1EF0F5CF1FF09DB2CA
:100060009EA20ED09FB20CD09E92010E00017F275F
:10007000000E8023812382230001838130EC0DF068
:10008000A3B0A4A007D0A5B005D0A490000183839D
:100090005EEC0DF01FC0F5FF1EC0F8FF1DC0F7FF9E
:1000A0001CC0F6FF1BC0F4FF1AC0F3FF19C0DAFF33
:1000B00018C0D9FF17C0E2FF16C0E1FF15C0EAFF64
:1000C00014C0E9FF13C0FBFF12C0FAFF11C0E0FF2C
:1000D00010C0E8FF0FC0D8FF4090100017EF07F0E6
:1000E0000001C96F310E0001C96501D01200000185
:1000F000C9510008310F0001C86F90D12E0E206E3B
:1001000022C021F0000E6BEC04F012002E0E206EC7
:1001100022C021F0010E6BEC04F012002E0E206EB6
:1001200022C021F0020E6BEC04F012002E0E206EA5
:1001300022C021F0030E6BEC04F012002F0E206E93
:1001400022C021F0030E6BEC04F012002F0E206E83
:1001500022C021F0020E6BEC04F012002F0E206E74
:1001600022C021F0010E6BEC04F012002F0E206E65
:1001700022C021F0000E6BEC04F012001F0E206E66
:1001800022C021F0000E6BEC04F012001F0E206E56
:1001900022C021F0010E6BEC04F012001F0E206E45
:1001A00022C021F0020E6BEC04F012001F0E206E34
:1001B00022C021F0030E6BEC04F01200000E206E42
:1001C00022C021F0030E6BEC04F01200000E206E32
:1001D00022C021F0020E6BEC04F01200000E206E23
:1001E00022C021F0010E6BEC04F01200000E206E14
:1001F00022C021F0000E6BEC04F01200010E206E04
:1002000022C021F0000E6BEC04F01200010E206EF3
:1002100022C021F0010E6BEC04F01200010E206EE2
:1002200022C021F0020E6BEC04F01200010E206ED1
:1002300022C021F0030E6BEC04F01200020E206EBF
:1002400022C021F0030E6BEC04F01200020E206EAF
:1002500022C021F0020E6BEC04F01200020E206EA0
:1002600022C021F0010E6BEC04F01200020E206E91
:1002700022C021F0000E6BEC04F01200030E206E81
:1002800022C021F0000E6BEC04F01200030E206E71
:1002900022C021F0010E6BEC04F01200030E206E60
:1002A00022C021F0020E6BEC04F01200030E206E4F
:1002B00022C021F0030E6BEC04F01200040E206E3D
:1002C00022C021F0030E6BEC04F01200040E206E2D
:1002D00022C021F0020E6BEC04F01200040E206E1E
:1002E00022C021F0010E6BEC04F01200040E206E0F
:1002F00022C021F0000E6BEC04F01200050E206EFF
:1003000022C021F0000E6BEC04F01200050E206EEE
:1003100022C021F0010E6BEC04F01200050E206EDD
:1003200022C021F0020E6BEC04F01200050E206ECC
:1003300022C021F0030E6BEC04F01200060E206EBA
:1003400022C021F0030E6BEC04F01200060E206EAA
:1003500022C021F0020E6BEC04F01200060E206E9B
:1003600022C021F0010E6BEC04F01200060E206E8C
:1003700022C021F0000E6BEC04F01200070E206E7C
:1003800022C021F0000E6BEC04F01200070E206E6C
:1003900022C021F0010E6BEC04F01200070E206E5B
:1003A00022C021F0020E6BEC04F01200070E206E4A
:1003B00022C021F0030E6BEC04F01200210E206E1F
:1003C00022C021F0030E6BEC04F01200210E206E0F
:1003D00022C021F0020E6BEC04F01200210E206E00
:1003E00022C021F0010E6BEC04F01200210E206EF1
:1003F00022C021F0000E6BEC04F01200220E206EE1
:1004000022C021F0000E6BEC04F01200220E206ED0
:1004100022C021F0010E6BEC04F012000001C85163
:10042000000AD8B46BD6010AD8B470D6030AD8B47F
:1004300075D6010AD8B47AD6070AD8B47FD6010A8D
:10044000D8B484D6030AD8B489D6010AD8B48ED6D3
:100450000F0AD8B493D6010AD8B498D6030AD8B4F0
:100460009DD6010AD8B4A2D6070AD8B4A7D6010AE5
:10047000D8B4ACD6030AD8B4B1D6010AD8B4B6D62B
:100480001F0AD8B4BBD6010AD8B4C0D6030AD8B460
:10049000C5D6010AD8B4CAD6070AD8B4CFD6010A3D
:1004A000D8B4D4D6030AD8B4D9D6010AD8B4DED683
:1004B0000F0AD8B4E3D6010AD8B4E8D6030AD8B4F0
:1004C000EDD6010AD8B4F2D6070AD8B4F7D6010A95
:1004D000D8B4FCD6030AD8B401D7010AD8B406D7D9
:1004E0003F0AD8B40BD7010AD8B410D7030AD8B43E
:1004F00015D7010AD8B41AD7070AD8B41FD7010AEA
:10050000D8B424D7030AD8B429D7010AD8B42ED72F
:100510000F0AD8B433D7010AD8B438D7030AD8B4ED
:100520003DD7010AD8B442D7070AD8B447D7010A41
:10053000D8B44CD7030AD8B451D7010AD8B456D787
:100540001F0AD8B45BD7010AD8A412005FD7000EE7
:100550000001C16F000EC06F000120EE06F0BC511B
:10056000D926BD51DA2201D80AD00500FA6EDE5034
:10057000FD6EDE50FE6EF850FF6EFA501200000164
:1005800020EE0AF0BC51D926BD51DA2201D812D092
:100590000500FA6EDE50FD6EDE50FE6EF850FF6E06
:1005A000FA50000120EE01F0BC51D926BD51DA22EB
:1005B000DF501200000120EE0AF0BC51D926BD51D7
:1005C000DA2201D80CD00500FA6EDE50FD6EDE5046
:1005D000FE6EF850FF6EFA500001BE51120000018D
:1005E00020EE08F0BC51D926BD51DA2201D80AD03C
:1005F0000500FA6EDE50FD6EDE50FE6EF850FF6EA6
:10060000FA501200000120EE06F0BC51D926BD516F
:10061000DA2201D80AD00500FA6EDE50FD6EDE50F7
:10062000FE6EF850FF6EFA501200000120EE0AF044
:10063000BC51D926BD51DA2201D816D00500FA6E78
:10064000DE50FD6EDE50FE6EF850FF6EFA50000177
:1006500020EE01F0BC51D926BD51DA22DF50000155
:10066000BF6F0001BF291200000120EE0EF0BC5147
:10067000D926BD51DA2201D80BD00500FA6EDE5022
:10068000FD6EDE50FE6EF850FF6EFA50000E120046
:100690000001BF6F0001BF510001C06FC16B0001BD
:1006A000C051C16FC06B000120EE0EF0BC51D926C5
:1006B000BD51DA2201D80BD00500FA6EDE50FD6E76
:1006C000DE50FE6EF850FF6EFA50000E1200000170
:1006D000BF6F0001BF510001C013000120EE08F000
:1006E000BC51D926BD51DA2201D80AD00500FA6ED4
:1006F000DE50FD6EDE50FE6EF850FF6EFA501200B6
:10070000C0C0BCF0C1C0BDF01200000120EE06F078
:10071000BA51D926BB51DA2201D80AD00500FA6EA7
:10072000DE50FD6EDE50FE6EF850FF6EFA50120085
:10073000000120EE0AF0BA51D926BB51DA2201D8C5
:1007400012D00500FA6EDE50FD6EDE50FE6EF850DF
:10075000FF6EFA50000120EE01F0BA51D926BB51CC
:10076000DA22DF501200000120EE0AF0BA51D92639
:10077000BB51DA2201D80CD00500FA6EDE50FD6EB6
:10078000DE50FE6EF850FF6EFA500001BC511200B0
:10079000000120EE0AF0BA51D926BB51DA2201D865
:1007A0000CD00500FA6EDE50FD6EDE50FE6EF85085
:1007B000FF6EFA500001BE511200000120EE0AF057
:1007C000BA51D926BB51DA2201D80CD00500FA6EF5
:1007D000DE50FD6EDE50FE6EF850FF6EFA500001E6
:1007E000BD511200000120EE08F0BA51D926BB51CC
:1007F000DA2201D812000500FA6EDE50FD6EDE50DE
:10080000FE6EF850FF6EFA501200FACF01F0FBCFE7
:1008100002F0E9CF03F0EACF04F0E1CF05F0E2CF38
:1008200006F0D9CF07F0DACF08F0F3CF09F0F4CF14
:100830000AF0F6CF0BF0F7CF0CF0F8CF0DF0F5CFB4
:100840000EF0F2BAF2A402D0F1B400F0F2BC9DA80E
:1008500001D09E50F2BC9DAA01D09E50F2BC9DA03A
:1008600001D09E509DB29EA20ED09FA20CD09E920F
:10087000010E00017F27000E8023812382230001C7
:10088000838138EC0DF0A3B0A4A007D0A5A005D0BB
:10089000A490000183835FEC0DF00EC0F5FF0DC046
:1008A000F8FF0CC0F7FF0BC0F6FF0AC0F4FF09C049
:1008B000F3FF08C0DAFF07C0D9FF06C0E2FF05C09A
:1008C000E1FF04C0EAFF03C0E9FF02C0FBFF01C073
:1008D000FAFF409211000001C56F030E0001C565CB
:1008E00001D012002F0E206401D0120020C0BAF0F7
:1008F0000001BB6B000E0001BD6F080EBC6FCBEC9E
:1009000004F00001C551060DF3500001BA250001A5
:10091000C66F2050070B0001C76F2150D8B41BD001
:10092000C7C0C2F0010E0001C36F0001C22B03D08B
:100930000001D890C3370001C22FFAD70001C65179
:10094000010D600EF324D96E000EF420DA6E000162
:10095000C351DF121200C7C0C2F0010E0001C36F05
:100960000001C22B03D00001D890C3370001C22F71
:10097000FAD70001C351FF0A0001C46F0001C6513C
:10098000010D600EF324D96E000EF420DA6E000122
:10099000C451DF161200000E0001BF6F0001BDAF91
:1009A00008D00001BC6DBD1FD8B0BD2B010E0001E9
:1009B000BF6F0001BBAF08D00001BA6DBB1FD8B03C
:1009C000BB2B010E0001BF1B000E0001C16F000E0A
:1009D000C06F0001BC510001BD11D8B42CD0010E74
:1009E0000001BE6F06D00001D890BC37BD370001B2
:1009F000BE2B0001BDAFF7D70001D890C037C1377B
:100A00000001BC510001BA5D0001BD510001BB599C
:100A1000D8A00AD00001BC510001BA5F0001BD514D
:100A20000001BB5B0001C0810001D890BD33BC3325
:100A30000001BE2FE1D70001BF510001D8B405D09D
:100A40000001C06DC11FD8B0C12BC0C0BAF0C1C079
:100A5000BBF0120000F020EC0DF0E10E206E000E55
:100A6000216E88EC05F040EC0DF0FFEC0CF0940EDC
:100A70000001BF6F000E0001C06F75EC0CF0840E1A
:100A80000001BC6F000E0001BD6F010E0001BE6FC2
:100A9000A7EC02F0BCC0D9F0BDC0DAF0000E216EA8
:100AA000640E206E60EC0CF0940E0001C26F000E1C
:100AB0000001C36F32EC0BF0C2C0D9F0C3C0DAF052
:100AC000EDEC0CF0030E9AEC09F0BCC0D9F0BDC0FF
:100AD000DAF00A0E81EC06F03C0EBBEC0AF09398BB
:100AE0008A8800F000F000F000F000F0000183A31D
:100AF00006D00001839300F0E4EC05F000F0000163
:100B000083A103D00001839100F015EC0CF0EED727
:100B100020C0BAF021C0BBF04EEC0DF0FC0E0F016E
:100B20005F17000120EE05F0BA51D926BB51DA2239
:100B3000DF500F015C6F000120EE04F0BA51D9269E
:100B4000BB51DA22DF500F015D6F0F015F51FC0BCB
:100B500001095F6F000120EE03F0BA51D926BB51A5
:100B6000DA22DF500F015C6F000120EE06F0BA516F
:100B7000D926BB51DA22DF500F015D6F0F015F51A3
:100B8000FC0B02095F6F000120EE02F0BA51D9267A
:100B9000BB51DA22DF500F015C6F000120EE01F043
:100BA000BA51D926BB51DA22DF500F015D6F030E17
:100BB0000F015F13BAC0D9FFBBC0DAFFDF500F01CE
:100BC0005C6F54EC0DF012000F015FA707D0000E10
:100BD0000001C86F010E64EC09F041D098EC0BF0F5
:100BE0007BC0D8F0CE0E206E000E216ED8C022F051
:100BF000CDEC09F07CC0D8F0D00E206E000E216E36
:100C0000D8C022F0CDEC09F079C0D8F0D20E206E19
:100C1000000E216ED8C022F0CDEC09F07AC0D8F0D9
:100C2000D40E206E000E216ED8C022F0CDEC09F05B
:100C3000000E0001D66FCE0E0001CB6F000E00013A
:100C4000CC6F2DEC09F0010E0001C86F010E64ECB1
:100C500009F0010E0001C86F050E64EC09F03C0EAE
:100C6000BBEC0AF0FEEC09F012000001C96F0001B4
:100C7000C851E7EC0AF00001CA6F28D00001CA5140
:100C8000F3EC08F012000001CA51B9EC08F01200B0
:100C90000001CA517FEC08F012000001CA5145EC76
:100CA00008F012000001CA510BEC08F0120000011C
:100CB000CA51D1EC07F012000001CA5197EC07F0BD
:100CC00012000001CA515DEC07F012000001C95189
:100CD000000AD8B4D3D7010AD8B4D5D7030AD8B4F8
:100CE000D7D7010AD8B4D9D7070AD8B4DBD7010AB5
:100CF000D8B4DDD7030AD8B4DFD7010AD8A41200CC
:100D0000E0D70001D46F20EEDBF010EECEF0050E40
:100D1000DBCFE3FFE806FCE2000EDAEC0CF0F10EAC
:100D20000001CB6FFF0E0001CC6F55EC0BF0010EF4
:100D30008AEC0CF0D4C0D5F00001D5510001D8A444
:100D400025D0010E0001D56F21D0CF0E206E000EF0
:100D5000216E0001D505226ECDEC09F0000E0001D8
:100D6000D26FCE0E0001CB6F000E0001CC6F77EC7E
:100D70000BF03C0EBBEC0AF0FEEC09F0030E216E0A
:100D8000E80E206E60EC0CF00001D5070001D55193
:100D90000001D8B41200D9D720C0D9FF21C0DAFF92
:100DA000050EDF6E20EE01F02050D9262150DA2208
:100DB00022C0DFFF20EE02F02050D9262150DA2297
:100DC000830EDE6E850EDD6E20EE06F02050D926F5
:100DD0002150DA22B00EDE6E170EDD6E20EE08F026
:100DE0002050D9262150DA22EE0EDE6E170EDD6E6F
:100DF00020EE0AF02050D9262150DA225E0EDE6E57
:100E0000140EDD6E20EE0CF02050D9262150DA228F
:100E1000BE0EDE6E140EDD6E20EE0EF02050D926D2
:100E20002150DA22200EDE6E1A0EDD6E12008E0EBA
:100E3000F66E1A0EF76E000EF86E00EEDBF010EE96
:100E40000DF00900F5CFEEFFE550E150FAE1B80EE4
:100E5000F66E1A0EF76E000EF86E0900F5CF3DF033
:100E60000900F5CF3EF00900F5CF3FF002EE00F0AB
:100E700011EE00F0EE6AE550E150FCE1E250FAE1DB
:100E800001EE00F011EE00F0EE6AE550E150FCE1F9
:100E9000E250FAE100EE60F05A0EEE6AE806FDE17B
:100EA00000EE23F01A0EEE6AE806FDE14090409253
:100EB000000EF86E00012AEF05F0226E130E206E70
:100EC0002250080B216E000E6BEC04F0130E206E06
:100ED0002250100B216E010E6BEC04F0130E206EED
:100EE0002250200B216E020E6BEC04F0130E206ECC
:100EF0002250010B216E030E6BEC04F0280E206EC5
:100F00002250040B216E010E6BEC04F0280E206EB3
:100F10002250400B216E020E6BEC04F0280E206E66
:100F20002250020B216E030E6BEC04F01200226EB5
:100F30000E0E206E2250080B216E000E6BEC04F09A
:100F40000E0E206E2250100B216E010E6BEC04F081
:100F50000E0E206E2250200B216E020E6BEC04F060
:100F60000E0E206E2250010B216E030E6BEC04F06E
:100F70000F0E206E2250040B216E010E6BEC04F05C
:100F80000F0E206E2250400B216E020E6BEC04F00F
:100F90000F0E206E2250020B216E030E6BEC04F03C
:100FA0001200226E260E206E2250080B216E000EBB
:100FB0006BEC04F0260E206E2250100B216E010EF9
:100FC0006BEC04F0260E206E2250200B216E020ED8
:100FD0006BEC04F0260E206E2250010B216E030EE6
:100FE0006BEC04F0270E206E2250040B216E010ED4
:100FF0006BEC04F0270E206E2250400B216E020E87
:101000006BEC04F0270E206E2250020B216E030EB3
:101010006BEC04F01200226E240E206E2250080B9E
:10102000216E000E6BEC04F0240E206E2250100B8B
:10103000216E010E6BEC04F0240E206E2250200B6A
:10104000216E020E6BEC04F0240E206E2250010B78
:10105000216E030E6BEC04F0250E206E2250040B63
:10106000216E010E6BEC04F0250E206E2250400B19
:10107000216E020E6BEC04F0250E206E2250020B46
:10108000216E030E6BEC04F01200226E2B0E206E0C
:101090002250010B216E000E6BEC04F02B0E206E23
:1010A0002250200B216E010E6BEC04F02B0E206EF3
:1010B0002250100B216E020E6BEC04F02B0E206EF2
:1010C0002250080B216E030E6BEC04F02A0E206EEA
:1010D0002250020B216E000E6BEC04F02A0E206EE3
:1010E0002250400B216E010E6BEC04F02A0E206E94
:1010F0002250040B216E020E6BEC04F01200226EE3
:10110000150E206E2250010B216E000E6BEC04F0C8
:10111000150E206E2250200B216E010E6BEC04F098
:10112000150E206E2250100B216E020E6BEC04F097
:10113000150E206E2250080B216E030E6BEC04F08E
:10114000140E206E2250020B216E000E6BEC04F088
:10115000140E206E2250400B216E010E6BEC04F039
:10116000140E206E2250040B216E020E6BEC04F064
:101170001200226E170E206E2250010B216E000EFF
:101180006BEC04F0170E206E2250200B216E010E26
:101190006BEC04F0170E206E2250100B216E020E25
:1011A0006BEC04F0170E206E2250080B216E030E1C
:1011B0006BEC04F0160E206E2250020B216E000E16
:1011C0006BEC04F0160E206E2250400B216E010EC7
:1011D0006BEC04F0160E206E2250040B216E020EF2
:1011E0006BEC04F01200226E190E206E2250010BDF
:1011F000216E000E6BEC04F0190E206E2250200BB5
:10120000216E010E6BEC04F0190E206E2250100BB3
:10121000216E020E6BEC04F0190E206E2250080BAA
:10122000216E030E6BEC04F0180E206E2250020BA0
:10123000216E000E6BEC04F0180E206E2250400B55
:10124000216E010E6BEC04F0180E206E2250040B80
:10125000216E020E6BEC04F01200000E0001CD6F47
:101260001BD0CBC0F6FFCCC0F7FFF86A0F0EF764B7
:1012700003D00800F55005D0F6CFE9FFF7CFEAFF1D
:10128000EF500001C86F0001CD5135EC06F00001B0
:10129000CB4BCC2B0001CD2BCBC0F6FFCCC0F7FF46
:1012A000F86A0F0EF76403D00800F55005D0F6CFAA
:1012B000E9FFF7CFEAFFEF500009D8B41200070E9C
:1012C0000001CD65CED712000001C96F1ED000010C
:1012D000C851C6EC0CF012000001C851B2EC0CF081
:1012E00012000001C8519EEC0CF012000001C85120
:1012F000C6EC0CF012000001C851B2EC0CF0120068
:101300000001C8519EEC0CF012000001C951000A06
:10131000D8B4DDD7010AD8B4DFD7030AD8B4E1D7EF
:10132000060AD8B4E3D7010AD8B4E5D7030AD8A48B
:101330001200E6D70001BE6F000E0001C06F000E64
:10134000BF6FC280BEC022F022462246C250221881
:10135000C30B2218C26E000E216E020E206E2FECFF
:101360000CF0C28201D000F0C2B2FDD7C4CFBFF0F2
:101370000001C06B0001BF51C06FBF6BC3500001C3
:10138000BF13000E216E020E206E2FEC0CF0C290E7
:10139000BFC0BCF0C0C0BDF0120022C0BAF0000156
:1013A000BA3B0F0EBA170F0E0001BA170001BA515F
:1013B000010D100EF324F66EFF0EF420F76E20C020
:1013C000D9FF21C0DAFF0800F5CFDFFF22C0BAF055
:1013D0000F0E0001BA170001BA51010D100EF324CF
:1013E000F66EFF0EF420F76E20EE01F02050D926A5
:1013F0002150DA220800F5CFDFFF120060C0BBFFEA
:1014000061C0BCFF62C0BDFF63C0BEFF64C0BFFF60
:1014100065C06BFF66C06CFF67C06DFF68C06EFF84
:1014200069C06FFF6AC070FF6BC071FF6CC072FF54
:101430006DC073FF6EC074FF6FC075FF70C076FF24
:1014400071C077FF72C078FF73C079FF74C07AFFF4
:1014500075C07BFF76C07CFF77C07DFF1200216ED8
:10146000949694988B96000E226E070E226401D0FB
:1014700023D021AE02D08B8801D08B988B8600F0D0
:1014800000F000F000F000F000F000F000F000F0DC
:1014900000F000F000F08B9600F000F000F000F09B
:1014A00000F000F000F000F000F000F000F000F0BC
:1014B000D8902136222AD9D75FEC0AF01200C80E44
:1014C000206E949694888B9600F000F000F000F067
:1014D00000F000F000F000F000F000F000F000F08C
:1014E0008B8600F000F000F000F000F000F000F05B
:1014F00000F000F000F000F000F002D082A804D06C
:1015000020062028D8A4FAD72050D8A404D0F7EC7D
:101510000BF0000E12008B96010E1200000E206ED2
:1015200094969488000E216E070E216401D020D07D
:10153000D89020368B9600F000F000F000F000F01C
:1015400000F000F000F000F000F000F000F08B86FA
:1015500000F000F000F000F000F000F000F000F00B
:1015600000F000F000F000F082B82080212ADCD7E3
:101570008B96205012000001CA6F620E0001CA65EE
:1015800003D0630E0001CA6F0001D890CA33000E69
:101590000001CB6F08D0010E226E0001CB5170EC20
:1015A00000F00001CB2B0001CA510001CB5DD8A097
:1015B000F2D7310E0001CB6501D01200000E226E71
:1015C0000001CB5170EC00F00001CB2BF2D7206E64
:1015D000000E226E280E226401D00FD02250010D81
:1015E000BF0EF324F66EFE0EF420F76E0800F550E1
:1015F0002018D8B402D0222AEDD7290E22600BD0B1
:101600002250010DE80EF324F66EFE0EF420F76E64
:101610000800F5CF21F021501200206E9496949886
:101620008B962050D8B402D08B8801D08B9800F0D4
:1016300000F000F000F000F000F000F000F000F02A
:1016400000F000F000F08B8600F000F000F000F0F9
:1016500000F000F000F000F000F000F000F000F00A
:101660008B961200C2C0BCF0C3C0BDF0000E0001DA
:10167000BE6FA7EC02F0BCC0C5F0BDC0C6F0C2C0D2
:10168000D9FFC3C0DAFF030EDF600AD00001C53BFB
:10169000C63B0F0EC517C651F00BC5130F0EC6176C
:1016A000C5C0C2F0C6C0C3F01200000E0001CD6F6D
:1016B00010D0CBC0F6FFCCC0F7FF0800F5CFC8F0C4
:1016C0000001CD5135EC06F00001CB4BCC2B0001D5
:1016D000CD2BCBC0F6FFCCC0F7FF0800F5500009BA
:1016E000D8B41200030E0001CD65E3D71200000E3E
:1016F0000001CD6F11D0CBC0D9FFCCC0DAFFDF50D5
:101700000001C86F0001CD51040F35EC06F0000157
:10171000CB4BCC2B0001CD2BCBC0D9FFCCC0DAFFFB
:10172000DF50D8B41200030E0001CD65E4D71200DB
:10173000030E0F015F135CCF78F05DCF20F00F0137
:101740005F51FC0B02095F6F5CCF7AF05DCF79F0DF
:101750000F015F51FC0B01095F6F5CCF7BF05DCF28
:101760007EF0FC0E0F015F175CCF7DF05DCF7CF04B
:1017700012000F0154950F0154830F015F950F0163
:101780005A690F015B8F0F015B8D0F015B955B97B2
:101790005B995B9B00F04EEC0DF00F015F8F54ECFA
:1017A0000DF000F0A580A490A380CD8600F012007B
:1017B000949694988B888B8600F000F000F000F0EF
:1017C00000F000F000F000F000F000F000F000F099
:1017D0008B9800F000F000F000F000F000F000F056
:1017E00000F000F000F000F000F08B9612009496EC
:1017F00094988B9800F000F000F000F000F000F0FA
:1018000000F000F000F000F000F000F08B8600F037
:1018100000F000F000F000F000F000F000F000F048
:1018200000F000F000F08B881200000E206E21689E
:101830000E0E931281500E0B216E21500E0B0E0ACC
:10184000D8B40AD000F081500E0B216E21A6208062
:1018500021A4208221A2208420C039F01200000E91
:101860000001BB6F000EBA6F0BD000F000F000F06B
:1018700000F000F000F000F000F00001BA4BBB2BCC
:1018800020500001BA5D21500001BB59D8B01200B0
:10189000ECD73F0ED26EAA9EAA9CAA96AA84AA92C0
:1018A000AA90A968E00EB66EF80EB76EC30EB86EB9
:1018B000FE0EB96ECF0EBA6E000EDAEC0CF012000E
:1018C000000E376E000E366E010E386E01D000F03D
:1018D0002050365C21503758D8A0F9D7000E386E0A
:1018E000000E376E000E366E1200BFC0BAF0C0C0D8
:1018F000BBF0010E0001BC6F000120EE02F0BF51F1
:10190000D926C051DA22DECFBDF0DDCFBEF085ECA6
:1019100003F01200226E2250D8B408D00D0E206EB3
:10192000010E216E020E6BEC04F012000D0E206E03
:10193000000E216E020E6BEC04F01200226E22509B
:10194000D8B408D0140E206E800E216E030E6BECFE
:1019500004F01200140E206E000E216E030E6BECCC
:1019600004F01200226E2250D8B408D0160E206E59
:10197000800E216E030E6BEC04F01200160E206E2A
:10198000000E216E030E6BEC04F01200226E22504A
:10199000D8B408D0180E206E800E216E030E6BECAA
:1019A00004F01200180E206E000E216E030E6BEC78
:1019B00004F01200206E000E216E170E216401D07B
:1019C00012002150010D600EF324D96E000EF42098
:1019D000DA6E20C0DFFF212AF0D70D0EC16EC08E57
:1019E000C086C088C08AC080C082C084C28EC250F7
:1019F000C30B0C09C26E9E9C9D9C9F9C1200940E72
:101A0000206E000E216E900E226ECCEC06F0840E3D
:101A1000206E000E216E920E226ECCEC06F01200AB
:101A20000001BA6F000E0001BB6F8EEC0AF00001DE
:101A3000BB6F0001BA510DEC0BF00001BB5112005D
:101A400028EC0DF0B9EC0BF0F28CF28ED09E120067
:101A50006C0ECB6E9F829E929D827F0ECA6E12008C
:101A60003850D8B412000A0E3626000E3722120063
:101A70003850D8B412000A0E3626000E3722120053
:101A800049EC0CF05AEC0DF08F0EA86E12002D30C0
:101A9000302D00001707312355550200550EA76E53
:101AA000AA0EA76E5F8B1200550EA76EAA0EA76E28
:101AB0005F9B12009888120000F4000012001200D0
:101AC000AA00AA00AA00AA00AA00AA00AA00AA00C6
:101AD000AA00AA00AA00AA00AA00AA00AA00AA00B6
:101AE000AA00AA00AA00AA00AA00AA00AA00AA00A6
:101AF000AA00AA00AA00AA00AA00AA00AA00AA0096
:10FCB000AA00AA00AA00AA00AA00AA00AA0000009E
:10FCC000C0C101C30302C2C60607C705C5C404CC30
:10FCD0000C0DCD0FCFCE0E0ACACB0BC90908C8D860
:10FCE0001819D91BDBDA1A1EDEDF1FDD1D1CDC1420
:10FCF000D4D515D71716D6D21213D311D1D010F0F0
:10FD00003031F133F3F23236F6F737F53534F43C6F
:10FD1000FCFD3DFF3F3EFEFA3A3BFB39F9F838283F
:10FD2000E8E929EB2B2AEAEE2E2FEF2DEDEC2CE45F
:10FD30002425E527E7E62622E2E323E12120E0A0CF
:10FD40006061A163A3A26266A6A767A56564A46CAF
:10FD5000ACAD6DAF6F6EAEAA6A6BAB69A9A86878DF
:10FD6000B8B979BB7B7ABABE7E7FBF7DBDBC7CB49F
:10FD70007475B577B7B67672B2B373B17170B050AF
:10FD80009091519353529296565797559594549CEF
:10FD90005C5D9D5F9F9E5E5A9A9B5B9959589888BF
:10FDA0004849894B8B8A4A4E8E8F4F8D4D4C8C44DF
:10FDB000848545874746868242438341818040004F
:10FDC000C1814001C0804101C0804100C18140012A
:10FDD000C0804100C1814000C1814001C08041011B
:10FDE000C0804100C1814000C1814001C08041000C
:10FDF000C1814001C0804101C0804100C1814001FA
:10FE0000C0804100C1814000C1814001C0804100EB
:10FE1000C1814001C0804101C0804100C1814000DA
:10FE2000C1814001C0804101C0804100C1814001C9
:10FE3000C0804100C1814000C1814001C0804101BA
:10FE4000C0804100C1814000C1814001C0804100AB
:10FE5000C1814001C0804101C0804100C18140009A
:10FE6000C1814001C0804101C0804100C181400189
:10FE7000C0804100C1814000C1814001C08041007B
:10FE8000C1814001C0804101C0804100C181400169
:10FE9000C0804100C1814000C1814001C08041015A
:10FEA000C0804100C1814000C1814001C08041004B
:10FEB000C1814001C0804101C0804100C18140300A
:10FEC0003132333435363738396162636465666799
:10FED00068696A6B6C6D6E6F70717273747576772A
:10FEE00078797A2E2D3A20003F065B4F666D7D07AC
:10FEF0007F6F777C395E79716F76060E7A380037BE
:10FF00005C7367506D783E0000006E5B40404800B7
:10FF1000303132333435363738396162636465667F
:10FF20000000000000005FE80310270000881300B5
:10FF30000038FFFFFF00000000000000000000008C
:10FF400000000000000000000000000000000000B1
:10FF500000000000000000000000000000000000A1
:10FF60000000000000000000000000000000000091
:10FF700000281E140A0000000000000000E8030032
:10FF800000E80300000000000000000000E803009B
:10FF900000E803000000000000E80300000000008B
:10FFA00000E8030000000030313233343536373892
:10FFB0003930313233343536373839303132333401
:10FFC00035363738393031323334353637383930E1
:10FFD00031323334353637383930313233343536DF
:10FFE00037383930313233002020202020202020A3
:08FFF0000063733636000000C7
:06FFF80080F414FFF2F199
:00000001FF
