:100000006EEF00F0AA00AA004082DEEF05F0AA0021
:10001000AA00AA00AA00AA004080D8CF0FF0E8CF1B
:1000200010F0E0CF11F0FACF12F0FBCF13F0E9CFD0
:1000300014F0EACF15F0E1CF16F0E2CF17F0D9CFE8
:1000400018F0DACF19F0F3CF1AF0F4CF1BF0F6CF97
:100050001CF0F7CF1DF0F8CF1EF0F5CF1FF09DB2CA
:100060009EA20ED09FB20CD09E92010E00018A2754
:10007000000E8B238C238D230001C481C2EC13F06E
:10008000A3B0A4A007D0A5B005D0A4900001C4835C
:1000900008EC14F01FC0F5FF1EC0F8FF1DC0F7FFED
:1000A0001CC0F6FF1BC0F4FF1AC0F3FF19C0DAFF33
:1000B00018C0D9FF17C0E2FF16C0E1FF15C0EAFF64
:1000C00014C0E9FF13C0FBFF12C0FAFF11C0E0FF2C
:1000D00010C0E8FF0FC0D8FF40901000B7EF0CF041
:1000E0000001EA6F310E0001EA6501D01200000143
:1000F000EA510008310F0001E96FC2D12E0E000154
:10010000E16F20C0E2F0000EA9EC06F012002E0E06
:100110000001E16F20C0E2F0010EA9EC06F0120030
:100120002E0E0001E16F20C0E2F0020EA9EC06F0F5
:1001300012002E0E0001E16F20C0E2F0030EA9ECC8
:1001400006F012002F0E0001E16F20C0E2F0030E56
:10015000A9EC06F012002F0E0001E16F20C0E2F0C2
:10016000020EA9EC06F012002F0E0001E16F20C074
:10017000E2F0010EA9EC06F012002F0E0001E16F73
:1001800020C0E2F0000EA9EC06F012001F0E0001E4
:10019000E16F20C0E2F0000EA9EC06F012001F0E85
:1001A0000001E16F20C0E2F0010EA9EC06F01200A0
:1001B0001F0E0001E16F20C0E2F0020EA9EC06F074
:1001C00012001F0E0001E16F20C0E2F0030EA9EC47
:1001D00006F01200000E0001E16F20C0E2F0030EF5
:1001E000A9EC06F01200000E0001E16F20C0E2F061
:1001F000020EA9EC06F01200000E0001E16F20C013
:10020000E2F0010EA9EC06F01200000E0001E16F11
:1002100020C0E2F0000EA9EC06F01200010E000171
:10022000E16F20C0E2F0000EA9EC06F01200010E12
:100230000001E16F20C0E2F0010EA9EC06F012000F
:10024000010E0001E16F20C0E2F0020EA9EC06F001
:100250001200010E0001E16F20C0E2F0030EA9ECD4
:1002600006F01200020E0001E16F20C0E2F0030E62
:10027000A9EC06F01200020E0001E16F20C0E2F0CE
:10028000020EA9EC06F01200020E0001E16F20C080
:10029000E2F0010EA9EC06F01200020E0001E16F7F
:1002A00020C0E2F0000EA9EC06F01200030E0001DF
:1002B000E16F20C0E2F0000EA9EC06F01200030E80
:1002C0000001E16F20C0E2F0010EA9EC06F012007F
:1002D000030E0001E16F20C0E2F0020EA9EC06F06F
:1002E0001200030E0001E16F20C0E2F0030EA9EC42
:1002F00006F01200040E0001E16F20C0E2F0030ED0
:10030000A9EC06F01200040E0001E16F20C0E2F03B
:10031000020EA9EC06F01200040E0001E16F20C0ED
:10032000E2F0010EA9EC06F01200040E0001E16FEC
:1003300020C0E2F0000EA9EC06F01200050E00014C
:10034000E16F20C0E2F0000EA9EC06F01200050EED
:100350000001E16F20C0E2F0010EA9EC06F01200EE
:10036000050E0001E16F20C0E2F0020EA9EC06F0DC
:100370001200050E0001E16F20C0E2F0030EA9ECAF
:1003800006F01200060E0001E16F20C0E2F0030E3D
:10039000A9EC06F01200060E0001E16F20C0E2F0A9
:1003A000020EA9EC06F01200060E0001E16F20C05B
:1003B000E2F0010EA9EC06F01200060E0001E16F5A
:1003C00020C0E2F0000EA9EC06F01200070E0001BA
:1003D000E16F20C0E2F0000EA9EC06F01200070E5B
:1003E0000001E16F20C0E2F0010EA9EC06F012005E
:1003F000070E0001E16F20C0E2F0020EA9EC06F04A
:100400001200070E0001E16F20C0E2F0030EA9EC1C
:1004100006F01200210E0001E16F20C0E2F0030E91
:10042000A9EC06F01200210E0001E16F20C0E2F0FD
:10043000020EA9EC06F01200210E0001E16F20C0AF
:10044000E2F0010EA9EC06F01200210E0001E16FAE
:1004500020C0E2F0000EA9EC06F01200220E00010E
:10046000E16F20C0E2F0000EA9EC06F01200220EAF
:100470000001E16F20C0E2F0010EA9EC06F01200CD
:100480000001E951000AD8B439D6010AD8B43FD6E0
:10049000030AD8B445D6010AD8B44BD6070AD8B453
:1004A00051D6010AD8B457D6030AD8B45DD6010A8A
:1004B000D8B463D60F0AD8B469D6010AD8B46FD6B7
:1004C000030AD8B475D6010AD8B47BD6070AD8B4C3
:1004D00081D6010AD8B487D6030AD8B48DD6010ACA
:1004E000D8B493D61F0AD8B499D6010AD8B49FD6E7
:1004F000030AD8B4A5D6010AD8B4ABD6070AD8B433
:10050000B1D6010AD8B4B7D6030AD8B4BDD6010A09
:10051000D8B4C3D60F0AD8B4C9D6010AD8B4CFD636
:10052000030AD8B4D5D6010AD8B4DBD6070AD8B4A2
:10053000E1D6010AD8B4E7D6030AD8B4EDD6010A49
:10054000D8B4F3D63F0AD8B4F9D6010AD8B4FFD646
:10055000030AD8B405D7010AD8B40BD7070AD8B410
:1005600011D7010AD8B417D7030AD8B41DD7010A86
:10057000D8B423D70F0AD8B429D7010AD8B42FD7B3
:10058000030AD8B435D7010AD8B43BD7070AD8B480
:1005900041D7010AD8B447D7030AD8B44DD7010AC6
:1005A000D8B453D71F0AD8B459D7010AD8A4120017
:1005B0005ED7000E0001E26F000EE16F000120EE39
:1005C00006F0DD51D926DE51DA2201D80AD0050025
:1005D000FA6EDE50FD6EDE50FE6EF850FF6EFA5081
:1005E0001200000120EE0AF0DD51D926DE51DA2298
:1005F00001D812D00500FA6EDE50FD6EDE50FE6EA0
:10060000F850FF6EFA50000120EE01F0DD51D926BE
:10061000DE51DA22DF501200000120EE0AF0DD5137
:10062000D926DE51DA2201D80CD00500FA6EDE5050
:10063000FD6EDE50FE6EF850FF6EFA500001DF5185
:100640001200000120EE08F0DD51D926DE51DA2239
:1006500001D80AD00500FA6EDE50FD6EDE50FE6E47
:10066000F850FF6EFA501200000120EE06F0DD5146
:10067000D926DE51DA2201D80AD00500FA6EDE5002
:10068000FD6EDE50FE6EF850FF6EFA501200000153
:1006900020EE0AF0DD51D926DE51DA2201D816D03B
:1006A0000500FA6EDE50FD6EDE50FE6EF850FF6EF5
:1006B000FA50000120EE01F0DD51D926DE51DA2298
:1006C000DF500001E06F0001E0291200000120EE80
:1006D0000EF0DD51D926DE51DA2201D80BD005000B
:1006E000FA6EDE50FD6EDE50FE6EF850FF6EFA5070
:1006F000000E12000001E06F0001E0510001E16F07
:10070000E26B0001E151E26FE16B000120EE0EF0BF
:10071000DD51D926DE51DA2201D80BD00500FA6E60
:10072000DE50FD6EDE50FE6EF850FF6EFA50000E89
:1007300012000001E06F0001E0510001E11300012F
:1007400020EE08F0DD51D926DE51DA2201D80AD098
:100750000500FA6EDE50FD6EDE50FE6EF850FF6E44
:10076000FA501200E1C0DDF0E2C0DEF0120000013C
:10077000E4BF0DD0100E0001E35D270E0001E45927
:10078000D8A005D0270E0001E46F0F0EE36FE3C081
:10079000D9F0E4C0DAF0000E0001DC6F0A0EDB6F66
:1007A0008BEC09F00C0E0001D925F66EFF0E00014E
:1007B000DA21F76E000120EE03F0E151D926E25173
:1007C000DA220800F5CFDFFFE3C0D9F0E4C0DAF0A9
:1007D000000E0001DC6F0A0EDB6F0DEC07F0D9C0D4
:1007E000E3F0DAC0E4F0E3C0D9F0E4C0DAF0000EE0
:1007F0000001DC6F0A0EDB6F8BEC09F00C0E0001C0
:10080000D925F66EFF0E0001DA21F76E000120EE09
:1008100002F0E151D926E251DA220800F5CFDFFFDC
:10082000E3C0D9F0E4C0DAF0000E0001DC6F0A0E7C
:10083000DB6F0DEC07F0D9C0E3F0DAC0E4F0E3C001
:10084000D9F0E4C0DAF0000E0001DC6F0A0EDB6FB5
:100850008BEC09F00C0E0001D925F66EFF0E00019D
:10086000DA21F76E000120EE01F0E151D926E251C4
:10087000DA220800F5CFDFFFE3C0D9F0E4C0DAF0F8
:10088000000E0001DC6F0A0EDB6F0DEC07F0D9C023
:10089000E3F0DAC0E4F0E3C0D9F0E4C0DAF0000E2F
:1008A0000001DC6F0A0EDB6F8BEC09F00C0E00010F
:1008B000D925F66EFF0E0001DA21F76EE1C0D9FFEF
:1008C000E2C0DAFF0800F5CFDFFF120092C0F1F1BD
:1008D00093C0F2F194C0F3F195C0F4F1E6C0EDF1EC
:1008E000E7C0EEF1E8C0EFF1E9C0F0F10001E9AFD7
:1008F00040D0E6C0EAF0E7C0EBF0E8C0ECF0E9C0B9
:10090000EDF00001EA1FEB1FEC1FED1FEA2B000EBC
:10091000EB23EC23ED23EAC0EDF1EBC0EEF1ECC0EC
:10092000EFF1EDC0F0F1010E0101F46F22D00101F1
:10093000F32BEDC1D9F0EEC1DAF0EFC1DBF0F0C17D
:10094000DCF00A0E0001DD6F000EDE6F000EDF6FBF
:10095000000EE06FCBEC07F0D9C0EDF1DAC0EEF19C
:10096000DBC0EFF1DCC0F0F1030E0101F319D8B4E4
:100970000DD00101F0510101EF11D9E1100E01017B
:10098000ED5D270E0101EE59D8B0D1D70101F0512C
:100990000101EF1108E1100E0101ED5D270E0101CB
:1009A000EE59D8A009D00F0E0101ED6F270EEE6FA2
:1009B000000EEF6F000EF06FEDC1F1F1EEC1F2F13C
:1009C000F1C1E6F0F2C1E7F0F3C1E8F0F4C1E9F0FB
:1009D0001200000120EE06F0DB51D926DC51DA22AC
:1009E00001D80AD00500FA6EDE50FD6EDE50FE6EB4
:1009F000F850FF6EFA501200000120EE0AF0DB51B1
:100A0000D926DC51DA2201D812D00500FA6EDE5068
:100A1000FD6EDE50FE6EF850FF6EFA50000120EEC3
:100A200001F0DB51D926DC51DA22DF50120000013F
:100A300020EE0AF0DB51D926DC51DA2201D80CD0A5
:100A40000500FA6EDE50FD6EDE50FE6EF850FF6E51
:100A5000FA500001DD511200000120EE0AF0DB51D6
:100A6000D926DC51DA2201D80CD00500FA6EDE500E
:100A7000FD6EDE50FE6EF850FF6EFA500001DF5141
:100A80001200000120EE0AF0DB51D926DC51DA22F7
:100A900001D80CD00500FA6EDE50FD6EDE50FE6E01
:100AA000F850FF6EFA500001DE511200000120EEF6
:100AB00008F0DB51D926DC51DA2201D812000500FA
:100AC000FA6EDE50FD6EDE50FE6EF850FF6EFA508C
:100AD0001200E7C0D9FFE8C0DAFFDECFECF0DDCFCF
:100AE000EDF00001E951A1EC0FF0D9C0DDF0DAC062
:100AF000DEF0ECC0DBF0EDC0DCF03BEC0DF0DBC079
:100B0000E2F0DCC0E3F0000E0001E56F0A0EE46FD6
:100B1000B5EC0EF0E2C0EAF0E3C0EBF00001E95101
:100B2000A1EC0FF0D9C0DBF0DAC0DCF0EAC0DDF0F8
:100B3000EBC0DEF001EC12F00001DB1F0001DC1F56
:100B40000001DB4BDC2B0001EC510001DB25000137
:100B5000EC6F0001ED510001DC210001ED6F00019F
:100B6000EA4BEB2B0001EB5105E10A0E0001EA5DB7
:100B7000D8A005D0000E0001EB6F000EEA6F000157
:100B8000E951A1EC0FF0D9C0DBF0DAC0DCF0EAC02B
:100B9000DDF0EBC0DEF001EC12F00001DB510001F2
:100BA000EC270001DC510001ED23E7C0D9FFE8C0CC
:100BB000DAFFECC0DEFFEDC0DDFF1200FACF01F07E
:100BC000FBCF02F0E9CF03F0EACF04F0E1CF05F06C
:100BD000E2CF06F0D9CF07F0DACF08F0F3CF09F073
:100BE000F4CF0AF0F6CF0BF0F7CF0CF0F8CF0DF002
:100BF000F5CF0EF0F2BAF2A402D0F1B400F0F2BCDC
:100C00009DA801D09E50F2BC9DAA01D09E50F2BC7E
:100C10009DA001D09E509DB29EA20ED09FA20CD04E
:100C20009E92010E00018A27000E8B238C238D23B8
:100C30000001C481CEEC13F0A3B0A4A007D0A5A0FE
:100C400005D0A4900001C48309EC14F00EC0F5FF98
:100C50000DC0F8FF0CC0F7FF0BC0F6FF0AC0F4FF91
:100C600009C0F3FF08C0DAFF07C0D9FF06C0E2FFE2
:100C700005C0E1FF04C0EAFF03C0E9FF02C0FBFFBB
:100C800001C0FAFF4092110000F0E2EC13F0F90EFF
:100C90000001D96F000E0001DA6F29EC08F0F2ECC8
:100CA00013F01CEC12F0D20E0001E06F010E0001F7
:100CB000E16F57EC13F0C20E0001DD6F010E000171
:100CC000DE6F010E0001DF6FD9EC02F0DDC0FEF136
:100CD000DEC0FFF1000E0001DA6F640ED96FFDEC8B
:100CE00012F0D20E0001E36F010E0001E46FA4ECDC
:100CF00010F0E3C0FEF1E4C0FFF191EC13F0030E3D
:100D00001AEC0EF0DDC0FEF1DEC0FFF10A0EDCECE5
:100D100009F03C0E29EC10F093988A8800F000014D
:100D2000C4A306D00001C49300F0E0EC08F000F08A
:100D30000001C4A103D00001C49100F073EC0FF0D6
:100D40000001C56F0001C551D8B4E9D7FAEC0CF029
:100D5000E6D70001E66F030E0001E66501D0120040
:100D60002F0E0001E16501D01200E1C0D9F00001B1
:100D7000DA6B000E0001DC6F080EDB6F0DEC07F084
:100D80000001E651060DF3500001D9250001E76F7F
:100D90000001E151070B0001E86F0001E251000181
:100DA000D8B41BD0E8C0E3F0010E0001E46F0001ED
:100DB000E32B03D00001D890E4370001E32FFAD7EA
:100DC0000001E751010D600EF324D96E000EF420EE
:100DD000DA6E0001E451DF121200E8C0E3F0010E08
:100DE0000001E46F0001E32B03D00001D890E43749
:100DF0000001E32FFAD70001E451FF0A0001E56F7B
:100E00000001E751010D600EF324D96E000EF420AD
:100E1000DA6E0001E551DF161200000E0001DE6FF0
:100E20000001DCAF08D00001DB6DDC1FD8B0DC2B8B
:100E3000010E0001DE6F0001DAAF08D00001D96DAC
:100E4000DA1FD8B0DA2B010E0001DE1B000E000104
:100E5000E06F000EDF6F0001DB510001DC11D8B440
:100E60002CD0010E0001DD6F06D00001D890DB37D9
:100E7000DC370001DD2B0001DCAFF7D70001D89093
:100E8000DF37E0370001DB510001D95D0001DC51A3
:100E90000001DA59D8A00AD00001DB510001D95F66
:100EA0000001DC510001DA5B0001DF810001D89014
:100EB000DC33DB330001DD2FE1D70001DE5100011F
:100EC000D8B405D00001DF6DE01FD8B0E02BDFC043
:100ED000D9F0E0C0DAF01200100E3C18D8A41200CD
:100EE0002AD0200E3C6E51EC12F01200300E3C6EF7
:100EF0002BEC13F01200400E3C6E55EC10F012007B
:100F0000500E3C6E1200600E3C6E1200700E3C6E75
:100F10001200800E3C6E1200900E3C6E1200A00E6D
:100F20003C6E1200B00E3C6E1200C00E3C6E120001
:100F3000F00E3C6E12003DC0F5F13EC0F6F101012D
:100F4000F651000AD8A412000101F551060AD8B4DE
:100F5000E0D7160AD8B4E0D7020AD8B4E9D7360ADF
:100F6000D8B4BFD71C0AD8B4C6D77A0AD8B4BED76B
:100F7000C70AD8B4CBD70F0AD8B4D1D7010AD8B48E
:100F8000D1D7230AD8B4BCD7010AD8B4BCD7150A24
:100F9000D8A41200CAD7000E0001E16F000EE26F64
:100FA000000EE36F000EE46F0001DD510001DE1161
:100FB0000001DF110001E011D8B442D0010E0001A0
:100FC000E56F08D00001D890DD37DE37DF37E03736
:100FD0000001E52B0001E0AFF5D70001D890E13723
:100FE000E237E337E4370001DD510001D95D00014C
:100FF000DE510001DA590001DF510001DB59000127
:10100000E0510001DC59D8A012D00001DD510001EF
:10101000D95F0001DE510001DA5B0001DF51000100
:10102000DB5B0001E0510001DC5B0001E1810001BC
:10103000D890E033DF33DE33DD330001E52FCDD749
:10104000E1C0D9F0E2C0DAF0E3C0DBF0E4C0DCF0EC
:101050001200D9C0DBF0DAC0DCF0F9EC13F0FC0EC2
:101060000F015F17000120EE05F0DB51D926DC519E
:10107000DA22DF500F015C6F000120EE04F0DB513B
:10108000D926DC51DA22DF500F015D6F0F015F516D
:10109000FC0B01095F6F000120EE03F0DB51D92644
:1010A000DC51DA22DF500F015C6F000120EE06F008
:1010B000DB51D926DC51DA22DF500F015D6F0F01C1
:1010C0005F51FC0B02095F6F000120EE02F0DB5163
:1010D000D926DC51DA22DF500F015C6F000120EECF
:1010E00001F0DB51D926DC51DA22DF500F015D6FB0
:1010F000030E0F015F13DBC0D9FFDCC0DAFFDF5046
:101100000F015C6FFFEC13F01200FCEC0FF0100EFF
:101110000101EF5D270E0101F059D8A005D0270E7F
:101120000101F06F0F0EEF6FF40E0001D96F010E89
:101130000001DA6FEDC1DBF0EEC1DCF0E9EC10F09C
:10114000F80E0001E16F010E0001E26FEFC1E3F064
:10115000F0C1E4F0B7EC03F0F40E0001D96F010E1A
:101160000001DA6F080E0001DB6F15EC0FF0030EC3
:101170000101F16503D0030E0101F16F0F015FB7AB
:1011800014D00101F1510101F26FF36B040E010162
:10119000F227000EF323F40E0101F225D96E010EA1
:1011A0000101F321DA6E200EDF6EF40E0001EC6F08
:1011B000010E0001ED6F77EC0DF084EC0EF01200E3
:1011C0000F015FA707D0000E0001E96F010EAEEC22
:1011D0000DF049D02CEC11F086C0F7F1ED0E0001B6
:1011E000D96F010E0001DA6FF7C1DBF0CFEC0FF021
:1011F00087C0F7F1EF0E0001D96F010E0001DA6F21
:10120000F7C1DBF0CFEC0FF084C0F7F1F10E000175
:10121000D96F010E0001DA6FF7C1DBF0CFEC0FF0F0
:1012200085C0F7F1F30E0001D96F010E0001DA6FEE
:10123000F7C1DBF0CFEC0FF0000E0101F56FED0E02
:101240000001EC6F010E0001ED6F77EC0DF0010E67
:101250000001E96F010EAEEC0DF0010E0001E96F27
:10126000050EAEEC0DF03C0E29EC10F084EC0EF007
:101270001200D9C0D9FFDAC0DAFF050EDF6E000117
:1012800020EE01F0D951D926DA51DA22DBC0DFFF96
:10129000000120EE02F0D951D926DA51DA22830E6C
:1012A000DE6E850EDD6E000120EE06F0D951D926E6
:1012B000DA51DA22D80EDE6E220EDD6E000120EE4B
:1012C00008F0D951D926DA51DA228E0EDE6E230EBD
:1012D000DD6E000120EE0AF0D951D926DA51DA226A
:1012E000C80EDE6E1B0EDD6E000120EE0CF0D95133
:1012F000D926DA51DA22880EDE6E1E0EDD6E00016E
:1013000020EE0EF0D951D926DA51DA22460EDE6EE1
:10131000270EDD6E1200000E0001DE6F0001DAAF55
:1013200008D00001D96DDA1FD8B0DA2B010E000108
:10133000DE6F0001DCAF05D00001DB6DDC1FD8B033
:10134000DC2B0001DB510001DC11D8B426D0010EEA
:101350000001DD6F06D00001D890DB37DC370001DB
:10136000DD2B0001DCAFF7D70001DB510001D95DB7
:101370000001DC510001DA59D8A008D00001DB518E
:101380000001D95F0001DC510001DA5B0001D89057
:10139000DC33DB330001DD2FE7D70001DE51000134
:1013A000D8B405D00001D96DDA1FD8B0DA2BD9C076
:1013B000D9F0DAC0DAF012000101F36F20EEF0F09C
:1013C00011EEEDF0050EDBCFE3FFE806FCE2000EC8
:1013D0009DEC12F0ED0E0001EC6FFF0E0001ED6FC1
:1013E000C7EC10F0010E85EC12F0F3C1F4F101012D
:1013F000F4510101D8A429D0010E0101F46F25D0C8
:10140000EE0E0001D96F010E0001DA6F0101F40543
:101410000001DB6FCFEC0FF0000E0101F16FED0E5C
:101420000001EC6F010E0001ED6F0BEC11F03C0EB2
:1014300029EC10F084EC0EF0030E0001DA6FE80ED8
:10144000D96FFDEC12F00101F4070101F451010123
:10145000D8B41200D5D70001EA6F0001E951E6ECDB
:101460000EF00001EB6F28D00001EB516FEC0CF097
:1014700012000001EB5127EC0CF012000001EB51BF
:10148000DFEC0BF012000001EB5197EC0BF01200B7
:101490000001EB514FEC0BF012000001EB5107EC97
:1014A0000BF012000001EB51BFEC0AF0120000013A
:1014B000EB5177EC0AF012000001EA51000AD8B4AF
:1014C000D3D7010AD8B4D5D7030AD8B4D7D7010ADD
:1014D000D8B4D9D7070AD8B4DBD7010AD8B4DDD736
:1014E000030AD8B4DFD7010AD8A41200E0D7206ECF
:1014F000130E0001E16F2050080B0001E26F000E97
:10150000A9EC06F0130E0001E16F2050100B000152
:10151000E26F010EA9EC06F0130E0001E16F2050FE
:10152000200B0001E26F020EA9EC06F0130E000181
:10153000E16F2050010B0001E26F030EA9EC06F0F1
:10154000280E0001E16F2050040B0001E26F010E34
:10155000A9EC06F0280E0001E16F2050400B0001BD
:10156000E26F020EA9EC06F0280E0001E16F205098
:10157000020B0001E26F030EA9EC06F01200206ED0
:101580000E0E0001E16F2050080B0001E26F000E0B
:10159000A9EC06F00E0E0001E16F2050100B0001C7
:1015A000E26F010EA9EC06F00E0E0001E16F205073
:1015B000200B0001E26F020EA9EC06F00E0E0001F6
:1015C000E16F2050010B0001E26F030EA9EC06F061
:1015D0000F0E0001E16F2050040B0001E26F010EBD
:1015E000A9EC06F00F0E0001E16F2050400B000146
:1015F000E26F020EA9EC06F00F0E0001E16F205021
:10160000020B0001E26F030EA9EC06F01200206E3F
:10161000260E0001E16F2050080B0001E26F000E62
:10162000A9EC06F0260E0001E16F2050100B00011E
:10163000E26F010EA9EC06F0260E0001E16F2050CA
:10164000200B0001E26F020EA9EC06F0260E00014D
:10165000E16F2050010B0001E26F030EA9EC06F0D0
:10166000270E0001E16F2050040B0001E26F010E14
:10167000A9EC06F0270E0001E16F2050400B00019D
:10168000E26F020EA9EC06F0270E0001E16F205078
:10169000020B0001E26F030EA9EC06F01200206EAF
:1016A000240E0001E16F2050080B0001E26F000ED4
:1016B000A9EC06F0240E0001E16F2050100B000190
:1016C000E26F010EA9EC06F0240E0001E16F20503C
:1016D000200B0001E26F020EA9EC06F0240E0001BF
:1016E000E16F2050010B0001E26F030EA9EC06F040
:1016F000250E0001E16F2050040B0001E26F010E86
:10170000A9EC06F0250E0001E16F2050400B00010E
:10171000E26F020EA9EC06F0250E0001E16F2050E9
:10172000020B0001E26F030EA9EC06F01200206E1E
:101730002B0E0001E16F2050010B0001E26F000E43
:10174000A9EC06F02B0E0001E16F2050200B0001E8
:10175000E26F010EA9EC06F02B0E0001E16F2050A4
:10176000100B0001E26F020EA9EC06F02B0E000137
:10177000E16F2050080B0001E26F030EA9EC06F0A8
:101780002A0E0001E16F2050020B0001E26F000EF3
:10179000A9EC06F02A0E0001E16F2050400B000179
:1017A000E26F010EA9EC06F02A0E0001E16F205055
:1017B000040B0001E26F020EA9EC06F01200206E8D
:1017C000150E0001E16F2050010B0001E26F000EC9
:1017D000A9EC06F0150E0001E16F2050200B00016E
:1017E000E26F010EA9EC06F0150E0001E16F20502A
:1017F000100B0001E26F020EA9EC06F0150E0001BD
:10180000E16F2050080B0001E26F030EA9EC06F017
:10181000140E0001E16F2050020B0001E26F000E78
:10182000A9EC06F0140E0001E16F2050400B0001FE
:10183000E26F010EA9EC06F0140E0001E16F2050DA
:10184000040B0001E26F020EA9EC06F01200206EFC
:10185000170E0001E16F2050010B0001E26F000E36
:10186000A9EC06F0170E0001E16F2050200B0001DB
:10187000E26F010EA9EC06F0170E0001E16F205097
:10188000100B0001E26F020EA9EC06F0170E00012A
:10189000E16F2050080B0001E26F030EA9EC06F087
:1018A000160E0001E16F2050020B0001E26F000EE6
:1018B000A9EC06F0160E0001E16F2050400B00016C
:1018C000E26F010EA9EC06F0160E0001E16F205048
:1018D000040B0001E26F020EA9EC06F01200206E6C
:1018E000190E0001E16F2050010B0001E26F000EA4
:1018F000A9EC06F0190E0001E16F2050200B000149
:10190000E26F010EA9EC06F0190E0001E16F205004
:10191000100B0001E26F020EA9EC06F0190E000197
:10192000E16F2050080B0001E26F030EA9EC06F0F6
:10193000180E0001E16F2050020B0001E26F000E53
:10194000A9EC06F0180E0001E16F2050400B0001D9
:10195000E26F010EA9EC06F0180E0001E16F2050B5
:10196000040B0001E26F020EA9EC06F01200B40EA7
:10197000F66E270EF76E000EF86E00EEF0F010EE29
:1019800010F00900F5CFEEFFE550E150FAE104EE6A
:1019900000F011EE00F0EE6AE550E150FCE1E2509B
:1019A000FAE103EE00F011EE00F0EE6AE550E150CE
:1019B000FCE1E250FAE102EE00F0A20EEE6AE80667
:1019C000FDE101EE00F0ED0EEE6AE806FDE100EE4D
:1019D00060F0790EEE6AE806FDE100EE21F01F0EE0
:1019E000EE6AE806FDE140904092000EF86E0001BC
:1019F00044EF06F0070E0001E26FD00EE16FA40E77
:101A00000001E36F020E0001E46F8BEC11F0E1C006
:101A1000A2F2E2C0A3F2D00E0201A25D070E020103
:101A2000A359D8A010D0040E0201A419D8A403D041
:101A300007EC14F01DD0050E0001C519D8A418D06C
:101A40006CEC07F015D00001C505D8A403D0A9ECB3
:101A500011F00ED0020E0001C519D8A403D037EC46
:101A600012F006D0040E0001C519D8B442EC13F0F0
:101A70007FEC13F01200000E0001E16F000EE06F2A
:101A80000001DD510001DE11D8B42CD0010E00019F
:101A9000DF6F06D00001D890DD37DE370001DF2B85
:101AA0000001DEAFF7D70001D890E037E137000141
:101AB000DD510001DB5D0001DE510001DC59D8A0E1
:101AC0000AD00001DD510001DB5F0001DE510001A1
:101AD000DC5B0001E0810001D890DE33DD330001E2
:101AE000DF2FE1D7E0C0DBF0E1C0DCF01200000E38
:101AF0000001EE6F1BD0ECC0F6FFEDC0F7FFF86AF7
:101B00000F0EF76403D00800F55005D0F6CFE9FFBB
:101B1000F7CFEAFFEF500001E96F0001EE512BEC27
:101B20000AF00001EC4BED2B0001EE2BECC0F6FFB0
:101B3000EDC0F7FFF86A0F0EF76403D00800F55008
:101B400005D0F6CFE9FFF7CFEAFFEF500009D8B490
:101B50001200070E0001EE65CED712000001EA6FF9
:101B60001ED00001E951E5EC12F012000001E9512C
:101B7000CDEC12F012000001E951B5EC12F01200A8
:101B80000001E951E5EC12F012000001E951CDEC41
:101B900012F012000001E951B5EC12F01200000140
:101BA000EA51000AD8B4DDD7010AD8B4DFD7030A56
:101BB000D8B4E1D7060AD8B4E3D7010AD8B4E5D738
:101BC000030AD8A41200E6D70001D96F949694981E
:101BD0008B96000E0001DA6F070E0001DA6501D066
:101BE00026D00001D9AF02D08B8801D08B988B868C
:101BF00000F000F000F000F000F000F000F000F065
:101C000000F000F000F000F08B9600F000F000F023
:101C100000F000F000F000F000F000F000F000F044
:101C200000F00001D890D9370001DA2BD5D744EC69
:101C30000FF012000001DF6F000E0001E16F000ED7
:101C4000E06FC280DFC020F020462046C25020183E
:101C5000C30B2018C26E000E0001DA6F020ED96F9E
:101C6000E5EC11F0C28201D000F0C2B2FDD7C4CFC2
:101C7000E0F00001E16B0001E051E16FE06BC35067
:101C80000001E013000E0001DA6F020ED96FE5ECDF
:101C900011F0C290E0C0DDF0E1C0DEF01200000EF5
:101CA0000001D96F94969488000E0001DA6F070E38
:101CB0000001DA6501D024D00001D890D9378B9685
:101CC00000F000F000F000F000F000F000F000F094
:101CD00000F000F000F000F08B8600F000F000F063
:101CE00000F000F000F000F000F000F000F000F074
:101CF00000F082A802D00001D9810001DA2BD7D7E9
:101D00008B960001D951120060C0BBFF61C0BCFFBF
:101D100062C0BDFF63C0BEFF64C0BFFF65C06BFF94
:101D200066C06CFF67C06DFF68C06EFF69C06FFF63
:101D30006AC070FF6BC071FF6CC072FF6DC073FF33
:101D40006EC074FF6FC075FF70C076FF71C077FF03
:101D500072C078FF73C079FF74C07AFF75C07BFFD3
:101D600076C07CFF77C07DFF12000001E4510001C6
:101D7000E511D8B426D0010E0001E66F06D00001AF
:101D8000D890E437E5370001E62B0001E5AFF7D73F
:101D90000001E4510001E25D0001E5510001E35959
:101DA000D8A008D00001E4510001E25F0001E55134
:101DB0000001E35B0001D890E533E4330001E62F36
:101DC000E7D7E2C0E2F0E3C0E3F012000001D96F10
:101DD000000E0001DB6F280E0001DB6501D012D080
:101DE0000001DB51010DBB0EF324F66EFE0EF42054
:101DF000F76E0800F5500001D919D8B403D00001DE
:101E0000DB2BE9D7290E0001DB610CD00001DB518F
:101E1000010DE40EF324F66EFE0EF420F76E0800BA
:101E2000F5CFDAF00001DA511200000E206E1AD060
:101E30002050010DF3500001D925D96EF450000156
:101E4000DA21DA6EDF50D8A40CD02050010DF35007
:101E50000001D925D96EF4500001DA21DA6E200E86
:101E6000DF6E202A0001DB51205CD8A0E1D7205092
:101E7000010DF3500001D925D96EF4500001DA218B
:101E8000DA6E000EDF6E1200C80E206E94969488F3
:101E90008B9600F000F000F000F000F000F000F091
:101EA00000F000F000F000F000F08B8600F000F091
:101EB00000F000F000F000F000F000F000F000F0A2
:101EC00000F000F002D082A804D020062028D8A478
:101ED000FAD72050D8A404D0C7EC11F0000E12009D
:101EE0008B96010E1200000E0001DF6F0001E06909
:101EF0000E0E931281500E0B0001E06F0001E051B5
:101F00000E0B0E0AD8B41AD0000E0001DE6F0A0EB6
:101F1000DD6F6CEC13F081500E0B0001E06F0001DF
:101F2000E0B702D00001DF810001E0B502D000017E
:101F3000DF830001E0B302D00001DF850001DF5143
:101F40001200206E1ED0000E0001DA6F010ED96F54
:101F50001200000E0001DA6F0A0ED96F1200000E97
:101F60000001DA6F640ED96F1200030E0001DA6F00
:101F7000E80ED96F1200270E0001DA6F100ED96F2C
:101F800012002050000AD8B4DED7020AD8B4E1D734
:101F9000010AD8B4E4D7070AD8B4E7D7ECD7DBC036
:101FA00020F0203A0F0E20160F0E20162050010DA3
:101FB0000C0EF324F66EFF0EF420F76ED9C0D9FF95
:101FC000DAC0DAFF0800F5CFDFFFDBC020F00F0E2C
:101FD00020162050010D0C0EF324F66EFF0EF42097
:101FE000F76E000120EE01F0D951D926DA51DA223C
:101FF0000800F5CFDFFF1200E40E0001EC6FFF0ECA
:102000000001ED6F77EC0DF0000E0001E96F000E9E
:10201000AEEC0DF0000E0001E96F010EAEEC0DF01C
:10202000000E0001E96F020EAEEC0DF0000E000193
:10203000E96F040EAEEC0DF0000E0001E96F050E25
:10204000AEEC0DF0000E0001E96F060EAEEC0DF0E7
:1020500012000001EB6F620E0001EB6503D0630E0E
:102060000001EB6F0001D890EB33000E0001EC6F24
:1020700008D0010E206E0001EC5170EC00F0000160
:10208000EC2B0001EB510001EC5DD8A0F2D7310E32
:102090000001EC6501D01200000E206E0001EC5131
:1020A00070EC00F00001EC2BF2D7000E0001EE6F97
:1020B000F40E0001EF6F000120EE10F0EE51D92672
:1020C000EF51DA22DECF21F0DECF22F0DECF23F097
:1020D000DECF24F021C0E6F022C0E7F023C0E8F014
:1020E00024C0E9F066EC04F0E6C021F0E7C022F07D
:1020F000E8C023F0E9C024F0000E3F6E1200206E0D
:10210000949694988B962050D8B402D08B8801D0A6
:102110008B9800F000F000F000F000F000F000F00C
:1021200000F000F000F000F000F08B8600F000F00E
:1021300000F000F000F000F000F000F000F000F01F
:1021400000F000F08B961200E3C0DDF0E4C0DEF09A
:10215000000E0001DF6FD9EC02F0DDC0E6F0DEC05A
:10216000E7F0E3C0D9FFE4C0DAFF030EDF600AD076
:102170000001E63BE73B0F0EE617E751F00BE613D5
:102180000F0EE717E6C0E3F0E7C0E4F01200000E20
:102190000001EE6F10D0ECC0F6FFEDC0F7FF0800B5
:1021A000F5CFE9F00001EE512BEC0AF00001EC4B09
:1021B000ED2B0001EE2BECC0F6FFEDC0F7FF0800A1
:1021C000F5500009D8B41200030E0001EE65E3D704
:1021D000120011D0DBC0F6FFDCC0F7FFD9C0D9FF79
:1021E000DAC0DAFF0800F5CFDFFF0001DB4BDC2BA4
:1021F0000001D94BDA2BDBC0F6FFDCC0F7FF08008B
:10220000F5500009D8A4E6D7D9C0D9FFDAC0DAFF63
:10221000000EDF6E1200000E0001EE6F11D0ECC058
:10222000D9FFEDC0DAFFDF500001E96F0001EE5188
:10223000040F2BEC0AF00001EC4BED2B0001EE2B10
:10224000ECC0D9FFEDC0DAFFDF50D8B41200030EA6
:102250000001EE65E4D71200030E0F015F135CCF9F
:1022600083F05DCF20F00F015F51FC0B02095F6F1F
:102270005CCF85F05DCF84F00F015F51FC0B01094D
:102280005F6F5CCF86F05DCF89F0FC0E0F015F17AA
:102290005CCF88F05DCF87F012000F0154950F01DD
:1022A00054830F015F950F015A690F015B8F0F0176
:1022B0005B8D0F015B955B975B995B9B00F0F9EC85
:1022C00013F00F015F8FFFEC13F000F0A580A490D6
:1022D000A380CD8600F01200949694988B888B860C
:1022E00000F000F000F000F000F000F000F000F06E
:1022F00000F000F000F000F08B9800F000F000F02B
:1023000000F000F000F000F000F000F000F000F04D
:1023100000F08B961200000E2E6E000E2D6E06D071
:1023200073EC0FF0206E2050D8B408D00001E151BA
:102330002D5C0001E2512E58D8A0F2D7E3C0D9FF9E
:10234000E4C0DAFF20C0DFFF2DC0E1F02EC0E2F0D4
:1023500012000FD03F0E0001D96F000E0001DA6F9E
:10236000000E0001DB6F030E0001DC6F6BEC12F05E
:1023700012003C50000AD8B41200010AD8B412006E
:10238000030AD8B41200120AD8A41200E3D7949614
:1023900094988B9800F000F000F000F000F000F04E
:1023A00000F000F000F000F000F000F08B8600F08C
:1023B00000F000F000F000F000F000F000F000F09D
:1023C00000F000F000F08B881200000E0001DC6FBE
:1023D000000EDB6F0BD000F000F000F000F000F01A
:1023E00000F000F000F00001DB4BDC2B0001D951C4
:1023F0000001DB5D0001DA510001DC59D8B01200A8
:10240000EAD70001DB510001DD03F3CFDFF0F4CFA9
:10241000E0F00001DB510001DE03F3500001E02792
:102420000001DC510001DD03F3500001E027DFC0B3
:10243000DBF0E0C0DCF01200D20E296E010E2A6E35
:1024400029C0D9F02AC0DAF0900E0001DB6F39EC18
:1024500009F0C20E2B6E010E2C6E2BC0D9F02CC0D1
:10246000DAF0920E0001DB6F39EC09F012000BD0AC
:102470003D0E0001E76F000E0001E86F3FC0E9F07C
:1024800069EC05F012003C50000AD8B41200010AB1
:10249000D8B41200030AD8B41200120AD8A4120049
:1024A000E7D7000E0001DB6FF40E0001DC6F0001C6
:1024B00020EE06F0DB51D926DC51DA22DECFD9F04E
:1024C000DDCFDAF0D9C021F0DAC022F0236A246A25
:1024D000000E3F6E1200D9C0D9FFDAC0DAFFDF501C
:1024E000206E0001DC510001DB5DD8A01200202A23
:1024F00020500001DC5DD8A0DBC020F0D9C0D9FF9E
:10250000DAC0DAFF20C0DFFF1200206E2050D8B4FE
:102510000AD00D0E0001E16F010E0001E26F020E04
:10252000A9EC06F012000D0E0001E16F000E000193
:10253000E26F020EA9EC06F012000001D96F000E46
:102540000001DA6F170E0001DA6501D012000001F8
:10255000DA51010D600EF324D96E000EF420DA6E0C
:10256000D9C0DFFF0001DA2BEDD7206E2050D8B4A0
:102570000AD0140E0001E16F800E0001E26F030E1D
:10258000A9EC06F01200140E0001E16F000E00012C
:10259000E26F030EA9EC06F01200206E2050D8B4B2
:1025A0000AD0160E0001E16F800E0001E26F030EEB
:1025B000A9EC06F01200160E0001E16F000E0001FA
:1025C000E26F030EA9EC06F01200206E2050D8B482
:1025D0000AD0180E0001E16F800E0001E26F030EB9
:1025E000A9EC06F01200180E0001E16F000E0001C8
:1025F000E26F030EA9EC06F01200000E286E000E2A
:10260000276E010E376E01D000F00001D951275C12
:102610000001DA512858D8A0F7D7000E376E000E07
:10262000286E000E276E12003F0ED26EAA9EAA9C44
:10263000AA96AA84AA92AA90A968E00EB66EF80E8D
:10264000B76EC30EB86EFE0EB96ECF0EBA6E000E28
:102650009DEC12F01200000E0001D96FF40E000183
:10266000DA6F000120EE04F0D951D926DA51DA22CE
:10267000DF50206E2050216E226A236A246A000EE9
:102680003F6E120009D0000E3E6E000E3D6E000E31
:102690003F6E100E3C6E12003C50000AD8B4F3D7C7
:1026A000010AD8B4F0D7030AD8A41200ECD7E0C0CE
:1026B000DBF0E1C0DCF0010E0001DD6F000120EE77
:1026C00002F0E051D926E151DA22DECFDEF0DDCF93
:1026D000DFF0E9EC04F012000BD0030E0001DA6F1A
:1026E000E80ED96FE5EC11F00001DD07D8A0DE0798
:1026F0000001DD510001DE11D8B41200EED703D085
:10270000B3EC13F012003C50000AD8B41200010AD6
:10271000D8B41200030AD8B41200120AD8A41200C6
:10272000EFD70D0EC16EC08EC086C088C08AC08033
:10273000C082C084C28EC250C30B0C09C26E9E9C64
:102740009D9C9F9C12000001DB6F000E0001DC6F5E
:102750004FEC0EF00001DC6F0001DB517FEC10F05C
:102760000001DC511200F20E0101ED6FFF0E0101BC
:10277000EE6F3DC0EFF13EC0F0F13FC0F1F185ECEE
:1027800008F012003750D8B404D00A0E2726000EE5
:1027900028220A0E2D26000E2E2212003750D8B401
:1027A00004D00A0E2726000E28220A0E2D26000E1F
:1027B0002E2212002D30302D000000F400170731BA
:1027C00023555502EAEC13F04DEC11F0F28CF28E29
:1027D000D09E12006C0ECB6E9F829E929D827F0EC9
:1027E000CA6E120014EC13F005EC14F08F0EA86EF4
:1027F0001200550EA76EAA0EA76E5F8B1200550E23
:10280000A76EAA0EA76E5F9B120098881200120096
:1028100012001200AA00AA00AA00AA00AA00AA0098
:10282000AA00AA00AA00AA00AA00AA00AA00AA0058
:10283000AA00AA00AA00AA00AA00AA00AA00AA0048
:10284000AA00AA00AA00AA00AA00AA00AA00AA0038
:10285000AA00AA00AA00AA00AA00AA00AA00AA0028
:10F99000AA00000000000052499D3952499D3AC317
:10F9A000642A3B75029A3BD734EF3BC3642A3C423E
:10F9B00060653C2B18953C11C7BA3C4260E53C277A
:10F9C000A0093D789C223D12A53D3D1A515A3D901B
:10F9D000A0783D287E8C3DBF7D9D3DA01AAF3DA502
:10F9E000BDC13DF4FDD43DF90FE93D48BFFD3D27C4
:10F9F000A0093E4FAF143E1B0D203E569F2B3E6B81
:10FA00009A373E26E4433E4E62503E1B2F5D3E55E4
:10FA1000306A3E3480773E2575823E8351893E1799
:10FA200048903EC74B973EAD699E3ECBA1A53E0494
:10FA3000E7AC3E5839B43EE3A5BB3E6F12C33E313E
:10FA400099CA3EF31FD23EECC0D93ECA54E13EDE15
:10FA500002E93ED7A3F03EEC51F83E0000003F0A19
:10FA6000D7033F14AE073F917E0B3F9B550F3F18C6
:10FA700026133F07F0163F68B31A3FC9761E3F0EA4
:10FA80002D223F54E3253F7E8C293F1B2F2D3F29FC
:10FA9000CB303F1D5A343F82E2373F3F573B3F6DEB
:10FAA000C53E3FF31F423FEB73453F39B4483F6DBE
:10FAB000E74B3FF7064F3F6519523F2B18553F471D
:10FAC00003583F2CD45A3FF6975D3F1748603F01DB
:10FAD000DE623F4260653F4BC8673FAC1C6A3F48EF
:10FAE000506C3F3B706E3F696F703FEE5A723FAF94
:10FAF00025743F39D6753FFE65773FFED4783FC702
:10FB0000297A3F3F577B3F7F6A7C3F6D567D3F247C
:10FB1000287E3FFBCB7E3F9B557F3F5BB17F3F57AE
:10FB2000EC7F3F0000803F0000000089D2DE3A52A7
:10FB3000499D3B728A0E3CAC8B5B3CBE30993C3994
:10FB4000B4C83C4850FC3C9A99193D7DAE363DF412
:10FB5000FD543DD8F0743D96438B3D9A779C3DE92A
:10FB600048AE3D80B7C03DF38ED33D42CFE63DDA8F
:10FB7000ACFA3DA779073E4ED1113E645D1C3EB004
:10FB800003273EA1F8313E91ED3C3E2731483EF33C
:10FB90008E533EF7065F3E68B36A3E107A763E7734
:10FBA0002D813E022B873EC4428D3E865A933E6392
:10FBB0007F993E5BB19F3E6FF0A53E9F3CAC3ECE31
:10FBC00088B23E19E2B83E643BBF3ECBA1C53E4D74
:10FBD00015CC3ECE88D23E50FCD83ED26FDF3E6F71
:10FBE000F0E53E0D71EC3EAAF1F23E637FF93E0076
:10FBF00000003F4F40033F2B87063F7AC7093FC8AD
:10FC0000070D3F1748103FD881133F99BB163F5A45
:10FC1000F5193F1B2F1D3F4E62203FF38E233F9966
:10FC2000BB263FB1E1293FC8072D3F5227303F4F48
:10FC300040333FBD52363F9E5E393F7F6A3C3F4472
:10FC4000693F3F7C61423F2653453F423E483F4328
:10FC50001C4B3FB6F34D3F9CC4503FD881533F14DB
:10FC60003F563FA7E8583FAC8B5B3F96215E3F6510
:10FC7000AA603F1826633F228E653F10E9673FE385
:10FC8000366A3F0D716C3F8D976E3FF2B0703F2129
:10FC9000B0723F1895743F6666763F7E1D783F5E72
:10FCA000BA793F7A367B3FD1917C3FD6C57D3F6D97
:10FCB000C57E3F97907F3F0000803F00C0C101C3D9
:10FCC0000302C2C60607C705C5C404CC0C0DCD0F80
:10FCD000CFCE0E0ACACB0BC90908C8D81819D91B30
:10FCE000DBDA1A1EDEDF1FDD1D1CDC14D4D515D7B0
:10FCF0001716D6D21213D311D1D010F03031F13300
:10FD0000F3F23236F6F737F53534F43CFCFD3DFFBF
:10FD10003F3EFEFA3A3BFB39F9F83828E8E929EB8F
:10FD20002B2AEAEE2E2FEF2DEDEC2CE42425E527EF
:10FD3000E7E62622E2E323E12120E0A06061A1635F
:10FD4000A3A26266A6A767A56564A46CACAD6DAFFF
:10FD50006F6EAEAA6A6BAB69A9A86878B8B979BBAF
:10FD60007B7ABABE7E7FBF7DBDBC7CB47475B5772F
:10FD7000B7B67672B2B373B17170B05090915193BF
:10FD800053529296565797559594549C5C5D9D5F3F
:10FD90009F9E5E5A9A9B5B99595898884849894B0F
:10FDA0008B8A4A4E8E8F4F8D4D4C8C44848545876F
:10FDB000474686824243834181804000C1814001A1
:10FDC000C0804101C0804100C1814001C08041002C
:10FDD000C1814000C1814001C0804101C08041001B
:10FDE000C1814000C1814001C0804100C18140010A
:10FDF000C0804101C0804100C1814001C0804100FC
:10FE0000C1814000C1814001C0804100C1814001E9
:10FE1000C0804101C0804100C1814000C1814001DA
:10FE2000C0804101C0804100C1814001C0804100CB
:10FE3000C1814000C1814001C0804101C0804100BA
:10FE4000C1814000C1814001C0804100C1814001A9
:10FE5000C0804101C0804100C1814000C18140019A
:10FE6000C0804101C0804100C1814001C08041008B
:10FE7000C1814000C1814001C0804100C181400179
:10FE8000C0804101C0804100C1814001C08041006B
:10FE9000C1814000C1814001C0804101C08041005A
:10FEA000C1814000C1814001C0804100C181400149
:10FEB000C0804101C0804100C181403031323334C3
:10FEC00035363738396162636465666768696A6BBD
:10FED0006C6D6E6F707172737475767778797A2E37
:10FEE0002D3A20003F065B4F666D7D077F6F777C64
:10FEF000395E79716F76060E7A3800375C73675019
:10FF00006D783E0000006E5B404048003031323377
:10FF10003435363738396162636465660000000045
:10FF200000005FE803102700008813000038FFFF7F
:10FF3000FF000000000000000000000000000000C2
:10FF400000000000000000000000000000000000B1
:10FF500000000000000000000000000000000000A1
:10FF600000000000000000000000000000281E1437
:10FF70000A0000000000000000E8030000E80300A1
:10FF8000000000000000000000E8030000E803009B
:10FF90000000000000E803000000000000E803008B
:10FFA00000000030313233343536373839303132B1
:10FFB00033343536373839303132333435363738F3
:10FFC00039303132333435363738393031323334F1
:10FFD00035363738393031323334353637383930D1
:10FFE000313233002020202020202020006373366F
:08FFF00036002070736400006C
:06FFF80080F414FFF2F199
:00000001FF
