:100000006CEF00F0AA00AA0040826AEF37F0AA0065
:10001000AA00AA00AA00AA004080D8CF0FF0E8CF1B
:1000200010F0E0CF11F0FACF12F0FBCF13F0E9CFD0
:1000300014F0EACF15F0E1CF16F0E2CF17F0D9CFE8
:1000400018F0DACF19F0F3CF1AF0F4CF1BF0F6CF97
:100050001CF0F7CF1DF0F8CF1EF0F5CF1FF09DB2CA
:100060009EA20DD09FB20BD09E92010E01013A27A5
:10007000000E3B233C233D232E8004EC51F0A3B023
:10008000A4A006D0A5B004D0A4902E82DEEC51F03E
:100090001FC0F5FF1EC0F8FF1DC0F7FF1CC0F6FF14
:1000A0001BC0F4FF1AC0F3FF19C0DAFF18C0D9FF54
:1000B00017C0E2FF16C0E1FF15C0EAFF14C0E9FF58
:1000C00013C0FBFF12C0FAFF11C0E0FF10C0E8FF31
:1000D0000FC0D8FF4090100070EF3CF010C260F0ED
:1000E00011C261F012C262F013C263F0010EDAECC9
:1000F0001FF060C0D2F361C0D3F362C0D4F363C019
:10010000D5F314C260F015C261F016C262F017C2D6
:1001100063F0010EDAEC1FF060C0D6F361C0D7F3D4
:1001200062C0D8F363C0D9F3CAC360F0CBC361F037
:10013000CCC362F0CDC363F0010EDAEC1FF060C0F7
:10014000DEF361C0DFF362C0E0F363C0E1F30CC231
:1001500060F00DC261F00EC262F00FC263F0000EDB
:10016000DAEC1FF060C0DAF361C0DBF362C0DCF3ED
:1001700063C0DDF3DEC3B8F0DFC3B9F0E0C3BAF0AB
:10018000E1C3BBF0000E00018B6F000E8C6F800E80
:100190008D6F400E8E6FDAC387F0DBC388F0DCC34F
:1001A00089F0DDC38AF0A9EC11F087C0BCF088C0EB
:1001B000BDF089C0BEF08AC0BFF05DEC23F0000145
:1001C000D8B070D0000E0001726F000E736F000E79
:1001D000746F400E756FDEC36EF0DFC36FF0E0C367
:1001E00070F0E1C371F008EC0BF06EC087F06FC0E7
:1001F00088F070C089F071C08AF0DAC38BF0DBC37D
:100200008CF0DCC38DF0DDC38EF0A9EC11F087C05B
:10021000DEF388C0DFF389C0E0F38AC0E1F31D0E8E
:100220000001C46FEF0E0001C56FDEC3C6F0DFC36F
:10023000C7F0E0C3C8F0E1C3C9F0000E0001CB6F06
:10024000650ECA6F95EC0FF0C4C0DEF3C5C0DFF3D6
:10025000C6C0E0F3C7C0E1F314C260F015C261F09C
:1002600016C262F017C263F0010EDAEC1FF060C034
:10027000D6F361C0D7F362C0D8F363C0D9F3D6C355
:10028000B8F0D7C3B9F0D8C3BAF0D9C3BBF043ECC8
:100290002EF0B8C0CAF3B9C0CBF3BAC0CCF3BBC020
:1002A000CDF31200DEC3B8F0DFC3B9F0E0C3BAF09B
:1002B000E1C3BBF008C260F009C261F00AC262F09B
:1002C0000BC263F0010EDAEC1FF060C0A8F061C051
:1002D000A9F062C0AAF063C0ABF0000E00018B6F02
:1002E000000E8C6F800E8D6F400E8E6FDAC387F01C
:1002F000DBC388F0DCC389F0DDC38AF0A9EC11F020
:1003000087C0A4F088C0A5F089C0A6F08AC0A7F075
:10031000B4EC08F0A4C0BCF0A5C0BDF0A6C0BEF00F
:10032000A7C0BFF05DEC23F00001D8B0AED0000E46
:1003300000018B6F000E8C6F800E8D6F400E8E6FE4
:10034000DAC387F0DBC388F0DCC389F0DDC38AF051
:10035000A9EC11F087C0A0F088C0A1F089C0A2F07C
:100360008AC0A3F076EC4DF0A0C0A4F0A1C0A5F027
:10037000A2C0A6F0A3C0A7F0DEC3A8F0DFC3A9F017
:10038000E0C3AAF0E1C3ABF0B4EC08F0A4C0DEF324
:10039000A5C0DFF3A6C0E0F3A7C0E1F308C260F098
:1003A00009C261F00AC262F00BC263F0010EDAEC1E
:1003B0001FF060C08BF061C08CF062C08DF063C034
:1003C0008EF0DEC387F0DFC388F0E0C389F0E1C3BD
:1003D0008AF0A9EC11F087C06EF088C06FF089C078
:1003E00070F08AC071F0D6C372F0D7C373F0D8C36F
:1003F00074F0D9C375F008EC0BF06EC0D6F36FC083
:10040000D7F370C0D8F371C0D9F3D2C387F0D3C388
:1004100088F0D4C389F0D5C38AF0000E00018B6F39
:10042000000E8C6F000E8D6F400E8E6FA9EC11F0D8
:1004300087C0D2F388C0D3F389C0D4F38AC0D5F380
:10044000D6C3A8F0D7C3A9F0D8C3AAF0D9C3ABF0DC
:10045000D2C3A4F0D3C3A5F0D4C3A6F0D5C3A7F0EC
:10046000B4EC08F0A4C0B8F0A5C0B9F0A6C0BAF0CA
:10047000A7C0BBF043EC2EF0B8C0CAF3B9C0CBF3B1
:10048000BAC0CCF3BBC0CDF31200000E00018B6FDD
:10049000000E8C6F000E8D6F400E8E6FDAC387F0EA
:1004A000DBC388F0DCC389F0DDC38AF0A9EC11F06E
:1004B00087C0A8F088C0A9F089C0AAF08AC0ABF0B4
:1004C00008C260F009C261F00AC262F00BC263F0B8
:1004D000010EDAEC1FF060C0A4F061C0A5F062C0AC
:1004E000A6F063C0A7F0B4EC08F0A4C0B8F0A5C0B3
:1004F000B9F0A6C0BAF0A7C0BBF0DEC3BCF0DFC342
:10050000BDF0E0C3BEF0E1C3BFF05DEC23F000013D
:10051000D8B038D008C260F009C261F00AC262F0F7
:100520000BC263F0010EDAEC1FF060C0A4F061C0F2
:10053000A5F062C0A6F063C0A7F0000E00018B6FAB
:10054000000E8C6F000E8D6F400E8E6FDAC387F039
:10055000DBC388F0DCC389F0DDC38AF0A9EC11F0BD
:1005600087C0A8F088C0A9F089C0AAF08AC0ABF003
:10057000B4EC08F0A4C0DEF3A5C0DFF3A6C0E0F33E
:10058000A7C0E1F308C260F009C261F00AC262F0DC
:100590000BC263F0010EDAEC1FF060C0A8F061C07E
:1005A000A9F062C0AAF063C0ABF0000E00018B6F2F
:1005B000000E8C6F800E8D6F400E8E6FDAC387F049
:1005C000DBC388F0DCC389F0DDC38AF0A9EC11F04D
:1005D00087C0A4F088C0A5F089C0A6F08AC0A7F0A3
:1005E000B4EC08F0A4C0A0F0A5C0A1F0A6C0A2F091
:1005F000A7C0A3F076EC4DF0A0C0CEF3A1C0CFF31E
:10060000A2C0D0F3A3C0D1F3CEC3A4F0CFC3A5F052
:10061000D0C3A6F0D1C3A7F0DEC3A8F0DFC3A9F012
:10062000E0C3AAF0E1C3ABF0B4EC08F0A4C0DEF381
:10063000A5C0DFF3A6C0E0F3A7C0E1F3000E000100
:10064000726F000E736F000E746F400E756FDEC315
:100650006EF0DFC36FF0E0C370F0E1C371F008EC3F
:100660000BF06EC087F06FC088F070C089F071C069
:100670008AF0DAC38BF0DBC38CF0DCC38DF0DDC312
:100680008EF0A9EC11F087C0DEF388C0DFF389C0DB
:10069000E0F38AC0E1F3DEC3A0F0DFC3A1F0E0C362
:1006A000A2F0E1C3A3F076EC4DF0A0C0A4F0A1C08D
:1006B000A5F0A2C0A6F0A3C0A7F0000E0001A86F8D
:1006C000000EA96F000EAA6F3F0EAB6FB4EC08F0DE
:1006D000A4C0DEF3A5C0DFF3A6C0E0F3A7C0E1F33A
:1006E000000E0001A86F000EA96F000EAA6F3F0E4A
:1006F000AB6FDEC3A4F0DFC3A5F0E0C3A6F0E1C397
:10070000A7F0B4EC08F0A4C06EF0A5C06FF0A6C0CE
:1007100070F0A7C071F0D6C372F0D7C373F0D8C31E
:1007200074F0D9C375F008EC0BF06EC0D6F36FC04F
:10073000D7F370C0D8F371C0D9F3D6C3A8F0D7C32C
:10074000A9F0D8C3AAF0D9C3ABF0D2C3A4F0D3C3E5
:10075000A5F0D4C3A6F0D5C3A7F0B4EC08F0A4C0AC
:10076000B8F0A5C0B9F0A6C0BAF0A7C0BBF043EC82
:100770002EF0B8C0CAF3B9C0CBF3BAC0CCF3BBC03B
:10078000CDF31200000120EE04F07C51D9267D51FA
:10079000DA22DECF93F0DDCF94F0000E0001996FE6
:1007A000BED0000199510001806F816B0001D8908B
:1007B000803781370001D890803781370001D89089
:1007C000803781370C0E00018027000E81237AC00C
:1007D00082F07BC083F0000180510001822700017C
:1007E000815100018323040E00018225D96E000E81
:1007F00000018321DA6E00019951080D040EF326E1
:10080000000EF4227AC086F07BC087F0F35000011E
:100810008627F45000018723040E00018625E16E2F
:10082000000E00018721E26EDE50E65CE650800A91
:1008300000018A6FDE50800A00018A59D8B039D091
:10084000000199510001806F816B0001D8908037C1
:1008500081370001D890803781370001D8908037E8
:1008600081370C0E00018027000E81237AC082F0B0
:100870007BC083F00001805100018227000181517B
:1008800000018323040E00018225D96E000E0001B1
:100890008321DA6E00019351DE5CDE50800A000194
:1008A000866F00019451800A00018659D8B062D049
:1008B00034D0000199510001806F816B0001D89004
:1008C000803781370001D890803781370001D89078
:1008D000803781370C0E00018027000E81237AC0FB
:1008E00082F07BC083F0000180510001822700016B
:1008F000815100018323040E00018225D96E000E70
:1009000000018321DA6EDE500001935D00019451F5
:10091000800A0001866FDE50C6D70001992BFE0EBB
:100920000001806FFF0E0001816F7AC0D9FF7BC08C
:10093000DAFFDF500001826F836B000180510001FC
:100940008227000181510001832300019951000198
:10095000846F856B000182510001845D0001855127
:10096000800A0001866F00018351800A00018659C8
:10097000D8A017D700019951080D040EF326000ED8
:10098000F422F35000017A25D96EF45000017B2146
:10099000DA6EDECF95F0DECF96F0DECF97F0DECFC9
:1009A00098F0000199510001806F816B0001D8908F
:1009B000803781370001D890803781370001D89087
:1009C000803781370C0E00018027000E8123000143
:1009D000805100017A25D96E0001815100017B21EF
:1009E000DA6EDECF82F0DECF83F0DECF84F0DECFB2
:1009F00085F000019951080D040EF326000EF42233
:100A0000F35000017A25D96EF45000017B21DA6E93
:100A1000DECF86F0DECF87F0DECF88F0DECF89F044
:100A20000001861F871F881F891F862B000E8723C2
:100A300088238923000182510001862500018B6FE4
:100A4000000183510001872100018C6F0001845156
:100A50000001882100018D6F00018551000189216D
:100A600000018E6F000199510001806F816B0001C0
:100A7000D890803781370001D890803781370001C6
:100A8000D890803781370C0E00018027000E81231B
:100A90007AC082F07BC083F0000180510001822780
:100AA0000001815100018323040E00018225D96ECB
:100AB000000E00018321DA6EDECF84F0DDCF85F0F9
:100AC00000019951080D040EF326000EF4227AC09D
:100AD00086F07BC087F0F35000018627F4500001B8
:100AE0008723040E00018625D96E000E00018721A0
:100AF000DA6EDECF88F0DDCF89F00001881F891F14
:100B0000884B892B00018451000188270001855101
:100B10000001892388C08FF089C090F00001000E89
:100B200090BFFF0E916F926F00018F5100019011E5
:100B30000001911100019211D8B468D000019951BF
:100B4000080D040EF326000EF4227AC080F07BC05C
:100B500081F0F35000018027F45000018123040E3E
:100B600000018025D96E000E00018121DA6EDECFF2
:100B700082F0DDCF83F00001821F831F824B832B25
:100B80000001935100018227000194510001832349
:100B900082C060F083C061F00001000E61BFFF0EF3
:100BA000626F636F8BC064F08CC065F08DC066F0BF
:100BB0008EC067F099EC43F060C06CF061C06DF0DE
:100BC00062C06EF063C06FF08FC070F090C071F0C3
:100BD00091C072F092C073F02BEC2DF00001955192
:100BE00000016C250001956F0001965100016D21F7
:100BF0000001966F0001975100016E210001976F6F
:100C00000001985100016F210001986F7CC0D9FF4D
:100C10007DC0DAFF95C0DEFF96C0DEFF97C0DEFF25
:100C200098C0DEFF00017E5100017F11D8B430D0A2
:100C30007EC0D9FF7FC0DAFF95C0DEFF96C0DEFF21
:100C400097C0DEFF98C0DEFF000120EE04F07C516B
:100C5000D9267D51DA22000110EE04F07E51E12602
:100C60007F51E222DECFE6FFDDCFE5FF000120EE7F
:100C70000AF07A51D9267B51DA22000110EE06F0F3
:100C80007E51E1267F51E222DECFE6FFDDCFE5FF98
:100C90000001995112000001716F310E0001716560
:100CA00001D01200000171510008310F0001706F76
:100CB000C2D12E0E0001686F20C069F0000E06EC54
:100CC00037F012002E0E0001686F20C069F0010E8F
:100CD00006EC37F012002E0E0001686F20C069F09C
:100CE000020E06EC37F012002E0E0001686F20C0D5
:100CF00069F0030E06EC37F012002F0E0001686F4A
:100D000020C069F0030E06EC37F012002F0E000130
:100D1000686F20C069F0020E06EC37F012002F0E4B
:100D20000001686F20C069F0010E06EC37F0120078
:100D30002F0E0001686F20C069F0000E06EC37F03E
:100D400012001F0E0001686F20C069F0000E06EC53
:100D500037F012001F0E0001686F20C069F0010E0D
:100D600006EC37F012001F0E0001686F20C069F01A
:100D7000020E06EC37F012001F0E0001686F20C053
:100D800069F0030E06EC37F01200000E0001686FE8
:100D900020C069F0030E06EC37F01200000E0001CF
:100DA000686F20C069F0020E06EC37F01200000EEA
:100DB0000001686F20C069F0010E06EC37F01200E8
:100DC000000E0001686F20C069F0000E06EC37F0DD
:100DD0001200010E0001686F20C069F0000E06ECE1
:100DE00037F01200010E0001686F20C069F0010E9B
:100DF00006EC37F01200010E0001686F20C069F0A8
:100E0000020E06EC37F01200010E0001686F20C0E0
:100E100069F0030E06EC37F01200020E0001686F55
:100E200020C069F0030E06EC37F01200020E00013C
:100E3000686F20C069F0020E06EC37F01200020E57
:100E40000001686F20C069F0010E06EC37F0120057
:100E5000020E0001686F20C069F0000E06EC37F04A
:100E60001200030E0001686F20C069F0000E06EC4E
:100E700037F01200030E0001686F20C069F0010E08
:100E800006EC37F01200030E0001686F20C069F015
:100E9000020E06EC37F01200030E0001686F20C04E
:100EA00069F0030E06EC37F01200040E0001686FC3
:100EB00020C069F0030E06EC37F01200040E0001AA
:100EC000686F20C069F0020E06EC37F01200040EC5
:100ED0000001686F20C069F0010E06EC37F01200C7
:100EE000040E0001686F20C069F0000E06EC37F0B8
:100EF0001200050E0001686F20C069F0000E06ECBC
:100F000037F01200050E0001686F20C069F0010E75
:100F100006EC37F01200050E0001686F20C069F082
:100F2000020E06EC37F01200050E0001686F20C0BB
:100F300069F0030E06EC37F01200060E0001686F30
:100F400020C069F0030E06EC37F01200060E000117
:100F5000686F20C069F0020E06EC37F01200060E32
:100F60000001686F20C069F0010E06EC37F0120036
:100F7000060E0001686F20C069F0000E06EC37F025
:100F80001200070E0001686F20C069F0000E06EC29
:100F900037F01200070E0001686F20C069F0010EE3
:100FA00006EC37F01200070E0001686F20C069F0F0
:100FB000020E06EC37F01200070E0001686F20C029
:100FC00069F0030E06EC37F01200210E0001686F85
:100FD00020C069F0030E06EC37F01200210E00016C
:100FE000686F20C069F0020E06EC37F01200210E87
:100FF0000001686F20C069F0010E06EC37F01200A6
:10100000210E0001686F20C069F0000E06EC37F079
:101010001200220E0001686F20C069F0000E06EC7D
:1010200037F01200220E0001686F20C069F0010E37
:1010300006EC37F0120000017051000AD8B439D61E
:10104000010AD8B43FD6030AD8B445D6010AD8B4A9
:101050004BD6070AD8B451D6010AD8B457D6030ADA
:10106000D8B45DD6010AD8B463D60F0AD8B469D60D
:10107000010AD8B46FD6030AD8B475D6010AD8B419
:101080007BD6070AD8B481D6010AD8B487D6030A1A
:10109000D8B48DD6010AD8B493D61F0AD8B499D63D
:1010A000010AD8B49FD6030AD8B4A5D6010AD8B489
:1010B000ABD6070AD8B4B1D6010AD8B4B7D6030A5A
:1010C000D8B4BDD6010AD8B4C3D60F0AD8B4C9D68D
:1010D000010AD8B4CFD6030AD8B4D5D6010AD8B4F9
:1010E000DBD6070AD8B4E1D6010AD8B4E7D6030A9A
:1010F000D8B4EDD6010AD8B4F3D63F0AD8B4F9D69D
:10110000010AD8B4FFD6030AD8B405D7010AD8B467
:101110000BD7070AD8B411D7010AD8B417D7030AD6
:10112000D8B41DD7010AD8B423D70F0AD8B429D709
:10113000010AD8B42FD7030AD8B435D7010AD8B4D6
:101140003BD7070AD8B441D7010AD8B447D7030A16
:10115000D8B44DD7010AD8B453D71F0AD8B459D739
:10116000010AD8A412005ED70001A751800B00012C
:10117000B46F0001A751A7250001B66F0001A6AF0B
:1011800002D00001B6810001B6510001D8B412D0DE
:101190000001B629D8A409D0000E0001A46F000EEA
:1011A000A56F000EA66F000EA76F0001A68F000EA0
:1011B000000108D0000E0001A46F000EA56F000E04
:1011C000A66F000EA76F0001AB51800B0001B56F39
:1011D0000001B4510001B519D8B402D00001B48D9A
:1011E0000001AB51AB250001B56F0001AAAF02D0E1
:1011F0000001B5810001B5510001D8B412D0000141
:10120000B529D8A409D0000E0001A86F000EA96F5F
:10121000000EAA6F000EAB6F0001AA8F000E000136
:1012200008D0000E0001A86F000EA96F000EAA6F73
:10123000000EAB6F0001B6510001B55DD8B024D0EF
:101240000001B4AD03D0800E0001B41BB6C0B7F0EE
:10125000B5C0B6F0B7C0B5F0A4C0B7F0A8C0A4F050
:10126000B7C0A8F0A5C0B7F0A9C0A5F0B7C0A9F055
:10127000A6C0B7F0AAC0A6F0B7C0AAF0A7C0B7F042
:10128000ABC0A7F0B7C0ABF0000E0001B76F000114
:10129000B6510001AC6FAD6B0001AC1FAD1FAC4B84
:1012A000AD2B0001B5510001AE6FAF6B0001AC5129
:1012B0000001AE270001AD510001AF230001AFBF17
:1012C0003DD00001AF5105E11A0E0001AE5DD8A07E
:1012D00035D00001A4510001A5110001A6110001A3
:1012E000A711D8B402D0010E01D0000E0001B76FD3
:1012F000000E0001A46F000EA56F000EA66F000E79
:10130000A76FB5C0B6F020D00001B7A107D000018B
:10131000D890B73101090001B76F03D00001D89010
:10132000B7330001A4A102D00001B78F0001A73597
:10133000A733A633A533A4330001B62B0001B55162
:101340000001B65DD8A0E0D70001B4BD3FD00001D8
:10135000B6510001D8A40AD0000E0001A46F000EFF
:10136000A56F000EA66F000EA76F12000001A85116
:101370000001A4270001A9510001A5230001AA51E1
:101380000001A6230001AB510001A7230001A7A182
:10139000CCD00001B7A109D00001D890B73300012B
:1013A000B75101090001B76F03D00001D890B733DE
:1013B0000001A4A102D00001B78F0001A735A73317
:1013C000A633A533A4330001B62BAFD00001A8513A
:1013D0000001A45D0001A9510001A5590001AA5115
:1013E0000001A6590001A751800A0001AC6F00015D
:1013F000AB51800A0001AC59D8B050D0A4C0ACF0B9
:10140000A5C0ADF0A6C0AEF0A7C0AFF00001AC1F04
:10141000AD1FAE1FAF1FAC2B000EAD23AE23AF230D
:101420000001A8510001AC250001B06F0001A951D5
:101430000001AD210001B16F0001AA510001AE21F0
:101440000001B26F0001AB510001AF210001B36F89
:10145000FF0E0001B0250001A46FFF0E0001B121B5
:101460000001A56FFF0E0001B2210001A66FFF0E63
:101470000001B3210001A76F800E0001B41B000121
:10148000B76D0001B7510001D8A418D0010E0001BA
:10149000A427000EA523A623A72310D00001A8513E
:1014A0000001A45F0001A9510001A55B0001AA5140
:1014B0000001A65B0001AB510001A75B0001A45134
:1014C0000001A5110001A6110001A711D8A42AD07E
:1014D0000001B7510001D8A425D0000E0001A46F6F
:1014E000000EA56F000EA66F000EA76F1200000180
:1014F000D890A437A537A637A7370001B7AF02D0D9
:101500000001A4810001B7A103D0D880000102D05E
:101510000001D890B7370001B6510001D8B402D00D
:101520000001B6070001A6AFE2D7000E0001B56FBB
:101530000001B7AF0DD0B7C0ACF07F0E0001AC1703
:10154000D8A403D00001A4A103D0010E0001B56FFF
:101550000001B5510001D8B426D0010E0001A42726
:10156000000EA523A623A7230001A7A11CD0A4C079
:10157000ACF0A5C0ADF0A6C0AEF0A7C0AFF00001C2
:10158000AF35AF33AE33AD33AC33ACC0A4F0ADC088
:10159000A5F0AEC0A6F0AFC0A7F00001B629D8B440
:1015A00002D00001B62B0001B629D8B405D0000145
:1015B000B6510001D8A411D0000E0001A46F000E96
:1015C000A56F000EA66F000EA76F0001B6510001B7
:1015D000D8A403D0000E0001B46F0001B6A103D05F
:1015E0000001A68F02D00001A69F0001D890B6315D
:1015F0000001A76F0001B4AF02D00001A78FA4C003
:10160000A4F0A5C0A5F0A6C0A6F0A7C0A7F0120040
:1016100000017151800B00017A6F00017151712539
:101620000001806F000170AF02D0000180810001D5
:1016300080510001D8B410D000018029D8A409D06D
:10164000000E00016E6F000E6F6F000E706F000EC7
:10165000716F0001708F09D0000E00016E6F000ED7
:101660006F6F000E706F000E716F00017551800B6F
:1016700000017A1B00017551752500017B6F000187
:1016800074AF02D000017B8100017B510001D8B40E
:1016900010D000017B29D8A409D0000E0001726F80
:1016A000000E736F000E746F000E756F0001748F63
:1016B00009D0000E0001726F000E736F000E746F80
:1016C000000E756F00017B510001D8B405D00001F8
:1016D00080510001D8A40AD0000E00016E6F000EE8
:1016E0006F6F000E706F000E716F12000001745169
:1016F00000016E03F3CF85F0F4CF86F00001855131
:1017000000017C6F7D6B7E6B7F6B00018651000159
:10171000816F826B836B846B0001735100016F03D7
:10172000F3CF85F0F4CF86F00001855100017C27CE
:10173000000E7D237E237F23000186510001812737
:10174000000E822383238423000172510001700361
:10175000F3CF85F0F4CF86F00001855100017C279E
:10176000000E7D237E237F23000186510001812707
:10177000000E8223832384237EC07FF07DC07EF011
:101780007CC07DF000017C6B0001725100016F0391
:10179000F3CF85F0F4CF86F00001855100017C275E
:1017A0000001865100017D23000E00017E23000E02
:1017B00000017F230001735100016E03F3CF85F018
:1017C000F4CF86F00001855100017C27000186518D
:1017D00000017D23000E00017E23000E00017F2307
:1017E0007EC07FF07DC07EF07CC07DF000017C6B10
:1017F0000001725100016E03F3CF85F0F4CF86F043
:101800000001855100017C270001865100017D23E4
:10181000000E00017E23000E00017F2300017451A1
:1018200000016F03F3CF85F0F4CF86F000018551FE
:10183000000181270001865100018223000E000172
:101840008323000E00018423000173510001700303
:10185000F3CF85F0F4CF86F0000185510001812798
:101860000001865100018223000E00018323000E37
:10187000000184230001745100017003F3CF85F04F
:10188000F4CF86F0000185510001766F000186518A
:101890000001776F0001786B0001796B78C079F0F7
:1018A00077C078F076C077F00001766B0001765152
:1018B0000001812700017751000182230001785146
:1018C0000001832300017951000184237CC076F05C
:1018D0007DC077F07EC078F07FC079F0190E06D019
:1018E0000001D8907933783377337633E82EF8D700
:1018F0000001765100018127000177510001822308
:1019000000017851000183230001795100018423F3
:101910007EC07FF07DC07EF07CC07DF000017C6BDE
:1019200000017B5180C076F00001776B00017627C3
:10193000000E7723820E000176250001856FFF0ED1
:10194000000177210001866F15D00001D890813702
:1019500082378337843700017FAF02D00001818155
:101960000001D8907C377D377E377F3700018507AF
:10197000D8A08607000183AFE8D7000E00017B6F77
:1019800000017FAF24D0FF0E00017C150001766FAF
:10199000FF0E00017D150001776FFF0E00017E151F
:1019A0000001786F7F0E00017F150001796F000143
:1019B0007651000177110001781100017911D8A446
:1019C00003D0000181A103D0010E00017B6F000153
:1019D0007B510001D8B423D0010E00018127000EF5
:1019E000822383238423000184A119D081C076F04F
:1019F00082C077F083C078F084C079F00001793537
:101A0000793378337733763376C081F077C082F0DC
:101A100078C083F079C084F00001854B862B0001EB
:101A200086BF10D00001865104E100018529D8A0AD
:101A300009D0000E0001816F000E826F800E836F4F
:101A40007F0E2BD0000186BF07D00001865111E127
:101A500000018505D8B00DD0000E0001816F000E89
:101A6000826F000E836F000E846F000E00017A6F8C
:101A700015D085C080F0FF0E00018117FF0E821780
:101A80007F0E8317000E8417000180A102D0000191
:101A9000838F0001D89080310001846F00017A515A
:101AA0000001841381C06EF082C06FF083C070F0BB
:101AB00084C071F01200000120EE06F07C51D9269E
:101AC0007D51DA22DECF96F0DDCF97F0000E0001D7
:101AD000986FBAD00001985100017F6F806B0001B0
:101AE000D8907F3780370001D8907F37803700014A
:101AF000D8907F378037080E00017F27000E8023A3
:101B00007AC081F07BC082F000017F510001812703
:101B10000001805100018223060E00018125D96E4B
:101B2000000E00018221DA6E00019851080D7AC082
:101B300085F07BC086F0F35000018527F45000014A
:101B40008623060E00018525E16E000E0001862128
:101B5000E26EDE50E65CE650800A0001896FDE50DE
:101B6000800A00018959D8B039D00001985100018C
:101B70007F6F806B0001D8907F3780370001D8904D
:101B80007F3780370001D8907F378037080E0001FB
:101B90007F27000E80237AC081F07BC082F0000195
:101BA0007F51000181270001805100018223060E30
:101BB00000018125D96E000E00018221DA6E00013C
:101BC0009651DE5CDE50800A0001856F000197515E
:101BD000800A00018559D8B05FD034D000019851F7
:101BE00000017F6F806B0001D8907F378037000144
:101BF000D8907F3780370001D8907F378037080E24
:101C000000017F27000E80237AC081F07BC082F024
:101C100000017F51000181270001805100018223D2
:101C2000060E00018125D96E000E00018221DA6EB8
:101C3000DE500001965D00019751800A0001856F1A
:101C4000DE50C6D70001982BFE0E00017F6FFF0EFD
:101C50000001806F00017E510001816F826B0001E5
:101C60007F51000181270001805100018223000182
:101C700098510001836F846B000181510001835DE5
:101C800000018451800A0001856F00018251800AA1
:101C900000018559D8A01ED700019851080DF350B6
:101CA00000017A25D96EF45000017B21DA6EDECF77
:101CB00092F0DECF93F0DECF94F0DECF95F000010E
:101CC000985100017F6F806B0001D8907F3780377B
:101CD0000001D8907F3780370001D8907F37803758
:101CE000080E00017F27000E802300017F510001B4
:101CF0007A25D96E0001805100017B21DA6EDECF9A
:101D000081F0DECF82F0DECF83F0DECF84F0000101
:101D10009851080DF35000017A25D96EF450000156
:101D20007B21DA6EDECF85F0DECF86F0DECF87F066
:101D3000DECF88F00001851F861F871F881F852B37
:101D4000000E862387238823000181510001852509
:101D500000018A6F000182510001862100018B6F12
:101D6000000183510001872100018C6F0001845123
:101D70000001882100018D6F0001985100017F6FE3
:101D8000806B0001D8907F3780370001D8907F3773
:101D900080370001D8907F378037080E00017F27F9
:101DA000000E80237AC081F07BC082F000017F5159
:101DB000000181270001805100018223060E0001ED
:101DC0008125D96E000E00018221DA6EDECF83F00C
:101DD000DDCF84F000019851080D7AC085F07BC0FA
:101DE00086F0F35000018527F45000018623060E8B
:101DF00000018525D96E000E00018621DA6EDECF46
:101E000087F0DDCF88F00001871F881F874B882B64
:101E100000018351000187270001845100018823BC
:101E200087C08EF088C08FF00001000E8FBFFF0EBC
:101E3000906F916F00018E5100018F110001901180
:101E400000019111D8B464D000019851080D7AC0F6
:101E50007FF07BC080F0F35000017F27F450000139
:101E60008023060E00017F25D96E000E000180211F
:101E7000DA6EDECF81F0DDCF82F00001811F821F9C
:101E8000814B822B0001965100018127000197515F
:101E90000001822381C060F082C061F00001000E69
:101EA00061BFFF0E626F636F8AC064F08BC065F024
:101EB0008CC066F08DC067F099EC43F060C06CF0A8
:101EC00061C06DF062C06EF063C06FF08EC070F0E4
:101ED0008FC071F090C072F091C073F02BEC2DF0B8
:101EE0000001925100016C250001926F0001935195
:101EF00000016D210001936F0001945100016E21DA
:101F00000001946F0001955100016F210001956F50
:101F10007CC0D9FF7DC0DAFF92C0DEFF93C0DEFF38
:101F200094C0DEFF95C0DEFF1200000E0001E56FD9
:101F3000000EE46FD0D0E4C0CCF0E5C0CDF00001DD
:101F4000D890CC37CD370001D890CC37CD37C4C02E
:101F5000CEF0C5C0CFF00001CC510001CE2700016A
:101F6000CD510001CF23CEC0F6FFCFC0F7FF09004F
:101F7000F5CFB8F00900F5CFB9F00900F5CFBAF008
:101F80000A00F5CFBBF0E4C0D0F0E5C0D1F000010D
:101F9000D890D037D1370001D890D037D137040E40
:101FA0000001D027000ED123C4C0D2F0C5C0D3F0A9
:101FB0000001D0510001D2270001D1510001D323EB
:101FC000D2C0F6FFD3C0F7FF0900F5CFBCF009007F
:101FD000F5CFBDF00900F5CFBEF00A00F5CFBFF098
:101FE0005DEC23F00001D8B03BD0E4C0CCF0E5C0FC
:101FF000CDF00001D890CC37CD370001D890CC3748
:10200000CD37040E0001CC27000ECD23C4C0CEF086
:10201000C5C0CFF00001CC510001CE270001CD5149
:102020000001CF23CEC0F6FFCFC0F7FF0900F5CFE8
:10203000B8F00900F5CFB9F00900F5CFBAF00A0001
:10204000F5CFBBF0C6C0BCF0C7C0BDF0C8C0BEF085
:10205000C9C0BFF05DEC23F00001D8B058D038D033
:10206000C6C0B8F0C7C0B9F0C8C0BAF0C9C0BBF0AC
:10207000E4C0CCF0E5C0CDF00001D890CC37CD372E
:102080000001D890CC37CD37040E0001CC27000ECC
:10209000CD23C4C0CEF0C5C0CFF00001CC510001AB
:1020A000CE270001CD510001CF23CEC0F6FFCFC017
:1020B000F7FF0900F5CFBCF00900F5CFBDF009002E
:1020C000F5CFBEF00A00F5CFBFF05DEC23F0C4D72A
:1020D0000001E44BE52BFF0E0001CC6FFF0E000169
:1020E000CD6FCAC0CEF0CBC0CFF00001CC51000103
:1020F000CE270001CD510001CF230001CE510001B8
:10210000E45D0001CF510001E559D8A014D7E4C027
:10211000CCF0E5C0CDF00001D890CC37CD37000130
:10212000D890CC37CD37C4C0CEF0C5C0CFF00001B9
:10213000CC510001CE270001CD510001CF23CEC0EC
:10214000F6FFCFC0F7FF0900F5CFE0F00900F5CFAB
:10215000E1F00900F5CFE2F00A00F5CFE3F00A0E56
:102160000001D46FD70ED56F230ED66F3C0ED76FFC
:10217000E4C0CCF0E5C0CDF00001D890CC37CD372D
:102180000001D890CC37CD37C4C0CEF0C5C0CFF059
:102190000001CC510001CE270001CD510001CF2319
:1021A000CEC0F6FFCFC0F7FF0900F5CFA0F00900C1
:1021B000F5CFA1F00900F5CFA2F00A00F5CFA3F00A
:1021C00076EC4DF0A0C0A4F0A1C0A5F0A2C0A6F08E
:1021D000A3C0A7F0E4C0D0F0E5C0D1F00001D890D2
:1021E000D037D1370001D890D037D137040E000155
:1021F000D027000ED123C4C0D2F0C5C0D3F0000157
:10220000D0510001D2270001D1510001D323D2C007
:10221000F6FFD3C0F7FF0900F5CFA8F00900F5CF0E
:10222000A9F00900F5CFAAF00A00F5CFABF0B4ECA5
:1022300008F0A4C0D8F0A5C0D9F0A6C0DAF0A7C0B5
:10224000DBF0C6C0A8F0C7C0A9F0C8C0AAF0C9C0DA
:10225000ABF00A0E0001726FD70E736F230E746F0E
:102260003C0E756FE4C060F0E5C061F00001626B88
:10227000636B000EDAEC1FF060C06EF061C06FF0AF
:1022800062C070F063C071F008EC0BF06EC0A0F09B
:102290006FC0A1F070C0A2F071C0A3F076EC4DF059
:1022A000A0C0A4F0A1C0A5F0A2C0A6F0A3C0A7F052
:1022B000B4EC08F0A4C0DCF0A5C0DDF0A6C0DEF0F0
:1022C000A7C0DFF0D4C08BF0D5C08CF0D6C08DF0A5
:1022D000D7C08EF0D8C087F0D9C088F0DAC089F0B6
:1022E000DBC08AF0A9EC11F087C072F088C073F0EF
:1022F00089C074F08AC075F0DCC06EF0DDC06FF08C
:10230000DEC070F0DFC071F008EC0BF06EC0A4F01E
:102310006FC0A5F070C0A6F071C0A7F0E0C0A8F033
:10232000E1C0A9F0E2C0AAF0E3C0ABF0B4EC08F061
:10233000A4C0E0F0A5C0E1F0A6C0E2F0A7C0E3F0C1
:10234000E0C0C4F0E1C0C5F0E2C0C6F0E3C0C7F031
:10235000120000018A51800B0001936F00018A5125
:102360008A2500019E6F000189AF02D000019E8185
:1023700000019E510001D8B412D000019E29D8A4BA
:1023800009D0000E0001876F000E886F000E896F64
:10239000000E8A6F0001898F000E000108D0000E28
:1023A0000001876F000E886F000E896F000E8A6F24
:1023B00000018E51800B0001931B00018E518E2570
:1023C00000019F6F00018DAF02D000019F810001CD
:1023D0009F510001D8B412D000019F29D8A409D080
:1023E000000E00018B6F000E8C6F000E8D6F000EC3
:1023F0008E6F00018D8F000E000108D0000E0001CD
:102400008B6F000E8C6F000E8D6F000E8E6F0001B3
:102410008B5100018C1100018D1100018E11D8A487
:1024200017D0000E0001876F000E886F000E896FB5
:10243000000E8A6F0001800E89137F0E8A1387C0F9
:1024400087F088C088F089C089F08AC08AF01200BD
:1024500000019E510001D8A412D0000E0001876F28
:10246000000E886F000E896F000E8A6F87C087F09C
:1024700088C088F089C089F08AC08AF01200000103
:102480009F5100018F6F906B00018F1F901F8F4B2A
:10249000902B00019E510001916F926B00018F51B2
:1024A0000001912700019051000192237F0E00014D
:1024B00091250001986F000E000192210001996F93
:1024C00087C094F088C095F089C096F08AC097F0D4
:1024D000000E0001876F000E886F000E896F000EDE
:1024E0008A6F000E00019A6F000E9B6F000E9C6FAA
:1024F000000E9D6F000E00019F6F42D000019F51A2
:102500000001D8B417D00001D8909437953796378A
:1025100097370001D8908737883789378A37000185
:102520009DAF02D0000187810001D8909A379B3778
:102530009C379D3700018B510001945D00018C5147
:102540000001955900018D510001965900018E51ED
:1025500000019759D8A012D000019D8D00018B5128
:102560000001945F00018C510001955B00018D51C9
:102570000001965B00018E510001975B00019F2BCB
:10258000190E00019F65BAD7000194510001951101
:102590000001961100019711D8B418D000019A815A
:1025A00015D00001D8908737883789378A370001DE
:1025B0009DAF02D0000187810001D8909A379B37E8
:1025C0009C379D3700019807D8A09907000189AF73
:1025D000E8D7000E00019F6F00019DAF24D0FF0ED1
:1025E00000019A1500018F6FFF0E00019B1500017D
:1025F000906FFF0E00019C150001916F7F0E00018E
:102600009D150001926F00018F5100019011000192
:10261000911100019211D8A403D0000187A103D029
:10262000010E00019F6F00019F510001D8B423D01B
:10263000010E00018727000E882389238A230001C9
:102640008AA119D087C08FF088C090F089C091F01E
:102650008AC092F0000192359233913390338F33D8
:102660008FC087F090C088F091C089F092C08AF046
:102670000001984B992B000199BF14D0000199518A
:1026800004E100019829D8A00DD0000E0001996F37
:102690009869000E0001876F000E886F000E896F29
:1026A000000E8A6F000199BF07D00001995115E112
:1026B00000019805D8B011D0000E0001996F000EEE
:1026C000986F000E0001876F000E886F000E896FF3
:1026D000000E8A6F000E0001936F98C09EF00001FB
:1026E0009EA103D00001898F02D00001899F0001C3
:1026F000D8909E3100018A6F0001935100018A1326
:1027000087C087F088C088F089C089F08AC08AF0C5
:1027100012000001946F000E0001966F3050D8A493
:1027200021D03150340D140EF324D96E030EF42051
:10273000DA6EDF500001956F39C09DF000019D51A8
:1027400000019519D8B448D1010E0001966F31509F
:10275000340D140EF324D96E030EF420DA6E9DC0EE
:10276000DFFF3AD135C06CF036C06DF037C06EF087
:1027700038C06FF01CEC3CF06CC097F06DC098F066
:102780006EC099F06FC09AF03150340DFC0E00010C
:102790008A6FFF0E00018B6F305000018C6F8D6BC4
:1027A0000001D8908C378D370001D8908C378D3749
:1027B0000001D8908C378D3700018A5100018C2799
:1027C00000018B5100018D23100E00018E6F030E4E
:1027D00000018F6F040E00018E27000E8F23000171
:1027E0008C5100018E2700018D5100018F23F35081
:1027F00000018E25D96EF45000018F21DA6EDECFF4
:1028000090F0DECF91F0DECF92F0DECF93F00001BA
:1028100097510001901910E10001985100019119A0
:102820000BE1000199510001921906E100019A5152
:1028300000019319D8B4D0D03150340DFC0E0001F2
:102840008A6FFF0E00018B6F305000018C6F8D6B13
:102850000001D8908C378D370001D8908C378D3798
:102860000001D8908C378D3700018A5100018C27E8
:1028700000018B5100018D23100E00018E6F030E9D
:1028800000018F6F040E00018E27000E8F230001C0
:102890008C5100018E2700018D5100018F23F350D0
:1028A00000018E25D96EF45000018F21DA6E97C099
:1028B000DEFF98C0DEFF99C0DEFF9AC0DEFF315018
:1028C000340DFC0E00018A6FFF0E00018B6F30503B
:1028D00000018C6F8D6B0001D8908C378D37000113
:1028E000D8908C378D370001D8908C378D37000108
:1028F0008A5100018C2700018B5100018D23100E9D
:1029000000018E6F030E00018F6F040E00018E27F1
:10291000000E8F2300018C5100018E2700018D5184
:1029200000018F23F35000018E27F45000018F2304
:10293000040E00018E25D96E000E00018F21DA6E83
:10294000ECC1DEFFEDC1DDFF3150340DFC0E0001A6
:102950008A6FFF0E00018B6F305000018C6F8D6B02
:102960000001D8908C378D370001D8908C378D3787
:102970000001D8908C378D3700018A5100018C27D7
:1029800000018B5100018D23100E00018E6F030E8C
:1029900000018F6F040E00018E27000E8F230001AF
:1029A0008C5100018E2700018D5100018F23F350BF
:1029B00000018E27F45000018F23060E00018E25A2
:1029C000D96E000E00018F21DA6EEEC1DEFFEFC17D
:1029D000DDFF010E0001966F000196510001D8B491
:1029E0002AD0000E00019C6FA20E9B6F100E0001FA
:1029F0006C6F030E00016D6FFE0E00019B25000140
:102A00006E6FFF0E00019C2100016F6F65EC47F0B7
:102A100029C066F02AC067F0000E0001686F100E32
:102A20000001696F030E00016A6F9BC06BF09CC0D0
:102A30006CF0B8EC2DF0000194510001D8B403D033
:102A4000A8EC4CF01200302A3150340D140EF3244F
:102A5000D96E030EF420DA6E3050DE5CD8B008D0A8
:102A6000000E306E312A020E316402D0000E316E3B
:102A700030C020F0315058EC31F012000001946F5A
:102A8000000E0001966F3050D8A421D03150340D83
:102A9000040EF324D96E040EF420DA6EDF50000128
:102AA000956F39C09DF000019D5100019519D8B472
:102AB00048D1010E0001966F3150340D040EF324FD
:102AC000D96E040EF420DA6E9DC0DFFF3AD135C016
:102AD0006CF036C06DF037C06EF038C06FF01CEC93
:102AE0003CF06CC097F06DC098F06EC099F06FC06C
:102AF0009AF03150340DFC0E00018A6FFF0E000178
:102B00008B6F305000018C6F8D6B0001D8908C372B
:102B10008D370001D8908C378D370001D8908C37D5
:102B20008D3700018A5100018C2700018B51000173
:102B30008D23000E00018E6F040E00018F6F040EB6
:102B400000018E27000E8F2300018C5100018E277B
:102B500000018D5100018F23F35000018E25D96EA5
:102B6000F45000018F21DA6EDECF90F0DECF91F0CD
:102B7000DECF92F0DECF93F0000197510001901963
:102B800010E100019851000191190BE100019951E8
:102B90000001921906E100019A5100019319D8B47D
:102BA000D0D03150340DFC0E00018A6FFF0E0001B1
:102BB0008B6F305000018C6F8D6B0001D8908C377B
:102BC0008D370001D8908C378D370001D8908C3725
:102BD0008D3700018A5100018C2700018B510001C3
:102BE0008D23000E00018E6F040E00018F6F040E06
:102BF00000018E27000E8F2300018C5100018E27CB
:102C000000018D5100018F23F35000018E25D96EF4
:102C1000F45000018F21DA6E97C0DEFF98C0DEFF0E
:102C200099C0DEFF9AC0DEFF3150340DFC0E00016A
:102C30008A6FFF0E00018B6F305000018C6F8D6B1F
:102C40000001D8908C378D370001D8908C378D37A4
:102C50000001D8908C378D3700018A5100018C27F4
:102C600000018B5100018D23000E00018E6F040EB8
:102C700000018F6F040E00018E27000E8F230001CC
:102C80008C5100018E2700018D5100018F23F350DC
:102C900000018E27F45000018F23040E00018E25C1
:102CA000D96E000E00018F21DA6EECC1DEFFEDC19E
:102CB000DDFF3150340DFC0E00018A6FFF0E000164
:102CC0008B6F305000018C6F8D6B0001D8908C376A
:102CD0008D370001D8908C378D370001D8908C3714
:102CE0008D3700018A5100018C2700018B510001B2
:102CF0008D23000E00018E6F040E00018F6F040EF5
:102D000000018E27000E8F2300018C5100018E27B9
:102D100000018D5100018F23F35000018E27F450E4
:102D200000018F23060E00018E25D96E000E0001D2
:102D30008F21DA6EEEC1DEFFEFC1DDFF010E000173
:102D4000966F000196510001D8B42AD0000E000100
:102D50009C6FA20E9B6F000E00016C6F040E0001B1
:102D60006D6FFE0E00019B2500016E6FFF0E0001CE
:102D70009C2100016F6F65EC47F029C066F02AC006
:102D800067F0000E0001686F000E0001696F040E0D
:102D900000016A6F9BC06BF09CC06CF0B8EC2DF02A
:102DA000000194510001D8B403D0A8EC4CF01200FB
:102DB000302A3150340D040EF324D96E040EF42061
:102DC000DA6E3050DE5CD8B002D0000E306E30C00B
:102DD00020F0000E54EC30F01200000E00018A6F5B
:102DE000000E8B6F000E8C6F000E8D6F030E0001B6
:102DF0007C614BD1000E00017B6F000E7A6F1200D8
:102E00007AC0D9FF7BC0DAFFDECF86F0DDCF87F056
:102E100086C088F087C089F0000E00018A6F000E1E
:102E20008B6F000E8C6F000E8D6F000E00018E6F89
:102E30007FD000018E51020DF35000017A25D96E2A
:102E4000F45000017B21DA6E00018851DE5CDE5017
:102E5000800A0001806F00018951800A00018059B9
:102E6000D8B011D000018E51020DF35000017A2527
:102E7000D96EF45000017B21DA6EDECF88F0DDCF11
:102E800089F08EC085F000018E51020DF3500001D3
:102E90007A25D96EF45000017B21DA6EDE500001F4
:102EA000865D00018751800A0001806FDE50800A34
:102EB00000018059D8B011D000018E51020DF3509D
:102EC00000017A25D96EF45000017B21DA6EDECF45
:102ED00086F0DDCF87F08EC084F000018E51020DA8
:102EE000F35000017A25D96EF45000017B21DA6E8F
:102EF000DECF7EF0DDCF7FF07EC080F07FC081F03E
:102F0000000E000181BFFF0E826F836F00018051B0
:102F100000018A270001815100018B2300018251A9
:102F200000018C230001835100018D2300018E2BB1
:102F300000017C5100018E5DD8A07BD786C07EF059
:102F400087C07FF0000E00017FBFFF0E806F816F92
:102F500000017E1F7F1F801F811F7E2B000E7F239D
:102F60008023812300018A5100017E2500018A6FA0
:102F700000018B5100017F2100018B6F00018C51FA
:102F80000001802100018C6F00018D510001812121
:102F900000018D6F88C07EF089C07FF0000E0001B7
:102FA0007FBFFF0E806F816F00017E1F7F1F801F1C
:102FB000811F7E2B000E7F238023812300018A51F5
:102FC00000017E2500018A6F00018B5100017F21E5
:102FD00000018B6F00018C510001802100018C6F7A
:102FE00000018D510001812100018D6F8AC06CF0BC
:102FF0008BC06DF08CC06EF08DC06FF0FE0E0001C6
:103000007E6FFF0E00017F6F00017C510001806F19
:10301000816B00017E510001802700017F5100017A
:10302000812380C070F081C071F00001000E71BF7B
:10303000FF0E726F736F2BEC2DF06CC08AF06DC0B9
:103040008BF06EC08CF06FC08DF000018551020DC9
:10305000F35000017A25D96EF45000017B21DA6E1D
:103060008AC0DEFF8BC0DDFF00018451020DF350EA
:1030700000017A25D96EF45000017B21DA6E8AC0F6
:10308000DEFF8BC0DDFF00017D0700017D510001E7
:10309000D8A4B6D68AC07AF08BC07BF012000201A9
:1030A0000451D8A414D00CC260F00DC261F00EC25D
:1030B00062F00FC263F0000EDAEC1FF060C0D0F0D7
:1030C00061C0D1F062C0D2F063C0D3F077D008C243
:1030D00060F009C261F00AC262F00BC263F0010E37
:1030E000DAEC1FF060C0D0F061C0D1F062C0D2F065
:1030F00063C0D3F00CC260F00DC261F00EC262F08A
:103100000FC263F0000EDAEC1FF060C0A8F061C0DF
:10311000A9F062C0AAF063C0ABF00CC260F00DC2AF
:1031200061F00EC262F00FC263F0000EDAEC1FF025
:1031300060C0A4F061C0A5F062C0A6F063C0A7F0B3
:10314000B4EC08F0A4C0C4F0A5C0C5F0A6C0C6F099
:10315000A7C0C7F0D0C0A8F0D1C0A9F0D2C0AAF0D3
:10316000D3C0ABF0C4C0A4F0C5C0A5F0C6C0A6F0E3
:10317000C7C0A7F0B4EC08F0A4C0C8F0A5C0C9F05F
:10318000A6C0CAF0A7C0CBF0C8C0A4F0C9C0A5F0C3
:10319000CAC0A6F0CBC0A7F0D0C0A8F0D1C0A9F09B
:1031A000D2C0AAF0D3C0ABF0B4EC08F0A4C0D0F009
:1031B000A5C0D1F0A6C0D2F0A7C0D3F0D0C072F0A5
:1031C000D1C073F0D2C074F0D3C075F002010551C4
:1031D0000001606F616B626B636B000EDAEC1FF0D5
:1031E00060C06EF061C06FF062C070F063C071F0DB
:1031F00008EC0BF06EC087F06FC088F070C089F0EB
:1032000071C08AF0000E00018B6F000E8C6FC80E2B
:103210008D6F420E8E6FA9EC11F087C0D0F088C080
:10322000D1F089C0D2F08AC0D3F00001D0510001A2
:10323000D1110001D2110001D311D8A409D0000E80
:103240000001D06F000ED16F800ED26F3F0ED36F92
:10325000E8C060F0E9C061F0EAC062F0EBC063F082
:10326000010EDAEC1FF060C0CCF061C0CDF062C09E
:10327000CEF063C0CFF00001CFAF09D0000E000147
:10328000CC6F000ECD6F000ECE6F000ECF6FCCC096
:1032900087F0CDC088F0CEC089F0CFC08AF0D0C012
:1032A0008BF0D1C08CF0D2C08DF0D3C08EF0A9ECE1
:1032B00011F087C0D0F088C0D1F089C0D2F08AC0A8
:1032C000D3F0D0C06EF0D1C06FF0D2C070F0D3C0D8
:1032D00071F0000E0001726F000E736FC80E746FF4
:1032E000420E756F08EC0BF06EC0D0F06FC0D1F0DD
:1032F00070C0D2F071C0D3F0000E0001B86F000EA4
:10330000B96FC80EBA6F420EBB6FD0C0BCF0D1C04F
:10331000BDF0D2C0BEF0D3C0BFF05DEC23F0000121
:10332000D8B009D0000E0001D06F000ED16FC80ECA
:10333000D26F420ED36FD0C0B8F0D1C0B9F0D2C0B6
:10334000BAF0D3C0BBF043EC2EF00001B85100013D
:10335000FE6F0001FE511200CAC360F0CBC361F0E2
:10336000CCC362F0CDC363F0010EDAEC1FF060C095
:10337000DAF361C0DBF362C0DCF363C0DDF30301A9
:10338000DDAF09D0000E0301DA6F000EDB6F000E17
:10339000DC6F000EDD6F0CC260F00DC261F00EC27A
:1033A00062F00FC263F0000EDAEC1FF060C0D2F3DF
:1033B00061C0D3F362C0D4F363C0D5F3DAC387F03E
:1033C000DBC388F0DCC389F0DDC38AF0D2C38BF0A5
:1033D000D3C38CF0D4C38DF0D5C38EF0A9EC11F01B
:1033E00087C0DAF388C0DBF389C0DCF38AC0DDF381
:1033F000000E0001B86F000EB96F800EBA6F3F0E5D
:10340000BB6FDAC3BCF0DBC3BDF0DCC3BEF0DDC311
:10341000BFF05DEC23F00001D8B009D0000E03012D
:10342000DA6F000EDB6F800EDC6F3F0EDD6FDAC3EC
:10343000D2F3DBC3D3F3DCC3D4F3DDC3D5F3B10ED6
:103440000001C46FF00E0001C56FDAC3C6F0DBC324
:10345000C7F0DCC3C8F0DDC3C9F0000E0001CB6FBC
:10346000650ECA6F95EC0FF0C4C0DAF3C5C0DBF38C
:10347000C6C0DCF3C7C0DDF310C260F011C261F05A
:1034800012C262F013C263F0010EDAEC1FF060C0EA
:10349000D6F361C0D7F362C0D8F363C0D9F3D6C303
:1034A0006EF0D7C36FF0D8C370F0D9C371F0DAC330
:1034B00072F0DBC373F0DCC374F0DDC375F008ECAD
:1034C0000BF06EC0D6F36FC0D7F370C0D8F371C0E5
:1034D000D9F3D2C3DAF3D3C3DBF3D4C3DCF3D5C35C
:1034E000DDF31D0E0001C46FEF0E0001C56FDAC3DE
:1034F000C6F0DBC3C7F0DCC3C8F0DDC3C9F0000E03
:103500000001CB6F650ECA6F95EC0FF0C4C0DAF303
:10351000C5C0DBF3C6C0DCF3C7C0DDF314C260F086
:1035200015C261F016C262F017C263F0010EDAEC48
:103530001FF060C0CEF361C0CFF362C0D0F363C0B0
:10354000D1F3CEC36EF0CFC36FF0D0C370F0D1C350
:1035500071F0DAC372F0DBC373F0DCC374F0DDC367
:1035600075F008EC0BF06EC0CEF36FC0CFF370C0F7
:10357000D0F371C0D1F3D6C3A4F0D7C3A5F0D8C39C
:10358000A6F0D9C3A7F0CEC3A8F0CFC3A9F0D0C38B
:10359000AAF0D1C3ABF0B4EC08F0A4C0D6F3A5C038
:1035A000D7F3A6C0D8F3A7C0D9F3D6C3B8F0D7C312
:1035B000B9F0D8C3BAF0D9C3BBF043EC2EF0B8C011
:1035C000CAF3B9C0CBF3BAC0CCF3BBC0CDF3120081
:1035D00078C0D9FF79C0DAFFDECF87F0DDCF88F081
:1035E0007D0E0001606F000E0001616F76C062F019
:1035F00077C063F094EC45F0000120EE03F07851C1
:10360000D9267951DA22DF50D8A472D0100E0001E9
:10361000875D270E00018859D8A005D0270E00012C
:10362000886F0F0E876F810E0001686F000E00011A
:10363000696F87C06AF088C06BF0ADEC27F07D0E33
:103640000001606F000E0001616F080E0001626FE3
:10365000BCEC48F0000120EE02F07851D9267951F7
:10366000DA22DF500001896F010E0001706F000146
:103670008951040F5EEC45F0040E00017A6107D019
:1036800000017A510008030F00017A6F78D0040E10
:1036900000017A19D8A40FD00F015FB7BBD0345006
:1036A000D8A4B8D0000E0001706F00018951040F3A
:1036B0005EEC45F0AFD00F015FB7ACD03450D8A46A
:1036C000A9D0810E0001606F000E0001616F7A0EBB
:1036D0000001626FF30E0001636F94EC45F0000E81
:1036E0000001706F00018951040F5EEC45F092D02B
:1036F00000017A510001D8B41200100E0001875D5C
:10370000270E00018859D8A005D0270E0001886F28
:103710000F0E876F820E0001686F000E0001696F47
:1037200087C06AF088C06BF0ADEC27F02D0E000169
:10373000816F7D0E0001606F000E0001616F080E49
:103740000001626FBCEC48F0000120EE02F07851FD
:10375000D9267951DA22DF500001896F010E00016C
:10376000706F00018951050F5EEC45F0040E0001F9
:103770007A6120D000017A510008040F85D70F012B
:103780005FB748D03450D8A445D000017A51000129
:103790007B6F7C6B040E00017B27000E7C237D0E6B
:1037A00000017B25D96E000E00017C21DA6E200E0F
:1037B000DF6E30D0040E00017A19D8A40FD00F01AB
:1037C0005FB728D03450D8A425D0000E0001706F08
:1037D00000018951050F5EEC45F01CD00F015FB769
:1037E00019D03450D8A416D0810E0001606F000E9D
:1037F0000001616F7A0E0001626FF30E0001636FCA
:1038000094EC45F0000E0001706F00018951050F26
:103810005EEC45F07D0E0001736F000E0001746FC9
:1038200027EC45F05CEC48F01200000120EE0CF0B3
:10383000C251D926C351DA22DECF60F0DECF61F06B
:10384000DECF62F0DECF63F0000EDAEC1FF060C076
:10385000DAF061C0DBF062C0DCF063C0DDF00001D3
:1038600020EE08F0C251D926C351DA22DECF60F033
:10387000DECF61F0DECF62F0DECF63F0010EDAEC76
:103880001FF060C0D2F061C0D3F062C0D4F063C05A
:10389000D5F0000E00018B6F000E8C6F7A0E8D6FCD
:1038A000440E8E6FDAC087F0DBC088F0DCC089F090
:1038B000DDC08AF0A9EC11F087C0C6F088C0C7F05F
:1038C00089C0C8F08AC0C9F0C6C087F0C7C088F0F8
:1038D000C8C089F0C9C08AF0000E00018B6F000ECD
:1038E0008C6F000E8D6F400E8E6FA9EC11F087C0AB
:1038F000DAF088C0DBF089C0DCF08AC0DDF0D2C02D
:1039000087F0D3C088F0D4C089F0D5C08AF0000E0B
:1039100000018B6F000E8C6F7A0E8D6F440E8E6FD0
:10392000A9EC11F087C0D2F088C0D3F089C0D4F0E0
:103930008AC0D5F0DAC072F0DBC073F0DCC074F07E
:10394000DDC075F0DAC06EF0DBC06FF0DCC070F087
:10395000DDC071F008EC0BF06EC0CAF06FC0CBF0A8
:1039600070C0CCF071C0CDF0D2C072F0D3C073F093
:10397000D4C074F0D5C075F0CAC06EF0CBC06FF083
:10398000CCC070F0CDC071F008EC0BF06EC0CEF082
:103990006FC0CFF070C0D0F071C0D1F0CEC06EF06B
:1039A000CFC06FF0D0C070F0D1C071F0F90E00013F
:1039B000726F0F0E736F490E746F400E756F08ECC7
:1039C0000BF06EC0D6F06FC0D7F070C0D8F071C0E9
:1039D000D9F0D6C06EF0D7C06FF0D8C070F0D9C0A3
:1039E00071F0000E0001726F000E736F7A0E746F2B
:1039F000440E756F08EC0BF06EC0D6F06FC0D7F0B8
:103A000070C0D8F071C0D9F0D6C0B8F0D7C0B9F046
:103A1000D8C0BAF0D9C0BBF043EC2EF0B8C0C2F0A9
:103A2000B9C0C3F0BAC0C4F0BBC0C5F01200030EE9
:103A30000301106F000E00016F6F020E00016F6531
:103A400001D0120000016F51340D140EF324D96E11
:103A5000030EF420DA6E060EDF6E000E00016E6FAC
:103A6000050E00016E6501D0CED06EC062F000017F
:103A7000636B170E0001656F700E646F00EC4EF003
:103A800062C068F063C069F06FC062F00001636BF0
:103A9000010E0001656FF40E646F00EC4EF0000142
:103AA0006251000168270001635100016923000190
:103AB0006E51080D040EF326000EF422100E0001C4
:103AC0006A6F030E00016B6F040E00016A27000E7F
:103AD0006B23F35000016A27F45000016B230001AF
:103AE0006F51340DF35000016A27F45000016B232D
:103AF000040E00016A25D96E000E00016B21DA6EFA
:103B000068C0DEFF69C0DDFF6EC062F00001636B5C
:103B1000170E0001656F700E646F00EC4EF000012F
:103B200062C068F0000163C069F0000E000169BF67
:103B3000FF0E6A6F6B6F00016E51080D040EF326C5
:103B4000000EF422100E00016C6F030E00016D6F69
:103B5000040E00016C27000E6D23F35000016C274A
:103B6000F45000016D2300016F51340DF35000013A
:103B70006C25D96EF45000016D21DA6E68C0DEFF4D
:103B800069C0DEFF6AC0DEFF6BC0DEFF6FC062F09F
:103B90000001636B030E0001656FE80E646F00ECBB
:103BA0004EF000016E51080D040EF326000EF422B3
:103BB000100E0001686F030E0001696F040E000112
:103BC0006827000E6923F35000016827F4500001B4
:103BD000692300016F51340DF35000016827F45040
:103BE00000016923060E00016825D96E000E000150
:103BF0006921DA6E000162C0DEFF000163C0DDFFF3
:103C000000016E2B2DD700016F2B17D7000E28EC6B
:103C10004FF0010E10EC4FF03250F00B00018B6FA3
:103C200000018B3B0F0E8B1700018B510001D8A4B4
:103C300016D0E8C06DF0E9C06EF0EAC06FF0EBC0DE
:103C400070F0D1EC2FF06DC087F06EC088F06FC0BF
:103C500089F070C08AF0010EA7EC4AF034D0000160
:103C60008B05D8A416D052C16DF053C16EF054C16B
:103C70006FF055C170F0D1EC2FF06DC087F06EC0C1
:103C800088F06FC089F070C08AF0010E00EC47F038
:103C90001AD0020E00018B19D8A415D056C16DF0B0
:103CA00057C16EF058C16FF059C170F0D1EC2FF0D0
:103CB0006DC087F06EC088F06FC089F070C08AF068
:103CC000010E7DEC4AF0870E0001766F000E0001B8
:103CD000776F000E0001786F0AEC29F032500F0B5D
:103CE00000018B6F00018B510001D8A416D04AC18E
:103CF0006DF04BC16EF04CC16FF04DC170F0D1EC66
:103D00002FF06DC087F06EC088F06FC089F070C072
:103D10008AF0010E9AEC46F04FD000018B05D8A432
:103D200016D046C16DF047C16EF048C16FF049C171
:103D300070F0D1EC2FF06DC087F06EC088F06FC0CE
:103D400089F070C08AF0010E67EC46F035D0020EA3
:103D500000018B19D8A416D0E8C06DF0E9C06EF050
:103D6000EAC06FF0EBC070F0D1EC2FF06DC087F0BF
:103D70006EC088F06FC089F070C08AF0010ECDEC83
:103D800046F01AD0030E00018B19D8A415D052C1E9
:103D90006DF053C16EF054C16FF055C170F0D1ECAD
:103DA0002FF06DC087F06EC088F06FC089F070C0D2
:103DB0008AF0010E67EC41F0870E0001766F000E6D
:103DC0000001776F010E0001786F0AEC29F03C0EBC
:103DD00000018B6F00018B51FAEC49F05CEC48F06C
:103DE00012000A0E01016427000E652301016551CE
:103DF00007E1640E0101645DD8B002D0000E12002C
:103E0000000E0101656F000E646F0001FA51D8A425
:103E100028D0000E0001F96FEEC060F0EFC061F035
:103E2000020E0001626FEDEC4FF0EEC060F0EFC0EB
:103E300061F0F9C062F05BEC50F0EEC060F0EFC0F2
:103E400061F0000E0001626F49EC50F0EEC06BF0C3
:103E5000EFC06CF085EC4FF0010E0001FA6F010E1F
:103E60001200EEC06EF0EFC06FF0E3EC4BF06EC0EE
:103E700091F06FC092F00001F951D8A41CD0E00E6F
:103E800000017A6F010E00017B6F91C07CF092C03F
:103E90007DF0040E00017E6F93EC25F0030E00010F
:103EA000F96FEEC060F0EFC061F0050E0001626FC7
:103EB00049EC50F054D0030E0001F919D8A41CD0DD
:103EC000D80E00017A6F010E00017B6F91C07CF06B
:103ED00092C07DF0040E00017E6F93EC25F0050E7C
:103EE0000001F96FEEC060F0EFC061F0040E000158
:103EF000626F49EC50F033D0050E0001F919D8A4D7
:103F000022D0D00E00017A6F010E00017B6F91C0AC
:103F10007CF092C07DF0040E00017E6F93EC25F0E2
:103F20007AC070F17BC071F1000E0001F96FEEC034
:103F300060F0EFC061F0000E0001626F49EC50F0DC
:103F40000001FA2B0CD0EEC060F0EFC061F0000E63
:103F50000001626F49EC50F0000E0001F96FEEC0F5
:103F600060F0EFC061F0020E0001626FEDEC4FF007
:103F7000EEC060F0EFC061F0F9C062F05BEC50F0B1
:103F8000EEC06BF0EFC06CF085EC4FF0040E00015A
:103F9000FA650ED0E80E00018F6F010E0001906FE0
:103FA000ECEC41F0010E0001F86F000E0001FA6F19
:103FB000010E12000001686F000168510001D8B4C1
:103FC0001ED0000163AF1BD060C064F061C065F01B
:103FD00062C066F063C067F00001641F651F661F62
:103FE000671F642B000E65236623672364C06AF095
:103FF00065C06BF066C06CF067C06DF008D060C043
:104000006AF061C06BF062C06CF063C06DF00001DB
:104010006051000161110001621100016311D8A417
:104020000AD0000E0001606F000E616F000E626F1B
:10403000000E636F1200960E0001696F08D0000138
:10404000692B0001D8906D336C336B336A33000EEB
:1040500000016A150001646F000E00016B1500017C
:10406000656F000E00016C150001666FFE0E000109
:104070006D150001676F00016451000165110001B9
:10408000661100016711D8B410D0D9D70001692B8F
:10409000010E00016A27000E6B236C236D230001C3
:1040A000D8906D336C336B336A33000E00016A15A0
:1040B0000001646F000E00016B150001656F000EBA
:1040C00000016C150001666FFF0E00016D15000107
:1040D000676F000164510001651100016611000164
:1040E0006711D8B409D0D2D7000169070001D89070
:1040F0006A376B376C376D3700016CBF04D0020E26
:1041000000016961F1D7000169B109D0FF0E00011A
:104110006A17FF0E6B177F0E6C17FF0E6D170001ED
:10412000D890693369C064F00001656B666B676B9A
:1041300064C067F00001666B656B646B00016451DD
:1041400000016A130001655100016B130001665103
:1041500000016C130001675100016D1300016851EB
:104160000001D8B405D0000163AF02D000016D8F0B
:104170006AC060F06BC061F06CC062F06DC063F04B
:104180001200010E0401006F000E00016E6F0001AD
:104190006E510001D8A4120000016E51340D040EBE
:1041A000F324D96E040EF420DA6E060EDF6E000ED4
:1041B00000016F6F050E00016F6501D0C1D06FC0A7
:1041C00062F00001636B170E0001656F700E646F83
:1041D00000EC4EF062C068F063C069F06EC062F03F
:1041E0000001636B010E0001656FF40E646F00EC5B
:1041F0004EF0000162510001682700016351000187
:10420000692300016F51080D040EF326000EF422FD
:10421000000E00016A6F040E00016B6F040E0001B6
:104220006A27000E6B23F35000016A27F450000147
:104230006B2300016E51340DF35000016A27F450D6
:1042400000016B23040E00016A25D96E000E0001E7
:104250006B21DA6E68C0DEFF69C0DDFF6FC062F0FF
:104260000001636B170E0001656F700E646F00EC48
:104270004EF0000162C068F0000163C069F0000EFA
:10428000000169BFFF0E6A6F6B6F00016F51080D6F
:10429000040EF326000EF422000E00016C6F040ED3
:1042A00000016D6F040E00016C27000E6D23F350AA
:1042B00000016C27F45000016D2300016E51340D94
:1042C000F35000016C25D96EF45000016D21DA6EB7
:1042D00068C0DEFF69C0DEFF6AC0DEFF6BC0DEFFC4
:1042E00000016F51080D040EF326000EF422000E9B
:1042F0000001686F040E0001696F040E0001682759
:10430000000E6923F35000016827F450000169236F
:1043100000016E51340DF35000016827F450000184
:104320006923060E00016825D96E000E000169217F
:10433000DA6E000EDE6E000EDD6E00016F2B3AD7D6
:1043400000016E2B24D7000E00016D6F000E6C6F04
:10435000000120EE06F06851D9266951DA2201D811
:104360000AD00500FA6EDE50FD6EDE50FE6EF8508B
:10437000FF6EFA501200000120EE0AF06851D926B3
:104380006951DA2201D812D00500FA6EDE50FD6EB6
:10439000DE50FE6EF850FF6EFA50000120EE01F084
:1043A0006851D9266951DA22DF501200000120EE4F
:1043B0000AF06851D9266951DA2201D80CD00500DB
:1043C000FA6EDE50FD6EDE50FE6EF850FF6EFA5053
:1043D00000016A511200000120EE08F06851D92650
:1043E0006951DA2201D80AD00500FA6EDE50FD6E5E
:1043F000DE50FE6EF850FF6EFA501200000120EE03
:1044000006F06851D9266951DA2201D80AD0050090
:10441000FA6EDE50FD6EDE50FE6EF850FF6EFA5002
:104420001200000120EE0AF06851D9266951DA2203
:1044300001D816D00500FA6EDE50FD6EDE50FE6E1D
:10444000F850FF6EFA50000120EE01F06851D926B5
:104450006951DA22DF5000016B6F00016B291200F5
:10446000000120EE0EF06851D9266951DA2201D8F8
:104470000BD00500FA6EDE50FD6EDE50FE6EF85079
:10448000FF6EFA50000E120000016B6F00016B51BD
:1044900000016C6F6D6B00016C516D6F6C6B0001F6
:1044A00020EE0EF06851D9266951DA2201D80BD0DE
:1044B0000500FA6EDE50FD6EDE50FE6EF850FF6EA7
:1044C000FA50000E120000016B6F00016B510001E9
:1044D0006C13000120EE08F06851D9266951DA22E8
:1044E00001D80AD00500FA6EDE50FD6EDE50FE6E79
:1044F000F850FF6EFA5012006CC068F06DC069F0A1
:104500001200000120EE01F06851D9266951DA222B
:1045100001D80AD00500FA6EDE50FD6EDE50FE6E48
:10452000F850FF6EFA501200000120EE05F06851BD
:10453000D9266951DA2201D80FD00500FA6EDE5073
:10454000FD6EDE50FE6EF850FF6EFA5068C0D9FF67
:1045500069C0DAFFDF501200000120EE05F068515B
:10456000D9266951DA2201D80CD00500FA6EDE5046
:10457000FD6EDE50FE6EF850FF6EFA5000016A517B
:104580001200000120EE01F06851D9266951DA22AB
:1045900001D80AD00500FA6EDE50FD6EDE50FE6EC8
:1045A000F850FF6EFA501200000120EE05F068513D
:1045B000D9266951DA2201D813D00500FA6EDE50EF
:1045C000FD6EDE50FE6EF850FF6EFA5068C0D9FFE7
:1045D00069C0DAFFDF5000016F6F00016F29120020
:1045E000000E0001746F000E736F1FD0000120EEEB
:1045F00009F06851D9266951DA2201D80BD005009B
:10460000FA6EDE50FD6EDE50FE6EF850FF6EFA5010
:10461000000E12006BC0D9FF6CC0DAFFDF6E000124
:104620006B4B6C2B0001734B742BFF0E00016F6FF3
:10463000FF0E0001706F6DC071F06EC072F000016E
:104640006F510001712700017051000172230001B8
:1046500071510001735D0001725100017459D8A0BD
:10466000C5D7000120EE09F06851D9266951DA2238
:1046700001D80BD00500FA6EDE50FD6EDE50FE6EE6
:10468000F850FF6EFA50010E12006BC0D9FF6CC0DB
:10469000DAFFDF6E000120EE03F06851D926695180
:1046A000DA2201D812000500FA6EDE50FD6EDE50EF
:1046B000FE6EF850FF6EFA501200000E0001B815A1
:1046C0000001C06F000E0001B9150001C16F800E1E
:1046D0000001BA150001C26F7F0E0001BB15000179
:1046E000C36F0001C0510001C1110001C2110001DE
:1046F000C311D8A409D0000E0001B86F000EB96F25
:10470000000EBA6F000EBB6F000E0001BC15000159
:10471000C06F000E0001BD150001C16F800E0001C9
:10472000BE150001C26F7F0E0001BF150001C36FEF
:104730000001C0510001C1110001C2110001C311EB
:10474000D8A409D0000E0001BC6F000EBD6F000E92
:10475000BE6F000EBF6F0001BBAF26D0B8C0C0F067
:10476000B9C0C1F0BAC0C2F0BBC0C3F00001C01FE5
:10477000C11FC21FC31FC02B000EC123C223C323EE
:10478000000E0001C0250001B86F000E0001C1211C
:104790000001B96F000E0001C2210001BA6F800E46
:1047A0000001C3210001BB6F0001BFAF26D0BCC018
:1047B000C0F0BDC0C1F0BEC0C2F0BFC0C3F00001B8
:1047C000C01FC11FC21FC31FC02B000EC123C223A5
:1047D000C323000E0001C0250001BC6F000E0001C4
:1047E000C1210001BD6F000E0001C2210001BE6F9A
:1047F000800E0001C3210001BF6F000E0001B81B35
:10480000000EB91B000EBA1B800EBB1B000E000170
:10481000BC1B000EBD1B000EBE1B800EBF1B00018B
:10482000BC510001B85D0001BD510001B959000142
:10483000BE510001BA590001BF510001BB59D8B0A7
:1048400002D0D8901200D8801200000E0001DF6F55
:10485000F00EDE6F000E0001E36F020E0001E46F48
:10486000E3C0E1F0E4C0E2F0000E0001606FF40E7E
:10487000616F000E626F000E636FE3C064F0E4C00E
:1048800065F0000E0001676FF00E666F2BEC42F0D2
:10489000E3C06CF0E4C06DF0000E00016F6FF00E2D
:1048A0006E6F21EC41F00001E06F0001E05100016A
:1048B000D8A41200E3C060F0E4C061F0450E00012E
:1048C000626FF20E0001636F000E0001656FF00E63
:1048D000646F97EC4BF0E1C0C2F0E2C0C3F015EC9E
:1048E0001CF0000120EE10F0E151D926E251DA224D
:1048F0000001C2C0DEFF0001C3C0DEFF0001C4C072
:10490000DEFF0001C5C0DEFFE1C0C2F0E2C0C3F0BF
:10491000FBEC26F0000120EE14F0E151D926E25123
:10492000DA220001C2C0DEFF0001C3C0DEFF0001C9
:10493000C4C0DEFF0001C5C0DEFFE3C06CF0E4C010
:104940006DF0000E00016F6FEE0E6E6F65EC47F0BC
:10495000000E00016E6FF40E6F6F000E706F000E90
:10496000716FE3C072F0E4C073F0000E0001756F68
:10497000F00E746FA5EC29F0000E0001606FF40ECC
:10498000616F000E626F000E636FE3C064F0E4C0FD
:1049900065F0000E0001676FF00E666F2BEC42F0C1
:1049A000E3C06CF0E4C06DF0000E00016F6FF00E1C
:1049B0006E6F21EC41F00001E06F1200000E00016B
:1049C0008A6F0A0E01016227000E63230101635101
:1049D00007E1640E0101625DD8B002D0000E120042
:1049E000000E0101636F000E626F0001F651D8A442
:1049F00015D0040E0001F76FECC060F0EDC061F05F
:104A0000F7C062F05BEC50F0ECC06BF0EDC06CF006
:104A100085EC4FF00001F62B010E1200ECC06EF099
:104A2000EDC06FF0E3EC4BF06EC08BF06FC08CF01C
:104A3000040E0001F719D8A415D0C80E00017A6F32
:104A4000010E00017B6F8BC07CF08CC07DF0040EEA
:104A500000017E6F93EC25F07AC06CF17BC06DF1A4
:104A6000050E45D0050E0001F719D8A421D0C00EBF
:104A700000017A6F010E00017B6F8BC07CF08CC04F
:104A80007DF0040E00017E6F93EC25F07AC08BF070
:104A90007BC08CF00001D8908B378C3700018B5194
:104AA00001016C5F00018C5101016D5B030E1FD091
:104AB000030E0001F719D8A419D0B80E00017A6FBF
:104AC000010E00017B6F8BC07CF08CC07DF0040E6A
:104AD00000017E6F93EC25F07AC06EF17BC06FF120
:104AE000040E0001F76F0001F62B03D0040E000145
:104AF000F76FECC060F0EDC061F0F7C062F05BEC06
:104B000050F0ECC06BF0EDC06CF085EC4FF0040E93
:104B10000001F66506D0010E0001F56F000E0001E0
:104B2000F66F010E1200000E0001856F000E866FF9
:104B3000000E876F000E886F00017E050001896FEF
:104B4000000189510001D8B45CD0FE0E00017F6FD6
:104B5000FF0E0001806F000189510001816F826B9F
:104B6000D89000018137823700017F5100018127F1
:104B700000018051000182230001815100017A254A
:104B8000D96E0001825100017B21DA6E000189514A
:104B9000020DF35000017A25E16EF45000017B21F3
:104BA000E26EDECFE6FFDDCFE5FF00018951020DA9
:104BB000F35000017A25D96EF45000017B21DA6EA2
:104BC000DECF7FF0DDCF80F07FC081F080C082F04B
:104BD000000E000182BFFF0E836F846F00018151C0
:104BE00000018527000182510001862300018351C5
:104BF00000018723000184510001882300018907F7
:104C00009FD700018951020DF35000017A25D96E1A
:104C1000F45000017B21DA6E7CC0DEFF7DC0DDFF39
:104C20007CC07FF07DC080F0000E000180BFFF0ED1
:104C3000816F826F00017F51000185270001805143
:104C40000001862300018151000187230001825168
:104C50000001882385C06CF086C06DF087C06EF0BF
:104C600088C06FF000017E510001706F716B726B34
:104C7000736B2BEC2DF06CC085F06DC086F06EC0B0
:104C800087F06FC088F085C07AF086C07BF0120094
:104C90000A0E01016027000E61230101615107E145
:104CA000320E0101605DD8B002D0000E1200000E7D
:104CB0000101616F000E606F0001F451D8A40AD0A9
:104CC00037EC50F0020E0001F36F010E0001F46F9B
:104CD000010E1200020E0001F319D8A41DD000012C
:104CE000F351CAEC45F064C08AF065C08BF0B00E99
:104CF00000017A6F010E00017B6F8AC07CF08BC0CF
:104D00007DF0040E00017E6F93EC25F07AC021F057
:104D10007BC022F0010E61D00001F305D8A41DD0A4
:104D20000001F351CAEC45F064C08AF065C08BF015
:104D3000A80E00017A6F010E00017B6F8AC07CF023
:104D40008BC07DF0040E00017E6F93EC25F07AC0DD
:104D500023F07BC024F0000E40D00001F351D8A412
:104D600019D00001F351CAEC45F064C08AF065C067
:104D70008BF0A00E00017A6F010E00017B6F8AC0DC
:104D80007CF08BC07DF0040E00017E6F93EC25F06B
:104D9000030E23D0030E0001F319D8A41DD0000187
:104DA000F351CAEC45F064C08AF065C08BF0980EF0
:104DB00000017A6F010E00017B6F8AC07CF08BC00E
:104DC0007DF0040E00017E6F93EC25F0020E0001D1
:104DD000F36F0001F42B03D0020E0001F36F040EF9
:104DE0000001F46506D0010E0001F26F000E000113
:104DF000F46F010E1200000120EE0CF0C251D92612
:104E0000C351DA22DECF60F0DECF61F0DECF62F098
:104E1000DECF63F0000EDAEC1FF060C0D2F061C0AC
:104E2000D3F062C0D4F063C0D5F0D2C087F0D3C055
:104E300088F0D4C089F0D5C08AF0000E00018B6FD5
:104E4000000E8C6F7A0E8D6F440E8E6FA9EC11F0F0
:104E500087C0D2F088C0D3F089C0D4F08AC0D5F022
:104E6000D2C072F0D3C073F0D4C074F0D5C075F066
:104E7000D2C06EF0D3C06FF0D4C070F0D5C071F066
:104E800008EC0BF06EC0C6F06FC0C7F070C0C8F081
:104E900071C0C9F0D2C072F0D3C073F0D4C074F046
:104EA000D5C075F0C6C06EF0C7C06FF0C8C070F056
:104EB000C9C071F008EC0BF06EC0CAF06FC0CBF047
:104EC00070C0CCF071C0CDF0CAC06EF0CBC06FF036
:104ED000CCC070F0CDC071F0A60E0001726F0A0E4A
:104EE000736F860E746F3E0E756F08EC0BF06EC01C
:104EF000CEF06FC0CFF070C0D0F071C0D1F0CEC096
:104F00006EF0CFC06FF0D0C070F0D1C071F0000E65
:104F10000001726F000E736F7A0E746F440E756F1E
:104F200008EC0BF06EC0CEF06FC0CFF070C0D0F0C8
:104F300071C0D1F0CEC0B8F0CFC0B9F0D0C0BAF0D7
:104F4000D1C0BBF043EC2EF0B8C0C2F0B9C0C3F082
:104F5000BAC0C4F0BBC0C5F0120000016BBF0DD0D9
:104F6000100E00016A5D270E00016B59D8A005D014
:104F7000270E00016B6F0F0E6A6F6AC060F06BC086
:104F800061F0000E0001636F0A0E626F14EC3DF0D9
:104F90000C0E00016025F66EEF0E00016121F76E28
:104FA000000120EE03F06851D9266951DA22080089
:104FB000F5CFDFFF6AC060F06BC061F0000E00014A
:104FC000636F0A0E626FF0EC38F060C06AF061C087
:104FD0006BF06AC060F06BC061F0000E0001636F9F
:104FE0000A0E626F14EC3DF00C0E00016025F66EA7
:104FF000EF0E00016121F76E000120EE02F0685112
:10500000D9266951DA220800F5CFDFFF6AC060F0C7
:105010006BC061F0000E0001636F0A0E626FF0EC6E
:1050200038F060C06AF061C06BF06AC060F06BC0BD
:1050300061F0000E0001636F0A0E626F14EC3DF028
:105040000C0E00016025F66EEF0E00016121F76E77
:10505000000120EE01F06851D9266951DA220800DA
:10506000F5CFDFFF6AC060F06BC061F0000E000199
:10507000636F0A0E626FF0EC38F060C06AF061C0D6
:105080006BF06AC060F06BC061F0000E0001636FEE
:105090000A0E626F14EC3DF00C0E00016025F66EF6
:1050A000EF0E00016121F76E68C0D9FF69C0DAFF19
:1050B0000800F5CFDFFF120084D0DBEC50F01200C7
:1050C0003F0E0001606F000E0001616F000E0001D5
:1050D000626F030E0001636F06EC4CF012003F0E8E
:1050E0000001606F000E0001616F000E0001626F31
:1050F000040E0001636F06EC4CF0120050EC4EF011
:1051000012003F0E0001606F000E0001616F000E83
:105110000001626F050E0001636F06EC4CF0120097
:1051200025EC50F0120013EC50F012003F0E00017D
:10513000606F000E0001616F000E0001626F020ED1
:105140000001636F06EC4CF012003F0E0001606F2F
:10515000000E0001616F000E0001626F040E00017D
:10516000636F06EC4CF012003F0E0001606F000E02
:105170000001616F000E0001626F040E0001636F99
:1051800006EC4CF012003F0E0001606F000E0001B3
:10519000616F000E0001626F040E0001636F06EC88
:1051A0004CF012003F0E0001606F000E0001616FB5
:1051B000000E0001626F020E0001636F06EC4CF0FE
:1051C00012003350000AD8B478D7100AD8B478D770
:1051D000300AD8B484D7100AD8B490D7700AD8B49B
:1051E00090D7100AD8B49CD7300AD8B49CD7100AEC
:1051F000D8B49CD7F00AD8B41200100AD8B4A5D7F6
:10520000300AD8B4B1D7100AD8B4BDD7700AD8A420
:105210001200C8D7010E0001786501D0120076C0D7
:10522000D9FF77C0DAFFDECF85F0DDCF86F0000151
:1052300020EE03F07651D9267751DA22DF50D8B428
:105240002CD085C062F086C063F0000E0001656F4F
:105250000A0E646F22EC43F062C085F063C086F0F2
:10526000E80E0001855D030E00018659D8A005D027
:10527000030E0001866FE70E856F7A0E0001686FDE
:10528000000E0001696F85C06AF086C06BF0ADEC5E
:1052900027F02D0E00017A6F19D0100E0001855DE8
:1052A000270E00018659D8A005D0270E0001866F71
:1052B0000F0E856F7A0E0001686F000E0001696F96
:1052C00085C06AF086C06BF0ADEC27F0000E0001DF
:1052D0007F6F000178510001D8A409D07A0E000137
:1052E000736F000E0001746FF0EC44F008D07A0E7A
:1052F0000001736F000E0001746F28EC4CF0000188
:1053000020EE03F07651D9267751DA22DF500001E2
:10531000796F000120EE02F07651D9267751DA221A
:10532000DF50000179250001846F030E00018461C4
:105330001200010E0001706F00017851040DF3504E
:10534000000184255EEC45F01200000E00017F6F25
:10535000050E0001806FFF0E00016E150001816FC8
:10536000030E00016F150001826F000174510001EE
:1053700081250001766F0001755100018221000135
:10538000776F00017605010E00017759D8B0120041
:10539000000E00016E1500017A6FFC0E00016F1502
:1053A00000017B6FFF0E0001701500017C6FFF0E86
:1053B0000001711500017D6F7AC060F07BC061F063
:1053C0007CC062F07DC063F07FC064F080C065F097
:1053D000010E0001676F000E666F2BEC42F00001BA
:1053E000815100017F250001606F000182510001A1
:1053F00080210001616F72C062F073C063F074C0FD
:1054000064F075C065F097EC4BF07AC060F07BC03B
:1054100061F07CC062F07DC063F0A1EC49F0040E45
:105420000001786F7FC081F080C082F081C0E9FF09
:1054300000018251816F826B81C0EAFF000E000182
:10544000796F17D0000E00017E6F3F0E00017E6560
:1054500001D007D0EECFE8FFF56E0D0000017E2BE6
:10546000F4D70A00A684F7EC50F0A6940D000001D2
:10547000792B000178510001795DD8B01200E2D794
:105480000301CA6F000E0301CF6F020E0301D06F3C
:1054900035C06CF036C06DF037C06EF038C06FF0BC
:1054A0001CEC3CF06CC0CBF36DC0CCF36EC0CDF304
:1054B0006FC0CEF35CD0030120EE9CF0CF51D92613
:1054C000D051DA22CBC3DEFFCCC3DEFFCDC3DEFF7B
:1054D000CEC3DEFF030120EEA0F012D0030120EEC8
:1054E000A4F0CF51D926D051DA22CBC3DEFFCCC3F2
:1054F000DEFFCDC3DEFFCEC3DEFF030120EEA8F04A
:10550000CF51D926D051DA2221C0DEFF22C0DDFFE3
:105510003BD0030120EEACF0CF51D926D051DA2296
:10552000CBC3DEFFCCC3DEFFCDC3DEFFCEC3DEFFC9
:10553000030120EEB0F012D0030120EEB4F0CF5101
:10554000D926D051DA22CBC3DEFFCCC3DEFFCDC3D8
:10555000DEFFCEC3DEFF030120EEB8F0CF51D92627
:10556000D051DA2223C0DEFF24C0DDFF0DD032503F
:10557000000AD8B4A0D7010AD8B4B0D7030AD8B467
:10558000C8D7010AD8B4D8D7D6EC30F00301CA5135
:105590000301D8B403D0A8EC4CF01200322A030E59
:1055A000326402D0000E326E3250C8EC3BF0120072
:1055B000000E28EC4FF0010E10EC4FF032C07DF0E1
:1055C000030E00017D6501D01200770E0001606FAF
:1055D000000E0001616F9B0E0001626FF30E00016F
:1055E000636F94EC45F000017D51310F00017A6F3B
:1055F000770E0001736F000E0001746FF0EC44F041
:10560000390E00017E6F000E00017F6F770E0001E2
:10561000606F000E0001616F7A0E0001626FF30E81
:105620000001636F94EC45F07EC0D9FF7FC0DAFFC4
:10563000DF50D8A40FD0770E0001606F000E00017C
:10564000616FF50E0001626FF30E0001636F94EC61
:1056500045F03BD07EC0D9FF7FC0DAFFDE04D8A47E
:105660000FD0770E0001606F000E0001616FC30E56
:105670000001626FF30E0001636F94EC45F025D0DA
:105680007EC0D9FF7FC0DAFF020EDE18D8A40FD08B
:10569000770E0001606F000E0001616FFA0E0001CD
:1056A000626FF30E0001636F94EC45F00ED0770E3D
:1056B0000001606F000E0001616FC80E0001626F93
:1056C000F30E0001636F94EC45F0770E0001736FE9
:1056D000000E0001746F28EC4CF05CEC48F01200F6
:1056E000000E0001766F000E0001796F040E0001BC
:1056F0007A6F820E276E010E286E27C060F028C0D8
:1057000061F0AA0E0001626FA8EC42F0000E0001E9
:10571000786FA20E776F27C068F028C069F0000E7E
:1057200000016A6F79C06BF07AC06CF077C06DF0E1
:1057300078C06EF081EC22F079C06CF07AC06DF028
:1057400077C06EF078C06FF021EC41F00001766F09
:10575000000176510001D8A41200C1EC20F079C0FC
:105760006CF07AC06DF0FE0E0001772500016E6FBF
:10577000FF0E0001782100016F6F65EC47F027C034
:1057800066F028C067F0000E0001686F79C069F00C
:105790007AC06AF077C06BF078C06CF0B8EC2DF08E
:1057A00027C068F028C069F0000E00016A6F79C058
:1057B0006BF07AC06CF077C06DF078C06EF081EC61
:1057C00022F079C06CF07AC06DF077C06EF078C0CE
:1057D0006FF021EC41F00001766F0001765100017D
:1057E000D8A41200C1EC20F079C06CF07AC06DF042
:1057F000FE0E0001772500016E6FFF0E000178217B
:1058000000016F6F65EC47F01200000E0001766F2B
:10581000100E0001796F030E00017A6F8D0E296E54
:10582000010E2A6E29C060F02AC061F0AA0E0001A4
:10583000626FA8EC42F0000E0001786FA20E776F45
:1058400029C068F02AC069F0000E00016A6F79C0B3
:105850006BF07AC06CF077C06DF078C06EF081ECC0
:1058600022F079C06CF07AC06DF077C06EF078C02D
:105870006FF021EC41F00001766F000176510001DC
:10588000D8A4120017EC1DF079C06CF07AC06DF04E
:10589000FE0E0001772500016E6FFF0E00017821DA
:1058A00000016F6F65EC47F029C066F02AC067F011
:1058B000000E0001686F79C069F07AC06AF077C0A5
:1058C0006BF078C06CF0B8EC2DF029C068F02AC0FD
:1058D00069F0000E00016A6F79C06BF07AC06CF05D
:1058E00077C06DF078C06EF081EC22F079C06CF07A
:1058F0007AC06DF077C06EF078C06FF021EC41F0A7
:105900000001766F000176510001D8A4120017EC57
:105910001DF079C06CF07AC06DF0FE0E00017725A5
:1059200000016E6FFF0E0001782100016F6F65ECC2
:1059300047F01200E80E0301E46F010E0301E56F6A
:10594000B20E0001606F030E0001616F000E0001D6
:10595000626F180E0001636F7EEC50F0000E0301C1
:10596000E66F000E0301E66F22D00301E651340D0D
:10597000140EF3240301E26F030EF4200301E36F1E
:10598000E2C37AF0E3C37BF0E4C37CF0E5C37DF0CF
:105990000301E651080DB20EF32400017E6F030EE1
:1059A000F42000017F6FC2EC03F00301E62B03013A
:1059B00010510301E65DD8A0D8D7B20E00017A6F6E
:1059C000030E00017B6FE4C37CF0E5C37DF0E6C30A
:1059D0007EF05BEC0DF0E4C3D9FFE5C3DAFFDECF68
:1059E0005AF1DECF5BF1DECF5CF1DECF5DF1E4C3D7
:1059F000C2F0E5C3C3F04DEC2FF04FEC18F00001FE
:105A0000FE6F02010451D8A413D0E8C0CAF3E9C064
:105A1000CBF3EAC0CCF3EBC0CDF3ACEC19F0CAC3C6
:105A200052F1CBC353F1CCC354F1CDC355F11200A5
:105A3000E8C0CAF3E9C0CBF3EAC0CCF3EBC0CDF3C6
:105A40006EEC00F0CAC352F1CBC353F1CCC354F196
:105A5000CDC355F11200000E0001756F000173AF48
:105A60000CD00001731F721F711F706D000E712327
:105A700072237323010E0001756F00016FAF0CD00C
:105A800000016F1F6E1F6D1F6C6D000E6D236E2366
:105A90006F23010E0001751B000E0001766F000ED2
:105AA000776F000E786F000E796F00017051000162
:105AB00071110001721100017311D8B442D0010EAE
:105AC0000001746F08D00001D890703771377237B9
:105AD00073370001742B000173AFF5D70001D89024
