:100000006EEF00F0AA00AA0040822EEF0BF0AA00CB
:10001000AA00AA00AA00AA004080D8CF2EF0E8CFFC
:100020002FF0E0CF30F0FACF31F0FBCF32F0E9CF54
:1000300033F0EACF34F0E1CF35F0E2CF36F0D9CF6C
:1000400037F0DACF38F0F3CF39F0F4CF3AF0F6CF1B
:100050003BF0F7CF3CF0F8CF3DF0F5CF3EF09DB24E
:100060009EA20ED09FB20CD09E92010E00018A2754
:10007000000E8B238C238D230001CE8165EC19F0BB
:10008000A3B0A4A007D0A5B005D0A4900001CE8352
:10009000B7EC19F03EC0F5FF3DC0F8FF3CC0F7FFDC
:1000A0003BC0F6FF3AC0F4FF39C0F3FF38C0DAFFB7
:1000B00037C0D9FF36C0E2FF35C0E1FF34C0EAFFE8
:1000C00033C0E9FF32C0FBFF31C0FAFF30C0E0FFB0
:1000D0002FC0E8FF2EC0D8FF40901000F8EF0BF0C3
:1000E0000101626F310E0101626501D01200010150
:1000F00062510008310F0101616FC2D12E0E000163
:10010000F16FF6C0F2F0000E94EC0BF012002E0E20
:100110000001F16FF6C0F2F0010E94EC0BF012004A
:100120002E0E0001F16FF6C0F2F0020E94EC0BF00F
:1001300012002E0E0001F16FF6C0F2F0030E94ECE7
:100140000BF012002F0E0001F16FF6C0F2F0030E5B
:1001500094EC0BF012002F0E0001F16FF6C0F2F0DC
:10016000020E94EC0BF012002F0E0001F16FF6C09E
:10017000F2F0010E94EC0BF012002F0E0001F16F63
:10018000F6C0F2F0000E94EC0BF012001F0E00010E
:10019000F16FF6C0F2F0000E94EC0BF012001F0E9F
:1001A0000001F16FF6C0F2F0010E94EC0BF01200BA
:1001B0001F0E0001F16FF6C0F2F0020E94EC0BF08E
:1001C00012001F0E0001F16FF6C0F2F0030E94EC66
:1001D0000BF01200000E0001F16FF6C0F2F0030EFA
:1001E00094EC0BF01200000E0001F16FF6C0F2F07B
:1001F000020E94EC0BF01200000E0001F16FF6C03D
:10020000F2F0010E94EC0BF01200000E0001F16F01
:10021000F6C0F2F0000E94EC0BF01200010E00019B
:10022000F16FF6C0F2F0000E94EC0BF01200010E2C
:100230000001F16FF6C0F2F0010E94EC0BF0120029
:10024000010E0001F16FF6C0F2F0020E94EC0BF01B
:100250001200010E0001F16FF6C0F2F0030E94ECF3
:100260000BF01200020E0001F16FF6C0F2F0030E67
:1002700094EC0BF01200020E0001F16FF6C0F2F0E8
:10028000020E94EC0BF01200020E0001F16FF6C0AA
:10029000F2F0010E94EC0BF01200020E0001F16F6F
:1002A000F6C0F2F0000E94EC0BF01200030E000109
:1002B000F16FF6C0F2F0000E94EC0BF01200030E9A
:1002C0000001F16FF6C0F2F0010E94EC0BF0120099
:1002D000030E0001F16FF6C0F2F0020E94EC0BF089
:1002E0001200030E0001F16FF6C0F2F0030E94EC61
:1002F0000BF01200040E0001F16FF6C0F2F0030ED5
:1003000094EC0BF01200040E0001F16FF6C0F2F055
:10031000020E94EC0BF01200040E0001F16FF6C017
:10032000F2F0010E94EC0BF01200040E0001F16FDC
:10033000F6C0F2F0000E94EC0BF01200050E000176
:10034000F16FF6C0F2F0000E94EC0BF01200050E07
:100350000001F16FF6C0F2F0010E94EC0BF0120008
:10036000050E0001F16FF6C0F2F0020E94EC0BF0F6
:100370001200050E0001F16FF6C0F2F0030E94ECCE
:100380000BF01200060E0001F16FF6C0F2F0030E42
:1003900094EC0BF01200060E0001F16FF6C0F2F0C3
:1003A000020E94EC0BF01200060E0001F16FF6C085
:1003B000F2F0010E94EC0BF01200060E0001F16F4A
:1003C000F6C0F2F0000E94EC0BF01200070E0001E4
:1003D000F16FF6C0F2F0000E94EC0BF01200070E75
:1003E0000001F16FF6C0F2F0010E94EC0BF0120078
:1003F000070E0001F16FF6C0F2F0020E94EC0BF064
:100400001200070E0001F16FF6C0F2F0030E94EC3B
:100410000BF01200210E0001F16FF6C0F2F0030E96
:1004200094EC0BF01200210E0001F16FF6C0F2F017
:10043000020E94EC0BF01200210E0001F16FF6C0D9
:10044000F2F0010E94EC0BF01200210E0001F16F9E
:10045000F6C0F2F0000E94EC0BF01200220E000138
:10046000F16FF6C0F2F0000E94EC0BF01200220EC9
:100470000001F16FF6C0F2F0010E94EC0BF01200E7
:1004800001016151000AD8B439D6010AD8B43FD667
:10049000030AD8B445D6010AD8B44BD6070AD8B453
:1004A00051D6010AD8B457D6030AD8B45DD6010A8A
:1004B000D8B463D60F0AD8B469D6010AD8B46FD6B7
:1004C000030AD8B475D6010AD8B47BD6070AD8B4C3
:1004D00081D6010AD8B487D6030AD8B48DD6010ACA
:1004E000D8B493D61F0AD8B499D6010AD8B49FD6E7
:1004F000030AD8B4A5D6010AD8B4ABD6070AD8B433
:10050000B1D6010AD8B4B7D6030AD8B4BDD6010A09
:10051000D8B4C3D60F0AD8B4C9D6010AD8B4CFD636
:10052000030AD8B4D5D6010AD8B4DBD6070AD8B4A2
:10053000E1D6010AD8B4E7D6030AD8B4EDD6010A49
:10054000D8B4F3D63F0AD8B4F9D6010AD8B4FFD646
:10055000030AD8B405D7010AD8B40BD7070AD8B410
:1005600011D7010AD8B417D7030AD8B41DD7010A86
:10057000D8B423D70F0AD8B429D7010AD8B42FD7B3
:10058000030AD8B435D7010AD8B43BD7070AD8B480
:1005900041D7010AD8B447D7030AD8B44DD7010AC6
:1005A000D8B453D71F0AD8B459D7010AD8A4120017
:1005B0005ED7000E01016E6F000E6F6F000E706F40
:1005C000000E716F030E0101606118D1000E010170
:1005D0005F6F000E5E6F12005EC1D9FF5FC1DAFF70
:1005E000DECF6AF1DDCF6BF16AC16CF16BC16DF1E9
:1005F000000E01016E6F000E6F6F000E706F000E27
:10060000716F000E0101726F7FD001017251020DF6
:10061000F35001015E25D96EF45001015F21DA6EBD
:1006200001016C51DE5CDE50800A0101646F010142
:100630006D51800A01016459D8B011D00101725185
:10064000020DF35001015E25D96EF45001015F21C6
:10065000DA6EDECF6CF1DDCF6DF172C169F10101AF
:100660007251020DF35001015E25D96EF450010163
:100670005F21DA6EDE5001016A5D01016B51800A73
:100680000101646FDE50800A01016459D8B011D0B5
:1006900001017251020DF35001015E25D96EF45033
:1006A00001015F21DA6EDECF6AF1DDCF6BF172C13D
:1006B00068F101017251020DF35001015E25D96EFE
:1006C000F45001015F21DA6EDECF62F1DDCF63F11C
:1006D00062C164F163C165F1000E010165BFFF0EE7
:1006E000666F676F0101645101016E270101655159
:1006F00001016F230101665101017023010167515E
:10070000010171230101722B010160510101725D30
:10071000D8A07BD701016C5101016A250101626FEC
:1007200001016D5101016B210101636F0101646BD6
:10073000010163BF6407010164510101656F01019B
:10074000625101016E5F0101635101016F5B0101A3
:1007500064510101705B010165510101715B6EC162
:10076000E9F06FC1EAF070C1EBF071C1ECF0FE0E80
:100770000101626FFF0E0101636F01016051010110
:10078000646F656B010162510101642701016351CE
:100790000101652364C1EDF065C1EEF00001000EBA
:1007A000EEBFFF0EEF6FF06FA9EC08F0E9C06EF13D
:1007B000EAC06FF1EBC070F1ECC071F10101695159
:1007C000020DF35001015E25D96EF45001015F2145
:1007D000DA6E6EC1DEFF6FC1DDFF01016851020DEF
:1007E000F35001015E25D96EF45001015F21DA6EEC
:1007F0006EC1DEFF6FC1DDFF0101610701016151C3
:100800000101D8A4E9D66EC15EF16FC15FF112009B
:10081000000E0101606F000E616F000E626F000E2E
:10082000636F142A3B0E14641200000E146E34EC35
:1008300019F0000E0101606F000E616F000E626F13
:10084000000E636F000E0101646F030E0101646509
:1008500001D018D0020EDEEC12F0EDC05EF1EEC059
:100860005FF101015E510101602701015F5101014A
:100870006123000E01016223000E010163230101C7
:10088000642BE3D760C1F3F061C1F4F062C1F5F00D
:1008900063C1F6F0030E06D00001D890F633F533AD
:1008A000F433F333E82EF8D7F3C0B0F0F4C0B1F06E
:1008B000000E0101606F000E616F000E626F000E8E
:1008C000636F000E0101646F030E0101646501D0C6
:1008D00018D0010EDEEC12F0EDC05EF1EEC05FF15B
:1008E00001015E510101602701015F510101612396
:1008F000000E01016223000E010163230101642B3C
:10090000E3D760C1F3F061C1F4F062C1F5F063C1F7
:10091000F6F0030E06D00001D890F633F533F43329
:10092000F333E82EF8D7F3C0AEF0F4C0AFF0000E0A
:100930000101606F000E616F000E626F000E636F49
:10094000000E0101646F030E0101646501D018D02F
:10095000000EDEEC12F0EDC05EF1EEC05FF10101C1
:100960005E510101602701015F5101016123000E09
:1009700001016223000E010163230101642BE3D70F
:1009800060C1F3F061C1F4F062C1F5F063C1F6F04B
:10099000030E06D00001D890F633F533F433F33369
:1009A000E82EF8D7F3C0ACF0F4C0ADF0000E0101B2
:1009B000606F000E616F000E626F000E636F000EBD
:1009C0000101646F030E0101646501D018D0030EAC
:1009D000DEEC12F0EDC05EF1EEC05FF101015E51A0
:1009E0000101602701015F5101016123000E010136
:1009F0006223000E010163230101642BE3D760C170
:100A0000F3F061C1F4F062C1F5F063C1F6F0030EDA
:100A100006D00001D890F633F533F433F333E82EE3
:100A2000F8D7F3C0AAF0F4C0ABF01200000E00013A
:100A3000F26F000EF16F000120EE06F0ED51D926A5
:100A4000EE51DA2201D80AD00500FA6EDE50FD6EB2
:100A5000DE50FE6EF850FF6EFA501200000120EEDC
:100A60000AF0ED51D926EE51DA2201D812D0050054
:100A7000FA6EDE50FD6EDE50FE6EF850FF6EFA50DC
:100A8000000120EE01F0ED51D926EE51DA22DF50BF
:100A90001200000120EE0AF0ED51D926EE51DA22C3
:100AA00001D80CD00500FA6EDE50FD6EDE50FE6EF1
:100AB000F850FF6EFA500001EF511200000120EED5
:100AC00008F0ED51D926EE51DA2201D80AD00500FE
:100AD000FA6EDE50FD6EDE50FE6EF850FF6EFA507C
:100AE0001200000120EE06F0ED51D926EE51DA2277
:100AF00001D80AD00500FA6EDE50FD6EDE50FE6EA3
:100B0000F850FF6EFA501200000120EE0AF0ED518D
:100B1000D926EE51DA2201D816D00500FA6EDE5041
:100B2000FD6EDE50FE6EF850FF6EFA50000120EEB2
:100B300001F0ED51D926EE51DA22DF500001F06FBD
:100B40000001F0291200000120EE0EF0ED51D9262F
:100B5000EE51DA2201D80BD00500FA6EDE50FD6EA0
:100B6000DE50FE6EF850FF6EFA50000E12000001CB
:100B7000F06F0001F0510001F16FF26B0001F151D3
:100B8000F26FF16B000120EE0EF0ED51D926EE511F
:100B9000DA2201D80BD00500FA6EDE50FD6EDE5071
:100BA000FE6EF850FF6EFA50000E12000001F06F5A
:100BB0000001F0510001F113000120EE08F0ED51A9
:100BC000D926EE51DA2201D80AD00500FA6EDE509D
:100BD000FD6EDE50FE6EF850FF6EFA501200F1C04E
:100BE000EDF0F2C0EEF01200000E0101696F000E90
:100BF0006A6F000E6B6F000E6C6F010162050101E0
:100C00006D6F01016D510101D8B45CD0FE0E010180
:100C1000636FFF0E0101646F01016D510101656F8A
:100C2000666BD89001016537663701016351010198
:100C3000652701016451010166230101655101012C
:100C40005E25D96E0101665101015F21DA6E010155
:100C50006D51020DF35001015E25E16EF45001016A
:100C60005F21E26EDECFE6FFDDCFE5FF01016D51D2
:100C7000020DF35001015E25D96EF45001015F2190
:100C8000DA6EDECF63F1DDCF64F163C165F164C17B
:100C900066F1000E010166BFFF0E676F686F01010C
:100CA0006551010169270101665101016A230101B2
:100CB000675101016B230101685101016C2301019E
:100CC0006D079FD701016D51020DF35001015E25A3
:100CD000D96EF45001015F21DA6E60C1DEFF61C19F
:100CE000DDFF60C163F161C164F1000E010164BF09
:100CF000FF0E656F666F01016351010169270101F4
:100D0000645101016A230101655101016B23010155
:100D1000665101016C2369C1E9F06AC1EAF06BC157
:100D2000EBF06CC1ECF0010162510001ED6FEE6B74
:100D3000EF6BF06BA9EC08F0E9C069F1EAC06AF169
:100D4000EBC06BF1ECC06CF112000001F4BF0DD0F0
:100D5000100E0001F35D270E0001F459D8A005D054
:100D6000270E0001F46F0F0EF36FF3C0E9F0F4C02B
:100D7000EAF0000E0001EC6F0A0EEB6F7FEC0EF054
:100D80000C0E0001E925F66EFF0E0001EA21F76E58
:100D9000000120EE03F0F151D926F251DA220800C9
:100DA000F5CFDFFFF3C0E9F0F4C0EAF0000E000178
:100DB000EC6F0A0EEB6FB9EC0CF0E9C0F3F0EAC08F
:100DC000F4F0F3C0E9F0F4C0EAF0000E0001EC6FBB
:100DD0000A0EEB6F7FEC0EF00C0E0001E925F66EAB
:100DE000FF0E0001EA21F76E000120EE02F0F15142
:100DF000D926F251DA220800F5CFDFFFF3C0E9F07F
:100E0000F4C0EAF0000E0001EC6F0A0EEB6FB9ECD3
:100E10000CF0E9C0F3F0EAC0F4F0F3C0E9F0F4C07C
:100E2000EAF0000E0001EC6F0A0EEB6F7FEC0EF0A3
:100E30000C0E0001E925F66EFF0E0001EA21F76EA7
:100E4000000120EE01F0F151D926F251DA2208001A
:100E5000F5CFDFFFF3C0E9F0F4C0EAF0000E0001C7
:100E6000EC6F0A0EEB6FB9EC0CF0E9C0F3F0EAC0DE
:100E7000F4F0F3C0E9F0F4C0EAF0000E0001EC6F0A
:100E80000A0EEB6F7FEC0EF00C0E0001E925F66EFA
:100E9000FF0E0001EA21F76EF1C0D9FFF2C0DAFFC0
:100EA0000800F5CFDFFF1200000E0101756F152A53
:100EB0003B0E15641200000E156E93988A88949A62
:100EC0008B8A000E0001EE6F140EED6F0FEC19F01F
:100ED00009C0E9F00AC0EAF0000E0001EB6FFBEC7C
:100EE00018F009C0F1F00AC0F2F0D2EC18F0000ED0
:100EF0000001EE6F140EED6F0FEC19F009C0F3F066
:100F00000AC0F4F0EDEC15F0F3C076F1F4C077F11F
:100F1000060E18600DD01850020D300EF324D96E55
:100F2000010EF420DA6E76C1DEFF77C1DDFF182AEC
:100F300009C0E9F00AC0EAF0030E0001EB6FFBEC18
:100F400018F009C0F1F00AC0F2F0D2EC18F0000E6F
:100F50000001EE6F140EED6F0FEC19F009C0F3F005
:100F60000AC0F4F0EDEC15F0F3C076F1F4C077F1BF
:100F7000060E17600DD01750020D200EF324D96E07
:100F8000010EF420DA6E76C1DEFF77C1DDFF172A8D
:100F900009C0E9F00AC0EAF0050E0001EB6FFBECB6
:100FA00018F009C0F1F00AC0F2F0D2EC18F0000E0F
:100FB0000001EE6F140EED6F0FEC19F009C0F3F0A5
:100FC0000AC0F4F0EDEC15F0F3C076F1F4C077F15F
:100FD00076C1B2F077C1B3F0949A8B9A1750185C2F
:100FE000D8A01200050E18641200E10E0101736F03
:100FF000000E0101746F2CEC12F0000E176E17C07A
:1010000018F01200000E01016E6F0001CF2B3B0E95
:101010000001CF651200000E0001CF6F93988A88FF
:10102000949A8B8A000E0001EE6F140EED6F0FEC98
:1010300019F0B4C0E9F0B5C0EAF0040E0001EB6F9E
:10104000FBEC18F0B4C0F1F0B5C0F2F0D2EC18F03F
:10105000000E0001EE6F140EED6F0FEC19F0B4C02E
:10106000F3F0B5C0F4F0EDEC15F0F3C06FF1F4C09F
:1010700070F1D90E01015E6F000E01015F6F6FC14B
:1010800060F170C161F1040E0101626FF4EC05F0D2
:10109000B4C0E9F0B5C0EAF0040E0001EB6FFBEC60
:1010A00018F0B4C0F1F0B5C0F2F0D2EC18F0000EB8
:1010B0000001EE6F140EED6F0FEC19F0B4C0F3F0F9
:1010C000B5C0F4F0EDEC15F0F3C06FF1F4C070F1C1
:1010D000D10E01015E6F000E01015F6F6FC160F103
:1010E00070C161F1040E0101626FF4EC05F0B4C04F
:1010F000E9F0B5C0EAF0030E0001EB6FFBEC18F06D
:10110000B4C0F1F0B5C0F2F0D2EC18F0000E00015E
:10111000EE6F140EED6F0FEC19F0B4C0F3F0B5C024
:10112000F4F0EDEC15F0F3C06FF1F4C070F1560E71
:1011300001015E6F010E01015F6F6FC160F170C14F
:1011400061F1040E0101626FF4EC05F0949A8B9A40
:101150001200000E0001F26F0001F0AF0CD0000190
:10116000F01FEF1FEE1FED6D000EEE23EF23F023B7
:10117000010E0001F26F0001ECAF0CD00001EC1F7A
:10118000EB1FEA1FE96D000EEA23EB23EC23010EAF
:101190000001F21B000E0001F36F000EF46F000E51
:1011A000F56F000EF66F0001ED510001EE11000128
:1011B000EF110001F011D8B442D0010E0001F16F1F
:1011C00008D00001D890ED37EE37EF37F037000147
:1011D000F12B0001F0AFF5D70001D890F337F437C9
:1011E000F537F6370001ED510001E95D0001EE51E0
:1011F0000001EA590001EF510001EB590001F051E3
:101200000001EC59D8A012D00001ED510001E95FB6
:101210000001EE510001EA5B0001EF510001EB5BC0
:101220000001F0510001EC5B0001F3810001D89056
:10123000F033EF33EE33ED330001F12FCDD7000162
:10124000F2510001D8B409D00001F61FF51FF41FB8
:10125000F36D000EF423F523F623F3C0E9F0F4C098
:10126000EAF0F5C0EBF0F6C0ECF0120092C06AF1C3
:1012700093C06BF194C06CF195C06DF15EC166F1E5
:101280005FC167F160C168F161C169F1010161AFDE
:1012900040D05EC162F15FC163F160C164F161C1C0
:1012A00065F10101621F631F641F651F622B000E41
:1012B00063236423652362C166F163C167F164C17E
:1012C00068F165C169F1010E01016D6F22D0010164
:1012D0006C2B66C1E9F067C1EAF068C1EBF069C147
:1012E000ECF00A0E0001ED6F000EEE6F000EEF6FD6
:1012F000000EF06F18EC0DF0E9C066F1EAC067F17E
:10130000EBC068F1ECC069F1030E01016C19D8B4AF
:101310000DD00101695101016811D9E1100E0101DF
:10132000665D270E01016759D8B0D1D70101695117
:101330000101681108E1100E0101665D270E01012F
:101340006759D8A009D00F0E0101666F270E676F8D
:10135000000E686F000E696F66C16AF167C16BF1BC
:101360006AC15EF16BC15FF16CC160F16DC161F189
:101370001200000E0101756F640E0726000E082290
:10138000085004E1330E075CD8A01200000E086E6E
:10139000000E076E09C0F3F00AC0F4F0EDEC15F092
:1013A000F3C076F1F4C077F11650D8A41BD0060E26
:1013B00018600DD01850020D300EF324D96E010EB6
:1013C000F420DA6E76C1DEFF77C1DDFF182A09C08E
:1013D000E9F00AC0EAF0030E0001EB6FFBEC18F035
:1013E000010E2CD01604D8A41BD0060E17600DD009
:1013F0001750020D200EF324D96E010EF420DA6E80
:1014000076C1DEFF77C1DDFF172A09C0E9F00AC007
:10141000EAF0050E0001EB6FFBEC18F0020E0ED0A7
:1014200076C1B2F077C1B3F009C0E9F00AC0EAF0C2
:10143000000E0001EB6FFBEC18F0000E166E09C0F9
:10144000F1F00AC0F2F0D2EC18F01750185CD8A0F6
:101450001200050E18641200E10E0101736F000EF8
:101460000101746F2CEC12F0000E176E17C018F00B
:101470001200000120EE06F0EC51D926ED51DA22DF
:1014800001D80AD00500FA6EDE50FD6EDE50FE6E09
:10149000F850FF6EFA501200000120EE0AF0EC51F5
:1014A000D926ED51DA2201D812D00500FA6EDE50AD
:1014B000FD6EDE50FE6EF850FF6EFA50000120EE19
:1014C00001F0EC51D926ED51DA22DF501200000173
:1014D00020EE0AF0EC51D926ED51DA2201D80CD0D9
:1014E0000500FA6EDE50FD6EDE50FE6EF850FF6EA7
:1014F000FA500001EE511200000120EE0AF0EC510A
:10150000D926ED51DA2201D80CD00500FA6EDE5052
:10151000FD6EDE50FE6EF850FF6EFA500001F05185
:101520001200000120EE0AF0EC51D926ED51DA222A
:1015300001D80CD00500FA6EDE50FD6EDE50FE6E56
:10154000F850FF6EFA500001EF511200000120EE3A
:1015500008F0EC51D926ED51DA2201D8120005002D
:10156000FA6EDE50FD6EDE50FE6EF850FF6EFA50E1
:1015700012005FC1D9FF60C1DAFFDECF64F1DDCFB9
:1015800065F101016151B3EC14F0E9C0EEF0EAC07D
:10159000EFF064C1ECF065C1EDF06BEC12F0ECC063
:1015A000F3F0EDC0F4F0000E0001F66F0A0EF56FD7
:1015B00051EC14F0F3C062F1F4C063F10101615128
:1015C000B3EC14F0E9C0ECF0EAC0EDF062C1EEF06B
:1015D00063C1EFF0BEEC17F00001EC1F0001ED1F3E
:1015E0000001EC4BED2B010164510001EC250101E0
:1015F000646F010165510001ED210101656F010179
:10160000624B632B0101635105E10A0E0101625D2A
:10161000D8A005D0000E0101636F000E626F0101BA
:101620006151B3EC14F0E9C0ECF0EAC0EDF062C136
:10163000EEF063C1EFF0BEEC17F00001EC510101D8
:1016400064270001ED51010165235FC1D9FF60C12D
:10165000DAFF64C1DEFF65C1DDFF1200FACF20F0C2
:10166000FBCF21F0E9CF22F0EACF23F0E1CF24F045
:10167000E2CF25F0D9CF26F0DACF27F0F3CF28F04C
:10168000F4CF29F0F6CF2AF0F7CF2BF0F8CF2CF0DB
:10169000F5CF2DF0F2BAF2A402D0F1B400F0F2BC12
:1016A0009DA801D09E50F2BC9DAA01D09E50F2BCD4
:1016B0009DA001D09E509DB29EA20ED09FA20CD0A4
:1016C0009E92010E00018A27000E8B238C238D230E
:1016D0000001CE8171EC19F0A3B0A4A007D0A5A0A1
:1016E00005D0A4900001CE83B8EC19F02DC0F5FF11
:1016F0002CC0F8FF2BC0F7FF2AC0F6FF29C0F4FF6B
:1017000028C0F3FF27C0DAFF26C0D9FF25C0E2FFBB
:1017100024C0E1FF23C0EAFF22C0E9FF21C0FBFF94
:1017200020C0FAFF4092110001015E6F030E01011B
:101730005E6501D012002F0E0001F16501D012008C
:10174000F1C0E9F00001EA6B000E0001EC6F080E39
:10175000EB6FB9EC0CF001015E51060DF350000186
:10176000E92501015F6F0001F151070B0101606F75
:101770000001F2510001D8B41BD060C1F3F0010E9A
:101780000001F46F0001F32B03D00001D890F4376F
:101790000001F32FFAD701015F51010D600EF32410
:1017A000D96E000EF420DA6E0001F451DF1212003F
:1017B00060C1F3F0010E0001F46F0001F32B03D0C0
:1017C0000001D890F4370001F32FFAD70001F4514B
:1017D000FF0A0001F56F01015F51010D600EF32456
:1017E000D96E000EF420DA6E0001F551DF161200FA
:1017F000610EF66E330EF76E000EF86E01EE7BF0A2
:1018000010EE07F00900F5CFEEFFE550E150FAE1E8
:10181000580EF66E330EF76E000EF86E00EEF7F00F
:1018200010EE09F00900F5CFEEFFE550E150FAE1C6
:10183000720EF66E330EF76E000EF86E0900F5CFDD
:101840003FF005EE00F011EE00F0EE6AE550E150D9
:10185000FCE1E250FAE104EE00F011EE00F0EE6A75
:10186000E550E150FCE1E250FAE103EE00F0A20E97
:10187000EE6AE806FDE102EE00F0A20EEE6AE8066E
:10188000FDE101EE00F05E0EEE6AE806FDE100EE1D
:1018900060F0890EEE6AE806FDE100EE01F01F0E31
:1018A000EE6AE806FDE140904092000EF86E0001FD
:1018B00030EF17F0100E1B18D8A412002AD0200EFB
:1018C0001B6E44EC18F01200300E1B6E5EEC18F02C
:1018D0001200400E1B6E9BEC15F01200500E1B6E9A
:1018E0001200600E1B6E1200700E1B6E1200800E36
:1018F0001B6E1200900E1B6E1200A00E1B6E1200CB
:10190000B00E1B6E1200C00E1B6E1200F00E1B6E8E
:1019100012001DC070F11EC071F101017151000A69
:10192000D8A4120001017051060AD8B4E0D7160AF3
:10193000D8B4E0D7020AD8B4E9D7360AD8B4BFD7AA
:101940001C0AD8B4C6D77A0AD8B4BED7C70AD8B446
:10195000CBD70F0AD8B4D1D7010AD8B4D1D7230A2C
:10196000D8B4BCD7010AD8B4BCD7150AD8A4120081
:10197000CAD7000E0001EE6F0001ECAF08D00001E5
:10198000EB6DEC1FD8B0EC2B010E0001EE6F0001E7
:10199000EAAF08D00001E96DEA1FD8B0EA2B010ECA
:1019A0000001EE1B000E0001F06F000EEF6F000152
:1019B000EB510001EC11D8B42CD0010E0001ED6FF9
:1019C00006D00001D890EB37EC370001ED2B000179
:1019D000ECAFF7D70001D890EF37F0370001EB51AB
:1019E0000001E95D0001EC510001EA59D8A00AD0DC
:1019F0000001EB510001E95F0001EC510001EA5BDD
:101A00000001EF810001D890EC33EB330001ED2FA2
:101A1000E1D70001EE510001D8B405D00001EF6D0F
:101A2000F01FD8B0F02BEFC0E9F0F0C0EAF01200E0
:101A3000000E0001F16F000EF26F000EF36F000E4A
:101A4000F46F0001ED510001EE110001EF110001F2
:101A5000F011D8B442D0010E0001F56F08D000019A
:101A6000D890ED37EE37EF37F0370001F52B000156
:101A7000F0AFF5D70001D890F137F237F337F437EC
:101A80000001ED510001E95D0001EE510001EA594C
:101A90000001EF510001EB590001F0510001EC5938
:101AA000D8A012D00001ED510001E95F0001EE5114
:101AB0000001EA5B0001EF510001EB5B0001F05116
:101AC0000001EC5B0001F1810001D890F033EF33AD
:101AD000EE33ED330001F52FCDD7F1C0E9F0F2C0C0
:101AE000EAF0F3C0EBF0F4C0ECF01200E9C0EBF068
:101AF000EAC0ECF094EC19F0FC0E0F015F17000146
:101B000020EE05F0EB51D926EC51DA22DF500F011F
:101B10005C6F000120EE04F0EB51D926EC51DA2283
:101B2000DF500F015D6F0F015F51FC0B01095F6F0B
:101B3000000120EE03F0EB51D926EC51DA22DF5000
:101B40000F015C6F000120EE06F0EB51D926EC513D
:101B5000DA22DF500F015D6F0F015F51FC0B0209AC
:101B60005F6F000120EE02F0EB51D926EC51DA2232
:101B7000DF500F015C6F000120EE01F0EB51D92620
:101B8000EC51DA22DF500F015D6F030E0F015F137E
:101B9000EBC0D9FFECC0DAFFDF500F015C6F9AECAD
:101BA00019F012006EEC15F0100E0101695D270EA0
:101BB00001016A59D8A005D0270E01016A6F0F0EE6
:101BC000696F6E0E0001E96F010E0001EA6F67C1D7
:101BD000EBF068C1ECF032EC16F0720E0001F16F20
:101BE000010E0001F26F69C1F3F06AC1F4F0A5ECD7
:101BF00006F06E0E0001E96F010E0001EA6F080E9B
:101C00000001EB6F81EC13F0030E01016B6503D053
:101C1000030E01016B6F0F015FB714D001016B510F
:101C200001016C6F6D6B040E01016C27000E6D23BA
:101C30006E0E01016C25D96E010E01016D21DA6E67
:101C4000200EDF6E6E0E0101646F010E0101656FE3
:101C5000A7EC12F082EC14F01200E9C0D9FFEAC040
:101C6000DAFF050EDF6E000120EE01F0E951D92602
:101C7000EA51DA22EBC0DFFF000120EE02F0E95169
:101C8000D926EA51DA22830EDE6E850EDD6E000162
:101C900020EE06F0E951D926EA51DA22AA0EDE6ECC
:101CA0002D0EDD6E000120EE08F0E951D926EA5133
:101CB000DA22240EDE6E2E0EDD6E000120EE0AF01A
:101CC000E951D926EA51DA22960EDE6E260EDD6E35
:101CD000000120EE0CF0E951D926EA51DA22D60EA5
:101CE000DE6E270EDD6E000120EE0EF0E951D926E2
:101CF000EA51DA228C0EDE6E320EDD6E1200000E1C
:101D00000001EE6F0001EAAF08D00001E96DEA1FA3
:101D1000D8B0EA2B010E0001EE6F0001ECAF05D048
:101D20000001EB6DEC1FD8B0EC2B0001EB51000172
:101D3000EC11D8B426D0010E0001ED6F06D00001E1
:101D4000D890EB37EC370001ED2B0001ECAFF7D763
:101D50000001EB510001E95D0001EC510001EA597D
:101D6000D8A008D00001EB510001E95F0001EC515F
:101D70000001EA5B0001D890EC33EB330001ED2F5A
:101D8000E7D70001EE510001D8B405D00001E96D9C
:101D9000EA1FD8B0EA2BE9C0E9F0EAC0EAF0120085
:101DA0000001F66F130E0001F16F0001F651080BF0
:101DB0000001F26F000E94EC0BF0130E0001F16FB6
:101DC0000001F651100B0001F26F010E94EC0BF0C4
:101DD000130E0001F16F0001F651200B0001F26FAC
:101DE000020E94EC0BF0130E0001F16F0001F6519E
:101DF000010B0001F26F030E94EC0BF0280E0001B2
:101E0000F16F0001F651040B0001F26F010E94EC2A
:101E10000BF0280E0001F16F0001F651400B00019C
:101E2000F26F020E94EC0BF0280E0001F16F00012E
:101E3000F651020B0001F26F030E94EC0BF012004E
:101E40000001F66F0E0E0001F16F0001F651080B54
:101E50000001F26F000E94EC0BF00E0E0001F16F1A
:101E60000001F651100B0001F26F010E94EC0BF023
:101E70000E0E0001F16F0001F651200B0001F26F10
:101E8000020E94EC0BF00E0E0001F16F0001F65102
:101E9000010B0001F26F030E94EC0BF00F0E00012A
:101EA000F16F0001F651040B0001F26F010E94EC8A
:101EB0000BF00F0E0001F16F0001F651400B000115
:101EC000F26F020E94EC0BF00F0E0001F16F0001A7
:101ED000F651020B0001F26F030E94EC0BF01200AE
:101EE0000001F66F260E0001F16F0001F651080B9C
:101EF0000001F26F000E94EC0BF0260E0001F16F62
:101F00000001F651100B0001F26F010E94EC0BF082
:101F1000260E0001F16F0001F651200B0001F26F57
:101F2000020E94EC0BF0260E0001F16F0001F65149
:101F3000010B0001F26F030E94EC0BF0270E000171
:101F4000F16F0001F651040B0001F26F010E94ECE9
:101F50000BF0270E0001F16F0001F651400B00015C
:101F6000F26F020E94EC0BF0270E0001F16F0001EE
:101F7000F651020B0001F26F030E94EC0BF012000D
:101F80000001F66F240E0001F16F0001F651080BFD
:101F90000001F26F000E94EC0BF0240E0001F16FC3
:101FA0000001F651100B0001F26F010E94EC0BF0E2
:101FB000240E0001F16F0001F651200B0001F26FB9
:101FC000020E94EC0BF0240E0001F16F0001F651AB
:101FD000010B0001F26F030E94EC0BF0250E0001D3
:101FE000F16F0001F651040B0001F26F010E94EC49
:101FF0000BF0250E0001F16F0001F651400B0001BE
:10200000F26F020E94EC0BF0250E0001F16F00014F
:10201000F651020B0001F26F030E94EC0BF012006C
:102020000001F66F2B0E0001F16F0001F651010B5C
:102030000001F26F000E94EC0BF02B0E0001F16F1B
:102040000001F651200B0001F26F010E94EC0BF031
:102050002B0E0001F16F0001F651100B0001F26F21
:10206000020E94EC0BF02B0E0001F16F0001F65103
:10207000080B0001F26F030E94EC0BF02A0E000126
:10208000F16F0001F651020B0001F26F000E94ECAB
:102090000BF02A0E0001F16F0001F651400B000118
:1020A000F26F010E94EC0BF02A0E0001F16F0001AB
:1020B000F651040B0001F26F020E94EC0BF01200CB
:1020C0000001F66F150E0001F16F0001F651010BD2
:1020D0000001F26F000E94EC0BF0150E0001F16F91
:1020E0000001F651200B0001F26F010E94EC0BF091
:1020F000150E0001F16F0001F651100B0001F26F97
:10210000020E94EC0BF0150E0001F16F0001F65178
:10211000080B0001F26F030E94EC0BF0140E00019B
:10212000F16F0001F651020B0001F26F000E94EC0A
:102130000BF0140E0001F16F0001F651400B00018D
:10214000F26F010E94EC0BF0140E0001F16F000120
:10215000F651040B0001F26F020E94EC0BF012002A
:102160000001F66F170E0001F16F0001F651010B2F
:102170000001F26F000E94EC0BF0170E0001F16FEE
:102180000001F651200B0001F26F010E94EC0BF0F0
:10219000170E0001F16F0001F651100B0001F26FF4
:1021A000020E94EC0BF0170E0001F16F0001F651D6
:1021B000080B0001F26F030E94EC0BF0160E0001F9
:1021C000F16F0001F651020B0001F26F000E94EC6A
:1021D0000BF0160E0001F16F0001F651400B0001EB
:1021E000F26F010E94EC0BF0160E0001F16F00017E
:1021F000F651040B0001F26F020E94EC0BF012008A
:102200000001F66F190E0001F16F0001F651010B8C
:102210000001F26F000E94EC0BF0190E0001F16F4B
:102220000001F651200B0001F26F010E94EC0BF04F
:10223000190E0001F16F0001F651100B0001F26F51
:10224000020E94EC0BF0190E0001F16F0001F65133
:10225000080B0001F26F030E94EC0BF0180E000156
:10226000F16F0001F651020B0001F26F000E94ECC9
:102270000BF0180E0001F16F0001F651400B000148
:10228000F26F010E94EC0BF0180E0001F16F0001DB
:10229000F651040B0001F26F020E94EC0BF01200E9
:1022A00001016D6F20EEF7F011EE67F0050EDBCF48
:1022B000E3FFE806FCE2000E77EC18F0ED0E0101FA
:1022C000646FFF0E0101656F10EC16F0010EA3ECB8
:1022D00017F06DC16EF101016E510101D8A429D032
:1022E000010E01016E6F25D0680E0001E96F010E2D
:1022F0000001EA6F01016E050001EB6F1FEC14F0A5
:10230000000E01016B6F670E0101646F010E010188
:10231000656F54EC16F03C0E12EC15F082EC14F0E4
:10232000030E0001EA6FE80EE96F8FEC18F001016F
:102330006E0701016E510101D8B41200D5D7010119
:10234000626F01016151E3EC14F00101636F28D069
:102350000101635100EC11F0120001016351B0EC76
:1023600010F012000101635160EC10F01200010145
:10237000635110EC10F0120001016351C0EC0FF03A
:1023800012000101635170EC0FF012000101635162
:1023900020EC0FF0120001016351D0EC0EF012009E
:1023A00001016251000AD8B4D3D7010AD8B4D5D7F5
:1023B000030AD8B4D7D7010AD8B4D9D7070AD8B4F2
:1023C000DBD7010AD8B4DDD7030AD8B4DFD7010AB6
:1023D000D8A41200E0D7070E0001F26FD00EF16F03
:1023E0007A0E0001F36F010E0001F46F75EC16F028
:1023F000F1C078F1F2C079F1D00E0101785D070EDD
:1024000001017959D8A010D0040E01017A19D8A47D
:1024100003D0B6EC19F01DD0050E0001D019D8A4D8
:1024200018D05AEC0CF015D00001D005D8A403D078
:10243000F4EC16F00ED0020E0001D019D8A403D08F
:102440002AEC18F006D0040E0001D019D8B4BDEC67
:1024500018F022EC19F01200300E01015E6F010E2F
:1024600001015F6F060E0101606F040E0101616FD3
:10247000D9EC02F0010120EE06F07351D926745117
:10248000DA2201015EC1DEFF01015FC1DDFF200E26
:1024900001015E6F010E01015F6F060E0101606FA9
:1024A000040E0101616FD9EC02F0010120EE04F08D
:1024B0007351D9267451DA2201015EC1DEFF010198
:1024C0005FC1DDFF73C1D9FF74C1DAFFDE6ADE6A66
:1024D000DE6ADD6A1200000E0001F26F000EF16F7D
:1024E0000001EE510001EF11D8B42CD0010E000113
:1024F000F06F06D00001D890EE37EF370001F02BD7
:102500000001EFAFF7D70001D890F137F2370001A3
:10251000EE510001EC5D0001EF510001ED59D8A032
:102520000AD00001EE510001EC5F0001EF51000103
:10253000ED5B0001F1810001D890EF33EE33000133
:10254000F02FE1D7F1C0ECF0F2C0EDF01200000E78
:102550000101666F1BD064C1F6FF65C1F7FFF86A21
:102560000F0EF76403D00800F55005D0F6CFE9FF51
:10257000F7CFEAFFEF500101616F010166519FEC57
:1025800011F00101644B652B0101662B64C1F6FF5C
:1025900065C1F7FFF86A0F0EF76403D00800F55025
:1025A00005D0F6CFE9FFF7CFEAFFEF500009D8B426
:1025B0001200070E01016665CED712000001F06F10
:1025C000000E0001F26F000EF16FC280F0C0EFF05C
:1025D0000001EF47EF47C2500001EF19C30BEF199D
:1025E000C26E000E0001EA6F020EE96F87EC17F071
:1025F000C28201D000F0C2B2FDD7C4CFF1F0000119
:10260000F26B0001F151F26FF16BC3500001F11355
:10261000000E0001EA6F020EE96F87EC17F0C2901E
:10262000F1C0EDF0F2C0EEF012000101626F1ED0B9
:10263000010161510FEC18F0120001016151F4EC3D
:1026400017F0120001016151D9EC17F012000101DD
:1026500061510FEC18F0120001016151F4EC17F018
:10266000120001016151D9EC17F012000101625111
:10267000000AD8B4DDD7010AD8B4DFD7030AD8B42A
:10268000E1D7060AD8B4E3D7010AD8B4E5D7030ADC
:10269000D8A41200E6D70001EA6F949694988B961E
:1026A000000E0001EB6F070E0001EB6501D026D094
:1026B0000001EAAF02D08B8801D08B988B8600F0A6
:1026C00000F000F000F000F000F000F000F000F08A
:1026D00000F000F000F08B9600F000F000F000F049
:1026E00000F000F000F000F000F000F000F000F06A
:1026F0000001D890EA370001EB2BD5D7EBEC13F0B3
:102700001200000E0001EC6F1DD00001EC51010D14
:10271000F3500001E925D96EF4500001EA21DA6E88
:10272000DF50D8A40DD00001EC51010DF350000191
:10273000E925D96EF4500001EA21DA6E200EDF6E31
:102740000001EC2B0001EB510001EC5DD8A0DDD7BE
:102750000001EC51010DF3500001E925D96EF45050
:102760000001EA21DA6E000EDF6E1200000E000199
:10277000E96F94969488000E0001EA6F070E00013D
:10278000EA6501D024D00001D890E9378B9600F09B
:1027900000F000F000F000F000F000F000F000F0B9
:1027A00000F000F000F08B8600F000F000F000F088
:1027B00000F000F000F000F000F000F000F000F099
:1027C00082A802D00001E9810001EA2BD7D78B96BD
:1027D0000001E9511200C80E0001E96F9496948837
:1027E0008B9600F000F000F000F000F000F000F038
:1027F00000F000F000F000F000F08B8600F000F038
:1028000000F000F000F000F000F000F000F000F048
:1028100000F000F002D082A806D00001E907000114
:10282000E929D8A4F8D70001E9510001D8A404D0BF
:1028300012EC17F0000E12008B96010E1200EBC086
:10284000ECF00001EC3B0F0EEC170F0E0001EC1743
:102850000001EC51010D0C0EF324F66EFF0EF42076
:10286000F76EE9C0D9FFEAC0DAFF0800F5CFDFFF55
:10287000EBC0ECF00F0E0001EC170001EC51010D64
:102880000C0EF324F66EFF0EF420F76E000120EE1E
:1028900001F0E951D926EA51DA220800F5CFDFFF2D
:1028A00012000001F5510001F611D8B426D0010E36
:1028B00001015E6F06D00001D890F537F6370101AF
:1028C0005E2B0001F6AFF7D70001F5510001F35D73
:1028D0000001F6510001F459D8A008D00001F551CB
:1028E0000001F35F0001F6510001F45B0001D89094
:1028F000F633F53301015E2FE7D7F3C0F3F0F4C0F0
:10290000F4F0120060C0BBFF61C0BCFF62C0BDFF3D
:1029100063C0BEFF64C0BFFF65C06BFF66C06CFFD5
:1029200067C06DFF68C06EFF69C06FFF6AC070FF4F
:102930006BC071FF6CC072FF6DC073FF6EC074FF1F
:102940006FC075FF70C076FF71C077FF72C078FFEF
:1029500073C079FF74C07AFF75C07BFF76C07CFFBF
:1029600077C07DFF12000001EB6F1ED0000E00014A
:10297000EA6F010EE96F1200000E0001EA6F0A0E05
:10298000E96F1200000E0001EA6F640EE96F120099
:10299000030E0001EA6FE80EE96F1200270E000136
:1029A000EA6F100EE96F12000001EB51000AD8B473
:1029B000DDD7020AD8B4E0D7010AD8B4E3D7070AB2
:1029C000D8B4E6D7EBD70001E96F000E0001EB6F3A
:1029D000280E0001EB6501D012D00001EB51010D72
:1029E000BB0EF324F66EFE0EF420F76E0800F550D1
:1029F0000001E919D8B403D00001EB2BE9D7290E67
:102A00000001EB610CD00001EB51010DE40EF32449
:102A1000F66EFE0EF420F76E0800F5CFEAF0000126
:102A2000EA5112000101636F620E0101636503D078
:102A3000630E0101636F0101D8906333000E010141
:102A4000646F09D0010E0001F66F0101645170EC52
:102A500000F00101642B010163510101645DD8A004
:102A6000F1D7310E0101646501D01200000E0001A2
:102A7000F66F0101645170EC00F00101642BF1D795
:102A8000000E0001EF6F0001F0690E0E93128150ED
:102A90000E0B0001F06F0001F0510E0B0E0AD8B4BE
:102AA0001AD0000E0001EE6F0A0EED6F0FEC19F058
:102AB00081500E0B0001F06F0001F0B702D0000151
:102AC000EF810001F0B502D00001EF830001F0B307
:102AD00002D00001EF850001EF511200E40E010168
:102AE000646FFF0E0101656FA7EC12F0000E01018B
:102AF000616F000E15EC13F0000E0101616F010E05
:102B000015EC13F0000E0101616F020E15EC13F0CD
:102B1000000E0101616F040E15EC13F0000E0101AF
:102B2000616F050E15EC13F0000E0101616F060ECA
:102B300015EC13F01200000E01016E6FF40E01018E
:102B40006F6F010120EE10F06E51D9266F51DA221D
:102B5000DECF01F0DECF02F0DECF03F0DECF04F0F7
:102B600001C05EF102C05FF103C060F104C061F119
:102B700036EC09F05EC101F05FC102F060C103F004
:102B800061C104F0000E1F6E12000001E96F9496FF
:102B900094988B960001E9510001D8B402D08B883B
:102BA00001D08B9800F000F000F000F000F000F091
:102BB00000F000F000F000F000F000F08B8600F074
:102BC00000F000F000F000F000F000F000F000F085
:102BD00000F000F000F08B961200F3C0EDF0F4C0AE
:102BE000EEF0000E0001EF6F16EC05F0EDC05EF1A7
:102BF000EEC05FF1F3C0D9FFF4C0DAFF030EDF606F
:102C00000AD001015E3B5F3B0F0E5E175F51F00B78
:102C10005E130F0E5F175EC1F3F05FC1F4F0120098
:102C2000000E0101666F10D064C1F6FF65C1F7FFA9
:102C30000800F5CF61F1010166519FEC11F001012F
:102C4000644B652B0101662B64C1F6FF65C1F7FF7C
:102C50000800F5500009D8B41200030E01016665A2
:102C6000E3D7120011D0EBC0F6FFECC0F7FFE9C0CC
:102C7000D9FFEAC0DAFF0800F5CFDFFF0001EB4B18
:102C8000EC2B0001E94BEA2BEBC0F6FFECC0F7FFA1
:102C90000800F5500009D8A4E6D7E9C0D9FFEAC07A
:102CA000DAFF000EDF6E1200000E0101666F11D018
:102CB00064C1D9FF65C1DAFFDF500101616F010115
:102CC0006651040F9FEC11F00101644B652B01016B
:102CD000662B64C1D9FF65C1DAFFDF50D8B412009A
:102CE000030E01016665E4D71200000E0C6E000EA3
:102CF0000B6E09D040EC15F00001F56F0001F551A5
:102D00000001D8B408D00001F1510B5C0001F25170
:102D10000C58D8A0EFD7F3C0D9FFF4C0DAFFF5C044
:102D2000DFFF0BC0F1F00CC0F2F012000001CEA3E7
:102D300004D00001CE93E7EC18F00001CEA104D03E
:102D40000001CE91A6EC19F00001CEA504D000013F
:102D5000CE95A0EC19F040EC15F00001D06F000109
:102D6000D051D8B41200EBEC11F012000F015495C1
:102D70000F0154830F015F950F015A690F015B8F9B
:102D80000F015B8D0F015B955B975B995B9B00F07F
:102D900094EC19F00F015F8F9AEC19F000F0A58008
:102DA000A490A380CD8600F01200949694988B880E
:102DB0008B8600F000F000F000F000F000F000F072
:102DC00000F000F000F000F000F08B9800F000F050
:102DD00000F000F000F000F000F000F000F000F073
:102DE00000F000F08B9612000FD01F0E0001E96F6B
:102DF000000E0001EA6F000E0001EB6F030E0001F0
:102E0000EC6F4DEC17F012001B50000AD8B4120002
:102E1000010AD8B41200030AD8B41200120AD8A4C6
:102E20001200E3D7949694988B9800F000F000F08D
:102E300000F000F000F000F000F000F000F000F012
:102E400000F08B8600F000F000F000F000F000F0E1
:102E500000F000F000F000F000F000F08B881200AD
:102E600000F07DEC19F07B0E0001E96F010E00010E
:102E7000EA6F76EC0DF08DEC19F06AEC17F034EC9B
:102E800019F00A0E50EC11F03C0E12EC15F093986C
:102E90008A8800F096EC16F0FDD7E9C0D9FFEAC0A9
:102EA000DAFFDF500001ED6F0001EC510001EB5D36
:102EB000D8A012000001ED2B0001ED510001EC5DE6
:102EC000D8A0EBC0EDF0E9C0D9FFEAC0DAFFEDC051
:102ED000DFFF1200100E0001B46F010E0001B56F8C
:102EE000B4C0E9F0B5C0EAF0900E0001EB6F2DEC34
:102EF0000EF0000E096E010E0A6E09C0E9F00AC05C
:102F0000EAF0920E0001EB6F2DEC0EF01200000EB5
:102F10000001EC6F000EEB6F0BD000F000F000F042
:102F200000F000F000F000F000F00001EB4BEC2BA3
:102F30000001E9510001EB5D0001EA510001EC598B
:102F4000D8B01200EAD70001F66F0001F651000177
:102F5000D8B40AD00D0E0001F16F010E0001F26F1E
:102F6000020E94EC0BF012000D0E0001F16F000E3A
:102F70000001F26F020E94EC0BF012000001EC5114
:102F80000001EE03F3CFF0F0F4CFF1F00001EC51CB
:102F90000001EF03F3500001F1270001ED510001A2
:102FA000EE03F3500001F127F0C0ECF0F1C0EDF0BA
:102FB00012000001F66F0001F6510001D8B40AD0EA
:102FC000140E0001F16F800E0001F26F030E94ECFD
:102FD0000BF01200140E0001F16F000E0001F26FF1
:102FE000030E94EC0BF012000001F66F0001F65195
:102FF0000001D8B40AD0160E0001F16F800E000156
:10300000F26F030E94EC0BF01200160E0001F16F3C
:10301000000E0001F26F030E94EC0BF012000001A1
:10302000F66F0001F6510001D8B40AD0180E000165
:10303000F16F800E0001F26F030E94EC0BF01200A2
:10304000180E0001F16F000E0001F26F030E94ECF8
:103050000BF012000BD01D0E01015F6F000E01017D
:10306000606F1FC061F1B9EC0AF012001B50000A3A
:10307000D8B41200010AD8B41200030AD8B412005E
:10308000120AD8A41200E7D7000E0001EB6FF40E6D
:103090000001EC6F000120EE06F0EB51D926EC5157
:1030A000DA22DECFE9F0DDCFEAF0E9C001F0EAC0D4
:1030B00002F0036A046A000E1F6E1200000E000187
:1030C000EA6FF40E0001EB6F000120EE04F0EA510C
:1030D000D926EB51DA22DF500001E96F0001E951F6
:1030E000016E026A036A046A000E1F6E120000017C
:1030F000E96F000E0001EA6F170E0001EA6501D0CA
:1031000012000001EA51010D600EF324D96E000E89
:10311000F420DA6EE9C0DFFF0001EA2BEDD7000EE4
:10312000066E000E056E010E116E01D000F000015A
:10313000E951055C0001EA510658D8A0F7D7000E06
:10314000116E000E066E000E056E12003F0ED26E5E
:10315000AA9EAA9CAA96AA84AA92AA90A968E00EFE
:10316000B66EF80EB76EC30EB86EFE0EB96ECF0E09
:10317000BA6E000E77EC18F0120009D0000E1E6E29
:10318000000E1D6E000E1F6E100E1B6E12001B50E7
:10319000000AD8B4F3D7010AD8B4F0D7030AD8A4E8
:1031A0001200ECD7F1C0ECF0F2C0EDF0010E00011E
:1031B000EE6F000120EE02F0F151D926F251DA2231
:1031C000DECFEFF0DDCFF0F039EC0AF012001C0496
:1031D000D8B454EC07F002EC08F008EC04F03F50CF
:1031E000D8B406D03F063F50D8A402D00001CE8507
:1031F00022EC19F01200EBC0ECF0000120EE03F01D
:10320000E951D926EA51DA220001EC3B0001DF50F6
:103210000001EC198F0BEC190001DF6E12000BD0CE
:10322000030E0001EA6FE80EE96F87EC17F000016A
:10323000ED07D8A0EE070001ED510001EE11D8B462
:103240001200EED703D056EC19F012001B50000A02
:10325000D8B41200010AD8B41200030AD8B412007C
:10326000120AD8A41200EFD70D0EC16EC08EC08610
:10327000C088C08AC080C082C084C28EC250C30BC6
:103280000C09C26E9E9C9D9C9F9C12000001EB6FDE
:10329000000E0001EC6FB6EC13F00001EC6F0001C2
:1032A000EB51C5EC15F00001EC511200F20E0101DA
:1032B000676FFF0E0101686F1DC069F11EC06AF1E2
:1032C0001FC06BF1D2EC0DF012001150D8B404D035
:1032D0000A0E0526000E06220A0E0B26000E0C22F0
:1032E00012001150D8B404D00A0E0526000E062292
:1032F0000A0E0B26000E0C22120085EC19F0B6EC1B
:1033000016F0F28CF28ED09E12006C0ECB6E9F8265
:103310009E929D827F0ECA6E1200A6EC18F0B4EC4D
:1033200019F08F0EA86E1200550EA76EAA0EA76E8A
:103330005F8B1200550EA76EAA0EA76E5F9B120040
:103340001C04D8B41200B9EC09F012001C04D8B463
:103350001200B9EC09F012002D30302D000000F4FD
:1033600000170731235555029888120012001200E9
:1033700012001E00AA00AA00AA00AA00AA00AA0021
:10338000AA00AA00AA00AA00AA00AA00AA00AA00ED
:10339000AA00AA00AA00AA00AA00AA00AA00AA00DD
:1033A000AA00AA00AA00AA00AA00AA00AA00AA00CD
:1033B000AA00AA00AA00AA00AA00AA00AA00AA00BD
:10F99000AA00000000000052499D3952499D3AC317
:10F9A000642A3B75029A3BD734EF3BC3642A3C423E
:10F9B00060653C2B18953C11C7BA3C4260E53C277A
:10F9C000A0093D789C223D12A53D3D1A515A3D901B
:10F9D000A0783D287E8C3DBF7D9D3DA01AAF3DA502
:10F9E000BDC13DF4FDD43DF90FE93D48BFFD3D27C4
:10F9F000A0093E4FAF143E1B0D203E569F2B3E6B81
:10FA00009A373E26E4433E4E62503E1B2F5D3E55E4
:10FA1000306A3E3480773E2575823E8351893E1799
:10FA200048903EC74B973EAD699E3ECBA1A53E0494
:10FA3000E7AC3E5839B43EE3A5BB3E6F12C33E313E
:10FA400099CA3EF31FD23EECC0D93ECA54E13EDE15
:10FA500002E93ED7A3F03EEC51F83E0000003F0A19
:10FA6000D7033F14AE073F917E0B3F9B550F3F18C6
:10FA700026133F07F0163F68B31A3FC9761E3F0EA4
:10FA80002D223F54E3253F7E8C293F1B2F2D3F29FC
:10FA9000CB303F1D5A343F82E2373F3F573B3F6DEB
:10FAA000C53E3FF31F423FEB73453F39B4483F6DBE
:10FAB000E74B3FF7064F3F6519523F2B18553F471D
:10FAC00003583F2CD45A3FF6975D3F1748603F01DB
:10FAD000DE623F4260653F4BC8673FAC1C6A3F48EF
:10FAE000506C3F3B706E3F696F703FEE5A723FAF94
:10FAF00025743F39D6753FFE65773FFED4783FC702
:10FB0000297A3F3F577B3F7F6A7C3F6D567D3F247C
:10FB1000287E3FFBCB7E3F9B557F3F5BB17F3F57AE
:10FB2000EC7F3F0000803F0000000089D2DE3A52A7
:10FB3000499D3B728A0E3CAC8B5B3CBE30993C3994
:10FB4000B4C83C4850FC3C9A99193D7DAE363DF412
:10FB5000FD543DD8F0743D96438B3D9A779C3DE92A
:10FB600048AE3D80B7C03DF38ED33D42CFE63DDA8F
:10FB7000ACFA3DA779073E4ED1113E645D1C3EB004
:10FB800003273EA1F8313E91ED3C3E2731483EF33C
:10FB90008E533EF7065F3E68B36A3E107A763E7734
:10FBA0002D813E022B873EC4428D3E865A933E6392
:10FBB0007F993E5BB19F3E6FF0A53E9F3CAC3ECE31
:10FBC00088B23E19E2B83E643BBF3ECBA1C53E4D74
:10FBD00015CC3ECE88D23E50FCD83ED26FDF3E6F71
:10FBE000F0E53E0D71EC3EAAF1F23E637FF93E0076
:10FBF00000003F4F40033F2B87063F7AC7093FC8AD
:10FC0000070D3F1748103FD881133F99BB163F5A45
:10FC1000F5193F1B2F1D3F4E62203FF38E233F9966
:10FC2000BB263FB1E1293FC8072D3F5227303F4F48
:10FC300040333FBD52363F9E5E393F7F6A3C3F4472
:10FC4000693F3F7C61423F2653453F423E483F4328
:10FC50001C4B3FB6F34D3F9CC4503FD881533F14DB
:10FC60003F563FA7E8583FAC8B5B3F96215E3F6510
:10FC7000AA603F1826633F228E653F10E9673FE385
:10FC8000366A3F0D716C3F8D976E3FF2B0703F2129
:10FC9000B0723F1895743F6666763F7E1D783F5E72
:10FCA000BA793F7A367B3FD1917C3FD6C57D3F6D97
:10FCB000C57E3F97907F3F0000803F00C0C101C3D9
:10FCC0000302C2C60607C705C5C404CC0C0DCD0F80
:10FCD000CFCE0E0ACACB0BC90908C8D81819D91B30
:10FCE000DBDA1A1EDEDF1FDD1D1CDC14D4D515D7B0
:10FCF0001716D6D21213D311D1D010F03031F13300
:10FD0000F3F23236F6F737F53534F43CFCFD3DFFBF
:10FD10003F3EFEFA3A3BFB39F9F83828E8E929EB8F
:10FD20002B2AEAEE2E2FEF2DEDEC2CE42425E527EF
:10FD3000E7E62622E2E323E12120E0A06061A1635F
:10FD4000A3A26266A6A767A56564A46CACAD6DAFFF
:10FD50006F6EAEAA6A6BAB69A9A86878B8B979BBAF
:10FD60007B7ABABE7E7FBF7DBDBC7CB47475B5772F
:10FD7000B7B67672B2B373B17170B05090915193BF
:10FD800053529296565797559594549C5C5D9D5F3F
:10FD90009F9E5E5A9A9B5B99595898884849894B0F
:10FDA0008B8A4A4E8E8F4F8D4D4C8C44848545876F
:10FDB000474686824243834181804000C1814001A1
:10FDC000C0804101C0804100C1814001C08041002C
:10FDD000C1814000C1814001C0804101C08041001B
:10FDE000C1814000C1814001C0804100C18140010A
:10FDF000C0804101C0804100C1814001C0804100FC
:10FE0000C1814000C1814001C0804100C1814001E9
:10FE1000C0804101C0804100C1814000C1814001DA
:10FE2000C0804101C0804100C1814001C0804100CB
:10FE3000C1814000C1814001C0804101C0804100BA
:10FE4000C1814000C1814001C0804100C1814001A9
:10FE5000C0804101C0804100C1814000C18140019A
:10FE6000C0804101C0804100C1814001C08041008B
:10FE7000C1814000C1814001C0804100C181400179
:10FE8000C0804101C0804100C1814001C08041006B
:10FE9000C1814000C1814001C0804101C08041005A
:10FEA000C1814000C1814001C0804100C181400149
:10FEB000C0804101C0804100C181403031323334C3
:10FEC00035363738396162636465666768696A6BBD
:10FED0006C6D6E6F707172737475767778797A2E37
:10FEE0002D3A20003F065B4F666D7D077F6F777C64
:10FEF000395E79716F76060E7A3800375C73675019
:10FF00006D783E0000006E5B404048003031323377
:10FF10003435363738396162636465660000000045
:10FF200000005FE803102700008813000038FFFF7F
:10FF3000FF000000000000000000000000000000C2
:10FF400000000000000000000000000000000000B1
:10FF500000000000000000000000000000000000A1
:10FF600000000000000000000000000000281E1437
:10FF70000A0000000000000000E8030000E80300A1
:10FF8000000000000000000000E8030000E803009B
:10FF90000000000000E803000000000000E803008B
:10FFA00000000030313233343536373839303132B1
:10FFB00033343536373839303132333435363738F3
:10FFC00039303132333435363738393031323334F1
:10FFD00035363738393031323334353637383930D1
:10FFE000313233002020202020202020006373366F
:08FFF00036002070736400006C
:06FFF80080F414FFF2F199
:00000001FF
