:100000003CEF00F0AA00AA0069EF3BF0AA00AA00AA
:10001000AA00AA00AA00AA00D8CF03F0E8CF04F0F3
:10002000E0CF05F0E1CF06F0E2CF07F01BEE4CF099
:100030009DB29EA20ED09FB20CD09E92010E0201E4
:100040003A27000E3B233C233D230001E881AFEC1F
:1000500046F0A3B0A4A005D0A5B003D0A4900001A1
:10006000E88307C0E2FF06C0E1FF05C0E0FF04C06F
:10007000E8FF03C0D8FF100017EE00F06EEF33F07A
:1000800010C308F011C309F012C30AF013C30BF038
:10009000010EBBEC20F008C0B7F009C0B8F00AC0F0
:1000A000B9F00BC0BAF014C308F015C309F016C3B9
:1000B0000AF017C30BF0010EBBEC20F008C0BBF038
:1000C00009C0BCF00AC0BDF00BC0BEF0AFC008F064
:1000D000B0C009F0B1C00AF0B2C00BF0010EBBEC29
:1000E00020F008C0C3F009C0C4F00AC0C5F00BC0BE
:1000F000C6F00CC308F00DC309F00EC30AF00FC31D
:100100000BF0000EBBEC20F008C0BFF009C0C0F03F
:100110000AC0C1F00BC0C2F0C3C081F0C4C082F0FD
:10012000C5C083F0C6C084F0000E336E000E346E7E
:10013000800E356E400E366EBFC02FF0C0C030F05E
:10014000C1C031F0C2C032F060EC0FF02FC085F0BA
:1001500030C086F031C087F032C088F006EC1BF06A
:100160000001D8B06FD0000E1A6E000E1B6E000E8C
:100170001C6E400E1D6EC3C016F0C4C017F0C5C083
:1001800018F0C6C019F012EC0CF016C02FF017C012
:1001900030F018C031F019C032F0BFC033F0C0C029
:1001A00034F0C1C035F0C2C036F060EC0FF02FC0A3
:1001B000C3F030C0C4F031C0C5F032C0C6F01D0E6F
:1001C00000018D6FEF0E00018E6FC3C08FF0C4C0B1
:1001D00090F0C5C091F0C6C092F0000E0001946F7F
:1001E000650E936F11EC08F08DC0C3F08EC0C4F0A3
:1001F0008FC0C5F090C0C6F014C308F015C309F055
:1002000016C30AF017C30BF0010EBBEC20F008C0B8
:10021000BBF009C0BCF00AC0BDF00BC0BEF0BBC053
:1002200081F0BCC082F0BDC083F0BEC084F068EC39
:1002300028F081C0AFF082C0B0F083C0B1F084C0BC
:10024000B2F01200C3C081F0C4C082F0C5C083F018
:10025000C6C084F008C308F009C309F00AC30AF055
:100260000BC30BF0010EBBEC20F008C071F009C00D
:1002700072F00AC073F00BC074F0000E336E000E03
:10028000346E800E356E400E366EBFC02FF0C0C08B
:1002900030F0C1C031F0C2C032F060EC0FF02FC0BE
:1002A0006DF030C06EF031C06FF032C070F08BEC8A
:1002B00003F06DC085F06EC086F06FC087F070C02F
:1002C00088F006EC1BF00001D8B0ACD0000E336E05
:1002D000000E346E800E356E400E366EBFC02FF0AD
:1002E000C0C030F0C1C031F0C2C032F060EC0FF0DD
:1002F0002FC03BF030C03CF031C03DF032C03EF08A
:10030000C4EC44F03BC06DF03CC06EF03DC06FF0FB
:100310003EC070F0C3C071F0C4C072F0C5C073F0CD
:10032000C6C074F08BEC03F06DC0C3F06EC0C4F0B7
:100330006FC0C5F070C0C6F008C308F009C309F06B
:100340000AC30AF00BC30BF0010EBBEC20F008C08F
:1003500033F009C034F00AC035F00BC036F0C3C02A
:100360002FF0C4C030F0C5C031F0C6C032F060EC30
:100370000FF02FC016F030C017F031C018F032C0A7
:1003800019F0BBC01AF0BCC01BF0BDC01CF0BEC051
:100390001DF012EC0CF016C0BBF017C0BCF018C07A
:1003A000BDF019C0BEF0B7C02FF0B8C030F0B9C072
:1003B00031F0BAC032F0000E336E000E346E000E13
:1003C000356E400E366E60EC0FF02FC0B7F030C0C7
:1003D000B8F031C0B9F032C0BAF0BBC071F0BCC0E7
:1003E00072F0BDC073F0BEC074F0B7C06DF0B8C09D
:1003F0006EF0B9C06FF0BAC070F08BEC03F06DC056
:1004000081F06EC082F06FC083F070C084F068EC41
:1004100028F081C0AFF082C0B0F083C0B1F084C0DA
:10042000B2F01200000E336E000E346E000E356E08
:10043000400E366EBFC02FF0C0C030F0C1C031F0EA
:10044000C2C032F060EC0FF02FC071F030C072F01B
:1004500031C073F032C074F008C308F009C309F06A
:100460000AC30AF00BC30BF0010EBBEC20F008C06E
:100470006DF009C06EF00AC06FF00BC070F08BEC2D
:1004800003F06DC081F06EC082F06FC083F070C069
:1004900084F0C3C085F0C4C086F0C5C087F0C6C074
:1004A00088F006EC1BF00001D8B037D008C308F084
:1004B00009C309F00AC30AF00BC30BF0010EBBEC31
:1004C00020F008C06DF009C06EF00AC06FF00BC0DC
:1004D00070F0000E336E000E346E000E356E400E5E
:1004E000366EBFC02FF0C0C030F0C1C031F0C2C006
:1004F00032F060EC0FF02FC071F030C072F031C0FC
:1005000073F032C074F08BEC03F06DC0C3F06EC0BA
:10051000C4F06FC0C5F070C0C6F008C308F009C3CE
:1005200009F00AC30AF00BC30BF0010EBBEC20F07C
:1005300008C071F009C072F00AC073F00BC074F00B
:10054000000E336E000E346E800E356E400E366E29
:10055000BFC02FF0C0C030F0C1C031F0C2C032F017
:1005600060EC0FF02FC06DF030C06EF031C06FF056
:1005700032C070F08BEC03F06DC03BF06EC03CF00D
:100580006FC03DF070C03EF0C4EC44F03BC0B3F02F
:100590003CC0B4F03DC0B5F03EC0B6F0B3C06DF0A5
:1005A000B4C06EF0B5C06FF0B6C070F0C3C071F0EB
:1005B000C4C072F0C5C073F0C6C074F08BEC03F019
:1005C0006DC0C3F06EC0C4F06FC0C5F070C0C6F09F
:1005D000000E1A6E000E1B6E000E1C6E400E1D6E7D
:1005E000C3C016F0C4C017F0C5C018F0C6C019F0DB
:1005F00012EC0CF016C02FF017C030F018C031F01C
:1006000019C032F0BFC033F0C0C034F0C1C035F003
:10061000C2C036F060EC0FF02FC0C3F030C0C4F0A1
:1006200031C0C5F032C0C6F0C3C03BF0C4C03CF01E
:10063000C5C03DF0C6C03EF0C4EC44F03BC06DF018
:100640003CC06EF03DC06FF03EC070F0000E000187
:10065000716F000E726F000E736F3F0E746F8BEC34
:1006600003F06DC0C3F06EC0C4F06FC0C5F070C0C1
:10067000C6F0000E0001716F000E726F000E736FF6
:100680003F0E746FC3C06DF0C4C06EF0C5C06FF094
:10069000C6C070F08BEC03F06DC016F06EC017F0A2
:1006A0006FC018F070C019F0BBC01AF0BCC01BF0CE
:1006B000BDC01CF0BEC01DF012EC0CF016C0BBF0AB
:1006C00017C0BCF018C0BDF019C0BEF0BBC071F0BF
:1006D000BCC072F0BDC073F0BEC074F0B7C06DF0A6
:1006E000B8C06EF0B9C06FF0BAC070F08BEC03F018
:1006F0006DC081F06EC082F06FC083F070C084F076
:1007000068EC28F081C0AFF082C0B0F083C0B1F0D7
:1007100084C0B2F0120000017051800B00017D6FA7
:1007200000017051702500017F6F00016FAF02D092
:1007300000017F8100017F510001D8B412D0000177
:100740007F29D8A409D0000E00016D6F000E6E6FD6
:10075000000E6F6F000E706F00016F8F000E0001B2
:1007600008D0000E00016D6F000E6E6F000E6F6FEF
:10077000000E706F00017451800B00017E6F00014C
:100780007D5100017E19D8B402D000017D8D000199
:100790007451742500017E6F000173AF02D0000117
:1007A0007E8100017E510001D8B412D000017E2963
:1007B000D8A409D0000E0001716F000E726F000EF8
:1007C000736F000E746F0001738F000E000108D06C
:1007D000000E0001716F000E726F000E736F000E3D
:1007E000746F00017F5100017E5DD8B024D00001FC
:1007F0007DAD03D0800E00017D1B7FC080F07EC0E8
:100800007FF080C07EF06DC080F071C06DF080C060
:1008100071F06EC080F072C06EF080C072F06FC078
:1008200080F073C06FF080C073F070C080F074C04F
:1008300070F080C074F0000E0001806F00017F51E5
:100840000001756F766B0001751F761F754B762B57
:1008500000017E510001776F786B00017551000136
:1008600077270001765100017823000178BF3DD041
:100870000001785105E11A0E0001775DD8A035D04E
:1008800000016D5100016E1100016F110001701126
:10089000D8B402D0010E01D0000E0001806F000E0E
:1008A00000016D6F000E6E6F000E6F6F000E706FA7
:1008B0007EC07FF020D0000180A107D00001D89039
:1008C000803101090001806F03D00001D89080338E
:1008D00000016DA102D00001808F000170357033DE
:1008E0006F336E336D3300017F2B00017E510001A9
:1008F0007F5DD8A0E0D700017DBD3FD000017F51D2
:100900000001D8A40AD0000E00016D6F000E6E6FBA
:10091000000E6F6F000E706F120000017151000128
:100920006D270001725100016E2300017351000117
:100930006F230001745100017023000170A1CCD01D
:10094000000180A109D00001D890803300018051BE
:1009500001090001806F03D00001D89080330001AD
:100960006DA102D00001808F0001703570336F33AC
:100970006E336D3300017F2BAFD000017151000148
:100980006D5D0001725100016E590001735100014B
:100990006F5900017051800A0001756F0001745198
:1009A000800A00017559D8B050D06DC075F06EC086
:1009B00076F06FC077F070C078F00001751F761F79
:1009C000771F781F752B000E76237723782300017D
:1009D0007151000175250001796F0001725100010C
:1009E000762100017A6F0001735100017721000127
:1009F0007B6F000174510001782100017C6FFF0EB4
:100A00000001792500016D6FFF0E00017A210001C0
:100A10006E6FFF0E00017B2100016F6FFF0E000162
:100A20007C210001706F800E00017D1B0001806D34
:100A3000000180510001D8A418D0010E00016D27DB
:100A4000000E6E236F23702310D00001715100013E
:100A50006D5F0001725100016E5B00017351000176
:100A60006F5B000174510001705B00016D5100016A
:100A70006E1100016F1100017011D8A42AD000017D
:100A800080510001D8A425D0000E00016D6F000E2A
:100A90006E6F000E6F6F000E706F12000001D89025
:100AA0006D376E376F377037000180AF02D00001AD
:100AB0006D81000180A103D0D880000102D0000127
:100AC000D890803700017F510001D8B402D00001D6
:100AD0007F0700016FAFE2D7000E00017E6F0001BB
:100AE00080AF0DD080C075F07F0E00017517D8A4BF
:100AF00003D000016DA103D0010E00017E6F000143
:100B00007E510001D8B426D0010E00016D27000EE1
:100B10006E236F237023000170A11CD06DC075F08F
:100B20006EC076F06FC077F070C078F00001783555
:100B3000783377337633753375C06DF076C06EF0E9
:100B400077C06FF078C070F000017F29D8B402D070
:100B500000017F2B00017F29D8B405D000017F510F
:100B60000001D8A411D0000E00016D6F000E6E6F51
:100B7000000E6F6F000E706F00017F510001D8A44E
:100B800003D0000E00017D6F00017FA103D00001A2
:100B90006F8F02D000016F9F0001D8907F3100015C
:100BA000706F00017DAF02D00001708F6DC06DF0DD
:100BB0006EC06EF06FC06FF070C070F012001A6EF1
:100BC000310E1A6401D012001A500008310F196E4C
:100BD00090D12E0E106E18C011F0000EDBEC35F027
:100BE00012002E0E106E18C011F0010EDBEC35F065
:100BF00012002E0E106E18C011F0020EDBEC35F054
:100C000012002E0E106E18C011F0030EDBEC35F042
:100C100012002F0E106E18C011F0030EDBEC35F031
:100C200012002F0E106E18C011F0020EDBEC35F022
:100C300012002F0E106E18C011F0010EDBEC35F013
:100C400012002F0E106E18C011F0000EDBEC35F004
:100C500012001F0E106E18C011F0000EDBEC35F004
:100C600012001F0E106E18C011F0010EDBEC35F0F3
:100C700012001F0E106E18C011F0020EDBEC35F0E2
:100C800012001F0E106E18C011F0030EDBEC35F0D1
:100C90001200000E106E18C011F0030EDBEC35F0E0
:100CA0001200000E106E18C011F0020EDBEC35F0D1
:100CB0001200000E106E18C011F0010EDBEC35F0C2
:100CC0001200000E106E18C011F0000EDBEC35F0B3
:100CD0001200010E106E18C011F0000EDBEC35F0A2
:100CE0001200010E106E18C011F0010EDBEC35F091
:100CF0001200010E106E18C011F0020EDBEC35F080
:100D00001200010E106E18C011F0030EDBEC35F06E
:100D10001200020E106E18C011F0030EDBEC35F05D
:100D20001200020E106E18C011F0020EDBEC35F04E
:100D30001200020E106E18C011F0010EDBEC35F03F
:100D40001200020E106E18C011F0000EDBEC35F030
:100D50001200030E106E18C011F0000EDBEC35F01F
:100D60001200030E106E18C011F0010EDBEC35F00E
:100D70001200030E106E18C011F0020EDBEC35F0FD
:100D80001200030E106E18C011F0030EDBEC35F0EC
:100D90001200040E106E18C011F0030EDBEC35F0DB
:100DA0001200040E106E18C011F0020EDBEC35F0CC
:100DB0001200040E106E18C011F0010EDBEC35F0BD
:100DC0001200040E106E18C011F0000EDBEC35F0AE
:100DD0001200050E106E18C011F0000EDBEC35F09D
:100DE0001200050E106E18C011F0010EDBEC35F08C
:100DF0001200050E106E18C011F0020EDBEC35F07B
:100E00001200050E106E18C011F0030EDBEC35F069
:100E10001200060E106E18C011F0030EDBEC35F058
:100E20001200060E106E18C011F0020EDBEC35F049
:100E30001200060E106E18C011F0010EDBEC35F03A
:100E40001200060E106E18C011F0000EDBEC35F02B
:100E50001200070E106E18C011F0000EDBEC35F01A
:100E60001200070E106E18C011F0010EDBEC35F009
:100E70001200070E106E18C011F0020EDBEC35F0F8
:100E80001200070E106E18C011F0030EDBEC35F0E7
:100E90001200210E106E18C011F0030EDBEC35F0BD
:100EA0001200210E106E18C011F0020EDBEC35F0AE
:100EB0001200210E106E18C011F0010EDBEC35F09F
:100EC0001200210E106E18C011F0000EDBEC35F090
:100ED0001200220E106E18C011F0000EDBEC35F07F
:100EE0001200220E106E18C011F0010EDBEC35F06E
:100EF00012001950000AD8B46CD6010AD8B471D6C1
:100F0000030AD8B476D6010AD8B47BD6070AD8B477
:100F100080D6010AD8B485D6030AD8B48AD6010A85
:100F2000D8B48FD60F0AD8B494D6010AD8B499D6BB
:100F3000030AD8B49ED6010AD8B4A3D6070AD8B4F7
:100F4000A8D6010AD8B4ADD6030AD8B4B2D6010ADD
:100F5000D8B4B7D61F0AD8B4BCD6010AD8B4C1D603
:100F6000030AD8B4C6D6010AD8B4CBD6070AD8B477
:100F7000D0D6010AD8B4D5D6030AD8B4DAD6010A35
:100F8000D8B4DFD60F0AD8B4E4D6010AD8B4E9D66B
:100F9000030AD8B4EED6010AD8B4F3D6070AD8B4F7
:100FA000F8D6010AD8B4FDD6030AD8B402D7010A8C
:100FB000D8B407D73F0AD8B40CD7010AD8B411D790
:100FC000030AD8B416D7010AD8B41BD7070AD8B475
:100FD00020D7010AD8B425D7030AD8B42AD7010AE2
:100FE000D8B42FD70F0AD8B434D7010AD8B439D718
:100FF000030AD8B43ED7010AD8B443D7070AD8B4F5
:1010000048D7010AD8B44DD7030AD8B452D7010A39
:10101000D8B457D71F0AD8B45CD7010AD8A4120095
:1010200060D7000E0001AE6F000EAD6FD0D0ADC026
:1010300095F0AEC096F00001D89095379637000134
:10104000D890953796378DC097F08EC098F00001F4
:10105000955100019727000196510001982397C0F0
:10106000F6FF98C0F7FF0900F5CF81F00900F5CF32
:1010700082F00900F5CF83F00A00F5CF84F0ADC00F
:1010800099F0AEC09AF00001D89099379A370001D4
:10109000D89099379A37040E00019927000E9A23A9
:1010A0008DC09BF08EC09CF00001995100019B27E0
:1010B00000019A5100019C239BC0F6FF9CC0F7FFE2
:1010C0000900F5CF85F00900F5CF86F00900F5CFCE
:1010D00087F00A00F5CF88F006EC1BF00001D8B0CD
:1010E0003BD0ADC095F0AEC096F00001D8909537DA
:1010F00096370001D89095379637040E0001952752
:10110000000E96238DC097F08EC098F00001955187
:1011100000019727000196510001982397C0F6FF20
:1011200098C0F7FF0900F5CF81F00900F5CF82F0F4
:101130000900F5CF83F00A00F5CF84F08FC085F069
:1011400090C086F091C087F092C088F006EC1BF04A
:101150000001D8B058D038D08FC081F090C082F054
:1011600091C083F092C084F0ADC095F0AEC096F00F
:101170000001D890953796370001D890953796376B
:10118000040E00019527000E96238DC097F08EC0A7
:1011900098F0000195510001972700019651000138
:1011A000982397C0F6FF98C0F7FF0900F5CF85F0A8
:1011B0000900F5CF86F00900F5CF87F00A00F5CFDA
:1011C00088F006EC1BF0C4D70001AD4BAE2BFF0E30
:1011D0000001956FFF0E0001966F93C097F094C0C9
:1011E00098F00001955100019727000196510001E8
:1011F0009823000197510001AD5D00019851000155
:10120000AE59D8A014D7ADC095F0AEC096F000018D
:10121000D890953796370001D890953796378DC07E
:1012200097F08EC098F000019551000197270001BA
:1012300096510001982397C0F6FF98C0F7FF090068
:10124000F5CFA9F00900F5CFAAF00900F5CFABF072
:101250000A00F5CFACF00A0E00019D6FD70E9E6F0D
:10126000230E9F6F3C0EA06FADC095F0AEC096F000
:101270000001D890953796370001D890953796376A
:101280008DC097F08EC098F000019551000197270E
:10129000000196510001982397C0F6FF98C0F7FF10
:1012A0000900F5CF3BF00900F5CF3CF00900F5CF80
:1012B0003DF00A00F5CF3EF0C4EC44F03BC06DF0C9
:1012C0003CC06EF03DC06FF03EC070F0ADC099F014
:1012D000AEC09AF00001D89099379A370001D890A3
:1012E00099379A37040E00019927000E9A238DC072
:1012F0009BF08EC09CF00001995100019B270001DA
:101300009A5100019C239BC0F6FF9CC0F7FF090087
:10131000F5CF71F00900F5CF72F00900F5CF73F049
:101320000A00F5CF74F08BEC03F06DC0A1F06EC035
:10133000A2F06FC0A3F070C0A4F08FC071F090C095
:1013400072F091C073F092C074F00A0E1A6ED70E4C
:101350001B6E230E1C6E3C0E1D6EADC008F0AEC0A1
:1013600009F00A6A0B6A000EBBEC20F008C016F008
:1013700009C017F00AC018F00BC019F012EC0CF0FD
:1013800016C03BF017C03CF018C03DF019C03EF04D
:10139000C4EC44F03BC06DF03CC06EF03DC06FF05B
:1013A0003EC070F08BEC03F06DC0A5F06EC0A6F0EF
:1013B0006FC0A7F070C0A8F09DC033F09EC034F09D
:1013C0009FC035F0A0C036F0A1C02FF0A2C030F011
:1013D000A3C031F0A4C032F060EC0FF02FC01AF0BF
:1013E00030C01BF031C01CF032C01DF0A5C016F09B
:1013F000A6C017F0A7C018F0A8C019F012EC0CF0A6
:1014000016C06DF017C06EF018C06FF019C070F004
:10141000A9C071F0AAC072F0ABC073F0ACC074F098
:101420008BEC03F06DC0A9F06EC0AAF06FC0ABF0FA
:1014300070C0ACF0A9C08DF0AAC08EF0ABC08FF028
:10144000ACC090F0120020EE04F02450D9262550B4
:10145000DA22DECF3BF0DDCF3CF0000E416E8BD0C8
:101460004150286E296AD89028362936D8902836D7
:101470002936D890283629360C0E2826000E292227
:1014800022C02AF023C02BF028502A2629502B22D4
:10149000040E2A24D96E000E2B20DA6E4150080D5E
:1014A000040EF326000EF42222C02EF023C02FF0EB
:1014B000F3502E26F4502F22040E2E24E96E000E37
:1014C0002F20EA6EDE50EE5CEE50800A326EDE5067
:1014D000800A3258D8B029D04150286E296AD89055
:1014E00028362936D89028362936D89028362936F5
:1014F0000C0E2826000E292222C02AF023C02BF031
:1015000028502A2629502B22040E2A24D96E000E98
:101510002B20DA6E3B50DE5CDE50800A2E6E3C5093
:10152000800A2E58D8B043D025D04150286E296A61
:10153000D89028362936D89028362936D89028369B
:1015400029360C0E2826000E292222C02AF023C09C
:101550002BF028502A2629502B22040E2A24D96E3B
:10156000000E2B20DA6EDE503B5C3C50800A2E6E63
:10157000DE50D6D7412AFE0E286EFF0E296E22C0FD
:10158000D9FF23C0DAFFDF502A6E2B6A28502A26A3
:1015900029502B2241502C6E2D6A2A502C5C2D5044
:1015A000800A2E6E2B50800A2E58D8A059D7415051
:1015B000080D040EF326000EF422F3502224D96EF7
:1015C000F4502320DA6EDECF3DF0DECF3EF0DECFEA
:1015D0003FF0DECF40F04150286E296AD89028367F
:1015E0002936D89028362936D890283629360C0E38
:1015F0002826000E292228502224D96E2950232083
:10160000DA6EDECF2AF0DECF2BF0DECF2CF0DECF8D
:101610002DF04150080D040EF326000EF422F35075
:101620002224D96EF4502320DA6EDECF2EF0DECFE6
:101630002FF0DECF30F0DECF31F02E1E2F1E301E09
:10164000311E2E2A000E2F22302231222A502E2423
:10165000336E2B502F20346E2C503020356E2D5091
:101660003120366E4150286E296AD89028362936A6
:10167000D89028362936D890283629360C0E2826B8
:10168000000E292222C02AF023C02BF028502A263F
:1016900029502B22040E2A24D96E000E2B20DA6E3C
:1016A000DECF2CF0DDCF2DF04150080D040EF326D7
:1016B000000EF42222C02EF023C02FF0F3502E266D
:1016C000F4502F22040E2E24D96E000E2F20DA6E35
:1016D000DECF30F0DDCF31F0301E311E304A312AFE
:1016E0002C5030262D50312230C037F031C038F028
:1016F000000E38BEFF0E396E3A6E37503810391072
:101700003A10D8B451D04150080D040EF326000E03
:10171000F42222C028F023C029F0F3502826F450E8
:101720002922040E2824D96E000E2920DA6EDECF7D
:101730002AF0DDCF2BF02A1E2B1E2A4A2B2A3B50E3
:101740002A263C502B222AC008F02BC009F0000E9C
:1017500009BEFF0E0A6E0B6E33C00CF034C00DF0E4
:1017600035C00EF036C00FF09FEC3EF008C014F00C
:1017700009C015F00AC016F00BC017F037C018F0FA
:1017800038C019F039C01AF03AC01BF05EEC2CF0EA
:101790003D5014243D6E3E5015203E6E3F501620A5
:1017A0003F6E40501720406E24C0D9FF25C0DAFF9D
:1017B0003DC0DEFF3EC0DEFF3FC0DEFF40C0DEFFBB
:1017C00026502710D8B42CD026C0D9FF27C0DAFF66
:1017D0003DC0DEFF3EC0DEFF3FC0DEFF40C0DEFF9B
:1017E00020EE04F02450D9262550DA2200EE04F031
:1017F0002650E9262750EA22DECFEEFFDDCFEDFFAF
:1018000020EE0AF02250D9262350DA2200EE06F00C
:101810002650E9262750EA22DECFEEFFDDCFEDFF8E
:10182000415012001950800B226E19501924286E55
:1018300018BE28802850D8B40DD02828D8A408D0A5
:10184000000E166E000E176E000E186E000E196E4A
:10185000188E08D0000E166E000E176E000E186E51
:10186000000E196E1D50800B221A1D501D24236E70
:101870001CBE23802350D8B40DD02328D8A408D070
:10188000000E1A6E000E1B6E000E1C6E000E1D6EFA
:101890001C8E08D0000E1A6E000E1B6E000E1C6E01
:1018A000000E1D6E2350D8B403D02850D8A409D000
:1018B000000E166E000E176E000E186E000E196EDA
:1018C00012001C501602F3CF2DF0F4CF2EF02D5045
:1018D000246E256A266A276A2E50296E2A6A2B6A88
:1018E0002C6A1B501702F3CF2DF0F4CF2EF02D50A1
:1018F0002426000E2522262227222E502926000EDD
:101900002A222B222C221A501802F3CF2DF0F4CFCA
:101910002EF02D502426000E2522262227222E507E
:101920002926000E2A222B222C2226C027F025C091
:1019300026F024C025F0246A1A501702F3CF2DF0A8
:10194000F4CF2EF02D5024262E502522000E2622D4
:10195000000E27221B501602F3CF2DF0F4CF2EF0ED
:101960002D5024262E502522000E2622000E27223E
:1019700026C027F025C026F024C025F0246A1A507E
:101980001602F3CF2DF0F4CF2EF02D5024262E503A
:101990002522000E2622000E27221C501702F3CF0C
:1019A0002DF0F4CF2EF02D5029262E502A22000E95
:1019B0002B22000E2C221B501802F3CF2DF0F4CF57
:1019C0002EF02D5029262E502A22000E2B22000EFA
:1019D0002C221C501802F3CF2DF0F4CF2EF02D50F6
:1019E0001E6E2E501F6E206A216A20C021F01FC07B
:1019F00020F01EC01FF01E6A1E5029261F502A22EA
:101A000020502B2221502C2224C01EF025C01FF074
:101A100026C020F027C021F0190E05D0D890213221
:101A200020321F321E32E82EF9D71E5029261F50B1
:101A30002A2220502B2221502C2226C027F025C0FC
:101A400026F024C025F0246A235028C01EF01F6A07
:101A50001E26000E1F22820E1E242D6EFF0E1F203A
:101A60002E6E0FD0D89029362A362B362C3627BE2C
:101A70002980D89024362536263627362D06D8A03C
:101A80002E062BAEEFD7000E236E27AE16D0FF0E1C
:101A900024141E6EFF0E25141F6EFF0E2614206EDA
:101AA0007F0E2714216E1E501F1020102110D8A465
:101AB00002D029A002D0010E236E2350D8B41FD02B
:101AC000010E2926000E2A222B222C222CA017D010
:101AD00029C01EF02AC01FF02BC020F02CC021F01E
:101AE0002134213220321F321E321EC029F01FC085
:101AF0002AF020C02BF021C02CF02D4A2E2A2EBE19
:101B00000DD02E5003E12D28D8A008D0000E296E4C
:101B1000000E2A6E800E2B6E7F0E20D02EBE05D0BA
:101B20002E500EE12D04D8B00BD0000E296E000E01
:101B30002A6E000E2B6E000E2C6E000E226E0FD041
:101B40002DC028F0FF0E2916FF0E2A167F0E2B1629
:101B5000000E2C1628B02B8ED89028302C6E2250D8
:101B60002C1229C016F02AC017F02BC018F02CC078
:101B700019F0120020EE06F02450D9262550DA2262
:101B8000DECF3EF0DDCF3FF0000E406E87D04050FC
:101B9000276E286AD89027362836D89027362836D8
:101BA000D89027362836080E2726000E282222C075
:101BB00029F023C02AF02750292628502A22060E71
:101BC0002924D96E000E2A20DA6E4050080D22C05A
:101BD0002DF023C02EF0F3502D26F4502E22060EA9
:101BE0002D24E96E000E2E20EA6EDE50EE5CEE50E3
:101BF000800A316EDE50800A3158D8B029D040506A
:101C0000276E286AD89027362836D8902736283667
:101C1000D89027362836080E2726000E282222C004
:101C200029F023C02AF02750292628502A22060E00
:101C30002924D96E000E2A20DA6E3E50DE5CDE507A
:101C4000800A2D6E3F50800A2D58D8B03FD025D045
:101C50004050276E286AD89027362836D8902736E5
:101C60002836D89027362836080E2726000E282238
:101C700022C029F023C02AF02750292628502A22E2
:101C8000060E2924D96E000E2A20DA6EDE503E5C44
:101C90003F50800A2D6EDE50D6D7402AFE0E276EAA
:101CA000FF0E286E2650296E2A6A275029262850B2
:101CB0002A2240502B6E2C6A29502B5C2C50800A13
:101CC0002D6E2A50800A2D58D8A061D74050080D9B
:101CD000F3502224D96EF4502320DA6EDECF3AF08E
:101CE000DECF3BF0DECF3CF0DECF3DF04050276E44
:101CF000286AD89027362836D89027362836D890A4
:101D000027362836080E2726000E282227502224A0
:101D1000D96E28502320DA6EDECF29F0DECF2AF0EC
:101D2000DECF2BF0DECF2CF04050080DF3502224F4
:101D3000D96EF4502320DA6EDECF2DF0DECF2EF0F8
:101D4000DECF2FF0DECF30F02D1E2E1E2F1E301EC8
:101D50002D2A000E2E222F22302229502D24326EC1
:101D60002A502E20336E2B502F20346E2C503020D2
:101D7000356E4050276E286AD89027362836D8907E
:101D800027362836D89027362836080E2726000E04
:101D9000282222C029F023C02AF0275029262850C3
:101DA0002A22060E2924D96E000E2A20DA6EDECFF2
:101DB0002BF0DDCF2CF04050080D22C02DF023C0B9
:101DC0002EF0F3502D26F4502E22060E2D24D96E1F
:101DD000000E2E20DA6EDECF2FF0DDCF30F02F1E7A
:101DE000301E2F4A302A2B502F262C5030222FC045
:101DF00036F030C037F0000E37BEFF0E386E396E49
:101E00003650371038103910D8B44DD04050080D26
:101E100022C027F023C028F0F3502726F4502822B0
:101E2000060E2724D96E000E2820DA6EDECF29F0A8
:101E3000DDCF2AF0291E2A1E294A2A2A3E502926A9
:101E40003F502A2229C008F02AC009F0000E09BE1E
:101E5000FF0E0A6E0B6E32C00CF033C00DF034C0B2
:101E60000EF035C00FF09FEC3EF008C014F009C032
:101E700015F00AC016F00BC017F036C018F037C0C6
:101E800019F038C01AF039C01BF05EEC2CF03A5053
:101E900014243A6E3B5015203B6E3C5016203C6E8D
:101EA0003D5017203D6E24C0D9FF25C0DAFF3AC04F
:101EB000DEFF3BC0DEFF3CC0DEFF3DC0DEFF1200A8
:101EC0003250800B0001606F3250322400016B6F82
:101ED00031AE02D000016B8100016B510001D8B41A
:101EE0000ED000016B29D8A408D0000E2F6E000E72
:101EF000306E000E316E000E326E318E06D0000E46
:101F00002F6E000E306E000E316E000E326E3650A7
:101F1000800B0001601B3650362400016C6F35AE1B
:101F200002D000016C8100016C510001D8B40ED0C8
:101F300000016C29D8A408D0000E336E000E346E58
:101F4000000E356E000E366E358E06D0000E336EE6
:101F5000000E346E000E356E000E366E33503410A7
:101F600035103610D8A415D0000E2F6E000E306E2E
:101F7000000E316E000E326E800E31127F0E321264
:101F80002FC02FF030C030F031C031F032C032F00D
:101F9000120000016B510001D8A411D0000E2F6E69
:101FA000000E306E000E316E000E326E2FC02FF01C
:101FB00030C030F031C031F032C032F012000001D8
:101FC0006C51376E386A371E381E374A382A00017E
:101FD0006B51396E3A6A3750392638503A227F0EA3
:101FE00039240001656F000E3A200001666F2FC092
:101FF00061F030C062F031C063F032C064F0000EB6
:102000002F6E000E306E000E316E000E326E000E1E
:102010000001676F000E686F000E696F000E6A6F37
:10202000000E00016C6F37D000016C510001D8B474
:1020300014D00001D8906137623763376437D89085
:102040002F3630363136323600016ABF2F8000011C
:10205000D8906737683769376A3733500001615D58
:102060003450000162593550000163593650000167
:102070006459D8A00ED000016A8D33500001615F11
:1020800034500001625B35500001635B3650000143
:10209000645B00016C2B190E00016C65C5D7000153
:1020A0006151000162110001631100016411D8B493
:1020B00015D00001678112D0D8902F3630363136D6
:1020C000323600016ABF2F800001D8906737683729
:1020D00069376A3700016507D8A0660731AEECD7CB
:1020E000000E00016C6F00016AAF1BD0FF0E0001F3
:1020F0006715376EFF0E00016815386EFF0E000180
:102100006915396E7F0E00016A153A6E3750381026
:1021100039103A10D8A402D02FA003D0010E00012C
:102120006C6F00016C510001D8B420D0010E2F2635
:10213000000E30223122322232A018D02FC037F0C8
:1021400030C038F031C039F032C03AF03A343A3267
:1021500039323832373237C02FF038C030F039C01A
:1021600031F03AC032F00001654B662B000166BFCA
:1021700013D00001665104E100016529D8A00CD0FC
:10218000000E0001666F6569000E2F6E000E306E46
:10219000000E316E000E326E000166BF07D00001E6
:1021A000665114E100016505D8B010D0000E0001A1
:1021B000666F000E656F000E2F6E000E306E000E03
:1021C000316E000E326E000E0001606F65C06BF064
:1021D00000016BA102D0318E01D0319E0001D89058
:1021E0006B31326E0001605132122FC02FF030C0BF
:1021F00030F031C031F032C032F012000001646FB3
:10220000000E0001666F5050D8A421D05150340DFB
:10221000140EF324D96E040EF420DA6EDF500001A0
:10222000656F54C06BF000016B5100016519D8B4A3
:10223000F8D0010E0001666F5150340D140EF324D6
:10224000D96E040EF420DA6E6BC0DFFFEAD0F8C05E
:1022500014F0F9C015F0FAC016F0FBC017F044EC0A
:1022600035F014C067F015C068F016C069F017C0EB
:102270006AF05150340DFC0E336EFF0E346E505028
:10228000356E366AD89035363636D890353636368D
:10229000D890353636363350352634503622100E27
:1022A000376E040E386E040E3726000E3822355075
:1022B000372636503822F3503724D96EF450382060
:1022C000DA6EDECF60F0DECF61F0DECF62F0DECF1F
:1022D00063F0000167510001601910E100016851CD
:1022E000000161190BE1000169510001621906E169
:1022F00000016A5100016319D8B493D05150340DD4
:10230000FC0E336EFF0E346E5050356E366AD89028
:1023100035363636D89035363636D8903536363668
:102320003350352634503622100E376E040E386E78
:10233000040E3726000E3822355037263650382204
:10234000F3503724D96EF4503820DA6E67C0DEFFC0
:1023500068C0DEFF69C0DEFF6AC0DEFF5150340D89
:10236000FC0E336EFF0E346E5050356E366AD890C8
:1023700035363636D89035363636D8903536363608
:102380003350352634503622100E376E040E386E18
:10239000040E3726000E38223550372636503822A4
:1023A000F3503726F4503822040E3724D96E000E2D
:1023B0003820DA6EEAC2DEFFEBC2DDFF5150340D89
:1023C000FC0E336EFF0E346E5050356E366AD89068
:1023D00035363636D89035363636D89035363636A8
:1023E0003350352634503622100E376E040E386EB8
:1023F000040E3726000E3822355037263650382244
:10240000F3503726F4503822060E3724D96E000ECA
:102410003820DA6EECC2DEFFEDC2DDFF010E0001F6
:10242000666F000166510001D8B443D0000E000170
:102430006D6FA20E6C6F100E146E040E156EFE0EF4
:1024400000016C25166EFF0E00016D21176E73ECF6
:1024500041F0E3C01CF0E4C01DF0000E1E6E100E33
:102460001F6E040E206E6CC021F06DC022F0FFECD8
:1024700021F0E3C00FF0E4C010F0000E116E000E6A
:10248000126E060E136E6CC014F06DC015F0CEEC1B
:102490001BF0100E086E040E096E000E0A6E060E7A
:1024A0000B6E6CC00CF098EC41F008500910D8B4D9
:1024B00000F0000164510001D8B403D064EC42F094
:1024C0001200502A5150340D140EF324D96E040E0C
:1024D000F420DA6E5050DE5CD8B008D0000E506E9A
:1024E000512A020E516402D0000E516E50C025F0E8
:1024F000515023EC2BF0120003010451D8A414D046
:102500000CC308F00DC309F00EC30AF00FC30BF0A3
:10251000000EBBEC20F008C099F009C09AF00AC088
:102520009BF00BC09CF077D008C308F009C309F0FA
:102530000AC30AF00BC30BF0010EBBEC20F008C07D
:1025400099F009C09AF00AC09BF00BC09CF00CC334
:1025500008F00DC309F00EC30AF00FC30BF0000E14
:10256000BBEC20F008C071F009C072F00AC073F033
:102570000BC074F00CC308F00DC309F00EC30AF0D1
:102580000FC30BF0000EBBEC20F008C06DF009C0CB
:102590006EF00AC06FF00BC070F08BEC03F06DC0F2
:1025A0008DF06EC08EF06FC08FF070C090F099C04B
:1025B00071F09AC072F09BC073F09CC074F08DC033
:1025C0006DF08EC06EF08FC06FF090C070F08BEC2D
:1025D00003F06DC091F06EC092F06FC093F070C0C8
:1025E00094F091C06DF092C06EF093C06FF094C003
:1025F00070F099C071F09AC072F09BC073F09CC0EB
:1026000074F08BEC03F06DC099F06EC09AF06FC05F
:102610009BF070C09CF099C01AF09AC01BF09BC050
:102620001CF09CC01DF003010551086E096A0A6A7E
:102630000B6A000EBBEC20F008C016F009C017F0C2
:102640000AC018F00BC019F012EC0CF016C02FF0F5
:1026500017C030F018C031F019C032F0000E336EE0
:10266000000E346EC80E356E420E366E60EC0FF002
:102670002FC099F030C09AF031C09BF032C09CF06E
:102680000001995100019A1100019B1100019C1158
:10269000D8A409D0000E0001996F000E9A6F800E29
:1026A0009B6F3F0E9C6FCDC008F0CEC009F0CFC02D
:1026B0000AF0D0C00BF0010EBBEC20F008C095F082
:1026C00009C096F00AC097F00BC098F0000198AFCF
:1026D00009D0000E0001956F000E966F000E976FE7
:1026E000000E986F95C02FF096C030F097C031F073
:1026F00098C032F099C033F09AC034F09BC035F0E6
:102700009CC036F060EC0FF02FC099F030C09AF00A
:1027100031C09BF032C09CF099C016F09AC017F0FF
:102720009BC018F09CC019F0000E1A6E000E1B6EB4
:10273000C80E1C6E420E1D6E12EC0CF016C099F005
:1027400017C09AF018C09BF019C09CF0000E000151
:10275000816F000E826FC80E836F420E846F99C026
:1027600085F09AC086F09BC087F09CC088F006EC8C
:102770001BF00001D8B009D0000E0001996F000EC7
:102780009A6FC80E9B6F420E9C6F99C081F09AC0E1
:1027900082F09BC083F09CC084F068EC28F00001BC
:1027A00081510001F76F0001F75112000001646FC1
:1027B000000E0001666F5050D8A421D05150340D46
:1027C000040EF324D96E050EF420DA6EDF500001FA
:1027D000656F54C06DF000016D5100016519D8B4EA
:1027E000F8D0010E0001666F5150340D040EF32431
:1027F000D96E050EF420DA6E6DC0DFFFEAD0F8C0A6
:1028000014F0F9C015F0FAC016F0FBC017F044EC54
:1028100035F014C067F015C068F016C069F017C035
:102820006AF05150340DFC0E336EFF0E346E505072
:10283000356E366AD89035363636D89035363636D7
:10284000D890353636363350352634503622000E81
:10285000376E050E386E040E3726000E38223550BE
:10286000372636503822F3503724D96EF4503820AA
:10287000DA6EDECF60F0DECF61F0DECF62F0DECF69
:1028800063F0000167510001601910E10001685117
:10289000000161190BE1000169510001621906E1B3
:1028A00000016A5100016319D8B493D05150340D1E
:1028B000FC0E336EFF0E346E5050356E366AD89073
:1028C00035363636D89035363636D89035363636B3
:1028D0003350352634503622000E376E050E386ED2
:1028E000040E3726000E382235503726365038224F
:1028F000F3503724D96EF4503820DA6E67C0DEFF0B
:1029000068C0DEFF69C0DEFF6AC0DEFF5150340DD3
:10291000FC0E336EFF0E346E5050356E366AD89012
:1029200035363636D89035363636D8903536363652
:102930003350352634503622000E376E050E386E71
:10294000040E3726000E38223550372636503822EE
:10295000F3503726F4503822040E3724D96E000E77
:102960003820DA6EEAC2DEFFEBC2DDFF5150340DD3
:10297000FC0E336EFF0E346E5050356E366AD890B2
:1029800035363636D89035363636D89035363636F2
:102990003350352634503622000E376E050E386E11
:1029A000040E3726000E382235503726365038228E
:1029B000F3503726F4503822060E3724D96E000E15
:1029C0003820DA6EECC2DEFFEDC2DDFF010E000141
:1029D000666F000166510001D8B423D0000E0001DB
:1029E0006C6FA20E6B6F000E146E050E156EFE0E50
:1029F00000016B25166EFF0E00016C21176E73EC43
:102A000041F0E1C01CF0E2C01DF0000E1E6E000E91
:102A10001F6E050E206E6BC021F06CC022F0FFEC23
:102A200021F0000164510001D8B403D064EC42F0FD
:102A30001200502A5150340D040EF324D96E050EA5
:102A4000F420DA6E5050DE5CD8B002D0000E506E2A
:102A500050C025F0000EB7EC2AF01200AFC008F00D
:102A6000B0C009F0B1C00AF0B2C00BF0010EBBEC6F
:102A700020F008C0BFF009C0C0F00AC0C1F00BC010
:102A8000C2F00001C2AF09D0000E0001BF6F000EFE
:102A9000C06F000EC16F000EC26F0CC308F00DC3F3
:102AA00009F00EC30AF00FC30BF0000EBBEC20F0D0
:102AB00008C0B7F009C0B8F00AC0B9F00BC0BAF04E
:102AC000BFC02FF0C0C030F0C1C031F0C2C032F082
:102AD000B7C033F0B8C034F0B9C035F0BAC036F082
:102AE00060EC0FF02FC0BFF030C0C0F031C0C1F0BB
:102AF00032C0C2F0000E0001816F000E826F800EA6
:102B0000836F3F0E846FBFC085F0C0C086F0C1C028
:102B100087F0C2C088F006EC1BF00001D8B009D0E5
:102B2000000E0001BF6F000EC06F800EC16F3F0E20
:102B3000C26FBFC0B7F0C0C0B8F0C1C0B9F0C2C06A
:102B4000BAF0B10E00018D6FF00E00018E6FBFC0A4
:102B50008FF0C0C090F0C1C091F0C2C092F0000EE2
:102B60000001946F650E936F11EC08F08DC0BFF0FB
:102B70008EC0C0F08FC0C1F090C0C2F010C308F08A
:102B800011C309F012C30AF013C30BF0010EBBEC22
:102B900020F008C0BBF009C0BCF00AC0BDF00BC0FB
:102BA000BEF0BBC016F0BCC017F0BDC018F0BEC070
:102BB00019F0BFC01AF0C0C01BF0C1C01CF0C2C0E9
:102BC0001DF012EC0CF016C0BBF017C0BCF018C022
:102BD000BDF019C0BEF0B7C0BFF0B8C0C0F0B9C0FA
:102BE000C1F0BAC0C2F01D0E00018D6FEF0E0001E2
:102BF0008E6FBFC08FF0C0C090F0C1C091F0C2C056
:102C000092F0000E0001946F650E936F11EC08F0C6
:102C10008DC0BFF08EC0C0F08FC0C1F090C0C2F0B8
:102C200014C308F015C309F016C30AF017C30BF05C
:102C3000010EBBEC20F008C0B3F009C0B4F00AC02C
:102C4000B5F00BC0B6F0B3C016F0B4C017F0B5C005
:102C500018F0B6C019F0BFC01AF0C0C01BF0C1C058
:102C60001CF0C2C01DF012EC0CF016C0B3F017C07F
:102C7000B4F018C0B5F019C0B6F0BBC06DF0BCC060
:102C80006EF0BDC06FF0BEC070F0B3C071F0B4C0E4
:102C900072F0B5C073F0B6C074F08BEC03F06DC089
:102CA000BBF06EC0BCF06FC0BDF070C0BEF0BBC06A
:102CB00081F0BCC082F0BDC083F0BEC084F068EC7F
:102CC00028F081C0AFF082C0B0F083C0B1F084C002
:102CD000B2F01200000E326E000E336E000E346E33
:102CE000000E356E030E2460F9D0000E236E000E28
:102CF000226E120022C0D9FF23C0DAFFDECF2EF0F1
:102D0000DDCF2FF02EC030F02FC031F0000E326E2C
:102D1000000E336E000E346E000E356E000E366EF1
:102D20005ED03650020DF3502224D96EF450232089
:102D3000DA6E3050DE5CDE50800A286E3150800A38
:102D40002858D8B00ED03650020DF3502224D96E38
:102D5000F4502320DA6EDECF30F0DDCF31F036C014
:102D60002DF03650020DF3502224D96EF45023205A
:102D7000DA6EDE502E5C2F50800A286EDE50800AFC
:102D80002858D8B00ED03650020DF3502224D96EF8
:102D9000F4502320DA6EDECF2EF0DDCF2FF036C0D8
:102DA0002CF03650020DF3502224D96EF45023201B
:102DB000DA6EDECF26F0DDCF27F026C028F027C060
:102DC00029F0000E29BEFF0E2A6E2B6E28503226E7
:102DD000295033222A5034222B503522362A2450AF
:102DE000365CD8A09ED72EC026F02FC027F0000E4C
:102DF00027BEFF0E286E296E261E271E281E291E9E
:102E0000262A000E27222822292232502624326E1A
:102E100033502720336E34502820346E355029200B
:102E2000356E30C026F031C027F0000E27BEFF0EF1
:102E3000286E296E261E271E281E291E262A000EF1
:102E400027222822292232502624326E335027206E
:102E5000336E34502820346E35502920356E32C000
:102E600014F033C015F034C016F035C017F0FE0E64
:102E7000266EFF0E276E2450286E296A26502826BB
:102E80002750292228C018F029C019F0000E19BEB9
:102E9000FF0E1A6E1B6E5EEC2CF014C032F015C0E3
:102EA00033F016C034F017C035F02D50020DF3503A
:102EB0002224D96EF4502320DA6E32C0DEFF33C0F4
:102EC000DDFF2C50020DF3502224D96EF450232044
:102ED000DA6E32C0DEFF33C0DDFF25062550D8A4F0
:102EE00009D732C022F033C023F01200000120EED7
:102EF0000CF08951D9268A51DA22DECF08F0DECFD4
:102F000009F0DECF0AF0DECF0BF0000EBBEC20F0B4
:102F100008C0A1F009C0A2F00AC0A3F00BC0A4F041
:102F2000000120EE08F08951D9268A51DA22DECF3D
:102F300008F0DECF09F0DECF0AF0DECF0BF0010E95
:102F4000BBEC20F008C099F009C09AF00AC09BF0D1
:102F50000BC09CF0000E336E000E346E7A0E356E90
:102F6000440E366EA1C02FF0A2C030F0A3C031F0E5
:102F7000A4C032F060EC0FF02FC08DF030C08EF0A6
:102F800031C08FF032C090F08DC02FF08EC030F085
:102F90008FC031F090C032F0000E336E000E346EF0
:102FA000000E356E400E366E60EC0FF02FC0A1F0B3
:102FB00030C0A2F031C0A3F032C0A4F099C02FF00D
:102FC0009AC030F09BC031F09CC032F0000E336EDE
:102FD000000E346E7A0E356E440E366E60EC0FF0D5
:102FE0002FC099F030C09AF031C09BF032C09CF0F5
:102FF000A1C01AF0A2C01BF0A3C01CF0A4C01DF019
:10300000A1C016F0A2C017F0A3C018F0A4C019F018
:1030100012EC0CF016C091F017C092F018C093F0AB
:1030200019C094F099C01AF09AC01BF09BC01CF014
:103030009CC01DF091C016F092C017F093C018F01C
:1030400094C019F012EC0CF016C095F017C096F071
:1030500018C097F019C098F095C016F096C017F0F8
:1030600097C018F098C019F0F90E1A6E0F0E1B6E6B
:10307000490E1C6E400E1D6E12EC0CF016C09DF039
:1030800017C09EF018C09FF019C0A0F09DC016F0A8
:103090009EC017F09FC018F0A0C019F0000E1A6E65
:1030A000000E1B6E7A0E1C6E440E1D6E12EC0CF0A0
:1030B00016C09DF017C09EF018C09FF019C0A0F078
:1030C0009DC081F09EC082F09FC083F0A0C084F0BC
:1030D00068EC28F081C089F082C08AF083C08BF050
:1030E00084C08CF0120021C0D9FF22C0DAFFDECFED
:1030F00030F0DDCF31F0260E086E000E096E1FC0D5
:103100000AF020C00BF09EEC3BF020EE03F02150C3
:10311000D9262250DA22DF50D8A45CD0100E305CC1
:10312000270E3158D8A004D0270E316E0F0E306E06
:103130002A0E106E000E116E30C012F031C013F066
:103140009BEC22F0260E086E000E096E080E0A6E29
:103150008DEC40F020EE02F02150D9262250DA22E8
:10316000DF50326E010E196E3250040FECEC3DF060
:10317000040E236005D023500008030F236E60D097
:10318000040E2318D8A40ED00F015FB799D0000108
:10319000F551D8A495D0000E196E3250040FECEC06
:1031A0003DF08ED00F015FB78BD00001F551D8A450
:1031B00087D02A0E086E000E096E7A0E0A6EF30E84
:1031C0000B6E9EEC3BF0000E196E3250040FECECCF
:1031D0003DF076D02350D8B41200100E305C270E8C
:1031E0003158D8A004D0270E316E0F0E306E2B0E42
:1031F000106E000E116E30C012F031C013F09BEC57
:1032000022F02D0E2A6E260E086E000E096E080E94
:103210000A6E8DEC40F020EE02F02150D9262250AB
:10322000DA22DF50326E010E196E3250050FECECCF
:103230003DF0040E23601BD023500008040F9ED7DE
:103240000F015FB73DD00001F551D8A439D023500C
:10325000246E256A040E2426000E2522260E242420
:10326000D96E000E2520DA6E200EDF6E29D0040EF6
:103270002318D8A40ED00F015FB722D00001F5515A
:10328000D8A41ED0000E196E3250050FECEC3DF0A4
:1032900017D00F015FB714D00001F551D8A410D09A
:1032A0002A0E086E000E096E7A0E0A6EF30E0B6E71
:1032B0009EEC3BF0000E196E3250050FECEC3DF029
:1032C000260E1C6E000E1D6EFCEC3CF02DEC3DF04D
:1032D0001200000E1BEC46F0010EBBEC45F0525004
:1032E000F00B346E343A0F0E34163450D8A416D086
:1032F000CDC015F0CEC016F0CFC017F0D0C018F07A
:1033000043EC2AF015C030F016C031F017C032F08F
:1033100018C033F0010EFFEC41F032D03404D8A4D1
:1033200016D0C9C015F0CAC016F0CBC017F0CCC07B
:1033300018F043EC2AF015C030F016C031F017C079
:1033400032F018C033F0010EEBEC3FF019D0020E52
:103350003418D8A415D052C215F053C216F054C276
:1033600017F055C218F043EC2AF015C030F016C023
:1033700031F017C032F018C033F0010EDDEC41F02F
:10338000300E1F6E000E206E000E216EF2EC26F045
:1033900052500F0B346E3450D8A416D04AC215F0D8
:1033A0004BC216F04CC217F04DC218F043EC2AF095
:1033B00015C030F016C031F017C032F018C033F02D
:1033C000010E99EC3FF04CD03404D8A416D046C27C
:1033D00015F047C216F048C217F049C218F043EC86
:1033E0002AF015C030F016C031F017C032F018C006
:1033F00033F0010E70EC3FF033D0020E3418D8A435
:1034000016D0CDC015F0CEC016F0CFC017F0D0C08A
:1034100018F043EC2AF015C030F016C031F017C098
:1034200032F018C033F0010EC2EC3FF019D0030E99
:103430003418D8A415D0C9C015F0CAC016F0CBC036
:1034400017F0CCC018F043EC2AF015C030F016C0CD
:1034500031F017C032F018C033F0010EFDEC3AF035
:10346000300E1F6E000E206E010E216EF2EC26F063
:103470003450C5EC42F02DEC3DF01200000E146EFD
:10348000000E136E20EE06F00F50D9261050DA22EF
:1034900001D80AD00500FA6EDE50FD6EDE50FE6ED9
:1034A000F850FF6EFA50120020EE0AF00F50D926A5
:1034B0001050DA2201D811D00500FA6EDE50FD6EF0
:1034C000DE50FE6EF850FF6EFA5020EE01F00F5005
:1034D000D9261050DA22DF50120020EE0AF00F50E9
:1034E000D9261050DA2201D80BD00500FA6EDE5032
:1034F000FD6EDE50FE6EF850FF6EFA501150120055
:1035000020EE08F00F50D9261050DA2201D80AD048
:103510000500FA6EDE50FD6EDE50FE6EF850FF6E56
:10352000FA50120020EE06F00F50D9261050DA2281
:1035300001D80AD00500FA6EDE50FD6EDE50FE6E38
:10354000F850FF6EFA50120020EE0AF00F50D92604
:103550001050DA2201D813D00500FA6EDE50FD6E4D
:10356000DE50FE6EF850FF6EFA5020EE01F00F5064
:10357000D9261050DA22DF50126E1228120020EEE7
:103580000EF00F50D9261050DA2201D80BD00500CA
:10359000FA6EDE50FD6EDE50FE6EF850FF6EFA5091
:1035A000000E1200126E1250136E146A1350146E35
:1035B000136A20EE0EF00F50D9261050DA2201D8EF
:1035C0000BD00500FA6EDE50FD6EDE50FE6EF85038
:1035D000FF6EFA50000E1200126E1250131220EEFF
:1035E00008F00F50D9261050DA2201D80AD0050071
:1035F000FA6EDE50FD6EDE50FE6EF850FF6EFA5031
:10360000120013C00FF014C010F01200000E0001E1
:1036100081150001896F000E0001821500018A6F7B
:10362000800E0001831500018B6F7F0E0001841551
:1036300000018C6F0001895100018A1100018B117A
:1036400000018C11D8A409D0000E0001816F000E7A
:10365000826F000E836F000E846F000E00018515CF
:103660000001896F000E0001861500018A6F800E2F
:103670000001871500018B6F7F0E00018815000186
:103680008C6F0001895100018A1100018B1100012A
:103690008C11D8A409D0000E0001856F000E866F32
:1036A000000E876F000E886F000184AF26D081C0A6
:1036B00089F082C08AF083C08BF084C08CF0000156
:1036C000891F8A1F8B1F8C1F892B000E8A238B2337
:1036D0008C23000E000189250001816F000E00017E
:1036E0008A210001826F000E00018B210001836F8F
:1036F000800E00018C210001846F000188AF26D06C
:1037000085C089F086C08AF087C08BF088C08CF0B5
:103710000001891F8A1F8B1F8C1F892B000E8A2393
:103720008B238C23000E000189250001856F000E7C
:1037300000018A210001866F000E00018B2100012B
:10374000876F800E00018C210001886F000E000140
:10375000811B000E821B000E831B800E841B000E3B
:103760000001851B000E861B000E871B800E881B28
:10377000000185510001815D0001865100018259DF
:1037800000018751000183590001885100018459CB
:10379000D8B002D0D8901200D880120020EE01F0EC
:1037A0000F50D9261050DA2201D80AD00500FA6E3F
:1037B000DE50FD6EDE50FE6EF850FF6EFA501200C5
:1037C00020EE05F00F50D9261050DA2201D80FD084
:1037D0000500FA6EDE50FD6EDE50FE6EF850FF6E94
:1037E000FA500FC0D9FF10C0DAFFDF50120020EEF0
:1037F00005F00F50D9261050DA2201D80BD0050061
:10380000FA6EDE50FD6EDE50FE6EF850FF6EFA501E
:103810001150120020EE01F00F50D9261050DA227C
:1038200001D80AD00500FA6EDE50FD6EDE50FE6E45
:10383000F850FF6EFA50120020EE05F00F50D92616
:103840001050DA2201D811D00500FA6EDE50FD6E5C
:10385000DE50FE6EF850FF6EFA500FC0D9FF10C058
:10386000DAFFDF50166E16281200000E1B6E000ED7
:103870001A6E1CD020EE09F00F50D9261050DA2213
:1038800001D80BD00500FA6EDE50FD6EDE50FE6EE4
:10389000F850FF6EFA50000E120012C0D9FF13C08C
:1038A000DAFFDF6E124A132A1A4A1B2AFF0E166E1F
:1038B000FF0E176E14C018F015C019F01650182618
:1038C0001750192218501A5C19501B58D8A0D2D77B
:1038D00020EE09F00F50D9261050DA2201D80BD073
:1038E0000500FA6EDE50FD6EDE50FE6EF850FF6E83
:1038F000FA50010E120012C0D9FF13C0DAFFDF6EBA
:1039000020EE03F00F50D9261050DA2201D8120011
:103910000500FA6EDE50FD6EDE50FE6EF850FF6E52
:10392000FA5012000A0E0001D727000ED82300011A
:10393000D85107E10A0E0001D75DD8B002D0000EC1
:103940001200000E0001D86F000ED76F0001F25177
:10395000D8A41DD0000E4F6EDBC008F0DCC009F00B
:103960004FC00AF073EC46F0DBC008F0DCC009F091
:10397000000E0A6E64EC46F0DBC014F0DCC015F0FB
:1039800004EC44F0010E0001F26F010E1200DBC0E6
:1039900015F0DCC016F0DCEC40F015C039F016C0B4
:1039A0003AF04F50D8A417D0DE0E226E020E236ECE
:1039B00039C024F03AC025F0040E266EE7EC24F05E
:1039C000030E4F6EDBC008F0DCC009F0050E0A6E76
:1039D00064EC46F046D0030E4F18D8A417D0D60E8C
:1039E000226E020E236E39C024F03AC025F0040E78
:1039F000266EE7EC24F0050E4F6EDBC008F0DCC04D
:103A000009F0040E0A6E64EC46F02BD0050E4F1838
:103A1000D8A41DD0CE0E226E020E236E39C024F023
:103A20003AC025F0040E266EE7EC24F022C066F2C0
:103A300023C067F2000E4F6EDBC008F0DCC009F057
:103A4000000E0A6E64EC46F00001F22B0AD0DBC0D7
:103A500008F0DCC009F0000E0A6E64EC46F0000EBF
:103A60004F6EDBC008F0DCC009F04FC00AF073EC09
:103A700046F0DBC014F0DCC015F004EC44F0040E9A
:103A80000001F2650CD0E60E376E020E386E38EC8F
:103A90003CF0010E0001F16F000E0001F26F010E0B
:103AA0001200030E0401106F000E186E020E18644F
:103AB00001D012001850340D140EF324D96E040EE8
:103AC000F420DA6E060EDF6E000E176E050E176418
:103AD00001D09DD017C00BF00C6A170E0E6E700E41
:103AE0000D6E2EEC46F00BC011F00CC012F018C099
:103AF0000BF00C6A010E0E6EF40E0D6E2EEC46F0FD
:103B00000B5011260C5012221750080D040EF326EC
:103B1000000EF422100E136E040E146E040E132603
:103B2000000E1422F3501326F45014221850340DB2
:103B3000F3501326F4501422040E1324D96E000EF1
:103B40001420DA6E11C0DEFF12C0DDFF17C00BF0CB
:103B50000C6A170E0E6E700E0D6E2EEC46F00BC03A
:103B600011F00CC012F0000E12BEFF0E136E146E98
:103B70001750080D040EF326000EF422100E156ED9
:103B8000040E166E040E1526000E1622F35015268E
:103B9000F45016221850340DF3501524D96EF450F9
:103BA0001620DA6E11C0DEFF12C0DEFF13C0DEFF8A
:103BB00014C0DEFF18C00BF00C6A030E0E6EE80E88
:103BC0000D6E2EEC46F01750080D040EF326000E75
:103BD000F422100E116E040E126E040E1126000E49
:103BE0001222F3501126F45012221850340DF350C3
:103BF0001126F4501222060E1124D96E000E122046
:103C0000DA6E0BC0DEFF0CC0DDFF172A5FD7182A63
:103C10004DD7000120EE0CF08951D9268A51DA22C5
:103C2000DECF08F0DECF09F0DECF0AF0DECF0BF0FA
:103C3000000EBBEC20F008C099F009C09AF00AC051
:103C40009BF00BC09CF099C02FF09AC030F09BC045
:103C500031F09CC032F0000E336E000E346E7A0EDE
:103C6000356E440E366E60EC0FF02FC099F030C008
:103C70009AF031C09BF032C09CF099C01AF09AC003
:103C80001BF09BC01CF09CC01DF099C016F09AC0A0
:103C900017F09BC018F09CC019F012EC0CF016C085
:103CA0008DF017C08EF018C08FF019C090F099C039
:103CB0001AF09AC01BF09BC01CF09CC01DF08DC078
:103CC00016F08EC017F08FC018F090C019F012ECEB
:103CD0000CF016C091F017C092F018C093F019C004
:103CE00094F091C016F092C017F093C018F094C0F1
:103CF00019F0A60E1A6E0A0E1B6E860E1C6E3E0E74
:103D00001D6E12EC0CF016C095F017C096F018C09E
:103D100097F019C098F095C016F096C017F097C0AC
:103D200018F098C019F0000E1A6E000E1B6E7A0E75
:103D30001C6E440E1D6E12EC0CF016C095F017C0F0
:103D400096F018C097F019C098F095C081F096C011
:103D500082F097C083F098C084F068EC28F081C0AE
:103D600089F082C08AF083C08BF084C08CF012008E
:103D7000010E0501006F000E176E1750D8A4120037
:103D80001750340D040EF324D96E050EF420DA6EAC
:103D9000060EDF6E000E186E050E186401D094D06A
:103DA00018C00BF00C6A170E0E6E700E0D6E2EEC16
:103DB00046F00BC011F00CC012F017C00BF00C6AEB
:103DC000010E0E6EF40E0D6E2EEC46F00B50112609
:103DD0000C5012221850080D040EF326000EF42287
:103DE000000E136E050E146E040E1326000E142220
:103DF000F3501326F45014221750340DF3501326A9
:103E0000F4501422040E1324D96E000E1420DA6E1E
:103E100011C0DEFF12C0DDFF18C00BF00C6A170ED8
:103E20000E6E700E0D6E2EEC46F00BC011F00CC035
:103E300012F0000E12BEFF0E136E146E1850080D15
:103E4000040EF326000EF422000E156E050E166EFB
:103E5000040E1526000E1622F3501526F4501622D5
:103E60001750340DF3501524D96EF4501620DA6E25
:103E700011C0DEFF12C0DEFF13C0DEFF14C0DEFF84
:103E80001850080D040EF326000EF422000E116ED9
:103E9000050E126E040E1126000E1222F35011268A
:103EA000F45012221750340DF3501126F450122200
:103EB000060E1124D96E000E1220DA6E000EDE6E90
:103EC000000EDD6E182A68D7172A57D7000E00019A
:103ED000A66FF00EA56F000E0001AA6F030E000181
:103EE000AB6FAAC0A8F0ABC0A9F0000E086EF40E2C
:103EF000096E000E0A6E000E0B6EAAC00CF0ABC06D
:103F00000DF0000E0F6EF00E0E6E05EC3CF0AAC028
:103F100014F0ABC015F0000E176EF00E166E5EECCE
:103F20003DF00001A76F0001A7510001D8A41200C5
:103F3000AAC008F0ABC009F0450E0A6EF20E0B6E77
:103F4000000E0D6EF00E0C6E21EC42F0A8C089F050
:103F5000A9C08AF076EC17F0000120EE10F0A8510D
:103F6000D926A951DA22000189C0DEFF00018AC0EA
:103F7000DEFF00018BC0DEFF00018CC0DEFFA8C0A9
:103F800089F0A9C08AF009EC1EF0000120EE14F0BF
:103F9000A851D926A951DA22000189C0DEFF00010B
:103FA0008AC0DEFF00018BC0DEFF00018CC0DEFF97
:103FB000AAC014F0ABC015F0000E176EEE0E166E10
:103FC00073EC41F0000E166EF40E176E000E186EB4
:103FD000000E196EAAC01AF0ABC01BF0000E1D6EC9
:103FE000F00E1C6ECEEC29F0000E086EF40E096E79
:103FF000000E0A6E000E0B6EAAC00CF0ABC00DF0E6
:10400000000E0F6EF00E0E6E05EC3CF0AAC014F020
:10401000ABC015F0000E176EF00E166E5EEC3DF0A4
:104020000001A76F1200000E326E0A0E0001D527A4
:10403000000ED6230001D65107E10A0E0001D55D1E
:10404000D8B002D0000E1200000E0001D66F000E94
:10405000D56F0001EF51D8A415D0040E0001F06F08
:10406000D9C008F0DAC009F0F0C00AF073EC46F0ED
:10407000D9C014F0DAC015F004EC44F00001EF2BC5
:10408000010E1200D9C015F0DAC016F0DCEC40F0D9
:1040900015C033F016C034F0040E0001F019D8A496
:1040A00012D0C60E226E020E236E33C024F034C02E
:1040B00025F0040E266EE7EC24F022C064F223C043
:1040C00065F2050E3CD0050E0001F019D8A41BD0F6
:1040D000BE0E226E020E236E33C024F034C025F0D3
:1040E000040E266EE7EC24F022C033F023C034F037
:1040F000D8903336343633500201645F34500201B5
:10410000655B030E1CD0030E0001F019D8A416D075
:10411000B60E226E020E236E33C024F034C025F09A
:10412000040E266EE7EC24F022C0DFF023C0E0F09E
:10413000040E0001F06F0001EF2B03D0040E00010C
:10414000F06FD9C008F0DAC009F0F0C00AF073ECE3
:1041500046F0D9C014F0DAC015F004EC44F0040EB7
:104160000001EF6506D0010E0001EE6F000E0001A8
:10417000EF6F010E1200106E1050D8A40BAE1AD0C3
:1041800008C00CF009C00DF00AC00EF00BC00FF013
:104190000C1E0D1E0E1E0F1E0C2A000E0D220E22CE
:1041A0000F220CC012F00DC013F00EC014F00FC09F
:1041B00015F008D008C012F009C013F00AC014F0BE
:1041C0000BC015F0085009100A100B10D8A409D024
:1041D000000E086E000E096E000E0A6E000E0B6EC9
:1041E0001200960E116E06D0112AD8901532143294
:1041F00013321232000E12140C6E000E13140D6ED8
:10420000000E14140E6EFE0E15140F6E0C500D10D1
:104210000E100F10D8B40DD0E7D7112A010E1226B8
:10422000000E132214221522D890153214321332A4
:104230001232000E12140C6E000E13140D6E000ECE
:1042400014140E6EFF0E15140F6E0C500D100E1080
:104250000F10D8B407D0E1D71106D8901236133614
:104260001436153614BE03D0020E1160F5D711B006
:1042700008D0FF0E1216FF0E13167F0E1416FF0E37
:104280001516D890113211C00CF00D6A0E6A0F6A23
:104290000CC00FF00E6A0D6A0C6A0C5012120D5011
:1042A00013120E5014120F5015121050D8A40BAE4A
:1042B00001D0158E12C008F013C009F014C00AF026
:1042C00015C00BF012000A0E02015C27000E5D23E0
:1042D00002015D5107E10A0E02015C5DD8B002D017
:1042E000000E1200000E02015D6F000E5C6F0001F7
:1042F000ED51D8A409D041EC46F0020E4E6E010EED
:104300000001ED6F010E1200020E4E18D8A419D054
:104310004E50BEEC3DF00CC032F00DC033F0AE0E8E
:10432000226E020E236E32C024F033C025F0040E3C
:10433000266EE7EC24F022C0D1F023C0D2F0010EAB
:1043400051D04E04D8A419D04E50BEEC3DF00CC054
:1043500032F00DC033F0A60E226E020E236E32C074
:1043600024F033C025F0040E266EE7EC24F022C0C2
:10437000D3F023C0D4F0000E35D04E50D8A415D0C1
:104380004E50BEEC3DF00CC032F00DC033F09E0E2E
:10439000226E020E236E32C024F033C025F0040ECC
:1043A000266EE7EC24F0030E1DD0030E4E18D8A4A1
:1043B00018D04E50BEEC3DF00CC032F00DC033F0C2
:1043C000960E226E020E236E32C024F033C025F00A
:1043D000040E266EE7EC24F0020E4E6E0001ED2B6B
:1043E00002D0020E4E6E040E0001ED6506D0010EE5
:1043F0000001EC6F000E0001ED6F010E12001CC0F9
:104400000FF01DC010F01EC011F0000E126E010E54
:10441000136E21C014F022C015F0CEEC1BF0000E7C
:10442000266E000E256E80D025501F24D96E265092
:104430002020DA6E000E2524E96E010E2620EA6E99
:10444000DE50EE18D8B46ED020EE01F01C50D92604
:104450001D50DA2201D80AD00500FA6EDE50FD6E3A
:10446000DE50FE6EF850FF6EFA50120020EE05F09E
:104470001C50D9261D50DA2201D80FD00500FA6E43
:10448000DE50FD6EDE50FE6EF850FF6EFA501CC01E
:10449000D9FF1DC0DAFFDF50120020EE05F01C50DE
:1044A000D9261D50DA2201D80CD00500FA6EDE5054
:1044B000FD6EDE50FE6EF850FF6EFA501E50252441
:1044C000120020EE05F01C50D9261D50DA2201D82A
:1044D00011D00500FA6EDE50FD6EDE50FE6EF85013
:1044E000FF6EFA5025501F24D96E26502020DA6E18
:1044F000DF50120020EE03F01C50D9261D50DA22A6
:1045000001D80AD00500FA6EDE50FD6EDE50FE6E58
:10451000F850FF6EFA501200000E0D6E010E0C6E78
:10452000A0EC46F0254A262A2150255C2250265828
:10453000D8B0120079D713BE0AD0100E125C270E25
:104540001358D8A004D0270E136E0F0E126E12C08F
:1045500008F013C009F0000E0B6E0A0E0A6EC5ECCF
:104560003AF00C0E0824F66EEF0E0920F76E20EEDE
:1045700003F01050D9261150DA220800F5CFDFFFE2
:1045800012C008F013C009F0000E0B6E0A0E0A6E7E
:1045900025EC36F008C012F009C013F012C008F084
:1045A00013C009F0000E0B6E0A0E0A6EC5EC3AF04D
:1045B0000C0E0824F66EEF0E0920F76E20EE02F0C6
:1045C0001050D9261150DA220800F5CFDFFF12C0B3
:1045D00008F013C009F0000E0B6E0A0E0A6E25ECEF
:1045E00036F008C012F009C013F012C008F013C072
:1045F00009F0000E0B6E0A0E0A6EC5EC3AF00C0EB6
:104600000824F66EEF0E0920F76E20EE01F0105030
:10461000D9261150DA220800F5CFDFFF12C008F0CA
:1046200013C009F0000E0B6E0A0E0A6E25EC36F070
:1046300008C012F009C013F012C008F013C009F04E
:10464000000E0B6E0A0E0A6EC5EC3AF00C0E082432
:10465000F66EEF0E0920F76E10C0D9FF11C0DAFF19
:104660000800F5CFDFFF12000001AA6F000E000165
:10467000AF6F030E0001B06FF8C014F0F9C015F071
:10468000FAC016F0FBC017F044EC35F014C0ABF0E4
:1046900015C0ACF016C0ADF017C0AEF05CD0000194
:1046A00020EE9CF0AF51D926B051DA22ABC0DEFF2C
:1046B000ACC0DEFFADC0DEFFAEC0DEFF000120EE0D
:1046C000A0F012D0000120EEA4F0AF51D926B051D5
:1046D000DA22ABC0DEFFACC0DEFFADC0DEFFAEC095
:1046E000DEFF000120EEA8F0AF51D926B051DA224A
:1046F000D1C0DEFFD2C0DDFF3BD0000120EEACF028
:10470000AF51D926B051DA22ABC0DEFFACC0DEFF1C
:10471000ADC0DEFFAEC0DEFF000120EEB0F012D073
:10472000000120EEB4F0AF51D926B051DA22ABC06F
:10473000DEFFACC0DEFFADC0DEFFAEC0DEFF0001BD
:1047400020EEB8F0AF51D926B051DA22D3C0DEFF47
:10475000D4C0DDFF0DD05250000AD8B4A0D7010A52
:10476000D8B4B0D7030AD8B4C8D7010AD8B4D8D7B8
:10477000ECEC27F00001AA510001D8B403D064EC9E
:1047800042F01200522A030E526402D0000E526E02
:104790005250AAEC34F0120064D0DAEC46F0120069
:1047A000580E086E000E096E000E0A6E030E0B6E98
:1047B000A5EC42F01200580E086E000E096E000EB5
:1047C0000A6E040E0B6EA5EC42F012002FEC45F0C1
:1047D0001200580E086E000E096E000E0A6E050ECD
:1047E0000B6EA5EC42F01200E8EC46F01200CCECA7
:1047F00046F01200580E086E000E096E000E0A6E8A
:10480000020E0B6EA5EC42F01200580E086E000E60
:10481000096E000E0A6E040E0B6EA5EC42F012003B
:10482000580E086E000E096E000E0A6E040E0B6E16
:10483000A5EC42F01200580E086E000E096E000E34
:104840000A6E040E0B6EA5EC42F01200580E086EB4
:10485000000E096E000E0A6E020E0B6EA5EC42F001
:1048600012005350000AD8B498D7100AD8B498D779
:10487000300AD8B4A0D7100AD8B4A8D7700AD8B4D0
:10488000A8D7100AD8B4B0D7300AD8B4B0D7100A15
:10489000D8B4B0D7F00AD8B41200100AD8B4B5D73B
:1048A000300AD8B4BDD7100AD8B4C5D7700AD8A476
:1048B0001200CCD7E60E0101026F020E0101036F58
:1048C000680E086E020E096E000E0A6E180E0B6E50
:1048D00004EC47F0000E0101046F000E0101046FAB
:1048E00020D001010451340D140EF3240101006F96
:1048F000040EF4200101016F00C122F001C123F078
:1049000002C124F003C125F001010451080D680E15
:10491000F324266E020EF420276E23EC0AF0010128
:10492000042B040110510101045DD8A0DAD7680EF0
:10493000226E020E236E02C124F003C125F004C1D1
:1049400026F0BAEC0DF002C1D9FF03C1DAFFDECFC9
:1049500056F2DECF57F2DECF58F2DECF59F256C212
:1049600089F057C28AF058C28BF059C28CF06FECB4
:1049700027F07CEC12F00001F76F03010451D8A47A
:1049800013D0CDC0AFF0CEC0B0F0CFC0B1F0D0C02A
:10499000B2F02EEC15F0AFC0C9F0B0C0CAF0B1C093
:1049A000CBF0B2C0CCF01200CDC0AFF0CEC0B0F0B2
:1049B000CFC0B1F0D0C0B2F040EC00F0AFC0C9F051
:1049C000B0C0CAF0B1C0CBF0B2C0CCF01200000E43
:1049D0002D6E000E2E6E000E2F6E000E306E260411
:1049E000316E3150D8B43FD0FE0E276EFF0E286EC8
:1049F0003150296E2A6AD89029362A36275029261E
:104A000028502A2229502224D96E2A502320DA6ED7
:104A10003150020DF3502224E96EF4502320EA6E47
:104A2000DECFEEFFDDCFEDFF3150020DF35022243B
:104A3000D96EF4502320DA6EDECF27F0DDCF28F0D8
:104A400027C029F028C02AF0000E2ABEFF0E2B6EC8
:104A50002C6E29502D262A502E222B502F222C50DE
:104A600030223106BED73150020DF3502224D96EC8
:104A7000F4502320DA6E24C0DEFF25C0DDFF24C001
:104A800027F025C028F0000E28BEFF0E296E2A6EE2
:104A900027502D2628502E2229502F222A503022EE
:104AA0002DC014F02EC015F02FC016F030C017F036
:104AB0002650186E196A1A6A1B6A5EEC2CF014C034
:104AC0002DF015C02EF016C02FF017C030F02DC0FD
:104AD00022F02EC023F012000001AA6F000E000188
:104AE000B16F030E0001B26F4CD0540E0001AB6FDA
:104AF000000E0001AC6FABC0D9FFACC0DAFF000103
:104B000000EE04F0B151E926B251EA22DFCFEFFF07
:104B100042D0F8C014F0F9C015F0FAC016F0FBC08E
:104B200017F044EC35F014C0ADF015C0AEF016C06F
:104B3000AFF017C0B0F0000120EE08F015D0F8C0BB
:104B400014F0F9C015F0FAC016F0FBC017F044ECF1
:104B500035F014C0ADF015C0AEF016C0AFF017C000
:104B6000B0F0000120EE0CF0B151D926B251DA229A
:104B7000ADC0DEFFAEC0DEFFAFC0DEFFB0C0DEFF07
:104B80000AD05250000AD8B4B0D7010AD8B4C1D75D
:104B9000030AD8B4D4D70001AA510001D8B403D075
:104BA00064EC42F01200ECEC27F0522A020E526440
:104BB0000CD0000E526E09D0CEEC43F0120069EC1E
:104BC0003CF012009AEC3CF012005250000AD8B4AB
:104BD000F3D7010AD8B4F3D7030AD8A41200F2D746
:104BE000000E276E000E2A6E050E2B6E800E000141
:104BF000E16F020E0001E26FE1C008F0E2C009F0CF
:104C0000AA0E0A6E1CEC3AF0000E296EA20E286E57
:104C1000E1C00FF0E2C010F0000E116E2AC012F0D9
:104C20002BC013F028C014F029C015F0CEEC1BF0F7
:104C30002AC014F02BC015F028C016F029C017F0B8
:104C40005EEC3DF0276E2750D8A41200B8EC1EF0A1
:104C50002AC014F02BC015F0FE0E2824166EFF0E8D
:104C60002920176E73EC41F0E1C01CF0E2C01DF08A
:104C7000000E1E6E2AC01FF02BC020F028C021F0AD
:104C800029C022F0FFEC21F0E1C00FF0E2C010F0EB
:104C9000000E116E2AC012F02BC013F028C014F0C1
:104CA00029C015F0CEEC1BF02AC014F02BC015F073
:104CB00028C016F029C017F05EEC3DF0276E275093
:104CC000D8A41200B8EC1EF02AC014F02BC015F0C6
:104CD000FE0E2824166EFF0E2920176E73EC41F08D
:104CE0001200000E276E100E2A6E040E2B6E8B0E15
:104CF0000001E36F020E0001E46FE3C008F0E4C0BE
:104D000009F0AA0E0A6E1CEC3AF0000E296EA20EF3
:104D1000286EE3C00FF0E4C010F0000E116E2AC040
:104D200012F02BC013F028C014F029C015F0CEECFF
:104D30001BF02AC014F02BC015F028C016F029C0B3
:104D400017F05EEC3DF0276E2750D8A4120051EC0E
:104D50001DF02AC014F02BC015F0FE0E2824166E8C
:104D6000FF0E2920176E73EC41F0E3C01CF0E4C085
:104D70001DF0000E1E6E2AC01FF02BC020F028C0B0
:104D800021F029C022F0FFEC21F0E3C00FF0E4C0D5
:104D900010F0000E116E2AC012F02BC013F028C0C4
:104DA00014F029C015F0CEEC1BF02AC014F02BC073
:104DB00015F028C016F029C017F05EEC3DF0276E04
:104DC0002750D8A4120051EC1DF02AC014F02BC0BB
:104DD00015F0FE0E2824166EFF0E2920176E73ECB8
:104DE00041F01200010E216401D012001FC0D9FF52
:104DF00020C0DAFFDECF2EF0DDCF2FF020EE03F063
:104E00001F50D9262050DA22DF50D8B425D02EC02A
:104E10000BF02FC00CF0000E0E6E0A0E0D6E47EC5C
:104E20003FF00BC02EF00CC02FF0E80E2E5C030EEE
:104E30002F58D8A004D0030E2F6EE70E2E6E230E2F
:104E4000106E000E116E2EC012F02FC013F09BECEE
:104E500022F02D0E236E14D0100E2E5C270E2F582C
:104E6000D8A004D0270E2F6E0F0E2E6E230E106EBC
:104E7000000E116E2EC012F02FC013F09BEC22F02A
:104E8000000E286E2150D8A407D0230E1C6E000EF1
:104E90001D6ECBEC3CF006D0230E1C6E000E1D6E7A
:104EA000E9EC43F020EE03F01F50D9262050DA221F
:104EB000DF50226E20EE02F01F50D9262050DA2259
:104EC000DF5022242D6E030E2D601200010E196E8C
:104ED0002150040DF3502D24ECEC3DF0120089C05C
:104EE00008F08AC009F08BC00AF08CC00BF0010EEC
:104EF000BBEC20F008C091F009C092F00AC093F01A
:104F00000BC094F006C308F007C309F00A6A0B6AE5
:104F1000000EBBEC20F008C08DF009C08EF00AC076
:104F20008FF00BC090F091C02FF092C030F093C082
:104F300031F094C032F0CD0E1A6ECC0E1B6E1C0EEA
:104F40001C6E410E1D6E8DC016F08EC017F08FC006
:104F500018F090C019F012EC0CF016C033F017C026
:104F600034F018C035F019C036F060EC0FF02FC0E7
:104F700091F030C092F031C093F032C094F091C003
:104F800016F092C017F093C018F094C019F0000EFC
:104F90001A6E000E1B6E7A0E1C6E440E1D6E12EC05
:104FA0000CF016C091F017C092F018C093F019C021
:104FB00094F091C081F092C082F093C083F094C0CD
:104FC00084F068EC28F081C0CDF082C0CEF083C0C0
:104FD000CFF084C0D0F01200000E0001A56F000ECB
:104FE0000001A66F030E0001A76F000E0001A86F5D
:104FF000030E0001A96FA6C089F0A7C08AF076EC65
:1050000017F0000120EE10F0A651D926A751DA22A0
:10501000000189C0DEFF00018AC0DEFF00018BC0F5
:10502000DEFF00018CC0DEFFA6C089F0A7C08AF0B9
:1050300009EC1EF0000120EE14F0A651D926A7516C
:10504000DA22000189C0DEFF00018AC0DEFF000114
:105050008BC0DEFF00018CC0DEFFA8C014F0A9C029
:1050600015F0000E176EEE0E166E73EC41F0000E8A
:10507000166EF40E176E000E186E000E196EA8C094
:105080001AF0A9C01BF0000E1D6EF00E1C6ECEECC7
:1050900029F0000E086EF40E096E000E0A6E000E66
:1050A0000B6EA8C00CF0A9C00DF0000E0F6EF00E34
:1050B0000E6E05EC3CF0A8C014F0A9C015F0000E6F
:1050C000176EF00E166E5EEC3DF00001A56F12003B
:1050D000000183358435406E4050D8A40AD0000EBC
:1050E0000001816F000E826F000E836F000E846FCF
:1050F000120081C085F082C086F083C087F084C032
:1051000088F0200E06D00001D8908833873386338C
:105110008533E82EF8D7000185513F6E0001838F5B
:10512000FF0E00018117FF0E8217FF0E8317000E7E
:105130008417960E405E40AE18D04050800A970FFC
:10514000D8B00AD0000E0001816F000E826F000EF1
:10515000836F000E846F12000001D8908433833374
:1051600082338133403EF8D717D01F0E406411D0F0
:10517000000E0001816F000E826F000E836F000E23
:10518000846F12000001D8908137823783378437CB
:1051900040064050D8A4F6D73F50D8B409D00001FB
:1051A000841F831F821F816D000E8223832384232B
:1051B00081C081F082C082F083C083F084C084F01B
:1051C0001200000E1BEC46F0010EBBEC45F052C085
:1051D00026F0030E266401D01200200E086E000E89
:1051E000096E9B0E0A6EF30E0B6E9EEC3BF0265082
:1051F000310F236E200E1C6E000E1D6ECBEC3CF0AA
:10520000540E276E000E286E200E086E000E096EDA
:105210007A0E0A6EF30E0B6E9EEC3BF027C0D9FFA0
:1052200028C0DAFFDF50D8A40BD0200E086E000E85
:10523000096EF50E0A6EF30E0B6E9EEC3BF02FD04E
:1052400027C0D9FF28C0DAFFDE04D8A40BD0200E77
:10525000086E000E096EC30E0A6EF30E0B6E9EEC06
:105260003BF01DD027C0D9FF28C0DAFF020EDE18A0
:10527000D8A40BD0200E086E000E096EFA0E0A6E2E
:10528000F30E0B6E9EEC3BF00AD0200E086E000E63
:10529000096EC80E0A6EF30E0B6E9EEC3BF0200EEC
:1052A0001C6E000E1D6EE9EC43F02DEC3DF012007B
:1052B00020EE06F00F50D9261050DA2201D80AD07D
:1052C0000500FA6EDE50FD6EDE50FE6EF850FF6E89
:1052D000FA50120020EE0AF00F50D9261050DA22B0
:1052E00001D811D00500FA6EDE50FD6EDE50FE6E64
:1052F000F850FF6EFA5020EE01F00F50D9261050F2
:10530000DA22DF50120020EE0AF00F50D92610509A
:10531000DA2201D80BD00500FA6EDE50FD6EDE50A9
:10532000FE6EF850FF6EFA501150120020EE0AF097
:105330000F50D9261050DA2201D80BD00500FA6E92
:10534000DE50FD6EDE50FE6EF850FF6EFA501350C8
:10535000120020EE0AF00F50D9261050DA2201D8A0
:105360000BD00500FA6EDE50FD6EDE50FE6EF8507A
:10537000FF6EFA501250120020EE08F00F50D9269E
:105380001050DA2201D812000500FA6EDE50FD6ED0
:10539000DE50FE6EF850FF6EFA501200000E276EBF
:1053A000060E286EFF0E1614296E030E17142A6EB1
:1053B0001C5029241E6E1D502A201F6E1E04010E33
:1053C0001F58D8B01200000E1614226EFC0E1714CF
:1053D000236EFF0E1814246EFF0E1914256E22C0C2
:1053E00008F023C009F024C00AF025C00BF027C044
:1053F0000CF028C00DF0010E0F6E000E0E6E05ECC5
:105400003CF029502724086E2A502820096E1AC023
:105410000AF01BC00BF01CC00CF01DC00DF021ECFD
:1054200042F022C009F023C00AF024C00BF025C0CE
:105430000CF0F4EC3EF0040E206E27C029F028C0DA
:105440002AF029C0E9FF2A50296E2A6A29C0EAFFFA
:10545000000E216E13D0000E266E3F0E266401D082
:1054600006D0EECFE8FFF56E0D00262AF6D70A002B
:10547000A68412EC47F0A6940D00212A2050215C4E
:10548000D8B01200E8D742C221F043C222F044C291
:1054900023F045C224F015C01DF016C01EF017C041
:1054A0001FF018C020F018AE3BD015C019F016C080
:1054B0001AF017C01BF018C01CF0191E1A1E1B1E74
:1054C0001C1E192A000E1A221B221C2219C01DF0B4
:1054D0001AC01EF01BC01FF01CC020F0010E246E6D
:1054E0001FD0232A1DC008F01EC009F01FC00AF0FB
:1054F00020C00BF00A0E0C6E000E0D6E000E0E6E2C
:10550000000E0F6E67EC36F008C01DF009C01EF0EB
:105510000AC01FF00BC020F0020E236401D009D096
:1055200020501F10DEE1100E1D5C270E1E58D8B053
:10553000D8D720501F1006E1100E1D5C270E1E58F4
:10554000D8A008D00F0E1D6E270E1E6E000E1F6E07
:10555000000E206E1DC021F01EC022F021C015F0EB
:1055600022C016F023C017F024C018F012002E6ECF
:10557000600E536E000E526E2EC051F025C050F0DA
:10558000000E2C6E050E2D6E2550D8A40FD02E5077
:10559000340D040EF326000EF422F3502C24D96EA1
:1055A000F4502D20DA6EDF50546E4AD0FC0E266E79
:1055B000FF0E276E5050286E296AD890283629365B
:1055C000D89028362936D8902836293626502826CD
:1055D000275029225150340D040EF326000EF422D8
:1055E0002CC02AF02DC02BF0F3502A26F4502B2289
:1055F00028502A24D96E29502B20DA6EDECF2FF0C6
:10560000DECF30F0DECF31F0DECF32F02FC015F03C
:1056100030C016F031C017F032C018F043EC2AF059
:1056200015C02FF016C030F017C031F018C032F09E
:105630002FC0F8F030C0F9F031C0FAF032C0FBF002
:10564000000E586E12002E6E500E536E000E526EEB
:105650002EC051F025C050F0100E2C6E040E2D6E91
:105660002550D8A40FD02E50340D040EF326000E72
:10567000F422F3502C24D96EF4502D20DA6EDF5032
:10568000546E4AD0FC0E266EFF0E276E5050286EC8
:10569000296AD89028362936D89028362936D890C5
:1056A0002836293626502826275029225150340DD5
:1056B000040EF326000EF4222CC02AF02DC02BF08D
:1056C000F3502A26F4502B2228502A24D96E295030
:1056D0002B20DA6EDECF2FF0DECF30F0DECF31F0D0
:1056E000DECF32F02FC015F030C016F031C017F009
:1056F00032C018F043EC2AF015C02FF016C030F07D
:1057000017C031F018C032F02FC0F8F030C0F9F0F7
:1057100031C0FAF032C0FBF0000E586E12000D6E70
:10572000949694988B9600F000F000F000F000F052
:1057300000F000F000F000F000F000F000F000F0E9
:1057400000F000F000F000F000F000F000F0000EBB
:105750000E6E070E0E6401D047D00DAE02D08B88BE
:1057600001D08B9800F000F000F000F000F000F0A5
:1057700000F000F000F000F000F000F000F000F0A9
:1057800000F000F000F000F000F000F08B8600F078
:1057900000F000F000F000F000F000F000F000F089
:1057A00000F000F000F000F000F000F000F000F079
:1057B00000F000F000F08B9600F000F000F000F038
:1057C00000F000F000F000F000F000F000F000F059
:1057D00000F000F000F000F000F000F000F000F049
:1057E000D8900D360E2AB5D7CAEC32F01200000E52
:1057F0000001C76F0001F605D8A457D00001EB5196
:10580000D8B415D00001F151D8B412000001EE5106
:10581000D8B412000001EC51D8B41200000E0001FF
:10582000EB6FB6EC47F0000E0001EA6F12000001CA
:10583000F151D8A408D00001EE51D8A404D0000141
:10584000EC51D8B423D00001F151D8B404D091EC7C
:1058500046F00001C76F0001C7510001D8A408D06D
:105860000001EE51D8B404D082EC46F00001C76FBD
:105870000001C7510001D8A412000001EC51D8B4B6
:10588000120053EC46F00001C76F12003B0E0001FE
:10589000EA6508D0010E0001EB6F2BEC47F014EC29
:1058A00040F012000001EA2B1200010E0001EB6F24
:1058B0002BEC47F0000E0001EA6F1200000E1D6E87
:1058C0001BAE0AD01B1E1A1E191E186C000E1922C0
:1058D0001A221B22010E1D6E17AE0AD0171E161EAD
:1058E000151E146C000E152216221722010E1D1A09
:1058F000000E1E6E000E1F6E000E206E000E216E3A
:10590000185019101A101B10D8B42AD0010E1C6E92
:1059100006D0D890183619361A361B361C2A1BAEFC
:10592000F8D7D8901E361F36203621361850145C12
:10593000195015581A5016581B501758D8A009D08E
:105940001850145E1950155A1A50165A1B50175AEF
:105950001E80D8901B321A32193218321C2EE1D711
:105960001D50D8B408D0211E201E1F1E1E6C000E14
:105970001F22202221221EC014F01FC015F020C0BB
:1059800016F021C017F0120017C0D9FF18C0DAFFB7
:10599000DECF1CF0DDCF1DF0030E196402D0030E24
:1059A000196E19501EEC3FF008C00DF009C00EF042
:1059B0001CC00BF01DC00CF047EC3FF00BC012F008
:1059C0000CC013F0000E156E0A0E146E43EC42F07C
:1059D00012C01AF013C01BF019501EEC3FF008C0A3
:1059E0000BF009C00CF01AC00DF01BC00EF02EEC2D
:1059F00046F00B1E0C1E0B4A0C2A1C500B241C6E6E
:105A00001D500C201D6E1A4A1B2A1B5004E10A0E61
:105A10001A5CD8A004D0000E1B6E000E1A6E19502E
:105A20001EEC3FF008C00BF009C00CF01AC00DF0DE
:105A30001BC00EF02EEC46F00B501C260C501D2205
:105A400017C0D9FF18C0DAFF1CC0DEFF1DC0DDFF84
:105A500012000001AC6F000E0001B16F030E0001D7
:105A6000B26FF8C014F0F9C015F0FAC016F0FBC020
:105A700017F044EC35F014C0ADF015C0AEF016C010
:105A8000AFF017C0B0F0D89052300001B36F52A001
:105A900019D00001B3510C0D3C0EF326000EF42278
:105AA000B1C0AAF0B2C0ABF0F3500001AA27F45085
:105AB0000001AB23040E0001AA25D96E000E0001DF
:105AC000AB210ED00001B3510C0D3C0EF326000E9D
:105AD000F422F3500001B125D96EF4500001B22137
