:100000006EEF00F0AA00AA004082DEEF05F0AA0021
:10001000AA00AA00AA00AA004080D8CF2FF0E8CFFB
:1000200030F0E0CF31F0FACF32F0FBCF33F0E9CF50
:1000300034F0EACF35F0E1CF36F0E2CF37F0D9CF68
:1000400038F0DACF39F0F3CF3AF0F4CF3BF0F6CF17
:100050003CF0F7CF3DF0F8CF3EF0F5CF3FF09DB24A
:100060009EA20ED09FB20CD09E92010E00017F275F
:10007000000E80238123822300018D812BEC14F05C
:10008000A3B0A4A007D0A5B005D0A49000018D8393
:1000900071EC14F03FC0F5FF3EC0F8FF3DC0F7FF24
:1000A0003CC0F6FF3BC0F4FF3AC0F3FF39C0DAFFB3
:1000B00038C0D9FF37C0E2FF36C0E1FF35C0EAFFE4
:1000C00034C0E9FF33C0FBFF32C0FAFF31C0E0FFAC
:1000D00030C0E8FF2FC0D8FF40901000F7EF0CF0C1
:1000E0000001D76F310E0001D76501D01200000169
:1000F000D7510008310F0001D66FC2D12E0E00017A
:10010000CD6FD5C0CEF0000EA9EC06F012002E0E79
:100110000001CD6FD5C0CEF0010EA9EC06F01200A3
:100120002E0E0001CD6FD5C0CEF0020EA9EC06F068
:1001300012002E0E0001CD6FD5C0CEF0030EA9EC3B
:1001400006F012002F0E0001CD6FD5C0CEF0030EC9
:10015000A9EC06F012002F0E0001CD6FD5C0CEF035
:10016000020EA9EC06F012002F0E0001CD6FD5C0D3
:10017000CEF0010EA9EC06F012002F0E0001CD6F9B
:10018000D5C0CEF0000EA9EC06F012001F0E000143
:10019000CD6FD5C0CEF0000EA9EC06F012001F0EF8
:1001A0000001CD6FD5C0CEF0010EA9EC06F0120013
:1001B0001F0E0001CD6FD5C0CEF0020EA9EC06F0E7
:1001C00012001F0E0001CD6FD5C0CEF0030EA9ECBA
:1001D00006F01200000E0001CD6FD5C0CEF0030E68
:1001E000A9EC06F01200000E0001CD6FD5C0CEF0D4
:1001F000020EA9EC06F01200000E0001CD6FD5C072
:10020000CEF0010EA9EC06F01200000E0001CD6F39
:10021000D5C0CEF0000EA9EC06F01200010E0001D0
:10022000CD6FD5C0CEF0000EA9EC06F01200010E85
:100230000001CD6FD5C0CEF0010EA9EC06F0120082
:10024000010E0001CD6FD5C0CEF0020EA9EC06F074
:100250001200010E0001CD6FD5C0CEF0030EA9EC47
:1002600006F01200020E0001CD6FD5C0CEF0030ED5
:10027000A9EC06F01200020E0001CD6FD5C0CEF041
:10028000020EA9EC06F01200020E0001CD6FD5C0DF
:10029000CEF0010EA9EC06F01200020E0001CD6FA7
:1002A000D5C0CEF0000EA9EC06F01200030E00013E
:1002B000CD6FD5C0CEF0000EA9EC06F01200030EF3
:1002C0000001CD6FD5C0CEF0010EA9EC06F01200F2
:1002D000030E0001CD6FD5C0CEF0020EA9EC06F0E2
:1002E0001200030E0001CD6FD5C0CEF0030EA9ECB5
:1002F00006F01200040E0001CD6FD5C0CEF0030E43
:10030000A9EC06F01200040E0001CD6FD5C0CEF0AE
:10031000020EA9EC06F01200040E0001CD6FD5C04C
:10032000CEF0010EA9EC06F01200040E0001CD6F14
:10033000D5C0CEF0000EA9EC06F01200050E0001AB
:10034000CD6FD5C0CEF0000EA9EC06F01200050E60
:100350000001CD6FD5C0CEF0010EA9EC06F0120061
:10036000050E0001CD6FD5C0CEF0020EA9EC06F04F
:100370001200050E0001CD6FD5C0CEF0030EA9EC22
:1003800006F01200060E0001CD6FD5C0CEF0030EB0
:10039000A9EC06F01200060E0001CD6FD5C0CEF01C
:1003A000020EA9EC06F01200060E0001CD6FD5C0BA
:1003B000CEF0010EA9EC06F01200060E0001CD6F82
:1003C000D5C0CEF0000EA9EC06F01200070E000119
:1003D000CD6FD5C0CEF0000EA9EC06F01200070ECE
:1003E0000001CD6FD5C0CEF0010EA9EC06F01200D1
:1003F000070E0001CD6FD5C0CEF0020EA9EC06F0BD
:100400001200070E0001CD6FD5C0CEF0030EA9EC8F
:1004100006F01200210E0001CD6FD5C0CEF0030E04
:10042000A9EC06F01200210E0001CD6FD5C0CEF070
:10043000020EA9EC06F01200210E0001CD6FD5C00E
:10044000CEF0010EA9EC06F01200210E0001CD6FD6
:10045000D5C0CEF0000EA9EC06F01200220E00016D
:10046000CD6FD5C0CEF0000EA9EC06F01200220E22
:100470000001CD6FD5C0CEF0010EA9EC06F0120040
:100480000001D651000AD8B439D6010AD8B43FD6F3
:10049000030AD8B445D6010AD8B44BD6070AD8B453
:1004A00051D6010AD8B457D6030AD8B45DD6010A8A
:1004B000D8B463D60F0AD8B469D6010AD8B46FD6B7
:1004C000030AD8B475D6010AD8B47BD6070AD8B4C3
:1004D00081D6010AD8B487D6030AD8B48DD6010ACA
:1004E000D8B493D61F0AD8B499D6010AD8B49FD6E7
:1004F000030AD8B4A5D6010AD8B4ABD6070AD8B433
:10050000B1D6010AD8B4B7D6030AD8B4BDD6010A09
:10051000D8B4C3D60F0AD8B4C9D6010AD8B4CFD636
:10052000030AD8B4D5D6010AD8B4DBD6070AD8B4A2
:10053000E1D6010AD8B4E7D6030AD8B4EDD6010A49
:10054000D8B4F3D63F0AD8B4F9D6010AD8B4FFD646
:10055000030AD8B405D7010AD8B40BD7070AD8B410
:1005600011D7010AD8B417D7030AD8B41DD7010A86
:10057000D8B423D70F0AD8B429D7010AD8B42FD7B3
:10058000030AD8B435D7010AD8B43BD7070AD8B480
:1005900041D7010AD8B447D7030AD8B44DD7010AC6
:1005A000D8B453D71F0AD8B459D7010AD8A4120017
:1005B0005ED7000E0001CE6F000ECD6F000120EE61
:1005C00006F0C951D926CA51DA2201D80AD005004D
:1005D000FA6EDE50FD6EDE50FE6EF850FF6EFA5081
:1005E0001200000120EE0AF0C951D926CA51DA22C0
:1005F00001D812D00500FA6EDE50FD6EDE50FE6EA0
:10060000F850FF6EFA50000120EE01F0C951D926D2
:10061000CA51DA22DF501200000120EE0AF0C9515F
:10062000D926CA51DA2201D80CD00500FA6EDE5064
:10063000FD6EDE50FE6EF850FF6EFA500001CB5199
:100640001200000120EE08F0C951D926CA51DA2261
:1006500001D80AD00500FA6EDE50FD6EDE50FE6E47
:10066000F850FF6EFA501200000120EE06F0C9515A
:10067000D926CA51DA2201D80AD00500FA6EDE5016
:10068000FD6EDE50FE6EF850FF6EFA501200000153
:1006900020EE0AF0C951D926CA51DA2201D816D063
:1006A0000500FA6EDE50FD6EDE50FE6EF850FF6EF5
:1006B000FA50000120EE01F0C951D926CA51DA22C0
:1006C000DF500001CC6F0001CC291200000120EEA8
:1006D0000EF0C951D926CA51DA2201D80BD0050033
:1006E000FA6EDE50FD6EDE50FE6EF850FF6EFA5070
:1006F000000E12000001CC6F0001CC510001CD6F43
:10070000CE6B0001CD51CE6FCD6B000120EE0EF00F
:10071000C951D926CA51DA2201D80BD00500FA6E88
:10072000DE50FD6EDE50FE6EF850FF6EFA50000E89
:1007300012000001CC6F0001CC510001CD1300016B
:1007400020EE08F0C951D926CA51DA2201D80AD0C0
:100750000500FA6EDE50FD6EDE50FE6EF850FF6E44
:10076000FA501200CDC0C9F0CEC0CAF0120000018C
:10077000D0BF0DD0100E0001CF5D270E0001D05963
:10078000D8A005D0270E0001D06F0F0ECF6FCFC0BD
:10079000C5F0D0C0C6F0000E0001C86F0A0EC76FCA
:1007A0008BEC09F00C0E0001C525F66EFF0E000162
:1007B000C621F76E000120EE03F0CD51D926CE51AF
:1007C000DA220800F5CFDFFFCFC0C5F0D0C0C6F0F9
:1007D000000E0001C86F0A0EC76F0DEC07F0C5C010
:1007E000CFF0C6C0D0F0CFC0C5F0D0C0C6F0000E6C
:1007F0000001C86F0A0EC76F8BEC09F00C0E0001E8
:10080000C525F66EFF0E0001C621F76E000120EE31
:1008100002F0CD51D926CE51DA220800F5CFDFFF04
:10082000CFC0C5F0D0C0C6F0000E0001C86F0A0EE0
:10083000C76F0DEC07F0C5C0CFF0C6C0D0F0CFC079
:10084000C5F0D0C0C6F0000E0001C86F0A0EC76F19
:100850008BEC09F00C0E0001C525F66EFF0E0001B1
:10086000C621F76E000120EE01F0CD51D926CE5100
:10087000DA220800F5CFDFFFCFC0C5F0D0C0C6F048
:10088000000E0001C86F0A0EC76F0DEC07F0C5C05F
:10089000CFF0C6C0D0F0CFC0C5F0D0C0C6F0000EBB
:1008A0000001C86F0A0EC76F8BEC09F00C0E000137
:1008B000C525F66EFF0E0001C621F76ECDC0D9FF2B
:1008C000CEC0DAFF0800F5CFDFFF120087C0DEF0F0
:1008D00088C0DFF089C0E0F08AC0E1F0D2C0DAF071
:1008E000D3C0DBF0D4C0DCF0D5C0DDF00001D5AF63
:1008F00040D0D2C0D6F0D3C0D7F0D4C0D8F0D5C045
:10090000D9F00001D61FD71FD81FD91FD62B000E34
:10091000D723D823D923D6C0DAF0D7C0DBF0D8C08C
:10092000DCF0D9C0DDF0010E0001E16F22D0000142
:10093000E02BDAC0C5F0DBC0C6F0DCC0C7F0DDC01C
:10094000C8F00A0E0001C96F000ECA6F000ECB6F0F
:10095000000ECC6FCBEC07F0C5C0DAF0C6C0DBF000
:10096000C7C0DCF0C8C0DDF0030E0001E019D8B448
:100970000DD00001DD510001DC11D9E1100E0001A4
:10098000DA5D270E0001DB59D8B0D1D70001DD5167
:100990000001DC1108E1100E0001DA5D270E0001F4
:1009A000DB59D8A009D00F0E0001DA6F270EDB6FDC
:1009B000000EDC6F000EDD6FDAC0DEF0DBC0DFF0B2
:1009C000DEC0D2F0DFC0D3F0E0C0D4F0E1C0D5F09B
:1009D0001200000120EE06F0C851D926C951DA22D2
:1009E00001D80AD00500FA6EDE50FD6EDE50FE6EB4
:1009F000F850FF6EFA501200000120EE0AF0C851C4
:100A0000D926C951DA2201D812D00500FA6EDE507B
:100A1000FD6EDE50FE6EF850FF6EFA50000120EEC3
:100A200001F0C851D926C951DA22DF501200000165
:100A300020EE0AF0C851D926C951DA2201D80CD0CB
:100A40000500FA6EDE50FD6EDE50FE6EF850FF6E51
:100A5000FA500001CA511200000120EE0AF0C851FC
:100A6000D926C951DA2201D80CD00500FA6EDE5021
:100A7000FD6EDE50FE6EF850FF6EFA500001CC5154
:100A80001200000120EE0AF0C851D926C951DA221D
:100A900001D80CD00500FA6EDE50FD6EDE50FE6E01
:100AA000F850FF6EFA500001CB511200000120EE09
:100AB00008F0C851D926C951DA2201D81200050020
:100AC000FA6EDE50FD6EDE50FE6EF850FF6EFA508C
:100AD0001200D4C0D9FFD5C0DAFFDECFD9F0DDCF08
:100AE000DAF00001D651C3EC0FF0C5C0CAF0C6C0A1
:100AF000CBF0D9C0C8F0DAC0C9F07BEC0DF0C8C0AB
:100B0000CFF0C9C0D0F0000E0001D26F0A0ED16F35
:100B100092EC0FF0CFC0D7F0D0C0D8F00001D65182
:100B2000C3EC0FF0C5C0C8F0C6C0C9F0D7C0CAF04A
:100B3000D8C0CBF0E6EC12F00001C81F0001C91FBD
:100B40000001C84BC92B0001D9510001C825000183
:100B5000D96F0001DA510001C9210001DA6F0001EB
:100B6000D74BD82B0001D85105E10A0E0001D75D03
:100B7000D8A005D0000E0001D86F000ED76F00017D
:100B8000D651C3EC0FF0C5C0C8F0C6C0C9F0D7C07D
:100B9000CAF0D8C0CBF0E6EC12F00001C851000159
:100BA000D9270001C9510001DA23D4C0D9FFD5C02B
:100BB000DAFFD9C0DEFFDAC0DDFF1200FACF21F084
:100BC000FBCF22F0E9CF23F0EACF24F0E1CF25F0EC
:100BD000E2CF26F0D9CF27F0DACF28F0F3CF29F0F3
:100BE000F4CF2AF0F6CF2BF0F7CF2CF0F8CF2DF082
:100BF000F5CF2EF0F2BAF2A402D0F1B400F0F2BCBC
:100C00009DA801D09E50F2BC9DAA01D09E50F2BC7E
:100C10009DA001D09E509DB29EA20ED09FA20CD04E
:100C20009E92010E00017F27000E802381238223E4
:100C300000018D8137EC14F0A3B0A4A007D0A5A0CB
:100C400005D0A49000018D8372EC14F02EC0F5FF46
:100C50002DC0F8FF2CC0F7FF2BC0F6FF2AC0F4FF11
:100C600029C0F3FF28C0DAFF27C0D9FF26C0E2FF62
:100C700025C0E1FF24C0EAFF23C0E9FF22C0FBFF3B
:100C800021C0FAFF4092110000F04BEC14F0F90E75
:100C90000001C56F000E0001C66F29EC08F05BEC87
:100CA00014F094EC13F09F0E0001CD6F000E0001C4
:100CB000CE6FC0EC13F08F0E0001C96F000E000163
:100CC000CA6F010E0001CB6FD9EC02F0C9C0A2F1CE
:100CD000CAC0A3F1000E0001C66F640EC56F66ECBA
:100CE00013F09F0E0001CF6F000E0001D06FFDECDE
:100CF00010F0CFC0A2F1D0C0A3F1FAEC13F0030EB4
:100D0000EEEC0DF0C9C0A2F1CAC0A3F10A0E5CEC72
:100D10000CF03C0E22EC10F093988A8800F0000151
:100D20008DA306D000018D9300F0E0EC08F000F0F8
:100D300000018DA103D000018D9100F050EC10F066
:100D400000018E6F00018E51D8B4E9D73AEC0DF056
:100D5000E6D70001D26F030E0001D26501D0120068
:100D60002F0E0001CD6501D01200CDC0C5F00001ED
:100D7000C66B000E0001C86F080EC76F0DEC07F0C0
:100D80000001D251060DF3500001C5250001D36FBB
:100D90000001CD51070B0001D46F0001CE510001BD
:100DA000D8B41BD0D4C0CFF0010E0001D06F000129
:100DB000CF2B03D00001D890D0370001CF2FFAD726
:100DC0000001D351010D600EF324D96E000EF42002
:100DD000DA6E0001D051DF121200D4C0CFF0010E44
:100DE0000001D06F0001CF2B03D00001D890D03785
:100DF0000001CF2FFAD70001D051FF0A0001D16FB7
:100E00000001D351010D600EF324D96E000EF420C1
:100E1000DA6E0001D151DF161200000E0001CA6F18
:100E20000001C8AF08D00001C76DC81FD8B0C82BDB
:100E3000010E0001CA6F0001C6AF08D00001C56DE8
:100E4000C61FD8B0C62B010E0001CA1B000E000140
:100E5000CC6F000ECB6F0001C7510001C811D8B490
:100E60002CD0010E0001C96F06D00001D890C73701
:100E7000C8370001C92B0001C8AFF7D70001D890CF
:100E8000CB37CC370001C7510001C55D0001C85107
:100E90000001C659D8A00AD00001C7510001C55FA2
:100EA0000001C8510001C65B0001CB810001D89050
:100EB000C833C7330001C92FE1D70001CA5100016F
:100EC000D8B405D00001CB6DCC1FD8B0CC2BCBC093
:100ED000C5F0CCC0C6F01200100E1D18D8A4120028
:100EE0002AD0200E1D6E1BEC13F01200300E1D6E6A
:100EF00035EC13F01200400E1D6EABEC10F012003A
:100F0000500E1D6E1200600E1D6E1200700E1D6ED2
:100F10001200800E1D6E1200900E1D6E1200A00EAB
:100F20001D6E1200B00E1D6E1200C00E1D6E12005E
:100F3000F00E1D6E12001EC0E4F01FC0E5F00001AF
:100F4000E551000AD8A412000001E451060AD8B401
:100F5000E0D7160AD8B4E0D7020AD8B4E9D7360ADF
:100F6000D8B4BFD71C0AD8B4C6D77A0AD8B4BED76B
:100F7000C70AD8B4CBD70F0AD8B4D1D7010AD8B48E
:100F8000D1D7230AD8B4BCD7010AD8B4BCD7150A24
:100F9000D8A41200CAD7000E0001CD6F000ECE6F8C
:100FA000000ECF6F000ED06F0001C9510001CA11B1
:100FB0000001CB110001CC11D8B442D0010E0001C8
:100FC000D16F08D00001D890C937CA37CB37CC379A
:100FD0000001D12B0001CCAFF5D70001D890CD375F
:100FE000CE37CF37D0370001C9510001C55D0001B0
:100FF000CA510001C6590001CB510001C759000177
:10100000CC510001C859D8A012D00001C95100012B
:10101000C55F0001CA510001C65B0001CB51000150
:10102000C75B0001CC510001C85B0001CD8100010C
:10103000D890CC33CB33CA33C9330001D12FCDD7AD
:10104000CDC0C5F0CEC0C6F0CFC0C7F0D0C0C8F08C
:101050001200C5C0C7F0C6C0C8F062EC14F0FC0EA8
:101060000F015F17000120EE05F0C751D926C851C6
:10107000DA22DF500F015C6F000120EE04F0C7514F
:10108000D926C851DA22DF500F015D6F0F015F5181
:10109000FC0B01095F6F000120EE03F0C751D92658
:1010A000C851DA22DF500F015C6F000120EE06F01C
:1010B000C751D926C851DA22DF500F015D6F0F01E9
:1010C0005F51FC0B02095F6F000120EE02F0C75177
:1010D000D926C851DA22DF500F015C6F000120EEE3
:1010E00001F0C751D926C851DA22DF500F015D6FD8
:1010F000030E0F015F13C7C0D9FFC8C0DAFFDF506E
:101100000F015C6F68EC14F012007EEC10F0100E12
:101110000001DE5D270E0001DF59D8A005D0270EA3
:101120000001DF6F0F0EDE6FE30E0001C56F000ED2
:101130000001C66FDCC0C7F0DDC0C8F042EC11F0A2
:10114000E70E0001CD6F000E0001CE6FDEC0CFF0C4
:10115000DFC0D0F0B7EC03F0E30E0001C56F000E66
:101160000001C66F080E0001C76F91EC0EF0030E70
:101170000001E06503D0030E0001E06F0F015FB7CF
:1011800014D00001E0510001E16FE26B040E000198
:10119000E127000EE223E30E0001E125D96E000EE7
:1011A0000001E221DA6E200EDF6EE30E0001D96F3E
:1011B000000E0001DA6FB7EC0DF061EC0FF01200D9
:1011C0000F015FA707D0000E0001D66F010E25ECBE
:1011D0000EF049D085EC11F07BC0E6F0DC0E00018A
:1011E000C56F000E0001C66FE6C0C7F02FEC0FF010
:1011F0007CC0E6F0DE0E0001C56F000E0001C66F78
:10120000E6C0C7F02FEC0FF079C0E6F0E00E000169
:10121000C56F000E0001C66FE6C0C7F02FEC0FF0DF
:101220007AC0E6F0E20E0001C56F000E0001C66F45
:10123000E6C0C7F02FEC0FF0000E0001E46FDC0EEB
:101240000001D96F000E0001DA6FB7EC0DF0010E4E
:101250000001D66F010E25EC0EF0010E0001D66FD5
:10126000050E25EC0EF03C0E22EC10F061EC0FF0B8
:101270001200C5C0D9FFC6C0DAFF050EDF6E00013F
:1012800020EE01F0C551D926C651DA22C7C0DFFFD2
:10129000000120EE02F0C551D926C651DA22830E94
:1012A000DE6E850EDD6E000120EE06F0C551D926FA
:1012B000C651DA22CC0EDE6E230EDD6E000120EE6A
:1012C00008F0C551D926C651DA22460EDE6E240E2C
:1012D000DD6E000120EE0AF0C551D926C651DA2292
:1012E000B60EDE6E1C0EDD6E000120EE0CF0C55158
:1012F000D926C651DA22F60EDE6E1D0EDD6E000115
:1013000020EE0EF0C551D926C651DA22180EDE6E37
:10131000280EDD6E1200000E0001CA6F0001C6AF7C
:1013200008D00001C56DC61FD8B0C62B010E000144
:10133000CA6F0001C8AF05D00001C76DC81FD8B083
:10134000C82B0001C7510001C811D8B426D0010E26
:101350000001C96F06D00001D890C737C837000117
:10136000C92B0001C8AFF7D70001C7510001C55D07
:101370000001C8510001C659D8A008D00001C751CA
:101380000001C55F0001C8510001C65B0001D89093
:10139000C833C7330001C92FE7D70001CA51000184
:1013A000D8B405D00001C56DC61FD8B0C62BC5C0C6
:1013B000C5F0C6C0C6F012000001D56F130E0001C3
:1013C000CD6F0001D551080B0001CE6F000EA9ECC6
:1013D00006F0130E0001CD6F0001D551100B000176
:1013E000CE6F010EA9EC06F0130E0001CD6F0001C7
:1013F000D551200B0001CE6F020EA9EC06F0130EA2
:101400000001CD6F0001D551010B0001CE6F030E1D
:10141000A9EC06F0280E0001CD6F0001D551040B98
:101420000001CE6F010EA9EC06F0280E0001CD6F71
:101430000001D551400B0001CE6F020EA9EC06F061
:10144000280E0001CD6F0001D551020B0001CE6FB7
:10145000030EA9EC06F012000001D56F0E0E00017C
:10146000CD6F0001D551080B0001CE6F000EA9EC25
:1014700006F00E0E0001CD6F0001D551100B0001DA
:10148000CE6F010EA9EC06F00E0E0001CD6F00012B
:10149000D551200B0001CE6F020EA9EC06F00E0E06
:1014A0000001CD6F0001D551010B0001CE6F030E7D
:1014B000A9EC06F00F0E0001CD6F0001D551040B11
:1014C0000001CE6F010EA9EC06F00F0E0001CD6FEA
:1014D0000001D551400B0001CE6F020EA9EC06F0C1
:1014E0000F0E0001CD6F0001D551020B0001CE6F30
:1014F000030EA9EC06F012000001D56F260E0001C4
:10150000CD6F0001D551080B0001CE6F000EA9EC84
:1015100006F0260E0001CD6F0001D551100B000121
:10152000CE6F010EA9EC06F0260E0001CD6F000172
:10153000D551200B0001CE6F020EA9EC06F0260E4D
:101540000001CD6F0001D551010B0001CE6F030EDC
:10155000A9EC06F0270E0001CD6F0001D551040B58
:101560000001CE6F010EA9EC06F0270E0001CD6F31
:101570000001D551400B0001CE6F020EA9EC06F020
:10158000270E0001CD6F0001D551020B0001CE6F77
:10159000030EA9EC06F012000001D56F240E000125
:1015A000CD6F0001D551080B0001CE6F000EA9ECE4
:1015B00006F0240E0001CD6F0001D551100B000183
:1015C000CE6F010EA9EC06F0240E0001CD6F0001D4
:1015D000D551200B0001CE6F020EA9EC06F0240EAF
:1015E0000001CD6F0001D551010B0001CE6F030E3C
:1015F000A9EC06F0250E0001CD6F0001D551040BBA
:101600000001CE6F010EA9EC06F0250E0001CD6F92
:101610000001D551400B0001CE6F020EA9EC06F07F
:10162000250E0001CD6F0001D551020B0001CE6FD8
:10163000030EA9EC06F012000001D56F2B0E00017D
:10164000CD6F0001D551010B0001CE6F000EA9EC4A
:1016500006F02B0E0001CD6F0001D551200B0001CB
:10166000CE6F010EA9EC06F02B0E0001CD6F00012C
:10167000D551100B0001CE6F020EA9EC06F02B0E17
:101680000001CD6F0001D551080B0001CE6F030E94
:10169000A9EC06F02A0E0001CD6F0001D551020B16
:1016A0000001CE6F000EA9EC06F02A0E0001CD6FEE
:1016B0000001D551400B0001CE6F010EA9EC06F0E0
:1016C0002A0E0001CD6F0001D551040B0001CE6F31
:1016D000020EA9EC06F012000001D56F150E0001F4
:1016E000CD6F0001D551010B0001CE6F000EA9ECAA
:1016F00006F0150E0001CD6F0001D551200B000141
:10170000CE6F010EA9EC06F0150E0001CD6F0001A1
:10171000D551100B0001CE6F020EA9EC06F0150E8C
:101720000001CD6F0001D551080B0001CE6F030EF3
:10173000A9EC06F0140E0001CD6F0001D551020B8B
:101740000001CE6F000EA9EC06F0140E0001CD6F63
:101750000001D551400B0001CE6F010EA9EC06F03F
:10176000140E0001CD6F0001D551040B0001CE6FA6
:10177000020EA9EC06F012000001D56F170E000151
:10178000CD6F0001D551010B0001CE6F000EA9EC09
:1017900006F0170E0001CD6F0001D551200B00019E
:1017A000CE6F010EA9EC06F0170E0001CD6F0001FF
:1017B000D551100B0001CE6F020EA9EC06F0170EEA
:1017C0000001CD6F0001D551080B0001CE6F030E53
:1017D000A9EC06F0160E0001CD6F0001D551020BE9
:1017E0000001CE6F000EA9EC06F0160E0001CD6FC1
:1017F0000001D551400B0001CE6F010EA9EC06F09F
:10180000160E0001CD6F0001D551040B0001CE6F03
:10181000020EA9EC06F012000001D56F190E0001AE
:10182000CD6F0001D551010B0001CE6F000EA9EC68
:1018300006F0190E0001CD6F0001D551200B0001FB
:10184000CE6F010EA9EC06F0190E0001CD6F00015C
:10185000D551100B0001CE6F020EA9EC06F0190E47
:101860000001CD6F0001D551080B0001CE6F030EB2
:10187000A9EC06F0180E0001CD6F0001D551020B46
:101880000001CE6F000EA9EC06F0180E0001CD6F1E
:101890000001D551400B0001CE6F010EA9EC06F0FE
:1018A000180E0001CD6F0001D551040B0001CE6F61
:1018B000020EA9EC06F012000001E26F20EEF0F03B
:1018C00010EEDCF0050EDBCFE3FFE806FCE2000ED5
:1018D0004EEC13F0ED0E0001D96FFF0E0001DA6F30
:1018E00020EC11F0010E7AEC12F0E2C0E3F00001FE
:1018F000E3510001D8A429D0010E0001E36F25D0E7
:10190000DD0E0001C56F000E0001C66F0001E3058A
:101910000001C76F2FEC0FF0000E0001E06FDC0E2E
:101920000001D96F000E0001DA6F64EC11F03C0E7B
:1019300022EC10F061EC0FF0030E0001C66FE80E10
:10194000C56F66EC13F00001E3070001E3510001ED
:10195000D8B41200D5D70001D76F0001D651F3ECEF
:101960000FF00001D86F28D00001D8510CEC0CF01A
:1019700012000001D851BCEC0BF012000001D8514C
:101980006CEC0BF012000001D8511CEC0BF01200B3
:101990000001D851CCEC0AF012000001D8517CECC7
:1019A0000AF012000001D8512CEC0AF012000001DC
:1019B000D851DCEC09F012000001D751000AD8B46C
:1019C000D3D7010AD8B4D5D7030AD8B4D7D7010AD8
:1019D000D8B4D9D7070AD8B4DBD7010AD8B4DDD731
:1019E000030AD8B4DFD7010AD8A41200E0D7860EC4
:1019F000F66E280EF76E000EF86E00EEF0F010EEA8
:101A000010F00900F5CFEEFFE550E150FAE104EEE9
:101A100000F011EE00F0EE6AE550E150FCE1E2501A
:101A2000FAE103EE00F011EE00F0EE6AE550E1504D
:101A3000FCE1E250FAE102EE00F0A20EEE6AE806E6
:101A4000FDE101EE00F0A20EEE6AE806FDE100EE17
:101A500060F0650EEE6AE806FDE100EE01F0200E92
:101A6000EE6AE806FDE140904092000EF86E00013B
:101A700044EF06F0070E0001CE6FD00ECD6FEF0ED3
:101A80000001CF6F000E0001D06FA6EC11F0CDC0A9
:101A9000EDF0CEC0EEF0D00E0001ED5D070E0001BE
:101AA000EE59D8A010D0040E0001EF19D8A403D02D
:101AB00070EC14F01DD0050E00018E19D8A418D0BA
:101AC0006CEC07F015D000018E05D8A403D005EC0E
:101AD00012F00ED0020E00018E19D8A403D001EC32
:101AE00013F006D0040E00018E19D8B4ABEC13F03D
:101AF000E8EC13F01200000E0001CE6F000ECD6F67
:101B00000001CA510001CB11D8B42CD0010E000144
:101B1000CC6F06D00001D890CA37CB370001CC2B50
:101B20000001CBAFF7D70001D890CD37CE370001F9
:101B3000CA510001C85D0001CB510001C959D8A0AC
:101B40000AD00001CA510001C85F0001CB51000159
:101B5000C95B0001CD810001D890CB33CA330001AD
:101B6000CC2FE1D7CDC0C8F0CEC0C9F01200000E16
:101B70000001DB6F1BD0D9C0F6FFDAC0F7FFF86AAF
:101B80000F0EF76403D00800F55005D0F6CFE9FF3B
:101B9000F7CFEAFFEF500001D66F0001DB51ABEC4D
:101BA0000CF00001D94BDA2B0001DB2BD9C0F6FF7A
:101BB000DAC0F7FFF86A0F0EF76403D00800F5509B
:101BC00005D0F6CFE9FFF7CFEAFFEF500009D8B410
:101BD0001200070E0001DB65CED712000001CC6FAA
:101BE000000E0001CE6F000ECD6FC280CCC0CBF0D6
:101BF0000001CB47CB47C2500001CB19C30BCB1917
:101C0000C26E000E0001C66F020EC56F5EEC12F0D0
:101C1000C28201D000F0C2B2FDD7C4CFCDF0000126
:101C2000CE6B0001CD51CE6FCD6BC3500001CD13F3
:101C3000000E0001C66F020EC56F5EEC12F0C2907E
:101C4000CDC0C9F0CEC0CAF012000001D76F1ED0BF
:101C50000001D651CBEC12F012000001D651B0ECCD
:101C600012F012000001D65195EC12F012000001A2
:101C7000D651CBEC12F012000001D651B0EC12F0AC
:101C800012000001D65195EC12F012000001D7515C
:101C9000000AD8B4DDD7010AD8B4DFD7030AD8B414
:101CA000E1D7060AD8B4E3D7010AD8B4E5D7030AC6
:101CB000D8A41200E6D70001C66F949694988B962C
:101CC000000E0001C76F070E0001C76501D026D0C6
:101CD0000001C6AF02D08B8801D08B988B8600F0B4
:101CE00000F000F000F000F000F000F000F000F074
:101CF00000F000F000F08B9600F000F000F000F033
:101D000000F000F000F000F000F000F000F000F053
:101D10000001D890C6370001C72BD5D7FBEC0EF0D9
:101D20001200000E0001C86F1DD00001C851010D46
:101D3000F3500001C525D96EF4500001C621DA6EBA
:101D4000DF50D8A40DD00001C851010DF35000019F
:101D5000C525D96EF4500001C621DA6E200EDF6E63
:101D60000001C82B0001C7510001C85DD8A0DDD714
:101D70000001C851010DF3500001C525D96EF45082
:101D80000001C621DA6E000EDF6E1200000E0001A7
:101D9000C56F94969488000E0001C66F070E00016F
:101DA000C66501D024D00001D890C5378B9600F0CD
:101DB00000F000F000F000F000F000F000F000F0A3
:101DC00000F000F000F08B8600F000F000F000F072
:101DD00000F000F000F000F000F000F000F000F083
:101DE00082A802D00001C5810001C62BD7D78B96EF
:101DF0000001C5511200C80E0001C56F9496948869
:101E00008B9600F000F000F000F000F000F000F021
:101E100000F000F000F000F000F08B8600F000F021
:101E200000F000F000F000F000F000F000F000F032
:101E300000F000F002D082A806D00001C507000122
:101E4000C529D8A4F8D70001C5510001D8A404D0F1
:101E500023EC12F0000E12008B96010E1200C7C088
:101E6000C8F00001C83B0F0EC8170F0E0001C817BD
:101E70000001C851010D0C0EF324F66EFF0EF42084
:101E8000F76EC5C0D9FFC6C0DAFF0800F5CFDFFF87
:101E9000C7C0C8F00F0E0001C8170001C851010DDE
:101EA0000C0EF324F66EFF0EF420F76E000120EE08
:101EB00001F0C551D926C651DA220800F5CFDFFF5F
:101EC000120060C0BBFF61C0BCFF62C0BDFF63C049
:101ED000BEFF64C0BFFF65C06BFF66C06CFF67C01C
:101EE0006DFF68C06EFF69C06FFF6AC070FF6BC096
:101EF00071FF6CC072FF6DC073FF6EC074FF6FC066
:101F000075FF70C076FF71C077FF72C078FF73C035
:101F100079FF74C07AFF75C07BFF76C07CFF77C005
:101F20007DFF12000001D1510001D211D8B426D09A
:101F3000010E0001D36F06D00001D890D137D237FF
:101F40000001D32B0001D2AFF7D70001D15100011E
:101F5000CF5D0001D2510001D059D8A008D00001B6
:101F6000D1510001CF5F0001D2510001D05B0001CF
:101F7000D890D233D1330001D32FE7D7CFC0CFF0E1
:101F8000D0C0D0F012000001C76F1ED0000E0001BB
:101F9000C66F010EC56F1200000E0001C66F0A0E5B
:101FA000C56F1200000E0001C66F640EC56F1200EF
:101FB000030E0001C66FE80EC56F1200270E000168
:101FC000C66F100EC56F12000001C751000AD8B4C9
:101FD000DDD7020AD8B4E0D7010AD8B4E3D7070A9C
:101FE000D8B4E6D7EBD70001C56F000E0001C76F6C
:101FF000280E0001C76501D012D00001C751010DA4
:10200000BB0EF324F66EFE0EF420F76E0800F550BA
:102010000001C519D8B403D00001C72BE9D7290E98
:102020000001C7610CD00001C751010DE40EF3247B
:10203000F66EFE0EF420F76E0800F5CFC6F0000134
:10204000C65112000001D86F620E0001D86503D09E
:10205000630E0001D86F0001D890D833000E000144
:10206000D96F09D0010E0001D56F0001D95170EC74
:1020700000F00001D92B0001D8510001D95DD8A092
:10208000F1D7310E0001D96501D01200000E000118
:10209000D56F0001D95170EC00F00001D92BF1D7B8
:1020A000000E0001CB6F0001CC690E0E931281501F
:1020B0000E0B0001CC6F0001CC510E0B0E0AD8B4F0
:1020C0001AD0000E0001CA6F0A0EC96FD5EC13F0CA
:1020D00081500E0B0001CC6F0001CCB702D0000183
:1020E000CB810001CCB502D00001CB830001CCB381
:1020F00002D00001CB850001CB511200E40E00019B
:10210000D96FFF0E0001DA6FB7EC0DF0000E000181
:10211000D66F000E25EC0EF0000E0001D66F010EFA
:1021200025EC0EF0000E0001D66F020E25EC0EF02D
:10213000000E0001D66F040E25EC0EF0000E00011B
:10214000D66F050E25EC0EF0000E0001D66F060EC0
:1021500025EC0EF01200000E0001E26FF40E0001FB
:10216000E36F000120EE10F0E251D926E351DA22AC
:10217000DECF0CF0DECF0DF0DECF0EF0DECF0FF0B5
:102180000CC0D2F00DC0D3F00EC0D4F00FC0D5F00B
:1021900066EC04F0D2C00CF0D3C00DF0D4C00EF049
:1021A000D5C00FF0000E206E12000001C56F94968E
:1021B00094988B960001C5510001D8B402D08B8849
:1021C00001D08B9800F000F000F000F000F000F07B
:1021D00000F000F000F000F000F000F08B8600F05E
:1021E00000F000F000F000F000F000F000F000F06F
:1021F00000F000F000F08B961200CFC0C9F0D0C004
:10220000CAF0000E0001CB6FD9EC02F0C9C0D2F0C9
:10221000CAC0D3F0CFC0D9FFD0C0DAFF030EDF6051
:102220000AD00001D23BD33B0F0ED217D351F00B93
:10223000D2130F0ED317D2C0CFF0D3C0D0F01200FC
:10224000000E0001DB6F10D0D9C0F6FFDAC0F7FF37
:102250000800F5CFD6F00001DB51ABEC0CF000012B
:10226000D94BDA2B0001DB2BD9C0F6FFDAC0F7FF20
:102270000800F5500009D8B41200030E0001DB6518
:10228000E3D7120011D0C7C0F6FFC8C0F7FFC5C022
:10229000D9FFC6C0DAFF0800F5CFDFFF0001C74B4A
:1022A000C82B0001C54BC62BC7C0F6FFC8C0F7FF3F
:1022B0000800F5500009D8A4E6D7C5C0D9FFC6C0AC
:1022C000DAFF000EDF6E1200000E0001DB6F11D08E
:1022D000D9C0D9FFDAC0DAFFDF500001D66F0001A4
:1022E000DB51040FABEC0CF00001D94BDA2B0001F1
:1022F000DB2BD9C0D9FFDAC0DAFFDF50D8B4120027
:10230000030E0001DB65E4D71200030E0F015F131B
:102310005CCF78F05DCFC5F00F015F51FC0B020977
:102320005F6F5CCF7AF05DCF79F00F015F51FC0BEE
:1023300001095F6F5CCF7BF05DCF7EF0FC0E0F017B
:102340005F175CCF7DF05DCF7CF01200000E136E46
:10235000000E126E09D050EC10F00001D16F000198
:10236000D1510001D8B408D00001CD51125C000158
:10237000CE511358D8A0EFD7CFC0D9FFD0C0DAFFC5
:10238000D1C0DFFF12C0CDF013C0CEF012000F019C
:1023900054950F0154830F015F950F015A690F0186
:1023A0005B8F0F015B8D0F015B955B975B995B9B6F
:1023B00000F062EC14F00F015F8F68EC14F000F095
:1023C000A580A490A380CD8600F0120094969498E6
:1023D0008B888B8600F000F000F000F000F000F039
:1023E00000F000F000F000F000F000F08B9800F03A
:1023F00000F000F000F000F000F000F000F000F05D
:1024000000F000F000F08B9612000FD0200E0001BB
:10241000C56F000E0001C66F000E0001C76F030EEE
:102420000001C86F41EC12F012001D50000AD8B430
:102430001200010AD8B41200030AD8B41200120A1A
:10244000D8A41200E3D7949694988B9800F000F0EB
:1024500000F000F000F000F000F000F000F000F0FC
:1024600000F000F08B8600F000F000F000F000F0CB
:1024700000F000F000F000F000F000F000F08B88B9
:102480001200C5C0D9FFC6C0DAFFDF500001C96F16
:102490000001C8510001C75DD8A012000001C92B7E
:1024A0000001C9510001C85DD8A0C7C0C9F0C5C0AE
:1024B000D9FFC6C0DAFFC9C0DFFF1200000E00015D
:1024C000C86F000EC76F0BD000F000F000F000F0F6
:1024D00000F000F000F000F00001C74BC82B000135
:1024E000C5510001C75D0001C6510001C859D8B0EF
:1024F0001200EAD70001D56F0001D5510001D8B410
:102500000AD00D0E0001CD6F010E0001CE6F020E3C
:10251000A9EC06F012000D0E0001CD6F000E0001B7
:10252000CE6F020EA9EC06F012000001D56F00017B
:10253000D5510001D8B40AD0140E0001CD6F800E21
:102540000001CE6F030EA9EC06F01200140E00017C
:10255000CD6F000E0001CE6F030EA9EC06F0120045
:102560000001D56F0001D5510001D8B40AD0160E74
:102570000001CD6F800E0001CE6F030EA9EC06F0B6
:102580001200160E0001CD6F000E0001CE6F030E7B
:10259000A9EC06F012000001D56F0001D551000131
:1025A000D8B40AD0180E0001CD6F800E0001CE6F96
:1025B000030EA9EC06F01200180E0001CD6F000EFC
:1025C0000001CE6F030EA9EC06F012000001C85105
:1025D0000001CA03F3CFCCF0F4CFCDF00001C85115
:1025E0000001CB03F3500001CD270001C9510001C8
:1025F000CA03F3500001CD27CCC0C8F0CDC0C9F04C
:1026000012000BD01E0E0001D46F000E0001D56F1A
:1026100020C0D6F069EC05F012001D50000AD8B4B5
:102620001200010AD8B41200030AD8B41200120A28
:10263000D8A41200E7D7000E0001C76FF40E000106
:10264000C86F000120EE06F0C751D926C851DA2222
:10265000DECFC5F0DDCFC6F0C5C00CF0C6C00DF0B2
:102660000E6A0F6A000E206E1200000E0001C66F87
:10267000F40E0001C76F000120EE04F0C651D92608
:10268000C751DA22DF500001C56F0001C5510C6E41
:102690000D6A0E6A0F6A000E206E12000001C56FEF
:1026A000000E0001C66F170E0001C66501D01200B2
:1026B0000001C651010D600EF324D96E000EF42006
:1026C000DA6EC5C0DFFF0001C62BEDD7000E116E1C
:1026D000000E106E010E186E01D000F00001C55101
:1026E000105C0001C6511158D8A0F7D7000E186E23
:1026F000000E116E000E106E12003F0ED26EAA9EDA
:10270000AA9CAA96AA84AA92AA90A968E00EB66E7C
:10271000F80EB76EC30EB86EFE0EB96ECF0EBA6E5F
:10272000000E4EEC13F012009F0E0001C56F000E5C
:102730000001C66F900E0001C76F39EC09F08F0ED3
:102740000001C56F000E0001C66F920E0001C76F39
:1027500039EC09F0120009D0000E1F6E000E1E6E3B
:10276000000E206E100E1D6E12001D50000AD8B40F
:10277000F3D7010AD8B4F0D7030AD8A41200ECD7D3
:10278000CDC0C8F0CEC0C9F0010E0001CA6F000173
:1027900020EE02F0CD51D926CE51DA22DECFCBF099
:1027A000DDCFCCF0E9EC04F012000BD0030E0001F9
:1027B000C66FE80EC56F5EEC12F00001C907D8A025
:1027C000CA070001C9510001CA11D8B41200EED7DE
:1027D00003D01CEC14F012001D50000AD8B41200F3
:1027E000010AD8B41200030AD8B41200120AD8A4FD
:1027F0001200EFD70D0EC16EC08EC086C088C08A91
:10280000C080C082C084C28EC250C30B0C09C26E8D
:102810009E9C9D9C9F9C12000001C76F000E0001B2
:10282000C86FC6EC0EF00001C86F0001C751D5ECAF
:1028300010F00001C8511200F20E0001DC6FFF0E13
:102840000001DD6F1EC0DEF01FC0DFF020C0E0F031
:1028500085EC08F012001850D8B404D00A0E1026E7
:10286000000E11220A0E1226000E1322120018501A
:10287000D8B404D00A0E1026000E11220A0E122619
:10288000000E132212002D30302D000000F400172E
:1028900007312355550253EC14F0C7EC11F0F28CBC
:1028A000F28ED09E12006C0ECB6E9F829E929D8205
:1028B0007F0ECA6E12007DEC13F06EEC14F08F0EDA
:1028C000A86E1200550EA76EAA0EA76E5F8B12009F
:1028D000550EA76EAA0EA76E5F9B12009888120075
:1028E000120012001200AA00AA00AA00AA00AA0060
:1028F000AA00AA00AA00AA00AA00AA00AA00AA0088
:10290000AA00AA00AA00AA00AA00AA00AA00AA0077
:10291000AA00AA00AA00AA00AA00AA00AA00AA0067
:10292000AA00AA00AA00AA00AA00AA00AA00AA0057
:10FCB000AA00AA00AA00AA00AA000000C0C101C3AD
:10FCC0000302C2C60607C705C5C404CC0C0DCD0F80
:10FCD000CFCE0E0ACACB0BC90908C8D81819D91B30
:10FCE000DBDA1A1EDEDF1FDD1D1CDC14D4D515D7B0
:10FCF0001716D6D21213D311D1D010F03031F13300
:10FD0000F3F23236F6F737F53534F43CFCFD3DFFBF
:10FD10003F3EFEFA3A3BFB39F9F83828E8E929EB8F
:10FD20002B2AEAEE2E2FEF2DEDEC2CE42425E527EF
:10FD3000E7E62622E2E323E12120E0A06061A1635F
:10FD4000A3A26266A6A767A56564A46CACAD6DAFFF
:10FD50006F6EAEAA6A6BAB69A9A86878B8B979BBAF
:10FD60007B7ABABE7E7FBF7DBDBC7CB47475B5772F
:10FD7000B7B67672B2B373B17170B05090915193BF
:10FD800053529296565797559594549C5C5D9D5F3F
:10FD90009F9E5E5A9A9B5B99595898884849894B0F
:10FDA0008B8A4A4E8E8F4F8D4D4C8C44848545876F
:10FDB000474686824243834181804000C1814001A1
:10FDC000C0804101C0804100C1814001C08041002C
:10FDD000C1814000C1814001C0804101C08041001B
:10FDE000C1814000C1814001C0804100C18140010A
:10FDF000C0804101C0804100C1814001C0804100FC
:10FE0000C1814000C1814001C0804100C1814001E9
:10FE1000C0804101C0804100C1814000C1814001DA
:10FE2000C0804101C0804100C1814001C0804100CB
:10FE3000C1814000C1814001C0804101C0804100BA
:10FE4000C1814000C1814001C0804100C1814001A9
:10FE5000C0804101C0804100C1814000C18140019A
:10FE6000C0804101C0804100C1814001C08041008B
:10FE7000C1814000C1814001C0804100C181400179
:10FE8000C0804101C0804100C1814001C08041006B
:10FE9000C1814000C1814001C0804101C08041005A
:10FEA000C1814000C1814001C0804100C181400149
:10FEB000C0804101C0804100C181403031323334C3
:10FEC00035363738396162636465666768696A6BBD
:10FED0006C6D6E6F707172737475767778797A2E37
:10FEE0002D3A20003F065B4F666D7D077F6F777C64
:10FEF000395E79716F76060E7A3800375C73675019
:10FF00006D783E0000006E5B404048003031323377
:10FF10003435363738396162636465660000000045
:10FF200000005FE803102700008813000038FFFF7F
:10FF3000FF000000000000000000000000000000C2
:10FF400000000000000000000000000000000000B1
:10FF500000000000000000000000000000000000A1
:10FF600000000000000000000000000000281E1437
:10FF70000A0000000000000000E8030000E80300A1
:10FF8000000000000000000000E8030000E803009B
:10FF90000000000000E803000000000000E803008B
:10FFA00000000030313233343536373839303132B1
:10FFB00033343536373839303132333435363738F3
:10FFC00039303132333435363738393031323334F1
:10FFD00035363738393031323334353637383930D1
:10FFE000313233002020202020202020006373366F
:08FFF00036002070736400006C
:06FFF80080F414FFF2F199
:00000001FF
