:100000003EEF00F0AA00AA0018EF38F0AA00AA00FC
:10001000AA00AA00AA00AA00D8CF03F0E8CF04F0F3
:10002000E0CF05F0E1CF06F0E2CF07F01CEE38F0AC
:100030009DB29EA20ED09FB20CD09E92010E0101E5
:100040003A27000E3B233C233D230001E58126ECAB
:1000500044F0A3B0A4A007D0A5B005D0A49000019F
:10006000E58353EC45F007C0E2FF06C0E1FF05C0A1
:10007000E0FF04C0E8FF03C0D8FF100016EE00F058
:10008000A4EF2FF010C208F011C209F012C20AF05A
:1000900013C20BF0010E7BEC1EF008C0B6F309C0D2
:1000A000B7F30AC0B8F30BC0B9F314C208F015C215
:1000B00009F016C20AF017C20BF0010E7BEC1EF01D
:1000C00008C0BAF309C0BBF30AC0BCF30BC0BDF350
:1000D000ABC008F0ACC009F0ADC00AF0AEC00BF088
:1000E000010E7BEC1EF008C0C2F309C0C3F30AC0C6
:1000F000C4F30BC0C5F30CC208F00DC209F00EC268
:100100000AF00FC20BF0000E7BEC1EF008C0BEF32D
:1001100009C0BFF30AC0C0F30BC0C1F3C2C37DF076
:10012000C3C37EF0C4C37FF0C5C380F0000E336E3E
:10013000000E346E800E356E400E366EBEC32FF04C
:10014000BFC330F0C0C331F0C1C332F015EC0FF0C3
:100150002FC081F030C082F031C083F032C084F013
:1001600085EC19F00001D8B06FD0000E1A6E000EA9
:100170001B6E000E1C6E400E1D6EC2C316F0C3C374
:1001800017F0C4C318F0C5C319F0C7EC0BF016C0C4
:100190002FF017C030F018C031F019C032F0BEC3D4
:1001A00033F0BFC334F0C0C335F0C1C336F015EC33
:1001B0000FF02FC0C2F330C0C3F331C0C4F332C05C
:1001C000C5F3170E0001896FEF0E00018A6FC2C3DD
:1001D0008BF0C3C38CF0C4C38DF0C5C38EF0000E8A
:1001E0000001906F650E8F6FBFEC05F089C0C2F300
:1001F0008AC0C3F38BC0C4F38CC0C5F314C208F02B
:1002000015C209F016C20AF017C20BF0010E7BEC02
:100210001EF008C0BAF309C0BBF30AC0BCF30BC0A0
:10022000BDF3BAC37DF0BBC37EF0BCC37FF0BDC3DA
:1002300080F08BEC25F07DC0ABF07EC0ACF07FC0D1
:10024000ADF080C0AEF01200C2C37DF0C3C37EF03B
:10025000C4C37FF0C5C380F008C208F009C209F02A
:100260000AC20AF00BC20BF0010E7BEC1EF008C0B4
:1002700071F009C072F00AC073F00BC074F0000E88
:10028000336E000E346E800E356E400E366EBEC379
:100290002FF0BFC330F0C0C331F0C1C332F015EC52
:1002A0000FF02FC06DF030C06EF031C06FF032C073
:1002B00070F0D1EC07F06DC081F06EC082F06FC0BD
:1002C00083F070C084F085EC19F00001D8B0ACD098
:1002D000000E336E000E346E800E356E400E366E9C
:1002E000BEC32FF0BFC330F0C0C331F0C1C332F082
:1002F00015EC0FF02FC03BF030C03CF031C03DF0AA
:1003000032C03EF036EC42F03BC06DF03CC06EF0C7
:100310003DC06FF03EC070F0C2C371F0C3C372F055
:10032000C4C373F0C5C374F0D1EC07F06DC0C2F361
:100330006EC0C3F36FC0C4F370C0C5F308C208F049
:1003400009C209F00AC20AF00BC20BF0010E7BECE5
:100350001EF008C033F009C034F00AC035F00BC0FD
:1003600036F0C2C32FF0C3C330F0C4C331F0C5C3ED
:1003700032F015EC0FF02FC016F030C017F031C07E
:1003800018F032C019F0BAC31AF0BBC31BF0BCC3DB
:100390001CF0BDC31DF0C7EC0BF016C0BAF317C0BC
:1003A000BBF318C0BCF319C0BDF3B6C32FF0B7C37D
:1003B00030F0B8C331F0B9C332F0000E336E000E26
:1003C000346E000E356E400E366E15EC0FF02FC0F9
:1003D000B6F330C0B7F331C0B8F332C0B9F3BAC323
:1003E00071F0BBC372F0BCC373F0BDC374F0B6C38D
:1003F0006DF0B7C36EF0B8C36FF0B9C370F0D1EC55
:1004000007F06DC07DF06EC07EF06FC07FF070C0F1
:1004100080F08BEC25F07DC0ABF07EC0ACF07FC0EF
:10042000ADF080C0AEF01200000E336E000E346EE0
:10043000000E356E400E366EBEC32FF0BFC330F0D7
:10044000C0C331F0C1C332F015EC0FF02FC071F012
:1004500030C072F031C073F032C074F008C208F0DE
:1004600009C209F00AC20AF00BC20BF0010E7BECC4
:100470001EF008C06DF009C06EF00AC06FF00BC02E
:1004800070F0D1EC07F06DC07DF06EC07EF06FC0F3
:100490007FF070C080F0C2C381F0C3C382F0C4C3D8
:1004A00083F0C5C384F085EC19F00001D8B037D0D3
:1004B00008C208F009C209F00AC20AF00BC20BF028
:1004C000010E7BEC1EF008C06DF009C06EF00AC092
:1004D0006FF00BC070F0000E336E000E346E000E25
:1004E000356E400E366EBEC32FF0BFC330F0C0C3B2
:1004F00031F0C1C332F015EC0FF02FC071F030C0F5
:1005000072F031C073F032C074F0D1EC07F06DC0FE
:10051000C2F36EC0C3F36FC0C4F370C0C5F308C2AA
:1005200008F009C209F00AC20AF00BC20BF0010E72
:100530007BEC1EF008C071F009C072F00AC073F0C5
:100540000BC074F0000E336E000E346E800E356EEC
:10055000400E366EBEC32FF0BFC330F0C0C331F0C3
:10056000C1C332F015EC0FF02FC06DF030C06EF04B
:1005700031C06FF032C070F0D1EC07F06DC03BF0CD
:100580006EC03CF06FC03DF070C03EF036EC42F003
:100590003BC0B2F33CC0B3F33DC0B4F33EC0B5F3CF
:1005A000B2C36DF0B3C36EF0B4C36FF0B5C370F0F7
:1005B000C2C371F0C3C372F0C4C373F0C5C374F097
:1005C000D1EC07F06DC0C2F36EC0C3F36FC0C4F3CB
:1005D00070C0C5F3000E1A6E000E1B6E000E1C6E6E
:1005E000400E1D6EC2C316F0C3C317F0C4C318F08B
:1005F000C5C319F0C7EC0BF016C02FF017C030F0D0
:1006000018C031F019C032F0BEC333F0BFC334F0AC
:10061000C0C335F0C1C336F015EC0FF02FC0C2F3E4
:1006200030C0C3F331C0C4F332C0C5F3C2C33BF022
:10063000C3C33CF0C4C33DF0C5C33EF036EC42F04A
:100640003BC06DF03CC06EF03DC06FF03EC070F03E
:10065000000E0001716F000E726F000E736F3F0E7F
:10066000746FD1EC07F06DC0C2F36EC0C3F36FC0FE
:10067000C4F370C0C5F3000E0001716F000E726FFD
:10068000000E736F3F0E746FC2C36DF0C3C36EF084
:10069000C4C36FF0C5C370F0D1EC07F06DC016F0A5
:1006A0006EC017F06FC018F070C019F0BAC31AF01E
:1006B000BBC31BF0BCC31CF0BDC31DF0C7EC0BF0EB
:1006C00016C0BAF317C0BBF318C0BCF319C0BDF312
:1006D000BAC371F0BBC372F0BCC373F0BDC374F096
:1006E000B6C36DF0B7C36EF0B8C36FF0B9C370F0A6
:1006F000D1EC07F06DC07DF06EC07EF06FC07FF072
:1007000070C080F08BEC25F07DC0ABF07EC0ACF00B
:100710007FC0ADF080C0AEF012001A6E310E1A64C8
:1007200001D012001A500008310F196E90D12E0E10
:10073000106E18C011F0000E5CEC32F012002E0E9C
:10074000106E18C011F0010E5CEC32F012002E0E8B
:10075000106E18C011F0020E5CEC32F012002E0E7A
:10076000106E18C011F0030E5CEC32F012002F0E68
:10077000106E18C011F0030E5CEC32F012002F0E58
:10078000106E18C011F0020E5CEC32F012002F0E49
:10079000106E18C011F0010E5CEC32F012002F0E3A
:1007A000106E18C011F0000E5CEC32F012001F0E3B
:1007B000106E18C011F0000E5CEC32F012001F0E2B
:1007C000106E18C011F0010E5CEC32F012001F0E1A
:1007D000106E18C011F0020E5CEC32F012001F0E09
:1007E000106E18C011F0030E5CEC32F01200000E17
:1007F000106E18C011F0030E5CEC32F01200000E07
:10080000106E18C011F0020E5CEC32F01200000EF7
:10081000106E18C011F0010E5CEC32F01200000EE8
:10082000106E18C011F0000E5CEC32F01200010ED8
:10083000106E18C011F0000E5CEC32F01200010EC8
:10084000106E18C011F0010E5CEC32F01200010EB7
:10085000106E18C011F0020E5CEC32F01200010EA6
:10086000106E18C011F0030E5CEC32F01200020E94
:10087000106E18C011F0030E5CEC32F01200020E84
:10088000106E18C011F0020E5CEC32F01200020E75
:10089000106E18C011F0010E5CEC32F01200020E66
:1008A000106E18C011F0000E5CEC32F01200030E56
:1008B000106E18C011F0000E5CEC32F01200030E46
:1008C000106E18C011F0010E5CEC32F01200030E35
:1008D000106E18C011F0020E5CEC32F01200030E24
:1008E000106E18C011F0030E5CEC32F01200040E12
:1008F000106E18C011F0030E5CEC32F01200040E02
:10090000106E18C011F0020E5CEC32F01200040EF2
:10091000106E18C011F0010E5CEC32F01200040EE3
:10092000106E18C011F0000E5CEC32F01200050ED3
:10093000106E18C011F0000E5CEC32F01200050EC3
:10094000106E18C011F0010E5CEC32F01200050EB2
:10095000106E18C011F0020E5CEC32F01200050EA1
:10096000106E18C011F0030E5CEC32F01200060E8F
:10097000106E18C011F0030E5CEC32F01200060E7F
:10098000106E18C011F0020E5CEC32F01200060E70
:10099000106E18C011F0010E5CEC32F01200060E61
:1009A000106E18C011F0000E5CEC32F01200070E51
:1009B000106E18C011F0000E5CEC32F01200070E41
:1009C000106E18C011F0010E5CEC32F01200070E30
:1009D000106E18C011F0020E5CEC32F01200070E1F
:1009E000106E18C011F0030E5CEC32F01200210EF4
:1009F000106E18C011F0030E5CEC32F01200210EE4
:100A0000106E18C011F0020E5CEC32F01200210ED4
:100A1000106E18C011F0010E5CEC32F01200210EC5
:100A2000106E18C011F0000E5CEC32F01200220EB5
:100A3000106E18C011F0000E5CEC32F01200220EA5
:100A4000106E18C011F0010E5CEC32F0120019505B
:100A5000000AD8B46CD6010AD8B471D6030AD8B447
:100A600076D6010AD8B47BD6070AD8B480D6010A54
:100A7000D8B485D6030AD8B48AD6010AD8B48FD69A
:100A80000F0AD8B494D6010AD8B499D6030AD8B4B8
:100A90009ED6010AD8B4A3D6070AD8B4A8D6010AAC
:100AA000D8B4ADD6030AD8B4B2D6010AD8B4B7D6F2
:100AB0001F0AD8B4BCD6010AD8B4C1D6030AD8B428
:100AC000C6D6010AD8B4CBD6070AD8B4D0D6010A04
:100AD000D8B4D5D6030AD8B4DAD6010AD8B4DFD64A
:100AE0000F0AD8B4E4D6010AD8B4E9D6030AD8B4B8
:100AF000EED6010AD8B4F3D6070AD8B4F8D6010A5C
:100B0000D8B4FDD6030AD8B402D7010AD8B407D79F
:100B10003F0AD8B40CD7010AD8B411D7030AD8B405
:100B200016D7010AD8B41BD7070AD8B420D7010AB0
:100B3000D8B425D7030AD8B42AD7010AD8B42FD7F6
:100B40000F0AD8B434D7010AD8B439D7030AD8B4B5
:100B50003ED7010AD8B443D7070AD8B448D7010A08
:100B6000D8B44DD7030AD8B452D7010AD8B457D74E
:100B70001F0AD8B45CD7010AD8A4120060D7000EAF
:100B80000001AA6F000EA96FD0D0A9C091F0AAC031
:100B900092F00001D890913792370001D8909137A8
:100BA000923789C093F08AC094F0000191510001FE
:100BB0009327000192510001942393C0F6FF94C043
:100BC000F7FF0900F5CF7DF00900F5CF7EF00900B1
:100BD000F5CF7FF00A00F5CF80F0A9C095F0AAC04C
:100BE00096F00001D890953796370001D890953748
:100BF0009637040E00019527000E962389C097F0C2
:100C00008AC098F000019551000197270001965184
:100C10000001982397C0F6FF98C0F7FF0900F5CFB1
:100C200081F00900F5CF82F00900F5CF83F00A00CA
:100C3000F5CF84F085EC19F00001D8B03BD0A9C005
:100C400091F0AAC092F00001D8909137923700013C
:100C5000D89091379237040E00019127000E92230D
:100C600089C093F08AC094F000019151000193274C
:100C7000000192510001942393C0F6FF94C0F7FF46
:100C80000900F5CF7DF00900F5CF7EF00900F5CF22
:100C90007FF00A00F5CF80F08BC081F08CC082F02D
:100CA0008DC083F08EC084F085EC19F00001D8B0BF
:100CB00058D038D08BC07DF08CC07EF08DC07FF0D6
:100CC0008EC080F0A9C091F0AAC092F00001D89027
:100CD000913792370001D89091379237040E000176
:100CE0009127000E922389C093F08AC094F00001EE
:100CF000915100019327000192510001942393C068
:100D0000F6FF94C0F7FF0900F5CF81F00900F5CF99
:100D100082F00900F5CF83F00A00F5CF84F085EC6E
:100D200019F0C4D70001A94BAA2BFF0E0001916F47
:100D3000FF0E0001926F8FC093F090C094F00001FD
:100D40009151000193270001925100019423000169
:100D500093510001A95D000194510001AA59D8A046
:100D600014D7A9C091F0AAC092F00001D890913791
:100D700092370001D8909137923789C093F08AC09A
:100D800094F000019151000193270001925100015C
:100D9000942393C0F6FF94C0F7FF0900F5CFA5F0A8
:100DA0000900F5CFA6F00900F5CFA7F00A00F5CFAE
:100DB000A8F00A0E0001996FD70E9A6F230E9B6F51
:100DC0003C0E9C6FA9C091F0AAC092F00001D8908F
:100DD000913792370001D8909137923789C093F0BC
:100DE0008AC094F0000191510001932700019251B3
:100DF0000001942393C0F6FF94C0F7FF0900F5CFDC
:100E00003BF00900F5CF3CF00900F5CF3DF00A00BA
:100E1000F5CF3EF036EC42F03BC06DF03CC06EF0DA
:100E20003DC06FF03EC070F0A9C095F0AAC096F02A
:100E30000001D890953796370001D89095379637AE
:100E4000040E00019527000E962389C097F08AC0F2
:100E500098F000019551000197270001965100017B
:100E6000982397C0F6FF98C0F7FF0900F5CF71F0FF
:100E70000900F5CF72F00900F5CF73F00A00F5CF45
:100E800074F0D1EC07F06DC09DF06EC09EF06FC0A5
:100E90009FF070C0A0F08BC071F08CC072F08DC05C
:100EA00073F08EC074F00A0E1A6ED70E1B6E230EEE
:100EB0001C6E3C0E1D6EA9C008F0AAC009F00A6A9B
:100EC0000B6A000E7BEC1EF008C016F009C017F08C
:100ED0000AC018F00BC019F0C7EC0BF016C03BF0BD
:100EE00017C03CF018C03DF019C03EF036EC42F09F
:100EF0003BC06DF03CC06EF03DC06FF03EC070F086
:100F0000D1EC07F06DC0A1F06EC0A2F06FC0A3F0ED
:100F100070C0A4F099C033F09AC034F09BC035F093
:100F20009CC036F09DC02FF09EC030F09FC031F0C5
:100F3000A0C032F015EC0FF02FC01AF030C01BF03B
:100F400031C01CF032C01DF0A1C016F0A2C017F0D5
:100F5000A3C018F0A4C019F0C7EC0BF016C06DF0D8
:100F600017C06EF018C06FF019C070F0A5C071F016
:100F7000A6C072F0A7C073F0A8C074F0D1EC07F05F
:100F80006DC0A5F06EC0A6F06FC0A7F070C0A8F04D
:100F9000A5C089F0A6C08AF0A7C08BF0A8C08CF0CD
:100FA000120000017051800B3F6E000170517025DE
:100FB000416E00016FBF41804150D8B411D041282B
:100FC000D8A409D0000E00016D6F000E6E6F000EE8
:100FD0006F6F000E706F00016F8F000E000108D060
:100FE000000E00016D6F000E6E6F000E6F6F000E31
:100FF000706F00017451800B406E3F504018D8A4B0
:101000003F8C000174517425406E000173BF408015
:101010004050D8B411D04028D8A409D0000E000107
:10102000716F000E726F000E736F000E746F00010F
:10103000738F000E000108D0000E0001716F000ECA
:10104000726F000E736F000E746F4150405CD8B029
:1010500022D03FAC02D0800E3F1A41C042F040C0C7
:1010600041F042C040F06DC042F071C06DF042C02E
:1010700071F06EC042F072C06EF042C072F06FC08C
:1010800042F073C06FF042C073F070C042F074C0A1
:1010900070F042C074F0000E426E41500001756F56
:1010A000766B0001751F761F754B762B4050000143
:1010B000776F786B00017551000177270001765139
:1010C00000017823000178BF35D00001785105E197
:1010D0001A0E0001775DD8A02DD000016D510001DE
:1010E0006E1100016F1100017011D8B402D0010E11
:1010F00001D0000E426E000E00016D6F000E6E6F8B
:10110000000E6F6F000E706F40C041F017D042A00C
:1011100005D0D89042300109426E02D0D8904232B8
:1011200000016DB1428E0001703570336F336E3344
:101130006D33412A4050415CD8A0E9D73FBC35D03F
:101140004150D8A40AD0000E00016D6F000E6E6FE2
:10115000000E6F6F000E706F1200000171510001E0
:101160006D270001725100016E23000173510001CF
:101170006F230001745100017023000170A1B6D0EB
:1011800042A006D0D890423242500109426E02D0AD
:10119000D890423200016DB1428E0001703570333B
:1011A0006F336E336D33412AA1D0000171510001BC
:1011B0006D5D0001725100016E5900017351000113
:1011C0006F5900017051800A0001756F0001745160
:1011D000800A00017559D8B04CD06DC075F06EC052
:1011E00076F06FC077F070C078F00001751F761F41
:1011F000771F781F752B000E762377237823000145
:101200007151000175250001796F000172510001D3
:10121000762100017A6F00017351000177210001EE
:101220007B6F000174510001782100017C6FFF0E7B
:101230000001792500016D6FFF0E00017A21000188
:101240006E6FFF0E00017B2100016F6FFF0E00012A
:101250007C210001706F800E3F1A426C4250D8A46E
:1012600018D0010E00016D27000E6E236F2370232E
:1012700010D00001715100016D5F00017251000139
:101280006E5B0001735100016F5B0001745100013E
:10129000705B00016D5100016E1100016F110001C2
:1012A0007011D8A420D04250D8A41DD0000E000147
:1012B0006D6F000E6E6F000E6F6F000E706F12007C
:1012C0000001D8906D376E376F37703742AE02D05D
:1012D00000016D8142A002D0D88001D0D890423662
:1012E0004150D8A4410600016FAFEAD7000E406E0E
:1012F00042AE0CD042C075F07F0E00017517D8A425
:1013000003D000016DA102D0010E406E4050D8B450
:1013100023D0010E00016D27000E6E236F23702372
:10132000000170A119D06DC075F06EC076F06FC06D
:1013300077F070C078F00001783578337733763302
:10134000753375C06DF076C06EF077C06FF078C001
:1013500070F04128D8A4412A4128D8B403D0415084
:10136000D8A40ED0000E00016D6F000E6E6F000E3F
:101370006F6F000E706F4150D8A402D0000E3F6E08
:1013800041A003D000016F8F02D000016F9FD89061
:1013900041300001706F3FAE02D00001708F6DC010
:1013A0006DF06EC06EF06FC06FF070C070F0120024
:1013B00020EE04F02450D9262550DA22DECF3BF06F
:1013C000DDCF3CF0000E416E8BD04150286E296A73
:1013D000D89028362936D89028362936D8902836FD
:1013E00029360C0E2826000E292222C02AF023C0FE
:1013F0002BF028502A2629502B22040E2A24D96E9D
:10140000000E2B20DA6E4150080D040EF326000E5C
:10141000F42222C02EF023C02FF0F3502E26F450D9
:101420002F22040E2E24E96E000E2F20EA6EDE50CD
:10143000EE5CEE50800A326EDE50800A3258D8B030
:1014400029D04150286E296AD89028362936D8905C
:1014500028362936D890283629360C0E2826000E34
:10146000292222C02AF023C02BF028502A262950F6
:101470002B22040E2A24D96E000E2B20DA6E3B504C
:10148000DE5CDE50800A2E6E3C50800A2E58D8B0AA
:1014900043D025D04150286E296AD8902836293665
:1014A000D89028362936D890283629360C0E28268A
:1014B000000E292222C02AF023C02BF028502A2611
:1014C00029502B22040E2A24D96E000E2B20DA6E0E
:1014D000DE503B5C3C50800A2E6EDE50D6D7412A4F
:1014E000FE0E286EFF0E296E22C0D9FF23C0DAFF40
:1014F000DF502A6E2B6A28502A2629502B22415071
:101500002C6E2D6A2A502C5C2D50800A2E6E2B508A
:10151000800A2E58D8A059D74150080D040EF32642
:10152000000EF422F3502224D96EF4502320DA6EF8
:10153000DECF3DF0DECF3EF0DECF3FF0DECF40F03D
:101540004150286E296AD89028362936D8902836F6
:101550002936D890283629360C0E2826000E292246
:1015600028502224D96E29502320DA6EDECF2AF0AB
:10157000DECF2BF0DECF2CF0DECF2DF04150080D6A
:10158000040EF326000EF422F3502224D96EF450F8
:101590002320DA6EDECF2EF0DECF2FF0DECF30F05C
:1015A000DECF31F02E1E2F1E301E311E2E2A000ED1
:1015B0002F22302231222A502E24336E2B502F20FE
:1015C000346E2C503020356E2D503120366E415007
:1015D000286E296AD89028362936D8902836293698
:1015E000D890283629360C0E2826000E292222C033
:1015F0002AF023C02BF028502A2629502B22040E33
:101600002A24D96E000E2B20DA6EDECF2CF0DDCF2F
:101610002DF04150080D040EF326000EF42222C0D6
:101620002EF023C02FF0F3502E26F4502F22040E5C
:101630002E24D96E000E2F20DA6EDECF30F0DDCFF3
:1016400031F0301E311E304A312A2C5030262D50B8
:10165000312230C037F031C038F0000E38BEFF0EF6
:10166000396E3A6E3750381039103A10D8B451D01C
:101670004150080D040EF326000EF42222C028F07B
:1016800023C029F0F3502826F4502922040E2824E0
:10169000D96E000E2920DA6EDECF2AF0DDCF2BF0D6
:1016A0002A1E2B1E2A4A2B2A3B502A263C502B222C
:1016B0002AC008F02BC009F0000E09BEFF0E0A6E0A
:1016C0000B6E33C00CF034C00DF035C00EF036C0D8
:1016D0000FF03DEC3CF008C014F009C015F00AC052
:1016E00016F00BC017F037C018F038C019F039C029
:1016F0001AF03AC01BF091EC29F03D5014243D6ED5
:101700003E5015203E6E3F5016203F6E4050172031
:10171000406E24C0D9FF25C0DAFF3DC0DEFF3EC0C9
:10172000DEFF3FC0DEFF40C0DEFF26502710D8B4EA
:101730002CD026C0D9FF27C0DAFF3DC0DEFF3EC057
:10174000DEFF3FC0DEFF40C0DEFF20EE04F024508D
:10175000D9262550DA2200EE04F02650E92627503B
:10176000EA22DECFEEFFDDCFEDFF20EE0AF02250C1
:10177000D9262350DA2200EE06F02650E92627501B
:10178000EA22DECFEEFFDDCFEDFF4150120019500F
:10179000800B226E19501924286E18BE28802850FC
:1017A000D8B40DD02828D8A408D0000E166E000E8C
:1017B000176E000E186E000E196E188E08D0000EEF
:1017C000166E000E176E000E186E000E196E1D506C
:1017D000800B221A1D501D24236E1CBE2380235013
:1017E000D8B40DD02328D8A408D0000E1A6E000E4D
:1017F0001B6E000E1C6E000E1D6E1C8E08D0000E9F
:101800001A6E000E1B6E000E1C6E000E1D6E235015
:10181000D8B403D02850D8A409D0000E166E000EFC
:10182000176E000E186E000E196E12001C50160274
:10183000F3CF2DF0F4CF2EF02D50246E256A266ABA
:10184000276A2E50296E2A6A2B6A2C6A1B501702AF
:10185000F3CF2DF0F4CF2EF02D502426000E2522AC
:10186000262227222E502926000E2A222B222C2225
:101870001A501802F3CF2DF0F4CF2EF02D5024265D
:10188000000E2522262227222E502926000E2A224B
:101890002B222C2226C027F025C026F024C025F0BC
:1018A000246A1A501702F3CF2DF0F4CF2EF02D50EA
:1018B00024262E502522000E2622000E27221B5001
:1018C0001602F3CF2DF0F4CF2EF02D5024262E50FB
:1018D0002522000E2622000E272226C027F025C032
:1018E00026F024C025F0246A1A501602F3CF2DF0FA
:1018F000F4CF2EF02D5024262E502522000E262225
:10190000000E27221C501702F3CF2DF0F4CF2EF03B
:101910002D5029262E502A22000E2B22000E2C227A
:101920001B501802F3CF2DF0F4CF2EF02D502926A6
:101930002E502A22000E2B22000E2C221C501802A0
:10194000F3CF2DF0F4CF2EF02D501E6E2E501F6EC3
:10195000206A216A20C021F01FC020F01EC01FF0A5
:101960001E6A1E5029261F502A2220502B22215049
:101970002C2224C01EF025C01FF026C020F027C056
:1019800021F0190E05D0D890213220321F321E329C
:10199000E82EF9D71E5029261F502A2220502B222C
:1019A00021502C2226C027F025C026F024C025F087
:1019B000246A235028C01EF01F6A1E26000E1F2214
:1019C000820E1E242D6EFF0E1F202E6E0FD0D8907B
:1019D00029362A362B362C3627BE2980D890243635
:1019E0002536263627362D06D8A02E062BAEEFD765
:1019F000000E236E27AE16D0FF0E24141E6EFF0EAF
:101A000025141F6EFF0E2614206E7F0E2714216EE4
:101A10001E501F1020102110D8A402D029A002D0DF
:101A2000010E236E2350D8B41FD0010E2926000EBC
:101A30002A222B222C222CA017D029C01EF02AC02B
:101A40001FF02BC020F02CC021F021342132203295
:101A50001F321E321EC029F01FC02AF020C02BF0FA
:101A600021C02CF02D4A2E2A2EBE0DD02E5003E17F
:101A70002D28D8A008D0000E296E000E2A6E800EE8
:101A80002B6E7F0E20D02EBE05D02E500EE12D04E1
:101A9000D8B00BD0000E296E000E2A6E000E2B6EF1
:101AA000000E2C6E000E226E0FD02DC028F0FF0EFF
:101AB0002916FF0E2A167F0E2B16000E2C1628B0A4
:101AC0002B8ED89028302C6E22502C1229C016F064
:101AD0002AC017F02BC018F02CC019F0120020EE0D
:101AE00006F02450D9262550DA22DECF3EF0DDCF95
:101AF0003FF0000E406E87D04050276E286AD89085
:101B000027362836D89027362836D89027362836D4
:101B1000080E2726000E282222C029F023C02AF012
:101B20002750292628502A22060E2924D96E000E75
:101B30002A20DA6E4050080D22C02DF023C02EF06E
:101B4000F3502D26F4502E22060E2D24E96E000EA1
:101B50002E20EA6EDE50EE5CEE50800A316EDE50D2
:101B6000800A3158D8B029D04050276E286AD890C2
:101B700027362836D89027362836D8902736283664
:101B8000080E2726000E282222C029F023C02AF0A2
:101B90002750292628502A22060E2924D96E000E05
:101BA0002A20DA6E3E50DE5CDE50800A2D6E3F50F9
:101BB000800A2D58D8B03FD025D04050276E286AD3
:101BC000D89027362836D89027362836D89027360A
:101BD0002836080E2726000E282222C029F023C00E
:101BE0002AF02750292628502A22060E2924D96EA9
:101BF000000E2A20DA6EDE503E5C3F50800A2D6EC9
:101C0000DE50D6D7402AFE0E276EFF0E286E2650D5
:101C1000296E2A6A2750292628502A2240502B6EE6
:101C20002C6A29502B5C2C50800A2D6E2A50800A79
:101C30002D58D8A061D74050080DF3502224D96EFA
:101C4000F4502320DA6EDECF3AF0DECF3BF0DECF69
:101C50003CF0DECF3DF04050276E286AD890273602
:101C60002836D89027362836D89027362836080EBA
:101C70002726000E282227502224D96E2850232000
:101C8000DA6EDECF29F0DECF2AF0DECF2BF0DECF0A
:101C90002CF04050080DF3502224D96EF45023202C
:101CA000DA6EDECF2DF0DECF2EF0DECF2FF0DECFDE
:101CB00030F02D1E2E1E2F1E301E2D2A000E2E221D
:101CC0002F22302229502D24326E2A502E20336E9E
:101CD0002B502F20346E2C503020356E4050276E04
:101CE000286AD89027362836D89027362836D890B4
:101CF00027362836080E2726000E282222C029F073
:101D000023C02AF02750292628502A22060E2924EB
:101D1000D96E000E2A20DA6EDECF2BF0DDCF2CF04C
:101D20004050080D22C02DF023C02EF0F3502D2678
:101D3000F4502E22060E2D24D96E000E2E20DA6EBF
:101D4000DECF2FF0DDCF30F02F1E301E2F4A302A8D
:101D50002B502F262C5030222FC036F030C037F0B9
:101D6000000E37BEFF0E386E396E36503710381001
:101D70003910D8B44DD04050080D22C027F023C0F0
:101D800028F0F3502726F4502822060E2724D96E77
:101D9000000E2820DA6EDECF29F0DDCF2AF0291ED2
:101DA0002A1E294A2A2A3E5029263F502A2229C083
:101DB00008F02AC009F0000E09BEFF0E0A6E0B6E75
:101DC00032C00CF033C00DF034C00EF035C00FF04F
:101DD0003DEC3CF008C014F009C015F00AC016F044
:101DE0000BC017F036C018F037C019F038C01AF021
:101DF00039C01BF091EC29F03A5014243A6E3B5054
:101E000015203B6E3C5016203C6E3D5017203D6E19
:101E100024C0D9FF25C0DAFF3AC0DEFF3BC0DEFF99
:101E20003CC0DEFF3DC0DEFF12003250800B0001DF
:101E3000606F3250322400016B6F31AE02D000016E
:101E40006B8100016B510001D8B40ED000016B29E9
:101E5000D8A408D0000E2F6E000E306E000E316E2A
:101E6000000E326E318E06D0000E2F6E000E306ED8
:101E7000000E316E000E326E3650800B0001601B7A
:101E80003650362400016C6F35AE02D000016C81F3
:101E900000016C510001D8B40ED000016C29D8A407
:101EA00008D0000E336E000E346E000E356E000E3C
:101EB000366E358E06D0000E336E000E346E000E78
:101EC000356E000E366E3350341035103610D8A4EF
:101ED00015D0000E2F6E000E306E000E316E000E0B
:101EE000326E800E31127F0E32122FC02FF030C0B2
:101EF00030F031C031F032C032F0120000016B51CD
:101F00000001D8A411D0000E2F6E000E306E000E0E
:101F1000316E000E326E2FC02FF030C030F031C065
:101F200031F032C032F0120000016C51376E386A65
:101F3000371E381E374A382A00016B51396E3A6A0B
:101F40003750392638503A227F0E39240001656F08
:101F5000000E3A200001666F2FC061F030C062F0C1
:101F600031C063F032C064F0000E2F6E000E306E90
:101F7000000E316E000E326E000E0001676F000E13
:101F8000686F000E696F000E6A6F000E00016C6FC3
:101F900037D000016C510001D8B414D00001D890A2
:101FA0006137623763376437D8902F363036313631
:101FB000323600016ABF2F800001D890673768373A
:101FC00069376A3733500001615D3450000162594E
:101FD000355000016359365000016459D8A00ED025
:101FE00000016A8D33500001615F34500001625B73
:101FF00035500001635B36500001645B00016C2BBF
:10200000190E00016C65C5D7000161510001621114
:102010000001631100016411D8B415D0000167817B
:1020200012D0D8902F3630363136323600016ABFA2
:102030002F800001D8906737683769376A37000109
:102040006507D8A0660731AEECD7000E00016C6FB3
:1020500000016AAF1BD0FF0E00016715376EFF0E3F
:1020600000016815386EFF0E00016915396E7F0E8C
:1020700000016A153A6E3750381039103A10D8A45A
:1020800002D02FA003D0010E00016C6F00016C5133
:102090000001D8B420D0010E2F26000E30223122AC
:1020A000322232A018D02FC037F030C038F031C003
:1020B00039F032C03AF03A343A32393238323732C3
:1020C00037C02FF038C030F039C031F03AC032F0AC
:1020D0000001654B662B000166BF13D000016651FD
:1020E00004E100016529D8A00CD0000E0001666F44
:1020F0006569000E2F6E000E306E000E316E000E00
:10210000326E000166BF07D00001665114E1000184
:102110006505D8B010D0000E0001666F000E656F27
:10212000000E2F6E000E306E000E316E000E326EFD
:10213000000E0001606F65C06BF000016BA102D062
:10214000318E01D0319E0001D8906B31326E00018A
:10215000605132122FC02FF030C030F031C031F05A
:1021600032C032F012000001646F000E0001666F91
:102170005450D8A421D05550340D040EF324D96EF8
:10218000030EF420DA6EDF500001656FF8C06DF0C9
:1021900000016D5100016519D8B4F8D0010E00019D
:1021A000666F5550340D040EF324D96E030EF420DF
:1021B000DA6E6DC0DFFFEAD0F4C014F0F5C015F0A0
:1021C000F6C016F0F7C017F07AEC31F014C067F0E3
:1021D00015C068F016C069F017C06AF05550340D8C
:1021E000FC0E336EFF0E346E5450356E366AD89046
:1021F00035363636D89035363636D890353636368A
:102200003350352634503622000E376E030E386EAA
:10221000040E3726000E3822355037263650382225
:10222000F3503724D96EF4503820DA6EDECF60F0E8
:10223000DECF61F0DECF62F0DECF63F000016751E8
:102240000001601910E100016851000161190BE102
:10225000000169510001621906E100016A510001A3
:102260006319D8B493D05550340DFC0E336EFF0E65
:10227000346E5450356E366AD89035363636D8902E
:1022800035363636D89035363636335035263450D6
:102290003622000E376E030E386E040E3726000EFF
:1022A00038223550372636503822F3503724D96E2D
:1022B000F4503820DA6E67C0DEFF68C0DEFF69C008
:1022C000DEFF6AC0DEFF5550340DFC0E336EFF0E8C
:1022D000346E5450356E366AD89035363636D890CE
:1022E00035363636D8903536363633503526345076
:1022F0003622000E376E030E386E040E3726000E9F
:1023000038223550372636503822F3503726F450CD
:102310003822040E3724D96E000E3820DA6EE8C158
:10232000DEFFE9C1DDFF5550340DFC0E336EFF0EAC
:10233000346E5450356E366AD89035363636D8906D
:1023400035363636D8903536363633503526345015
:102350003622000E376E030E386E040E3726000E3E
:1023600038223550372636503822F3503726F4506D
:102370003822060E3724D96E000E3820DA6EEAC1F4
:10238000DEFFEBC1DDFF010E0001666F000166514B
:102390000001D8B423D0000E00016C6FA20E6B6F49
:1023A000000E146E030E156EFE0E00016B25166EE8
:1023B000FF0E00016C21176E96EC3EF0E0C00BF0B2
:1023C000E1C00CF0000E0D6E000E0E6E030E0F6ECF
:1023D0006BC010F06CC011F0F1EC26F000016451FC
:1023E0000001D8B403D003EC3FF01200542A55503A
:1023F000340D040EF324D96E030EF420DA6E54501B
:10240000DE5CD8B008D0000E546E552A020E55641A
:1024100002D0000E556E54C025F05550BDEC28F08A
:1024200012000001646F000E0001666F5450D8A4C2
:1024300021D05550340D040EF324D96E040EF4202F
:10244000DA6EDF500001656FF8C06DF000016D516C
:1024500000016519D8B4F8D0010E0001666F55501F
:10246000340D040EF324D96E040EF420DA6E6DC020
:10247000DFFFEAD0F4C014F0F5C015F0F6C016F096
:10248000F7C017F07AEC31F014C067F015C068F0AF
:1024900016C069F017C06AF05550340DFC0E336E4B
:1024A000FF0E346E5450356E366AD8903536363657
:1024B000D89035363636D8903536363633503526C0
:1024C00034503622000E376E040E386E040E372656
:1024D000000E38223550372636503822F350372434
:1024E000D96EF4503820DA6EDECF60F0DECF61F0C6
:1024F000DECF62F0DECF63F00001675100016019AA
:1025000010E100016851000161190BE100016951FE
:102510000001621906E100016A5100016319D8B493
:1025200093D05550340DFC0E336EFF0E346E545064
:10253000356E366AD89035363636D89035363636DA
:10254000D890353636363350352634503622000E84
:10255000376E040E386E040E3726000E38223550C2
:10256000372636503822F3503724D96EF4503820AD
:10257000DA6E67C0DEFF68C0DEFF69C0DEFF6AC0DA
:10258000DEFF5550340DFC0E336EFF0E346E54508A
:10259000356E366AD89035363636D890353636367A
:1025A000D890353636363350352634503622000E24
:1025B000376E040E386E040E3726000E3822355062
:1025C000372636503822F3503726F4503822040E7E
:1025D0003724D96E000E3820DA6EE8C1DEFFE9C17B
:1025E000DDFF5550340DFC0E336EFF0E346E54502B
:1025F000356E366AD89035363636D890353636361A
:10260000D890353636363350352634503622000EC3
:10261000376E040E386E040E3726000E3822355001
:10262000372636503822F3503726F4503822060E1B
:102630003724D96E000E3820DA6EEAC1DEFFEBC116
:10264000DDFF010E0001666F000166510001D8B484
:1026500023D0000E00016C6FA20E6B6F000E146E83
:10266000040E156EFE0E00016B25166EFF0E0001A6
:102670006C21176E96EC3EF0E0C00BF0E1C00CF060
:10268000000E0D6E000E0E6E040E0F6E6BC010F07D
:102690006CC011F0F1EC26F0000164510001D8B4D7
:1026A00003D003EC3FF01200542A5550340D040EB1
:1026B000F324D96E040EF420DA6E5450DE5CD8B0E8
:1026C00002D0000E546E54C025F0000E50EC28F0DD
:1026D000120002010451D8A414D00CC208F00DC29B
:1026E00009F00EC20AF00FC20BF0000E7BEC1EF0D8
:1026F00008C095F009C096F00AC097F00BC098F09A
:1027000077D008C208F009C209F00AC20AF00BC269
:102710000BF0010E7BEC1EF008C095F009C096F09E
:102720000AC097F00BC098F00CC208F00DC209F077
:102730000EC20AF00FC20BF0000E7BEC1EF008C0B8
:1027400071F009C072F00AC073F00BC074F00CC2D3
:1027500008F00DC209F00EC20AF00FC20BF0000E15
:102760007BEC1EF008C06DF009C06EF00AC06FF07F
:102770000BC070F0D1EC07F06DC08DF06EC08EF024
:102780006FC08FF070C090F095C071F096C072F07D
:1027900097C073F098C074F08DC06DF08EC06EF06D
:1027A0008FC06FF090C070F0D1EC07F06DC091F069
:1027B0006EC092F06FC093F070C094F091C06DF055
:1027C00092C06EF093C06FF094C070F095C071F03D
:1027D00096C072F097C073F098C074F0D1EC07F017
:1027E0006DC095F06EC096F06FC097F070C098F015
:1027F00095C01AF096C01BF097C01CF098C01DF051
:1028000002010551086E096A0A6A0B6A000E7BEC28
:102810001EF008C016F009C017F00AC018F00BC06F
:1028200019F0C7EC0BF016C02FF017C030F018C02D
:1028300031F019C032F0000E336E000E346EC80E47
:10284000356E420E366E15EC0FF02FC095F030C08D
:1028500096F031C097F032C098F000019551000118
:1028600096110001971100019811D8A409D0000E0B
:102870000001956F000E966F800E976F3F0E986F58
:10288000C0C008F0C1C009F0C2C00AF0C3C00BF05C
:10289000010E7BEC1EF008C089F009C08AF00AC066
:1028A0008BF00BC08CF089C02FF08AC030F08BC049
:1028B00031F08CC032F095C033F096C034F097C040
:1028C00035F098C036F015EC0FF02FC095F030C001
:1028D00096F031C097F032C098F095C016F096C0CF
:1028E00017F097C018F098C019F0000E1A6E000E7D
:1028F0001B6EC80E1C6E420E1D6EC7EC0BF016C090
:1029000095F017C096F018C097F019C098F0000E17
:1029100000017D6F000E7E6FC80E7F6F420E806FCC
:1029200095C081F096C082F097C083F098C084F083
:1029300085EC19F00001D8B009D0000E0001956FA8
:10294000000E966FC80E976F420E986F95C07DF07F
:1029500096C07EF097C07FF098C080F08BEC25F099
:1029600000017D510001F36F0001F3511200ABC073
:1029700008F0ACC009F0ADC00AF0AEC00BF0010E1B
:102980007BEC1EF008C0BBF009C0BCF00AC0BDF073
:102990000BC0BEF00CC208F00DC209F00EC20AF066
:1029A0000FC20BF0000E7BEC1EF008C0B3F009C0A4
:1029B000B4F00AC0B5F00BC0B6F0BBC02FF0BCC07D
:1029C00030F0BDC031F0BEC032F0B3C033F0B4C09F
:1029D00034F0B5C035F0B6C036F015EC0FF02FC0AE
:1029E000BBF030C0BCF031C0BDF032C0BEF0000E54
:1029F00000017D6F000E7E6F800E7F6F3F0E806F37
:102A0000BBC081F0BCC082F0BDC083F0BEC084F00A
:102A100085EC19F00001D8B009D0000E0001BB6FA1
:102A2000000EBC6F800EBD6F3F0EBE6FBBC0B3F01B
:102A3000BCC0B4F0BDC0B5F0BEC0B6F0AB0E000176
:102A4000896FF00E00018A6FBBC08BF0BCC08CF0A8
:102A5000BDC08DF0BEC08EF0000E0001906F650EFF
:102A60008F6FBFEC05F089C0BBF08AC0BCF08BC093
:102A7000BDF08CC0BEF010C208F011C209F012C245
:102A80000AF013C20BF0010E7BEC1EF008C0B7F089
:102A900009C0B8F00AC0B9F00BC0BAF0B7C016F060
:102AA000B8C017F0B9C018F0BAC019F0BBC01AF01E
:102AB000BCC01BF0BDC01CF0BEC01DF0C7EC0BF0CD
:102AC00016C0B7F017C0B8F018C0B9F019C0BAF006
:102AD000B3C0BBF0B4C0BCF0B5C0BDF0B6C0BEF072
:102AE000170E0001896FEF0E00018A6FBBC08BF0DB
:102AF000BCC08CF0BDC08DF0BEC08EF0000E0001D9
:102B0000906F650E8F6FBFEC05F089C0BBF08AC077
:102B1000BCF08BC0BDF08CC0BEF014C208F015C272
:102B200009F016C20AF017C20BF0010E7BEC1EF082
:102B300008C0AFF009C0B0F00AC0B1F00BC0B2F0ED
:102B4000AFC016F0B0C017F0B1C018F0B2C019F0A5
:102B5000BBC01AF0BCC01BF0BDC01CF0BEC01DF055
:102B6000C7EC0BF016C0AFF017C0B0F018C0B1F052
:102B700019C0B2F0B7C06DF0B8C06EF0B9C06FF058
:102B8000BAC070F0AFC071F0B0C072F0B1C073F0F5
:102B9000B2C074F0D1EC07F06DC0B7F06EC0B8F001
:102BA0006FC0B9F070C0BAF0B7C07DF0B8C07EF0A9
:102BB000B9C07FF0BAC080F08BEC25F07DC0ABF0DF
:102BC0007EC0ACF07FC0ADF080C0AEF0120000015E
:102BD00020EE0CF08551D9268651DA22DECF08F09E
:102BE000DECF09F0DECF0AF0DECF0BF0000E7BEC7B
:102BF0001EF008C09DF009C09EF00AC09FF00BC0F7
:102C0000A0F0000120EE08F08551D9268651DA2285
:102C1000DECF08F0DECF09F0DECF0AF0DECF0BF01A
:102C2000010E7BEC1EF008C095F009C096F00AC0BA
:102C300097F00BC098F0000E336E000E346E7A0ED3
:102C4000356E440E366E9DC02FF09EC030F09FC092
:102C500031F0A0C032F015EC0FF02FC089F030C079
:102C60008AF031C08BF032C08CF089C02FF08AC05E
:102C700030F08BC031F08CC032F0000E336E000E9D
:102C8000346E000E356E400E366E15EC0FF02FC010
:102C90009DF030C09EF031C09FF032C0A0F095C0D2
:102CA0002FF096C030F097C031F098C032F0000E8F
:102CB000336E000E346E7A0E356E440E366E15ECA1
:102CC0000FF02FC095F030C096F031C097F032C0B1
:102CD00098F09DC01AF09EC01BF09FC01CF0A0C0D1
:102CE0001DF09DC016F09EC017F09FC018F0A0C048
:102CF00019F0C7EC0BF016C08DF017C08EF018C09D
:102D00008FF019C090F095C01AF096C01BF097C0D4
:102D10001CF098C01DF08DC016F08EC017F08FC04B
:102D200018F090C019F0C7EC0BF016C091F017C066
:102D300092F018C093F019C094F091C016F092C0B0
:102D400017F093C018F094C019F0F90E1A6E0F0E18
:102D50001B6E490E1C6E400E1D6EC7EC0BF016C0AC
:102D600099F017C09AF018C09BF019C09CF099C058
:102D700016F09AC017F09BC018F09CC019F0000E16
:102D80001A6E000E1B6E7A0E1C6E440E1D6EC7EC82
:102D90000BF016C099F017C09AF018C09BF019C03C
:102DA0009CF099C07DF09AC07EF09BC07FF09CC0E3
:102DB00080F08BEC25F07DC085F07EC086F07FC072
:102DC00087F080C088F0120021C0D9FF22C0DAFF4E
:102DD000DECF30F0DDCF31F0260E086E000E096E2A
:102DE0001FC00AF020C00BF084EC38F020EE03F096
:102DF0002150D9262250DA22DF50D8A45CD0100E00
:102E0000305C270E3158D8A004D0270E316E0F0E3B
:102E1000306E2A0E106E000E116E30C012F031C0EE
:102E200013F0BFEC1FF0260E086E000E096E080EA0
:102E30000A6ED8EC3DF020EE02F02150D926225047
:102E4000DA22DF50326E010E196E3250040F31EC6F
:102E50003BF0040E236005D023500008030F236EBF
:102E600060D0040E2318D8A40ED00F015FB799D0FC
:102E70000001F151D8A495D0000E196E3250040F04
:102E800031EC3BF08ED00F015FB78BD00001F151D8
:102E9000D8A487D02A0E086E000E096E740E0A6E32
:102EA000F30E0B6E84EC38F0000E196E3250040FE6
:102EB00031EC3BF076D02350D8B41200100E305CC9
:102EC000270E3158D8A004D0270E316E0F0E306E69
:102ED0002B0E106E000E116E30C012F031C013F0C8
:102EE000BFEC1FF02D0E2A6E260E086E000E096E26
:102EF000080E0A6ED8EC3DF020EE02F02150D926E3
:102F00002250DA22DF50326E010E196E3250050F58
:102F100031EC3BF0040E23601BD023500008040F5B
:102F20009ED70F015FB73DD00001F151D8A439D031
:102F30002350246E256A040E2426000E2522260E18
:102F40002424D96E000E2520DA6E200EDF6E29D0E3
:102F5000040E2318D8A40ED00F015FB722D00001B1
:102F6000F151D8A41ED0000E196E3250050F31EC6D
:102F70003BF017D00F015FB714D00001F151D8A476
:102F800010D02A0E086E000E096E740E0A6EF30E33
:102F90000B6E84EC38F0000E196E3250050F31ECD8
:102FA0003BF0260E1C6E000E1D6EE2EC39F013ECA9
:102FB0003AF01200000E326E000E336E000E346EC8
:102FC000000E356E030E2460D0D0000E236E000E6E
:102FD000226E120022C0D9FF23C0DAFFDECF2EF00E
:102FE000DDCF2FF02EC030F02FC031F0000E326E4A
:102FF000000E336E000E346E000E356E000E366E0F
:103000005ED03650020DF3502224D96EF4502320A6
:10301000DA6E3050DE5CDE50800A286E3150800A55
:103020002858D8B00ED03650020DF3502224D96E55
:10303000F4502320DA6EDECF30F0DDCF31F036C031
:103040002DF03650020DF3502224D96EF450232077
:10305000DA6EDE502E5C2F50800A286EDE50800A19
:103060002858D8B00ED03650020DF3502224D96E15
:10307000F4502320DA6EDECF2EF0DDCF2FF036C0F5
:103080002CF03650020DF3502224D96EF450232038
:10309000DA6EDECF26F0DDCF27F026C028F027C07D
:1030A00029F0000E29BEFF0E2A6E2B6E2850322604
:1030B000295033222A5034222B503522362A2450CC
:1030C000365CD8A09ED730502E24266E31502F204B
:1030D000276E286A27BE28062850296E2650325EA1
:1030E0002750335A2850345A2950355A32C014F0D8
:1030F00033C015F034C016F035C017F0FE0E266E42
:10310000FF0E276E2450286E296A26502826275045
:10311000292228C018F029C019F0000E19BEFF0E90
:103120001A6E1B6E91EC29F014C032F015C033F00A
:1031300016C034F017C035F02D50020DF350222484
:10314000D96EF4502320DA6E32C0DEFF33C0DDFFCB
:103150002C50020DF3502224D96EF4502320DA6E45
:1031600032C0DEFF33C0DDFF25062550D8A432D79C
:1031700032C022F033C023F01200000E116E000E98
:10318000106E20EE06F00C50D9260D50DA2201D830
:103190000AD00500FA6EDE50FD6EDE50FE6EF8506D
:1031A000FF6EFA50120020EE0AF00C50D9260D5096
:1031B000DA2201D811D00500FA6EDE50FD6EDE5025
:1031C000FE6EF850FF6EFA5020EE01F00C50D9263A
:1031D0000D50DA22DF50120020EE0AF00C50D926F2
:1031E0000D50DA2201D80BD00500FA6EDE50FD6ECC
:1031F000DE50FE6EF850FF6EFA500E50120020EEB8
:1032000008F00C50D9260D50DA2201D80AD005005A
:10321000FA6EDE50FD6EDE50FE6EF850FF6EFA5014
:10322000120020EE06F00C50D9260D50DA2201D8FB
:103230000AD00500FA6EDE50FD6EDE50FE6EF850CC
:10324000FF6EFA50120020EE0AF00C50D9260D50F5
:10325000DA2201D813D00500FA6EDE50FD6EDE5082
:10326000FE6EF850FF6EFA5020EE01F00C50D92699
:103270000D50DA22DF500F6E0F28120020EE0EF0F4
:103280000C50D9260D50DA2201D80BD00500FA6E69
:10329000DE50FD6EDE50FE6EF850FF6EFA50000EEE
:1032A00012000F6E0F50106E116A1050116E106ADE
:1032B00020EE0EF00C50D9260D50DA2201D80BD09A
:1032C0000500FA6EDE50FD6EDE50FE6EF850FF6EA9
:1032D000FA50000E12000F6E0F50101220EE08F080
:1032E0000C50D9260D50DA2201D80AD00500FA6E0A
:1032F000DE50FD6EDE50FE6EF850FF6EFA5012008A
:1033000010C00CF011C00DF01200000E00017D1570
:103310000001856F000E00017E150001866F800E92
:1033200000017F150001876F7F0E000180150001ED
:10333000886F00018551000186110001871100018D
:103340008811D8A409D0000E00017D6F000E7E6F99
:10335000000E7F6F000E806F000E000181150001CE
:10336000856F000E000182150001866F800E00013E
:1033700083150001876F7F0E000184150001886F9F
:10338000000185510001861100018711000188119B
:10339000D8A409D0000E0001816F000E826F000ECC
:1033A000836F000E846F000180AF26D07DC085F052
:1033B0007EC086F07FC087F080C088F00001851F46
:1033C000861F871F881F852B000E8623872388234F
:1033D000000E0001852500017D6F000E0001862191
:1033E00000017E6F000E0001872100017F6F800EBB
:1033F000000188210001806F000184AF26D081C0C8
:1034000085F082C086F083C087F084C088F0000118
:10341000851F861F871F881F852B000E8623872305
:103420008823000E000185250001816F000E000138
:1034300086210001826F000E000187210001836F49
:10344000800E000188210001846F000E00017D1BA9
:10345000000E7E1B000E7F1B800E801B000E0001E5
:10346000811B000E821B000E831B800E841B00013B
:10347000815100017D5D0001825100017E590001F2
:10348000835100017F590001845100018059D8B057
:1034900002D0D8901200D880120020EE01F00C501B
:1034A000D9260D50DA2201D80AD00500FA6EDE5076
:1034B000FD6EDE50FE6EF850FF6EFA50120020EEE8
:1034C00005F00C50D9260D50DA2201D80FD0050096
:1034D000FA6EDE50FD6EDE50FE6EF850FF6EFA5052
:1034E0000CC0D9FF0DC0DAFFDF50120020EE05F04E
:1034F0000C50D9260D50DA2201D80BD00500FA6EF7
:10350000DE50FD6EDE50FE6EF850FF6EFA500E502B
:10351000120020EE01F00C50D9260D50DA2201D80D
:103520000AD00500FA6EDE50FD6EDE50FE6EF850D9
:10353000FF6EFA50120020EE05F00C50D9260D5007
:10354000DA2201D811D00500FA6EDE50FD6EDE5091
:10355000FE6EF850FF6EFA500CC0D9FF0DC0DAFFB6
:10356000DF50136E13281200000E186E000E176E37
:103570001CD020EE09F00C50D9260D50DA2201D8CB
:103580000BD00500FA6EDE50FD6EDE50FE6EF85078
:10359000FF6EFA50000E12000FC0D9FF10C0DAFF04
:1035A000DF6E0F4A102A174A182AFF0E136EFF0EFD
:1035B000146E11C015F012C016F0135015261450D9
:1035C00016221550175C16501858D8A0D2D720EEE6
:1035D00009F00C50D9260D50DA2201D80BD0050085
:1035E000FA6EDE50FD6EDE50FE6EF850FF6EFA5041
:1035F000010E12000FC0D9FF10C0DAFFDF6E20EEFF
:1036000003F00C50D9260D50DA2201D81200050023
:10361000FA6EDE50FD6EDE50FE6EF850FF6EFA5010
:103620001200030E0301006F000E186E020E1864E4
:1036300001D012001850340D040EF324D96E030E7D
:10364000F420DA6E060EDF6E000E176E050E17649C
:1036500001D09DD017C00BF00C6A170E0E6E700EC5
:103660000D6EB4EC43F00BC011F00CC012F018C09A
:103670000BF00C6A010E0E6EF40E0D6EB4EC43F0FE
:103680000B5011260C5012221750080D040EF32671
:10369000000EF422000E136E030E146E040E132699
:1036A000000E1422F3501326F45014221850340D37
:1036B000F3501326F4501422040E1324D96E000E76
:1036C0001420DA6E11C0DEFF12C0DDFF17C00BF050
:1036D0000C6A170E0E6E700E0D6EB4EC43F00BC03C
:1036E00011F00CC012F0000E12BEFF0E136E146E1D
:1036F0001750080D040EF326000EF422000E156E6E
:10370000030E166E040E1526000E1622F350152613
:10371000F45016221850340DF3501524D96EF4507D
:103720001620DA6E11C0DEFF12C0DEFF13C0DEFF0E
:1037300014C0DEFF18C00BF00C6A030E0E6EE80E0C
:103740000D6EB4EC43F01750080D040EF326000E76
:10375000F422000E116E030E126E040E1126000EDE
:103760001222F3501126F45012221850340DF35047
:103770001126F4501222060E1124D96E000E1220CA
:10378000DA6E0BC0DEFF0CC0DDFF172A5FD7182AE8
:103790004DD7000120EE0CF08551D9268651DA2252
:1037A000DECF08F0DECF09F0DECF0AF0DECF0BF07F
:1037B000000E7BEC1EF008C095F009C096F00AC020
:1037C00097F00BC098F095C02FF096C030F097C0DE
:1037D00031F098C032F0000E336E000E346E7A0E67
:1037E000356E440E366E15EC0FF02FC095F030C0DC
:1037F00096F031C097F032C098F095C01AF096C09C
:103800001BF097C01CF098C01DF095C016F096C034
:1038100017F097C018F098C019F0C7EC0BF016C05D
:1038200089F017C08AF018C08BF019C08CF095C0D1
:103830001AF096C01BF097C01CF098C01DF089C00C
:1038400016F08AC017F08BC018F08CC019F0C7ECC6
:103850000BF016C08DF017C08EF018C08FF019C095
:1038600090F08DC016F08EC017F08FC018F090C089
:1038700019F0A60E1A6E0A0E1B6E860E1C6E3E0EF8
:103880001D6EC7EC0BF016C091F017C092F018C077
:1038900093F019C094F091C016F092C017F093C045
:1038A00018F094C019F0000E1A6E000E1B6E7A0EFE
:1038B0001C6E440E1D6EC7EC0BF016C091F017C0C5
:1038C00092F018C093F019C094F091C07DF092C0AE
:1038D0007EF093C07FF094C080F08BEC25F07DC02B
:1038E00085F07EC086F07FC087F080C088F012002F
:1038F000010E0401006F000E176E1750D8A41200BD
:103900001750340D040EF324D96E040EF420DA6E31
:10391000060EDF6E000E186E050E186401D094D0EE
:1039200018C00BF00C6A170E0E6E700E0D6EB4EC14
:1039300043F00BC011F00CC012F017C00BF00C6A72
:10394000010E0E6EF40E0D6EB4EC43F00B5011260A
:103950000C5012221850080D040EF326000EF4220B
:10396000000E136E040E146E040E1326000E1422A5
:10397000F3501326F45014221750340DF35013262D
:10398000F4501422040E1324D96E000E1420DA6EA3
:1039900011C0DEFF12C0DDFF18C00BF00C6A170E5D
:1039A0000E6E700E0D6EB4EC43F00BC011F00CC037
:1039B00012F0000E12BEFF0E136E146E1850080D9A
:1039C000040EF326000EF422000E156E040E166E81
:1039D000040E1526000E1622F3501526F45016225A
:1039E0001750340DF3501524D96EF4501620DA6EAA
:1039F00011C0DEFF12C0DEFF13C0DEFF14C0DEFF09
:103A00001850080D040EF326000EF422000E116E5D
:103A1000040E126E040E1126000E1222F35011260F
:103A2000F45012221750340DF3501126F450122284
:103A3000060E1124D96E000E1220DA6E000EDE6E14
:103A4000000EDD6E182A68D7172A57D7000E00011E
:103A5000A26FF00EA16F000E0001A66F020E000112
:103A6000A76FA6C0A4F0A7C0A5F0000E086EF40EC4
:103A7000096E000E0A6E000E0B6EA6C00CF0A7C0F9
:103A80000DF0000E0F6EF00E0E6EEBEC38F0A6C0CF
:103A900014F0A7C015F0000E176EF00E166E44EC71
:103AA0003AF00001A36F0001A3510001D8A4120055
:103AB000A6C008F0A7C009F03F0E0A6EF20E0B6E0A
:103AC000000E0D6EF00E0C6E69EC3FF0A4C085F098
:103AD000A5C086F0E7EC15F0000120EE10F0A4512F
:103AE000D926A551DA22000185C0DEFF000186C07B
:103AF000DEFF000187C0DEFF000188C0DEFFA4C03A
:103B000085F0A5C086F0C9EC1BF0000120EE14F092
:103B1000A451D926A551DA22000185C0DEFF00019B
:103B200086C0DEFF000187C0DEFF000188C0DEFF27
:103B3000A6C014F0A7C015F0000E176EEE0E166E9C
:103B400096EC3EF0000E166EF40E176E000E186E18
:103B5000000E196EA6C01AF0A7C01BF0000E1D6E55
:103B6000F00E1C6E67EC27F0000E086EF40E096E66
:103B7000000E0A6E000E0B6EA6C00CF0A7C00DF072
:103B8000000E0F6EF00E0E6EEBEC38F0A6C014F0C7
:103B9000A7C015F0000E176EF00E166E44EC3AF04A
:103BA0000001A36F1200000E326E0A0E0001D02732
:103BB000000ED1230001D15107E1640E0001D05D58
:103BC000D8B002D0000E1200000E0001D16F000E1E
:103BD000D06F0001EC51D8A415D0040E0001ED6F98
:103BE000D4C008F0D5C009F0EDC00AF0F9EC43F0FC
:103BF000D4C010F0D5C011F042EC43F00001EC2B22
:103C0000010E1200D4C012F0D5C013F0ACEC3FF09E
:103C100012C033F013C034F0040E0001ED19D8A423
:103C200012D0C40E226E010E236E33C024F034C0B5
:103C300025F0040E266E85EC21F022C064F123C02D
:103C400065F1050E3CD0050E0001ED19D8A41BD07E
:103C5000BC0E226E010E236E33C024F034C025F05A
:103C6000040E266E85EC21F022C033F023C034F020
:103C7000D8903336343633500101645F345001013B
:103C8000655B030E1CD0030E0001ED19D8A416D0FD
:103C9000B40E226E010E236E33C024F034C025F022
:103CA000040E266E85EC21F022C0DAF023C0DBF092
:103CB000040E0001ED6F0001EC2B03D0040E000197
:103CC000ED6FD4C008F0D5C009F0EDC00AF0F9ECF2
:103CD00043F0D4C010F0D5C011F042EC43F0040E14
:103CE0000001EC6506D0010E0001EB6F000E000133
:103CF000EC6F010E1200106E1050D8A40BAE1AD04B
:103D000008C00CF009C00DF00AC00EF00BC00FF097
:103D10000C1E0D1E0E1E0F1E0C2A000E0D220E2252
:103D20000F220CC012F00DC013F00EC014F00FC023
:103D300015F008D008C012F009C013F00AC014F042
:103D40000BC015F0085009100A100B10D8A409D0A8
:103D5000000E086E000E096E000E0A6E000E0B6E4D
:103D60001200960E116E06D0112AD8901532143218
:103D700013321232000E12140C6E000E13140D6E5C
:103D8000000E14140E6EFE0E15140F6E0C500D1056
:103D90000E100F10D8B40DD0E7D7112A010E12263D
:103DA000000E132214221522D89015321432133229
:103DB0001232000E12140C6E000E13140D6E000E53
:103DC00014140E6EFF0E15140F6E0C500D100E1005
:103DD0000F10D8B407D0E1D71106D8901236133699
:103DE0001436153614BE03D0020E1160F5D711B08B
:103DF00008D0FF0E1216FF0E13167F0E1416FF0EBC
:103E00001516D890113211C00CF00D6A0E6A0F6AA7
:103E10000CC00FF00E6A0D6A0C6A0C5012120D5095
:103E200013120E5014120F5015121050D8A40BAECE
:103E300001D0158E12C008F013C009F014C00AF0AA
:103E400015C00BF012000A0E0001CE27000ECF2382
:103E50000001CF5107E1640E0001CE5DD8B002D061
:103E6000000E1200000E0001CF6F000ECE6F000199
:103E7000EA51D8A409D0C7EC43F0020E526E010EED
:103E80000001EA6F010E1200020E5218D8A419D0D8
:103E9000525003EC3BF00CC032F00DC033F0AC0ECE
:103EA000226E010E236E32C024F033C025F0040EC2
:103EB000266E85EC21F022C0C8F023C0C9F0010EA7
:103EC00051D05204D8A419D0525003EC3BF00CC08E
:103ED00032F00DC033F0A40E226E010E236E32C0FC
:103EE00024F033C025F0040E266E85EC21F022C0AC
:103EF000CAF023C0CBF0000E35D05250D8A415D054
:103F0000525003EC3BF00CC032F00DC033F09C0E6D
:103F1000226E010E236E32C024F033C025F0040E51
:103F2000266E85EC21F0030E1DD0030E5218D8A486
:103F300018D0525003EC3BF00CC032F00DC033F0FF
:103F4000940E226E010E236E32C024F033C025F091
:103F5000040E266E85EC21F0020E526E0001EA2B53
:103F600002D0020E526E040E0001EA6506D0010E68
:103F70000001E96F000E0001EA6F010E120013BE8E
:103F80000AD0100E125C270E1358D8A004D0270EAA
:103F9000136E0F0E126E12C008F013C009F0000E5F
:103FA0000B6E0A0E0A6EE0EC37F0060E0824F66E71
:103FB000EF0E0920F76E20EE03F01050D9261150B5
:103FC000DA220800F5CFDFFF12C008F013C009F0B5
:103FD000000E0B6E0A0E0A6E7BEC33F008C012F076
:103FE00009C013F012C008F013C009F0000E0B6EE8
:103FF0000A0E0A6EE0EC37F0060E0824F66EEF0E9D
:104000000920F76E20EE02F01050D9261150DA2266
:104010000800F5CFDFFF12C008F013C009F0000E52
:104020000B6E0A0E0A6E7BEC33F008C012F009C06A
:1040300013F012C008F013C009F0000E0B6E0A0E48
:104040000A6EE0EC37F0060E0824F66EEF0E09203B
:10405000F76E20EE01F01050D9261150DA22080038
:10406000F5CFDFFF12C008F013C009F0000E0B6E91
:104070000A0E0A6E7BEC33F008C012F009C013F090
:1040800012C008F013C009F0000E0B6E0A0E0A6E83
:10409000E0EC37F0060E0824F66EEF0E0920F76EFE
:1040A00010C0D9FF11C0DAFF0800F5CFDFFF120002
:1040B0000001A66F000E0001AB6F020E0001AC6F95
:1040C000F4C014F0F5C015F0F6C016F0F7C017F004
:1040D0007AEC31F014C0A7F015C0A8F016C0A9F012
:1040E00017C0AAF05CD0000120EE9CF0AB51D9269D
:1040F000AC51DA22A7C0DEFFA8C0DEFFA9C0DEFFF8
:10410000AAC0DEFF000120EEA0F012D0000120EED8
:10411000A4F0AB51D926AC51DA22A7C0DEFFA8C06B
:10412000DEFFA9C0DEFFAAC0DEFF000120EEA8F07E
:10413000AB51D926AC51DA22C8C0DEFFC9C0DDFFC1
:104140003BD0000120EEACF0AB51D926AC51DA22C5
:10415000A7C0DEFFA8C0DEFFA9C0DEFFAAC0DEFF49
:10416000000120EEB0F012D0000120EEB4F0AB510F
:10417000D926AC51DA22A7C0DEFFA8C0DEFFA9C055
:10418000DEFFAAC0DEFF000120EEB8F0AB51D92659
:10419000AC51DA22CAC0DEFFCBC0DDFF0DD05650D5
:1041A000000AD8B4A0D7010AD8B4B0D7030AD8B44B
:1041B000C8D7010AD8B4D8D70FEC25F00001A65112
:1041C0000001D8B403D003EC3FF01200562A030ECE
:1041D000566402D0000E566E5650E0EC30F01200DD
:1041E0000A0E0001D227000ED3230001D35107E1AC
:1041F000640E0001D25DD8B002D0000E1200000E95
:104200000001D36F000ED26F0001EF51D8A415D07A
:10421000000E536ED6C008F0D7C009F053C00AF0A4
:10422000F9EC43F0D6C010F0D7C011F042EC43F0E7
:10423000010E0001EF6F010E1200D6C012F0D7C0C0
:1042400013F0ACEC3FF012C039F013C03AF0535009
:10425000D8A40ED0DC0E226E010E236E39C024F0DD
:104260003AC025F0040E266E85EC21F0030E2CD00A
:10427000030E5318D8A40ED0D40E226E010E236E56
:1042800039C024F03AC025F0040E266E85EC21F0EA
:10429000050E1AD0050E5318D8A415D0CC0E226ED8
:1042A000010E236E39C024F03AC025F0040E266EAC
:1042B00085EC21F022C0DCF023C0DDF0000E536E4F
:1042C0000001EF2B02D0000E536ED6C008F0D7C00D
:1042D00009F053C00AF0F9EC43F0D6C010F0D7C093
:1042E00011F042EC43F0040E0001EF650CD0E40E37
:1042F000376E010E386E80EC39F0010E0001EE6F62
:10430000000E0001EF6F010E1200000E2D6E000E68
:104310002E6E000E2F6E000E306E2604316E315060
:10432000D8B43FD0FE0E276EFF0E286E3150296E96
:104330002A6AD89029362A362750292628502A2238
:1043400029502224D96E2A502320DA6E3150020DD2
:10435000F3502224E96EF4502320EA6EDECFEEFF04
:10436000DDCFEDFF3150020DF3502224D96EF45011
:104370002320DA6EDECF27F0DDCF28F027C029F02A
:1043800028C02AF0000E2ABEFF0E2B6E2C6E29507C
:104390002D262A502E222B502F222C50302231062F
:1043A000BED73150020DF3502224D96EF450232091
:1043B000DA6E24C0DEFF25C0DDFF24C027F025C053
:1043C00028F0000E28BEFF0E296E2A6E27502D26DB
:1043D00028502E2229502F222A5030222DC014F08E
:1043E0002EC015F02FC016F030C017F02650186EF2
:1043F000196A1A6A1B6A91EC29F014C02DF015C0D5
:104400002EF016C02FF017C030F02DC022F02EC0B5
:1044100023F01200E40E0101FB6F010E0101FC6F9D
:10442000660E086E010E096E000E0A6E180E0B6EF7
:104430006DEC44F0000E0101FD6F000E0101FD6FF7
:1044400020D00101FD51340D040EF3240101F96F58
:10445000030EF4200101FA6FF9C122F0FAC123F032
:10446000FBC124F0FCC125F00101FD51080D660ED1
:10447000F324266E010EF420276ED8EC09F001011A
:10448000FD2B030100510101FD5DD8A0DAD7660EB6
:10449000226E010E236EFBC124F0FCC125F0FDC18C
:1044A00026F06FEC0DF0FBC1D9FFFCC1DAFFDECFC7
:1044B000C4F0DECFC5F0DECFC6F0DECFC7F0FBC163
:1044C00085F0FCC186F02AEC29F002010451D8A441
:1044D00013D0C0C0ABF0C1C0ACF0C2C0ADF0C3C01F
:1044E000AEF0B7EC14F0ABC052F1ACC053F1ADC0BC
:1044F00054F1AEC055F11200C0C0ABF0C1C0ACF079
:10450000C2C0ADF0C3C0AEF042EC00F0ABC052F19F
:10451000ACC053F1ADC054F1AEC055F11200000172
:10452000A66F000E0001AD6F020E0001AE6F4CD001
:10453000F80E0001A76F000E0001A86FA7C0D9FFF9
:10454000A8C0DAFF000100EE04F0AD51E926AE513B
:10455000EA22DFCFEFFF42D0F4C014F0F5C015F02F
:10456000F6C016F0F7C017F07AEC31F014C0A9F0DD
:1045700015C0AAF016C0ABF017C0ACF0000120EED9
:1045800008F015D0F4C014F0F5C015F0F6C016F020
:10459000F7C017F07AEC31F014C0A9F015C0AAF0FA
:1045A00016C0ABF017C0ACF0000120EE0CF0AD511E
:1045B000D926AE51DA22A9C0DEFFAAC0DEFFABC009
:1045C000DEFFACC0DEFF0AD05650000AD8B4B0D728
:1045D000010AD8B4C1D7030AD8B4D4D70001A65170
:1045E0000001D8B403D003EC3FF012000FEC25F02B
:1045F000562A020E56640CD0000E566E09D0E5EC19
:1046000040F012001EEC39F012004FEC39F01200AD
:104610005650000AD8B4F3D7010AD8B4F3D7030A26
:10462000D8A41200F2D7000E1E6E000E216E040EEA
:10463000226E7E0E0001DE6F010E0001DF6FDEC014
:1046400008F0DFC009F0AA0E0A6E37EC37F0000E52
:10465000206EA20E1F6EDEC00CF0DFC00DF0000E4B
:104660000E6E21C00FF022C010F01FC011F020C04C
:1046700012F04DEC1AF021C014F022C015F01FC04A
:1046800016F020C017F044EC3AF01E6E1E50D8A46D
:10469000120078EC1CF021C014F022C015F0FE0EC0
:1046A0001F24166EFF0E2020176E96EC3EF0DEC023
:1046B0000BF0DFC00CF0000E0D6E21C00EF022C01A
:1046C0000FF01FC010F020C011F0F1EC26F0DEC09A
:1046D0000CF0DFC00DF0000E0E6E21C00FF022C0F6
:1046E00010F01FC011F020C012F04DEC1AF021C0E4
:1046F00014F022C015F01FC016F020C017F044ECD3
:104700003AF01E6E1E50D8A4120078EC1CF021C0A6
:1047100014F022C015F0FE0E1F24166EFF0E20208E
:10472000176E96EC3EF01200000E1E6E000E216E0B
:10473000030E226E890E0001E06F010E0001E16F91
:10474000E0C008F0E1C009F0AC0E0A6E37EC37F0BB
:10475000000E206EA20E1F6EE0C00CF0E1C00DF046
:10476000000E0E6E21C00FF022C010F01FC011F01D
:1047700020C012F04DEC1AF021C014F022C015F048
:104780001FC016F020C017F044EC3AF01E6E1E5009
:10479000D8A4120011EC1BF021C014F022C015F0B7
:1047A000FE0E1F24166EFF0E2020176E96EC3EF0B4
:1047B000E0C00BF0E1C00CF0000E0D6E21C00EF059
:1047C00022C00FF01FC010F020C011F0F1EC26F055
:1047D000E0C00CF0E1C00DF0000E0E6E21C00FF035
:1047E00022C010F01FC011F020C012F04DEC1AF0E2
:1047F00021C014F022C015F01FC016F020C017F021
:1048000044EC3AF01E6E1E50D8A4120011EC1BF0BE
:1048100021C014F022C015F0FE0E1F24166EFF0EEC
:104820002020176E96EC3EF0120056D0580E086EFF
:10483000000E096E000E0A6E030E0B6E0DEC40F0BA
:104840001200580E086E000E096E000E0A6E040E5D
:104850000B6E0DEC40F01200A2EC42F01200580E6C
:10486000086E000E096E000E0A6E050E0B6E0DEC42
:1048700040F0120051EC44F0120043EC44F01200FE
:10488000580E086E000E096E000E0A6E020E0B6EB8
:104890000DEC40F01200580E086E000E096E000E6E
:1048A0000A6E040E0B6E0DEC40F01200580E086EEE
:1048B000000E096E000E0A6E040E0B6E0DEC40F039
:1048C0001200580E086E000E096E000E0A6E040EDD
:1048D0000B6E0DEC40F012005750000AD8B41200D5
:1048E000100AD8B4A3D7300AD8B4ABD7100AD8B4BA
:1048F000B3D7700AD8B4B3D7100AD8B4BBD7300A2C
:10490000D8B4BBD7100AD8B4BBD7F00AD8B41200B9
:10491000100AD8B4C0D7300AD8B4C8D7100AD8A45F
:104920001200CFD7010E216401D012001FC0D9FFA1
:1049300020C0DAFFDECF2EF0DDCF2FF020EE03F027
:104940001F50D9262050DA22DF50D8B425D02EC0EF
:104950000BF02FC00CF0000E0E6E0A0E0D6E0DEC5B
:104960003DF00BC02EF00CC02FF0E80E2E5C030EB5
:104970002F58D8A004D0030E2F6EE70E2E6E230EF4
:10498000106E000E116E2EC012F02FC013F0BFEC8F
:104990001FF02D0E236E14D0100E2E5C270E2F58F4
:1049A000D8A004D0270E2F6E0F0E2E6E230E106E81
:1049B000000E116E2EC012F02FC013F0BFEC1FF0CE
:1049C000000E286E2150D8A407D0230E1C6E000EB6
:1049D0001D6EB1EC39F006D0230E1C6E000E1D6E5C
:1049E00073EC41F020EE03F01F50D9262050DA225C
:1049F000DF50226E20EE02F01F50D9262050DA221E
:104A0000DF5022242D6E030E2D601200010E196E50
:104A10002150040DF3502D2431EC3BF01200000E18
:104A20000001A16F000E0001A26F020E0001A36F32
:104A3000000E0001A46F020E0001A56FA2C085F058
:104A4000A3C086F0E7EC15F0000120EE10F0A251B3
:104A5000D926A351DA22000185C0DEFF000186C0FD
:104A6000DEFF000187C0DEFF000188C0DEFFA2C0BC
:104A700085F0A3C086F0C9EC1BF0000120EE14F015
:104A8000A251D926A351DA22000185C0DEFF000120
:104A900086C0DEFF000187C0DEFF000188C0DEFFA8
:104AA000A4C014F0A5C015F0000E176EEE0E166E21
:104AB00096EC3EF0000E166EF40E176E000E186E99
:104AC000000E196EA4C01AF0A5C01BF0000E1D6EDA
:104AD000F00E1C6E67EC27F0000E086EF40E096EE7
:104AE000000E0A6E000E0B6EA4C00CF0A5C00DF0F7
:104AF000000E0F6EF00E0E6EEBEC38F0A4C014F04A
:104B0000A5C015F0000E176EF00E166E44EC3AF0CC
:104B10000001A16F120000017F358035446E4450C2
:104B2000D8A40AD0000E00017D6F000E7E6F000E2B
:104B30007F6F000E806F12007DC081F07EC082F01A
:104B40007FC083F080C084F0200E06D00001D89092
:104B50008433833382338133E82EF8D700018151C7
:104B6000436E00017F8FFF0E00017D17FF0E7E1741
:104B7000FF0E7F17000E8017960E445E44AE18D0CD
:104B80004450800A970FD8B00AD0000E00017D6F04
:104B9000000E7E6F000E7F6F000E806F120000010E
:104BA000D89080337F337E337D33443EF8D717D09F
:104BB0001F0E446411D0000E00017D6F000E7E6F49
:104BC000000E7F6F000E806F12000001D8907D37BD
:104BD0007E377F37803744064450D8A4F6D74350F9
:104BE000D8B409D00001801F7F1F7E1F7D6D000E8D
:104BF0007E237F2380237DC07DF07EC07EF07FC03A
:104C00007FF080C080F01200000EA1EC43F0010E96
:104C10002EEC43F056C026F0030E266401D012009D
:104C2000200E086E000E096E9A0E0A6EF30E0B6EC1
:104C300084EC38F02650300F236E200E1C6E000ED0
:104C40001D6EB1EC39F0F80E276E000E286E200EA6
:104C5000086E000E096E740E0A6EF30E0B6E84EC75
:104C600038F027C0D9FF28C0DAFFDF50D8A40BD016
:104C7000200E086E000E096EF40E0A6EF30E0B6E17
:104C800084EC38F02FD027C0D9FF28C0DAFFDE042B
:104C9000D8A40BD0200E086E000E096EC20E0A6E4C
:104CA000F30E0B6E84EC38F01DD027C0D9FF28C05E
:104CB000DAFF020EDE18D8A40BD0200E086E000E0C
:104CC000096EF90E0A6EF30E0B6E84EC38F00AD002
:104CD000200E086E000E096EC70E0A6EF30E0B6EE4
:104CE00084EC38F0200E1C6E000E1D6E73EC41F04B
:104CF00013EC3AF0120020EE06F00B50D9260C50BF
:104D0000DA2201D80AD00500FA6EDE50FD6EDE50C0
:104D1000FE6EF850FF6EFA50120020EE0AF00B50B3
:104D2000D9260C50DA2201D811D00500FA6EDE50D7
:104D3000FD6EDE50FE6EF850FF6EFA5020EE01F070
:104D40000B50D9260C50DA22DF50120020EE0AF068
:104D50000B50D9260C50DA2201D80BD00500FA6E80
:104D6000DE50FD6EDE50FE6EF850FF6EFA500D50B4
:104D7000120020EE0AF00B50D9260C50DA2201D88E
:104D80000BD00500FA6EDE50FD6EDE50FE6EF85060
:104D9000FF6EFA500F50120020EE0AF00B50D92689
:104DA0000C50DA2201D80BD00500FA6EDE50FD6EF1
:104DB000DE50FE6EF850FF6EFA500E50120020EEDC
:104DC00008F00B50D9260C50DA2201D81200050049
:104DD000FA6EDE50FD6EDE50FE6EF850FF6EFA5039
:104DE0001200000E136E000E126E6AD020EE01F05B
:104DF0000B50D9260C50DA2201D80AD00500FA6EE1
:104E0000DE50FD6EDE50FE6EF850FF6EFA5012005E
:104E100020EE05F00B50D9260C50DA2201D80FD025
:104E20000500FA6EDE50FD6EDE50FE6EF850FF6E2D
:104E3000FA500BC0D9FF0CC0DAFFDF50120020EE91
:104E400005F00B50D9260C50DA2201D80BD0050002
:104E5000FA6EDE50FD6EDE50FE6EF850FF6EFA50B8
:104E60000D5012000D2A20EE05F00B50D9260C50E3
:104E7000DA2201D80FD00500FA6EDE50FD6EDE504A
:104E8000FE6EF850FF6EFA500EC0D9FF0FC0DAFF69
:104E9000DF5012000E4A0F2A20EE03F00B50D926E5
:104EA0000C50DA2201D80AD00500FA6EDE50FD6EF1
:104EB000DE50FE6EF850FF6EFA501200124A132AAE
:104EC0001050125C11501358D8B012008FD7000E3A
:104ED000276E050E286EFF0E1614296E030E17148A
:104EE0002A6E1C5029241E6E1D502A201F6E1E047F
:104EF000010E1F58D8B01200000E1614226EFC0EC0
:104F00001714236EFF0E1814246EFF0E1914256E4D
:104F100022C008F023C009F024C00AF025C00BF01D
:104F200027C00CF028C00DF0010E0F6E000E0E6EA3
:104F3000EBEC38F029502724086E2A502820096EFF
:104F40001AC00AF01BC00BF01CC00CF01DC00DF005
:104F500069EC3FF022C009F023C00AF024C00BF036
:104F600025C00CF068EC3CF0040E206E27C029F040
:104F700028C02AF029C0E9FF2A50296E2A6A29C0D0
:104F8000EAFF000E216E13D0000E266E3F0E26643F
:104F900001D006D0EECFE8FFF56E0D00262AF6D739
:104FA0000A00A6847BEC44F0A6940D00212A205030
:104FB000215CD8B01200E8D742C121F043C122F0F1
:104FC00044C123F045C124F015C01DF016C01EF0E9
:104FD00017C01FF018C020F018AE3BD015C019F054
:104FE00016C01AF017C01BF018C01CF0191E1A1EAC
:104FF0001B1E1C1E192A000E1A221B221C2219C05D
:105000001DF01AC01EF01BC01FF01CC020F0010EC6
:10501000246E1FD0232A1DC008F01EC009F01FC037
:105020000AF020C00BF00A0E0C6E000E0D6E000E82
:105030000E6E000E0F6EBDEC33F008C01DF009C0FF
:105040001EF00AC01FF00BC020F0020E236401D036
:1050500009D020501F10DEE1100E1D5C270E1E58D7
:10506000D8B0D8D720501F1006E1100E1D5C270EB7
:105070001E58D8A008D00F0E1D6E270E1E6E000EF3
:105080001F6E000E206E1DC021F01EC022F021C038
:1050900015F022C016F023C017F024C018F012003B
:1050A0002C6E600E576E000E566E2CC055F025C04B
:1050B00054F0000E2D6E040E2E6E2550D8A410D084
:1050C0002C50340D040EF326000EF422F3502D2440
:1050D000D96EF4502E20DA6EDF500001F86F4AD0FE
:1050E000FC0E266EFF0E276E5450286E296AD8904B
:1050F00028362936D89028362936D89028362936A9
:1051000026502826275029225550340D040EF32608
:10511000000EF4222DC02AF02EC02BF0F3502A26C8
:10512000F4502B2228502A24D96E29502B20DA6ED5
:10513000DECF2FF0DECF30F0DECF31F0DECF32F039
:105140002FC015F030C016F031C017F032C018F083
:10515000DCEC27F015C02FF016C030F017C031F08E
:1051600018C032F02FC0F4F030C0F5F031C0F6F0C6
:1051700032C0F7F0000E586E12002C6E500E576EB3
:10518000000E566E2CC055F025C054F0000E2D6E4A
:10519000030E2E6E2550D8A410D02C50340D040EC2
:1051A000F326000EF422F3502D24D96EF4502E2055
:1051B000DA6EDF500001F86F4AD0FC0E266EFF0E4B
:1051C000276E5450286E296AD89028362936D890F0
:1051D00028362936D89028362936265028262750B2
:1051E00029225550340D040EF326000EF4222DC052
:1051F0002AF02EC02BF0F3502A26F4502B222850F0
:105200002A24D96E29502B20DA6EDECF2FF0DECF84
:1052100030F0DECF31F0DECF32F02FC015F030C0ED
:1052200016F031C017F032C018F0DCEC27F015C0D2
:105230002FF016C030F017C031F018C032F02FC078
:10524000F4F030C0F5F031C0F6F032C0F7F0000EE7
:10525000586E120085C0D9FF86C0DAFFDECF08F095
:10526000DECF09F0DECF0AF0DECF0BF0010E7BECD3
:105270001EF008C08BF009C08CF00AC08DF00BC086
:105280008EF006C208F007C209F00A6A0B6A000E27
:105290007BEC1EF008C087F009C088F00AC089F0D6
:1052A0000BC08AF08BC02FF08CC030F08DC031F075
:1052B0008EC032F0CD0E1A6ECC0E1B6E1C0E1C6E04
:1052C000410E1D6E87C016F088C017F089C018F017
:1052D0008AC019F0C7EC0BF016C033F017C034F0D9
:1052E00018C035F019C036F015EC0FF02FC08BF058
:1052F00030C08CF031C08DF032C08EF08BC07DF0AC
:105300008CC07EF08DC07FF08EC080F08BEC25F0DD
:105310007DC0C0F07EC0C1F07FC0C2F080C0C3F0CD
:105320001200000E1D6E1BAE0AD01B1E1A1E191E87
:10533000186C000E19221A221B22010E1D6E17AEC8
:105340000AD0171E161E151E146C000E15221622EA
:105350001722010E1D1A000E1E6E000E1F6E000E8B
:10536000206E000E216E185019101A101B10D8B4A0
:105370002AD0010E1C6E06D0D890183619361A366F
:105380001B361C2A1BAEF8D7D8901E361F36203687
:1053900021361850145C195015581A5016581B50C5
:1053A0001758D8A009D01850145E1950155A1A5021
:1053B000165A1B50175A1E80D8901B321A321932B7
:1053C00018321C2EE1D71D50D8B408D0211E201E43
:1053D0001F1E1E6C000E1F22202221221EC014F050
:1053E0001FC015F020C016F021C017F0120017C022
:1053F000D9FF18C0DAFFDECF1CF0DDCF1DF0030EA1
:10540000196402D0030E196E195092EC3CF008C0DA
:105410000DF009C00EF01CC00BF01DC00CF00DEC1F
:105420003DF00BC012F00CC013F0000E156E0A0E0A
:10543000146E8BEC3FF012C01AF013C01BF0195021
:1054400092EC3CF008C00BF009C00CF01AC00DF053
:105450001BC00EF0B4EC43F00B1E0C1E0B4A0C2AC2
:105460001C500B241C6E1D500C201D6E1A4A1B2A4A
:105470001B5004E10A0E1A5CD8A004D0000E1B6E6B
:10548000000E1A6E195092EC3CF008C00BF009C0E7
:105490000CF01AC00DF01BC00EF0B4EC43F00B5032
:1054A0001C260C501D2217C0D9FF18C0DAFF1CC0E3
:1054B000DEFF1DC0DDFF12000001A86F000E00011D
:1054C000AD6F020E0001AE6FF4C014F0F5C015F020
:1054D000F6C016F0F7C017F07AEC31F014C0A9F05E
:1054E00015C0AAF016C0ABF017C0ACF0D89056307B
:1054F0000001AF6F56A019D00001AF510C0D3C0E4A
:10550000F326000EF422ADC0A6F0AEC0A7F0F35013
:105510000001A627F4500001A723040E0001A625D0
:10552000D96E000E0001A7210ED00001AF510C0D65
:105530003C0EF326000EF422F3500001AD25D96E87
:10554000F4500001AE21DA6EA9C0DEFFAAC0DEFF72
:10555000ABC0DEFFACC0DEFF0FEC25F00001A851B0
:105560000001D8B403D003EC3FF01200562A070E16
:10557000566402D0000E566E565051EC2FF01200B9
:10558000000EA1EC43F0010E2EEC43F0640E336EDE
:105590005550D8A402D06C0E0AD05504D8A402D01D
:1055A000630E05D0020E5518D8A402D0680E346ED2
:1055B00054C03DF03DC008F0096A000E0B6E0A0EA3
:1055C0000A6EE0EC37F00850300F366E0A0E086EA7
:1055D0003D5002EC41F03D6E3DC008F0096A000EFE
:1055E0000B6E0A0E0A6EE0EC37F00850300F356E85
:1055F000000E376E5450D8B40DD0330E1F6E000E0F
:10560000206EF40E216E000E226E58C023F0E4ECE2
:1056100016F01200370E086E000E096E740E0A6E38
:10562000F30E0B6E84EC38F0F8C03DF03D50300FB7
:105630003A6E000E3B6E330E1C6E000E1D6EE2ECD9
:1056400039F013EC3AF01200100E5718D8A41200DB
:105650002FD04FEC38F01200E5EC40F01200B9EC1E
:1056600034F01200000E256E000EBDEC28F0120082
:10567000000E256E000E50EC28F01200000EE0EC3B
:105680003EF01200000E11EC3CF01200000E51EC46
:105690002FF01200000EE0EC30F01200000EFCECD7
:1056A0002EF012003CEC41F01200FEEC44F012002F
:1056B000FCC033F0FDC034F03450000AD8A412000E
:1056C0003350060AD8B4DED7160AD8B4DFD7020A98
:1056D000D8B4EBD7360AD8B4BCD71C0AD8B4BFD7D5
:1056E0007A0AD8B4B9D7C70AD8B4C8D70F0AD8B479
:1056F000D1D7010AD8B4D2D7230AD8B4B3D7010A74
:10570000D8B4B6D7150AD8A41200CCD7000E456E6F
:105710000001F205D8A450D00001E851D8B415D04A
:105720000001EE51D8B412000001EB51D8B41200C0
:105730000001E951D8B41200000E0001E86F17EC27
:1057400045F0000E0001E76F12000001EE51D8A4F1
:1057500008D00001EB51D8A404D00001E951D8B41D
:105760001CD00001EE51D8B403D017EC44F0456EC4
:105770004550D8A407D00001EB51D8B403D008ECB1
:1057800044F0456E4550D8A412000001E951D8B448
:105790001200D9EC43F0456E12003B0E0001E765A4
:1057A00008D0010E0001E86F94EC44F05FEC3DF08E
:1057B00012000001E72B1200010E0001E86F94ECCB
:1057C00044F0000E0001E76F12001EC0D9FF1FC099
:1057D000DAFFDECF21F0DDCF22F0040E206011D001
:1057E000210E176E000E186E20C019F0F7EC29F08C
:1057F0001EC0D9FF1FC0DAFF21C0DEFF22C0DDFFBF
:105800001200040E2018D8A425D020EE02F01E505D
:10581000D9261F50DA22DF50236E232A030E236479
:1058200002D0000E236E20EE03F01E50D9261F502A
:10583000DA22DF50D8B405D0020E236402D0000E65
:10584000236E20EE02F01E50D9261F50DA2223C00C
:10585000DFFF120020EE03F01E50D9261F50DA227F
:10586000DF50236E232A010E236402D0000E236E24
:1058700020EE03F01E50D9261F50DA2223C0DFFF8E
:1058800012002FD003EC3FF0120088EC3DF0120024
:10589000010E8FEC22F01200E5EC3BF01200010E3D
:1058A000B3EC10F01200010E11EC12F01200010E18
:1058B00070EC37F01200010EFEEC33F01200010E16
:1058C0005CEC2AF01200010E58EC20F01200010EE0
:1058D0009DEC2CF01200EDEC3FF0120035EC44F0A2
:1058E00012005750000AD8B4CDD7100AD8B4CAD77E
:1058F000300AD8B4CAD7100AD8B4CAD7700AD8B4F4
:10590000CBD7100AD8B4CBD7300AD8B4CCD7100A2A
:10591000D8B4CDD7F00AD8B4CED7100AD8B4CFD7E0
:10592000300AD8B4D0D7100AD8B4D1D7700AD8B4B6
:10593000D2D7300AD8A41200D1D70001A66F000E2A
:105940000001AB6F020E0001AC6FF4C014F0F5C0A3
:1059500015F0F6C016F0F7C017F07AEC31F014C06D
:10596000A7F015C0A8F016C0A9F017C0AAF01CD067
:10597000000120EEDCF00BD0000120EEE0F007D0BB
:10598000000120EEE4F003D0000120EEE8F0AB517E
:10599000D926AC51DA22A7C0DEFFA8C0DEFFA9C01D
:1059A000DEFFAAC0DEFF0DD05650000AD8B4E0D703
:1059B000010AD8B4E1D7030AD8B4E2D7010AD8B4AF
:1059C000E3D70FEC25F00001A6510001D8B403D0B5
:1059D00003EC3FF01200562A030E566402D0000E6C
:1059E000566E5650FCEC2EF012002AD026EC45F0F4
:1059F0001200C8EC44F01200E3EC44F01200B8ECE2
:105A000038F01200ECEC44F012001FEC42F01200EF
:105A100008EC42F01200D1EC44F01200A9EC40F086
:105A20001200BFEC44F01200D9EC41F01200DAECA5
:105A300044F01200F5EC44F01200A8EC41F0120022
:105A40005750000AD8B4D2D7100AD8B4D2D7300AE7
:105A5000D8B4D2D7100AD8B4D2D7700AD8B4D2D713
:105A6000100AD8B4D2D7300AD8B4D2D7100AD8B4D2
:105A7000D2D7F00AD8B4D2D7100AD8B4D2D7300AC5
:105A8000D8B4D2D7100AD8B4D2D7700AD8B4D2D7E3
:105A9000300AD8A41200D1D72AD078EC42F01200F4
:105AA00055EC43F012007BEC43F0120063EC42F043
:105AB00012008EEC43F01200C0EC2AF0120050EC01
:105AC0002EF01200B0EC3DF0120004EC26F01200B3
:105AD000A3EC2DF012002DEC31F0120092EC30F01E
